{
	"contracts/TokenVestingContract.sol": {
		"TokenVesting": {
			"abi": [
				{
					"inputs": [
						{
							"internalType": "address",
							"name": "_token",
							"type": "address"
						}
					],
					"stateMutability": "nonpayable",
					"type": "constructor"
				},
				{
					"inputs": [
						{
							"internalType": "address",
							"name": "owner",
							"type": "address"
						}
					],
					"name": "OwnableInvalidOwner",
					"type": "error"
				},
				{
					"inputs": [
						{
							"internalType": "address",
							"name": "account",
							"type": "address"
						}
					],
					"name": "OwnableUnauthorizedAccount",
					"type": "error"
				},
				{
					"inputs": [
						{
							"internalType": "address",
							"name": "token",
							"type": "address"
						}
					],
					"name": "SafeERC20FailedOperation",
					"type": "error"
				},
				{
					"anonymous": false,
					"inputs": [
						{
							"indexed": true,
							"internalType": "address",
							"name": "previousOwner",
							"type": "address"
						},
						{
							"indexed": true,
							"internalType": "address",
							"name": "newOwner",
							"type": "address"
						}
					],
					"name": "OwnershipTransferred",
					"type": "event"
				},
				{
					"anonymous": false,
					"inputs": [
						{
							"indexed": true,
							"internalType": "bytes32",
							"name": "vestingScheduleId",
							"type": "bytes32"
						},
						{
							"indexed": true,
							"internalType": "address",
							"name": "beneficiary",
							"type": "address"
						},
						{
							"indexed": false,
							"internalType": "uint256",
							"name": "amount",
							"type": "uint256"
						}
					],
					"name": "TokensReleased",
					"type": "event"
				},
				{
					"anonymous": false,
					"inputs": [
						{
							"indexed": true,
							"internalType": "bytes32",
							"name": "vestingScheduleId",
							"type": "bytes32"
						},
						{
							"indexed": true,
							"internalType": "address",
							"name": "beneficiary",
							"type": "address"
						},
						{
							"indexed": false,
							"internalType": "uint256",
							"name": "cliff",
							"type": "uint256"
						},
						{
							"indexed": false,
							"internalType": "uint256",
							"name": "start",
							"type": "uint256"
						},
						{
							"indexed": false,
							"internalType": "uint256",
							"name": "duration",
							"type": "uint256"
						},
						{
							"indexed": false,
							"internalType": "uint256",
							"name": "slicePeriodSeconds",
							"type": "uint256"
						},
						{
							"indexed": false,
							"internalType": "bool",
							"name": "revocable",
							"type": "bool"
						},
						{
							"indexed": false,
							"internalType": "uint256",
							"name": "amount",
							"type": "uint256"
						}
					],
					"name": "VestingScheduleCreated",
					"type": "event"
				},
				{
					"anonymous": false,
					"inputs": [
						{
							"indexed": true,
							"internalType": "bytes32",
							"name": "vestingScheduleId",
							"type": "bytes32"
						},
						{
							"indexed": true,
							"internalType": "address",
							"name": "beneficiary",
							"type": "address"
						},
						{
							"indexed": false,
							"internalType": "uint256",
							"name": "unreleased",
							"type": "uint256"
						}
					],
					"name": "VestingScheduleRevoked",
					"type": "event"
				},
				{
					"inputs": [
						{
							"internalType": "address",
							"name": "holder",
							"type": "address"
						}
					],
					"name": "computeNextVestingScheduleIdForHolder",
					"outputs": [
						{
							"internalType": "bytes32",
							"name": "",
							"type": "bytes32"
						}
					],
					"stateMutability": "view",
					"type": "function"
				},
				{
					"inputs": [
						{
							"internalType": "bytes32",
							"name": "vestingScheduleId",
							"type": "bytes32"
						}
					],
					"name": "computeReleasableAmount",
					"outputs": [
						{
							"internalType": "uint256",
							"name": "",
							"type": "uint256"
						}
					],
					"stateMutability": "view",
					"type": "function"
				},
				{
					"inputs": [
						{
							"internalType": "address",
							"name": "holder",
							"type": "address"
						},
						{
							"internalType": "uint256",
							"name": "index",
							"type": "uint256"
						}
					],
					"name": "computeVestingScheduleIdForAddressAndIndex",
					"outputs": [
						{
							"internalType": "bytes32",
							"name": "",
							"type": "bytes32"
						}
					],
					"stateMutability": "pure",
					"type": "function"
				},
				{
					"inputs": [
						{
							"internalType": "address",
							"name": "_beneficiary",
							"type": "address"
						},
						{
							"internalType": "uint256",
							"name": "_start",
							"type": "uint256"
						},
						{
							"internalType": "uint256",
							"name": "_cliff",
							"type": "uint256"
						},
						{
							"internalType": "uint256",
							"name": "_duration",
							"type": "uint256"
						},
						{
							"internalType": "uint256",
							"name": "_slicePeriodSeconds",
							"type": "uint256"
						},
						{
							"internalType": "bool",
							"name": "_revocable",
							"type": "bool"
						},
						{
							"internalType": "uint256",
							"name": "_amount",
							"type": "uint256"
						}
					],
					"name": "createVestingSchedule",
					"outputs": [],
					"stateMutability": "nonpayable",
					"type": "function"
				},
				{
					"inputs": [
						{
							"internalType": "address",
							"name": "beneficiary",
							"type": "address"
						}
					],
					"name": "getBeneficiaryInfo",
					"outputs": [
						{
							"internalType": "uint256",
							"name": "totalVested",
							"type": "uint256"
						},
						{
							"internalType": "uint256",
							"name": "totalReleased",
							"type": "uint256"
						},
						{
							"internalType": "uint256",
							"name": "totalReleasable",
							"type": "uint256"
						},
						{
							"internalType": "uint256",
							"name": "scheduleCount",
							"type": "uint256"
						}
					],
					"stateMutability": "view",
					"type": "function"
				},
				{
					"inputs": [
						{
							"internalType": "address",
							"name": "holder",
							"type": "address"
						}
					],
					"name": "getLastVestingScheduleIdForHolder",
					"outputs": [
						{
							"internalType": "bytes32",
							"name": "",
							"type": "bytes32"
						}
					],
					"stateMutability": "view",
					"type": "function"
				},
				{
					"inputs": [],
					"name": "getTotalVestingSchedules",
					"outputs": [
						{
							"internalType": "uint256",
							"name": "",
							"type": "uint256"
						}
					],
					"stateMutability": "view",
					"type": "function"
				},
				{
					"inputs": [
						{
							"internalType": "uint256",
							"name": "index",
							"type": "uint256"
						}
					],
					"name": "getVestingIdAtIndex",
					"outputs": [
						{
							"internalType": "bytes32",
							"name": "",
							"type": "bytes32"
						}
					],
					"stateMutability": "view",
					"type": "function"
				},
				{
					"inputs": [
						{
							"internalType": "bytes32",
							"name": "vestingScheduleId",
							"type": "bytes32"
						}
					],
					"name": "getVestingSchedule",
					"outputs": [
						{
							"components": [
								{
									"internalType": "bool",
									"name": "initialized",
									"type": "bool"
								},
								{
									"internalType": "address",
									"name": "beneficiary",
									"type": "address"
								},
								{
									"internalType": "uint256",
									"name": "cliff",
									"type": "uint256"
								},
								{
									"internalType": "uint256",
									"name": "start",
									"type": "uint256"
								},
								{
									"internalType": "uint256",
									"name": "duration",
									"type": "uint256"
								},
								{
									"internalType": "uint256",
									"name": "slicePeriodSeconds",
									"type": "uint256"
								},
								{
									"internalType": "bool",
									"name": "revocable",
									"type": "bool"
								},
								{
									"internalType": "uint256",
									"name": "amountTotal",
									"type": "uint256"
								},
								{
									"internalType": "uint256",
									"name": "released",
									"type": "uint256"
								},
								{
									"internalType": "bool",
									"name": "revoked",
									"type": "bool"
								}
							],
							"internalType": "struct TokenVesting.VestingSchedule",
							"name": "",
							"type": "tuple"
						}
					],
					"stateMutability": "view",
					"type": "function"
				},
				{
					"inputs": [
						{
							"internalType": "address",
							"name": "holder",
							"type": "address"
						},
						{
							"internalType": "uint256",
							"name": "index",
							"type": "uint256"
						}
					],
					"name": "getVestingScheduleByAddressAndIndex",
					"outputs": [
						{
							"components": [
								{
									"internalType": "bool",
									"name": "initialized",
									"type": "bool"
								},
								{
									"internalType": "address",
									"name": "beneficiary",
									"type": "address"
								},
								{
									"internalType": "uint256",
									"name": "cliff",
									"type": "uint256"
								},
								{
									"internalType": "uint256",
									"name": "start",
									"type": "uint256"
								},
								{
									"internalType": "uint256",
									"name": "duration",
									"type": "uint256"
								},
								{
									"internalType": "uint256",
									"name": "slicePeriodSeconds",
									"type": "uint256"
								},
								{
									"internalType": "bool",
									"name": "revocable",
									"type": "bool"
								},
								{
									"internalType": "uint256",
									"name": "amountTotal",
									"type": "uint256"
								},
								{
									"internalType": "uint256",
									"name": "released",
									"type": "uint256"
								},
								{
									"internalType": "bool",
									"name": "revoked",
									"type": "bool"
								}
							],
							"internalType": "struct TokenVesting.VestingSchedule",
							"name": "",
							"type": "tuple"
						}
					],
					"stateMutability": "view",
					"type": "function"
				},
				{
					"inputs": [
						{
							"internalType": "address",
							"name": "beneficiary",
							"type": "address"
						}
					],
					"name": "getVestingSchedulesByBeneficiary",
					"outputs": [
						{
							"components": [
								{
									"internalType": "bool",
									"name": "initialized",
									"type": "bool"
								},
								{
									"internalType": "address",
									"name": "beneficiary",
									"type": "address"
								},
								{
									"internalType": "uint256",
									"name": "cliff",
									"type": "uint256"
								},
								{
									"internalType": "uint256",
									"name": "start",
									"type": "uint256"
								},
								{
									"internalType": "uint256",
									"name": "duration",
									"type": "uint256"
								},
								{
									"internalType": "uint256",
									"name": "slicePeriodSeconds",
									"type": "uint256"
								},
								{
									"internalType": "bool",
									"name": "revocable",
									"type": "bool"
								},
								{
									"internalType": "uint256",
									"name": "amountTotal",
									"type": "uint256"
								},
								{
									"internalType": "uint256",
									"name": "released",
									"type": "uint256"
								},
								{
									"internalType": "bool",
									"name": "revoked",
									"type": "bool"
								}
							],
							"internalType": "struct TokenVesting.VestingSchedule[]",
							"name": "",
							"type": "tuple[]"
						}
					],
					"stateMutability": "view",
					"type": "function"
				},
				{
					"inputs": [
						{
							"internalType": "address",
							"name": "beneficiary",
							"type": "address"
						}
					],
					"name": "getVestingSchedulesCountByBeneficiary",
					"outputs": [
						{
							"internalType": "uint256",
							"name": "",
							"type": "uint256"
						}
					],
					"stateMutability": "view",
					"type": "function"
				},
				{
					"inputs": [],
					"name": "getWithdrawableAmount",
					"outputs": [
						{
							"internalType": "uint256",
							"name": "",
							"type": "uint256"
						}
					],
					"stateMutability": "view",
					"type": "function"
				},
				{
					"inputs": [
						{
							"internalType": "address",
							"name": "",
							"type": "address"
						}
					],
					"name": "holdersVestingCount",
					"outputs": [
						{
							"internalType": "uint256",
							"name": "",
							"type": "uint256"
						}
					],
					"stateMutability": "view",
					"type": "function"
				},
				{
					"inputs": [],
					"name": "owner",
					"outputs": [
						{
							"internalType": "address",
							"name": "",
							"type": "address"
						}
					],
					"stateMutability": "view",
					"type": "function"
				},
				{
					"inputs": [
						{
							"internalType": "bytes32",
							"name": "vestingScheduleId",
							"type": "bytes32"
						},
						{
							"internalType": "uint256",
							"name": "amount",
							"type": "uint256"
						}
					],
					"name": "release",
					"outputs": [],
					"stateMutability": "nonpayable",
					"type": "function"
				},
				{
					"inputs": [],
					"name": "renounceOwnership",
					"outputs": [],
					"stateMutability": "nonpayable",
					"type": "function"
				},
				{
					"inputs": [
						{
							"internalType": "bytes32",
							"name": "vestingScheduleId",
							"type": "bytes32"
						}
					],
					"name": "revoke",
					"outputs": [],
					"stateMutability": "nonpayable",
					"type": "function"
				},
				{
					"inputs": [],
					"name": "token",
					"outputs": [
						{
							"internalType": "contract IERC20",
							"name": "",
							"type": "address"
						}
					],
					"stateMutability": "view",
					"type": "function"
				},
				{
					"inputs": [
						{
							"internalType": "address",
							"name": "newOwner",
							"type": "address"
						}
					],
					"name": "transferOwnership",
					"outputs": [],
					"stateMutability": "nonpayable",
					"type": "function"
				},
				{
					"inputs": [
						{
							"internalType": "bytes32",
							"name": "",
							"type": "bytes32"
						}
					],
					"name": "vestingSchedules",
					"outputs": [
						{
							"internalType": "bool",
							"name": "initialized",
							"type": "bool"
						},
						{
							"internalType": "address",
							"name": "beneficiary",
							"type": "address"
						},
						{
							"internalType": "uint256",
							"name": "cliff",
							"type": "uint256"
						},
						{
							"internalType": "uint256",
							"name": "start",
							"type": "uint256"
						},
						{
							"internalType": "uint256",
							"name": "duration",
							"type": "uint256"
						},
						{
							"internalType": "uint256",
							"name": "slicePeriodSeconds",
							"type": "uint256"
						},
						{
							"internalType": "bool",
							"name": "revocable",
							"type": "bool"
						},
						{
							"internalType": "uint256",
							"name": "amountTotal",
							"type": "uint256"
						},
						{
							"internalType": "uint256",
							"name": "released",
							"type": "uint256"
						},
						{
							"internalType": "bool",
							"name": "revoked",
							"type": "bool"
						}
					],
					"stateMutability": "view",
					"type": "function"
				},
				{
					"inputs": [
						{
							"internalType": "uint256",
							"name": "",
							"type": "uint256"
						}
					],
					"name": "vestingSchedulesIds",
					"outputs": [
						{
							"internalType": "bytes32",
							"name": "",
							"type": "bytes32"
						}
					],
					"stateMutability": "view",
					"type": "function"
				},
				{
					"inputs": [],
					"name": "vestingSchedulesTotalAmount",
					"outputs": [
						{
							"internalType": "uint256",
							"name": "",
							"type": "uint256"
						}
					],
					"stateMutability": "view",
					"type": "function"
				},
				{
					"inputs": [
						{
							"internalType": "uint256",
							"name": "amount",
							"type": "uint256"
						}
					],
					"name": "withdraw",
					"outputs": [],
					"stateMutability": "nonpayable",
					"type": "function"
				}
			],
			"devdoc": {
				"errors": {
					"OwnableInvalidOwner(address)": [
						{
							"details": "The owner is not a valid owner account. (eg. `address(0)`)"
						}
					],
					"OwnableUnauthorizedAccount(address)": [
						{
							"details": "The caller account is not authorized to perform an operation."
						}
					],
					"SafeERC20FailedOperation(address)": [
						{
							"details": "An operation with an ERC-20 token failed."
						}
					]
				},
				"kind": "dev",
				"methods": {
					"owner()": {
						"details": "Returns the address of the current owner."
					},
					"renounceOwnership()": {
						"details": "Leaves the contract without owner. It will not be possible to call `onlyOwner` functions. Can only be called by the current owner. NOTE: Renouncing ownership will leave the contract without an owner, thereby disabling any functionality that is only available to the owner."
					},
					"transferOwnership(address)": {
						"details": "Transfers ownership of the contract to a new account (`newOwner`). Can only be called by the current owner."
					}
				},
				"version": 1
			},
			"evm": {
				"assembly": "    /* \"contracts/TokenVestingContract.sol\":306:10200  contract TokenVesting is Ownable, ReentrancyGuard {... */\n  mstore(0x40, 0x80)\n    /* \"contracts/TokenVestingContract.sol\":1568:1729  constructor(address _token) Ownable(msg.sender) {... */\n  callvalue\n  dup1\n  iszero\n  tag_1\n  jumpi\n  revert(0x00, 0x00)\ntag_1:\n  pop\n  mload(0x40)\n  sub(codesize, bytecodeSize)\n  dup1\n  bytecodeSize\n  dup4\n  codecopy\n  dup2\n  dup2\n  add\n  0x40\n  mstore\n  dup2\n  add\n  swap1\n  tag_2\n  swap2\n  swap1\n  tag_3\n  jump\t// in\ntag_2:\n    /* \"contracts/TokenVestingContract.sol\":1604:1614  msg.sender */\n  caller\n    /* \"@openzeppelin/contracts/access/Ownable.sol\":1297:1298  0 */\n  0x00\n    /* \"@openzeppelin/contracts/access/Ownable.sol\":1273:1299  initialOwner == address(0) */\n  0xffffffffffffffffffffffffffffffffffffffff\n  and\n    /* \"@openzeppelin/contracts/access/Ownable.sol\":1273:1285  initialOwner */\n  dup2\n    /* \"@openzeppelin/contracts/access/Ownable.sol\":1273:1299  initialOwner == address(0) */\n  0xffffffffffffffffffffffffffffffffffffffff\n  and\n  sub\n    /* \"@openzeppelin/contracts/access/Ownable.sol\":1269:1364  if (initialOwner == address(0)) {... */\n  tag_8\n  jumpi\n    /* \"@openzeppelin/contracts/access/Ownable.sol\":1350:1351  0 */\n  0x00\n    /* \"@openzeppelin/contracts/access/Ownable.sol\":1322:1353  OwnableInvalidOwner(address(0)) */\n  mload(0x40)\n  0x1e4fbdf700000000000000000000000000000000000000000000000000000000\n  dup2\n  mstore\n  0x04\n  add\n  tag_9\n  swap2\n  swap1\n  tag_10\n  jump\t// in\ntag_9:\n  mload(0x40)\n  dup1\n  swap2\n  sub\n  swap1\n  revert\n    /* \"@openzeppelin/contracts/access/Ownable.sol\":1269:1364  if (initialOwner == address(0)) {... */\ntag_8:\n    /* \"@openzeppelin/contracts/access/Ownable.sol\":1373:1405  _transferOwnership(initialOwner) */\n  tag_11\n    /* \"@openzeppelin/contracts/access/Ownable.sol\":1392:1404  initialOwner */\n  dup2\n    /* \"@openzeppelin/contracts/access/Ownable.sol\":1373:1391  _transferOwnership */\n  shl(0x20, tag_12)\n    /* \"@openzeppelin/contracts/access/Ownable.sol\":1373:1405  _transferOwnership(initialOwner) */\n  0x20\n  shr\n  jump\t// in\ntag_11:\n    /* \"@openzeppelin/contracts/access/Ownable.sol\":1225:1412  constructor(address initialOwner) {... */\n  pop\n    /* \"@openzeppelin/contracts/security/ReentrancyGuard.sol\":1716:1717  1 */\n  0x01\n    /* \"@openzeppelin/contracts/security/ReentrancyGuard.sol\":1821:1828  _status */\n  dup1\n    /* \"@openzeppelin/contracts/security/ReentrancyGuard.sol\":1821:1843  _status = _NOT_ENTERED */\n  dup2\n  swap1\n  sstore\n  pop\n    /* \"contracts/TokenVestingContract.sol\":1653:1654  0 */\n  0x00\n    /* \"contracts/TokenVestingContract.sol\":1635:1655  _token != address(0) */\n  0xffffffffffffffffffffffffffffffffffffffff\n  and\n    /* \"contracts/TokenVestingContract.sol\":1635:1641  _token */\n  dup2\n    /* \"contracts/TokenVestingContract.sol\":1635:1655  _token != address(0) */\n  0xffffffffffffffffffffffffffffffffffffffff\n  and\n  sub\n    /* \"contracts/TokenVestingContract.sol\":1627:1688  require(_token != address(0), \"Token address cannot be zero\") */\n  tag_15\n  jumpi\n  mload(0x40)\n  0x08c379a000000000000000000000000000000000000000000000000000000000\n  dup2\n  mstore\n  0x04\n  add\n  tag_16\n  swap1\n  tag_17\n  jump\t// in\ntag_16:\n  mload(0x40)\n  dup1\n  swap2\n  sub\n  swap1\n  revert\ntag_15:\n    /* \"contracts/TokenVestingContract.sol\":1714:1720  _token */\n  dup1\n    /* \"contracts/TokenVestingContract.sol\":1699:1704  token */\n  0x02\n  0x00\n    /* \"contracts/TokenVestingContract.sol\":1699:1721  token = IERC20(_token) */\n  0x0100\n  exp\n  dup2\n  sload\n  dup2\n  0xffffffffffffffffffffffffffffffffffffffff\n  mul\n  not\n  and\n  swap1\n  dup4\n  0xffffffffffffffffffffffffffffffffffffffff\n  and\n  mul\n  or\n  swap1\n  sstore\n  pop\n    /* \"contracts/TokenVestingContract.sol\":1568:1729  constructor(address _token) Ownable(msg.sender) {... */\n  pop\n    /* \"contracts/TokenVestingContract.sol\":306:10200  contract TokenVesting is Ownable, ReentrancyGuard {... */\n  jump(tag_18)\n    /* \"@openzeppelin/contracts/access/Ownable.sol\":2912:3099  function _transferOwnership(address newOwner) internal virtual {... */\ntag_12:\n    /* \"@openzeppelin/contracts/access/Ownable.sol\":2985:3001  address oldOwner */\n  0x00\n    /* \"@openzeppelin/contracts/access/Ownable.sol\":3004:3010  _owner */\n  0x00\n  0x00\n  swap1\n  sload\n  swap1\n  0x0100\n  exp\n  swap1\n  div\n  0xffffffffffffffffffffffffffffffffffffffff\n  and\n    /* \"@openzeppelin/contracts/access/Ownable.sol\":2985:3010  address oldOwner = _owner */\n  swap1\n  pop\n    /* \"@openzeppelin/contracts/access/Ownable.sol\":3029:3037  newOwner */\n  dup2\n    /* \"@openzeppelin/contracts/access/Ownable.sol\":3020:3026  _owner */\n  0x00\n  0x00\n    /* \"@openzeppelin/contracts/access/Ownable.sol\":3020:3037  _owner = newOwner */\n  0x0100\n  exp\n  dup2\n  sload\n  dup2\n  0xffffffffffffffffffffffffffffffffffffffff\n  mul\n  not\n  and\n  swap1\n  dup4\n  0xffffffffffffffffffffffffffffffffffffffff\n  and\n  mul\n  or\n  swap1\n  sstore\n  pop\n    /* \"@openzeppelin/contracts/access/Ownable.sol\":3083:3091  newOwner */\n  dup2\n    /* \"@openzeppelin/contracts/access/Ownable.sol\":3052:3092  OwnershipTransferred(oldOwner, newOwner) */\n  0xffffffffffffffffffffffffffffffffffffffff\n  and\n    /* \"@openzeppelin/contracts/access/Ownable.sol\":3073:3081  oldOwner */\n  dup2\n    /* \"@openzeppelin/contracts/access/Ownable.sol\":3052:3092  OwnershipTransferred(oldOwner, newOwner) */\n  0xffffffffffffffffffffffffffffffffffffffff\n  and\n  0x8be0079c531659141344cd1fd0a4f28419497f9722a3daafe3b4186f6b6457e0\n  mload(0x40)\n  mload(0x40)\n  dup1\n  swap2\n  sub\n  swap1\n  log3\n    /* \"@openzeppelin/contracts/access/Ownable.sol\":2975:3099  {... */\n  pop\n    /* \"@openzeppelin/contracts/access/Ownable.sol\":2912:3099  function _transferOwnership(address newOwner) internal virtual {... */\n  pop\n  jump\t// out\n    /* \"#utility.yul\":88:205   */\ntag_21:\n    /* \"#utility.yul\":197:198   */\n  0x00\n    /* \"#utility.yul\":194:195   */\n  0x00\n    /* \"#utility.yul\":187:199   */\n  revert\n    /* \"#utility.yul\":334:460   */\ntag_23:\n    /* \"#utility.yul\":371:378   */\n  0x00\n    /* \"#utility.yul\":411:453   */\n  0xffffffffffffffffffffffffffffffffffffffff\n    /* \"#utility.yul\":404:409   */\n  dup3\n    /* \"#utility.yul\":400:454   */\n  and\n    /* \"#utility.yul\":389:454   */\n  swap1\n  pop\n    /* \"#utility.yul\":334:460   */\n  swap2\n  swap1\n  pop\n  jump\t// out\n    /* \"#utility.yul\":466:562   */\ntag_24:\n    /* \"#utility.yul\":503:510   */\n  0x00\n    /* \"#utility.yul\":532:556   */\n  tag_37\n    /* \"#utility.yul\":550:555   */\n  dup3\n    /* \"#utility.yul\":532:556   */\n  tag_23\n  jump\t// in\ntag_37:\n    /* \"#utility.yul\":521:556   */\n  swap1\n  pop\n    /* \"#utility.yul\":466:562   */\n  swap2\n  swap1\n  pop\n  jump\t// out\n    /* \"#utility.yul\":568:690   */\ntag_25:\n    /* \"#utility.yul\":641:665   */\n  tag_39\n    /* \"#utility.yul\":659:664   */\n  dup2\n    /* \"#utility.yul\":641:665   */\n  tag_24\n  jump\t// in\ntag_39:\n    /* \"#utility.yul\":634:639   */\n  dup2\n    /* \"#utility.yul\":631:666   */\n  eq\n    /* \"#utility.yul\":621:684   */\n  tag_40\n  jumpi\n    /* \"#utility.yul\":680:681   */\n  0x00\n    /* \"#utility.yul\":677:678   */\n  0x00\n    /* \"#utility.yul\":670:682   */\n  revert\n    /* \"#utility.yul\":621:684   */\ntag_40:\n    /* \"#utility.yul\":568:690   */\n  pop\n  jump\t// out\n    /* \"#utility.yul\":696:839   */\ntag_26:\n    /* \"#utility.yul\":753:758   */\n  0x00\n    /* \"#utility.yul\":784:790   */\n  dup2\n    /* \"#utility.yul\":778:791   */\n  mload\n    /* \"#utility.yul\":769:791   */\n  swap1\n  pop\n    /* \"#utility.yul\":800:833   */\n  tag_42\n    /* \"#utility.yul\":827:832   */\n  dup2\n    /* \"#utility.yul\":800:833   */\n  tag_25\n  jump\t// in\ntag_42:\n    /* \"#utility.yul\":696:839   */\n  swap3\n  swap2\n  pop\n  pop\n  jump\t// out\n    /* \"#utility.yul\":845:1196   */\ntag_3:\n    /* \"#utility.yul\":915:921   */\n  0x00\n    /* \"#utility.yul\":964:966   */\n  0x20\n    /* \"#utility.yul\":952:961   */\n  dup3\n    /* \"#utility.yul\":943:950   */\n  dup5\n    /* \"#utility.yul\":939:962   */\n  sub\n    /* \"#utility.yul\":935:967   */\n  slt\n    /* \"#utility.yul\":932:1051   */\n  iszero\n  tag_44\n  jumpi\n    /* \"#utility.yul\":970:1049   */\n  tag_45\n  tag_21\n  jump\t// in\ntag_45:\n    /* \"#utility.yul\":932:1051   */\ntag_44:\n    /* \"#utility.yul\":1090:1091   */\n  0x00\n    /* \"#utility.yul\":1115:1179   */\n  tag_46\n    /* \"#utility.yul\":1171:1178   */\n  dup5\n    /* \"#utility.yul\":1162:1168   */\n  dup3\n    /* \"#utility.yul\":1151:1160   */\n  dup6\n    /* \"#utility.yul\":1147:1169   */\n  add\n    /* \"#utility.yul\":1115:1179   */\n  tag_26\n  jump\t// in\ntag_46:\n    /* \"#utility.yul\":1105:1179   */\n  swap2\n  pop\n    /* \"#utility.yul\":1061:1189   */\n  pop\n    /* \"#utility.yul\":845:1196   */\n  swap3\n  swap2\n  pop\n  pop\n  jump\t// out\n    /* \"#utility.yul\":1202:1320   */\ntag_27:\n    /* \"#utility.yul\":1289:1313   */\n  tag_48\n    /* \"#utility.yul\":1307:1312   */\n  dup2\n    /* \"#utility.yul\":1289:1313   */\n  tag_24\n  jump\t// in\ntag_48:\n    /* \"#utility.yul\":1284:1287   */\n  dup3\n    /* \"#utility.yul\":1277:1314   */\n  mstore\n    /* \"#utility.yul\":1202:1320   */\n  pop\n  pop\n  jump\t// out\n    /* \"#utility.yul\":1326:1548   */\ntag_10:\n    /* \"#utility.yul\":1419:1423   */\n  0x00\n    /* \"#utility.yul\":1457:1459   */\n  0x20\n    /* \"#utility.yul\":1446:1455   */\n  dup3\n    /* \"#utility.yul\":1442:1460   */\n  add\n    /* \"#utility.yul\":1434:1460   */\n  swap1\n  pop\n    /* \"#utility.yul\":1470:1541   */\n  tag_50\n    /* \"#utility.yul\":1538:1539   */\n  0x00\n    /* \"#utility.yul\":1527:1536   */\n  dup4\n    /* \"#utility.yul\":1523:1540   */\n  add\n    /* \"#utility.yul\":1514:1520   */\n  dup5\n    /* \"#utility.yul\":1470:1541   */\n  tag_27\n  jump\t// in\ntag_50:\n    /* \"#utility.yul\":1326:1548   */\n  swap3\n  swap2\n  pop\n  pop\n  jump\t// out\n    /* \"#utility.yul\":1554:1723   */\ntag_28:\n    /* \"#utility.yul\":1638:1649   */\n  0x00\n    /* \"#utility.yul\":1672:1678   */\n  dup3\n    /* \"#utility.yul\":1667:1670   */\n  dup3\n    /* \"#utility.yul\":1660:1679   */\n  mstore\n    /* \"#utility.yul\":1712:1716   */\n  0x20\n    /* \"#utility.yul\":1707:1710   */\n  dup3\n    /* \"#utility.yul\":1703:1717   */\n  add\n    /* \"#utility.yul\":1688:1717   */\n  swap1\n  pop\n    /* \"#utility.yul\":1554:1723   */\n  swap3\n  swap2\n  pop\n  pop\n  jump\t// out\n    /* \"#utility.yul\":1729:1907   */\ntag_29:\n    /* \"#utility.yul\":1869:1899   */\n  0x546f6b656e20616464726573732063616e6e6f74206265207a65726f00000000\n    /* \"#utility.yul\":1865:1866   */\n  0x00\n    /* \"#utility.yul\":1857:1863   */\n  dup3\n    /* \"#utility.yul\":1853:1867   */\n  add\n    /* \"#utility.yul\":1846:1900   */\n  mstore\n    /* \"#utility.yul\":1729:1907   */\n  pop\n  jump\t// out\n    /* \"#utility.yul\":1913:2279   */\ntag_30:\n    /* \"#utility.yul\":2055:2058   */\n  0x00\n    /* \"#utility.yul\":2076:2143   */\n  tag_54\n    /* \"#utility.yul\":2140:2142   */\n  0x1c\n    /* \"#utility.yul\":2135:2138   */\n  dup4\n    /* \"#utility.yul\":2076:2143   */\n  tag_28\n  jump\t// in\ntag_54:\n    /* \"#utility.yul\":2069:2143   */\n  swap2\n  pop\n    /* \"#utility.yul\":2152:2245   */\n  tag_55\n    /* \"#utility.yul\":2241:2244   */\n  dup3\n    /* \"#utility.yul\":2152:2245   */\n  tag_29\n  jump\t// in\ntag_55:\n    /* \"#utility.yul\":2270:2272   */\n  0x20\n    /* \"#utility.yul\":2265:2268   */\n  dup3\n    /* \"#utility.yul\":2261:2273   */\n  add\n    /* \"#utility.yul\":2254:2273   */\n  swap1\n  pop\n    /* \"#utility.yul\":1913:2279   */\n  swap2\n  swap1\n  pop\n  jump\t// out\n    /* \"#utility.yul\":2285:2704   */\ntag_17:\n    /* \"#utility.yul\":2451:2455   */\n  0x00\n    /* \"#utility.yul\":2489:2491   */\n  0x20\n    /* \"#utility.yul\":2478:2487   */\n  dup3\n    /* \"#utility.yul\":2474:2492   */\n  add\n    /* \"#utility.yul\":2466:2492   */\n  swap1\n  pop\n    /* \"#utility.yul\":2538:2547   */\n  dup2\n    /* \"#utility.yul\":2532:2536   */\n  dup2\n    /* \"#utility.yul\":2528:2548   */\n  sub\n    /* \"#utility.yul\":2524:2525   */\n  0x00\n    /* \"#utility.yul\":2513:2522   */\n  dup4\n    /* \"#utility.yul\":2509:2526   */\n  add\n    /* \"#utility.yul\":2502:2549   */\n  mstore\n    /* \"#utility.yul\":2566:2697   */\n  tag_57\n    /* \"#utility.yul\":2692:2696   */\n  dup2\n    /* \"#utility.yul\":2566:2697   */\n  tag_30\n  jump\t// in\ntag_57:\n    /* \"#utility.yul\":2558:2697   */\n  swap1\n  pop\n    /* \"#utility.yul\":2285:2704   */\n  swap2\n  swap1\n  pop\n  jump\t// out\n    /* \"contracts/TokenVestingContract.sol\":306:10200  contract TokenVesting is Ownable, ReentrancyGuard {... */\ntag_18:\n  dataSize(sub_0)\n  dup1\n  dataOffset(sub_0)\n  0x00\n  codecopy\n  0x00\n  return\nstop\n\nsub_0: assembly {\n        /* \"contracts/TokenVestingContract.sol\":306:10200  contract TokenVesting is Ownable, ReentrancyGuard {... */\n      mstore(0x40, 0x80)\n      callvalue\n      dup1\n      iszero\n      tag_1\n      jumpi\n      revert(0x00, 0x00)\n    tag_1:\n      pop\n      jumpi(tag_2, lt(calldatasize, 0x04))\n      shr(0xe0, calldataload(0x00))\n      dup1\n      0x8af104da\n      gt\n      tag_27\n      jumpi\n      dup1\n      0xea1bb3d5\n      gt\n      tag_28\n      jumpi\n      dup1\n      0xea1bb3d5\n      eq\n      tag_21\n      jumpi\n      dup1\n      0xf2fde38b\n      eq\n      tag_22\n      jumpi\n      dup1\n      0xf51321d7\n      eq\n      tag_23\n      jumpi\n      dup1\n      0xf7c469f0\n      eq\n      tag_24\n      jumpi\n      dup1\n      0xf9079b37\n      eq\n      tag_25\n      jumpi\n      dup1\n      0xfc0c546a\n      eq\n      tag_26\n      jumpi\n      jump(tag_2)\n    tag_28:\n      dup1\n      0x8af104da\n      eq\n      tag_15\n      jumpi\n      dup1\n      0x8da5cb5b\n      eq\n      tag_16\n      jumpi\n      dup1\n      0x90be10cc\n      eq\n      tag_17\n      jumpi\n      dup1\n      0x9d8535ad\n      eq\n      tag_18\n      jumpi\n      dup1\n      0x9ef346b4\n      eq\n      tag_19\n      jumpi\n      dup1\n      0xb75c7dc6\n      eq\n      tag_20\n      jumpi\n      jump(tag_2)\n    tag_27:\n      dup1\n      0x5a7bb69a\n      gt\n      tag_29\n      jumpi\n      dup1\n      0x5a7bb69a\n      eq\n      tag_9\n      jumpi\n      dup1\n      0x60417887\n      eq\n      tag_10\n      jumpi\n      dup1\n      0x66afd8ef\n      eq\n      tag_11\n      jumpi\n      dup1\n      0x6a273a27\n      eq\n      tag_12\n      jumpi\n      dup1\n      0x715018a6\n      eq\n      tag_13\n      jumpi\n      dup1\n      0x8815e862\n      eq\n      tag_14\n      jumpi\n      jump(tag_2)\n    tag_29:\n      dup1\n      0x098df445\n      eq\n      tag_3\n      jumpi\n      dup1\n      0x17e289e9\n      eq\n      tag_4\n      jumpi\n      dup1\n      0x2794e427\n      eq\n      tag_5\n      jumpi\n      dup1\n      0x2e1a7d4d\n      eq\n      tag_6\n      jumpi\n      dup1\n      0x366dc083\n      eq\n      tag_7\n      jumpi\n      dup1\n      0x471121d1\n      eq\n      tag_8\n      jumpi\n    tag_2:\n      revert(0x00, 0x00)\n        /* \"contracts/TokenVestingContract.sol\":7165:7395  function getLastVestingScheduleIdForHolder(address holder)... */\n    tag_3:\n      tag_30\n      0x04\n      dup1\n      calldatasize\n      sub\n      dup2\n      add\n      swap1\n      tag_31\n      swap2\n      swap1\n      tag_32\n      jump\t// in\n    tag_31:\n      tag_33\n      jump\t// in\n    tag_30:\n      mload(0x40)\n      tag_34\n      swap2\n      swap1\n      tag_35\n      jump\t// in\n    tag_34:\n      mload(0x40)\n      dup1\n      swap2\n      sub\n      swap1\n      return\n        /* \"contracts/TokenVestingContract.sol\":1741:3477  function createVestingSchedule(... */\n    tag_4:\n      tag_36\n      0x04\n      dup1\n      calldatasize\n      sub\n      dup2\n      add\n      swap1\n      tag_37\n      swap2\n      swap1\n      tag_38\n      jump\t// in\n    tag_37:\n      tag_39\n      jump\t// in\n    tag_36:\n      stop\n        /* \"contracts/TokenVestingContract.sol\":8858:9329  function getVestingSchedulesByBeneficiary(address beneficiary)... */\n    tag_5:\n      tag_40\n      0x04\n      dup1\n      calldatasize\n      sub\n      dup2\n      add\n      swap1\n      tag_41\n      swap2\n      swap1\n      tag_32\n      jump\t// in\n    tag_41:\n      tag_42\n      jump\t// in\n    tag_40:\n      mload(0x40)\n      tag_43\n      swap2\n      swap1\n      tag_44\n      jump\t// in\n    tag_43:\n      mload(0x40)\n      dup1\n      swap2\n      sub\n      swap1\n      return\n        /* \"contracts/TokenVestingContract.sol\":8618:8846  function withdraw(uint256 amount) public onlyOwner {... */\n    tag_6:\n      tag_45\n      0x04\n      dup1\n      calldatasize\n      sub\n      dup2\n      add\n      swap1\n      tag_46\n      swap2\n      swap1\n      tag_47\n      jump\t// in\n    tag_46:\n      tag_48\n      jump\t// in\n    tag_45:\n      stop\n        /* \"contracts/TokenVestingContract.sol\":9341:10197  function getBeneficiaryInfo(address beneficiary)... */\n    tag_7:\n      tag_49\n      0x04\n      dup1\n      calldatasize\n      sub\n      dup2\n      add\n      swap1\n      tag_50\n      swap2\n      swap1\n      tag_32\n      jump\t// in\n    tag_50:\n      tag_51\n      jump\t// in\n    tag_49:\n      mload(0x40)\n      tag_52\n      swap5\n      swap4\n      swap3\n      swap2\n      swap1\n      tag_53\n      jump\t// in\n    tag_52:\n      mload(0x40)\n      dup1\n      swap2\n      sub\n      swap1\n      return\n        /* \"contracts/TokenVestingContract.sol\":811:865  mapping(address => uint256) public holdersVestingCount */\n    tag_8:\n      tag_54\n      0x04\n      dup1\n      calldatasize\n      sub\n      dup2\n      add\n      swap1\n      tag_55\n      swap2\n      swap1\n      tag_32\n      jump\t// in\n    tag_55:\n      tag_56\n      jump\t// in\n    tag_54:\n      mload(0x40)\n      tag_57\n      swap2\n      swap1\n      tag_58\n      jump\t// in\n    tag_57:\n      mload(0x40)\n      dup1\n      swap2\n      sub\n      swap1\n      return\n        /* \"contracts/TokenVestingContract.sol\":7612:7800  function getVestingSchedulesCountByBeneficiary(address beneficiary)... */\n    tag_9:\n      tag_59\n      0x04\n      dup1\n      calldatasize\n      sub\n      dup2\n      add\n      swap1\n      tag_60\n      swap2\n      swap1\n      tag_32\n      jump\t// in\n    tag_60:\n      tag_61\n      jump\t// in\n    tag_59:\n      mload(0x40)\n      tag_62\n      swap2\n      swap1\n      tag_58\n      jump\t// in\n    tag_62:\n      mload(0x40)\n      dup1\n      swap2\n      sub\n      swap1\n      return\n        /* \"contracts/TokenVestingContract.sol\":745:804  mapping(bytes32 => VestingSchedule) public vestingSchedules */\n    tag_10:\n      tag_63\n      0x04\n      dup1\n      calldatasize\n      sub\n      dup2\n      add\n      swap1\n      tag_64\n      swap2\n      swap1\n      tag_65\n      jump\t// in\n    tag_64:\n      tag_66\n      jump\t// in\n    tag_63:\n      mload(0x40)\n      tag_67\n      swap11\n      swap10\n      swap9\n      swap8\n      swap7\n      swap6\n      swap5\n      swap4\n      swap3\n      swap2\n      swap1\n      tag_68\n      jump\t// in\n    tag_67:\n      mload(0x40)\n      dup1\n      swap2\n      sub\n      swap1\n      return\n        /* \"contracts/TokenVestingContract.sol\":4384:5310  function release(bytes32 vestingScheduleId, uint256 amount) public nonReentrant {... */\n    tag_11:\n      tag_69\n      0x04\n      dup1\n      calldatasize\n      sub\n      dup2\n      add\n      swap1\n      tag_70\n      swap2\n      swap1\n      tag_71\n      jump\t// in\n    tag_70:\n      tag_72\n      jump\t// in\n    tag_69:\n      stop\n        /* \"contracts/TokenVestingContract.sol\":8327:8445  function getTotalVestingSchedules() public view returns (uint256) {... */\n    tag_12:\n      tag_73\n      tag_74\n      jump\t// in\n    tag_73:\n      mload(0x40)\n      tag_75\n      swap2\n      swap1\n      tag_58\n      jump\t// in\n    tag_75:\n      mload(0x40)\n      dup1\n      swap2\n      sub\n      swap1\n      return\n        /* \"@openzeppelin/contracts/access/Ownable.sol\":2293:2394  function renounceOwnership() public virtual onlyOwner {... */\n    tag_13:\n      tag_76\n      tag_77\n      jump\t// in\n    tag_76:\n      stop\n        /* \"contracts/TokenVestingContract.sol\":872:908  bytes32[] public vestingSchedulesIds */\n    tag_14:\n      tag_78\n      0x04\n      dup1\n      calldatasize\n      sub\n      dup2\n      add\n      swap1\n      tag_79\n      swap2\n      swap1\n      tag_47\n      jump\t// in\n    tag_79:\n      tag_80\n      jump\t// in\n    tag_78:\n      mload(0x40)\n      tag_81\n      swap2\n      swap1\n      tag_35\n      jump\t// in\n    tag_81:\n      mload(0x40)\n      dup1\n      swap2\n      sub\n      swap1\n      return\n        /* \"contracts/TokenVestingContract.sol\":6698:6911  function computeVestingScheduleIdForAddressAndIndex(address holder, uint256 index)... */\n    tag_15:\n      tag_82\n      0x04\n      dup1\n      calldatasize\n      sub\n      dup2\n      add\n      swap1\n      tag_83\n      swap2\n      swap1\n      tag_84\n      jump\t// in\n    tag_83:\n      tag_85\n      jump\t// in\n    tag_82:\n      mload(0x40)\n      tag_86\n      swap2\n      swap1\n      tag_35\n      jump\t// in\n    tag_86:\n      mload(0x40)\n      dup1\n      swap2\n      sub\n      swap1\n      return\n        /* \"@openzeppelin/contracts/access/Ownable.sol\":1638:1723  function owner() public view virtual returns (address) {... */\n    tag_16:\n      tag_87\n      tag_88\n      jump\t// in\n    tag_87:\n      mload(0x40)\n      tag_89\n      swap2\n      swap1\n      tag_90\n      jump\t// in\n    tag_89:\n      mload(0x40)\n      dup1\n      swap2\n      sub\n      swap1\n      return\n        /* \"contracts/TokenVestingContract.sol\":8457:8606  function getWithdrawableAmount() public view returns (uint256) {... */\n    tag_17:\n      tag_91\n      tag_92\n      jump\t// in\n    tag_91:\n      mload(0x40)\n      tag_93\n      swap2\n      swap1\n      tag_58\n      jump\t// in\n    tag_93:\n      mload(0x40)\n      dup1\n      swap2\n      sub\n      swap1\n      return\n        /* \"contracts/TokenVestingContract.sol\":915:957  uint256 public vestingSchedulesTotalAmount */\n    tag_18:\n      tag_94\n      tag_95\n      jump\t// in\n    tag_94:\n      mload(0x40)\n      tag_96\n      swap2\n      swap1\n      tag_58\n      jump\t// in\n    tag_96:\n      mload(0x40)\n      dup1\n      swap2\n      sub\n      swap1\n      return\n        /* \"contracts/TokenVestingContract.sol\":7407:7600  function getVestingSchedule(bytes32 vestingScheduleId)... */\n    tag_19:\n      tag_97\n      0x04\n      dup1\n      calldatasize\n      sub\n      dup2\n      add\n      swap1\n      tag_98\n      swap2\n      swap1\n      tag_65\n      jump\t// in\n    tag_98:\n      tag_99\n      jump\t// in\n    tag_97:\n      mload(0x40)\n      tag_100\n      swap2\n      swap1\n      tag_101\n      jump\t// in\n    tag_100:\n      mload(0x40)\n      dup1\n      swap2\n      sub\n      swap1\n      return\n        /* \"contracts/TokenVestingContract.sol\":3489:4372  function revoke(bytes32 vestingScheduleId) public onlyOwner {... */\n    tag_20:\n      tag_102\n      0x04\n      dup1\n      calldatasize\n      sub\n      dup2\n      add\n      swap1\n      tag_103\n      swap2\n      swap1\n      tag_65\n      jump\t// in\n    tag_103:\n      tag_104\n      jump\t// in\n    tag_102:\n      stop\n        /* \"contracts/TokenVestingContract.sol\":5322:5603  function computeReleasableAmount(bytes32 vestingScheduleId) ... */\n    tag_21:\n      tag_105\n      0x04\n      dup1\n      calldatasize\n      sub\n      dup2\n      add\n      swap1\n      tag_106\n      swap2\n      swap1\n      tag_65\n      jump\t// in\n    tag_106:\n      tag_107\n      jump\t// in\n    tag_105:\n      mload(0x40)\n      tag_108\n      swap2\n      swap1\n      tag_58\n      jump\t// in\n    tag_108:\n      mload(0x40)\n      dup1\n      swap2\n      sub\n      swap1\n      return\n        /* \"@openzeppelin/contracts/access/Ownable.sol\":2543:2758  function transferOwnership(address newOwner) public virtual onlyOwner {... */\n    tag_22:\n      tag_109\n      0x04\n      dup1\n      calldatasize\n      sub\n      dup2\n      add\n      swap1\n      tag_110\n      swap2\n      swap1\n      tag_32\n      jump\t// in\n    tag_110:\n      tag_111\n      jump\t// in\n    tag_109:\n      stop\n        /* \"contracts/TokenVestingContract.sol\":8059:8315  function getVestingScheduleByAddressAndIndex(address holder, uint256 index)... */\n    tag_23:\n      tag_112\n      0x04\n      dup1\n      calldatasize\n      sub\n      dup2\n      add\n      swap1\n      tag_113\n      swap2\n      swap1\n      tag_84\n      jump\t// in\n    tag_113:\n      tag_114\n      jump\t// in\n    tag_112:\n      mload(0x40)\n      tag_115\n      swap2\n      swap1\n      tag_101\n      jump\t// in\n    tag_115:\n      mload(0x40)\n      dup1\n      swap2\n      sub\n      swap1\n      return\n        /* \"contracts/TokenVestingContract.sol\":6923:7153  function computeNextVestingScheduleIdForHolder(address holder)... */\n    tag_24:\n      tag_116\n      0x04\n      dup1\n      calldatasize\n      sub\n      dup2\n      add\n      swap1\n      tag_117\n      swap2\n      swap1\n      tag_32\n      jump\t// in\n    tag_117:\n      tag_118\n      jump\t// in\n    tag_116:\n      mload(0x40)\n      tag_119\n      swap2\n      swap1\n      tag_35\n      jump\t// in\n    tag_119:\n      mload(0x40)\n      dup1\n      swap2\n      sub\n      swap1\n      return\n        /* \"contracts/TokenVestingContract.sol\":7812:8047  function getVestingIdAtIndex(uint256 index)... */\n    tag_25:\n      tag_120\n      0x04\n      dup1\n      calldatasize\n      sub\n      dup2\n      add\n      swap1\n      tag_121\n      swap2\n      swap1\n      tag_47\n      jump\t// in\n    tag_121:\n      tag_122\n      jump\t// in\n    tag_120:\n      mload(0x40)\n      tag_123\n      swap2\n      swap1\n      tag_35\n      jump\t// in\n    tag_123:\n      mload(0x40)\n      dup1\n      swap2\n      sub\n      swap1\n      return\n        /* \"contracts/TokenVestingContract.sol\":719:738  IERC20 public token */\n    tag_26:\n      tag_124\n      tag_125\n      jump\t// in\n    tag_124:\n      mload(0x40)\n      tag_126\n      swap2\n      swap1\n      tag_127\n      jump\t// in\n    tag_126:\n      mload(0x40)\n      dup1\n      swap2\n      sub\n      swap1\n      return\n        /* \"contracts/TokenVestingContract.sol\":7165:7395  function getLastVestingScheduleIdForHolder(address holder)... */\n    tag_33:\n        /* \"contracts/TokenVestingContract.sol\":7272:7279  bytes32 */\n      0x00\n        /* \"contracts/TokenVestingContract.sol\":7304:7387  computeVestingScheduleIdForAddressAndIndex(holder, holdersVestingCount[holder] - 1) */\n      tag_129\n        /* \"contracts/TokenVestingContract.sol\":7347:7353  holder */\n      dup3\n        /* \"contracts/TokenVestingContract.sol\":7385:7386  1 */\n      0x01\n        /* \"contracts/TokenVestingContract.sol\":7355:7374  holdersVestingCount */\n      0x04\n        /* \"contracts/TokenVestingContract.sol\":7355:7382  holdersVestingCount[holder] */\n      0x00\n        /* \"contracts/TokenVestingContract.sol\":7375:7381  holder */\n      dup7\n        /* \"contracts/TokenVestingContract.sol\":7355:7382  holdersVestingCount[holder] */\n      0xffffffffffffffffffffffffffffffffffffffff\n      and\n      0xffffffffffffffffffffffffffffffffffffffff\n      and\n      dup2\n      mstore\n      0x20\n      add\n      swap1\n      dup2\n      mstore\n      0x20\n      add\n      0x00\n      keccak256\n      sload\n        /* \"contracts/TokenVestingContract.sol\":7355:7386  holdersVestingCount[holder] - 1 */\n      tag_130\n      swap2\n      swap1\n      tag_131\n      jump\t// in\n    tag_130:\n        /* \"contracts/TokenVestingContract.sol\":7304:7346  computeVestingScheduleIdForAddressAndIndex */\n      tag_85\n        /* \"contracts/TokenVestingContract.sol\":7304:7387  computeVestingScheduleIdForAddressAndIndex(holder, holdersVestingCount[holder] - 1) */\n      jump\t// in\n    tag_129:\n        /* \"contracts/TokenVestingContract.sol\":7297:7387  return computeVestingScheduleIdForAddressAndIndex(holder, holdersVestingCount[holder] - 1) */\n      swap1\n      pop\n        /* \"contracts/TokenVestingContract.sol\":7165:7395  function getLastVestingScheduleIdForHolder(address holder)... */\n      swap2\n      swap1\n      pop\n      jump\t// out\n        /* \"contracts/TokenVestingContract.sol\":1741:3477  function createVestingSchedule(... */\n    tag_39:\n        /* \"@openzeppelin/contracts/access/Ownable.sol\":1531:1544  _checkOwner() */\n      tag_133\n        /* \"@openzeppelin/contracts/access/Ownable.sol\":1531:1542  _checkOwner */\n      tag_134\n        /* \"@openzeppelin/contracts/access/Ownable.sol\":1531:1544  _checkOwner() */\n      jump\t// in\n    tag_133:\n        /* \"contracts/TokenVestingContract.sol\":2038:2039  0 */\n      0x00\n        /* \"contracts/TokenVestingContract.sol\":2014:2040  _beneficiary != address(0) */\n      0xffffffffffffffffffffffffffffffffffffffff\n      and\n        /* \"contracts/TokenVestingContract.sol\":2014:2026  _beneficiary */\n      dup8\n        /* \"contracts/TokenVestingContract.sol\":2014:2040  _beneficiary != address(0) */\n      0xffffffffffffffffffffffffffffffffffffffff\n      and\n      sub\n        /* \"contracts/TokenVestingContract.sol\":2006:2079  require(_beneficiary != address(0), \"Beneficiary cannot be zero address\") */\n      tag_136\n      jumpi\n      mload(0x40)\n      0x08c379a000000000000000000000000000000000000000000000000000000000\n      dup2\n      mstore\n      0x04\n      add\n      tag_137\n      swap1\n      tag_138\n      jump\t// in\n    tag_137:\n      mload(0x40)\n      dup1\n      swap2\n      sub\n      swap1\n      revert\n    tag_136:\n        /* \"contracts/TokenVestingContract.sol\":2110:2111  0 */\n      0x00\n        /* \"contracts/TokenVestingContract.sol\":2098:2107  _duration */\n      dup5\n        /* \"contracts/TokenVestingContract.sol\":2098:2111  _duration > 0 */\n      gt\n        /* \"contracts/TokenVestingContract.sol\":2090:2136  require(_duration > 0, \"Duration must be > 0\") */\n      tag_139\n      jumpi\n      mload(0x40)\n      0x08c379a000000000000000000000000000000000000000000000000000000000\n      dup2\n      mstore\n      0x04\n      add\n      tag_140\n      swap1\n      tag_141\n      jump\t// in\n    tag_140:\n      mload(0x40)\n      dup1\n      swap2\n      sub\n      swap1\n      revert\n    tag_139:\n        /* \"contracts/TokenVestingContract.sol\":2165:2166  0 */\n      0x00\n        /* \"contracts/TokenVestingContract.sol\":2155:2162  _amount */\n      dup2\n        /* \"contracts/TokenVestingContract.sol\":2155:2166  _amount > 0 */\n      gt\n        /* \"contracts/TokenVestingContract.sol\":2147:2189  require(_amount > 0, \"Amount must be > 0\") */\n      tag_142\n      jumpi\n      mload(0x40)\n      0x08c379a000000000000000000000000000000000000000000000000000000000\n      dup2\n      mstore\n      0x04\n      add\n      tag_143\n      swap1\n      tag_144\n      jump\t// in\n    tag_143:\n      mload(0x40)\n      dup1\n      swap2\n      sub\n      swap1\n      revert\n    tag_142:\n        /* \"contracts/TokenVestingContract.sol\":2231:2232  1 */\n      0x01\n        /* \"contracts/TokenVestingContract.sol\":2208:2227  _slicePeriodSeconds */\n      dup4\n        /* \"contracts/TokenVestingContract.sol\":2208:2232  _slicePeriodSeconds >= 1 */\n      lt\n      iszero\n        /* \"contracts/TokenVestingContract.sol\":2200:2269  require(_slicePeriodSeconds >= 1, \"Slice period must be >= 1 second\") */\n      tag_145\n      jumpi\n      mload(0x40)\n      0x08c379a000000000000000000000000000000000000000000000000000000000\n      dup2\n      mstore\n      0x04\n      add\n      tag_146\n      swap1\n      tag_147\n      jump\t// in\n    tag_146:\n      mload(0x40)\n      dup1\n      swap2\n      sub\n      swap1\n      revert\n    tag_145:\n        /* \"contracts/TokenVestingContract.sol\":2301:2307  _cliff */\n      dup5\n        /* \"contracts/TokenVestingContract.sol\":2288:2297  _duration */\n      dup5\n        /* \"contracts/TokenVestingContract.sol\":2288:2307  _duration >= _cliff */\n      lt\n      iszero\n        /* \"contracts/TokenVestingContract.sol\":2280:2337  require(_duration >= _cliff, \"Duration must be >= cliff\") */\n      tag_148\n      jumpi\n      mload(0x40)\n      0x08c379a000000000000000000000000000000000000000000000000000000000\n      dup2\n      mstore\n      0x04\n      add\n      tag_149\n      swap1\n      tag_150\n      jump\t// in\n    tag_149:\n      mload(0x40)\n      dup1\n      swap2\n      sub\n      swap1\n      revert\n    tag_148:\n        /* \"contracts/TokenVestingContract.sol\":2397:2404  _amount */\n      dup1\n        /* \"contracts/TokenVestingContract.sol\":2370:2393  getWithdrawableAmount() */\n      tag_151\n        /* \"contracts/TokenVestingContract.sol\":2370:2391  getWithdrawableAmount */\n      tag_92\n        /* \"contracts/TokenVestingContract.sol\":2370:2393  getWithdrawableAmount() */\n      jump\t// in\n    tag_151:\n        /* \"contracts/TokenVestingContract.sol\":2370:2404  getWithdrawableAmount() >= _amount */\n      lt\n      iszero\n        /* \"contracts/TokenVestingContract.sol\":2348:2483  require(... */\n      tag_152\n      jumpi\n      mload(0x40)\n      0x08c379a000000000000000000000000000000000000000000000000000000000\n      dup2\n      mstore\n      0x04\n      add\n      tag_153\n      swap1\n      tag_154\n      jump\t// in\n    tag_153:\n      mload(0x40)\n      dup1\n      swap2\n      sub\n      swap1\n      revert\n    tag_152:\n        /* \"contracts/TokenVestingContract.sol\":2504:2529  bytes32 vestingScheduleId */\n      0x00\n        /* \"contracts/TokenVestingContract.sol\":2532:2583  computeNextVestingScheduleIdForHolder(_beneficiary) */\n      tag_155\n        /* \"contracts/TokenVestingContract.sol\":2570:2582  _beneficiary */\n      dup9\n        /* \"contracts/TokenVestingContract.sol\":2532:2569  computeNextVestingScheduleIdForHolder */\n      tag_118\n        /* \"contracts/TokenVestingContract.sol\":2532:2583  computeNextVestingScheduleIdForHolder(_beneficiary) */\n      jump\t// in\n    tag_155:\n        /* \"contracts/TokenVestingContract.sol\":2504:2583  bytes32 vestingScheduleId = computeNextVestingScheduleIdForHolder(_beneficiary) */\n      swap1\n      pop\n        /* \"contracts/TokenVestingContract.sol\":2594:2607  uint256 cliff */\n      0x00\n        /* \"contracts/TokenVestingContract.sol\":2619:2625  _cliff */\n      dup7\n        /* \"contracts/TokenVestingContract.sol\":2610:2616  _start */\n      dup9\n        /* \"contracts/TokenVestingContract.sol\":2610:2625  _start + _cliff */\n      tag_156\n      swap2\n      swap1\n      tag_157\n      jump\t// in\n    tag_156:\n        /* \"contracts/TokenVestingContract.sol\":2594:2625  uint256 cliff = _start + _cliff */\n      swap1\n      pop\n        /* \"contracts/TokenVestingContract.sol\":2684:2938  VestingSchedule(... */\n      mload(0x40)\n      dup1\n      0x0140\n      add\n      0x40\n      mstore\n      dup1\n        /* \"contracts/TokenVestingContract.sol\":2714:2718  true */\n      0x01\n        /* \"contracts/TokenVestingContract.sol\":2684:2938  VestingSchedule(... */\n      iszero\n      iszero\n      dup2\n      mstore\n      0x20\n      add\n        /* \"contracts/TokenVestingContract.sol\":2733:2745  _beneficiary */\n      dup11\n        /* \"contracts/TokenVestingContract.sol\":2684:2938  VestingSchedule(... */\n      0xffffffffffffffffffffffffffffffffffffffff\n      and\n      dup2\n      mstore\n      0x20\n      add\n        /* \"contracts/TokenVestingContract.sol\":2760:2765  cliff */\n      dup3\n        /* \"contracts/TokenVestingContract.sol\":2684:2938  VestingSchedule(... */\n      dup2\n      mstore\n      0x20\n      add\n        /* \"contracts/TokenVestingContract.sol\":2780:2786  _start */\n      dup10\n        /* \"contracts/TokenVestingContract.sol\":2684:2938  VestingSchedule(... */\n      dup2\n      mstore\n      0x20\n      add\n        /* \"contracts/TokenVestingContract.sol\":2801:2810  _duration */\n      dup8\n        /* \"contracts/TokenVestingContract.sol\":2684:2938  VestingSchedule(... */\n      dup2\n      mstore\n      0x20\n      add\n        /* \"contracts/TokenVestingContract.sol\":2825:2844  _slicePeriodSeconds */\n      dup7\n        /* \"contracts/TokenVestingContract.sol\":2684:2938  VestingSchedule(... */\n      dup2\n      mstore\n      0x20\n      add\n        /* \"contracts/TokenVestingContract.sol\":2859:2869  _revocable */\n      dup6\n        /* \"contracts/TokenVestingContract.sol\":2684:2938  VestingSchedule(... */\n      iszero\n      iszero\n      dup2\n      mstore\n      0x20\n      add\n        /* \"contracts/TokenVestingContract.sol\":2884:2891  _amount */\n      dup5\n        /* \"contracts/TokenVestingContract.sol\":2684:2938  VestingSchedule(... */\n      dup2\n      mstore\n      0x20\n      add\n        /* \"contracts/TokenVestingContract.sol\":2906:2907  0 */\n      0x00\n        /* \"contracts/TokenVestingContract.sol\":2684:2938  VestingSchedule(... */\n      dup2\n      mstore\n      0x20\n      add\n        /* \"contracts/TokenVestingContract.sol\":2922:2927  false */\n      0x00\n        /* \"contracts/TokenVestingContract.sol\":2684:2938  VestingSchedule(... */\n      iszero\n      iszero\n      dup2\n      mstore\n      pop\n        /* \"contracts/TokenVestingContract.sol\":2646:2662  vestingSchedules */\n      0x03\n        /* \"contracts/TokenVestingContract.sol\":2646:2681  vestingSchedules[vestingScheduleId] */\n      0x00\n        /* \"contracts/TokenVestingContract.sol\":2663:2680  vestingScheduleId */\n      dup5\n        /* \"contracts/TokenVestingContract.sol\":2646:2681  vestingSchedules[vestingScheduleId] */\n      dup2\n      mstore\n      0x20\n      add\n      swap1\n      dup2\n      mstore\n      0x20\n      add\n      0x00\n      keccak256\n        /* \"contracts/TokenVestingContract.sol\":2646:2938  vestingSchedules[vestingScheduleId] = VestingSchedule(... */\n      0x00\n      dup3\n      add\n      mload\n      dup2\n      0x00\n      add\n      exp(0x0100, 0x00)\n      dup2\n      sload\n      dup2\n      0xff\n      mul\n      not\n      and\n      swap1\n      dup4\n      iszero\n      iszero\n      mul\n      or\n      swap1\n      sstore\n      pop\n      0x20\n      dup3\n      add\n      mload\n      dup2\n      0x00\n      add\n      exp(0x0100, 0x01)\n      dup2\n      sload\n      dup2\n      0xffffffffffffffffffffffffffffffffffffffff\n      mul\n      not\n      and\n      swap1\n      dup4\n      0xffffffffffffffffffffffffffffffffffffffff\n      and\n      mul\n      or\n      swap1\n      sstore\n      pop\n      0x40\n      dup3\n      add\n      mload\n      dup2\n      0x01\n      add\n      sstore\n      0x60\n      dup3\n      add\n      mload\n      dup2\n      0x02\n      add\n      sstore\n      0x80\n      dup3\n      add\n      mload\n      dup2\n      0x03\n      add\n      sstore\n      0xa0\n      dup3\n      add\n      mload\n      dup2\n      0x04\n      add\n      sstore\n      0xc0\n      dup3\n      add\n      mload\n      dup2\n      0x05\n      add\n      exp(0x0100, 0x00)\n      dup2\n      sload\n      dup2\n      0xff\n      mul\n      not\n      and\n      swap1\n      dup4\n      iszero\n      iszero\n      mul\n      or\n      swap1\n      sstore\n      pop\n      0xe0\n      dup3\n      add\n      mload\n      dup2\n      0x06\n      add\n      sstore\n      0x0100\n      dup3\n      add\n      mload\n      dup2\n      0x07\n      add\n      sstore\n      0x0120\n      dup3\n      add\n      mload\n      dup2\n      0x08\n      add\n      exp(0x0100, 0x00)\n      dup2\n      sload\n      dup2\n      0xff\n      mul\n      not\n      and\n      swap1\n      dup4\n      iszero\n      iszero\n      mul\n      or\n      swap1\n      sstore\n      pop\n      swap1\n      pop\n      pop\n        /* \"contracts/TokenVestingContract.sol\":2990:2997  _amount */\n      dup3\n        /* \"contracts/TokenVestingContract.sol\":2959:2986  vestingSchedulesTotalAmount */\n      0x06\n      0x00\n        /* \"contracts/TokenVestingContract.sol\":2959:2997  vestingSchedulesTotalAmount += _amount */\n      dup3\n      dup3\n      sload\n      tag_158\n      swap2\n      swap1\n      tag_157\n      jump\t// in\n    tag_158:\n      swap3\n      pop\n      pop\n      dup2\n      swap1\n      sstore\n      pop\n        /* \"contracts/TokenVestingContract.sol\":3008:3027  vestingSchedulesIds */\n      0x05\n        /* \"contracts/TokenVestingContract.sol\":3033:3050  vestingScheduleId */\n      dup3\n        /* \"contracts/TokenVestingContract.sol\":3008:3051  vestingSchedulesIds.push(vestingScheduleId) */\n      swap1\n      dup1\n      0x01\n      dup2\n      sload\n      add\n      dup1\n      dup3\n      sstore\n      dup1\n      swap2\n      pop\n      pop\n      0x01\n      swap1\n      sub\n      swap1\n      0x00\n      mstore\n      keccak256(0x00, 0x20)\n      add\n      0x00\n      swap1\n      swap2\n      swap1\n      swap2\n      swap1\n      swap2\n      pop\n      sstore\n        /* \"contracts/TokenVestingContract.sol\":3072:3099  uint256 currentVestingCount */\n      0x00\n        /* \"contracts/TokenVestingContract.sol\":3102:3121  holdersVestingCount */\n      0x04\n        /* \"contracts/TokenVestingContract.sol\":3102:3135  holdersVestingCount[_beneficiary] */\n      0x00\n        /* \"contracts/TokenVestingContract.sol\":3122:3134  _beneficiary */\n      dup12\n        /* \"contracts/TokenVestingContract.sol\":3102:3135  holdersVestingCount[_beneficiary] */\n      0xffffffffffffffffffffffffffffffffffffffff\n      and\n      0xffffffffffffffffffffffffffffffffffffffff\n      and\n      dup2\n      mstore\n      0x20\n      add\n      swap1\n      dup2\n      mstore\n      0x20\n      add\n      0x00\n      keccak256\n      sload\n        /* \"contracts/TokenVestingContract.sol\":3072:3135  uint256 currentVestingCount = holdersVestingCount[_beneficiary] */\n      swap1\n      pop\n        /* \"contracts/TokenVestingContract.sol\":3204:3205  1 */\n      0x01\n        /* \"contracts/TokenVestingContract.sol\":3182:3201  currentVestingCount */\n      dup2\n        /* \"contracts/TokenVestingContract.sol\":3182:3205  currentVestingCount + 1 */\n      tag_160\n      swap2\n      swap1\n      tag_157\n      jump\t// in\n    tag_160:\n        /* \"contracts/TokenVestingContract.sol\":3146:3165  holdersVestingCount */\n      0x04\n        /* \"contracts/TokenVestingContract.sol\":3146:3179  holdersVestingCount[_beneficiary] */\n      0x00\n        /* \"contracts/TokenVestingContract.sol\":3166:3178  _beneficiary */\n      dup13\n        /* \"contracts/TokenVestingContract.sol\":3146:3179  holdersVestingCount[_beneficiary] */\n      0xffffffffffffffffffffffffffffffffffffffff\n      and\n      0xffffffffffffffffffffffffffffffffffffffff\n      and\n      dup2\n      mstore\n      0x20\n      add\n      swap1\n      dup2\n      mstore\n      0x20\n      add\n      0x00\n      keccak256\n        /* \"contracts/TokenVestingContract.sol\":3146:3205  holdersVestingCount[_beneficiary] = currentVestingCount + 1 */\n      dup2\n      swap1\n      sstore\n      pop\n        /* \"contracts/TokenVestingContract.sol\":3300:3312  _beneficiary */\n      dup10\n        /* \"contracts/TokenVestingContract.sol\":3231:3469  VestingScheduleCreated(... */\n      0xffffffffffffffffffffffffffffffffffffffff\n      and\n        /* \"contracts/TokenVestingContract.sol\":3268:3285  vestingScheduleId */\n      dup4\n        /* \"contracts/TokenVestingContract.sol\":3231:3469  VestingScheduleCreated(... */\n      0x5dd2f0f5121d44031a18f4ec7685b97ce3bd9400feda582818aa28501f1fcf8c\n        /* \"contracts/TokenVestingContract.sol\":3327:3332  cliff */\n      dup5\n        /* \"contracts/TokenVestingContract.sol\":3347:3353  _start */\n      dup13\n        /* \"contracts/TokenVestingContract.sol\":3368:3377  _duration */\n      dup12\n        /* \"contracts/TokenVestingContract.sol\":3392:3411  _slicePeriodSeconds */\n      dup12\n        /* \"contracts/TokenVestingContract.sol\":3426:3436  _revocable */\n      dup12\n        /* \"contracts/TokenVestingContract.sol\":3451:3458  _amount */\n      dup12\n        /* \"contracts/TokenVestingContract.sol\":3231:3469  VestingScheduleCreated(... */\n      mload(0x40)\n      tag_161\n      swap7\n      swap6\n      swap5\n      swap4\n      swap3\n      swap2\n      swap1\n      tag_162\n      jump\t// in\n    tag_161:\n      mload(0x40)\n      dup1\n      swap2\n      sub\n      swap1\n      log3\n        /* \"contracts/TokenVestingContract.sol\":1995:3477  {... */\n      pop\n      pop\n      pop\n        /* \"contracts/TokenVestingContract.sol\":1741:3477  function createVestingSchedule(... */\n      pop\n      pop\n      pop\n      pop\n      pop\n      pop\n      pop\n      jump\t// out\n        /* \"contracts/TokenVestingContract.sol\":8858:9329  function getVestingSchedulesByBeneficiary(address beneficiary)... */\n    tag_42:\n        /* \"contracts/TokenVestingContract.sol\":8969:8993  VestingSchedule[] memory */\n      0x60\n        /* \"contracts/TokenVestingContract.sol\":9011:9024  uint256 count */\n      0x00\n        /* \"contracts/TokenVestingContract.sol\":9027:9046  holdersVestingCount */\n      0x04\n        /* \"contracts/TokenVestingContract.sol\":9027:9059  holdersVestingCount[beneficiary] */\n      0x00\n        /* \"contracts/TokenVestingContract.sol\":9047:9058  beneficiary */\n      dup5\n        /* \"contracts/TokenVestingContract.sol\":9027:9059  holdersVestingCount[beneficiary] */\n      0xffffffffffffffffffffffffffffffffffffffff\n      and\n      0xffffffffffffffffffffffffffffffffffffffff\n      and\n      dup2\n      mstore\n      0x20\n      add\n      swap1\n      dup2\n      mstore\n      0x20\n      add\n      0x00\n      keccak256\n      sload\n        /* \"contracts/TokenVestingContract.sol\":9011:9059  uint256 count = holdersVestingCount[beneficiary] */\n      swap1\n      pop\n        /* \"contracts/TokenVestingContract.sol\":9070:9104  VestingSchedule[] memory schedules */\n      0x00\n        /* \"contracts/TokenVestingContract.sol\":9129:9134  count */\n      dup2\n        /* \"contracts/TokenVestingContract.sol\":9107:9135  new VestingSchedule[](count) */\n      0xffffffffffffffff\n      dup2\n      gt\n      iszero\n      tag_164\n      jumpi\n      tag_165\n      tag_166\n      jump\t// in\n    tag_165:\n    tag_164:\n      mload(0x40)\n      swap1\n      dup1\n      dup3\n      mstore\n      dup1\n      0x20\n      mul\n      0x20\n      add\n      dup3\n      add\n      0x40\n      mstore\n      dup1\n      iszero\n      tag_167\n      jumpi\n      dup2\n      0x20\n      add\n    tag_168:\n      tag_169\n      tag_170\n      jump\t// in\n    tag_169:\n      dup2\n      mstore\n      0x20\n      add\n      swap1\n      0x01\n      swap1\n      sub\n      swap1\n      dup2\n      tag_168\n      jumpi\n      swap1\n      pop\n    tag_167:\n      pop\n        /* \"contracts/TokenVestingContract.sol\":9070:9135  VestingSchedule[] memory schedules = new VestingSchedule[](count) */\n      swap1\n      pop\n        /* \"contracts/TokenVestingContract.sol\":9161:9170  uint256 i */\n      0x00\n        /* \"contracts/TokenVestingContract.sol\":9173:9174  0 */\n      0x00\n        /* \"contracts/TokenVestingContract.sol\":9161:9174  uint256 i = 0 */\n      swap1\n      pop\n        /* \"contracts/TokenVestingContract.sol\":9156:9285  for (uint256 i = 0; i < count; i++) {... */\n    tag_171:\n        /* \"contracts/TokenVestingContract.sol\":9180:9185  count */\n      dup3\n        /* \"contracts/TokenVestingContract.sol\":9176:9177  i */\n      dup2\n        /* \"contracts/TokenVestingContract.sol\":9176:9185  i < count */\n      lt\n        /* \"contracts/TokenVestingContract.sol\":9156:9285  for (uint256 i = 0; i < count; i++) {... */\n      iszero\n      tag_172\n      jumpi\n        /* \"contracts/TokenVestingContract.sol\":9222:9273  getVestingScheduleByAddressAndIndex(beneficiary, i) */\n      tag_174\n        /* \"contracts/TokenVestingContract.sol\":9258:9269  beneficiary */\n      dup6\n        /* \"contracts/TokenVestingContract.sol\":9271:9272  i */\n      dup3\n        /* \"contracts/TokenVestingContract.sol\":9222:9257  getVestingScheduleByAddressAndIndex */\n      tag_114\n        /* \"contracts/TokenVestingContract.sol\":9222:9273  getVestingScheduleByAddressAndIndex(beneficiary, i) */\n      jump\t// in\n    tag_174:\n        /* \"contracts/TokenVestingContract.sol\":9207:9216  schedules */\n      dup3\n        /* \"contracts/TokenVestingContract.sol\":9217:9218  i */\n      dup3\n        /* \"contracts/TokenVestingContract.sol\":9207:9219  schedules[i] */\n      dup2\n      mload\n      dup2\n      lt\n      tag_175\n      jumpi\n      tag_176\n      tag_177\n      jump\t// in\n    tag_176:\n    tag_175:\n      0x20\n      mul\n      0x20\n      add\n      add\n        /* \"contracts/TokenVestingContract.sol\":9207:9273  schedules[i] = getVestingScheduleByAddressAndIndex(beneficiary, i) */\n      dup2\n      swap1\n      mstore\n      pop\n        /* \"contracts/TokenVestingContract.sol\":9187:9190  i++ */\n      dup1\n      dup1\n      0x01\n      add\n      swap2\n      pop\n      pop\n        /* \"contracts/TokenVestingContract.sol\":9156:9285  for (uint256 i = 0; i < count; i++) {... */\n      jump(tag_171)\n    tag_172:\n      pop\n        /* \"contracts/TokenVestingContract.sol\":9312:9321  schedules */\n      dup1\n        /* \"contracts/TokenVestingContract.sol\":9305:9321  return schedules */\n      swap3\n      pop\n      pop\n      pop\n        /* \"contracts/TokenVestingContract.sol\":8858:9329  function getVestingSchedulesByBeneficiary(address beneficiary)... */\n      swap2\n      swap1\n      pop\n      jump\t// out\n        /* \"contracts/TokenVestingContract.sol\":8618:8846  function withdraw(uint256 amount) public onlyOwner {... */\n    tag_48:\n        /* \"@openzeppelin/contracts/access/Ownable.sol\":1531:1544  _checkOwner() */\n      tag_179\n        /* \"@openzeppelin/contracts/access/Ownable.sol\":1531:1542  _checkOwner */\n      tag_134\n        /* \"@openzeppelin/contracts/access/Ownable.sol\":1531:1544  _checkOwner() */\n      jump\t// in\n    tag_179:\n        /* \"contracts/TokenVestingContract.sol\":8729:8735  amount */\n      dup1\n        /* \"contracts/TokenVestingContract.sol\":8702:8725  getWithdrawableAmount() */\n      tag_181\n        /* \"contracts/TokenVestingContract.sol\":8702:8723  getWithdrawableAmount */\n      tag_92\n        /* \"contracts/TokenVestingContract.sol\":8702:8725  getWithdrawableAmount() */\n      jump\t// in\n    tag_181:\n        /* \"contracts/TokenVestingContract.sol\":8702:8735  getWithdrawableAmount() >= amount */\n      lt\n      iszero\n        /* \"contracts/TokenVestingContract.sol\":8680:8792  require(... */\n      tag_182\n      jumpi\n      mload(0x40)\n      0x08c379a000000000000000000000000000000000000000000000000000000000\n      dup2\n      mstore\n      0x04\n      add\n      tag_183\n      swap1\n      tag_184\n      jump\t// in\n    tag_183:\n      mload(0x40)\n      dup1\n      swap2\n      sub\n      swap1\n      revert\n    tag_182:\n        /* \"contracts/TokenVestingContract.sol\":8803:8838  token.safeTransfer(owner(), amount) */\n      tag_185\n        /* \"contracts/TokenVestingContract.sol\":8822:8829  owner() */\n      tag_186\n        /* \"contracts/TokenVestingContract.sol\":8822:8827  owner */\n      tag_88\n        /* \"contracts/TokenVestingContract.sol\":8822:8829  owner() */\n      jump\t// in\n    tag_186:\n        /* \"contracts/TokenVestingContract.sol\":8831:8837  amount */\n      dup3\n        /* \"contracts/TokenVestingContract.sol\":8803:8808  token */\n      0x02\n      0x00\n      swap1\n      sload\n      swap1\n      0x0100\n      exp\n      swap1\n      div\n      0xffffffffffffffffffffffffffffffffffffffff\n      and\n        /* \"contracts/TokenVestingContract.sol\":8803:8821  token.safeTransfer */\n      0xffffffffffffffffffffffffffffffffffffffff\n      and\n      tag_187\n      swap1\n        /* \"contracts/TokenVestingContract.sol\":8803:8838  token.safeTransfer(owner(), amount) */\n      swap3\n      swap2\n      swap1\n      0xffffffff\n      and\n      jump\t// in\n    tag_185:\n        /* \"contracts/TokenVestingContract.sol\":8618:8846  function withdraw(uint256 amount) public onlyOwner {... */\n      pop\n      jump\t// out\n        /* \"contracts/TokenVestingContract.sol\":9341:10197  function getBeneficiaryInfo(address beneficiary)... */\n    tag_51:\n        /* \"contracts/TokenVestingContract.sol\":9452:9471  uint256 totalVested */\n      0x00\n        /* \"contracts/TokenVestingContract.sol\":9486:9507  uint256 totalReleased */\n      0x00\n        /* \"contracts/TokenVestingContract.sol\":9522:9545  uint256 totalReleasable */\n      0x00\n        /* \"contracts/TokenVestingContract.sol\":9560:9581  uint256 scheduleCount */\n      0x00\n        /* \"contracts/TokenVestingContract.sol\":9625:9644  holdersVestingCount */\n      0x04\n        /* \"contracts/TokenVestingContract.sol\":9625:9657  holdersVestingCount[beneficiary] */\n      0x00\n        /* \"contracts/TokenVestingContract.sol\":9645:9656  beneficiary */\n      dup7\n        /* \"contracts/TokenVestingContract.sol\":9625:9657  holdersVestingCount[beneficiary] */\n      0xffffffffffffffffffffffffffffffffffffffff\n      and\n      0xffffffffffffffffffffffffffffffffffffffff\n      and\n      dup2\n      mstore\n      0x20\n      add\n      swap1\n      dup2\n      mstore\n      0x20\n      add\n      0x00\n      keccak256\n      sload\n        /* \"contracts/TokenVestingContract.sol\":9609:9657  scheduleCount = holdersVestingCount[beneficiary] */\n      swap1\n      pop\n        /* \"contracts/TokenVestingContract.sol\":9683:9692  uint256 i */\n      0x00\n        /* \"contracts/TokenVestingContract.sol\":9695:9696  0 */\n      0x00\n        /* \"contracts/TokenVestingContract.sol\":9683:9696  uint256 i = 0 */\n      swap1\n      pop\n        /* \"contracts/TokenVestingContract.sol\":9678:10190  for (uint256 i = 0; i < scheduleCount; i++) {... */\n    tag_189:\n        /* \"contracts/TokenVestingContract.sol\":9702:9715  scheduleCount */\n      dup2\n        /* \"contracts/TokenVestingContract.sol\":9698:9699  i */\n      dup2\n        /* \"contracts/TokenVestingContract.sol\":9698:9715  i < scheduleCount */\n      lt\n        /* \"contracts/TokenVestingContract.sol\":9678:10190  for (uint256 i = 0; i < scheduleCount; i++) {... */\n      iszero\n      tag_190\n      jumpi\n        /* \"contracts/TokenVestingContract.sol\":9737:9762  bytes32 vestingScheduleId */\n      0x00\n        /* \"contracts/TokenVestingContract.sol\":9765:9823  computeVestingScheduleIdForAddressAndIndex(beneficiary, i) */\n      tag_192\n        /* \"contracts/TokenVestingContract.sol\":9808:9819  beneficiary */\n      dup8\n        /* \"contracts/TokenVestingContract.sol\":9821:9822  i */\n      dup4\n        /* \"contracts/TokenVestingContract.sol\":9765:9807  computeVestingScheduleIdForAddressAndIndex */\n      tag_85\n        /* \"contracts/TokenVestingContract.sol\":9765:9823  computeVestingScheduleIdForAddressAndIndex(beneficiary, i) */\n      jump\t// in\n    tag_192:\n        /* \"contracts/TokenVestingContract.sol\":9737:9823  bytes32 vestingScheduleId = computeVestingScheduleIdForAddressAndIndex(beneficiary, i) */\n      swap1\n      pop\n        /* \"contracts/TokenVestingContract.sol\":9838:9870  VestingSchedule storage schedule */\n      0x00\n        /* \"contracts/TokenVestingContract.sol\":9873:9889  vestingSchedules */\n      0x03\n        /* \"contracts/TokenVestingContract.sol\":9873:9908  vestingSchedules[vestingScheduleId] */\n      0x00\n        /* \"contracts/TokenVestingContract.sol\":9890:9907  vestingScheduleId */\n      dup4\n        /* \"contracts/TokenVestingContract.sol\":9873:9908  vestingSchedules[vestingScheduleId] */\n      dup2\n      mstore\n      0x20\n      add\n      swap1\n      dup2\n      mstore\n      0x20\n      add\n      0x00\n      keccak256\n        /* \"contracts/TokenVestingContract.sol\":9838:9908  VestingSchedule storage schedule = vestingSchedules[vestingScheduleId] */\n      swap1\n      pop\n        /* \"contracts/TokenVestingContract.sol\":9941:9949  schedule */\n      dup1\n        /* \"contracts/TokenVestingContract.sol\":9941:9961  schedule.initialized */\n      0x00\n      add\n      0x00\n      swap1\n      sload\n      swap1\n      0x0100\n      exp\n      swap1\n      div\n      0xff\n      and\n        /* \"contracts/TokenVestingContract.sol\":9941:9982  schedule.initialized && !schedule.revoked */\n      dup1\n      iszero\n      tag_193\n      jumpi\n      pop\n        /* \"contracts/TokenVestingContract.sol\":9966:9974  schedule */\n      dup1\n        /* \"contracts/TokenVestingContract.sol\":9966:9982  schedule.revoked */\n      0x08\n      add\n      0x00\n      swap1\n      sload\n      swap1\n      0x0100\n      exp\n      swap1\n      div\n      0xff\n      and\n        /* \"contracts/TokenVestingContract.sol\":9965:9982  !schedule.revoked */\n      iszero\n        /* \"contracts/TokenVestingContract.sol\":9941:9982  schedule.initialized && !schedule.revoked */\n    tag_193:\n        /* \"contracts/TokenVestingContract.sol\":9937:10179  if (schedule.initialized && !schedule.revoked) {... */\n      iszero\n      tag_194\n      jumpi\n        /* \"contracts/TokenVestingContract.sol\":10018:10026  schedule */\n      dup1\n        /* \"contracts/TokenVestingContract.sol\":10018:10038  schedule.amountTotal */\n      0x06\n      add\n      sload\n        /* \"contracts/TokenVestingContract.sol\":10003:10038  totalVested += schedule.amountTotal */\n      dup8\n      tag_195\n      swap2\n      swap1\n      tag_157\n      jump\t// in\n    tag_195:\n      swap7\n      pop\n        /* \"contracts/TokenVestingContract.sol\":10074:10082  schedule */\n      dup1\n        /* \"contracts/TokenVestingContract.sol\":10074:10091  schedule.released */\n      0x07\n      add\n      sload\n        /* \"contracts/TokenVestingContract.sol\":10057:10091  totalReleased += schedule.released */\n      dup7\n      tag_196\n      swap2\n      swap1\n      tag_157\n      jump\t// in\n    tag_196:\n      swap6\n      pop\n        /* \"contracts/TokenVestingContract.sol\":10129:10163  _computeReleasableAmount(schedule) */\n      tag_197\n        /* \"contracts/TokenVestingContract.sol\":10154:10162  schedule */\n      dup2\n        /* \"contracts/TokenVestingContract.sol\":10129:10163  _computeReleasableAmount(schedule) */\n      mload(0x40)\n      dup1\n      0x0140\n      add\n      0x40\n      mstore\n      swap1\n      dup2\n      0x00\n      dup3\n      add\n      0x00\n      swap1\n      sload\n      swap1\n      0x0100\n      exp\n      swap1\n      div\n      0xff\n      and\n      iszero\n      iszero\n      iszero\n      iszero\n      dup2\n      mstore\n      0x20\n      add\n      0x00\n      dup3\n      add\n      0x01\n      swap1\n      sload\n      swap1\n      0x0100\n      exp\n      swap1\n      div\n      0xffffffffffffffffffffffffffffffffffffffff\n      and\n      0xffffffffffffffffffffffffffffffffffffffff\n      and\n      0xffffffffffffffffffffffffffffffffffffffff\n      and\n      dup2\n      mstore\n      0x20\n      add\n      0x01\n      dup3\n      add\n      sload\n      dup2\n      mstore\n      0x20\n      add\n      0x02\n      dup3\n      add\n      sload\n      dup2\n      mstore\n      0x20\n      add\n      0x03\n      dup3\n      add\n      sload\n      dup2\n      mstore\n      0x20\n      add\n      0x04\n      dup3\n      add\n      sload\n      dup2\n      mstore\n      0x20\n      add\n      0x05\n      dup3\n      add\n      0x00\n      swap1\n      sload\n      swap1\n      0x0100\n      exp\n      swap1\n      div\n      0xff\n      and\n      iszero\n      iszero\n      iszero\n      iszero\n      dup2\n      mstore\n      0x20\n      add\n      0x06\n      dup3\n      add\n      sload\n      dup2\n      mstore\n      0x20\n      add\n      0x07\n      dup3\n      add\n      sload\n      dup2\n      mstore\n      0x20\n      add\n      0x08\n      dup3\n      add\n      0x00\n      swap1\n      sload\n      swap1\n      0x0100\n      exp\n      swap1\n      div\n      0xff\n      and\n      iszero\n      iszero\n      iszero\n      iszero\n      dup2\n      mstore\n      pop\n      pop\n        /* \"contracts/TokenVestingContract.sol\":10129:10153  _computeReleasableAmount */\n      tag_198\n        /* \"contracts/TokenVestingContract.sol\":10129:10163  _computeReleasableAmount(schedule) */\n      jump\t// in\n    tag_197:\n        /* \"contracts/TokenVestingContract.sol\":10110:10163  totalReleasable += _computeReleasableAmount(schedule) */\n      dup6\n      tag_199\n      swap2\n      swap1\n      tag_157\n      jump\t// in\n    tag_199:\n      swap5\n      pop\n        /* \"contracts/TokenVestingContract.sol\":9937:10179  if (schedule.initialized && !schedule.revoked) {... */\n    tag_194:\n        /* \"contracts/TokenVestingContract.sol\":9722:10190  {... */\n      pop\n      pop\n        /* \"contracts/TokenVestingContract.sol\":9717:9720  i++ */\n      dup1\n      dup1\n      0x01\n      add\n      swap2\n      pop\n      pop\n        /* \"contracts/TokenVestingContract.sol\":9678:10190  for (uint256 i = 0; i < scheduleCount; i++) {... */\n      jump(tag_189)\n    tag_190:\n      pop\n        /* \"contracts/TokenVestingContract.sol\":9341:10197  function getBeneficiaryInfo(address beneficiary)... */\n      swap2\n      swap4\n      pop\n      swap2\n      swap4\n      jump\t// out\n        /* \"contracts/TokenVestingContract.sol\":811:865  mapping(address => uint256) public holdersVestingCount */\n    tag_56:\n      mstore(0x20, 0x04)\n      dup1\n      0x00\n      mstore\n      keccak256(0x00, 0x40)\n      0x00\n      swap2\n      pop\n      swap1\n      pop\n      sload\n      dup2\n      jump\t// out\n        /* \"contracts/TokenVestingContract.sol\":7612:7800  function getVestingSchedulesCountByBeneficiary(address beneficiary)... */\n    tag_61:\n        /* \"contracts/TokenVestingContract.sol\":7728:7735  uint256 */\n      0x00\n        /* \"contracts/TokenVestingContract.sol\":7760:7779  holdersVestingCount */\n      0x04\n        /* \"contracts/TokenVestingContract.sol\":7760:7792  holdersVestingCount[beneficiary] */\n      0x00\n        /* \"contracts/TokenVestingContract.sol\":7780:7791  beneficiary */\n      dup4\n        /* \"contracts/TokenVestingContract.sol\":7760:7792  holdersVestingCount[beneficiary] */\n      0xffffffffffffffffffffffffffffffffffffffff\n      and\n      0xffffffffffffffffffffffffffffffffffffffff\n      and\n      dup2\n      mstore\n      0x20\n      add\n      swap1\n      dup2\n      mstore\n      0x20\n      add\n      0x00\n      keccak256\n      sload\n        /* \"contracts/TokenVestingContract.sol\":7753:7792  return holdersVestingCount[beneficiary] */\n      swap1\n      pop\n        /* \"contracts/TokenVestingContract.sol\":7612:7800  function getVestingSchedulesCountByBeneficiary(address beneficiary)... */\n      swap2\n      swap1\n      pop\n      jump\t// out\n        /* \"contracts/TokenVestingContract.sol\":745:804  mapping(bytes32 => VestingSchedule) public vestingSchedules */\n    tag_66:\n      mstore(0x20, 0x03)\n      dup1\n      0x00\n      mstore\n      keccak256(0x00, 0x40)\n      0x00\n      swap2\n      pop\n      swap1\n      pop\n      dup1\n      0x00\n      add\n      0x00\n      swap1\n      sload\n      swap1\n      0x0100\n      exp\n      swap1\n      div\n      0xff\n      and\n      swap1\n      dup1\n      0x00\n      add\n      0x01\n      swap1\n      sload\n      swap1\n      0x0100\n      exp\n      swap1\n      div\n      0xffffffffffffffffffffffffffffffffffffffff\n      and\n      swap1\n      dup1\n      0x01\n      add\n      sload\n      swap1\n      dup1\n      0x02\n      add\n      sload\n      swap1\n      dup1\n      0x03\n      add\n      sload\n      swap1\n      dup1\n      0x04\n      add\n      sload\n      swap1\n      dup1\n      0x05\n      add\n      0x00\n      swap1\n      sload\n      swap1\n      0x0100\n      exp\n      swap1\n      div\n      0xff\n      and\n      swap1\n      dup1\n      0x06\n      add\n      sload\n      swap1\n      dup1\n      0x07\n      add\n      sload\n      swap1\n      dup1\n      0x08\n      add\n      0x00\n      swap1\n      sload\n      swap1\n      0x0100\n      exp\n      swap1\n      div\n      0xff\n      and\n      swap1\n      pop\n      dup11\n      jump\t// out\n        /* \"contracts/TokenVestingContract.sol\":4384:5310  function release(bytes32 vestingScheduleId, uint256 amount) public nonReentrant {... */\n    tag_72:\n        /* \"@openzeppelin/contracts/security/ReentrancyGuard.sol\":2261:2282  _nonReentrantBefore() */\n      tag_202\n        /* \"@openzeppelin/contracts/security/ReentrancyGuard.sol\":2261:2280  _nonReentrantBefore */\n      tag_203\n        /* \"@openzeppelin/contracts/security/ReentrancyGuard.sol\":2261:2282  _nonReentrantBefore() */\n      jump\t// in\n    tag_202:\n        /* \"contracts/TokenVestingContract.sol\":4475:4514  VestingSchedule storage vestingSchedule */\n      0x00\n        /* \"contracts/TokenVestingContract.sol\":4517:4533  vestingSchedules */\n      0x03\n        /* \"contracts/TokenVestingContract.sol\":4517:4552  vestingSchedules[vestingScheduleId] */\n      0x00\n        /* \"contracts/TokenVestingContract.sol\":4534:4551  vestingScheduleId */\n      dup5\n        /* \"contracts/TokenVestingContract.sol\":4517:4552  vestingSchedules[vestingScheduleId] */\n      dup2\n      mstore\n      0x20\n      add\n      swap1\n      dup2\n      mstore\n      0x20\n      add\n      0x00\n      keccak256\n        /* \"contracts/TokenVestingContract.sol\":4475:4552  VestingSchedule storage vestingSchedule = vestingSchedules[vestingScheduleId] */\n      swap1\n      pop\n        /* \"contracts/TokenVestingContract.sol\":4571:4586  vestingSchedule */\n      dup1\n        /* \"contracts/TokenVestingContract.sol\":4571:4598  vestingSchedule.initialized */\n      0x00\n      add\n      0x00\n      swap1\n      sload\n      swap1\n      0x0100\n      exp\n      swap1\n      div\n      0xff\n      and\n        /* \"contracts/TokenVestingContract.sol\":4563:4629  require(vestingSchedule.initialized, \"Vesting schedule not found\") */\n      tag_205\n      jumpi\n      mload(0x40)\n      0x08c379a000000000000000000000000000000000000000000000000000000000\n      dup2\n      mstore\n      0x04\n      add\n      tag_206\n      swap1\n      tag_207\n      jump\t// in\n    tag_206:\n      mload(0x40)\n      dup1\n      swap2\n      sub\n      swap1\n      revert\n    tag_205:\n        /* \"contracts/TokenVestingContract.sol\":4650:4668  bool isBeneficiary */\n      0x00\n        /* \"contracts/TokenVestingContract.sol\":4685:4700  vestingSchedule */\n      dup2\n        /* \"contracts/TokenVestingContract.sol\":4685:4712  vestingSchedule.beneficiary */\n      0x00\n      add\n      0x01\n      swap1\n      sload\n      swap1\n      0x0100\n      exp\n      swap1\n      div\n      0xffffffffffffffffffffffffffffffffffffffff\n      and\n        /* \"contracts/TokenVestingContract.sol\":4671:4712  msg.sender == vestingSchedule.beneficiary */\n      0xffffffffffffffffffffffffffffffffffffffff\n      and\n        /* \"contracts/TokenVestingContract.sol\":4671:4681  msg.sender */\n      caller\n        /* \"contracts/TokenVestingContract.sol\":4671:4712  msg.sender == vestingSchedule.beneficiary */\n      0xffffffffffffffffffffffffffffffffffffffff\n      and\n      eq\n        /* \"contracts/TokenVestingContract.sol\":4650:4712  bool isBeneficiary = msg.sender == vestingSchedule.beneficiary */\n      swap1\n      pop\n        /* \"contracts/TokenVestingContract.sol\":4723:4735  bool isOwner */\n      0x00\n        /* \"contracts/TokenVestingContract.sol\":4752:4759  owner() */\n      tag_208\n        /* \"contracts/TokenVestingContract.sol\":4752:4757  owner */\n      tag_88\n        /* \"contracts/TokenVestingContract.sol\":4752:4759  owner() */\n      jump\t// in\n    tag_208:\n        /* \"contracts/TokenVestingContract.sol\":4738:4759  msg.sender == owner() */\n      0xffffffffffffffffffffffffffffffffffffffff\n      and\n        /* \"contracts/TokenVestingContract.sol\":4738:4748  msg.sender */\n      caller\n        /* \"contracts/TokenVestingContract.sol\":4738:4759  msg.sender == owner() */\n      0xffffffffffffffffffffffffffffffffffffffff\n      and\n      eq\n        /* \"contracts/TokenVestingContract.sol\":4723:4759  bool isOwner = msg.sender == owner() */\n      swap1\n      pop\n        /* \"contracts/TokenVestingContract.sol\":4778:4791  isBeneficiary */\n      dup2\n        /* \"contracts/TokenVestingContract.sol\":4778:4802  isBeneficiary || isOwner */\n      dup1\n      tag_209\n      jumpi\n      pop\n        /* \"contracts/TokenVestingContract.sol\":4795:4802  isOwner */\n      dup1\n        /* \"contracts/TokenVestingContract.sol\":4778:4802  isBeneficiary || isOwner */\n    tag_209:\n        /* \"contracts/TokenVestingContract.sol\":4770:4858  require(isBeneficiary || isOwner, \"Only beneficiary or owner can release vested tokens\") */\n      tag_210\n      jumpi\n      mload(0x40)\n      0x08c379a000000000000000000000000000000000000000000000000000000000\n      dup2\n      mstore\n      0x04\n      add\n      tag_211\n      swap1\n      tag_212\n      jump\t// in\n    tag_211:\n      mload(0x40)\n      dup1\n      swap2\n      sub\n      swap1\n      revert\n    tag_210:\n        /* \"contracts/TokenVestingContract.sol\":4879:4899  uint256 vestedAmount */\n      0x00\n        /* \"contracts/TokenVestingContract.sol\":4902:4943  _computeReleasableAmount(vestingSchedule) */\n      tag_213\n        /* \"contracts/TokenVestingContract.sol\":4927:4942  vestingSchedule */\n      dup5\n        /* \"contracts/TokenVestingContract.sol\":4902:4943  _computeReleasableAmount(vestingSchedule) */\n      mload(0x40)\n      dup1\n      0x0140\n      add\n      0x40\n      mstore\n      swap1\n      dup2\n      0x00\n      dup3\n      add\n      0x00\n      swap1\n      sload\n      swap1\n      0x0100\n      exp\n      swap1\n      div\n      0xff\n      and\n      iszero\n      iszero\n      iszero\n      iszero\n      dup2\n      mstore\n      0x20\n      add\n      0x00\n      dup3\n      add\n      0x01\n      swap1\n      sload\n      swap1\n      0x0100\n      exp\n      swap1\n      div\n      0xffffffffffffffffffffffffffffffffffffffff\n      and\n      0xffffffffffffffffffffffffffffffffffffffff\n      and\n      0xffffffffffffffffffffffffffffffffffffffff\n      and\n      dup2\n      mstore\n      0x20\n      add\n      0x01\n      dup3\n      add\n      sload\n      dup2\n      mstore\n      0x20\n      add\n      0x02\n      dup3\n      add\n      sload\n      dup2\n      mstore\n      0x20\n      add\n      0x03\n      dup3\n      add\n      sload\n      dup2\n      mstore\n      0x20\n      add\n      0x04\n      dup3\n      add\n      sload\n      dup2\n      mstore\n      0x20\n      add\n      0x05\n      dup3\n      add\n      0x00\n      swap1\n      sload\n      swap1\n      0x0100\n      exp\n      swap1\n      div\n      0xff\n      and\n      iszero\n      iszero\n      iszero\n      iszero\n      dup2\n      mstore\n      0x20\n      add\n      0x06\n      dup3\n      add\n      sload\n      dup2\n      mstore\n      0x20\n      add\n      0x07\n      dup3\n      add\n      sload\n      dup2\n      mstore\n      0x20\n      add\n      0x08\n      dup3\n      add\n      0x00\n      swap1\n      sload\n      swap1\n      0x0100\n      exp\n      swap1\n      div\n      0xff\n      and\n      iszero\n      iszero\n      iszero\n      iszero\n      dup2\n      mstore\n      pop\n      pop\n        /* \"contracts/TokenVestingContract.sol\":4902:4926  _computeReleasableAmount */\n      tag_198\n        /* \"contracts/TokenVestingContract.sol\":4902:4943  _computeReleasableAmount(vestingSchedule) */\n      jump\t// in\n    tag_213:\n        /* \"contracts/TokenVestingContract.sol\":4879:4943  uint256 vestedAmount = _computeReleasableAmount(vestingSchedule) */\n      swap1\n      pop\n        /* \"contracts/TokenVestingContract.sol\":4978:4984  amount */\n      dup5\n        /* \"contracts/TokenVestingContract.sol\":4962:4974  vestedAmount */\n      dup2\n        /* \"contracts/TokenVestingContract.sol\":4962:4984  vestedAmount >= amount */\n      lt\n      iszero\n        /* \"contracts/TokenVestingContract.sol\":4954:5027  require(vestedAmount >= amount, \"Cannot release more than vested amount\") */\n      tag_214\n      jumpi\n      mload(0x40)\n      0x08c379a000000000000000000000000000000000000000000000000000000000\n      dup2\n      mstore\n      0x04\n      add\n      tag_215\n      swap1\n      tag_216\n      jump\t// in\n    tag_215:\n      mload(0x40)\n      dup1\n      swap2\n      sub\n      swap1\n      revert\n    tag_214:\n        /* \"contracts/TokenVestingContract.sol\":5076:5082  amount */\n      dup5\n        /* \"contracts/TokenVestingContract.sol\":5048:5063  vestingSchedule */\n      dup5\n        /* \"contracts/TokenVestingContract.sol\":5048:5072  vestingSchedule.released */\n      0x07\n      add\n      0x00\n        /* \"contracts/TokenVestingContract.sol\":5048:5082  vestingSchedule.released += amount */\n      dup3\n      dup3\n      sload\n      tag_217\n      swap2\n      swap1\n      tag_157\n      jump\t// in\n    tag_217:\n      swap3\n      pop\n      pop\n      dup2\n      swap1\n      sstore\n      pop\n        /* \"contracts/TokenVestingContract.sol\":5124:5130  amount */\n      dup5\n        /* \"contracts/TokenVestingContract.sol\":5093:5120  vestingSchedulesTotalAmount */\n      0x06\n      0x00\n        /* \"contracts/TokenVestingContract.sol\":5093:5130  vestingSchedulesTotalAmount -= amount */\n      dup3\n      dup3\n      sload\n      tag_218\n      swap2\n      swap1\n      tag_131\n      jump\t// in\n    tag_218:\n      swap3\n      pop\n      pop\n      dup2\n      swap1\n      sstore\n      pop\n        /* \"contracts/TokenVestingContract.sol\":5151:5206  token.safeTransfer(vestingSchedule.beneficiary, amount) */\n      tag_219\n        /* \"contracts/TokenVestingContract.sol\":5170:5185  vestingSchedule */\n      dup5\n        /* \"contracts/TokenVestingContract.sol\":5170:5197  vestingSchedule.beneficiary */\n      0x00\n      add\n      0x01\n      swap1\n      sload\n      swap1\n      0x0100\n      exp\n      swap1\n      div\n      0xffffffffffffffffffffffffffffffffffffffff\n      and\n        /* \"contracts/TokenVestingContract.sol\":5199:5205  amount */\n      dup7\n        /* \"contracts/TokenVestingContract.sol\":5151:5156  token */\n      0x02\n      0x00\n      swap1\n      sload\n      swap1\n      0x0100\n      exp\n      swap1\n      div\n      0xffffffffffffffffffffffffffffffffffffffff\n      and\n        /* \"contracts/TokenVestingContract.sol\":5151:5169  token.safeTransfer */\n      0xffffffffffffffffffffffffffffffffffffffff\n      and\n      tag_187\n      swap1\n        /* \"contracts/TokenVestingContract.sol\":5151:5206  token.safeTransfer(vestingSchedule.beneficiary, amount) */\n      swap3\n      swap2\n      swap1\n      0xffffffff\n      and\n      jump\t// in\n    tag_219:\n        /* \"contracts/TokenVestingContract.sol\":5266:5281  vestingSchedule */\n      dup4\n        /* \"contracts/TokenVestingContract.sol\":5266:5293  vestingSchedule.beneficiary */\n      0x00\n      add\n      0x01\n      swap1\n      sload\n      swap1\n      0x0100\n      exp\n      swap1\n      div\n      0xffffffffffffffffffffffffffffffffffffffff\n      and\n        /* \"contracts/TokenVestingContract.sol\":5232:5302  TokensReleased(vestingScheduleId, vestingSchedule.beneficiary, amount) */\n      0xffffffffffffffffffffffffffffffffffffffff\n      and\n        /* \"contracts/TokenVestingContract.sol\":5247:5264  vestingScheduleId */\n      dup7\n        /* \"contracts/TokenVestingContract.sol\":5232:5302  TokensReleased(vestingScheduleId, vestingSchedule.beneficiary, amount) */\n      0x62eb4bd96d9a7a66875a9f46f9f9d8bf6cfed3fe0578671b752301427d2a4f66\n        /* \"contracts/TokenVestingContract.sol\":5295:5301  amount */\n      dup8\n        /* \"contracts/TokenVestingContract.sol\":5232:5302  TokensReleased(vestingScheduleId, vestingSchedule.beneficiary, amount) */\n      mload(0x40)\n      tag_220\n      swap2\n      swap1\n      tag_58\n      jump\t// in\n    tag_220:\n      mload(0x40)\n      dup1\n      swap2\n      sub\n      swap1\n      log3\n        /* \"contracts/TokenVestingContract.sol\":4464:5310  {... */\n      pop\n      pop\n      pop\n      pop\n        /* \"@openzeppelin/contracts/security/ReentrancyGuard.sol\":2303:2323  _nonReentrantAfter() */\n      tag_221\n        /* \"@openzeppelin/contracts/security/ReentrancyGuard.sol\":2303:2321  _nonReentrantAfter */\n      tag_222\n        /* \"@openzeppelin/contracts/security/ReentrancyGuard.sol\":2303:2323  _nonReentrantAfter() */\n      jump\t// in\n    tag_221:\n        /* \"contracts/TokenVestingContract.sol\":4384:5310  function release(bytes32 vestingScheduleId, uint256 amount) public nonReentrant {... */\n      pop\n      pop\n      jump\t// out\n        /* \"contracts/TokenVestingContract.sol\":8327:8445  function getTotalVestingSchedules() public view returns (uint256) {... */\n    tag_74:\n        /* \"contracts/TokenVestingContract.sol\":8384:8391  uint256 */\n      0x00\n        /* \"contracts/TokenVestingContract.sol\":8411:8430  vestingSchedulesIds */\n      0x05\n        /* \"contracts/TokenVestingContract.sol\":8411:8437  vestingSchedulesIds.length */\n      dup1\n      sload\n      swap1\n      pop\n        /* \"contracts/TokenVestingContract.sol\":8404:8437  return vestingSchedulesIds.length */\n      swap1\n      pop\n        /* \"contracts/TokenVestingContract.sol\":8327:8445  function getTotalVestingSchedules() public view returns (uint256) {... */\n      swap1\n      jump\t// out\n        /* \"@openzeppelin/contracts/access/Ownable.sol\":2293:2394  function renounceOwnership() public virtual onlyOwner {... */\n    tag_77:\n        /* \"@openzeppelin/contracts/access/Ownable.sol\":1531:1544  _checkOwner() */\n      tag_225\n        /* \"@openzeppelin/contracts/access/Ownable.sol\":1531:1542  _checkOwner */\n      tag_134\n        /* \"@openzeppelin/contracts/access/Ownable.sol\":1531:1544  _checkOwner() */\n      jump\t// in\n    tag_225:\n        /* \"@openzeppelin/contracts/access/Ownable.sol\":2357:2387  _transferOwnership(address(0)) */\n      tag_227\n        /* \"@openzeppelin/contracts/access/Ownable.sol\":2384:2385  0 */\n      0x00\n        /* \"@openzeppelin/contracts/access/Ownable.sol\":2357:2375  _transferOwnership */\n      tag_228\n        /* \"@openzeppelin/contracts/access/Ownable.sol\":2357:2387  _transferOwnership(address(0)) */\n      jump\t// in\n    tag_227:\n        /* \"@openzeppelin/contracts/access/Ownable.sol\":2293:2394  function renounceOwnership() public virtual onlyOwner {... */\n      jump\t// out\n        /* \"contracts/TokenVestingContract.sol\":872:908  bytes32[] public vestingSchedulesIds */\n    tag_80:\n      0x05\n      dup2\n      dup2\n      sload\n      dup2\n      lt\n      tag_229\n      jumpi\n      0x00\n      dup1\n      revert\n    tag_229:\n      swap1\n      0x00\n      mstore\n      keccak256(0x00, 0x20)\n      add\n      0x00\n      swap2\n      pop\n      swap1\n      pop\n      sload\n      dup2\n      jump\t// out\n        /* \"contracts/TokenVestingContract.sol\":6698:6911  function computeVestingScheduleIdForAddressAndIndex(address holder, uint256 index)... */\n    tag_85:\n        /* \"contracts/TokenVestingContract.sol\":6829:6836  bytes32 */\n      0x00\n        /* \"contracts/TokenVestingContract.sol\":6888:6894  holder */\n      dup3\n        /* \"contracts/TokenVestingContract.sol\":6896:6901  index */\n      dup3\n        /* \"contracts/TokenVestingContract.sol\":6871:6902  abi.encodePacked(holder, index) */\n      add(0x20, mload(0x40))\n      tag_232\n      swap3\n      swap2\n      swap1\n      tag_233\n      jump\t// in\n    tag_232:\n      mload(0x40)\n      0x20\n      dup2\n      dup4\n      sub\n      sub\n      dup2\n      mstore\n      swap1\n      0x40\n      mstore\n        /* \"contracts/TokenVestingContract.sol\":6861:6903  keccak256(abi.encodePacked(holder, index)) */\n      dup1\n      mload\n      swap1\n      0x20\n      add\n      keccak256\n        /* \"contracts/TokenVestingContract.sol\":6854:6903  return keccak256(abi.encodePacked(holder, index)) */\n      swap1\n      pop\n        /* \"contracts/TokenVestingContract.sol\":6698:6911  function computeVestingScheduleIdForAddressAndIndex(address holder, uint256 index)... */\n      swap3\n      swap2\n      pop\n      pop\n      jump\t// out\n        /* \"@openzeppelin/contracts/access/Ownable.sol\":1638:1723  function owner() public view virtual returns (address) {... */\n    tag_88:\n        /* \"@openzeppelin/contracts/access/Ownable.sol\":1684:1691  address */\n      0x00\n        /* \"@openzeppelin/contracts/access/Ownable.sol\":1710:1716  _owner */\n      0x00\n      0x00\n      swap1\n      sload\n      swap1\n      0x0100\n      exp\n      swap1\n      div\n      0xffffffffffffffffffffffffffffffffffffffff\n      and\n        /* \"@openzeppelin/contracts/access/Ownable.sol\":1703:1716  return _owner */\n      swap1\n      pop\n        /* \"@openzeppelin/contracts/access/Ownable.sol\":1638:1723  function owner() public view virtual returns (address) {... */\n      swap1\n      jump\t// out\n        /* \"contracts/TokenVestingContract.sol\":8457:8606  function getWithdrawableAmount() public view returns (uint256) {... */\n    tag_92:\n        /* \"contracts/TokenVestingContract.sol\":8511:8518  uint256 */\n      0x00\n        /* \"contracts/TokenVestingContract.sol\":8571:8598  vestingSchedulesTotalAmount */\n      sload(0x06)\n        /* \"contracts/TokenVestingContract.sol\":8538:8543  token */\n      0x02\n      0x00\n      swap1\n      sload\n      swap1\n      0x0100\n      exp\n      swap1\n      div\n      0xffffffffffffffffffffffffffffffffffffffff\n      and\n        /* \"contracts/TokenVestingContract.sol\":8538:8553  token.balanceOf */\n      0xffffffffffffffffffffffffffffffffffffffff\n      and\n      0x70a08231\n        /* \"contracts/TokenVestingContract.sol\":8562:8566  this */\n      address\n        /* \"contracts/TokenVestingContract.sol\":8538:8568  token.balanceOf(address(this)) */\n      mload(0x40)\n      dup3\n      0xffffffff\n      and\n      0xe0\n      shl\n      dup2\n      mstore\n      0x04\n      add\n      tag_236\n      swap2\n      swap1\n      tag_90\n      jump\t// in\n    tag_236:\n      0x20\n      mload(0x40)\n      dup1\n      dup4\n      sub\n      dup2\n      dup7\n      gas\n      staticcall\n      iszero\n      dup1\n      iszero\n      tag_238\n      jumpi\n      returndatacopy(0x00, 0x00, returndatasize)\n      revert(0x00, returndatasize)\n    tag_238:\n      pop\n      pop\n      pop\n      pop\n      mload(0x40)\n      returndatasize\n      not(0x1f)\n      0x1f\n      dup3\n      add\n      and\n      dup3\n      add\n      dup1\n      0x40\n      mstore\n      pop\n      dup2\n      add\n      swap1\n      tag_239\n      swap2\n      swap1\n      tag_240\n      jump\t// in\n    tag_239:\n        /* \"contracts/TokenVestingContract.sol\":8538:8598  token.balanceOf(address(this)) - vestingSchedulesTotalAmount */\n      tag_241\n      swap2\n      swap1\n      tag_131\n      jump\t// in\n    tag_241:\n        /* \"contracts/TokenVestingContract.sol\":8531:8598  return token.balanceOf(address(this)) - vestingSchedulesTotalAmount */\n      swap1\n      pop\n        /* \"contracts/TokenVestingContract.sol\":8457:8606  function getWithdrawableAmount() public view returns (uint256) {... */\n      swap1\n      jump\t// out\n        /* \"contracts/TokenVestingContract.sol\":915:957  uint256 public vestingSchedulesTotalAmount */\n    tag_95:\n      sload(0x06)\n      dup2\n      jump\t// out\n        /* \"contracts/TokenVestingContract.sol\":7407:7600  function getVestingSchedule(bytes32 vestingScheduleId)... */\n    tag_99:\n        /* \"contracts/TokenVestingContract.sol\":7510:7532  VestingSchedule memory */\n      tag_242\n      tag_170\n      jump\t// in\n    tag_242:\n        /* \"contracts/TokenVestingContract.sol\":7557:7573  vestingSchedules */\n      0x03\n        /* \"contracts/TokenVestingContract.sol\":7557:7592  vestingSchedules[vestingScheduleId] */\n      0x00\n        /* \"contracts/TokenVestingContract.sol\":7574:7591  vestingScheduleId */\n      dup4\n        /* \"contracts/TokenVestingContract.sol\":7557:7592  vestingSchedules[vestingScheduleId] */\n      dup2\n      mstore\n      0x20\n      add\n      swap1\n      dup2\n      mstore\n      0x20\n      add\n      0x00\n      keccak256\n        /* \"contracts/TokenVestingContract.sol\":7550:7592  return vestingSchedules[vestingScheduleId] */\n      mload(0x40)\n      dup1\n      0x0140\n      add\n      0x40\n      mstore\n      swap1\n      dup2\n      0x00\n      dup3\n      add\n      0x00\n      swap1\n      sload\n      swap1\n      0x0100\n      exp\n      swap1\n      div\n      0xff\n      and\n      iszero\n      iszero\n      iszero\n      iszero\n      dup2\n      mstore\n      0x20\n      add\n      0x00\n      dup3\n      add\n      0x01\n      swap1\n      sload\n      swap1\n      0x0100\n      exp\n      swap1\n      div\n      0xffffffffffffffffffffffffffffffffffffffff\n      and\n      0xffffffffffffffffffffffffffffffffffffffff\n      and\n      0xffffffffffffffffffffffffffffffffffffffff\n      and\n      dup2\n      mstore\n      0x20\n      add\n      0x01\n      dup3\n      add\n      sload\n      dup2\n      mstore\n      0x20\n      add\n      0x02\n      dup3\n      add\n      sload\n      dup2\n      mstore\n      0x20\n      add\n      0x03\n      dup3\n      add\n      sload\n      dup2\n      mstore\n      0x20\n      add\n      0x04\n      dup3\n      add\n      sload\n      dup2\n      mstore\n      0x20\n      add\n      0x05\n      dup3\n      add\n      0x00\n      swap1\n      sload\n      swap1\n      0x0100\n      exp\n      swap1\n      div\n      0xff\n      and\n      iszero\n      iszero\n      iszero\n      iszero\n      dup2\n      mstore\n      0x20\n      add\n      0x06\n      dup3\n      add\n      sload\n      dup2\n      mstore\n      0x20\n      add\n      0x07\n      dup3\n      add\n      sload\n      dup2\n      mstore\n      0x20\n      add\n      0x08\n      dup3\n      add\n      0x00\n      swap1\n      sload\n      swap1\n      0x0100\n      exp\n      swap1\n      div\n      0xff\n      and\n      iszero\n      iszero\n      iszero\n      iszero\n      dup2\n      mstore\n      pop\n      pop\n      swap1\n      pop\n        /* \"contracts/TokenVestingContract.sol\":7407:7600  function getVestingSchedule(bytes32 vestingScheduleId)... */\n      swap2\n      swap1\n      pop\n      jump\t// out\n        /* \"contracts/TokenVestingContract.sol\":3489:4372  function revoke(bytes32 vestingScheduleId) public onlyOwner {... */\n    tag_104:\n        /* \"@openzeppelin/contracts/access/Ownable.sol\":1531:1544  _checkOwner() */\n      tag_245\n        /* \"@openzeppelin/contracts/access/Ownable.sol\":1531:1542  _checkOwner */\n      tag_134\n        /* \"@openzeppelin/contracts/access/Ownable.sol\":1531:1544  _checkOwner() */\n      jump\t// in\n    tag_245:\n        /* \"contracts/TokenVestingContract.sol\":3560:3599  VestingSchedule storage vestingSchedule */\n      0x00\n        /* \"contracts/TokenVestingContract.sol\":3602:3618  vestingSchedules */\n      0x03\n        /* \"contracts/TokenVestingContract.sol\":3602:3637  vestingSchedules[vestingScheduleId] */\n      0x00\n        /* \"contracts/TokenVestingContract.sol\":3619:3636  vestingScheduleId */\n      dup4\n        /* \"contracts/TokenVestingContract.sol\":3602:3637  vestingSchedules[vestingScheduleId] */\n      dup2\n      mstore\n      0x20\n      add\n      swap1\n      dup2\n      mstore\n      0x20\n      add\n      0x00\n      keccak256\n        /* \"contracts/TokenVestingContract.sol\":3560:3637  VestingSchedule storage vestingSchedule = vestingSchedules[vestingScheduleId] */\n      swap1\n      pop\n        /* \"contracts/TokenVestingContract.sol\":3656:3671  vestingSchedule */\n      dup1\n        /* \"contracts/TokenVestingContract.sol\":3656:3683  vestingSchedule.initialized */\n      0x00\n      add\n      0x00\n      swap1\n      sload\n      swap1\n      0x0100\n      exp\n      swap1\n      div\n      0xff\n      and\n        /* \"contracts/TokenVestingContract.sol\":3648:3714  require(vestingSchedule.initialized, \"Vesting schedule not found\") */\n      tag_247\n      jumpi\n      mload(0x40)\n      0x08c379a000000000000000000000000000000000000000000000000000000000\n      dup2\n      mstore\n      0x04\n      add\n      tag_248\n      swap1\n      tag_207\n      jump\t// in\n    tag_248:\n      mload(0x40)\n      dup1\n      swap2\n      sub\n      swap1\n      revert\n    tag_247:\n        /* \"contracts/TokenVestingContract.sol\":3733:3748  vestingSchedule */\n      dup1\n        /* \"contracts/TokenVestingContract.sol\":3733:3758  vestingSchedule.revocable */\n      0x05\n      add\n      0x00\n      swap1\n      sload\n      swap1\n      0x0100\n      exp\n      swap1\n      div\n      0xff\n      and\n        /* \"contracts/TokenVestingContract.sol\":3725:3793  require(vestingSchedule.revocable, \"Vesting schedule not revocable\") */\n      tag_249\n      jumpi\n      mload(0x40)\n      0x08c379a000000000000000000000000000000000000000000000000000000000\n      dup2\n      mstore\n      0x04\n      add\n      tag_250\n      swap1\n      tag_251\n      jump\t// in\n    tag_250:\n      mload(0x40)\n      dup1\n      swap2\n      sub\n      swap1\n      revert\n    tag_249:\n        /* \"contracts/TokenVestingContract.sol\":3813:3828  vestingSchedule */\n      dup1\n        /* \"contracts/TokenVestingContract.sol\":3813:3836  vestingSchedule.revoked */\n      0x08\n      add\n      0x00\n      swap1\n      sload\n      swap1\n      0x0100\n      exp\n      swap1\n      div\n      0xff\n      and\n        /* \"contracts/TokenVestingContract.sol\":3812:3836  !vestingSchedule.revoked */\n      iszero\n        /* \"contracts/TokenVestingContract.sol\":3804:3873  require(!vestingSchedule.revoked, \"Vesting schedule already revoked\") */\n      tag_252\n      jumpi\n      mload(0x40)\n      0x08c379a000000000000000000000000000000000000000000000000000000000\n      dup2\n      mstore\n      0x04\n      add\n      tag_253\n      swap1\n      tag_254\n      jump\t// in\n    tag_253:\n      mload(0x40)\n      dup1\n      swap2\n      sub\n      swap1\n      revert\n    tag_252:\n        /* \"contracts/TokenVestingContract.sol\":3894:3914  uint256 vestedAmount */\n      0x00\n        /* \"contracts/TokenVestingContract.sol\":3917:3958  _computeReleasableAmount(vestingSchedule) */\n      tag_255\n        /* \"contracts/TokenVestingContract.sol\":3942:3957  vestingSchedule */\n      dup3\n        /* \"contracts/TokenVestingContract.sol\":3917:3958  _computeReleasableAmount(vestingSchedule) */\n      mload(0x40)\n      dup1\n      0x0140\n      add\n      0x40\n      mstore\n      swap1\n      dup2\n      0x00\n      dup3\n      add\n      0x00\n      swap1\n      sload\n      swap1\n      0x0100\n      exp\n      swap1\n      div\n      0xff\n      and\n      iszero\n      iszero\n      iszero\n      iszero\n      dup2\n      mstore\n      0x20\n      add\n      0x00\n      dup3\n      add\n      0x01\n      swap1\n      sload\n      swap1\n      0x0100\n      exp\n      swap1\n      div\n      0xffffffffffffffffffffffffffffffffffffffff\n      and\n      0xffffffffffffffffffffffffffffffffffffffff\n      and\n      0xffffffffffffffffffffffffffffffffffffffff\n      and\n      dup2\n      mstore\n      0x20\n      add\n      0x01\n      dup3\n      add\n      sload\n      dup2\n      mstore\n      0x20\n      add\n      0x02\n      dup3\n      add\n      sload\n      dup2\n      mstore\n      0x20\n      add\n      0x03\n      dup3\n      add\n      sload\n      dup2\n      mstore\n      0x20\n      add\n      0x04\n      dup3\n      add\n      sload\n      dup2\n      mstore\n      0x20\n      add\n      0x05\n      dup3\n      add\n      0x00\n      swap1\n      sload\n      swap1\n      0x0100\n      exp\n      swap1\n      div\n      0xff\n      and\n      iszero\n      iszero\n      iszero\n      iszero\n      dup2\n      mstore\n      0x20\n      add\n      0x06\n      dup3\n      add\n      sload\n      dup2\n      mstore\n      0x20\n      add\n      0x07\n      dup3\n      add\n      sload\n      dup2\n      mstore\n      0x20\n      add\n      0x08\n      dup3\n      add\n      0x00\n      swap1\n      sload\n      swap1\n      0x0100\n      exp\n      swap1\n      div\n      0xff\n      and\n      iszero\n      iszero\n      iszero\n      iszero\n      dup2\n      mstore\n      pop\n      pop\n        /* \"contracts/TokenVestingContract.sol\":3917:3941  _computeReleasableAmount */\n      tag_198\n        /* \"contracts/TokenVestingContract.sol\":3917:3958  _computeReleasableAmount(vestingSchedule) */\n      jump\t// in\n    tag_255:\n        /* \"contracts/TokenVestingContract.sol\":3894:3958  uint256 vestedAmount = _computeReleasableAmount(vestingSchedule) */\n      swap1\n      pop\n        /* \"contracts/TokenVestingContract.sol\":3998:3999  0 */\n      0x00\n        /* \"contracts/TokenVestingContract.sol\":3983:3995  vestedAmount */\n      dup2\n        /* \"contracts/TokenVestingContract.sol\":3983:3999  vestedAmount > 0 */\n      gt\n        /* \"contracts/TokenVestingContract.sol\":3979:4068  if (vestedAmount > 0) {... */\n      iszero\n      tag_256\n      jumpi\n        /* \"contracts/TokenVestingContract.sol\":4016:4056  release(vestingScheduleId, vestedAmount) */\n      tag_257\n        /* \"contracts/TokenVestingContract.sol\":4024:4041  vestingScheduleId */\n      dup4\n        /* \"contracts/TokenVestingContract.sol\":4043:4055  vestedAmount */\n      dup3\n        /* \"contracts/TokenVestingContract.sol\":4016:4023  release */\n      tag_72\n        /* \"contracts/TokenVestingContract.sol\":4016:4056  release(vestingScheduleId, vestedAmount) */\n      jump\t// in\n    tag_257:\n        /* \"contracts/TokenVestingContract.sol\":3979:4068  if (vestedAmount > 0) {... */\n    tag_256:\n        /* \"contracts/TokenVestingContract.sol\":4088:4106  uint256 unreleased */\n      0x00\n        /* \"contracts/TokenVestingContract.sol\":4139:4154  vestingSchedule */\n      dup3\n        /* \"contracts/TokenVestingContract.sol\":4139:4163  vestingSchedule.released */\n      0x07\n      add\n      sload\n        /* \"contracts/TokenVestingContract.sol\":4109:4124  vestingSchedule */\n      dup4\n        /* \"contracts/TokenVestingContract.sol\":4109:4136  vestingSchedule.amountTotal */\n      0x06\n      add\n      sload\n        /* \"contracts/TokenVestingContract.sol\":4109:4163  vestingSchedule.amountTotal - vestingSchedule.released */\n      tag_258\n      swap2\n      swap1\n      tag_131\n      jump\t// in\n    tag_258:\n        /* \"contracts/TokenVestingContract.sol\":4088:4163  uint256 unreleased = vestingSchedule.amountTotal - vestingSchedule.released */\n      swap1\n      pop\n        /* \"contracts/TokenVestingContract.sol\":4205:4215  unreleased */\n      dup1\n        /* \"contracts/TokenVestingContract.sol\":4174:4201  vestingSchedulesTotalAmount */\n      0x06\n      0x00\n        /* \"contracts/TokenVestingContract.sol\":4174:4215  vestingSchedulesTotalAmount -= unreleased */\n      dup3\n      dup3\n      sload\n      tag_259\n      swap2\n      swap1\n      tag_131\n      jump\t// in\n    tag_259:\n      swap3\n      pop\n      pop\n      dup2\n      swap1\n      sstore\n      pop\n        /* \"contracts/TokenVestingContract.sol\":4252:4256  true */\n      0x01\n        /* \"contracts/TokenVestingContract.sol\":4226:4241  vestingSchedule */\n      dup4\n        /* \"contracts/TokenVestingContract.sol\":4226:4249  vestingSchedule.revoked */\n      0x08\n      add\n      0x00\n        /* \"contracts/TokenVestingContract.sol\":4226:4256  vestingSchedule.revoked = true */\n      0x0100\n      exp\n      dup2\n      sload\n      dup2\n      0xff\n      mul\n      not\n      and\n      swap1\n      dup4\n      iszero\n      iszero\n      mul\n      or\n      swap1\n      sstore\n      pop\n        /* \"contracts/TokenVestingContract.sol\":4324:4339  vestingSchedule */\n      dup3\n        /* \"contracts/TokenVestingContract.sol\":4324:4351  vestingSchedule.beneficiary */\n      0x00\n      add\n      0x01\n      swap1\n      sload\n      swap1\n      0x0100\n      exp\n      swap1\n      div\n      0xffffffffffffffffffffffffffffffffffffffff\n      and\n        /* \"contracts/TokenVestingContract.sol\":4282:4364  VestingScheduleRevoked(vestingScheduleId, vestingSchedule.beneficiary, unreleased) */\n      0xffffffffffffffffffffffffffffffffffffffff\n      and\n        /* \"contracts/TokenVestingContract.sol\":4305:4322  vestingScheduleId */\n      dup5\n        /* \"contracts/TokenVestingContract.sol\":4282:4364  VestingScheduleRevoked(vestingScheduleId, vestingSchedule.beneficiary, unreleased) */\n      0xdbfc1fbe382eed671971d1c491d4108e66995ded4191ef7271701a283f1b05c6\n        /* \"contracts/TokenVestingContract.sol\":4353:4363  unreleased */\n      dup4\n        /* \"contracts/TokenVestingContract.sol\":4282:4364  VestingScheduleRevoked(vestingScheduleId, vestingSchedule.beneficiary, unreleased) */\n      mload(0x40)\n      tag_260\n      swap2\n      swap1\n      tag_58\n      jump\t// in\n    tag_260:\n      mload(0x40)\n      dup1\n      swap2\n      sub\n      swap1\n      log3\n        /* \"contracts/TokenVestingContract.sol\":3549:4372  {... */\n      pop\n      pop\n      pop\n        /* \"contracts/TokenVestingContract.sol\":3489:4372  function revoke(bytes32 vestingScheduleId) public onlyOwner {... */\n      pop\n      jump\t// out\n        /* \"contracts/TokenVestingContract.sol\":5322:5603  function computeReleasableAmount(bytes32 vestingScheduleId) ... */\n    tag_107:\n        /* \"contracts/TokenVestingContract.sol\":5433:5440  uint256 */\n      0x00\n        /* \"contracts/TokenVestingContract.sol\":5459:5498  VestingSchedule storage vestingSchedule */\n      0x00\n        /* \"contracts/TokenVestingContract.sol\":5501:5517  vestingSchedules */\n      0x03\n        /* \"contracts/TokenVestingContract.sol\":5501:5536  vestingSchedules[vestingScheduleId] */\n      0x00\n        /* \"contracts/TokenVestingContract.sol\":5518:5535  vestingScheduleId */\n      dup5\n        /* \"contracts/TokenVestingContract.sol\":5501:5536  vestingSchedules[vestingScheduleId] */\n      dup2\n      mstore\n      0x20\n      add\n      swap1\n      dup2\n      mstore\n      0x20\n      add\n      0x00\n      keccak256\n        /* \"contracts/TokenVestingContract.sol\":5459:5536  VestingSchedule storage vestingSchedule = vestingSchedules[vestingScheduleId] */\n      swap1\n      pop\n        /* \"contracts/TokenVestingContract.sol\":5554:5595  _computeReleasableAmount(vestingSchedule) */\n      tag_262\n        /* \"contracts/TokenVestingContract.sol\":5579:5594  vestingSchedule */\n      dup2\n        /* \"contracts/TokenVestingContract.sol\":5554:5595  _computeReleasableAmount(vestingSchedule) */\n      mload(0x40)\n      dup1\n      0x0140\n      add\n      0x40\n      mstore\n      swap1\n      dup2\n      0x00\n      dup3\n      add\n      0x00\n      swap1\n      sload\n      swap1\n      0x0100\n      exp\n      swap1\n      div\n      0xff\n      and\n      iszero\n      iszero\n      iszero\n      iszero\n      dup2\n      mstore\n      0x20\n      add\n      0x00\n      dup3\n      add\n      0x01\n      swap1\n      sload\n      swap1\n      0x0100\n      exp\n      swap1\n      div\n      0xffffffffffffffffffffffffffffffffffffffff\n      and\n      0xffffffffffffffffffffffffffffffffffffffff\n      and\n      0xffffffffffffffffffffffffffffffffffffffff\n      and\n      dup2\n      mstore\n      0x20\n      add\n      0x01\n      dup3\n      add\n      sload\n      dup2\n      mstore\n      0x20\n      add\n      0x02\n      dup3\n      add\n      sload\n      dup2\n      mstore\n      0x20\n      add\n      0x03\n      dup3\n      add\n      sload\n      dup2\n      mstore\n      0x20\n      add\n      0x04\n      dup3\n      add\n      sload\n      dup2\n      mstore\n      0x20\n      add\n      0x05\n      dup3\n      add\n      0x00\n      swap1\n      sload\n      swap1\n      0x0100\n      exp\n      swap1\n      div\n      0xff\n      and\n      iszero\n      iszero\n      iszero\n      iszero\n      dup2\n      mstore\n      0x20\n      add\n      0x06\n      dup3\n      add\n      sload\n      dup2\n      mstore\n      0x20\n      add\n      0x07\n      dup3\n      add\n      sload\n      dup2\n      mstore\n      0x20\n      add\n      0x08\n      dup3\n      add\n      0x00\n      swap1\n      sload\n      swap1\n      0x0100\n      exp\n      swap1\n      div\n      0xff\n      and\n      iszero\n      iszero\n      iszero\n      iszero\n      dup2\n      mstore\n      pop\n      pop\n        /* \"contracts/TokenVestingContract.sol\":5554:5578  _computeReleasableAmount */\n      tag_198\n        /* \"contracts/TokenVestingContract.sol\":5554:5595  _computeReleasableAmount(vestingSchedule) */\n      jump\t// in\n    tag_262:\n        /* \"contracts/TokenVestingContract.sol\":5547:5595  return _computeReleasableAmount(vestingSchedule) */\n      swap2\n      pop\n      pop\n        /* \"contracts/TokenVestingContract.sol\":5322:5603  function computeReleasableAmount(bytes32 vestingScheduleId) ... */\n      swap2\n      swap1\n      pop\n      jump\t// out\n        /* \"@openzeppelin/contracts/access/Ownable.sol\":2543:2758  function transferOwnership(address newOwner) public virtual onlyOwner {... */\n    tag_111:\n        /* \"@openzeppelin/contracts/access/Ownable.sol\":1531:1544  _checkOwner() */\n      tag_264\n        /* \"@openzeppelin/contracts/access/Ownable.sol\":1531:1542  _checkOwner */\n      tag_134\n        /* \"@openzeppelin/contracts/access/Ownable.sol\":1531:1544  _checkOwner() */\n      jump\t// in\n    tag_264:\n        /* \"@openzeppelin/contracts/access/Ownable.sol\":2647:2648  0 */\n      0x00\n        /* \"@openzeppelin/contracts/access/Ownable.sol\":2627:2649  newOwner == address(0) */\n      0xffffffffffffffffffffffffffffffffffffffff\n      and\n        /* \"@openzeppelin/contracts/access/Ownable.sol\":2627:2635  newOwner */\n      dup2\n        /* \"@openzeppelin/contracts/access/Ownable.sol\":2627:2649  newOwner == address(0) */\n      0xffffffffffffffffffffffffffffffffffffffff\n      and\n      sub\n        /* \"@openzeppelin/contracts/access/Ownable.sol\":2623:2714  if (newOwner == address(0)) {... */\n      tag_266\n      jumpi\n        /* \"@openzeppelin/contracts/access/Ownable.sol\":2700:2701  0 */\n      0x00\n        /* \"@openzeppelin/contracts/access/Ownable.sol\":2672:2703  OwnableInvalidOwner(address(0)) */\n      mload(0x40)\n      0x1e4fbdf700000000000000000000000000000000000000000000000000000000\n      dup2\n      mstore\n      0x04\n      add\n      tag_267\n      swap2\n      swap1\n      tag_90\n      jump\t// in\n    tag_267:\n      mload(0x40)\n      dup1\n      swap2\n      sub\n      swap1\n      revert\n        /* \"@openzeppelin/contracts/access/Ownable.sol\":2623:2714  if (newOwner == address(0)) {... */\n    tag_266:\n        /* \"@openzeppelin/contracts/access/Ownable.sol\":2723:2751  _transferOwnership(newOwner) */\n      tag_268\n        /* \"@openzeppelin/contracts/access/Ownable.sol\":2742:2750  newOwner */\n      dup2\n        /* \"@openzeppelin/contracts/access/Ownable.sol\":2723:2741  _transferOwnership */\n      tag_228\n        /* \"@openzeppelin/contracts/access/Ownable.sol\":2723:2751  _transferOwnership(newOwner) */\n      jump\t// in\n    tag_268:\n        /* \"@openzeppelin/contracts/access/Ownable.sol\":2543:2758  function transferOwnership(address newOwner) public virtual onlyOwner {... */\n      pop\n      jump\t// out\n        /* \"contracts/TokenVestingContract.sol\":8059:8315  function getVestingScheduleByAddressAndIndex(address holder, uint256 index)... */\n    tag_114:\n        /* \"contracts/TokenVestingContract.sol\":8183:8205  VestingSchedule memory */\n      tag_269\n      tag_170\n      jump\t// in\n    tag_269:\n        /* \"contracts/TokenVestingContract.sol\":8230:8307  getVestingSchedule(computeVestingScheduleIdForAddressAndIndex(holder, index)) */\n      tag_271\n        /* \"contracts/TokenVestingContract.sol\":8249:8306  computeVestingScheduleIdForAddressAndIndex(holder, index) */\n      tag_272\n        /* \"contracts/TokenVestingContract.sol\":8292:8298  holder */\n      dup5\n        /* \"contracts/TokenVestingContract.sol\":8300:8305  index */\n      dup5\n        /* \"contracts/TokenVestingContract.sol\":8249:8291  computeVestingScheduleIdForAddressAndIndex */\n      tag_85\n        /* \"contracts/TokenVestingContract.sol\":8249:8306  computeVestingScheduleIdForAddressAndIndex(holder, index) */\n      jump\t// in\n    tag_272:\n        /* \"contracts/TokenVestingContract.sol\":8230:8248  getVestingSchedule */\n      tag_99\n        /* \"contracts/TokenVestingContract.sol\":8230:8307  getVestingSchedule(computeVestingScheduleIdForAddressAndIndex(holder, index)) */\n      jump\t// in\n    tag_271:\n        /* \"contracts/TokenVestingContract.sol\":8223:8307  return getVestingSchedule(computeVestingScheduleIdForAddressAndIndex(holder, index)) */\n      swap1\n      pop\n        /* \"contracts/TokenVestingContract.sol\":8059:8315  function getVestingScheduleByAddressAndIndex(address holder, uint256 index)... */\n      swap3\n      swap2\n      pop\n      pop\n      jump\t// out\n        /* \"contracts/TokenVestingContract.sol\":6923:7153  function computeNextVestingScheduleIdForHolder(address holder)... */\n    tag_118:\n        /* \"contracts/TokenVestingContract.sol\":7034:7041  bytes32 */\n      0x00\n        /* \"contracts/TokenVestingContract.sol\":7066:7145  computeVestingScheduleIdForAddressAndIndex(holder, holdersVestingCount[holder]) */\n      tag_274\n        /* \"contracts/TokenVestingContract.sol\":7109:7115  holder */\n      dup3\n        /* \"contracts/TokenVestingContract.sol\":7117:7136  holdersVestingCount */\n      0x04\n        /* \"contracts/TokenVestingContract.sol\":7117:7144  holdersVestingCount[holder] */\n      0x00\n        /* \"contracts/TokenVestingContract.sol\":7137:7143  holder */\n      dup6\n        /* \"contracts/TokenVestingContract.sol\":7117:7144  holdersVestingCount[holder] */\n      0xffffffffffffffffffffffffffffffffffffffff\n      and\n      0xffffffffffffffffffffffffffffffffffffffff\n      and\n      dup2\n      mstore\n      0x20\n      add\n      swap1\n      dup2\n      mstore\n      0x20\n      add\n      0x00\n      keccak256\n      sload\n        /* \"contracts/TokenVestingContract.sol\":7066:7108  computeVestingScheduleIdForAddressAndIndex */\n      tag_85\n        /* \"contracts/TokenVestingContract.sol\":7066:7145  computeVestingScheduleIdForAddressAndIndex(holder, holdersVestingCount[holder]) */\n      jump\t// in\n    tag_274:\n        /* \"contracts/TokenVestingContract.sol\":7059:7145  return computeVestingScheduleIdForAddressAndIndex(holder, holdersVestingCount[holder]) */\n      swap1\n      pop\n        /* \"contracts/TokenVestingContract.sol\":6923:7153  function computeNextVestingScheduleIdForHolder(address holder)... */\n      swap2\n      swap1\n      pop\n      jump\t// out\n        /* \"contracts/TokenVestingContract.sol\":7812:8047  function getVestingIdAtIndex(uint256 index)... */\n    tag_122:\n        /* \"contracts/TokenVestingContract.sol\":7904:7911  bytes32 */\n      0x00\n        /* \"contracts/TokenVestingContract.sol\":7945:7964  vestingSchedulesIds */\n      0x05\n        /* \"contracts/TokenVestingContract.sol\":7945:7971  vestingSchedulesIds.length */\n      dup1\n      sload\n      swap1\n      pop\n        /* \"contracts/TokenVestingContract.sol\":7937:7942  index */\n      dup3\n        /* \"contracts/TokenVestingContract.sol\":7937:7971  index < vestingSchedulesIds.length */\n      lt\n        /* \"contracts/TokenVestingContract.sol\":7929:7995  require(index < vestingSchedulesIds.length, \"Index out of bounds\") */\n      tag_276\n      jumpi\n      mload(0x40)\n      0x08c379a000000000000000000000000000000000000000000000000000000000\n      dup2\n      mstore\n      0x04\n      add\n      tag_277\n      swap1\n      tag_278\n      jump\t// in\n    tag_277:\n      mload(0x40)\n      dup1\n      swap2\n      sub\n      swap1\n      revert\n    tag_276:\n        /* \"contracts/TokenVestingContract.sol\":8013:8032  vestingSchedulesIds */\n      0x05\n        /* \"contracts/TokenVestingContract.sol\":8033:8038  index */\n      dup3\n        /* \"contracts/TokenVestingContract.sol\":8013:8039  vestingSchedulesIds[index] */\n      dup2\n      sload\n      dup2\n      lt\n      tag_279\n      jumpi\n      tag_280\n      tag_177\n      jump\t// in\n    tag_280:\n    tag_279:\n      swap1\n      0x00\n      mstore\n      keccak256(0x00, 0x20)\n      add\n      sload\n        /* \"contracts/TokenVestingContract.sol\":8006:8039  return vestingSchedulesIds[index] */\n      swap1\n      pop\n        /* \"contracts/TokenVestingContract.sol\":7812:8047  function getVestingIdAtIndex(uint256 index)... */\n      swap2\n      swap1\n      pop\n      jump\t// out\n        /* \"contracts/TokenVestingContract.sol\":719:738  IERC20 public token */\n    tag_125:\n      0x02\n      0x00\n      swap1\n      sload\n      swap1\n      0x0100\n      exp\n      swap1\n      div\n      0xffffffffffffffffffffffffffffffffffffffff\n      and\n      dup2\n      jump\t// out\n        /* \"@openzeppelin/contracts/access/Ownable.sol\":1796:1958  function _checkOwner() internal view virtual {... */\n    tag_134:\n        /* \"@openzeppelin/contracts/access/Ownable.sol\":1866:1878  _msgSender() */\n      tag_283\n        /* \"@openzeppelin/contracts/access/Ownable.sol\":1866:1876  _msgSender */\n      tag_284\n        /* \"@openzeppelin/contracts/access/Ownable.sol\":1866:1878  _msgSender() */\n      jump\t// in\n    tag_283:\n        /* \"@openzeppelin/contracts/access/Ownable.sol\":1855:1878  owner() != _msgSender() */\n      0xffffffffffffffffffffffffffffffffffffffff\n      and\n        /* \"@openzeppelin/contracts/access/Ownable.sol\":1855:1862  owner() */\n      tag_285\n        /* \"@openzeppelin/contracts/access/Ownable.sol\":1855:1860  owner */\n      tag_88\n        /* \"@openzeppelin/contracts/access/Ownable.sol\":1855:1862  owner() */\n      jump\t// in\n    tag_285:\n        /* \"@openzeppelin/contracts/access/Ownable.sol\":1855:1878  owner() != _msgSender() */\n      0xffffffffffffffffffffffffffffffffffffffff\n      and\n      eq\n        /* \"@openzeppelin/contracts/access/Ownable.sol\":1851:1952  if (owner() != _msgSender()) {... */\n      tag_286\n      jumpi\n        /* \"@openzeppelin/contracts/access/Ownable.sol\":1928:1940  _msgSender() */\n      tag_287\n        /* \"@openzeppelin/contracts/access/Ownable.sol\":1928:1938  _msgSender */\n      tag_284\n        /* \"@openzeppelin/contracts/access/Ownable.sol\":1928:1940  _msgSender() */\n      jump\t// in\n    tag_287:\n        /* \"@openzeppelin/contracts/access/Ownable.sol\":1901:1941  OwnableUnauthorizedAccount(_msgSender()) */\n      mload(0x40)\n      0x118cdaa700000000000000000000000000000000000000000000000000000000\n      dup2\n      mstore\n      0x04\n      add\n      tag_288\n      swap2\n      swap1\n      tag_90\n      jump\t// in\n    tag_288:\n      mload(0x40)\n      dup1\n      swap2\n      sub\n      swap1\n      revert\n        /* \"@openzeppelin/contracts/access/Ownable.sol\":1851:1952  if (owner() != _msgSender()) {... */\n    tag_286:\n        /* \"@openzeppelin/contracts/access/Ownable.sol\":1796:1958  function _checkOwner() internal view virtual {... */\n      jump\t// out\n        /* \"@openzeppelin/contracts/token/ERC20/utils/SafeERC20.sol\":1219:1379  function safeTransfer(IERC20 token, address to, uint256 value) internal {... */\n    tag_187:\n        /* \"@openzeppelin/contracts/token/ERC20/utils/SafeERC20.sol\":1301:1372  _callOptionalReturn(token, abi.encodeCall(token.transfer, (to, value))) */\n      tag_290\n        /* \"@openzeppelin/contracts/token/ERC20/utils/SafeERC20.sol\":1321:1326  token */\n      dup4\n        /* \"@openzeppelin/contracts/token/ERC20/utils/SafeERC20.sol\":1343:1348  token */\n      dup5\n        /* \"@openzeppelin/contracts/token/ERC20/utils/SafeERC20.sol\":1343:1357  token.transfer */\n      0xffffffffffffffffffffffffffffffffffffffff\n      and\n      0xa9059cbb\n        /* \"@openzeppelin/contracts/token/ERC20/utils/SafeERC20.sol\":1360:1362  to */\n      dup6\n        /* \"@openzeppelin/contracts/token/ERC20/utils/SafeERC20.sol\":1364:1369  value */\n      dup6\n        /* \"@openzeppelin/contracts/token/ERC20/utils/SafeERC20.sol\":1328:1371  abi.encodeCall(token.transfer, (to, value)) */\n      add(0x24, mload(0x40))\n      tag_291\n      swap3\n      swap2\n      swap1\n      tag_292\n      jump\t// in\n    tag_291:\n      mload(0x40)\n      0x20\n      dup2\n      dup4\n      sub\n      sub\n      dup2\n      mstore\n      swap1\n      0x40\n      mstore\n      swap2\n      pop\n      0xe0\n      shl\n      0x20\n      dup3\n      add\n      dup1\n      mload\n      0xffffffffffffffffffffffffffffffffffffffffffffffffffffffff\n      dup4\n      dup2\n      dup4\n      and\n      or\n      dup4\n      mstore\n      pop\n      pop\n      pop\n      pop\n        /* \"@openzeppelin/contracts/token/ERC20/utils/SafeERC20.sol\":1301:1320  _callOptionalReturn */\n      tag_293\n        /* \"@openzeppelin/contracts/token/ERC20/utils/SafeERC20.sol\":1301:1372  _callOptionalReturn(token, abi.encodeCall(token.transfer, (to, value))) */\n      jump\t// in\n    tag_290:\n        /* \"@openzeppelin/contracts/token/ERC20/utils/SafeERC20.sol\":1219:1379  function safeTransfer(IERC20 token, address to, uint256 value) internal {... */\n      pop\n      pop\n      pop\n      jump\t// out\n        /* \"contracts/TokenVestingContract.sol\":5615:6686  function _computeReleasableAmount(VestingSchedule memory vestingSchedule)... */\n    tag_198:\n        /* \"contracts/TokenVestingContract.sol\":5739:5746  uint256 */\n      0x00\n        /* \"contracts/TokenVestingContract.sol\":5769:5784  vestingSchedule */\n      dup2\n        /* \"contracts/TokenVestingContract.sol\":5769:5796  vestingSchedule.initialized */\n      0x00\n      add\n      mload\n        /* \"contracts/TokenVestingContract.sol\":5768:5796  !vestingSchedule.initialized */\n      iszero\n        /* \"contracts/TokenVestingContract.sol\":5768:5823  !vestingSchedule.initialized || vestingSchedule.revoked */\n      dup1\n      tag_295\n      jumpi\n      pop\n        /* \"contracts/TokenVestingContract.sol\":5800:5815  vestingSchedule */\n      dup2\n        /* \"contracts/TokenVestingContract.sol\":5800:5823  vestingSchedule.revoked */\n      0x0120\n      add\n      mload\n        /* \"contracts/TokenVestingContract.sol\":5768:5823  !vestingSchedule.initialized || vestingSchedule.revoked */\n    tag_295:\n        /* \"contracts/TokenVestingContract.sol\":5764:5860  if (!vestingSchedule.initialized || vestingSchedule.revoked) {... */\n      iszero\n      tag_296\n      jumpi\n        /* \"contracts/TokenVestingContract.sol\":5847:5848  0 */\n      0x00\n        /* \"contracts/TokenVestingContract.sol\":5840:5848  return 0 */\n      swap1\n      pop\n      jump(tag_294)\n        /* \"contracts/TokenVestingContract.sol\":5764:5860  if (!vestingSchedule.initialized || vestingSchedule.revoked) {... */\n    tag_296:\n        /* \"contracts/TokenVestingContract.sol\":5880:5899  uint256 currentTime */\n      0x00\n        /* \"contracts/TokenVestingContract.sol\":5902:5917  block.timestamp */\n      timestamp\n        /* \"contracts/TokenVestingContract.sol\":5880:5917  uint256 currentTime = block.timestamp */\n      swap1\n      pop\n        /* \"contracts/TokenVestingContract.sol\":5956:5971  vestingSchedule */\n      dup3\n        /* \"contracts/TokenVestingContract.sol\":5956:5977  vestingSchedule.cliff */\n      0x40\n      add\n      mload\n        /* \"contracts/TokenVestingContract.sol\":5942:5953  currentTime */\n      dup2\n        /* \"contracts/TokenVestingContract.sol\":5942:5977  currentTime < vestingSchedule.cliff */\n      lt\n        /* \"contracts/TokenVestingContract.sol\":5938:6679  if (currentTime < vestingSchedule.cliff) {... */\n      iszero\n      tag_297\n      jumpi\n        /* \"contracts/TokenVestingContract.sol\":6001:6002  0 */\n      0x00\n        /* \"contracts/TokenVestingContract.sol\":5994:6002  return 0 */\n      swap2\n      pop\n      pop\n      jump(tag_294)\n        /* \"contracts/TokenVestingContract.sol\":5938:6679  if (currentTime < vestingSchedule.cliff) {... */\n    tag_297:\n        /* \"contracts/TokenVestingContract.sol\":6063:6078  vestingSchedule */\n      dup3\n        /* \"contracts/TokenVestingContract.sol\":6063:6087  vestingSchedule.duration */\n      0x80\n      add\n      mload\n        /* \"contracts/TokenVestingContract.sol\":6039:6054  vestingSchedule */\n      dup4\n        /* \"contracts/TokenVestingContract.sol\":6039:6060  vestingSchedule.start */\n      0x60\n      add\n      mload\n        /* \"contracts/TokenVestingContract.sol\":6039:6087  vestingSchedule.start + vestingSchedule.duration */\n      tag_299\n      swap2\n      swap1\n      tag_157\n      jump\t// in\n    tag_299:\n        /* \"contracts/TokenVestingContract.sol\":6024:6035  currentTime */\n      dup2\n        /* \"contracts/TokenVestingContract.sol\":6024:6087  currentTime >= vestingSchedule.start + vestingSchedule.duration */\n      lt\n        /* \"contracts/TokenVestingContract.sol\":6020:6679  if (currentTime >= vestingSchedule.start + vestingSchedule.duration) {... */\n      tag_300\n      jumpi\n        /* \"contracts/TokenVestingContract.sol\":6141:6156  vestingSchedule */\n      dup3\n        /* \"contracts/TokenVestingContract.sol\":6141:6165  vestingSchedule.released */\n      0x0100\n      add\n      mload\n        /* \"contracts/TokenVestingContract.sol\":6111:6126  vestingSchedule */\n      dup4\n        /* \"contracts/TokenVestingContract.sol\":6111:6138  vestingSchedule.amountTotal */\n      0xe0\n      add\n      mload\n        /* \"contracts/TokenVestingContract.sol\":6111:6165  vestingSchedule.amountTotal - vestingSchedule.released */\n      tag_301\n      swap2\n      swap1\n      tag_131\n      jump\t// in\n    tag_301:\n        /* \"contracts/TokenVestingContract.sol\":6104:6165  return vestingSchedule.amountTotal - vestingSchedule.released */\n      swap2\n      pop\n      pop\n      jump(tag_294)\n        /* \"contracts/TokenVestingContract.sol\":6020:6679  if (currentTime >= vestingSchedule.start + vestingSchedule.duration) {... */\n    tag_300:\n        /* \"contracts/TokenVestingContract.sol\":6198:6219  uint256 timeFromStart */\n      0x00\n        /* \"contracts/TokenVestingContract.sol\":6236:6251  vestingSchedule */\n      dup4\n        /* \"contracts/TokenVestingContract.sol\":6236:6257  vestingSchedule.start */\n      0x60\n      add\n      mload\n        /* \"contracts/TokenVestingContract.sol\":6222:6233  currentTime */\n      dup3\n        /* \"contracts/TokenVestingContract.sol\":6222:6257  currentTime - vestingSchedule.start */\n      tag_303\n      swap2\n      swap1\n      tag_131\n      jump\t// in\n    tag_303:\n        /* \"contracts/TokenVestingContract.sol\":6198:6257  uint256 timeFromStart = currentTime - vestingSchedule.start */\n      swap1\n      pop\n        /* \"contracts/TokenVestingContract.sol\":6272:6295  uint256 secondsPerSlice */\n      0x00\n        /* \"contracts/TokenVestingContract.sol\":6298:6313  vestingSchedule */\n      dup5\n        /* \"contracts/TokenVestingContract.sol\":6298:6332  vestingSchedule.slicePeriodSeconds */\n      0xa0\n      add\n      mload\n        /* \"contracts/TokenVestingContract.sol\":6272:6332  uint256 secondsPerSlice = vestingSchedule.slicePeriodSeconds */\n      swap1\n      pop\n        /* \"contracts/TokenVestingContract.sol\":6347:6373  uint256 vestedSlicePeriods */\n      0x00\n        /* \"contracts/TokenVestingContract.sol\":6392:6407  secondsPerSlice */\n      dup2\n        /* \"contracts/TokenVestingContract.sol\":6376:6389  timeFromStart */\n      dup4\n        /* \"contracts/TokenVestingContract.sol\":6376:6407  timeFromStart / secondsPerSlice */\n      tag_304\n      swap2\n      swap1\n      tag_305\n      jump\t// in\n    tag_304:\n        /* \"contracts/TokenVestingContract.sol\":6347:6407  uint256 vestedSlicePeriods = timeFromStart / secondsPerSlice */\n      swap1\n      pop\n        /* \"contracts/TokenVestingContract.sol\":6422:6443  uint256 vestedSeconds */\n      0x00\n        /* \"contracts/TokenVestingContract.sol\":6467:6482  secondsPerSlice */\n      dup3\n        /* \"contracts/TokenVestingContract.sol\":6446:6464  vestedSlicePeriods */\n      dup3\n        /* \"contracts/TokenVestingContract.sol\":6446:6482  vestedSlicePeriods * secondsPerSlice */\n      tag_306\n      swap2\n      swap1\n      tag_307\n      jump\t// in\n    tag_306:\n        /* \"contracts/TokenVestingContract.sol\":6422:6482  uint256 vestedSeconds = vestedSlicePeriods * secondsPerSlice */\n      swap1\n      pop\n        /* \"contracts/TokenVestingContract.sol\":6497:6517  uint256 vestedAmount */\n      0x00\n        /* \"contracts/TokenVestingContract.sol\":6568:6583  vestingSchedule */\n      dup8\n        /* \"contracts/TokenVestingContract.sol\":6568:6592  vestingSchedule.duration */\n      0x80\n      add\n      mload\n        /* \"contracts/TokenVestingContract.sol\":6551:6564  vestedSeconds */\n      dup3\n        /* \"contracts/TokenVestingContract.sol\":6521:6536  vestingSchedule */\n      dup10\n        /* \"contracts/TokenVestingContract.sol\":6521:6548  vestingSchedule.amountTotal */\n      0xe0\n      add\n      mload\n        /* \"contracts/TokenVestingContract.sol\":6521:6564  vestingSchedule.amountTotal * vestedSeconds */\n      tag_308\n      swap2\n      swap1\n      tag_307\n      jump\t// in\n    tag_308:\n        /* \"contracts/TokenVestingContract.sol\":6520:6592  (vestingSchedule.amountTotal * vestedSeconds) / vestingSchedule.duration */\n      tag_309\n      swap2\n      swap1\n      tag_305\n      jump\t// in\n    tag_309:\n        /* \"contracts/TokenVestingContract.sol\":6497:6592  uint256 vestedAmount = (vestingSchedule.amountTotal * vestedSeconds) / vestingSchedule.duration */\n      swap1\n      pop\n        /* \"contracts/TokenVestingContract.sol\":6643:6658  vestingSchedule */\n      dup8\n        /* \"contracts/TokenVestingContract.sol\":6643:6667  vestingSchedule.released */\n      0x0100\n      add\n      mload\n        /* \"contracts/TokenVestingContract.sol\":6628:6640  vestedAmount */\n      dup2\n        /* \"contracts/TokenVestingContract.sol\":6628:6667  vestedAmount - vestingSchedule.released */\n      tag_310\n      swap2\n      swap1\n      tag_131\n      jump\t// in\n    tag_310:\n        /* \"contracts/TokenVestingContract.sol\":6621:6667  return vestedAmount - vestingSchedule.released */\n      swap7\n      pop\n      pop\n      pop\n      pop\n      pop\n      pop\n      pop\n        /* \"contracts/TokenVestingContract.sol\":5615:6686  function _computeReleasableAmount(VestingSchedule memory vestingSchedule)... */\n    tag_294:\n      swap2\n      swap1\n      pop\n      jump\t// out\n        /* \"@openzeppelin/contracts/security/ReentrancyGuard.sol\":2336:2623  function _nonReentrantBefore() private {... */\n    tag_203:\n        /* \"@openzeppelin/contracts/security/ReentrancyGuard.sol\":1759:1760  2 */\n      0x02\n        /* \"@openzeppelin/contracts/security/ReentrancyGuard.sol\":2468:2475  _status */\n      sload(0x01)\n        /* \"@openzeppelin/contracts/security/ReentrancyGuard.sol\":2468:2487  _status != _ENTERED */\n      sub\n        /* \"@openzeppelin/contracts/security/ReentrancyGuard.sol\":2460:2523  require(_status != _ENTERED, \"ReentrancyGuard: reentrant call\") */\n      tag_312\n      jumpi\n      mload(0x40)\n      0x08c379a000000000000000000000000000000000000000000000000000000000\n      dup2\n      mstore\n      0x04\n      add\n      tag_313\n      swap1\n      tag_314\n      jump\t// in\n    tag_313:\n      mload(0x40)\n      dup1\n      swap2\n      sub\n      swap1\n      revert\n    tag_312:\n        /* \"@openzeppelin/contracts/security/ReentrancyGuard.sol\":1759:1760  2 */\n      0x02\n        /* \"@openzeppelin/contracts/security/ReentrancyGuard.sol\":2598:2605  _status */\n      0x01\n        /* \"@openzeppelin/contracts/security/ReentrancyGuard.sol\":2598:2616  _status = _ENTERED */\n      dup2\n      swap1\n      sstore\n      pop\n        /* \"@openzeppelin/contracts/security/ReentrancyGuard.sol\":2336:2623  function _nonReentrantBefore() private {... */\n      jump\t// out\n        /* \"@openzeppelin/contracts/security/ReentrancyGuard.sol\":2629:2838  function _nonReentrantAfter() private {... */\n    tag_222:\n        /* \"@openzeppelin/contracts/security/ReentrancyGuard.sol\":1716:1717  1 */\n      0x01\n        /* \"@openzeppelin/contracts/security/ReentrancyGuard.sol\":2809:2816  _status */\n      dup1\n        /* \"@openzeppelin/contracts/security/ReentrancyGuard.sol\":2809:2831  _status = _NOT_ENTERED */\n      dup2\n      swap1\n      sstore\n      pop\n        /* \"@openzeppelin/contracts/security/ReentrancyGuard.sol\":2629:2838  function _nonReentrantAfter() private {... */\n      jump\t// out\n        /* \"@openzeppelin/contracts/access/Ownable.sol\":2912:3099  function _transferOwnership(address newOwner) internal virtual {... */\n    tag_228:\n        /* \"@openzeppelin/contracts/access/Ownable.sol\":2985:3001  address oldOwner */\n      0x00\n        /* \"@openzeppelin/contracts/access/Ownable.sol\":3004:3010  _owner */\n      0x00\n      0x00\n      swap1\n      sload\n      swap1\n      0x0100\n      exp\n      swap1\n      div\n      0xffffffffffffffffffffffffffffffffffffffff\n      and\n        /* \"@openzeppelin/contracts/access/Ownable.sol\":2985:3010  address oldOwner = _owner */\n      swap1\n      pop\n        /* \"@openzeppelin/contracts/access/Ownable.sol\":3029:3037  newOwner */\n      dup2\n        /* \"@openzeppelin/contracts/access/Ownable.sol\":3020:3026  _owner */\n      0x00\n      0x00\n        /* \"@openzeppelin/contracts/access/Ownable.sol\":3020:3037  _owner = newOwner */\n      0x0100\n      exp\n      dup2\n      sload\n      dup2\n      0xffffffffffffffffffffffffffffffffffffffff\n      mul\n      not\n      and\n      swap1\n      dup4\n      0xffffffffffffffffffffffffffffffffffffffff\n      and\n      mul\n      or\n      swap1\n      sstore\n      pop\n        /* \"@openzeppelin/contracts/access/Ownable.sol\":3083:3091  newOwner */\n      dup2\n        /* \"@openzeppelin/contracts/access/Ownable.sol\":3052:3092  OwnershipTransferred(oldOwner, newOwner) */\n      0xffffffffffffffffffffffffffffffffffffffff\n      and\n        /* \"@openzeppelin/contracts/access/Ownable.sol\":3073:3081  oldOwner */\n      dup2\n        /* \"@openzeppelin/contracts/access/Ownable.sol\":3052:3092  OwnershipTransferred(oldOwner, newOwner) */\n      0xffffffffffffffffffffffffffffffffffffffff\n      and\n      0x8be0079c531659141344cd1fd0a4f28419497f9722a3daafe3b4186f6b6457e0\n      mload(0x40)\n      mload(0x40)\n      dup1\n      swap2\n      sub\n      swap1\n      log3\n        /* \"@openzeppelin/contracts/access/Ownable.sol\":2975:3099  {... */\n      pop\n        /* \"@openzeppelin/contracts/access/Ownable.sol\":2912:3099  function _transferOwnership(address newOwner) internal virtual {... */\n      pop\n      jump\t// out\n        /* \"@openzeppelin/contracts/utils/Context.sol\":656:752  function _msgSender() internal view virtual returns (address) {... */\n    tag_284:\n        /* \"@openzeppelin/contracts/utils/Context.sol\":709:716  address */\n      0x00\n        /* \"@openzeppelin/contracts/utils/Context.sol\":735:745  msg.sender */\n      caller\n        /* \"@openzeppelin/contracts/utils/Context.sol\":728:745  return msg.sender */\n      swap1\n      pop\n        /* \"@openzeppelin/contracts/utils/Context.sol\":656:752  function _msgSender() internal view virtual returns (address) {... */\n      swap1\n      jump\t// out\n        /* \"@openzeppelin/contracts/token/ERC20/utils/SafeERC20.sol\":8370:9090  function _callOptionalReturn(IERC20 token, bytes memory data) private {... */\n    tag_293:\n        /* \"@openzeppelin/contracts/token/ERC20/utils/SafeERC20.sol\":8450:8468  uint256 returnSize */\n      0x00\n        /* \"@openzeppelin/contracts/token/ERC20/utils/SafeERC20.sol\":8478:8497  uint256 returnValue */\n      0x00\n        /* \"@openzeppelin/contracts/token/ERC20/utils/SafeERC20.sol\":8616:8620  0x20 */\n      0x20\n        /* \"@openzeppelin/contracts/token/ERC20/utils/SafeERC20.sol\":8613:8614  0 */\n      0x00\n        /* \"@openzeppelin/contracts/token/ERC20/utils/SafeERC20.sol\":8606:8610  data */\n      dup5\n        /* \"@openzeppelin/contracts/token/ERC20/utils/SafeERC20.sol\":8600:8611  mload(data) */\n      mload\n        /* \"@openzeppelin/contracts/token/ERC20/utils/SafeERC20.sol\":8593:8597  0x20 */\n      0x20\n        /* \"@openzeppelin/contracts/token/ERC20/utils/SafeERC20.sol\":8587:8591  data */\n      dup7\n        /* \"@openzeppelin/contracts/token/ERC20/utils/SafeERC20.sol\":8583:8598  add(data, 0x20) */\n      add\n        /* \"@openzeppelin/contracts/token/ERC20/utils/SafeERC20.sol\":8580:8581  0 */\n      0x00\n        /* \"@openzeppelin/contracts/token/ERC20/utils/SafeERC20.sol\":8573:8578  token */\n      dup9\n        /* \"@openzeppelin/contracts/token/ERC20/utils/SafeERC20.sol\":8566:8571  gas() */\n      gas\n        /* \"@openzeppelin/contracts/token/ERC20/utils/SafeERC20.sol\":8561:8621  call(gas(), token, 0, add(data, 0x20), mload(data), 0, 0x20) */\n      call\n        /* \"@openzeppelin/contracts/token/ERC20/utils/SafeERC20.sol\":8673:8680  success */\n      dup1\n        /* \"@openzeppelin/contracts/token/ERC20/utils/SafeERC20.sol\":8663:8839  if iszero(success) {... */\n      tag_319\n      jumpi\n        /* \"@openzeppelin/contracts/token/ERC20/utils/SafeERC20.sol\":8717:8721  0x40 */\n      0x40\n        /* \"@openzeppelin/contracts/token/ERC20/utils/SafeERC20.sol\":8711:8722  mload(0x40) */\n      mload\n        /* \"@openzeppelin/contracts/token/ERC20/utils/SafeERC20.sol\":8762:8778  returndatasize() */\n      returndatasize\n        /* \"@openzeppelin/contracts/token/ERC20/utils/SafeERC20.sol\":8759:8760  0 */\n      0x00\n        /* \"@openzeppelin/contracts/token/ERC20/utils/SafeERC20.sol\":8754:8757  ptr */\n      dup3\n        /* \"@openzeppelin/contracts/token/ERC20/utils/SafeERC20.sol\":8739:8779  returndatacopy(ptr, 0, returndatasize()) */\n      returndatacopy\n        /* \"@openzeppelin/contracts/token/ERC20/utils/SafeERC20.sol\":8808:8824  returndatasize() */\n      returndatasize\n        /* \"@openzeppelin/contracts/token/ERC20/utils/SafeERC20.sol\":8803:8806  ptr */\n      dup2\n        /* \"@openzeppelin/contracts/token/ERC20/utils/SafeERC20.sol\":8796:8825  revert(ptr, returndatasize()) */\n      revert\n        /* \"@openzeppelin/contracts/token/ERC20/utils/SafeERC20.sol\":8663:8839  if iszero(success) {... */\n    tag_319:\n        /* \"@openzeppelin/contracts/token/ERC20/utils/SafeERC20.sol\":8866:8882  returndatasize() */\n      returndatasize\n        /* \"@openzeppelin/contracts/token/ERC20/utils/SafeERC20.sol\":8852:8882  returnSize := returndatasize() */\n      swap3\n      pop\n        /* \"@openzeppelin/contracts/token/ERC20/utils/SafeERC20.sol\":8916:8917  0 */\n      0x00\n        /* \"@openzeppelin/contracts/token/ERC20/utils/SafeERC20.sol\":8910:8918  mload(0) */\n      mload\n        /* \"@openzeppelin/contracts/token/ERC20/utils/SafeERC20.sol\":8895:8918  returnValue := mload(0) */\n      swap2\n      pop\n        /* \"@openzeppelin/contracts/token/ERC20/utils/SafeERC20.sol\":8532:8928  {... */\n      pop\n        /* \"@openzeppelin/contracts/token/ERC20/utils/SafeERC20.sol\":8956:8957  0 */\n      0x00\n        /* \"@openzeppelin/contracts/token/ERC20/utils/SafeERC20.sol\":8942:8952  returnSize */\n      dup3\n        /* \"@openzeppelin/contracts/token/ERC20/utils/SafeERC20.sol\":8942:8957  returnSize == 0 */\n      eq\n        /* \"@openzeppelin/contracts/token/ERC20/utils/SafeERC20.sol\":8942:9010  returnSize == 0 ? address(token).code.length == 0 : returnValue != 1 */\n      tag_320\n      jumpi\n        /* \"@openzeppelin/contracts/token/ERC20/utils/SafeERC20.sol\":9009:9010  1 */\n      0x01\n        /* \"@openzeppelin/contracts/token/ERC20/utils/SafeERC20.sol\":8994:9005  returnValue */\n      dup2\n        /* \"@openzeppelin/contracts/token/ERC20/utils/SafeERC20.sol\":8994:9010  returnValue != 1 */\n      eq\n      iszero\n        /* \"@openzeppelin/contracts/token/ERC20/utils/SafeERC20.sol\":8942:9010  returnSize == 0 ? address(token).code.length == 0 : returnValue != 1 */\n      jump(tag_321)\n    tag_320:\n        /* \"@openzeppelin/contracts/token/ERC20/utils/SafeERC20.sol\":8990:8991  0 */\n      0x00\n        /* \"@openzeppelin/contracts/token/ERC20/utils/SafeERC20.sol\":8968:8973  token */\n      dup5\n        /* \"@openzeppelin/contracts/token/ERC20/utils/SafeERC20.sol\":8960:8986  address(token).code.length */\n      0xffffffffffffffffffffffffffffffffffffffff\n      and\n      extcodesize\n        /* \"@openzeppelin/contracts/token/ERC20/utils/SafeERC20.sol\":8960:8991  address(token).code.length == 0 */\n      eq\n        /* \"@openzeppelin/contracts/token/ERC20/utils/SafeERC20.sol\":8942:9010  returnSize == 0 ? address(token).code.length == 0 : returnValue != 1 */\n    tag_321:\n        /* \"@openzeppelin/contracts/token/ERC20/utils/SafeERC20.sol\":8938:9084  if (returnSize == 0 ? address(token).code.length == 0 : returnValue != 1) {... */\n      iszero\n      tag_322\n      jumpi\n        /* \"@openzeppelin/contracts/token/ERC20/utils/SafeERC20.sol\":9066:9071  token */\n      dup4\n        /* \"@openzeppelin/contracts/token/ERC20/utils/SafeERC20.sol\":9033:9073  SafeERC20FailedOperation(address(token)) */\n      mload(0x40)\n      0x5274afe700000000000000000000000000000000000000000000000000000000\n      dup2\n      mstore\n      0x04\n      add\n      tag_323\n      swap2\n      swap1\n      tag_90\n      jump\t// in\n    tag_323:\n      mload(0x40)\n      dup1\n      swap2\n      sub\n      swap1\n      revert\n        /* \"@openzeppelin/contracts/token/ERC20/utils/SafeERC20.sol\":8938:9084  if (returnSize == 0 ? address(token).code.length == 0 : returnValue != 1) {... */\n    tag_322:\n        /* \"@openzeppelin/contracts/token/ERC20/utils/SafeERC20.sol\":8440:9090  {... */\n      pop\n      pop\n        /* \"@openzeppelin/contracts/token/ERC20/utils/SafeERC20.sol\":8370:9090  function _callOptionalReturn(IERC20 token, bytes memory data) private {... */\n      pop\n      pop\n      jump\t// out\n    tag_170:\n      mload(0x40)\n      dup1\n      0x0140\n      add\n      0x40\n      mstore\n      dup1\n      iszero(iszero(0x00))\n      dup2\n      mstore\n      0x20\n      add\n      and(0xffffffffffffffffffffffffffffffffffffffff, 0x00)\n      dup2\n      mstore\n      0x20\n      add\n      0x00\n      dup2\n      mstore\n      0x20\n      add\n      0x00\n      dup2\n      mstore\n      0x20\n      add\n      0x00\n      dup2\n      mstore\n      0x20\n      add\n      0x00\n      dup2\n      mstore\n      0x20\n      add\n      iszero(iszero(0x00))\n      dup2\n      mstore\n      0x20\n      add\n      0x00\n      dup2\n      mstore\n      0x20\n      add\n      0x00\n      dup2\n      mstore\n      0x20\n      add\n      iszero(iszero(0x00))\n      dup2\n      mstore\n      pop\n      swap1\n      jump\t// out\n        /* \"#utility.yul\":88:205   */\n    tag_325:\n        /* \"#utility.yul\":197:198   */\n      0x00\n        /* \"#utility.yul\":194:195   */\n      0x00\n        /* \"#utility.yul\":187:199   */\n      revert\n        /* \"#utility.yul\":334:460   */\n    tag_327:\n        /* \"#utility.yul\":371:378   */\n      0x00\n        /* \"#utility.yul\":411:453   */\n      0xffffffffffffffffffffffffffffffffffffffff\n        /* \"#utility.yul\":404:409   */\n      dup3\n        /* \"#utility.yul\":400:454   */\n      and\n        /* \"#utility.yul\":389:454   */\n      swap1\n      pop\n        /* \"#utility.yul\":334:460   */\n      swap2\n      swap1\n      pop\n      jump\t// out\n        /* \"#utility.yul\":466:562   */\n    tag_328:\n        /* \"#utility.yul\":503:510   */\n      0x00\n        /* \"#utility.yul\":532:556   */\n      tag_404\n        /* \"#utility.yul\":550:555   */\n      dup3\n        /* \"#utility.yul\":532:556   */\n      tag_327\n      jump\t// in\n    tag_404:\n        /* \"#utility.yul\":521:556   */\n      swap1\n      pop\n        /* \"#utility.yul\":466:562   */\n      swap2\n      swap1\n      pop\n      jump\t// out\n        /* \"#utility.yul\":568:690   */\n    tag_329:\n        /* \"#utility.yul\":641:665   */\n      tag_406\n        /* \"#utility.yul\":659:664   */\n      dup2\n        /* \"#utility.yul\":641:665   */\n      tag_328\n      jump\t// in\n    tag_406:\n        /* \"#utility.yul\":634:639   */\n      dup2\n        /* \"#utility.yul\":631:666   */\n      eq\n        /* \"#utility.yul\":621:684   */\n      tag_407\n      jumpi\n        /* \"#utility.yul\":680:681   */\n      0x00\n        /* \"#utility.yul\":677:678   */\n      0x00\n        /* \"#utility.yul\":670:682   */\n      revert\n        /* \"#utility.yul\":621:684   */\n    tag_407:\n        /* \"#utility.yul\":568:690   */\n      pop\n      jump\t// out\n        /* \"#utility.yul\":696:835   */\n    tag_330:\n        /* \"#utility.yul\":742:747   */\n      0x00\n        /* \"#utility.yul\":780:786   */\n      dup2\n        /* \"#utility.yul\":767:787   */\n      calldataload\n        /* \"#utility.yul\":758:787   */\n      swap1\n      pop\n        /* \"#utility.yul\":796:829   */\n      tag_409\n        /* \"#utility.yul\":823:828   */\n      dup2\n        /* \"#utility.yul\":796:829   */\n      tag_329\n      jump\t// in\n    tag_409:\n        /* \"#utility.yul\":696:835   */\n      swap3\n      swap2\n      pop\n      pop\n      jump\t// out\n        /* \"#utility.yul\":841:1170   */\n    tag_32:\n        /* \"#utility.yul\":900:906   */\n      0x00\n        /* \"#utility.yul\":949:951   */\n      0x20\n        /* \"#utility.yul\":937:946   */\n      dup3\n        /* \"#utility.yul\":928:935   */\n      dup5\n        /* \"#utility.yul\":924:947   */\n      sub\n        /* \"#utility.yul\":920:952   */\n      slt\n        /* \"#utility.yul\":917:1036   */\n      iszero\n      tag_411\n      jumpi\n        /* \"#utility.yul\":955:1034   */\n      tag_412\n      tag_325\n      jump\t// in\n    tag_412:\n        /* \"#utility.yul\":917:1036   */\n    tag_411:\n        /* \"#utility.yul\":1075:1076   */\n      0x00\n        /* \"#utility.yul\":1100:1153   */\n      tag_413\n        /* \"#utility.yul\":1145:1152   */\n      dup5\n        /* \"#utility.yul\":1136:1142   */\n      dup3\n        /* \"#utility.yul\":1125:1134   */\n      dup6\n        /* \"#utility.yul\":1121:1143   */\n      add\n        /* \"#utility.yul\":1100:1153   */\n      tag_330\n      jump\t// in\n    tag_413:\n        /* \"#utility.yul\":1090:1153   */\n      swap2\n      pop\n        /* \"#utility.yul\":1046:1163   */\n      pop\n        /* \"#utility.yul\":841:1170   */\n      swap3\n      swap2\n      pop\n      pop\n      jump\t// out\n        /* \"#utility.yul\":1176:1253   */\n    tag_331:\n        /* \"#utility.yul\":1213:1220   */\n      0x00\n        /* \"#utility.yul\":1242:1247   */\n      dup2\n        /* \"#utility.yul\":1231:1247   */\n      swap1\n      pop\n        /* \"#utility.yul\":1176:1253   */\n      swap2\n      swap1\n      pop\n      jump\t// out\n        /* \"#utility.yul\":1259:1377   */\n    tag_332:\n        /* \"#utility.yul\":1346:1370   */\n      tag_416\n        /* \"#utility.yul\":1364:1369   */\n      dup2\n        /* \"#utility.yul\":1346:1370   */\n      tag_331\n      jump\t// in\n    tag_416:\n        /* \"#utility.yul\":1341:1344   */\n      dup3\n        /* \"#utility.yul\":1334:1371   */\n      mstore\n        /* \"#utility.yul\":1259:1377   */\n      pop\n      pop\n      jump\t// out\n        /* \"#utility.yul\":1383:1605   */\n    tag_35:\n        /* \"#utility.yul\":1476:1480   */\n      0x00\n        /* \"#utility.yul\":1514:1516   */\n      0x20\n        /* \"#utility.yul\":1503:1512   */\n      dup3\n        /* \"#utility.yul\":1499:1517   */\n      add\n        /* \"#utility.yul\":1491:1517   */\n      swap1\n      pop\n        /* \"#utility.yul\":1527:1598   */\n      tag_418\n        /* \"#utility.yul\":1595:1596   */\n      0x00\n        /* \"#utility.yul\":1584:1593   */\n      dup4\n        /* \"#utility.yul\":1580:1597   */\n      add\n        /* \"#utility.yul\":1571:1577   */\n      dup5\n        /* \"#utility.yul\":1527:1598   */\n      tag_332\n      jump\t// in\n    tag_418:\n        /* \"#utility.yul\":1383:1605   */\n      swap3\n      swap2\n      pop\n      pop\n      jump\t// out\n        /* \"#utility.yul\":1611:1688   */\n    tag_333:\n        /* \"#utility.yul\":1648:1655   */\n      0x00\n        /* \"#utility.yul\":1677:1682   */\n      dup2\n        /* \"#utility.yul\":1666:1682   */\n      swap1\n      pop\n        /* \"#utility.yul\":1611:1688   */\n      swap2\n      swap1\n      pop\n      jump\t// out\n        /* \"#utility.yul\":1694:1816   */\n    tag_334:\n        /* \"#utility.yul\":1767:1791   */\n      tag_421\n        /* \"#utility.yul\":1785:1790   */\n      dup2\n        /* \"#utility.yul\":1767:1791   */\n      tag_333\n      jump\t// in\n    tag_421:\n        /* \"#utility.yul\":1760:1765   */\n      dup2\n        /* \"#utility.yul\":1757:1792   */\n      eq\n        /* \"#utility.yul\":1747:1810   */\n      tag_422\n      jumpi\n        /* \"#utility.yul\":1806:1807   */\n      0x00\n        /* \"#utility.yul\":1803:1804   */\n      0x00\n        /* \"#utility.yul\":1796:1808   */\n      revert\n        /* \"#utility.yul\":1747:1810   */\n    tag_422:\n        /* \"#utility.yul\":1694:1816   */\n      pop\n      jump\t// out\n        /* \"#utility.yul\":1822:1961   */\n    tag_335:\n        /* \"#utility.yul\":1868:1873   */\n      0x00\n        /* \"#utility.yul\":1906:1912   */\n      dup2\n        /* \"#utility.yul\":1893:1913   */\n      calldataload\n        /* \"#utility.yul\":1884:1913   */\n      swap1\n      pop\n        /* \"#utility.yul\":1922:1955   */\n      tag_424\n        /* \"#utility.yul\":1949:1954   */\n      dup2\n        /* \"#utility.yul\":1922:1955   */\n      tag_334\n      jump\t// in\n    tag_424:\n        /* \"#utility.yul\":1822:1961   */\n      swap3\n      swap2\n      pop\n      pop\n      jump\t// out\n        /* \"#utility.yul\":1967:2057   */\n    tag_336:\n        /* \"#utility.yul\":2001:2008   */\n      0x00\n        /* \"#utility.yul\":2044:2049   */\n      dup2\n        /* \"#utility.yul\":2037:2050   */\n      iszero\n        /* \"#utility.yul\":2030:2051   */\n      iszero\n        /* \"#utility.yul\":2019:2051   */\n      swap1\n      pop\n        /* \"#utility.yul\":1967:2057   */\n      swap2\n      swap1\n      pop\n      jump\t// out\n        /* \"#utility.yul\":2063:2179   */\n    tag_337:\n        /* \"#utility.yul\":2133:2154   */\n      tag_427\n        /* \"#utility.yul\":2148:2153   */\n      dup2\n        /* \"#utility.yul\":2133:2154   */\n      tag_336\n      jump\t// in\n    tag_427:\n        /* \"#utility.yul\":2126:2131   */\n      dup2\n        /* \"#utility.yul\":2123:2155   */\n      eq\n        /* \"#utility.yul\":2113:2173   */\n      tag_428\n      jumpi\n        /* \"#utility.yul\":2169:2170   */\n      0x00\n        /* \"#utility.yul\":2166:2167   */\n      0x00\n        /* \"#utility.yul\":2159:2171   */\n      revert\n        /* \"#utility.yul\":2113:2173   */\n    tag_428:\n        /* \"#utility.yul\":2063:2179   */\n      pop\n      jump\t// out\n        /* \"#utility.yul\":2185:2318   */\n    tag_338:\n        /* \"#utility.yul\":2228:2233   */\n      0x00\n        /* \"#utility.yul\":2266:2272   */\n      dup2\n        /* \"#utility.yul\":2253:2273   */\n      calldataload\n        /* \"#utility.yul\":2244:2273   */\n      swap1\n      pop\n        /* \"#utility.yul\":2282:2312   */\n      tag_430\n        /* \"#utility.yul\":2306:2311   */\n      dup2\n        /* \"#utility.yul\":2282:2312   */\n      tag_337\n      jump\t// in\n    tag_430:\n        /* \"#utility.yul\":2185:2318   */\n      swap3\n      swap2\n      pop\n      pop\n      jump\t// out\n        /* \"#utility.yul\":2324:3521   */\n    tag_38:\n        /* \"#utility.yul\":2434:2440   */\n      0x00\n        /* \"#utility.yul\":2442:2448   */\n      0x00\n        /* \"#utility.yul\":2450:2456   */\n      0x00\n        /* \"#utility.yul\":2458:2464   */\n      0x00\n        /* \"#utility.yul\":2466:2472   */\n      0x00\n        /* \"#utility.yul\":2474:2480   */\n      0x00\n        /* \"#utility.yul\":2482:2488   */\n      0x00\n        /* \"#utility.yul\":2531:2534   */\n      0xe0\n        /* \"#utility.yul\":2519:2528   */\n      dup9\n        /* \"#utility.yul\":2510:2517   */\n      dup11\n        /* \"#utility.yul\":2506:2529   */\n      sub\n        /* \"#utility.yul\":2502:2535   */\n      slt\n        /* \"#utility.yul\":2499:2619   */\n      iszero\n      tag_432\n      jumpi\n        /* \"#utility.yul\":2538:2617   */\n      tag_433\n      tag_325\n      jump\t// in\n    tag_433:\n        /* \"#utility.yul\":2499:2619   */\n    tag_432:\n        /* \"#utility.yul\":2658:2659   */\n      0x00\n        /* \"#utility.yul\":2683:2736   */\n      tag_434\n        /* \"#utility.yul\":2728:2735   */\n      dup11\n        /* \"#utility.yul\":2719:2725   */\n      dup3\n        /* \"#utility.yul\":2708:2717   */\n      dup12\n        /* \"#utility.yul\":2704:2726   */\n      add\n        /* \"#utility.yul\":2683:2736   */\n      tag_330\n      jump\t// in\n    tag_434:\n        /* \"#utility.yul\":2673:2736   */\n      swap8\n      pop\n        /* \"#utility.yul\":2629:2746   */\n      pop\n        /* \"#utility.yul\":2785:2787   */\n      0x20\n        /* \"#utility.yul\":2811:2864   */\n      tag_435\n        /* \"#utility.yul\":2856:2863   */\n      dup11\n        /* \"#utility.yul\":2847:2853   */\n      dup3\n        /* \"#utility.yul\":2836:2845   */\n      dup12\n        /* \"#utility.yul\":2832:2854   */\n      add\n        /* \"#utility.yul\":2811:2864   */\n      tag_335\n      jump\t// in\n    tag_435:\n        /* \"#utility.yul\":2801:2864   */\n      swap7\n      pop\n        /* \"#utility.yul\":2756:2874   */\n      pop\n        /* \"#utility.yul\":2913:2915   */\n      0x40\n        /* \"#utility.yul\":2939:2992   */\n      tag_436\n        /* \"#utility.yul\":2984:2991   */\n      dup11\n        /* \"#utility.yul\":2975:2981   */\n      dup3\n        /* \"#utility.yul\":2964:2973   */\n      dup12\n        /* \"#utility.yul\":2960:2982   */\n      add\n        /* \"#utility.yul\":2939:2992   */\n      tag_335\n      jump\t// in\n    tag_436:\n        /* \"#utility.yul\":2929:2992   */\n      swap6\n      pop\n        /* \"#utility.yul\":2884:3002   */\n      pop\n        /* \"#utility.yul\":3041:3043   */\n      0x60\n        /* \"#utility.yul\":3067:3120   */\n      tag_437\n        /* \"#utility.yul\":3112:3119   */\n      dup11\n        /* \"#utility.yul\":3103:3109   */\n      dup3\n        /* \"#utility.yul\":3092:3101   */\n      dup12\n        /* \"#utility.yul\":3088:3110   */\n      add\n        /* \"#utility.yul\":3067:3120   */\n      tag_335\n      jump\t// in\n    tag_437:\n        /* \"#utility.yul\":3057:3120   */\n      swap5\n      pop\n        /* \"#utility.yul\":3012:3130   */\n      pop\n        /* \"#utility.yul\":3169:3172   */\n      0x80\n        /* \"#utility.yul\":3196:3249   */\n      tag_438\n        /* \"#utility.yul\":3241:3248   */\n      dup11\n        /* \"#utility.yul\":3232:3238   */\n      dup3\n        /* \"#utility.yul\":3221:3230   */\n      dup12\n        /* \"#utility.yul\":3217:3239   */\n      add\n        /* \"#utility.yul\":3196:3249   */\n      tag_335\n      jump\t// in\n    tag_438:\n        /* \"#utility.yul\":3186:3249   */\n      swap4\n      pop\n        /* \"#utility.yul\":3140:3259   */\n      pop\n        /* \"#utility.yul\":3298:3301   */\n      0xa0\n        /* \"#utility.yul\":3325:3375   */\n      tag_439\n        /* \"#utility.yul\":3367:3374   */\n      dup11\n        /* \"#utility.yul\":3358:3364   */\n      dup3\n        /* \"#utility.yul\":3347:3356   */\n      dup12\n        /* \"#utility.yul\":3343:3365   */\n      add\n        /* \"#utility.yul\":3325:3375   */\n      tag_338\n      jump\t// in\n    tag_439:\n        /* \"#utility.yul\":3315:3375   */\n      swap3\n      pop\n        /* \"#utility.yul\":3269:3385   */\n      pop\n        /* \"#utility.yul\":3424:3427   */\n      0xc0\n        /* \"#utility.yul\":3451:3504   */\n      tag_440\n        /* \"#utility.yul\":3496:3503   */\n      dup11\n        /* \"#utility.yul\":3487:3493   */\n      dup3\n        /* \"#utility.yul\":3476:3485   */\n      dup12\n        /* \"#utility.yul\":3472:3494   */\n      add\n        /* \"#utility.yul\":3451:3504   */\n      tag_335\n      jump\t// in\n    tag_440:\n        /* \"#utility.yul\":3441:3504   */\n      swap2\n      pop\n        /* \"#utility.yul\":3395:3514   */\n      pop\n        /* \"#utility.yul\":2324:3521   */\n      swap3\n      swap6\n      swap9\n      swap2\n      swap5\n      swap8\n      pop\n      swap3\n      swap6\n      pop\n      jump\t// out\n        /* \"#utility.yul\":3527:3673   */\n    tag_339:\n        /* \"#utility.yul\":3626:3632   */\n      0x00\n        /* \"#utility.yul\":3660:3665   */\n      dup2\n        /* \"#utility.yul\":3654:3666   */\n      mload\n        /* \"#utility.yul\":3644:3666   */\n      swap1\n      pop\n        /* \"#utility.yul\":3527:3673   */\n      swap2\n      swap1\n      pop\n      jump\t// out\n        /* \"#utility.yul\":3679:3895   */\n    tag_340:\n        /* \"#utility.yul\":3810:3821   */\n      0x00\n        /* \"#utility.yul\":3844:3850   */\n      dup3\n        /* \"#utility.yul\":3839:3842   */\n      dup3\n        /* \"#utility.yul\":3832:3851   */\n      mstore\n        /* \"#utility.yul\":3884:3888   */\n      0x20\n        /* \"#utility.yul\":3879:3882   */\n      dup3\n        /* \"#utility.yul\":3875:3889   */\n      add\n        /* \"#utility.yul\":3860:3889   */\n      swap1\n      pop\n        /* \"#utility.yul\":3679:3895   */\n      swap3\n      swap2\n      pop\n      pop\n      jump\t// out\n        /* \"#utility.yul\":3901:4065   */\n    tag_341:\n        /* \"#utility.yul\":4000:4004   */\n      0x00\n        /* \"#utility.yul\":4023:4026   */\n      dup2\n        /* \"#utility.yul\":4015:4026   */\n      swap1\n      pop\n        /* \"#utility.yul\":4053:4057   */\n      0x20\n        /* \"#utility.yul\":4048:4051   */\n      dup3\n        /* \"#utility.yul\":4044:4058   */\n      add\n        /* \"#utility.yul\":4036:4058   */\n      swap1\n      pop\n        /* \"#utility.yul\":3901:4065   */\n      swap2\n      swap1\n      pop\n      jump\t// out\n        /* \"#utility.yul\":4071:4170   */\n    tag_342:\n        /* \"#utility.yul\":4142:4163   */\n      tag_445\n        /* \"#utility.yul\":4157:4162   */\n      dup2\n        /* \"#utility.yul\":4142:4163   */\n      tag_336\n      jump\t// in\n    tag_445:\n        /* \"#utility.yul\":4137:4140   */\n      dup3\n        /* \"#utility.yul\":4130:4164   */\n      mstore\n        /* \"#utility.yul\":4071:4170   */\n      pop\n      pop\n      jump\t// out\n        /* \"#utility.yul\":4176:4284   */\n    tag_343:\n        /* \"#utility.yul\":4253:4277   */\n      tag_447\n        /* \"#utility.yul\":4271:4276   */\n      dup2\n        /* \"#utility.yul\":4253:4277   */\n      tag_328\n      jump\t// in\n    tag_447:\n        /* \"#utility.yul\":4248:4251   */\n      dup3\n        /* \"#utility.yul\":4241:4278   */\n      mstore\n        /* \"#utility.yul\":4176:4284   */\n      pop\n      pop\n      jump\t// out\n        /* \"#utility.yul\":4290:4398   */\n    tag_344:\n        /* \"#utility.yul\":4367:4391   */\n      tag_449\n        /* \"#utility.yul\":4385:4390   */\n      dup2\n        /* \"#utility.yul\":4367:4391   */\n      tag_333\n      jump\t// in\n    tag_449:\n        /* \"#utility.yul\":4362:4365   */\n      dup3\n        /* \"#utility.yul\":4355:4392   */\n      mstore\n        /* \"#utility.yul\":4290:4398   */\n      pop\n      pop\n      jump\t// out\n        /* \"#utility.yul\":4486:6434   */\n    tag_345:\n        /* \"#utility.yul\":4637:4643   */\n      0x0140\n        /* \"#utility.yul\":4632:4635   */\n      dup3\n        /* \"#utility.yul\":4628:4644   */\n      add\n        /* \"#utility.yul\":4733:4737   */\n      0x00\n        /* \"#utility.yul\":4726:4731   */\n      dup3\n        /* \"#utility.yul\":4722:4738   */\n      add\n        /* \"#utility.yul\":4716:4739   */\n      mload\n        /* \"#utility.yul\":4752:4809   */\n      tag_451\n        /* \"#utility.yul\":4803:4807   */\n      0x00\n        /* \"#utility.yul\":4798:4801   */\n      dup6\n        /* \"#utility.yul\":4794:4808   */\n      add\n        /* \"#utility.yul\":4780:4792   */\n      dup3\n        /* \"#utility.yul\":4752:4809   */\n      tag_342\n      jump\t// in\n    tag_451:\n        /* \"#utility.yul\":4654:4819   */\n      pop\n        /* \"#utility.yul\":4908:4912   */\n      0x20\n        /* \"#utility.yul\":4901:4906   */\n      dup3\n        /* \"#utility.yul\":4897:4913   */\n      add\n        /* \"#utility.yul\":4891:4914   */\n      mload\n        /* \"#utility.yul\":4927:4990   */\n      tag_452\n        /* \"#utility.yul\":4984:4988   */\n      0x20\n        /* \"#utility.yul\":4979:4982   */\n      dup6\n        /* \"#utility.yul\":4975:4989   */\n      add\n        /* \"#utility.yul\":4961:4973   */\n      dup3\n        /* \"#utility.yul\":4927:4990   */\n      tag_343\n      jump\t// in\n    tag_452:\n        /* \"#utility.yul\":4829:5000   */\n      pop\n        /* \"#utility.yul\":5083:5087   */\n      0x40\n        /* \"#utility.yul\":5076:5081   */\n      dup3\n        /* \"#utility.yul\":5072:5088   */\n      add\n        /* \"#utility.yul\":5066:5089   */\n      mload\n        /* \"#utility.yul\":5102:5165   */\n      tag_453\n        /* \"#utility.yul\":5159:5163   */\n      0x40\n        /* \"#utility.yul\":5154:5157   */\n      dup6\n        /* \"#utility.yul\":5150:5164   */\n      add\n        /* \"#utility.yul\":5136:5148   */\n      dup3\n        /* \"#utility.yul\":5102:5165   */\n      tag_344\n      jump\t// in\n    tag_453:\n        /* \"#utility.yul\":5010:5175   */\n      pop\n        /* \"#utility.yul\":5258:5262   */\n      0x60\n        /* \"#utility.yul\":5251:5256   */\n      dup3\n        /* \"#utility.yul\":5247:5263   */\n      add\n        /* \"#utility.yul\":5241:5264   */\n      mload\n        /* \"#utility.yul\":5277:5340   */\n      tag_454\n        /* \"#utility.yul\":5334:5338   */\n      0x60\n        /* \"#utility.yul\":5329:5332   */\n      dup6\n        /* \"#utility.yul\":5325:5339   */\n      add\n        /* \"#utility.yul\":5311:5323   */\n      dup3\n        /* \"#utility.yul\":5277:5340   */\n      tag_344\n      jump\t// in\n    tag_454:\n        /* \"#utility.yul\":5185:5350   */\n      pop\n        /* \"#utility.yul\":5436:5440   */\n      0x80\n        /* \"#utility.yul\":5429:5434   */\n      dup3\n        /* \"#utility.yul\":5425:5441   */\n      add\n        /* \"#utility.yul\":5419:5442   */\n      mload\n        /* \"#utility.yul\":5455:5518   */\n      tag_455\n        /* \"#utility.yul\":5512:5516   */\n      0x80\n        /* \"#utility.yul\":5507:5510   */\n      dup6\n        /* \"#utility.yul\":5503:5517   */\n      add\n        /* \"#utility.yul\":5489:5501   */\n      dup3\n        /* \"#utility.yul\":5455:5518   */\n      tag_344\n      jump\t// in\n    tag_455:\n        /* \"#utility.yul\":5360:5528   */\n      pop\n        /* \"#utility.yul\":5624:5628   */\n      0xa0\n        /* \"#utility.yul\":5617:5622   */\n      dup3\n        /* \"#utility.yul\":5613:5629   */\n      add\n        /* \"#utility.yul\":5607:5630   */\n      mload\n        /* \"#utility.yul\":5643:5706   */\n      tag_456\n        /* \"#utility.yul\":5700:5704   */\n      0xa0\n        /* \"#utility.yul\":5695:5698   */\n      dup6\n        /* \"#utility.yul\":5691:5705   */\n      add\n        /* \"#utility.yul\":5677:5689   */\n      dup3\n        /* \"#utility.yul\":5643:5706   */\n      tag_344\n      jump\t// in\n    tag_456:\n        /* \"#utility.yul\":5538:5716   */\n      pop\n        /* \"#utility.yul\":5803:5807   */\n      0xc0\n        /* \"#utility.yul\":5796:5801   */\n      dup3\n        /* \"#utility.yul\":5792:5808   */\n      add\n        /* \"#utility.yul\":5786:5809   */\n      mload\n        /* \"#utility.yul\":5822:5879   */\n      tag_457\n        /* \"#utility.yul\":5873:5877   */\n      0xc0\n        /* \"#utility.yul\":5868:5871   */\n      dup6\n        /* \"#utility.yul\":5864:5878   */\n      add\n        /* \"#utility.yul\":5850:5862   */\n      dup3\n        /* \"#utility.yul\":5822:5879   */\n      tag_342\n      jump\t// in\n    tag_457:\n        /* \"#utility.yul\":5726:5889   */\n      pop\n        /* \"#utility.yul\":5978:5982   */\n      0xe0\n        /* \"#utility.yul\":5971:5976   */\n      dup3\n        /* \"#utility.yul\":5967:5983   */\n      add\n        /* \"#utility.yul\":5961:5984   */\n      mload\n        /* \"#utility.yul\":5997:6060   */\n      tag_458\n        /* \"#utility.yul\":6054:6058   */\n      0xe0\n        /* \"#utility.yul\":6049:6052   */\n      dup6\n        /* \"#utility.yul\":6045:6059   */\n      add\n        /* \"#utility.yul\":6031:6043   */\n      dup3\n        /* \"#utility.yul\":5997:6060   */\n      tag_344\n      jump\t// in\n    tag_458:\n        /* \"#utility.yul\":5899:6070   */\n      pop\n        /* \"#utility.yul\":6156:6162   */\n      0x0100\n        /* \"#utility.yul\":6149:6154   */\n      dup3\n        /* \"#utility.yul\":6145:6163   */\n      add\n        /* \"#utility.yul\":6139:6164   */\n      mload\n        /* \"#utility.yul\":6177:6242   */\n      tag_459\n        /* \"#utility.yul\":6234:6240   */\n      0x0100\n        /* \"#utility.yul\":6229:6232   */\n      dup6\n        /* \"#utility.yul\":6225:6241   */\n      add\n        /* \"#utility.yul\":6211:6223   */\n      dup3\n        /* \"#utility.yul\":6177:6242   */\n      tag_344\n      jump\t// in\n    tag_459:\n        /* \"#utility.yul\":6080:6252   */\n      pop\n        /* \"#utility.yul\":6337:6343   */\n      0x0120\n        /* \"#utility.yul\":6330:6335   */\n      dup3\n        /* \"#utility.yul\":6326:6344   */\n      add\n        /* \"#utility.yul\":6320:6345   */\n      mload\n        /* \"#utility.yul\":6358:6417   */\n      tag_460\n        /* \"#utility.yul\":6409:6415   */\n      0x0120\n        /* \"#utility.yul\":6404:6407   */\n      dup6\n        /* \"#utility.yul\":6400:6416   */\n      add\n        /* \"#utility.yul\":6386:6398   */\n      dup3\n        /* \"#utility.yul\":6358:6417   */\n      tag_342\n      jump\t// in\n    tag_460:\n        /* \"#utility.yul\":6262:6427   */\n      pop\n        /* \"#utility.yul\":4606:6434   */\n      pop\n        /* \"#utility.yul\":4486:6434   */\n      pop\n      pop\n      jump\t// out\n        /* \"#utility.yul\":6440:6749   */\n    tag_346:\n        /* \"#utility.yul\":6573:6583   */\n      0x00\n        /* \"#utility.yul\":6594:6704   */\n      tag_462\n        /* \"#utility.yul\":6700:6703   */\n      dup4\n        /* \"#utility.yul\":6692:6698   */\n      dup4\n        /* \"#utility.yul\":6594:6704   */\n      tag_345\n      jump\t// in\n    tag_462:\n        /* \"#utility.yul\":6736:6742   */\n      0x0140\n        /* \"#utility.yul\":6731:6734   */\n      dup4\n        /* \"#utility.yul\":6727:6743   */\n      add\n        /* \"#utility.yul\":6713:6743   */\n      swap1\n      pop\n        /* \"#utility.yul\":6440:6749   */\n      swap3\n      swap2\n      pop\n      pop\n      jump\t// out\n        /* \"#utility.yul\":6755:6900   */\n    tag_347:\n        /* \"#utility.yul\":6857:6861   */\n      0x00\n        /* \"#utility.yul\":6889:6893   */\n      0x20\n        /* \"#utility.yul\":6884:6887   */\n      dup3\n        /* \"#utility.yul\":6880:6894   */\n      add\n        /* \"#utility.yul\":6872:6894   */\n      swap1\n      pop\n        /* \"#utility.yul\":6755:6900   */\n      swap2\n      swap1\n      pop\n      jump\t// out\n        /* \"#utility.yul\":6992:7980   */\n    tag_348:\n        /* \"#utility.yul\":7175:7178   */\n      0x00\n        /* \"#utility.yul\":7204:7290   */\n      tag_465\n        /* \"#utility.yul\":7284:7289   */\n      dup3\n        /* \"#utility.yul\":7204:7290   */\n      tag_339\n      jump\t// in\n    tag_465:\n        /* \"#utility.yul\":7306:7424   */\n      tag_466\n        /* \"#utility.yul\":7417:7423   */\n      dup2\n        /* \"#utility.yul\":7412:7415   */\n      dup6\n        /* \"#utility.yul\":7306:7424   */\n      tag_340\n      jump\t// in\n    tag_466:\n        /* \"#utility.yul\":7299:7424   */\n      swap4\n      pop\n        /* \"#utility.yul\":7448:7536   */\n      tag_467\n        /* \"#utility.yul\":7530:7535   */\n      dup4\n        /* \"#utility.yul\":7448:7536   */\n      tag_341\n      jump\t// in\n    tag_467:\n        /* \"#utility.yul\":7559:7566   */\n      dup1\n        /* \"#utility.yul\":7590:7591   */\n      0x00\n        /* \"#utility.yul\":7575:7955   */\n    tag_468:\n        /* \"#utility.yul\":7600:7606   */\n      dup4\n        /* \"#utility.yul\":7597:7598   */\n      dup2\n        /* \"#utility.yul\":7594:7607   */\n      lt\n        /* \"#utility.yul\":7575:7955   */\n      iszero\n      tag_470\n      jumpi\n        /* \"#utility.yul\":7676:7682   */\n      dup2\n        /* \"#utility.yul\":7670:7683   */\n      mload\n        /* \"#utility.yul\":7703:7830   */\n      tag_471\n        /* \"#utility.yul\":7826:7829   */\n      dup9\n        /* \"#utility.yul\":7811:7824   */\n      dup3\n        /* \"#utility.yul\":7703:7830   */\n      tag_346\n      jump\t// in\n    tag_471:\n        /* \"#utility.yul\":7696:7830   */\n      swap8\n      pop\n        /* \"#utility.yul\":7853:7945   */\n      tag_472\n        /* \"#utility.yul\":7938:7944   */\n      dup4\n        /* \"#utility.yul\":7853:7945   */\n      tag_347\n      jump\t// in\n    tag_472:\n        /* \"#utility.yul\":7843:7945   */\n      swap3\n      pop\n        /* \"#utility.yul\":7635:7955   */\n      pop\n        /* \"#utility.yul\":7622:7623   */\n      0x01\n        /* \"#utility.yul\":7619:7620   */\n      dup2\n        /* \"#utility.yul\":7615:7624   */\n      add\n        /* \"#utility.yul\":7610:7624   */\n      swap1\n      pop\n        /* \"#utility.yul\":7575:7955   */\n      jump(tag_468)\n    tag_470:\n        /* \"#utility.yul\":7579:7593   */\n      pop\n        /* \"#utility.yul\":7971:7974   */\n      dup6\n        /* \"#utility.yul\":7964:7974   */\n      swap4\n      pop\n        /* \"#utility.yul\":7180:7980   */\n      pop\n      pop\n      pop\n        /* \"#utility.yul\":6992:7980   */\n      swap3\n      swap2\n      pop\n      pop\n      jump\t// out\n        /* \"#utility.yul\":7986:8487   */\n    tag_44:\n        /* \"#utility.yul\":8193:8197   */\n      0x00\n        /* \"#utility.yul\":8231:8233   */\n      0x20\n        /* \"#utility.yul\":8220:8229   */\n      dup3\n        /* \"#utility.yul\":8216:8234   */\n      add\n        /* \"#utility.yul\":8208:8234   */\n      swap1\n      pop\n        /* \"#utility.yul\":8280:8289   */\n      dup2\n        /* \"#utility.yul\":8274:8278   */\n      dup2\n        /* \"#utility.yul\":8270:8290   */\n      sub\n        /* \"#utility.yul\":8266:8267   */\n      0x00\n        /* \"#utility.yul\":8255:8264   */\n      dup4\n        /* \"#utility.yul\":8251:8268   */\n      add\n        /* \"#utility.yul\":8244:8291   */\n      mstore\n        /* \"#utility.yul\":8308:8480   */\n      tag_474\n        /* \"#utility.yul\":8475:8479   */\n      dup2\n        /* \"#utility.yul\":8466:8472   */\n      dup5\n        /* \"#utility.yul\":8308:8480   */\n      tag_348\n      jump\t// in\n    tag_474:\n        /* \"#utility.yul\":8300:8480   */\n      swap1\n      pop\n        /* \"#utility.yul\":7986:8487   */\n      swap3\n      swap2\n      pop\n      pop\n      jump\t// out\n        /* \"#utility.yul\":8493:8822   */\n    tag_47:\n        /* \"#utility.yul\":8552:8558   */\n      0x00\n        /* \"#utility.yul\":8601:8603   */\n      0x20\n        /* \"#utility.yul\":8589:8598   */\n      dup3\n        /* \"#utility.yul\":8580:8587   */\n      dup5\n        /* \"#utility.yul\":8576:8599   */\n      sub\n        /* \"#utility.yul\":8572:8604   */\n      slt\n        /* \"#utility.yul\":8569:8688   */\n      iszero\n      tag_476\n      jumpi\n        /* \"#utility.yul\":8607:8686   */\n      tag_477\n      tag_325\n      jump\t// in\n    tag_477:\n        /* \"#utility.yul\":8569:8688   */\n    tag_476:\n        /* \"#utility.yul\":8727:8728   */\n      0x00\n        /* \"#utility.yul\":8752:8805   */\n      tag_478\n        /* \"#utility.yul\":8797:8804   */\n      dup5\n        /* \"#utility.yul\":8788:8794   */\n      dup3\n        /* \"#utility.yul\":8777:8786   */\n      dup6\n        /* \"#utility.yul\":8773:8795   */\n      add\n        /* \"#utility.yul\":8752:8805   */\n      tag_335\n      jump\t// in\n    tag_478:\n        /* \"#utility.yul\":8742:8805   */\n      swap2\n      pop\n        /* \"#utility.yul\":8698:8815   */\n      pop\n        /* \"#utility.yul\":8493:8822   */\n      swap3\n      swap2\n      pop\n      pop\n      jump\t// out\n        /* \"#utility.yul\":8828:8946   */\n    tag_349:\n        /* \"#utility.yul\":8915:8939   */\n      tag_480\n        /* \"#utility.yul\":8933:8938   */\n      dup2\n        /* \"#utility.yul\":8915:8939   */\n      tag_333\n      jump\t// in\n    tag_480:\n        /* \"#utility.yul\":8910:8913   */\n      dup3\n        /* \"#utility.yul\":8903:8940   */\n      mstore\n        /* \"#utility.yul\":8828:8946   */\n      pop\n      pop\n      jump\t// out\n        /* \"#utility.yul\":8952:9505   */\n    tag_53:\n        /* \"#utility.yul\":9129:9133   */\n      0x00\n        /* \"#utility.yul\":9167:9170   */\n      0x80\n        /* \"#utility.yul\":9156:9165   */\n      dup3\n        /* \"#utility.yul\":9152:9171   */\n      add\n        /* \"#utility.yul\":9144:9171   */\n      swap1\n      pop\n        /* \"#utility.yul\":9181:9252   */\n      tag_482\n        /* \"#utility.yul\":9249:9250   */\n      0x00\n        /* \"#utility.yul\":9238:9247   */\n      dup4\n        /* \"#utility.yul\":9234:9251   */\n      add\n        /* \"#utility.yul\":9225:9231   */\n      dup8\n        /* \"#utility.yul\":9181:9252   */\n      tag_349\n      jump\t// in\n    tag_482:\n        /* \"#utility.yul\":9262:9334   */\n      tag_483\n        /* \"#utility.yul\":9330:9332   */\n      0x20\n        /* \"#utility.yul\":9319:9328   */\n      dup4\n        /* \"#utility.yul\":9315:9333   */\n      add\n        /* \"#utility.yul\":9306:9312   */\n      dup7\n        /* \"#utility.yul\":9262:9334   */\n      tag_349\n      jump\t// in\n    tag_483:\n        /* \"#utility.yul\":9344:9416   */\n      tag_484\n        /* \"#utility.yul\":9412:9414   */\n      0x40\n        /* \"#utility.yul\":9401:9410   */\n      dup4\n        /* \"#utility.yul\":9397:9415   */\n      add\n        /* \"#utility.yul\":9388:9394   */\n      dup6\n        /* \"#utility.yul\":9344:9416   */\n      tag_349\n      jump\t// in\n    tag_484:\n        /* \"#utility.yul\":9426:9498   */\n      tag_485\n        /* \"#utility.yul\":9494:9496   */\n      0x60\n        /* \"#utility.yul\":9483:9492   */\n      dup4\n        /* \"#utility.yul\":9479:9497   */\n      add\n        /* \"#utility.yul\":9470:9476   */\n      dup5\n        /* \"#utility.yul\":9426:9498   */\n      tag_349\n      jump\t// in\n    tag_485:\n        /* \"#utility.yul\":8952:9505   */\n      swap6\n      swap5\n      pop\n      pop\n      pop\n      pop\n      pop\n      jump\t// out\n        /* \"#utility.yul\":9511:9733   */\n    tag_58:\n        /* \"#utility.yul\":9604:9608   */\n      0x00\n        /* \"#utility.yul\":9642:9644   */\n      0x20\n        /* \"#utility.yul\":9631:9640   */\n      dup3\n        /* \"#utility.yul\":9627:9645   */\n      add\n        /* \"#utility.yul\":9619:9645   */\n      swap1\n      pop\n        /* \"#utility.yul\":9655:9726   */\n      tag_487\n        /* \"#utility.yul\":9723:9724   */\n      0x00\n        /* \"#utility.yul\":9712:9721   */\n      dup4\n        /* \"#utility.yul\":9708:9725   */\n      add\n        /* \"#utility.yul\":9699:9705   */\n      dup5\n        /* \"#utility.yul\":9655:9726   */\n      tag_349\n      jump\t// in\n    tag_487:\n        /* \"#utility.yul\":9511:9733   */\n      swap3\n      swap2\n      pop\n      pop\n      jump\t// out\n        /* \"#utility.yul\":9739:9861   */\n    tag_350:\n        /* \"#utility.yul\":9812:9836   */\n      tag_489\n        /* \"#utility.yul\":9830:9835   */\n      dup2\n        /* \"#utility.yul\":9812:9836   */\n      tag_331\n      jump\t// in\n    tag_489:\n        /* \"#utility.yul\":9805:9810   */\n      dup2\n        /* \"#utility.yul\":9802:9837   */\n      eq\n        /* \"#utility.yul\":9792:9855   */\n      tag_490\n      jumpi\n        /* \"#utility.yul\":9851:9852   */\n      0x00\n        /* \"#utility.yul\":9848:9849   */\n      0x00\n        /* \"#utility.yul\":9841:9853   */\n      revert\n        /* \"#utility.yul\":9792:9855   */\n    tag_490:\n        /* \"#utility.yul\":9739:9861   */\n      pop\n      jump\t// out\n        /* \"#utility.yul\":9867:10006   */\n    tag_351:\n        /* \"#utility.yul\":9913:9918   */\n      0x00\n        /* \"#utility.yul\":9951:9957   */\n      dup2\n        /* \"#utility.yul\":9938:9958   */\n      calldataload\n        /* \"#utility.yul\":9929:9958   */\n      swap1\n      pop\n        /* \"#utility.yul\":9967:10000   */\n      tag_492\n        /* \"#utility.yul\":9994:9999   */\n      dup2\n        /* \"#utility.yul\":9967:10000   */\n      tag_350\n      jump\t// in\n    tag_492:\n        /* \"#utility.yul\":9867:10006   */\n      swap3\n      swap2\n      pop\n      pop\n      jump\t// out\n        /* \"#utility.yul\":10012:10341   */\n    tag_65:\n        /* \"#utility.yul\":10071:10077   */\n      0x00\n        /* \"#utility.yul\":10120:10122   */\n      0x20\n        /* \"#utility.yul\":10108:10117   */\n      dup3\n        /* \"#utility.yul\":10099:10106   */\n      dup5\n        /* \"#utility.yul\":10095:10118   */\n      sub\n        /* \"#utility.yul\":10091:10123   */\n      slt\n        /* \"#utility.yul\":10088:10207   */\n      iszero\n      tag_494\n      jumpi\n        /* \"#utility.yul\":10126:10205   */\n      tag_495\n      tag_325\n      jump\t// in\n    tag_495:\n        /* \"#utility.yul\":10088:10207   */\n    tag_494:\n        /* \"#utility.yul\":10246:10247   */\n      0x00\n        /* \"#utility.yul\":10271:10324   */\n      tag_496\n        /* \"#utility.yul\":10316:10323   */\n      dup5\n        /* \"#utility.yul\":10307:10313   */\n      dup3\n        /* \"#utility.yul\":10296:10305   */\n      dup6\n        /* \"#utility.yul\":10292:10314   */\n      add\n        /* \"#utility.yul\":10271:10324   */\n      tag_351\n      jump\t// in\n    tag_496:\n        /* \"#utility.yul\":10261:10324   */\n      swap2\n      pop\n        /* \"#utility.yul\":10217:10334   */\n      pop\n        /* \"#utility.yul\":10012:10341   */\n      swap3\n      swap2\n      pop\n      pop\n      jump\t// out\n        /* \"#utility.yul\":10347:10456   */\n    tag_352:\n        /* \"#utility.yul\":10428:10449   */\n      tag_498\n        /* \"#utility.yul\":10443:10448   */\n      dup2\n        /* \"#utility.yul\":10428:10449   */\n      tag_336\n      jump\t// in\n    tag_498:\n        /* \"#utility.yul\":10423:10426   */\n      dup3\n        /* \"#utility.yul\":10416:10450   */\n      mstore\n        /* \"#utility.yul\":10347:10456   */\n      pop\n      pop\n      jump\t// out\n        /* \"#utility.yul\":10462:10580   */\n    tag_353:\n        /* \"#utility.yul\":10549:10573   */\n      tag_500\n        /* \"#utility.yul\":10567:10572   */\n      dup2\n        /* \"#utility.yul\":10549:10573   */\n      tag_328\n      jump\t// in\n    tag_500:\n        /* \"#utility.yul\":10544:10547   */\n      dup3\n        /* \"#utility.yul\":10537:10574   */\n      mstore\n        /* \"#utility.yul\":10462:10580   */\n      pop\n      pop\n      jump\t// out\n        /* \"#utility.yul\":10586:11769   */\n    tag_68:\n        /* \"#utility.yul\":10913:10917   */\n      0x00\n        /* \"#utility.yul\":10951:10954   */\n      0x0140\n        /* \"#utility.yul\":10940:10949   */\n      dup3\n        /* \"#utility.yul\":10936:10955   */\n      add\n        /* \"#utility.yul\":10928:10955   */\n      swap1\n      pop\n        /* \"#utility.yul\":10965:11030   */\n      tag_502\n        /* \"#utility.yul\":11027:11028   */\n      0x00\n        /* \"#utility.yul\":11016:11025   */\n      dup4\n        /* \"#utility.yul\":11012:11029   */\n      add\n        /* \"#utility.yul\":11003:11009   */\n      dup14\n        /* \"#utility.yul\":10965:11030   */\n      tag_352\n      jump\t// in\n    tag_502:\n        /* \"#utility.yul\":11040:11112   */\n      tag_503\n        /* \"#utility.yul\":11108:11110   */\n      0x20\n        /* \"#utility.yul\":11097:11106   */\n      dup4\n        /* \"#utility.yul\":11093:11111   */\n      add\n        /* \"#utility.yul\":11084:11090   */\n      dup13\n        /* \"#utility.yul\":11040:11112   */\n      tag_353\n      jump\t// in\n    tag_503:\n        /* \"#utility.yul\":11122:11194   */\n      tag_504\n        /* \"#utility.yul\":11190:11192   */\n      0x40\n        /* \"#utility.yul\":11179:11188   */\n      dup4\n        /* \"#utility.yul\":11175:11193   */\n      add\n        /* \"#utility.yul\":11166:11172   */\n      dup12\n        /* \"#utility.yul\":11122:11194   */\n      tag_349\n      jump\t// in\n    tag_504:\n        /* \"#utility.yul\":11204:11276   */\n      tag_505\n        /* \"#utility.yul\":11272:11274   */\n      0x60\n        /* \"#utility.yul\":11261:11270   */\n      dup4\n        /* \"#utility.yul\":11257:11275   */\n      add\n        /* \"#utility.yul\":11248:11254   */\n      dup11\n        /* \"#utility.yul\":11204:11276   */\n      tag_349\n      jump\t// in\n    tag_505:\n        /* \"#utility.yul\":11286:11359   */\n      tag_506\n        /* \"#utility.yul\":11354:11357   */\n      0x80\n        /* \"#utility.yul\":11343:11352   */\n      dup4\n        /* \"#utility.yul\":11339:11358   */\n      add\n        /* \"#utility.yul\":11330:11336   */\n      dup10\n        /* \"#utility.yul\":11286:11359   */\n      tag_349\n      jump\t// in\n    tag_506:\n        /* \"#utility.yul\":11369:11442   */\n      tag_507\n        /* \"#utility.yul\":11437:11440   */\n      0xa0\n        /* \"#utility.yul\":11426:11435   */\n      dup4\n        /* \"#utility.yul\":11422:11441   */\n      add\n        /* \"#utility.yul\":11413:11419   */\n      dup9\n        /* \"#utility.yul\":11369:11442   */\n      tag_349\n      jump\t// in\n    tag_507:\n        /* \"#utility.yul\":11452:11519   */\n      tag_508\n        /* \"#utility.yul\":11514:11517   */\n      0xc0\n        /* \"#utility.yul\":11503:11512   */\n      dup4\n        /* \"#utility.yul\":11499:11518   */\n      add\n        /* \"#utility.yul\":11490:11496   */\n      dup8\n        /* \"#utility.yul\":11452:11519   */\n      tag_352\n      jump\t// in\n    tag_508:\n        /* \"#utility.yul\":11529:11602   */\n      tag_509\n        /* \"#utility.yul\":11597:11600   */\n      0xe0\n        /* \"#utility.yul\":11586:11595   */\n      dup4\n        /* \"#utility.yul\":11582:11601   */\n      add\n        /* \"#utility.yul\":11573:11579   */\n      dup7\n        /* \"#utility.yul\":11529:11602   */\n      tag_349\n      jump\t// in\n    tag_509:\n        /* \"#utility.yul\":11612:11685   */\n      tag_510\n        /* \"#utility.yul\":11680:11683   */\n      0x0100\n        /* \"#utility.yul\":11669:11678   */\n      dup4\n        /* \"#utility.yul\":11665:11684   */\n      add\n        /* \"#utility.yul\":11656:11662   */\n      dup6\n        /* \"#utility.yul\":11612:11685   */\n      tag_349\n      jump\t// in\n    tag_510:\n        /* \"#utility.yul\":11695:11762   */\n      tag_511\n        /* \"#utility.yul\":11757:11760   */\n      0x0120\n        /* \"#utility.yul\":11746:11755   */\n      dup4\n        /* \"#utility.yul\":11742:11761   */\n      add\n        /* \"#utility.yul\":11733:11739   */\n      dup5\n        /* \"#utility.yul\":11695:11762   */\n      tag_352\n      jump\t// in\n    tag_511:\n        /* \"#utility.yul\":10586:11769   */\n      swap12\n      swap11\n      pop\n      pop\n      pop\n      pop\n      pop\n      pop\n      pop\n      pop\n      pop\n      pop\n      pop\n      jump\t// out\n        /* \"#utility.yul\":11775:12249   */\n    tag_71:\n        /* \"#utility.yul\":11843:11849   */\n      0x00\n        /* \"#utility.yul\":11851:11857   */\n      0x00\n        /* \"#utility.yul\":11900:11902   */\n      0x40\n        /* \"#utility.yul\":11888:11897   */\n      dup4\n        /* \"#utility.yul\":11879:11886   */\n      dup6\n        /* \"#utility.yul\":11875:11898   */\n      sub\n        /* \"#utility.yul\":11871:11903   */\n      slt\n        /* \"#utility.yul\":11868:11987   */\n      iszero\n      tag_513\n      jumpi\n        /* \"#utility.yul\":11906:11985   */\n      tag_514\n      tag_325\n      jump\t// in\n    tag_514:\n        /* \"#utility.yul\":11868:11987   */\n    tag_513:\n        /* \"#utility.yul\":12026:12027   */\n      0x00\n        /* \"#utility.yul\":12051:12104   */\n      tag_515\n        /* \"#utility.yul\":12096:12103   */\n      dup6\n        /* \"#utility.yul\":12087:12093   */\n      dup3\n        /* \"#utility.yul\":12076:12085   */\n      dup7\n        /* \"#utility.yul\":12072:12094   */\n      add\n        /* \"#utility.yul\":12051:12104   */\n      tag_351\n      jump\t// in\n    tag_515:\n        /* \"#utility.yul\":12041:12104   */\n      swap3\n      pop\n        /* \"#utility.yul\":11997:12114   */\n      pop\n        /* \"#utility.yul\":12153:12155   */\n      0x20\n        /* \"#utility.yul\":12179:12232   */\n      tag_516\n        /* \"#utility.yul\":12224:12231   */\n      dup6\n        /* \"#utility.yul\":12215:12221   */\n      dup3\n        /* \"#utility.yul\":12204:12213   */\n      dup7\n        /* \"#utility.yul\":12200:12222   */\n      add\n        /* \"#utility.yul\":12179:12232   */\n      tag_335\n      jump\t// in\n    tag_516:\n        /* \"#utility.yul\":12169:12232   */\n      swap2\n      pop\n        /* \"#utility.yul\":12124:12242   */\n      pop\n        /* \"#utility.yul\":11775:12249   */\n      swap3\n      pop\n      swap3\n      swap1\n      pop\n      jump\t// out\n        /* \"#utility.yul\":12255:12729   */\n    tag_84:\n        /* \"#utility.yul\":12323:12329   */\n      0x00\n        /* \"#utility.yul\":12331:12337   */\n      0x00\n        /* \"#utility.yul\":12380:12382   */\n      0x40\n        /* \"#utility.yul\":12368:12377   */\n      dup4\n        /* \"#utility.yul\":12359:12366   */\n      dup6\n        /* \"#utility.yul\":12355:12378   */\n      sub\n        /* \"#utility.yul\":12351:12383   */\n      slt\n        /* \"#utility.yul\":12348:12467   */\n      iszero\n      tag_518\n      jumpi\n        /* \"#utility.yul\":12386:12465   */\n      tag_519\n      tag_325\n      jump\t// in\n    tag_519:\n        /* \"#utility.yul\":12348:12467   */\n    tag_518:\n        /* \"#utility.yul\":12506:12507   */\n      0x00\n        /* \"#utility.yul\":12531:12584   */\n      tag_520\n        /* \"#utility.yul\":12576:12583   */\n      dup6\n        /* \"#utility.yul\":12567:12573   */\n      dup3\n        /* \"#utility.yul\":12556:12565   */\n      dup7\n        /* \"#utility.yul\":12552:12574   */\n      add\n        /* \"#utility.yul\":12531:12584   */\n      tag_330\n      jump\t// in\n    tag_520:\n        /* \"#utility.yul\":12521:12584   */\n      swap3\n      pop\n        /* \"#utility.yul\":12477:12594   */\n      pop\n        /* \"#utility.yul\":12633:12635   */\n      0x20\n        /* \"#utility.yul\":12659:12712   */\n      tag_521\n        /* \"#utility.yul\":12704:12711   */\n      dup6\n        /* \"#utility.yul\":12695:12701   */\n      dup3\n        /* \"#utility.yul\":12684:12693   */\n      dup7\n        /* \"#utility.yul\":12680:12702   */\n      add\n        /* \"#utility.yul\":12659:12712   */\n      tag_335\n      jump\t// in\n    tag_521:\n        /* \"#utility.yul\":12649:12712   */\n      swap2\n      pop\n        /* \"#utility.yul\":12604:12722   */\n      pop\n        /* \"#utility.yul\":12255:12729   */\n      swap3\n      pop\n      swap3\n      swap1\n      pop\n      jump\t// out\n        /* \"#utility.yul\":12735:12957   */\n    tag_90:\n        /* \"#utility.yul\":12828:12832   */\n      0x00\n        /* \"#utility.yul\":12866:12868   */\n      0x20\n        /* \"#utility.yul\":12855:12864   */\n      dup3\n        /* \"#utility.yul\":12851:12869   */\n      add\n        /* \"#utility.yul\":12843:12869   */\n      swap1\n      pop\n        /* \"#utility.yul\":12879:12950   */\n      tag_523\n        /* \"#utility.yul\":12947:12948   */\n      0x00\n        /* \"#utility.yul\":12936:12945   */\n      dup4\n        /* \"#utility.yul\":12932:12949   */\n      add\n        /* \"#utility.yul\":12923:12929   */\n      dup5\n        /* \"#utility.yul\":12879:12950   */\n      tag_353\n      jump\t// in\n    tag_523:\n        /* \"#utility.yul\":12735:12957   */\n      swap3\n      swap2\n      pop\n      pop\n      jump\t// out\n        /* \"#utility.yul\":13045:15003   */\n    tag_354:\n        /* \"#utility.yul\":13206:13212   */\n      0x0140\n        /* \"#utility.yul\":13201:13204   */\n      dup3\n        /* \"#utility.yul\":13197:13213   */\n      add\n        /* \"#utility.yul\":13302:13306   */\n      0x00\n        /* \"#utility.yul\":13295:13300   */\n      dup3\n        /* \"#utility.yul\":13291:13307   */\n      add\n        /* \"#utility.yul\":13285:13308   */\n      mload\n        /* \"#utility.yul\":13321:13378   */\n      tag_525\n        /* \"#utility.yul\":13372:13376   */\n      0x00\n        /* \"#utility.yul\":13367:13370   */\n      dup6\n        /* \"#utility.yul\":13363:13377   */\n      add\n        /* \"#utility.yul\":13349:13361   */\n      dup3\n        /* \"#utility.yul\":13321:13378   */\n      tag_342\n      jump\t// in\n    tag_525:\n        /* \"#utility.yul\":13223:13388   */\n      pop\n        /* \"#utility.yul\":13477:13481   */\n      0x20\n        /* \"#utility.yul\":13470:13475   */\n      dup3\n        /* \"#utility.yul\":13466:13482   */\n      add\n        /* \"#utility.yul\":13460:13483   */\n      mload\n        /* \"#utility.yul\":13496:13559   */\n      tag_526\n        /* \"#utility.yul\":13553:13557   */\n      0x20\n        /* \"#utility.yul\":13548:13551   */\n      dup6\n        /* \"#utility.yul\":13544:13558   */\n      add\n        /* \"#utility.yul\":13530:13542   */\n      dup3\n        /* \"#utility.yul\":13496:13559   */\n      tag_343\n      jump\t// in\n    tag_526:\n        /* \"#utility.yul\":13398:13569   */\n      pop\n        /* \"#utility.yul\":13652:13656   */\n      0x40\n        /* \"#utility.yul\":13645:13650   */\n      dup3\n        /* \"#utility.yul\":13641:13657   */\n      add\n        /* \"#utility.yul\":13635:13658   */\n      mload\n        /* \"#utility.yul\":13671:13734   */\n      tag_527\n        /* \"#utility.yul\":13728:13732   */\n      0x40\n        /* \"#utility.yul\":13723:13726   */\n      dup6\n        /* \"#utility.yul\":13719:13733   */\n      add\n        /* \"#utility.yul\":13705:13717   */\n      dup3\n        /* \"#utility.yul\":13671:13734   */\n      tag_344\n      jump\t// in\n    tag_527:\n        /* \"#utility.yul\":13579:13744   */\n      pop\n        /* \"#utility.yul\":13827:13831   */\n      0x60\n        /* \"#utility.yul\":13820:13825   */\n      dup3\n        /* \"#utility.yul\":13816:13832   */\n      add\n        /* \"#utility.yul\":13810:13833   */\n      mload\n        /* \"#utility.yul\":13846:13909   */\n      tag_528\n        /* \"#utility.yul\":13903:13907   */\n      0x60\n        /* \"#utility.yul\":13898:13901   */\n      dup6\n        /* \"#utility.yul\":13894:13908   */\n      add\n        /* \"#utility.yul\":13880:13892   */\n      dup3\n        /* \"#utility.yul\":13846:13909   */\n      tag_344\n      jump\t// in\n    tag_528:\n        /* \"#utility.yul\":13754:13919   */\n      pop\n        /* \"#utility.yul\":14005:14009   */\n      0x80\n        /* \"#utility.yul\":13998:14003   */\n      dup3\n        /* \"#utility.yul\":13994:14010   */\n      add\n        /* \"#utility.yul\":13988:14011   */\n      mload\n        /* \"#utility.yul\":14024:14087   */\n      tag_529\n        /* \"#utility.yul\":14081:14085   */\n      0x80\n        /* \"#utility.yul\":14076:14079   */\n      dup6\n        /* \"#utility.yul\":14072:14086   */\n      add\n        /* \"#utility.yul\":14058:14070   */\n      dup3\n        /* \"#utility.yul\":14024:14087   */\n      tag_344\n      jump\t// in\n    tag_529:\n        /* \"#utility.yul\":13929:14097   */\n      pop\n        /* \"#utility.yul\":14193:14197   */\n      0xa0\n        /* \"#utility.yul\":14186:14191   */\n      dup3\n        /* \"#utility.yul\":14182:14198   */\n      add\n        /* \"#utility.yul\":14176:14199   */\n      mload\n        /* \"#utility.yul\":14212:14275   */\n      tag_530\n        /* \"#utility.yul\":14269:14273   */\n      0xa0\n        /* \"#utility.yul\":14264:14267   */\n      dup6\n        /* \"#utility.yul\":14260:14274   */\n      add\n        /* \"#utility.yul\":14246:14258   */\n      dup3\n        /* \"#utility.yul\":14212:14275   */\n      tag_344\n      jump\t// in\n    tag_530:\n        /* \"#utility.yul\":14107:14285   */\n      pop\n        /* \"#utility.yul\":14372:14376   */\n      0xc0\n        /* \"#utility.yul\":14365:14370   */\n      dup3\n        /* \"#utility.yul\":14361:14377   */\n      add\n        /* \"#utility.yul\":14355:14378   */\n      mload\n        /* \"#utility.yul\":14391:14448   */\n      tag_531\n        /* \"#utility.yul\":14442:14446   */\n      0xc0\n        /* \"#utility.yul\":14437:14440   */\n      dup6\n        /* \"#utility.yul\":14433:14447   */\n      add\n        /* \"#utility.yul\":14419:14431   */\n      dup3\n        /* \"#utility.yul\":14391:14448   */\n      tag_342\n      jump\t// in\n    tag_531:\n        /* \"#utility.yul\":14295:14458   */\n      pop\n        /* \"#utility.yul\":14547:14551   */\n      0xe0\n        /* \"#utility.yul\":14540:14545   */\n      dup3\n        /* \"#utility.yul\":14536:14552   */\n      add\n        /* \"#utility.yul\":14530:14553   */\n      mload\n        /* \"#utility.yul\":14566:14629   */\n      tag_532\n        /* \"#utility.yul\":14623:14627   */\n      0xe0\n        /* \"#utility.yul\":14618:14621   */\n      dup6\n        /* \"#utility.yul\":14614:14628   */\n      add\n        /* \"#utility.yul\":14600:14612   */\n      dup3\n        /* \"#utility.yul\":14566:14629   */\n      tag_344\n      jump\t// in\n    tag_532:\n        /* \"#utility.yul\":14468:14639   */\n      pop\n        /* \"#utility.yul\":14725:14731   */\n      0x0100\n        /* \"#utility.yul\":14718:14723   */\n      dup3\n        /* \"#utility.yul\":14714:14732   */\n      add\n        /* \"#utility.yul\":14708:14733   */\n      mload\n        /* \"#utility.yul\":14746:14811   */\n      tag_533\n        /* \"#utility.yul\":14803:14809   */\n      0x0100\n        /* \"#utility.yul\":14798:14801   */\n      dup6\n        /* \"#utility.yul\":14794:14810   */\n      add\n        /* \"#utility.yul\":14780:14792   */\n      dup3\n        /* \"#utility.yul\":14746:14811   */\n      tag_344\n      jump\t// in\n    tag_533:\n        /* \"#utility.yul\":14649:14821   */\n      pop\n        /* \"#utility.yul\":14906:14912   */\n      0x0120\n        /* \"#utility.yul\":14899:14904   */\n      dup3\n        /* \"#utility.yul\":14895:14913   */\n      add\n        /* \"#utility.yul\":14889:14914   */\n      mload\n        /* \"#utility.yul\":14927:14986   */\n      tag_534\n        /* \"#utility.yul\":14978:14984   */\n      0x0120\n        /* \"#utility.yul\":14973:14976   */\n      dup6\n        /* \"#utility.yul\":14969:14985   */\n      add\n        /* \"#utility.yul\":14955:14967   */\n      dup3\n        /* \"#utility.yul\":14927:14986   */\n      tag_342\n      jump\t// in\n    tag_534:\n        /* \"#utility.yul\":14831:14996   */\n      pop\n        /* \"#utility.yul\":13175:15003   */\n      pop\n        /* \"#utility.yul\":13045:15003   */\n      pop\n      pop\n      jump\t// out\n        /* \"#utility.yul\":15009:15360   */\n    tag_101:\n        /* \"#utility.yul\":15166:15170   */\n      0x00\n        /* \"#utility.yul\":15204:15207   */\n      0x0140\n        /* \"#utility.yul\":15193:15202   */\n      dup3\n        /* \"#utility.yul\":15189:15208   */\n      add\n        /* \"#utility.yul\":15181:15208   */\n      swap1\n      pop\n        /* \"#utility.yul\":15218:15353   */\n      tag_536\n        /* \"#utility.yul\":15350:15351   */\n      0x00\n        /* \"#utility.yul\":15339:15348   */\n      dup4\n        /* \"#utility.yul\":15335:15352   */\n      add\n        /* \"#utility.yul\":15326:15332   */\n      dup5\n        /* \"#utility.yul\":15218:15353   */\n      tag_354\n      jump\t// in\n    tag_536:\n        /* \"#utility.yul\":15009:15360   */\n      swap3\n      swap2\n      pop\n      pop\n      jump\t// out\n        /* \"#utility.yul\":15366:15426   */\n    tag_355:\n        /* \"#utility.yul\":15394:15397   */\n      0x00\n        /* \"#utility.yul\":15415:15420   */\n      dup2\n        /* \"#utility.yul\":15408:15420   */\n      swap1\n      pop\n        /* \"#utility.yul\":15366:15426   */\n      swap2\n      swap1\n      pop\n      jump\t// out\n        /* \"#utility.yul\":15432:15574   */\n    tag_356:\n        /* \"#utility.yul\":15482:15491   */\n      0x00\n        /* \"#utility.yul\":15515:15568   */\n      tag_539\n        /* \"#utility.yul\":15533:15567   */\n      tag_540\n        /* \"#utility.yul\":15542:15566   */\n      tag_541\n        /* \"#utility.yul\":15560:15565   */\n      dup5\n        /* \"#utility.yul\":15542:15566   */\n      tag_327\n      jump\t// in\n    tag_541:\n        /* \"#utility.yul\":15533:15567   */\n      tag_355\n      jump\t// in\n    tag_540:\n        /* \"#utility.yul\":15515:15568   */\n      tag_327\n      jump\t// in\n    tag_539:\n        /* \"#utility.yul\":15502:15568   */\n      swap1\n      pop\n        /* \"#utility.yul\":15432:15574   */\n      swap2\n      swap1\n      pop\n      jump\t// out\n        /* \"#utility.yul\":15580:15706   */\n    tag_357:\n        /* \"#utility.yul\":15630:15639   */\n      0x00\n        /* \"#utility.yul\":15663:15700   */\n      tag_543\n        /* \"#utility.yul\":15694:15699   */\n      dup3\n        /* \"#utility.yul\":15663:15700   */\n      tag_356\n      jump\t// in\n    tag_543:\n        /* \"#utility.yul\":15650:15700   */\n      swap1\n      pop\n        /* \"#utility.yul\":15580:15706   */\n      swap2\n      swap1\n      pop\n      jump\t// out\n        /* \"#utility.yul\":15712:15852   */\n    tag_358:\n        /* \"#utility.yul\":15776:15785   */\n      0x00\n        /* \"#utility.yul\":15809:15846   */\n      tag_545\n        /* \"#utility.yul\":15840:15845   */\n      dup3\n        /* \"#utility.yul\":15809:15846   */\n      tag_357\n      jump\t// in\n    tag_545:\n        /* \"#utility.yul\":15796:15846   */\n      swap1\n      pop\n        /* \"#utility.yul\":15712:15852   */\n      swap2\n      swap1\n      pop\n      jump\t// out\n        /* \"#utility.yul\":15858:16017   */\n    tag_359:\n        /* \"#utility.yul\":15959:16010   */\n      tag_547\n        /* \"#utility.yul\":16004:16009   */\n      dup2\n        /* \"#utility.yul\":15959:16010   */\n      tag_358\n      jump\t// in\n    tag_547:\n        /* \"#utility.yul\":15954:15957   */\n      dup3\n        /* \"#utility.yul\":15947:16011   */\n      mstore\n        /* \"#utility.yul\":15858:16017   */\n      pop\n      pop\n      jump\t// out\n        /* \"#utility.yul\":16023:16273   */\n    tag_127:\n        /* \"#utility.yul\":16130:16134   */\n      0x00\n        /* \"#utility.yul\":16168:16170   */\n      0x20\n        /* \"#utility.yul\":16157:16166   */\n      dup3\n        /* \"#utility.yul\":16153:16171   */\n      add\n        /* \"#utility.yul\":16145:16171   */\n      swap1\n      pop\n        /* \"#utility.yul\":16181:16266   */\n      tag_549\n        /* \"#utility.yul\":16263:16264   */\n      0x00\n        /* \"#utility.yul\":16252:16261   */\n      dup4\n        /* \"#utility.yul\":16248:16265   */\n      add\n        /* \"#utility.yul\":16239:16245   */\n      dup5\n        /* \"#utility.yul\":16181:16266   */\n      tag_359\n      jump\t// in\n    tag_549:\n        /* \"#utility.yul\":16023:16273   */\n      swap3\n      swap2\n      pop\n      pop\n      jump\t// out\n        /* \"#utility.yul\":16279:16459   */\n    tag_360:\n        /* \"#utility.yul\":16327:16404   */\n      0x4e487b7100000000000000000000000000000000000000000000000000000000\n        /* \"#utility.yul\":16324:16325   */\n      0x00\n        /* \"#utility.yul\":16317:16405   */\n      mstore\n        /* \"#utility.yul\":16424:16428   */\n      0x11\n        /* \"#utility.yul\":16421:16422   */\n      0x04\n        /* \"#utility.yul\":16414:16429   */\n      mstore\n        /* \"#utility.yul\":16448:16452   */\n      0x24\n        /* \"#utility.yul\":16445:16446   */\n      0x00\n        /* \"#utility.yul\":16438:16453   */\n      revert\n        /* \"#utility.yul\":16465:16659   */\n    tag_131:\n        /* \"#utility.yul\":16505:16509   */\n      0x00\n        /* \"#utility.yul\":16525:16545   */\n      tag_552\n        /* \"#utility.yul\":16543:16544   */\n      dup3\n        /* \"#utility.yul\":16525:16545   */\n      tag_333\n      jump\t// in\n    tag_552:\n        /* \"#utility.yul\":16520:16545   */\n      swap2\n      pop\n        /* \"#utility.yul\":16559:16579   */\n      tag_553\n        /* \"#utility.yul\":16577:16578   */\n      dup4\n        /* \"#utility.yul\":16559:16579   */\n      tag_333\n      jump\t// in\n    tag_553:\n        /* \"#utility.yul\":16554:16579   */\n      swap3\n      pop\n        /* \"#utility.yul\":16603:16604   */\n      dup3\n        /* \"#utility.yul\":16600:16601   */\n      dup3\n        /* \"#utility.yul\":16596:16605   */\n      sub\n        /* \"#utility.yul\":16588:16605   */\n      swap1\n      pop\n        /* \"#utility.yul\":16627:16628   */\n      dup2\n        /* \"#utility.yul\":16621:16625   */\n      dup2\n        /* \"#utility.yul\":16618:16629   */\n      gt\n        /* \"#utility.yul\":16615:16652   */\n      iszero\n      tag_554\n      jumpi\n        /* \"#utility.yul\":16632:16650   */\n      tag_555\n      tag_360\n      jump\t// in\n    tag_555:\n        /* \"#utility.yul\":16615:16652   */\n    tag_554:\n        /* \"#utility.yul\":16465:16659   */\n      swap3\n      swap2\n      pop\n      pop\n      jump\t// out\n        /* \"#utility.yul\":16665:16834   */\n    tag_361:\n        /* \"#utility.yul\":16749:16760   */\n      0x00\n        /* \"#utility.yul\":16783:16789   */\n      dup3\n        /* \"#utility.yul\":16778:16781   */\n      dup3\n        /* \"#utility.yul\":16771:16790   */\n      mstore\n        /* \"#utility.yul\":16823:16827   */\n      0x20\n        /* \"#utility.yul\":16818:16821   */\n      dup3\n        /* \"#utility.yul\":16814:16828   */\n      add\n        /* \"#utility.yul\":16799:16828   */\n      swap1\n      pop\n        /* \"#utility.yul\":16665:16834   */\n      swap3\n      swap2\n      pop\n      pop\n      jump\t// out\n        /* \"#utility.yul\":16840:17061   */\n    tag_362:\n        /* \"#utility.yul\":16980:17014   */\n      0x42656e65666963696172792063616e6e6f74206265207a65726f206164647265\n        /* \"#utility.yul\":16976:16977   */\n      0x00\n        /* \"#utility.yul\":16968:16974   */\n      dup3\n        /* \"#utility.yul\":16964:16978   */\n      add\n        /* \"#utility.yul\":16957:17015   */\n      mstore\n        /* \"#utility.yul\":17049:17053   */\n      0x7373000000000000000000000000000000000000000000000000000000000000\n        /* \"#utility.yul\":17044:17046   */\n      0x20\n        /* \"#utility.yul\":17036:17042   */\n      dup3\n        /* \"#utility.yul\":17032:17047   */\n      add\n        /* \"#utility.yul\":17025:17054   */\n      mstore\n        /* \"#utility.yul\":16840:17061   */\n      pop\n      jump\t// out\n        /* \"#utility.yul\":17067:17433   */\n    tag_363:\n        /* \"#utility.yul\":17209:17212   */\n      0x00\n        /* \"#utility.yul\":17230:17297   */\n      tag_559\n        /* \"#utility.yul\":17294:17296   */\n      0x22\n        /* \"#utility.yul\":17289:17292   */\n      dup4\n        /* \"#utility.yul\":17230:17297   */\n      tag_361\n      jump\t// in\n    tag_559:\n        /* \"#utility.yul\":17223:17297   */\n      swap2\n      pop\n        /* \"#utility.yul\":17306:17399   */\n      tag_560\n        /* \"#utility.yul\":17395:17398   */\n      dup3\n        /* \"#utility.yul\":17306:17399   */\n      tag_362\n      jump\t// in\n    tag_560:\n        /* \"#utility.yul\":17424:17426   */\n      0x40\n        /* \"#utility.yul\":17419:17422   */\n      dup3\n        /* \"#utility.yul\":17415:17427   */\n      add\n        /* \"#utility.yul\":17408:17427   */\n      swap1\n      pop\n        /* \"#utility.yul\":17067:17433   */\n      swap2\n      swap1\n      pop\n      jump\t// out\n        /* \"#utility.yul\":17439:17858   */\n    tag_138:\n        /* \"#utility.yul\":17605:17609   */\n      0x00\n        /* \"#utility.yul\":17643:17645   */\n      0x20\n        /* \"#utility.yul\":17632:17641   */\n      dup3\n        /* \"#utility.yul\":17628:17646   */\n      add\n        /* \"#utility.yul\":17620:17646   */\n      swap1\n      pop\n        /* \"#utility.yul\":17692:17701   */\n      dup2\n        /* \"#utility.yul\":17686:17690   */\n      dup2\n        /* \"#utility.yul\":17682:17702   */\n      sub\n        /* \"#utility.yul\":17678:17679   */\n      0x00\n        /* \"#utility.yul\":17667:17676   */\n      dup4\n        /* \"#utility.yul\":17663:17680   */\n      add\n        /* \"#utility.yul\":17656:17703   */\n      mstore\n        /* \"#utility.yul\":17720:17851   */\n      tag_562\n        /* \"#utility.yul\":17846:17850   */\n      dup2\n        /* \"#utility.yul\":17720:17851   */\n      tag_363\n      jump\t// in\n    tag_562:\n        /* \"#utility.yul\":17712:17851   */\n      swap1\n      pop\n        /* \"#utility.yul\":17439:17858   */\n      swap2\n      swap1\n      pop\n      jump\t// out\n        /* \"#utility.yul\":17864:18034   */\n    tag_364:\n        /* \"#utility.yul\":18004:18026   */\n      0x4475726174696f6e206d757374206265203e2030000000000000000000000000\n        /* \"#utility.yul\":18000:18001   */\n      0x00\n        /* \"#utility.yul\":17992:17998   */\n      dup3\n        /* \"#utility.yul\":17988:18002   */\n      add\n        /* \"#utility.yul\":17981:18027   */\n      mstore\n        /* \"#utility.yul\":17864:18034   */\n      pop\n      jump\t// out\n        /* \"#utility.yul\":18040:18406   */\n    tag_365:\n        /* \"#utility.yul\":18182:18185   */\n      0x00\n        /* \"#utility.yul\":18203:18270   */\n      tag_565\n        /* \"#utility.yul\":18267:18269   */\n      0x14\n        /* \"#utility.yul\":18262:18265   */\n      dup4\n        /* \"#utility.yul\":18203:18270   */\n      tag_361\n      jump\t// in\n    tag_565:\n        /* \"#utility.yul\":18196:18270   */\n      swap2\n      pop\n        /* \"#utility.yul\":18279:18372   */\n      tag_566\n        /* \"#utility.yul\":18368:18371   */\n      dup3\n        /* \"#utility.yul\":18279:18372   */\n      tag_364\n      jump\t// in\n    tag_566:\n        /* \"#utility.yul\":18397:18399   */\n      0x20\n        /* \"#utility.yul\":18392:18395   */\n      dup3\n        /* \"#utility.yul\":18388:18400   */\n      add\n        /* \"#utility.yul\":18381:18400   */\n      swap1\n      pop\n        /* \"#utility.yul\":18040:18406   */\n      swap2\n      swap1\n      pop\n      jump\t// out\n        /* \"#utility.yul\":18412:18831   */\n    tag_141:\n        /* \"#utility.yul\":18578:18582   */\n      0x00\n        /* \"#utility.yul\":18616:18618   */\n      0x20\n        /* \"#utility.yul\":18605:18614   */\n      dup3\n        /* \"#utility.yul\":18601:18619   */\n      add\n        /* \"#utility.yul\":18593:18619   */\n      swap1\n      pop\n        /* \"#utility.yul\":18665:18674   */\n      dup2\n        /* \"#utility.yul\":18659:18663   */\n      dup2\n        /* \"#utility.yul\":18655:18675   */\n      sub\n        /* \"#utility.yul\":18651:18652   */\n      0x00\n        /* \"#utility.yul\":18640:18649   */\n      dup4\n        /* \"#utility.yul\":18636:18653   */\n      add\n        /* \"#utility.yul\":18629:18676   */\n      mstore\n        /* \"#utility.yul\":18693:18824   */\n      tag_568\n        /* \"#utility.yul\":18819:18823   */\n      dup2\n        /* \"#utility.yul\":18693:18824   */\n      tag_365\n      jump\t// in\n    tag_568:\n        /* \"#utility.yul\":18685:18824   */\n      swap1\n      pop\n        /* \"#utility.yul\":18412:18831   */\n      swap2\n      swap1\n      pop\n      jump\t// out\n        /* \"#utility.yul\":18837:19005   */\n    tag_366:\n        /* \"#utility.yul\":18977:18997   */\n      0x416d6f756e74206d757374206265203e20300000000000000000000000000000\n        /* \"#utility.yul\":18973:18974   */\n      0x00\n        /* \"#utility.yul\":18965:18971   */\n      dup3\n        /* \"#utility.yul\":18961:18975   */\n      add\n        /* \"#utility.yul\":18954:18998   */\n      mstore\n        /* \"#utility.yul\":18837:19005   */\n      pop\n      jump\t// out\n        /* \"#utility.yul\":19011:19377   */\n    tag_367:\n        /* \"#utility.yul\":19153:19156   */\n      0x00\n        /* \"#utility.yul\":19174:19241   */\n      tag_571\n        /* \"#utility.yul\":19238:19240   */\n      0x12\n        /* \"#utility.yul\":19233:19236   */\n      dup4\n        /* \"#utility.yul\":19174:19241   */\n      tag_361\n      jump\t// in\n    tag_571:\n        /* \"#utility.yul\":19167:19241   */\n      swap2\n      pop\n        /* \"#utility.yul\":19250:19343   */\n      tag_572\n        /* \"#utility.yul\":19339:19342   */\n      dup3\n        /* \"#utility.yul\":19250:19343   */\n      tag_366\n      jump\t// in\n    tag_572:\n        /* \"#utility.yul\":19368:19370   */\n      0x20\n        /* \"#utility.yul\":19363:19366   */\n      dup3\n        /* \"#utility.yul\":19359:19371   */\n      add\n        /* \"#utility.yul\":19352:19371   */\n      swap1\n      pop\n        /* \"#utility.yul\":19011:19377   */\n      swap2\n      swap1\n      pop\n      jump\t// out\n        /* \"#utility.yul\":19383:19802   */\n    tag_144:\n        /* \"#utility.yul\":19549:19553   */\n      0x00\n        /* \"#utility.yul\":19587:19589   */\n      0x20\n        /* \"#utility.yul\":19576:19585   */\n      dup3\n        /* \"#utility.yul\":19572:19590   */\n      add\n        /* \"#utility.yul\":19564:19590   */\n      swap1\n      pop\n        /* \"#utility.yul\":19636:19645   */\n      dup2\n        /* \"#utility.yul\":19630:19634   */\n      dup2\n        /* \"#utility.yul\":19626:19646   */\n      sub\n        /* \"#utility.yul\":19622:19623   */\n      0x00\n        /* \"#utility.yul\":19611:19620   */\n      dup4\n        /* \"#utility.yul\":19607:19624   */\n      add\n        /* \"#utility.yul\":19600:19647   */\n      mstore\n        /* \"#utility.yul\":19664:19795   */\n      tag_574\n        /* \"#utility.yul\":19790:19794   */\n      dup2\n        /* \"#utility.yul\":19664:19795   */\n      tag_367\n      jump\t// in\n    tag_574:\n        /* \"#utility.yul\":19656:19795   */\n      swap1\n      pop\n        /* \"#utility.yul\":19383:19802   */\n      swap2\n      swap1\n      pop\n      jump\t// out\n        /* \"#utility.yul\":19808:19990   */\n    tag_368:\n        /* \"#utility.yul\":19948:19982   */\n      0x536c69636520706572696f64206d757374206265203e3d2031207365636f6e64\n        /* \"#utility.yul\":19944:19945   */\n      0x00\n        /* \"#utility.yul\":19936:19942   */\n      dup3\n        /* \"#utility.yul\":19932:19946   */\n      add\n        /* \"#utility.yul\":19925:19983   */\n      mstore\n        /* \"#utility.yul\":19808:19990   */\n      pop\n      jump\t// out\n        /* \"#utility.yul\":19996:20362   */\n    tag_369:\n        /* \"#utility.yul\":20138:20141   */\n      0x00\n        /* \"#utility.yul\":20159:20226   */\n      tag_577\n        /* \"#utility.yul\":20223:20225   */\n      0x20\n        /* \"#utility.yul\":20218:20221   */\n      dup4\n        /* \"#utility.yul\":20159:20226   */\n      tag_361\n      jump\t// in\n    tag_577:\n        /* \"#utility.yul\":20152:20226   */\n      swap2\n      pop\n        /* \"#utility.yul\":20235:20328   */\n      tag_578\n        /* \"#utility.yul\":20324:20327   */\n      dup3\n        /* \"#utility.yul\":20235:20328   */\n      tag_368\n      jump\t// in\n    tag_578:\n        /* \"#utility.yul\":20353:20355   */\n      0x20\n        /* \"#utility.yul\":20348:20351   */\n      dup3\n        /* \"#utility.yul\":20344:20356   */\n      add\n        /* \"#utility.yul\":20337:20356   */\n      swap1\n      pop\n        /* \"#utility.yul\":19996:20362   */\n      swap2\n      swap1\n      pop\n      jump\t// out\n        /* \"#utility.yul\":20368:20787   */\n    tag_147:\n        /* \"#utility.yul\":20534:20538   */\n      0x00\n        /* \"#utility.yul\":20572:20574   */\n      0x20\n        /* \"#utility.yul\":20561:20570   */\n      dup3\n        /* \"#utility.yul\":20557:20575   */\n      add\n        /* \"#utility.yul\":20549:20575   */\n      swap1\n      pop\n        /* \"#utility.yul\":20621:20630   */\n      dup2\n        /* \"#utility.yul\":20615:20619   */\n      dup2\n        /* \"#utility.yul\":20611:20631   */\n      sub\n        /* \"#utility.yul\":20607:20608   */\n      0x00\n        /* \"#utility.yul\":20596:20605   */\n      dup4\n        /* \"#utility.yul\":20592:20609   */\n      add\n        /* \"#utility.yul\":20585:20632   */\n      mstore\n        /* \"#utility.yul\":20649:20780   */\n      tag_580\n        /* \"#utility.yul\":20775:20779   */\n      dup2\n        /* \"#utility.yul\":20649:20780   */\n      tag_369\n      jump\t// in\n    tag_580:\n        /* \"#utility.yul\":20641:20780   */\n      swap1\n      pop\n        /* \"#utility.yul\":20368:20787   */\n      swap2\n      swap1\n      pop\n      jump\t// out\n        /* \"#utility.yul\":20793:20968   */\n    tag_370:\n        /* \"#utility.yul\":20933:20960   */\n      0x4475726174696f6e206d757374206265203e3d20636c69666600000000000000\n        /* \"#utility.yul\":20929:20930   */\n      0x00\n        /* \"#utility.yul\":20921:20927   */\n      dup3\n        /* \"#utility.yul\":20917:20931   */\n      add\n        /* \"#utility.yul\":20910:20961   */\n      mstore\n        /* \"#utility.yul\":20793:20968   */\n      pop\n      jump\t// out\n        /* \"#utility.yul\":20974:21340   */\n    tag_371:\n        /* \"#utility.yul\":21116:21119   */\n      0x00\n        /* \"#utility.yul\":21137:21204   */\n      tag_583\n        /* \"#utility.yul\":21201:21203   */\n      0x19\n        /* \"#utility.yul\":21196:21199   */\n      dup4\n        /* \"#utility.yul\":21137:21204   */\n      tag_361\n      jump\t// in\n    tag_583:\n        /* \"#utility.yul\":21130:21204   */\n      swap2\n      pop\n        /* \"#utility.yul\":21213:21306   */\n      tag_584\n        /* \"#utility.yul\":21302:21305   */\n      dup3\n        /* \"#utility.yul\":21213:21306   */\n      tag_370\n      jump\t// in\n    tag_584:\n        /* \"#utility.yul\":21331:21333   */\n      0x20\n        /* \"#utility.yul\":21326:21329   */\n      dup3\n        /* \"#utility.yul\":21322:21334   */\n      add\n        /* \"#utility.yul\":21315:21334   */\n      swap1\n      pop\n        /* \"#utility.yul\":20974:21340   */\n      swap2\n      swap1\n      pop\n      jump\t// out\n        /* \"#utility.yul\":21346:21765   */\n    tag_150:\n        /* \"#utility.yul\":21512:21516   */\n      0x00\n        /* \"#utility.yul\":21550:21552   */\n      0x20\n        /* \"#utility.yul\":21539:21548   */\n      dup3\n        /* \"#utility.yul\":21535:21553   */\n      add\n        /* \"#utility.yul\":21527:21553   */\n      swap1\n      pop\n        /* \"#utility.yul\":21599:21608   */\n      dup2\n        /* \"#utility.yul\":21593:21597   */\n      dup2\n        /* \"#utility.yul\":21589:21609   */\n      sub\n        /* \"#utility.yul\":21585:21586   */\n      0x00\n        /* \"#utility.yul\":21574:21583   */\n      dup4\n        /* \"#utility.yul\":21570:21587   */\n      add\n        /* \"#utility.yul\":21563:21610   */\n      mstore\n        /* \"#utility.yul\":21627:21758   */\n      tag_586\n        /* \"#utility.yul\":21753:21757   */\n      dup2\n        /* \"#utility.yul\":21627:21758   */\n      tag_371\n      jump\t// in\n    tag_586:\n        /* \"#utility.yul\":21619:21758   */\n      swap1\n      pop\n        /* \"#utility.yul\":21346:21765   */\n      swap2\n      swap1\n      pop\n      jump\t// out\n        /* \"#utility.yul\":21771:22009   */\n    tag_372:\n        /* \"#utility.yul\":21911:21945   */\n      0x43616e6e6f74206372656174652076657374696e67207363686564756c653a20\n        /* \"#utility.yul\":21907:21908   */\n      0x00\n        /* \"#utility.yul\":21899:21905   */\n      dup3\n        /* \"#utility.yul\":21895:21909   */\n      add\n        /* \"#utility.yul\":21888:21946   */\n      mstore\n        /* \"#utility.yul\":21980:22001   */\n      0x696e73756666696369656e7420746f6b656e7300000000000000000000000000\n        /* \"#utility.yul\":21975:21977   */\n      0x20\n        /* \"#utility.yul\":21967:21973   */\n      dup3\n        /* \"#utility.yul\":21963:21978   */\n      add\n        /* \"#utility.yul\":21956:22002   */\n      mstore\n        /* \"#utility.yul\":21771:22009   */\n      pop\n      jump\t// out\n        /* \"#utility.yul\":22015:22381   */\n    tag_373:\n        /* \"#utility.yul\":22157:22160   */\n      0x00\n        /* \"#utility.yul\":22178:22245   */\n      tag_589\n        /* \"#utility.yul\":22242:22244   */\n      0x33\n        /* \"#utility.yul\":22237:22240   */\n      dup4\n        /* \"#utility.yul\":22178:22245   */\n      tag_361\n      jump\t// in\n    tag_589:\n        /* \"#utility.yul\":22171:22245   */\n      swap2\n      pop\n        /* \"#utility.yul\":22254:22347   */\n      tag_590\n        /* \"#utility.yul\":22343:22346   */\n      dup3\n        /* \"#utility.yul\":22254:22347   */\n      tag_372\n      jump\t// in\n    tag_590:\n        /* \"#utility.yul\":22372:22374   */\n      0x40\n        /* \"#utility.yul\":22367:22370   */\n      dup3\n        /* \"#utility.yul\":22363:22375   */\n      add\n        /* \"#utility.yul\":22356:22375   */\n      swap1\n      pop\n        /* \"#utility.yul\":22015:22381   */\n      swap2\n      swap1\n      pop\n      jump\t// out\n        /* \"#utility.yul\":22387:22806   */\n    tag_154:\n        /* \"#utility.yul\":22553:22557   */\n      0x00\n        /* \"#utility.yul\":22591:22593   */\n      0x20\n        /* \"#utility.yul\":22580:22589   */\n      dup3\n        /* \"#utility.yul\":22576:22594   */\n      add\n        /* \"#utility.yul\":22568:22594   */\n      swap1\n      pop\n        /* \"#utility.yul\":22640:22649   */\n      dup2\n        /* \"#utility.yul\":22634:22638   */\n      dup2\n        /* \"#utility.yul\":22630:22650   */\n      sub\n        /* \"#utility.yul\":22626:22627   */\n      0x00\n        /* \"#utility.yul\":22615:22624   */\n      dup4\n        /* \"#utility.yul\":22611:22628   */\n      add\n        /* \"#utility.yul\":22604:22651   */\n      mstore\n        /* \"#utility.yul\":22668:22799   */\n      tag_592\n        /* \"#utility.yul\":22794:22798   */\n      dup2\n        /* \"#utility.yul\":22668:22799   */\n      tag_373\n      jump\t// in\n    tag_592:\n        /* \"#utility.yul\":22660:22799   */\n      swap1\n      pop\n        /* \"#utility.yul\":22387:22806   */\n      swap2\n      swap1\n      pop\n      jump\t// out\n        /* \"#utility.yul\":22812:23003   */\n    tag_157:\n        /* \"#utility.yul\":22852:22855   */\n      0x00\n        /* \"#utility.yul\":22871:22891   */\n      tag_594\n        /* \"#utility.yul\":22889:22890   */\n      dup3\n        /* \"#utility.yul\":22871:22891   */\n      tag_333\n      jump\t// in\n    tag_594:\n        /* \"#utility.yul\":22866:22891   */\n      swap2\n      pop\n        /* \"#utility.yul\":22905:22925   */\n      tag_595\n        /* \"#utility.yul\":22923:22924   */\n      dup4\n        /* \"#utility.yul\":22905:22925   */\n      tag_333\n      jump\t// in\n    tag_595:\n        /* \"#utility.yul\":22900:22925   */\n      swap3\n      pop\n        /* \"#utility.yul\":22948:22949   */\n      dup3\n        /* \"#utility.yul\":22945:22946   */\n      dup3\n        /* \"#utility.yul\":22941:22950   */\n      add\n        /* \"#utility.yul\":22934:22950   */\n      swap1\n      pop\n        /* \"#utility.yul\":22969:22972   */\n      dup1\n        /* \"#utility.yul\":22966:22967   */\n      dup3\n        /* \"#utility.yul\":22963:22973   */\n      gt\n        /* \"#utility.yul\":22960:22996   */\n      iszero\n      tag_596\n      jumpi\n        /* \"#utility.yul\":22976:22994   */\n      tag_597\n      tag_360\n      jump\t// in\n    tag_597:\n        /* \"#utility.yul\":22960:22996   */\n    tag_596:\n        /* \"#utility.yul\":22812:23003   */\n      swap3\n      swap2\n      pop\n      pop\n      jump\t// out\n        /* \"#utility.yul\":23009:23772   */\n    tag_162:\n        /* \"#utility.yul\":23236:23240   */\n      0x00\n        /* \"#utility.yul\":23274:23277   */\n      0xc0\n        /* \"#utility.yul\":23263:23272   */\n      dup3\n        /* \"#utility.yul\":23259:23278   */\n      add\n        /* \"#utility.yul\":23251:23278   */\n      swap1\n      pop\n        /* \"#utility.yul\":23288:23359   */\n      tag_599\n        /* \"#utility.yul\":23356:23357   */\n      0x00\n        /* \"#utility.yul\":23345:23354   */\n      dup4\n        /* \"#utility.yul\":23341:23358   */\n      add\n        /* \"#utility.yul\":23332:23338   */\n      dup10\n        /* \"#utility.yul\":23288:23359   */\n      tag_349\n      jump\t// in\n    tag_599:\n        /* \"#utility.yul\":23369:23441   */\n      tag_600\n        /* \"#utility.yul\":23437:23439   */\n      0x20\n        /* \"#utility.yul\":23426:23435   */\n      dup4\n        /* \"#utility.yul\":23422:23440   */\n      add\n        /* \"#utility.yul\":23413:23419   */\n      dup9\n        /* \"#utility.yul\":23369:23441   */\n      tag_349\n      jump\t// in\n    tag_600:\n        /* \"#utility.yul\":23451:23523   */\n      tag_601\n        /* \"#utility.yul\":23519:23521   */\n      0x40\n        /* \"#utility.yul\":23508:23517   */\n      dup4\n        /* \"#utility.yul\":23504:23522   */\n      add\n        /* \"#utility.yul\":23495:23501   */\n      dup8\n        /* \"#utility.yul\":23451:23523   */\n      tag_349\n      jump\t// in\n    tag_601:\n        /* \"#utility.yul\":23533:23605   */\n      tag_602\n        /* \"#utility.yul\":23601:23603   */\n      0x60\n        /* \"#utility.yul\":23590:23599   */\n      dup4\n        /* \"#utility.yul\":23586:23604   */\n      add\n        /* \"#utility.yul\":23577:23583   */\n      dup7\n        /* \"#utility.yul\":23533:23605   */\n      tag_349\n      jump\t// in\n    tag_602:\n        /* \"#utility.yul\":23615:23682   */\n      tag_603\n        /* \"#utility.yul\":23677:23680   */\n      0x80\n        /* \"#utility.yul\":23666:23675   */\n      dup4\n        /* \"#utility.yul\":23662:23681   */\n      add\n        /* \"#utility.yul\":23653:23659   */\n      dup6\n        /* \"#utility.yul\":23615:23682   */\n      tag_352\n      jump\t// in\n    tag_603:\n        /* \"#utility.yul\":23692:23765   */\n      tag_604\n        /* \"#utility.yul\":23760:23763   */\n      0xa0\n        /* \"#utility.yul\":23749:23758   */\n      dup4\n        /* \"#utility.yul\":23745:23764   */\n      add\n        /* \"#utility.yul\":23736:23742   */\n      dup5\n        /* \"#utility.yul\":23692:23765   */\n      tag_349\n      jump\t// in\n    tag_604:\n        /* \"#utility.yul\":23009:23772   */\n      swap8\n      swap7\n      pop\n      pop\n      pop\n      pop\n      pop\n      pop\n      pop\n      jump\t// out\n        /* \"#utility.yul\":23778:23958   */\n    tag_166:\n        /* \"#utility.yul\":23826:23903   */\n      0x4e487b7100000000000000000000000000000000000000000000000000000000\n        /* \"#utility.yul\":23823:23824   */\n      0x00\n        /* \"#utility.yul\":23816:23904   */\n      mstore\n        /* \"#utility.yul\":23923:23927   */\n      0x41\n        /* \"#utility.yul\":23920:23921   */\n      0x04\n        /* \"#utility.yul\":23913:23928   */\n      mstore\n        /* \"#utility.yul\":23947:23951   */\n      0x24\n        /* \"#utility.yul\":23944:23945   */\n      0x00\n        /* \"#utility.yul\":23937:23952   */\n      revert\n        /* \"#utility.yul\":23964:24144   */\n    tag_177:\n        /* \"#utility.yul\":24012:24089   */\n      0x4e487b7100000000000000000000000000000000000000000000000000000000\n        /* \"#utility.yul\":24009:24010   */\n      0x00\n        /* \"#utility.yul\":24002:24090   */\n      mstore\n        /* \"#utility.yul\":24109:24113   */\n      0x32\n        /* \"#utility.yul\":24106:24107   */\n      0x04\n        /* \"#utility.yul\":24099:24114   */\n      mstore\n        /* \"#utility.yul\":24133:24137   */\n      0x24\n        /* \"#utility.yul\":24130:24131   */\n      0x00\n        /* \"#utility.yul\":24123:24138   */\n      revert\n        /* \"#utility.yul\":24150:24329   */\n    tag_374:\n        /* \"#utility.yul\":24290:24321   */\n      0x4e6f7420656e6f75676820776974686472617761626c652066756e6473000000\n        /* \"#utility.yul\":24286:24287   */\n      0x00\n        /* \"#utility.yul\":24278:24284   */\n      dup3\n        /* \"#utility.yul\":24274:24288   */\n      add\n        /* \"#utility.yul\":24267:24322   */\n      mstore\n        /* \"#utility.yul\":24150:24329   */\n      pop\n      jump\t// out\n        /* \"#utility.yul\":24335:24701   */\n    tag_375:\n        /* \"#utility.yul\":24477:24480   */\n      0x00\n        /* \"#utility.yul\":24498:24565   */\n      tag_609\n        /* \"#utility.yul\":24562:24564   */\n      0x1d\n        /* \"#utility.yul\":24557:24560   */\n      dup4\n        /* \"#utility.yul\":24498:24565   */\n      tag_361\n      jump\t// in\n    tag_609:\n        /* \"#utility.yul\":24491:24565   */\n      swap2\n      pop\n        /* \"#utility.yul\":24574:24667   */\n      tag_610\n        /* \"#utility.yul\":24663:24666   */\n      dup3\n        /* \"#utility.yul\":24574:24667   */\n      tag_374\n      jump\t// in\n    tag_610:\n        /* \"#utility.yul\":24692:24694   */\n      0x20\n        /* \"#utility.yul\":24687:24690   */\n      dup3\n        /* \"#utility.yul\":24683:24695   */\n      add\n        /* \"#utility.yul\":24676:24695   */\n      swap1\n      pop\n        /* \"#utility.yul\":24335:24701   */\n      swap2\n      swap1\n      pop\n      jump\t// out\n        /* \"#utility.yul\":24707:25126   */\n    tag_184:\n        /* \"#utility.yul\":24873:24877   */\n      0x00\n        /* \"#utility.yul\":24911:24913   */\n      0x20\n        /* \"#utility.yul\":24900:24909   */\n      dup3\n        /* \"#utility.yul\":24896:24914   */\n      add\n        /* \"#utility.yul\":24888:24914   */\n      swap1\n      pop\n        /* \"#utility.yul\":24960:24969   */\n      dup2\n        /* \"#utility.yul\":24954:24958   */\n      dup2\n        /* \"#utility.yul\":24950:24970   */\n      sub\n        /* \"#utility.yul\":24946:24947   */\n      0x00\n        /* \"#utility.yul\":24935:24944   */\n      dup4\n        /* \"#utility.yul\":24931:24948   */\n      add\n        /* \"#utility.yul\":24924:24971   */\n      mstore\n        /* \"#utility.yul\":24988:25119   */\n      tag_612\n        /* \"#utility.yul\":25114:25118   */\n      dup2\n        /* \"#utility.yul\":24988:25119   */\n      tag_375\n      jump\t// in\n    tag_612:\n        /* \"#utility.yul\":24980:25119   */\n      swap1\n      pop\n        /* \"#utility.yul\":24707:25126   */\n      swap2\n      swap1\n      pop\n      jump\t// out\n        /* \"#utility.yul\":25132:25308   */\n    tag_376:\n        /* \"#utility.yul\":25272:25300   */\n      0x56657374696e67207363686564756c65206e6f7420666f756e64000000000000\n        /* \"#utility.yul\":25268:25269   */\n      0x00\n        /* \"#utility.yul\":25260:25266   */\n      dup3\n        /* \"#utility.yul\":25256:25270   */\n      add\n        /* \"#utility.yul\":25249:25301   */\n      mstore\n        /* \"#utility.yul\":25132:25308   */\n      pop\n      jump\t// out\n        /* \"#utility.yul\":25314:25680   */\n    tag_377:\n        /* \"#utility.yul\":25456:25459   */\n      0x00\n        /* \"#utility.yul\":25477:25544   */\n      tag_615\n        /* \"#utility.yul\":25541:25543   */\n      0x1a\n        /* \"#utility.yul\":25536:25539   */\n      dup4\n        /* \"#utility.yul\":25477:25544   */\n      tag_361\n      jump\t// in\n    tag_615:\n        /* \"#utility.yul\":25470:25544   */\n      swap2\n      pop\n        /* \"#utility.yul\":25553:25646   */\n      tag_616\n        /* \"#utility.yul\":25642:25645   */\n      dup3\n        /* \"#utility.yul\":25553:25646   */\n      tag_376\n      jump\t// in\n    tag_616:\n        /* \"#utility.yul\":25671:25673   */\n      0x20\n        /* \"#utility.yul\":25666:25669   */\n      dup3\n        /* \"#utility.yul\":25662:25674   */\n      add\n        /* \"#utility.yul\":25655:25674   */\n      swap1\n      pop\n        /* \"#utility.yul\":25314:25680   */\n      swap2\n      swap1\n      pop\n      jump\t// out\n        /* \"#utility.yul\":25686:26105   */\n    tag_207:\n        /* \"#utility.yul\":25852:25856   */\n      0x00\n        /* \"#utility.yul\":25890:25892   */\n      0x20\n        /* \"#utility.yul\":25879:25888   */\n      dup3\n        /* \"#utility.yul\":25875:25893   */\n      add\n        /* \"#utility.yul\":25867:25893   */\n      swap1\n      pop\n        /* \"#utility.yul\":25939:25948   */\n      dup2\n        /* \"#utility.yul\":25933:25937   */\n      dup2\n        /* \"#utility.yul\":25929:25949   */\n      sub\n        /* \"#utility.yul\":25925:25926   */\n      0x00\n        /* \"#utility.yul\":25914:25923   */\n      dup4\n        /* \"#utility.yul\":25910:25927   */\n      add\n        /* \"#utility.yul\":25903:25950   */\n      mstore\n        /* \"#utility.yul\":25967:26098   */\n      tag_618\n        /* \"#utility.yul\":26093:26097   */\n      dup2\n        /* \"#utility.yul\":25967:26098   */\n      tag_377\n      jump\t// in\n    tag_618:\n        /* \"#utility.yul\":25959:26098   */\n      swap1\n      pop\n        /* \"#utility.yul\":25686:26105   */\n      swap2\n      swap1\n      pop\n      jump\t// out\n        /* \"#utility.yul\":26111:26349   */\n    tag_378:\n        /* \"#utility.yul\":26251:26285   */\n      0x4f6e6c792062656e6566696369617279206f72206f776e65722063616e207265\n        /* \"#utility.yul\":26247:26248   */\n      0x00\n        /* \"#utility.yul\":26239:26245   */\n      dup3\n        /* \"#utility.yul\":26235:26249   */\n      add\n        /* \"#utility.yul\":26228:26286   */\n      mstore\n        /* \"#utility.yul\":26320:26341   */\n      0x6c656173652076657374656420746f6b656e7300000000000000000000000000\n        /* \"#utility.yul\":26315:26317   */\n      0x20\n        /* \"#utility.yul\":26307:26313   */\n      dup3\n        /* \"#utility.yul\":26303:26318   */\n      add\n        /* \"#utility.yul\":26296:26342   */\n      mstore\n        /* \"#utility.yul\":26111:26349   */\n      pop\n      jump\t// out\n        /* \"#utility.yul\":26355:26721   */\n    tag_379:\n        /* \"#utility.yul\":26497:26500   */\n      0x00\n        /* \"#utility.yul\":26518:26585   */\n      tag_621\n        /* \"#utility.yul\":26582:26584   */\n      0x33\n        /* \"#utility.yul\":26577:26580   */\n      dup4\n        /* \"#utility.yul\":26518:26585   */\n      tag_361\n      jump\t// in\n    tag_621:\n        /* \"#utility.yul\":26511:26585   */\n      swap2\n      pop\n        /* \"#utility.yul\":26594:26687   */\n      tag_622\n        /* \"#utility.yul\":26683:26686   */\n      dup3\n        /* \"#utility.yul\":26594:26687   */\n      tag_378\n      jump\t// in\n    tag_622:\n        /* \"#utility.yul\":26712:26714   */\n      0x40\n        /* \"#utility.yul\":26707:26710   */\n      dup3\n        /* \"#utility.yul\":26703:26715   */\n      add\n        /* \"#utility.yul\":26696:26715   */\n      swap1\n      pop\n        /* \"#utility.yul\":26355:26721   */\n      swap2\n      swap1\n      pop\n      jump\t// out\n        /* \"#utility.yul\":26727:27146   */\n    tag_212:\n        /* \"#utility.yul\":26893:26897   */\n      0x00\n        /* \"#utility.yul\":26931:26933   */\n      0x20\n        /* \"#utility.yul\":26920:26929   */\n      dup3\n        /* \"#utility.yul\":26916:26934   */\n      add\n        /* \"#utility.yul\":26908:26934   */\n      swap1\n      pop\n        /* \"#utility.yul\":26980:26989   */\n      dup2\n        /* \"#utility.yul\":26974:26978   */\n      dup2\n        /* \"#utility.yul\":26970:26990   */\n      sub\n        /* \"#utility.yul\":26966:26967   */\n      0x00\n        /* \"#utility.yul\":26955:26964   */\n      dup4\n        /* \"#utility.yul\":26951:26968   */\n      add\n        /* \"#utility.yul\":26944:26991   */\n      mstore\n        /* \"#utility.yul\":27008:27139   */\n      tag_624\n        /* \"#utility.yul\":27134:27138   */\n      dup2\n        /* \"#utility.yul\":27008:27139   */\n      tag_379\n      jump\t// in\n    tag_624:\n        /* \"#utility.yul\":27000:27139   */\n      swap1\n      pop\n        /* \"#utility.yul\":26727:27146   */\n      swap2\n      swap1\n      pop\n      jump\t// out\n        /* \"#utility.yul\":27152:27377   */\n    tag_380:\n        /* \"#utility.yul\":27292:27326   */\n      0x43616e6e6f742072656c65617365206d6f7265207468616e2076657374656420\n        /* \"#utility.yul\":27288:27289   */\n      0x00\n        /* \"#utility.yul\":27280:27286   */\n      dup3\n        /* \"#utility.yul\":27276:27290   */\n      add\n        /* \"#utility.yul\":27269:27327   */\n      mstore\n        /* \"#utility.yul\":27361:27369   */\n      0x616d6f756e740000000000000000000000000000000000000000000000000000\n        /* \"#utility.yul\":27356:27358   */\n      0x20\n        /* \"#utility.yul\":27348:27354   */\n      dup3\n        /* \"#utility.yul\":27344:27359   */\n      add\n        /* \"#utility.yul\":27337:27370   */\n      mstore\n        /* \"#utility.yul\":27152:27377   */\n      pop\n      jump\t// out\n        /* \"#utility.yul\":27383:27749   */\n    tag_381:\n        /* \"#utility.yul\":27525:27528   */\n      0x00\n        /* \"#utility.yul\":27546:27613   */\n      tag_627\n        /* \"#utility.yul\":27610:27612   */\n      0x26\n        /* \"#utility.yul\":27605:27608   */\n      dup4\n        /* \"#utility.yul\":27546:27613   */\n      tag_361\n      jump\t// in\n    tag_627:\n        /* \"#utility.yul\":27539:27613   */\n      swap2\n      pop\n        /* \"#utility.yul\":27622:27715   */\n      tag_628\n        /* \"#utility.yul\":27711:27714   */\n      dup3\n        /* \"#utility.yul\":27622:27715   */\n      tag_380\n      jump\t// in\n    tag_628:\n        /* \"#utility.yul\":27740:27742   */\n      0x40\n        /* \"#utility.yul\":27735:27738   */\n      dup3\n        /* \"#utility.yul\":27731:27743   */\n      add\n        /* \"#utility.yul\":27724:27743   */\n      swap1\n      pop\n        /* \"#utility.yul\":27383:27749   */\n      swap2\n      swap1\n      pop\n      jump\t// out\n        /* \"#utility.yul\":27755:28174   */\n    tag_216:\n        /* \"#utility.yul\":27921:27925   */\n      0x00\n        /* \"#utility.yul\":27959:27961   */\n      0x20\n        /* \"#utility.yul\":27948:27957   */\n      dup3\n        /* \"#utility.yul\":27944:27962   */\n      add\n        /* \"#utility.yul\":27936:27962   */\n      swap1\n      pop\n        /* \"#utility.yul\":28008:28017   */\n      dup2\n        /* \"#utility.yul\":28002:28006   */\n      dup2\n        /* \"#utility.yul\":27998:28018   */\n      sub\n        /* \"#utility.yul\":27994:27995   */\n      0x00\n        /* \"#utility.yul\":27983:27992   */\n      dup4\n        /* \"#utility.yul\":27979:27996   */\n      add\n        /* \"#utility.yul\":27972:28019   */\n      mstore\n        /* \"#utility.yul\":28036:28167   */\n      tag_630\n        /* \"#utility.yul\":28162:28166   */\n      dup2\n        /* \"#utility.yul\":28036:28167   */\n      tag_381\n      jump\t// in\n    tag_630:\n        /* \"#utility.yul\":28028:28167   */\n      swap1\n      pop\n        /* \"#utility.yul\":27755:28174   */\n      swap2\n      swap1\n      pop\n      jump\t// out\n        /* \"#utility.yul\":28180:28274   */\n    tag_382:\n        /* \"#utility.yul\":28213:28221   */\n      0x00\n        /* \"#utility.yul\":28261:28266   */\n      dup2\n        /* \"#utility.yul\":28257:28259   */\n      0x60\n        /* \"#utility.yul\":28253:28267   */\n      shl\n        /* \"#utility.yul\":28232:28267   */\n      swap1\n      pop\n        /* \"#utility.yul\":28180:28274   */\n      swap2\n      swap1\n      pop\n      jump\t// out\n        /* \"#utility.yul\":28280:28374   */\n    tag_383:\n        /* \"#utility.yul\":28319:28326   */\n      0x00\n        /* \"#utility.yul\":28348:28368   */\n      tag_633\n        /* \"#utility.yul\":28362:28367   */\n      dup3\n        /* \"#utility.yul\":28348:28368   */\n      tag_382\n      jump\t// in\n    tag_633:\n        /* \"#utility.yul\":28337:28368   */\n      swap1\n      pop\n        /* \"#utility.yul\":28280:28374   */\n      swap2\n      swap1\n      pop\n      jump\t// out\n        /* \"#utility.yul\":28380:28480   */\n    tag_384:\n        /* \"#utility.yul\":28419:28426   */\n      0x00\n        /* \"#utility.yul\":28448:28474   */\n      tag_635\n        /* \"#utility.yul\":28468:28473   */\n      dup3\n        /* \"#utility.yul\":28448:28474   */\n      tag_383\n      jump\t// in\n    tag_635:\n        /* \"#utility.yul\":28437:28474   */\n      swap1\n      pop\n        /* \"#utility.yul\":28380:28480   */\n      swap2\n      swap1\n      pop\n      jump\t// out\n        /* \"#utility.yul\":28486:28643   */\n    tag_385:\n        /* \"#utility.yul\":28591:28636   */\n      tag_637\n        /* \"#utility.yul\":28611:28635   */\n      tag_638\n        /* \"#utility.yul\":28629:28634   */\n      dup3\n        /* \"#utility.yul\":28611:28635   */\n      tag_328\n      jump\t// in\n    tag_638:\n        /* \"#utility.yul\":28591:28636   */\n      tag_384\n      jump\t// in\n    tag_637:\n        /* \"#utility.yul\":28586:28589   */\n      dup3\n        /* \"#utility.yul\":28579:28637   */\n      mstore\n        /* \"#utility.yul\":28486:28643   */\n      pop\n      pop\n      jump\t// out\n        /* \"#utility.yul\":28649:28728   */\n    tag_386:\n        /* \"#utility.yul\":28688:28695   */\n      0x00\n        /* \"#utility.yul\":28717:28722   */\n      dup2\n        /* \"#utility.yul\":28706:28722   */\n      swap1\n      pop\n        /* \"#utility.yul\":28649:28728   */\n      swap2\n      swap1\n      pop\n      jump\t// out\n        /* \"#utility.yul\":28734:28891   */\n    tag_387:\n        /* \"#utility.yul\":28839:28884   */\n      tag_641\n        /* \"#utility.yul\":28859:28883   */\n      tag_642\n        /* \"#utility.yul\":28877:28882   */\n      dup3\n        /* \"#utility.yul\":28859:28883   */\n      tag_333\n      jump\t// in\n    tag_642:\n        /* \"#utility.yul\":28839:28884   */\n      tag_386\n      jump\t// in\n    tag_641:\n        /* \"#utility.yul\":28834:28837   */\n      dup3\n        /* \"#utility.yul\":28827:28885   */\n      mstore\n        /* \"#utility.yul\":28734:28891   */\n      pop\n      pop\n      jump\t// out\n        /* \"#utility.yul\":28897:29294   */\n    tag_233:\n        /* \"#utility.yul\":29037:29040   */\n      0x00\n        /* \"#utility.yul\":29052:29127   */\n      tag_644\n        /* \"#utility.yul\":29123:29126   */\n      dup3\n        /* \"#utility.yul\":29114:29120   */\n      dup6\n        /* \"#utility.yul\":29052:29127   */\n      tag_385\n      jump\t// in\n    tag_644:\n        /* \"#utility.yul\":29152:29154   */\n      0x14\n        /* \"#utility.yul\":29147:29150   */\n      dup3\n        /* \"#utility.yul\":29143:29155   */\n      add\n        /* \"#utility.yul\":29136:29155   */\n      swap2\n      pop\n        /* \"#utility.yul\":29165:29240   */\n      tag_645\n        /* \"#utility.yul\":29236:29239   */\n      dup3\n        /* \"#utility.yul\":29227:29233   */\n      dup5\n        /* \"#utility.yul\":29165:29240   */\n      tag_387\n      jump\t// in\n    tag_645:\n        /* \"#utility.yul\":29265:29267   */\n      0x20\n        /* \"#utility.yul\":29260:29263   */\n      dup3\n        /* \"#utility.yul\":29256:29268   */\n      add\n        /* \"#utility.yul\":29249:29268   */\n      swap2\n      pop\n        /* \"#utility.yul\":29285:29288   */\n      dup2\n        /* \"#utility.yul\":29278:29288   */\n      swap1\n      pop\n        /* \"#utility.yul\":28897:29294   */\n      swap4\n      swap3\n      pop\n      pop\n      pop\n      jump\t// out\n        /* \"#utility.yul\":29300:29443   */\n    tag_388:\n        /* \"#utility.yul\":29357:29362   */\n      0x00\n        /* \"#utility.yul\":29388:29394   */\n      dup2\n        /* \"#utility.yul\":29382:29395   */\n      mload\n        /* \"#utility.yul\":29373:29395   */\n      swap1\n      pop\n        /* \"#utility.yul\":29404:29437   */\n      tag_647\n        /* \"#utility.yul\":29431:29436   */\n      dup2\n        /* \"#utility.yul\":29404:29437   */\n      tag_334\n      jump\t// in\n    tag_647:\n        /* \"#utility.yul\":29300:29443   */\n      swap3\n      swap2\n      pop\n      pop\n      jump\t// out\n        /* \"#utility.yul\":29449:29800   */\n    tag_240:\n        /* \"#utility.yul\":29519:29525   */\n      0x00\n        /* \"#utility.yul\":29568:29570   */\n      0x20\n        /* \"#utility.yul\":29556:29565   */\n      dup3\n        /* \"#utility.yul\":29547:29554   */\n      dup5\n        /* \"#utility.yul\":29543:29566   */\n      sub\n        /* \"#utility.yul\":29539:29571   */\n      slt\n        /* \"#utility.yul\":29536:29655   */\n      iszero\n      tag_649\n      jumpi\n        /* \"#utility.yul\":29574:29653   */\n      tag_650\n      tag_325\n      jump\t// in\n    tag_650:\n        /* \"#utility.yul\":29536:29655   */\n    tag_649:\n        /* \"#utility.yul\":29694:29695   */\n      0x00\n        /* \"#utility.yul\":29719:29783   */\n      tag_651\n        /* \"#utility.yul\":29775:29782   */\n      dup5\n        /* \"#utility.yul\":29766:29772   */\n      dup3\n        /* \"#utility.yul\":29755:29764   */\n      dup6\n        /* \"#utility.yul\":29751:29773   */\n      add\n        /* \"#utility.yul\":29719:29783   */\n      tag_388\n      jump\t// in\n    tag_651:\n        /* \"#utility.yul\":29709:29783   */\n      swap2\n      pop\n        /* \"#utility.yul\":29665:29793   */\n      pop\n        /* \"#utility.yul\":29449:29800   */\n      swap3\n      swap2\n      pop\n      pop\n      jump\t// out\n        /* \"#utility.yul\":29806:29986   */\n    tag_389:\n        /* \"#utility.yul\":29946:29978   */\n      0x56657374696e67207363686564756c65206e6f74207265766f6361626c650000\n        /* \"#utility.yul\":29942:29943   */\n      0x00\n        /* \"#utility.yul\":29934:29940   */\n      dup3\n        /* \"#utility.yul\":29930:29944   */\n      add\n        /* \"#utility.yul\":29923:29979   */\n      mstore\n        /* \"#utility.yul\":29806:29986   */\n      pop\n      jump\t// out\n        /* \"#utility.yul\":29992:30358   */\n    tag_390:\n        /* \"#utility.yul\":30134:30137   */\n      0x00\n        /* \"#utility.yul\":30155:30222   */\n      tag_654\n        /* \"#utility.yul\":30219:30221   */\n      0x1e\n        /* \"#utility.yul\":30214:30217   */\n      dup4\n        /* \"#utility.yul\":30155:30222   */\n      tag_361\n      jump\t// in\n    tag_654:\n        /* \"#utility.yul\":30148:30222   */\n      swap2\n      pop\n        /* \"#utility.yul\":30231:30324   */\n      tag_655\n        /* \"#utility.yul\":30320:30323   */\n      dup3\n        /* \"#utility.yul\":30231:30324   */\n      tag_389\n      jump\t// in\n    tag_655:\n        /* \"#utility.yul\":30349:30351   */\n      0x20\n        /* \"#utility.yul\":30344:30347   */\n      dup3\n        /* \"#utility.yul\":30340:30352   */\n      add\n        /* \"#utility.yul\":30333:30352   */\n      swap1\n      pop\n        /* \"#utility.yul\":29992:30358   */\n      swap2\n      swap1\n      pop\n      jump\t// out\n        /* \"#utility.yul\":30364:30783   */\n    tag_251:\n        /* \"#utility.yul\":30530:30534   */\n      0x00\n        /* \"#utility.yul\":30568:30570   */\n      0x20\n        /* \"#utility.yul\":30557:30566   */\n      dup3\n        /* \"#utility.yul\":30553:30571   */\n      add\n        /* \"#utility.yul\":30545:30571   */\n      swap1\n      pop\n        /* \"#utility.yul\":30617:30626   */\n      dup2\n        /* \"#utility.yul\":30611:30615   */\n      dup2\n        /* \"#utility.yul\":30607:30627   */\n      sub\n        /* \"#utility.yul\":30603:30604   */\n      0x00\n        /* \"#utility.yul\":30592:30601   */\n      dup4\n        /* \"#utility.yul\":30588:30605   */\n      add\n        /* \"#utility.yul\":30581:30628   */\n      mstore\n        /* \"#utility.yul\":30645:30776   */\n      tag_657\n        /* \"#utility.yul\":30771:30775   */\n      dup2\n        /* \"#utility.yul\":30645:30776   */\n      tag_390\n      jump\t// in\n    tag_657:\n        /* \"#utility.yul\":30637:30776   */\n      swap1\n      pop\n        /* \"#utility.yul\":30364:30783   */\n      swap2\n      swap1\n      pop\n      jump\t// out\n        /* \"#utility.yul\":30789:30971   */\n    tag_391:\n        /* \"#utility.yul\":30929:30963   */\n      0x56657374696e67207363686564756c6520616c7265616479207265766f6b6564\n        /* \"#utility.yul\":30925:30926   */\n      0x00\n        /* \"#utility.yul\":30917:30923   */\n      dup3\n        /* \"#utility.yul\":30913:30927   */\n      add\n        /* \"#utility.yul\":30906:30964   */\n      mstore\n        /* \"#utility.yul\":30789:30971   */\n      pop\n      jump\t// out\n        /* \"#utility.yul\":30977:31343   */\n    tag_392:\n        /* \"#utility.yul\":31119:31122   */\n      0x00\n        /* \"#utility.yul\":31140:31207   */\n      tag_660\n        /* \"#utility.yul\":31204:31206   */\n      0x20\n        /* \"#utility.yul\":31199:31202   */\n      dup4\n        /* \"#utility.yul\":31140:31207   */\n      tag_361\n      jump\t// in\n    tag_660:\n        /* \"#utility.yul\":31133:31207   */\n      swap2\n      pop\n        /* \"#utility.yul\":31216:31309   */\n      tag_661\n        /* \"#utility.yul\":31305:31308   */\n      dup3\n        /* \"#utility.yul\":31216:31309   */\n      tag_391\n      jump\t// in\n    tag_661:\n        /* \"#utility.yul\":31334:31336   */\n      0x20\n        /* \"#utility.yul\":31329:31332   */\n      dup3\n        /* \"#utility.yul\":31325:31337   */\n      add\n        /* \"#utility.yul\":31318:31337   */\n      swap1\n      pop\n        /* \"#utility.yul\":30977:31343   */\n      swap2\n      swap1\n      pop\n      jump\t// out\n        /* \"#utility.yul\":31349:31768   */\n    tag_254:\n        /* \"#utility.yul\":31515:31519   */\n      0x00\n        /* \"#utility.yul\":31553:31555   */\n      0x20\n        /* \"#utility.yul\":31542:31551   */\n      dup3\n        /* \"#utility.yul\":31538:31556   */\n      add\n        /* \"#utility.yul\":31530:31556   */\n      swap1\n      pop\n        /* \"#utility.yul\":31602:31611   */\n      dup2\n        /* \"#utility.yul\":31596:31600   */\n      dup2\n        /* \"#utility.yul\":31592:31612   */\n      sub\n        /* \"#utility.yul\":31588:31589   */\n      0x00\n        /* \"#utility.yul\":31577:31586   */\n      dup4\n        /* \"#utility.yul\":31573:31590   */\n      add\n        /* \"#utility.yul\":31566:31613   */\n      mstore\n        /* \"#utility.yul\":31630:31761   */\n      tag_663\n        /* \"#utility.yul\":31756:31760   */\n      dup2\n        /* \"#utility.yul\":31630:31761   */\n      tag_392\n      jump\t// in\n    tag_663:\n        /* \"#utility.yul\":31622:31761   */\n      swap1\n      pop\n        /* \"#utility.yul\":31349:31768   */\n      swap2\n      swap1\n      pop\n      jump\t// out\n        /* \"#utility.yul\":31774:31943   */\n    tag_393:\n        /* \"#utility.yul\":31914:31935   */\n      0x496e646578206f7574206f6620626f756e647300000000000000000000000000\n        /* \"#utility.yul\":31910:31911   */\n      0x00\n        /* \"#utility.yul\":31902:31908   */\n      dup3\n        /* \"#utility.yul\":31898:31912   */\n      add\n        /* \"#utility.yul\":31891:31936   */\n      mstore\n        /* \"#utility.yul\":31774:31943   */\n      pop\n      jump\t// out\n        /* \"#utility.yul\":31949:32315   */\n    tag_394:\n        /* \"#utility.yul\":32091:32094   */\n      0x00\n        /* \"#utility.yul\":32112:32179   */\n      tag_666\n        /* \"#utility.yul\":32176:32178   */\n      0x13\n        /* \"#utility.yul\":32171:32174   */\n      dup4\n        /* \"#utility.yul\":32112:32179   */\n      tag_361\n      jump\t// in\n    tag_666:\n        /* \"#utility.yul\":32105:32179   */\n      swap2\n      pop\n        /* \"#utility.yul\":32188:32281   */\n      tag_667\n        /* \"#utility.yul\":32277:32280   */\n      dup3\n        /* \"#utility.yul\":32188:32281   */\n      tag_393\n      jump\t// in\n    tag_667:\n        /* \"#utility.yul\":32306:32308   */\n      0x20\n        /* \"#utility.yul\":32301:32304   */\n      dup3\n        /* \"#utility.yul\":32297:32309   */\n      add\n        /* \"#utility.yul\":32290:32309   */\n      swap1\n      pop\n        /* \"#utility.yul\":31949:32315   */\n      swap2\n      swap1\n      pop\n      jump\t// out\n        /* \"#utility.yul\":32321:32740   */\n    tag_278:\n        /* \"#utility.yul\":32487:32491   */\n      0x00\n        /* \"#utility.yul\":32525:32527   */\n      0x20\n        /* \"#utility.yul\":32514:32523   */\n      dup3\n        /* \"#utility.yul\":32510:32528   */\n      add\n        /* \"#utility.yul\":32502:32528   */\n      swap1\n      pop\n        /* \"#utility.yul\":32574:32583   */\n      dup2\n        /* \"#utility.yul\":32568:32572   */\n      dup2\n        /* \"#utility.yul\":32564:32584   */\n      sub\n        /* \"#utility.yul\":32560:32561   */\n      0x00\n        /* \"#utility.yul\":32549:32558   */\n      dup4\n        /* \"#utility.yul\":32545:32562   */\n      add\n        /* \"#utility.yul\":32538:32585   */\n      mstore\n        /* \"#utility.yul\":32602:32733   */\n      tag_669\n        /* \"#utility.yul\":32728:32732   */\n      dup2\n        /* \"#utility.yul\":32602:32733   */\n      tag_394\n      jump\t// in\n    tag_669:\n        /* \"#utility.yul\":32594:32733   */\n      swap1\n      pop\n        /* \"#utility.yul\":32321:32740   */\n      swap2\n      swap1\n      pop\n      jump\t// out\n        /* \"#utility.yul\":32746:33078   */\n    tag_292:\n        /* \"#utility.yul\":32867:32871   */\n      0x00\n        /* \"#utility.yul\":32905:32907   */\n      0x40\n        /* \"#utility.yul\":32894:32903   */\n      dup3\n        /* \"#utility.yul\":32890:32908   */\n      add\n        /* \"#utility.yul\":32882:32908   */\n      swap1\n      pop\n        /* \"#utility.yul\":32918:32989   */\n      tag_671\n        /* \"#utility.yul\":32986:32987   */\n      0x00\n        /* \"#utility.yul\":32975:32984   */\n      dup4\n        /* \"#utility.yul\":32971:32988   */\n      add\n        /* \"#utility.yul\":32962:32968   */\n      dup6\n        /* \"#utility.yul\":32918:32989   */\n      tag_353\n      jump\t// in\n    tag_671:\n        /* \"#utility.yul\":32999:33071   */\n      tag_672\n        /* \"#utility.yul\":33067:33069   */\n      0x20\n        /* \"#utility.yul\":33056:33065   */\n      dup4\n        /* \"#utility.yul\":33052:33070   */\n      add\n        /* \"#utility.yul\":33043:33049   */\n      dup5\n        /* \"#utility.yul\":32999:33071   */\n      tag_349\n      jump\t// in\n    tag_672:\n        /* \"#utility.yul\":32746:33078   */\n      swap4\n      swap3\n      pop\n      pop\n      pop\n      jump\t// out\n        /* \"#utility.yul\":33084:33264   */\n    tag_395:\n        /* \"#utility.yul\":33132:33209   */\n      0x4e487b7100000000000000000000000000000000000000000000000000000000\n        /* \"#utility.yul\":33129:33130   */\n      0x00\n        /* \"#utility.yul\":33122:33210   */\n      mstore\n        /* \"#utility.yul\":33229:33233   */\n      0x12\n        /* \"#utility.yul\":33226:33227   */\n      0x04\n        /* \"#utility.yul\":33219:33234   */\n      mstore\n        /* \"#utility.yul\":33253:33257   */\n      0x24\n        /* \"#utility.yul\":33250:33251   */\n      0x00\n        /* \"#utility.yul\":33243:33258   */\n      revert\n        /* \"#utility.yul\":33270:33455   */\n    tag_305:\n        /* \"#utility.yul\":33310:33311   */\n      0x00\n        /* \"#utility.yul\":33327:33347   */\n      tag_675\n        /* \"#utility.yul\":33345:33346   */\n      dup3\n        /* \"#utility.yul\":33327:33347   */\n      tag_333\n      jump\t// in\n    tag_675:\n        /* \"#utility.yul\":33322:33347   */\n      swap2\n      pop\n        /* \"#utility.yul\":33361:33381   */\n      tag_676\n        /* \"#utility.yul\":33379:33380   */\n      dup4\n        /* \"#utility.yul\":33361:33381   */\n      tag_333\n      jump\t// in\n    tag_676:\n        /* \"#utility.yul\":33356:33381   */\n      swap3\n      pop\n        /* \"#utility.yul\":33400:33401   */\n      dup3\n        /* \"#utility.yul\":33390:33425   */\n      tag_677\n      jumpi\n        /* \"#utility.yul\":33405:33423   */\n      tag_678\n      tag_395\n      jump\t// in\n    tag_678:\n        /* \"#utility.yul\":33390:33425   */\n    tag_677:\n        /* \"#utility.yul\":33447:33448   */\n      dup3\n        /* \"#utility.yul\":33444:33445   */\n      dup3\n        /* \"#utility.yul\":33440:33449   */\n      div\n        /* \"#utility.yul\":33435:33449   */\n      swap1\n      pop\n        /* \"#utility.yul\":33270:33455   */\n      swap3\n      swap2\n      pop\n      pop\n      jump\t// out\n        /* \"#utility.yul\":33461:33871   */\n    tag_307:\n        /* \"#utility.yul\":33501:33508   */\n      0x00\n        /* \"#utility.yul\":33524:33544   */\n      tag_680\n        /* \"#utility.yul\":33542:33543   */\n      dup3\n        /* \"#utility.yul\":33524:33544   */\n      tag_333\n      jump\t// in\n    tag_680:\n        /* \"#utility.yul\":33519:33544   */\n      swap2\n      pop\n        /* \"#utility.yul\":33558:33578   */\n      tag_681\n        /* \"#utility.yul\":33576:33577   */\n      dup4\n        /* \"#utility.yul\":33558:33578   */\n      tag_333\n      jump\t// in\n    tag_681:\n        /* \"#utility.yul\":33553:33578   */\n      swap3\n      pop\n        /* \"#utility.yul\":33613:33614   */\n      dup3\n        /* \"#utility.yul\":33610:33611   */\n      dup3\n        /* \"#utility.yul\":33606:33615   */\n      mul\n        /* \"#utility.yul\":33635:33665   */\n      tag_682\n        /* \"#utility.yul\":33653:33664   */\n      dup2\n        /* \"#utility.yul\":33635:33665   */\n      tag_333\n      jump\t// in\n    tag_682:\n        /* \"#utility.yul\":33624:33665   */\n      swap2\n      pop\n        /* \"#utility.yul\":33814:33815   */\n      dup3\n        /* \"#utility.yul\":33805:33812   */\n      dup3\n        /* \"#utility.yul\":33801:33816   */\n      div\n        /* \"#utility.yul\":33798:33799   */\n      dup5\n        /* \"#utility.yul\":33795:33817   */\n      eq\n        /* \"#utility.yul\":33775:33776   */\n      dup4\n        /* \"#utility.yul\":33768:33777   */\n      iszero\n        /* \"#utility.yul\":33748:33831   */\n      or\n        /* \"#utility.yul\":33725:33864   */\n      tag_683\n      jumpi\n        /* \"#utility.yul\":33844:33862   */\n      tag_684\n      tag_360\n      jump\t// in\n    tag_684:\n        /* \"#utility.yul\":33725:33864   */\n    tag_683:\n        /* \"#utility.yul\":33509:33871   */\n      pop\n        /* \"#utility.yul\":33461:33871   */\n      swap3\n      swap2\n      pop\n      pop\n      jump\t// out\n        /* \"#utility.yul\":33877:34058   */\n    tag_396:\n        /* \"#utility.yul\":34017:34050   */\n      0x5265656e7472616e637947756172643a207265656e7472616e742063616c6c00\n        /* \"#utility.yul\":34013:34014   */\n      0x00\n        /* \"#utility.yul\":34005:34011   */\n      dup3\n        /* \"#utility.yul\":34001:34015   */\n      add\n        /* \"#utility.yul\":33994:34051   */\n      mstore\n        /* \"#utility.yul\":33877:34058   */\n      pop\n      jump\t// out\n        /* \"#utility.yul\":34064:34430   */\n    tag_397:\n        /* \"#utility.yul\":34206:34209   */\n      0x00\n        /* \"#utility.yul\":34227:34294   */\n      tag_687\n        /* \"#utility.yul\":34291:34293   */\n      0x1f\n        /* \"#utility.yul\":34286:34289   */\n      dup4\n        /* \"#utility.yul\":34227:34294   */\n      tag_361\n      jump\t// in\n    tag_687:\n        /* \"#utility.yul\":34220:34294   */\n      swap2\n      pop\n        /* \"#utility.yul\":34303:34396   */\n      tag_688\n        /* \"#utility.yul\":34392:34395   */\n      dup3\n        /* \"#utility.yul\":34303:34396   */\n      tag_396\n      jump\t// in\n    tag_688:\n        /* \"#utility.yul\":34421:34423   */\n      0x20\n        /* \"#utility.yul\":34416:34419   */\n      dup3\n        /* \"#utility.yul\":34412:34424   */\n      add\n        /* \"#utility.yul\":34405:34424   */\n      swap1\n      pop\n        /* \"#utility.yul\":34064:34430   */\n      swap2\n      swap1\n      pop\n      jump\t// out\n        /* \"#utility.yul\":34436:34855   */\n    tag_314:\n        /* \"#utility.yul\":34602:34606   */\n      0x00\n        /* \"#utility.yul\":34640:34642   */\n      0x20\n        /* \"#utility.yul\":34629:34638   */\n      dup3\n        /* \"#utility.yul\":34625:34643   */\n      add\n        /* \"#utility.yul\":34617:34643   */\n      swap1\n      pop\n        /* \"#utility.yul\":34689:34698   */\n      dup2\n        /* \"#utility.yul\":34683:34687   */\n      dup2\n        /* \"#utility.yul\":34679:34699   */\n      sub\n        /* \"#utility.yul\":34675:34676   */\n      0x00\n        /* \"#utility.yul\":34664:34673   */\n      dup4\n        /* \"#utility.yul\":34660:34677   */\n      add\n        /* \"#utility.yul\":34653:34700   */\n      mstore\n        /* \"#utility.yul\":34717:34848   */\n      tag_690\n        /* \"#utility.yul\":34843:34847   */\n      dup2\n        /* \"#utility.yul\":34717:34848   */\n      tag_397\n      jump\t// in\n    tag_690:\n        /* \"#utility.yul\":34709:34848   */\n      swap1\n      pop\n        /* \"#utility.yul\":34436:34855   */\n      swap2\n      swap1\n      pop\n      jump\t// out\n\n    auxdata: 0xa264697066735822122023d4191a2eff011d3ae84b80a3a878e16912db0ea549d9b3254ecfaa8bf41a1864736f6c634300081e0033\n}\n",
				"bytecode": {
					"linkReferences": {},
					"object": "608060405234801561000f575f5ffd5b506040516131753803806131758339818101604052810190610031919061028c565b335f73ffffffffffffffffffffffffffffffffffffffff168173ffffffffffffffffffffffffffffffffffffffff16036100a2575f6040517f1e4fbdf700000000000000000000000000000000000000000000000000000000815260040161009991906102c6565b60405180910390fd5b6100b18161016d60201b60201c565b50600180819055505f73ffffffffffffffffffffffffffffffffffffffff168173ffffffffffffffffffffffffffffffffffffffff1603610127576040517f08c379a000000000000000000000000000000000000000000000000000000000815260040161011e90610339565b60405180910390fd5b8060025f6101000a81548173ffffffffffffffffffffffffffffffffffffffff021916908373ffffffffffffffffffffffffffffffffffffffff16021790555050610357565b5f5f5f9054906101000a900473ffffffffffffffffffffffffffffffffffffffff169050815f5f6101000a81548173ffffffffffffffffffffffffffffffffffffffff021916908373ffffffffffffffffffffffffffffffffffffffff1602179055508173ffffffffffffffffffffffffffffffffffffffff168173ffffffffffffffffffffffffffffffffffffffff167f8be0079c531659141344cd1fd0a4f28419497f9722a3daafe3b4186f6b6457e060405160405180910390a35050565b5f5ffd5b5f73ffffffffffffffffffffffffffffffffffffffff82169050919050565b5f61025b82610232565b9050919050565b61026b81610251565b8114610275575f5ffd5b50565b5f8151905061028681610262565b92915050565b5f602082840312156102a1576102a061022e565b5b5f6102ae84828501610278565b91505092915050565b6102c081610251565b82525050565b5f6020820190506102d95f8301846102b7565b92915050565b5f82825260208201905092915050565b7f546f6b656e20616464726573732063616e6e6f74206265207a65726f000000005f82015250565b5f610323601c836102df565b915061032e826102ef565b602082019050919050565b5f6020820190508181035f83015261035081610317565b9050919050565b612e11806103645f395ff3fe608060405234801561000f575f5ffd5b5060043610610156575f3560e01c80638af104da116100c1578063ea1bb3d51161007a578063ea1bb3d514610408578063f2fde38b14610438578063f51321d714610454578063f7c469f014610484578063f9079b37146104b4578063fc0c546a146104e457610156565b80638af104da146103325780638da5cb5b1461036257806390be10cc146103805780639d8535ad1461039e5780639ef346b4146103bc578063b75c7dc6146103ec57610156565b80635a7bb69a116101135780635a7bb69a14610255578063604178871461028557806366afd8ef146102be5780636a273a27146102da578063715018a6146102f85780638815e8621461030257610156565b8063098df4451461015a57806317e289e91461018a5780632794e427146101a65780632e1a7d4d146101d6578063366dc083146101f2578063471121d114610225575b5f5ffd5b610174600480360381019061016f9190611df2565b610502565b6040516101819190611e35565b60405180910390f35b6101a4600480360381019061019f9190611eb6565b61055d565b005b6101c060048036038101906101bb9190611df2565b6109cb565b6040516101cd91906120f3565b60405180910390f35b6101f060048036038101906101eb9190612113565b610ab2565b005b61020c60048036038101906102079190611df2565b610b5a565b60405161021c949392919061214d565b60405180910390f35b61023f600480360381019061023a9190611df2565b610d37565b60405161024c9190612190565b60405180910390f35b61026f600480360381019061026a9190611df2565b610d4c565b60405161027c9190612190565b60405180910390f35b61029f600480360381019061029a91906121d3565b610d92565b6040516102b59a9998979695949392919061221c565b60405180910390f35b6102d860048036038101906102d391906122b6565b610e25565b005b6102e26111c2565b6040516102ef9190612190565b60405180910390f35b6103006111ce565b005b61031c60048036038101906103179190612113565b6111e1565b6040516103299190611e35565b60405180910390f35b61034c600480360381019061034791906122f4565b611201565b6040516103599190611e35565b60405180910390f35b61036a611233565b6040516103779190612332565b60405180910390f35b61038861125a565b6040516103959190612190565b60405180910390f35b6103a6611306565b6040516103b39190612190565b60405180910390f35b6103d660048036038101906103d191906121d3565b61130c565b6040516103e39190612415565b60405180910390f35b610406600480360381019061040191906121d3565b611416565b005b610422600480360381019061041d91906121d3565b6116ee565b60405161042f9190612190565b60405180910390f35b610452600480360381019061044d9190611df2565b6117fe565b005b61046e600480360381019061046991906122f4565b611882565b60405161047b9190612415565b60405180910390f35b61049e60048036038101906104999190611df2565b6118a4565b6040516104ab9190611e35565b60405180910390f35b6104ce60048036038101906104c99190612113565b6118f3565b6040516104db9190611e35565b60405180910390f35b6104ec61195f565b6040516104f9919061248a565b60405180910390f35b5f61055682600160045f8673ffffffffffffffffffffffffffffffffffffffff1673ffffffffffffffffffffffffffffffffffffffff1681526020019081526020015f205461055191906124d0565b611201565b9050919050565b610565611984565b5f73ffffffffffffffffffffffffffffffffffffffff168773ffffffffffffffffffffffffffffffffffffffff16036105d3576040517f08c379a00000000000000000000000000000000000000000000000000000000081526004016105ca90612583565b60405180910390fd5b5f8411610615576040517f08c379a000000000000000000000000000000000000000000000000000000000815260040161060c906125eb565b60405180910390fd5b5f8111610657576040517f08c379a000000000000000000000000000000000000000000000000000000000815260040161064e90612653565b60405180910390fd5b600183101561069b576040517f08c379a0000000000000000000000000000000000000000000000000000000008152600401610692906126bb565b60405180910390fd5b848410156106de576040517f08c379a00000000000000000000000000000000000000000000000000000000081526004016106d590612723565b60405180910390fd5b806106e761125a565b1015610728576040517f08c379a000000000000000000000000000000000000000000000000000000000815260040161071f906127b1565b60405180910390fd5b5f610732886118a4565b90505f868861074191906127cf565b90506040518061014001604052806001151581526020018a73ffffffffffffffffffffffffffffffffffffffff16815260200182815260200189815260200187815260200186815260200185151581526020018481526020015f81526020015f151581525060035f8481526020019081526020015f205f820151815f015f6101000a81548160ff0219169083151502179055506020820151815f0160016101000a81548173ffffffffffffffffffffffffffffffffffffffff021916908373ffffffffffffffffffffffffffffffffffffffff16021790555060408201518160010155606082015181600201556080820151816003015560a0820151816004015560c0820151816005015f6101000a81548160ff02191690831515021790555060e082015181600601556101008201518160070155610120820151816008015f6101000a81548160ff0219169083151502179055509050508260065f8282546108aa91906127cf565b92505081905550600582908060018154018082558091505060019003905f5260205f20015f90919091909150555f60045f8b73ffffffffffffffffffffffffffffffffffffffff1673ffffffffffffffffffffffffffffffffffffffff1681526020019081526020015f2054905060018161092591906127cf565b60045f8c73ffffffffffffffffffffffffffffffffffffffff1673ffffffffffffffffffffffffffffffffffffffff1681526020019081526020015f20819055508973ffffffffffffffffffffffffffffffffffffffff16837f5dd2f0f5121d44031a18f4ec7685b97ce3bd9400feda582818aa28501f1fcf8c848c8b8b8b8b6040516109b796959493929190612802565b60405180910390a350505050505050505050565b60605f60045f8473ffffffffffffffffffffffffffffffffffffffff1673ffffffffffffffffffffffffffffffffffffffff1681526020019081526020015f205490505f8167ffffffffffffffff811115610a2957610a28612861565b5b604051908082528060200260200182016040528015610a6257816020015b610a4f611d2f565b815260200190600190039081610a475790505b5090505f5f90505b82811015610aa757610a7c8582611882565b828281518110610a8f57610a8e61288e565b5b60200260200101819052508080600101915050610a6a565b508092505050919050565b610aba611984565b80610ac361125a565b1015610b04576040517f08c379a0000000000000000000000000000000000000000000000000000000008152600401610afb90612905565b60405180910390fd5b610b57610b0f611233565b8260025f9054906101000a900473ffffffffffffffffffffffffffffffffffffffff1673ffffffffffffffffffffffffffffffffffffffff16611a0b9092919063ffffffff16565b50565b5f5f5f5f60045f8673ffffffffffffffffffffffffffffffffffffffff1673ffffffffffffffffffffffffffffffffffffffff1681526020019081526020015f205490505f5f90505b81811015610d2f575f610bb68783611201565b90505f60035f8381526020019081526020015f209050805f015f9054906101000a900460ff168015610bf65750806008015f9054906101000a900460ff16155b15610d2057806006015487610c0b91906127cf565b9650806007015486610c1d91906127cf565b9550610d1281604051806101400160405290815f82015f9054906101000a900460ff161515151581526020015f820160019054906101000a900473ffffffffffffffffffffffffffffffffffffffff1673ffffffffffffffffffffffffffffffffffffffff1673ffffffffffffffffffffffffffffffffffffffff16815260200160018201548152602001600282015481526020016003820154815260200160048201548152602001600582015f9054906101000a900460ff161515151581526020016006820154815260200160078201548152602001600882015f9054906101000a900460ff161515151581525050611a8a565b85610d1d91906127cf565b94505b50508080600101915050610ba3565b509193509193565b6004602052805f5260405f205f915090505481565b5f60045f8373ffffffffffffffffffffffffffffffffffffffff1673ffffffffffffffffffffffffffffffffffffffff1681526020019081526020015f20549050919050565b6003602052805f5260405f205f91509050805f015f9054906101000a900460ff1690805f0160019054906101000a900473ffffffffffffffffffffffffffffffffffffffff1690806001015490806002015490806003015490806004015490806005015f9054906101000a900460ff1690806006015490806007015490806008015f9054906101000a900460ff1690508a565b610e2d611b74565b5f60035f8481526020019081526020015f209050805f015f9054906101000a900460ff16610e90576040517f08c379a0000000000000000000000000000000000000000000000000000000008152600401610e879061296d565b60405180910390fd5b5f815f0160019054906101000a900473ffffffffffffffffffffffffffffffffffffffff1673ffffffffffffffffffffffffffffffffffffffff163373ffffffffffffffffffffffffffffffffffffffff161490505f610eee611233565b73ffffffffffffffffffffffffffffffffffffffff163373ffffffffffffffffffffffffffffffffffffffff161490508180610f275750805b610f66576040517f08c379a0000000000000000000000000000000000000000000000000000000008152600401610f5d906129fb565b60405180910390fd5b5f61105a84604051806101400160405290815f82015f9054906101000a900460ff161515151581526020015f820160019054906101000a900473ffffffffffffffffffffffffffffffffffffffff1673ffffffffffffffffffffffffffffffffffffffff1673ffffffffffffffffffffffffffffffffffffffff16815260200160018201548152602001600282015481526020016003820154815260200160048201548152602001600582015f9054906101000a900460ff161515151581526020016006820154815260200160078201548152602001600882015f9054906101000a900460ff161515151581525050611a8a565b90508481101561109f576040517f08c379a000000000000000000000000000000000000000000000000000000000815260040161109690612a89565b60405180910390fd5b84846007015f8282546110b291906127cf565b925050819055508460065f8282546110ca91906124d0565b92505081905550611140845f0160019054906101000a900473ffffffffffffffffffffffffffffffffffffffff168660025f9054906101000a900473ffffffffffffffffffffffffffffffffffffffff1673ffffffffffffffffffffffffffffffffffffffff16611a0b9092919063ffffffff16565b835f0160019054906101000a900473ffffffffffffffffffffffffffffffffffffffff1673ffffffffffffffffffffffffffffffffffffffff16867f62eb4bd96d9a7a66875a9f46f9f9d8bf6cfed3fe0578671b752301427d2a4f66876040516111aa9190612190565b60405180910390a3505050506111be611bc3565b5050565b5f600580549050905090565b6111d6611984565b6111df5f611bcc565b565b600581815481106111f0575f80fd5b905f5260205f20015f915090505481565b5f8282604051602001611215929190612b0c565b60405160208183030381529060405280519060200120905092915050565b5f5f5f9054906101000a900473ffffffffffffffffffffffffffffffffffffffff16905090565b5f60065460025f9054906101000a900473ffffffffffffffffffffffffffffffffffffffff1673ffffffffffffffffffffffffffffffffffffffff166370a08231306040518263ffffffff1660e01b81526004016112b89190612332565b602060405180830381865afa1580156112d3573d5f5f3e3d5ffd5b505050506040513d601f19601f820116820180604052508101906112f79190612b4b565b61130191906124d0565b905090565b60065481565b611314611d2f565b60035f8381526020019081526020015f20604051806101400160405290815f82015f9054906101000a900460ff161515151581526020015f820160019054906101000a900473ffffffffffffffffffffffffffffffffffffffff1673ffffffffffffffffffffffffffffffffffffffff1673ffffffffffffffffffffffffffffffffffffffff16815260200160018201548152602001600282015481526020016003820154815260200160048201548152602001600582015f9054906101000a900460ff161515151581526020016006820154815260200160078201548152602001600882015f9054906101000a900460ff1615151515815250509050919050565b61141e611984565b5f60035f8381526020019081526020015f209050805f015f9054906101000a900460ff16611481576040517f08c379a00000000000000000000000000000000000000000000000000000000081526004016114789061296d565b60405180910390fd5b806005015f9054906101000a900460ff166114d1576040517f08c379a00000000000000000000000000000000000000000000000000000000081526004016114c890612bc0565b60405180910390fd5b806008015f9054906101000a900460ff1615611522576040517f08c379a000000000000000000000000000000000000000000000000000000000815260040161151990612c28565b60405180910390fd5b5f61161682604051806101400160405290815f82015f9054906101000a900460ff161515151581526020015f820160019054906101000a900473ffffffffffffffffffffffffffffffffffffffff1673ffffffffffffffffffffffffffffffffffffffff1673ffffffffffffffffffffffffffffffffffffffff16815260200160018201548152602001600282015481526020016003820154815260200160048201548152602001600582015f9054906101000a900460ff161515151581526020016006820154815260200160078201548152602001600882015f9054906101000a900460ff161515151581525050611a8a565b90505f81111561162b5761162a8382610e25565b5b5f8260070154836006015461164091906124d0565b90508060065f82825461165391906124d0565b925050819055506001836008015f6101000a81548160ff021916908315150217905550825f0160019054906101000a900473ffffffffffffffffffffffffffffffffffffffff1673ffffffffffffffffffffffffffffffffffffffff16847fdbfc1fbe382eed671971d1c491d4108e66995ded4191ef7271701a283f1b05c6836040516116e09190612190565b60405180910390a350505050565b5f5f60035f8481526020019081526020015f2090506117f681604051806101400160405290815f82015f9054906101000a900460ff161515151581526020015f820160019054906101000a900473ffffffffffffffffffffffffffffffffffffffff1673ffffffffffffffffffffffffffffffffffffffff1673ffffffffffffffffffffffffffffffffffffffff16815260200160018201548152602001600282015481526020016003820154815260200160048201548152602001600582015f9054906101000a900460ff161515151581526020016006820154815260200160078201548152602001600882015f9054906101000a900460ff161515151581525050611a8a565b915050919050565b611806611984565b5f73ffffffffffffffffffffffffffffffffffffffff168173ffffffffffffffffffffffffffffffffffffffff1603611876575f6040517f1e4fbdf700000000000000000000000000000000000000000000000000000000815260040161186d9190612332565b60405180910390fd5b61187f81611bcc565b50565b61188a611d2f565b61189c6118978484611201565b61130c565b905092915050565b5f6118ec8260045f8573ffffffffffffffffffffffffffffffffffffffff1673ffffffffffffffffffffffffffffffffffffffff1681526020019081526020015f2054611201565b9050919050565b5f600580549050821061193b576040517f08c379a000000000000000000000000000000000000000000000000000000000815260040161193290612c90565b60405180910390fd5b6005828154811061194f5761194e61288e565b5b905f5260205f2001549050919050565b60025f9054906101000a900473ffffffffffffffffffffffffffffffffffffffff1681565b61198c611c8d565b73ffffffffffffffffffffffffffffffffffffffff166119aa611233565b73ffffffffffffffffffffffffffffffffffffffff1614611a09576119cd611c8d565b6040517f118cdaa7000000000000000000000000000000000000000000000000000000008152600401611a009190612332565b60405180910390fd5b565b611a85838473ffffffffffffffffffffffffffffffffffffffff1663a9059cbb8585604051602401611a3e929190612cae565b604051602081830303815290604052915060e01b6020820180517bffffffffffffffffffffffffffffffffffffffffffffffffffffffff8381831617835250505050611c94565b505050565b5f815f01511580611a9d57508161012001515b15611aaa575f9050611b6f565b5f4290508260400151811015611ac3575f915050611b6f565b82608001518360600151611ad791906127cf565b8110611afa578261010001518360e00151611af291906124d0565b915050611b6f565b5f836060015182611b0b91906124d0565b90505f8460a0015190505f8183611b229190612d02565b90505f8282611b319190612d32565b90505f8760800151828960e00151611b499190612d32565b611b539190612d02565b905087610100015181611b6691906124d0565b96505050505050505b919050565b600260015403611bb9576040517f08c379a0000000000000000000000000000000000000000000000000000000008152600401611bb090612dbd565b60405180910390fd5b6002600181905550565b60018081905550565b5f5f5f9054906101000a900473ffffffffffffffffffffffffffffffffffffffff169050815f5f6101000a81548173ffffffffffffffffffffffffffffffffffffffff021916908373ffffffffffffffffffffffffffffffffffffffff1602179055508173ffffffffffffffffffffffffffffffffffffffff168173ffffffffffffffffffffffffffffffffffffffff167f8be0079c531659141344cd1fd0a4f28419497f9722a3daafe3b4186f6b6457e060405160405180910390a35050565b5f33905090565b5f5f60205f8451602086015f885af180611cb3576040513d5f823e3d81fd5b3d92505f519150505f8214611ccc576001811415611ce7565b5f8473ffffffffffffffffffffffffffffffffffffffff163b145b15611d2957836040517f5274afe7000000000000000000000000000000000000000000000000000000008152600401611d209190612332565b60405180910390fd5b50505050565b6040518061014001604052805f151581526020015f73ffffffffffffffffffffffffffffffffffffffff1681526020015f81526020015f81526020015f81526020015f81526020015f151581526020015f81526020015f81526020015f151581525090565b5f5ffd5b5f73ffffffffffffffffffffffffffffffffffffffff82169050919050565b5f611dc182611d98565b9050919050565b611dd181611db7565b8114611ddb575f5ffd5b50565b5f81359050611dec81611dc8565b92915050565b5f60208284031215611e0757611e06611d94565b5b5f611e1484828501611dde565b91505092915050565b5f819050919050565b611e2f81611e1d565b82525050565b5f602082019050611e485f830184611e26565b92915050565b5f819050919050565b611e6081611e4e565b8114611e6a575f5ffd5b50565b5f81359050611e7b81611e57565b92915050565b5f8115159050919050565b611e9581611e81565b8114611e9f575f5ffd5b50565b5f81359050611eb081611e8c565b92915050565b5f5f5f5f5f5f5f60e0888a031215611ed157611ed0611d94565b5b5f611ede8a828b01611dde565b9750506020611eef8a828b01611e6d565b9650506040611f008a828b01611e6d565b9550506060611f118a828b01611e6d565b9450506080611f228a828b01611e6d565b93505060a0611f338a828b01611ea2565b92505060c0611f448a828b01611e6d565b91505092959891949750929550565b5f81519050919050565b5f82825260208201905092915050565b5f819050602082019050919050565b611f8581611e81565b82525050565b611f9481611db7565b82525050565b611fa381611e4e565b82525050565b61014082015f820151611fbe5f850182611f7c565b506020820151611fd16020850182611f8b565b506040820151611fe46040850182611f9a565b506060820151611ff76060850182611f9a565b50608082015161200a6080850182611f9a565b5060a082015161201d60a0850182611f9a565b5060c082015161203060c0850182611f7c565b5060e082015161204360e0850182611f9a565b50610100820151612058610100850182611f9a565b5061012082015161206d610120850182611f7c565b50505050565b5f61207e8383611fa9565b6101408301905092915050565b5f602082019050919050565b5f6120a182611f53565b6120ab8185611f5d565b93506120b683611f6d565b805f5b838110156120e65781516120cd8882612073565b97506120d88361208b565b9250506001810190506120b9565b5085935050505092915050565b5f6020820190508181035f83015261210b8184612097565b905092915050565b5f6020828403121561212857612127611d94565b5b5f61213584828501611e6d565b91505092915050565b61214781611e4e565b82525050565b5f6080820190506121605f83018761213e565b61216d602083018661213e565b61217a604083018561213e565b612187606083018461213e565b95945050505050565b5f6020820190506121a35f83018461213e565b92915050565b6121b281611e1d565b81146121bc575f5ffd5b50565b5f813590506121cd816121a9565b92915050565b5f602082840312156121e8576121e7611d94565b5b5f6121f5848285016121bf565b91505092915050565b61220781611e81565b82525050565b61221681611db7565b82525050565b5f610140820190506122305f83018d6121fe565b61223d602083018c61220d565b61224a604083018b61213e565b612257606083018a61213e565b612264608083018961213e565b61227160a083018861213e565b61227e60c08301876121fe565b61228b60e083018661213e565b61229961010083018561213e565b6122a76101208301846121fe565b9b9a5050505050505050505050565b5f5f604083850312156122cc576122cb611d94565b5b5f6122d9858286016121bf565b92505060206122ea85828601611e6d565b9150509250929050565b5f5f6040838503121561230a57612309611d94565b5b5f61231785828601611dde565b925050602061232885828601611e6d565b9150509250929050565b5f6020820190506123455f83018461220d565b92915050565b61014082015f8201516123605f850182611f7c565b5060208201516123736020850182611f8b565b5060408201516123866040850182611f9a565b5060608201516123996060850182611f9a565b5060808201516123ac6080850182611f9a565b5060a08201516123bf60a0850182611f9a565b5060c08201516123d260c0850182611f7c565b5060e08201516123e560e0850182611f9a565b506101008201516123fa610100850182611f9a565b5061012082015161240f610120850182611f7c565b50505050565b5f610140820190506124295f83018461234b565b92915050565b5f819050919050565b5f61245261244d61244884611d98565b61242f565b611d98565b9050919050565b5f61246382612438565b9050919050565b5f61247482612459565b9050919050565b6124848161246a565b82525050565b5f60208201905061249d5f83018461247b565b92915050565b7f4e487b71000000000000000000000000000000000000000000000000000000005f52601160045260245ffd5b5f6124da82611e4e565b91506124e583611e4e565b92508282039050818111156124fd576124fc6124a3565b5b92915050565b5f82825260208201905092915050565b7f42656e65666963696172792063616e6e6f74206265207a65726f2061646472655f8201527f7373000000000000000000000000000000000000000000000000000000000000602082015250565b5f61256d602283612503565b915061257882612513565b604082019050919050565b5f6020820190508181035f83015261259a81612561565b9050919050565b7f4475726174696f6e206d757374206265203e20300000000000000000000000005f82015250565b5f6125d5601483612503565b91506125e0826125a1565b602082019050919050565b5f6020820190508181035f830152612602816125c9565b9050919050565b7f416d6f756e74206d757374206265203e203000000000000000000000000000005f82015250565b5f61263d601283612503565b915061264882612609565b602082019050919050565b5f6020820190508181035f83015261266a81612631565b9050919050565b7f536c69636520706572696f64206d757374206265203e3d2031207365636f6e645f82015250565b5f6126a5602083612503565b91506126b082612671565b602082019050919050565b5f6020820190508181035f8301526126d281612699565b9050919050565b7f4475726174696f6e206d757374206265203e3d20636c696666000000000000005f82015250565b5f61270d601983612503565b9150612718826126d9565b602082019050919050565b5f6020820190508181035f83015261273a81612701565b9050919050565b7f43616e6e6f74206372656174652076657374696e67207363686564756c653a205f8201527f696e73756666696369656e7420746f6b656e7300000000000000000000000000602082015250565b5f61279b603383612503565b91506127a682612741565b604082019050919050565b5f6020820190508181035f8301526127c88161278f565b9050919050565b5f6127d982611e4e565b91506127e483611e4e565b92508282019050808211156127fc576127fb6124a3565b5b92915050565b5f60c0820190506128155f83018961213e565b612822602083018861213e565b61282f604083018761213e565b61283c606083018661213e565b61284960808301856121fe565b61285660a083018461213e565b979650505050505050565b7f4e487b71000000000000000000000000000000000000000000000000000000005f52604160045260245ffd5b7f4e487b71000000000000000000000000000000000000000000000000000000005f52603260045260245ffd5b7f4e6f7420656e6f75676820776974686472617761626c652066756e64730000005f82015250565b5f6128ef601d83612503565b91506128fa826128bb565b602082019050919050565b5f6020820190508181035f83015261291c816128e3565b9050919050565b7f56657374696e67207363686564756c65206e6f7420666f756e640000000000005f82015250565b5f612957601a83612503565b915061296282612923565b602082019050919050565b5f6020820190508181035f8301526129848161294b565b9050919050565b7f4f6e6c792062656e6566696369617279206f72206f776e65722063616e2072655f8201527f6c656173652076657374656420746f6b656e7300000000000000000000000000602082015250565b5f6129e5603383612503565b91506129f08261298b565b604082019050919050565b5f6020820190508181035f830152612a12816129d9565b9050919050565b7f43616e6e6f742072656c65617365206d6f7265207468616e20766573746564205f8201527f616d6f756e740000000000000000000000000000000000000000000000000000602082015250565b5f612a73602683612503565b9150612a7e82612a19565b604082019050919050565b5f6020820190508181035f830152612aa081612a67565b9050919050565b5f8160601b9050919050565b5f612abd82612aa7565b9050919050565b5f612ace82612ab3565b9050919050565b612ae6612ae182611db7565b612ac4565b82525050565b5f819050919050565b612b06612b0182611e4e565b612aec565b82525050565b5f612b178285612ad5565b601482019150612b278284612af5565b6020820191508190509392505050565b5f81519050612b4581611e57565b92915050565b5f60208284031215612b6057612b5f611d94565b5b5f612b6d84828501612b37565b91505092915050565b7f56657374696e67207363686564756c65206e6f74207265766f6361626c6500005f82015250565b5f612baa601e83612503565b9150612bb582612b76565b602082019050919050565b5f6020820190508181035f830152612bd781612b9e565b9050919050565b7f56657374696e67207363686564756c6520616c7265616479207265766f6b65645f82015250565b5f612c12602083612503565b9150612c1d82612bde565b602082019050919050565b5f6020820190508181035f830152612c3f81612c06565b9050919050565b7f496e646578206f7574206f6620626f756e6473000000000000000000000000005f82015250565b5f612c7a601383612503565b9150612c8582612c46565b602082019050919050565b5f6020820190508181035f830152612ca781612c6e565b9050919050565b5f604082019050612cc15f83018561220d565b612cce602083018461213e565b9392505050565b7f4e487b71000000000000000000000000000000000000000000000000000000005f52601260045260245ffd5b5f612d0c82611e4e565b9150612d1783611e4e565b925082612d2757612d26612cd5565b5b828204905092915050565b5f612d3c82611e4e565b9150612d4783611e4e565b9250828202612d5581611e4e565b91508282048414831517612d6c57612d6b6124a3565b5b5092915050565b7f5265656e7472616e637947756172643a207265656e7472616e742063616c6c005f82015250565b5f612da7601f83612503565b9150612db282612d73565b602082019050919050565b5f6020820190508181035f830152612dd481612d9b565b905091905056fea264697066735822122023d4191a2eff011d3ae84b80a3a878e16912db0ea549d9b3254ecfaa8bf41a1864736f6c634300081e0033",
					"opcodes": "PUSH1 0x80 PUSH1 0x40 MSTORE CALLVALUE DUP1 ISZERO PUSH2 0xF JUMPI PUSH0 PUSH0 REVERT JUMPDEST POP PUSH1 0x40 MLOAD PUSH2 0x3175 CODESIZE SUB DUP1 PUSH2 0x3175 DUP4 CODECOPY DUP2 DUP2 ADD PUSH1 0x40 MSTORE DUP2 ADD SWAP1 PUSH2 0x31 SWAP2 SWAP1 PUSH2 0x28C JUMP JUMPDEST CALLER PUSH0 PUSH20 0xFFFFFFFFFFFFFFFFFFFFFFFFFFFFFFFFFFFFFFFF AND DUP2 PUSH20 0xFFFFFFFFFFFFFFFFFFFFFFFFFFFFFFFFFFFFFFFF AND SUB PUSH2 0xA2 JUMPI PUSH0 PUSH1 0x40 MLOAD PUSH32 0x1E4FBDF700000000000000000000000000000000000000000000000000000000 DUP2 MSTORE PUSH1 0x4 ADD PUSH2 0x99 SWAP2 SWAP1 PUSH2 0x2C6 JUMP JUMPDEST PUSH1 0x40 MLOAD DUP1 SWAP2 SUB SWAP1 REVERT JUMPDEST PUSH2 0xB1 DUP2 PUSH2 0x16D PUSH1 0x20 SHL PUSH1 0x20 SHR JUMP JUMPDEST POP PUSH1 0x1 DUP1 DUP2 SWAP1 SSTORE POP PUSH0 PUSH20 0xFFFFFFFFFFFFFFFFFFFFFFFFFFFFFFFFFFFFFFFF AND DUP2 PUSH20 0xFFFFFFFFFFFFFFFFFFFFFFFFFFFFFFFFFFFFFFFF AND SUB PUSH2 0x127 JUMPI PUSH1 0x40 MLOAD PUSH32 0x8C379A000000000000000000000000000000000000000000000000000000000 DUP2 MSTORE PUSH1 0x4 ADD PUSH2 0x11E SWAP1 PUSH2 0x339 JUMP JUMPDEST PUSH1 0x40 MLOAD DUP1 SWAP2 SUB SWAP1 REVERT JUMPDEST DUP1 PUSH1 0x2 PUSH0 PUSH2 0x100 EXP DUP2 SLOAD DUP2 PUSH20 0xFFFFFFFFFFFFFFFFFFFFFFFFFFFFFFFFFFFFFFFF MUL NOT AND SWAP1 DUP4 PUSH20 0xFFFFFFFFFFFFFFFFFFFFFFFFFFFFFFFFFFFFFFFF AND MUL OR SWAP1 SSTORE POP POP PUSH2 0x357 JUMP JUMPDEST PUSH0 PUSH0 PUSH0 SWAP1 SLOAD SWAP1 PUSH2 0x100 EXP SWAP1 DIV PUSH20 0xFFFFFFFFFFFFFFFFFFFFFFFFFFFFFFFFFFFFFFFF AND SWAP1 POP DUP2 PUSH0 PUSH0 PUSH2 0x100 EXP DUP2 SLOAD DUP2 PUSH20 0xFFFFFFFFFFFFFFFFFFFFFFFFFFFFFFFFFFFFFFFF MUL NOT AND SWAP1 DUP4 PUSH20 0xFFFFFFFFFFFFFFFFFFFFFFFFFFFFFFFFFFFFFFFF AND MUL OR SWAP1 SSTORE POP DUP2 PUSH20 0xFFFFFFFFFFFFFFFFFFFFFFFFFFFFFFFFFFFFFFFF AND DUP2 PUSH20 0xFFFFFFFFFFFFFFFFFFFFFFFFFFFFFFFFFFFFFFFF AND PUSH32 0x8BE0079C531659141344CD1FD0A4F28419497F9722A3DAAFE3B4186F6B6457E0 PUSH1 0x40 MLOAD PUSH1 0x40 MLOAD DUP1 SWAP2 SUB SWAP1 LOG3 POP POP JUMP JUMPDEST PUSH0 PUSH0 REVERT JUMPDEST PUSH0 PUSH20 0xFFFFFFFFFFFFFFFFFFFFFFFFFFFFFFFFFFFFFFFF DUP3 AND SWAP1 POP SWAP2 SWAP1 POP JUMP JUMPDEST PUSH0 PUSH2 0x25B DUP3 PUSH2 0x232 JUMP JUMPDEST SWAP1 POP SWAP2 SWAP1 POP JUMP JUMPDEST PUSH2 0x26B DUP2 PUSH2 0x251 JUMP JUMPDEST DUP2 EQ PUSH2 0x275 JUMPI PUSH0 PUSH0 REVERT JUMPDEST POP JUMP JUMPDEST PUSH0 DUP2 MLOAD SWAP1 POP PUSH2 0x286 DUP2 PUSH2 0x262 JUMP JUMPDEST SWAP3 SWAP2 POP POP JUMP JUMPDEST PUSH0 PUSH1 0x20 DUP3 DUP5 SUB SLT ISZERO PUSH2 0x2A1 JUMPI PUSH2 0x2A0 PUSH2 0x22E JUMP JUMPDEST JUMPDEST PUSH0 PUSH2 0x2AE DUP5 DUP3 DUP6 ADD PUSH2 0x278 JUMP JUMPDEST SWAP2 POP POP SWAP3 SWAP2 POP POP JUMP JUMPDEST PUSH2 0x2C0 DUP2 PUSH2 0x251 JUMP JUMPDEST DUP3 MSTORE POP POP JUMP JUMPDEST PUSH0 PUSH1 0x20 DUP3 ADD SWAP1 POP PUSH2 0x2D9 PUSH0 DUP4 ADD DUP5 PUSH2 0x2B7 JUMP JUMPDEST SWAP3 SWAP2 POP POP JUMP JUMPDEST PUSH0 DUP3 DUP3 MSTORE PUSH1 0x20 DUP3 ADD SWAP1 POP SWAP3 SWAP2 POP POP JUMP JUMPDEST PUSH32 0x546F6B656E20616464726573732063616E6E6F74206265207A65726F00000000 PUSH0 DUP3 ADD MSTORE POP JUMP JUMPDEST PUSH0 PUSH2 0x323 PUSH1 0x1C DUP4 PUSH2 0x2DF JUMP JUMPDEST SWAP2 POP PUSH2 0x32E DUP3 PUSH2 0x2EF JUMP JUMPDEST PUSH1 0x20 DUP3 ADD SWAP1 POP SWAP2 SWAP1 POP JUMP JUMPDEST PUSH0 PUSH1 0x20 DUP3 ADD SWAP1 POP DUP2 DUP2 SUB PUSH0 DUP4 ADD MSTORE PUSH2 0x350 DUP2 PUSH2 0x317 JUMP JUMPDEST SWAP1 POP SWAP2 SWAP1 POP JUMP JUMPDEST PUSH2 0x2E11 DUP1 PUSH2 0x364 PUSH0 CODECOPY PUSH0 RETURN INVALID PUSH1 0x80 PUSH1 0x40 MSTORE CALLVALUE DUP1 ISZERO PUSH2 0xF JUMPI PUSH0 PUSH0 REVERT JUMPDEST POP PUSH1 0x4 CALLDATASIZE LT PUSH2 0x156 JUMPI PUSH0 CALLDATALOAD PUSH1 0xE0 SHR DUP1 PUSH4 0x8AF104DA GT PUSH2 0xC1 JUMPI DUP1 PUSH4 0xEA1BB3D5 GT PUSH2 0x7A JUMPI DUP1 PUSH4 0xEA1BB3D5 EQ PUSH2 0x408 JUMPI DUP1 PUSH4 0xF2FDE38B EQ PUSH2 0x438 JUMPI DUP1 PUSH4 0xF51321D7 EQ PUSH2 0x454 JUMPI DUP1 PUSH4 0xF7C469F0 EQ PUSH2 0x484 JUMPI DUP1 PUSH4 0xF9079B37 EQ PUSH2 0x4B4 JUMPI DUP1 PUSH4 0xFC0C546A EQ PUSH2 0x4E4 JUMPI PUSH2 0x156 JUMP JUMPDEST DUP1 PUSH4 0x8AF104DA EQ PUSH2 0x332 JUMPI DUP1 PUSH4 0x8DA5CB5B EQ PUSH2 0x362 JUMPI DUP1 PUSH4 0x90BE10CC EQ PUSH2 0x380 JUMPI DUP1 PUSH4 0x9D8535AD EQ PUSH2 0x39E JUMPI DUP1 PUSH4 0x9EF346B4 EQ PUSH2 0x3BC JUMPI DUP1 PUSH4 0xB75C7DC6 EQ PUSH2 0x3EC JUMPI PUSH2 0x156 JUMP JUMPDEST DUP1 PUSH4 0x5A7BB69A GT PUSH2 0x113 JUMPI DUP1 PUSH4 0x5A7BB69A EQ PUSH2 0x255 JUMPI DUP1 PUSH4 0x60417887 EQ PUSH2 0x285 JUMPI DUP1 PUSH4 0x66AFD8EF EQ PUSH2 0x2BE JUMPI DUP1 PUSH4 0x6A273A27 EQ PUSH2 0x2DA JUMPI DUP1 PUSH4 0x715018A6 EQ PUSH2 0x2F8 JUMPI DUP1 PUSH4 0x8815E862 EQ PUSH2 0x302 JUMPI PUSH2 0x156 JUMP JUMPDEST DUP1 PUSH4 0x98DF445 EQ PUSH2 0x15A JUMPI DUP1 PUSH4 0x17E289E9 EQ PUSH2 0x18A JUMPI DUP1 PUSH4 0x2794E427 EQ PUSH2 0x1A6 JUMPI DUP1 PUSH4 0x2E1A7D4D EQ PUSH2 0x1D6 JUMPI DUP1 PUSH4 0x366DC083 EQ PUSH2 0x1F2 JUMPI DUP1 PUSH4 0x471121D1 EQ PUSH2 0x225 JUMPI JUMPDEST PUSH0 PUSH0 REVERT JUMPDEST PUSH2 0x174 PUSH1 0x4 DUP1 CALLDATASIZE SUB DUP2 ADD SWAP1 PUSH2 0x16F SWAP2 SWAP1 PUSH2 0x1DF2 JUMP JUMPDEST PUSH2 0x502 JUMP JUMPDEST PUSH1 0x40 MLOAD PUSH2 0x181 SWAP2 SWAP1 PUSH2 0x1E35 JUMP JUMPDEST PUSH1 0x40 MLOAD DUP1 SWAP2 SUB SWAP1 RETURN JUMPDEST PUSH2 0x1A4 PUSH1 0x4 DUP1 CALLDATASIZE SUB DUP2 ADD SWAP1 PUSH2 0x19F SWAP2 SWAP1 PUSH2 0x1EB6 JUMP JUMPDEST PUSH2 0x55D JUMP JUMPDEST STOP JUMPDEST PUSH2 0x1C0 PUSH1 0x4 DUP1 CALLDATASIZE SUB DUP2 ADD SWAP1 PUSH2 0x1BB SWAP2 SWAP1 PUSH2 0x1DF2 JUMP JUMPDEST PUSH2 0x9CB JUMP JUMPDEST PUSH1 0x40 MLOAD PUSH2 0x1CD SWAP2 SWAP1 PUSH2 0x20F3 JUMP JUMPDEST PUSH1 0x40 MLOAD DUP1 SWAP2 SUB SWAP1 RETURN JUMPDEST PUSH2 0x1F0 PUSH1 0x4 DUP1 CALLDATASIZE SUB DUP2 ADD SWAP1 PUSH2 0x1EB SWAP2 SWAP1 PUSH2 0x2113 JUMP JUMPDEST PUSH2 0xAB2 JUMP JUMPDEST STOP JUMPDEST PUSH2 0x20C PUSH1 0x4 DUP1 CALLDATASIZE SUB DUP2 ADD SWAP1 PUSH2 0x207 SWAP2 SWAP1 PUSH2 0x1DF2 JUMP JUMPDEST PUSH2 0xB5A JUMP JUMPDEST PUSH1 0x40 MLOAD PUSH2 0x21C SWAP5 SWAP4 SWAP3 SWAP2 SWAP1 PUSH2 0x214D JUMP JUMPDEST PUSH1 0x40 MLOAD DUP1 SWAP2 SUB SWAP1 RETURN JUMPDEST PUSH2 0x23F PUSH1 0x4 DUP1 CALLDATASIZE SUB DUP2 ADD SWAP1 PUSH2 0x23A SWAP2 SWAP1 PUSH2 0x1DF2 JUMP JUMPDEST PUSH2 0xD37 JUMP JUMPDEST PUSH1 0x40 MLOAD PUSH2 0x24C SWAP2 SWAP1 PUSH2 0x2190 JUMP JUMPDEST PUSH1 0x40 MLOAD DUP1 SWAP2 SUB SWAP1 RETURN JUMPDEST PUSH2 0x26F PUSH1 0x4 DUP1 CALLDATASIZE SUB DUP2 ADD SWAP1 PUSH2 0x26A SWAP2 SWAP1 PUSH2 0x1DF2 JUMP JUMPDEST PUSH2 0xD4C JUMP JUMPDEST PUSH1 0x40 MLOAD PUSH2 0x27C SWAP2 SWAP1 PUSH2 0x2190 JUMP JUMPDEST PUSH1 0x40 MLOAD DUP1 SWAP2 SUB SWAP1 RETURN JUMPDEST PUSH2 0x29F PUSH1 0x4 DUP1 CALLDATASIZE SUB DUP2 ADD SWAP1 PUSH2 0x29A SWAP2 SWAP1 PUSH2 0x21D3 JUMP JUMPDEST PUSH2 0xD92 JUMP JUMPDEST PUSH1 0x40 MLOAD PUSH2 0x2B5 SWAP11 SWAP10 SWAP9 SWAP8 SWAP7 SWAP6 SWAP5 SWAP4 SWAP3 SWAP2 SWAP1 PUSH2 0x221C JUMP JUMPDEST PUSH1 0x40 MLOAD DUP1 SWAP2 SUB SWAP1 RETURN JUMPDEST PUSH2 0x2D8 PUSH1 0x4 DUP1 CALLDATASIZE SUB DUP2 ADD SWAP1 PUSH2 0x2D3 SWAP2 SWAP1 PUSH2 0x22B6 JUMP JUMPDEST PUSH2 0xE25 JUMP JUMPDEST STOP JUMPDEST PUSH2 0x2E2 PUSH2 0x11C2 JUMP JUMPDEST PUSH1 0x40 MLOAD PUSH2 0x2EF SWAP2 SWAP1 PUSH2 0x2190 JUMP JUMPDEST PUSH1 0x40 MLOAD DUP1 SWAP2 SUB SWAP1 RETURN JUMPDEST PUSH2 0x300 PUSH2 0x11CE JUMP JUMPDEST STOP JUMPDEST PUSH2 0x31C PUSH1 0x4 DUP1 CALLDATASIZE SUB DUP2 ADD SWAP1 PUSH2 0x317 SWAP2 SWAP1 PUSH2 0x2113 JUMP JUMPDEST PUSH2 0x11E1 JUMP JUMPDEST PUSH1 0x40 MLOAD PUSH2 0x329 SWAP2 SWAP1 PUSH2 0x1E35 JUMP JUMPDEST PUSH1 0x40 MLOAD DUP1 SWAP2 SUB SWAP1 RETURN JUMPDEST PUSH2 0x34C PUSH1 0x4 DUP1 CALLDATASIZE SUB DUP2 ADD SWAP1 PUSH2 0x347 SWAP2 SWAP1 PUSH2 0x22F4 JUMP JUMPDEST PUSH2 0x1201 JUMP JUMPDEST PUSH1 0x40 MLOAD PUSH2 0x359 SWAP2 SWAP1 PUSH2 0x1E35 JUMP JUMPDEST PUSH1 0x40 MLOAD DUP1 SWAP2 SUB SWAP1 RETURN JUMPDEST PUSH2 0x36A PUSH2 0x1233 JUMP JUMPDEST PUSH1 0x40 MLOAD PUSH2 0x377 SWAP2 SWAP1 PUSH2 0x2332 JUMP JUMPDEST PUSH1 0x40 MLOAD DUP1 SWAP2 SUB SWAP1 RETURN JUMPDEST PUSH2 0x388 PUSH2 0x125A JUMP JUMPDEST PUSH1 0x40 MLOAD PUSH2 0x395 SWAP2 SWAP1 PUSH2 0x2190 JUMP JUMPDEST PUSH1 0x40 MLOAD DUP1 SWAP2 SUB SWAP1 RETURN JUMPDEST PUSH2 0x3A6 PUSH2 0x1306 JUMP JUMPDEST PUSH1 0x40 MLOAD PUSH2 0x3B3 SWAP2 SWAP1 PUSH2 0x2190 JUMP JUMPDEST PUSH1 0x40 MLOAD DUP1 SWAP2 SUB SWAP1 RETURN JUMPDEST PUSH2 0x3D6 PUSH1 0x4 DUP1 CALLDATASIZE SUB DUP2 ADD SWAP1 PUSH2 0x3D1 SWAP2 SWAP1 PUSH2 0x21D3 JUMP JUMPDEST PUSH2 0x130C JUMP JUMPDEST PUSH1 0x40 MLOAD PUSH2 0x3E3 SWAP2 SWAP1 PUSH2 0x2415 JUMP JUMPDEST PUSH1 0x40 MLOAD DUP1 SWAP2 SUB SWAP1 RETURN JUMPDEST PUSH2 0x406 PUSH1 0x4 DUP1 CALLDATASIZE SUB DUP2 ADD SWAP1 PUSH2 0x401 SWAP2 SWAP1 PUSH2 0x21D3 JUMP JUMPDEST PUSH2 0x1416 JUMP JUMPDEST STOP JUMPDEST PUSH2 0x422 PUSH1 0x4 DUP1 CALLDATASIZE SUB DUP2 ADD SWAP1 PUSH2 0x41D SWAP2 SWAP1 PUSH2 0x21D3 JUMP JUMPDEST PUSH2 0x16EE JUMP JUMPDEST PUSH1 0x40 MLOAD PUSH2 0x42F SWAP2 SWAP1 PUSH2 0x2190 JUMP JUMPDEST PUSH1 0x40 MLOAD DUP1 SWAP2 SUB SWAP1 RETURN JUMPDEST PUSH2 0x452 PUSH1 0x4 DUP1 CALLDATASIZE SUB DUP2 ADD SWAP1 PUSH2 0x44D SWAP2 SWAP1 PUSH2 0x1DF2 JUMP JUMPDEST PUSH2 0x17FE JUMP JUMPDEST STOP JUMPDEST PUSH2 0x46E PUSH1 0x4 DUP1 CALLDATASIZE SUB DUP2 ADD SWAP1 PUSH2 0x469 SWAP2 SWAP1 PUSH2 0x22F4 JUMP JUMPDEST PUSH2 0x1882 JUMP JUMPDEST PUSH1 0x40 MLOAD PUSH2 0x47B SWAP2 SWAP1 PUSH2 0x2415 JUMP JUMPDEST PUSH1 0x40 MLOAD DUP1 SWAP2 SUB SWAP1 RETURN JUMPDEST PUSH2 0x49E PUSH1 0x4 DUP1 CALLDATASIZE SUB DUP2 ADD SWAP1 PUSH2 0x499 SWAP2 SWAP1 PUSH2 0x1DF2 JUMP JUMPDEST PUSH2 0x18A4 JUMP JUMPDEST PUSH1 0x40 MLOAD PUSH2 0x4AB SWAP2 SWAP1 PUSH2 0x1E35 JUMP JUMPDEST PUSH1 0x40 MLOAD DUP1 SWAP2 SUB SWAP1 RETURN JUMPDEST PUSH2 0x4CE PUSH1 0x4 DUP1 CALLDATASIZE SUB DUP2 ADD SWAP1 PUSH2 0x4C9 SWAP2 SWAP1 PUSH2 0x2113 JUMP JUMPDEST PUSH2 0x18F3 JUMP JUMPDEST PUSH1 0x40 MLOAD PUSH2 0x4DB SWAP2 SWAP1 PUSH2 0x1E35 JUMP JUMPDEST PUSH1 0x40 MLOAD DUP1 SWAP2 SUB SWAP1 RETURN JUMPDEST PUSH2 0x4EC PUSH2 0x195F JUMP JUMPDEST PUSH1 0x40 MLOAD PUSH2 0x4F9 SWAP2 SWAP1 PUSH2 0x248A JUMP JUMPDEST PUSH1 0x40 MLOAD DUP1 SWAP2 SUB SWAP1 RETURN JUMPDEST PUSH0 PUSH2 0x556 DUP3 PUSH1 0x1 PUSH1 0x4 PUSH0 DUP7 PUSH20 0xFFFFFFFFFFFFFFFFFFFFFFFFFFFFFFFFFFFFFFFF AND PUSH20 0xFFFFFFFFFFFFFFFFFFFFFFFFFFFFFFFFFFFFFFFF AND DUP2 MSTORE PUSH1 0x20 ADD SWAP1 DUP2 MSTORE PUSH1 0x20 ADD PUSH0 KECCAK256 SLOAD PUSH2 0x551 SWAP2 SWAP1 PUSH2 0x24D0 JUMP JUMPDEST PUSH2 0x1201 JUMP JUMPDEST SWAP1 POP SWAP2 SWAP1 POP JUMP JUMPDEST PUSH2 0x565 PUSH2 0x1984 JUMP JUMPDEST PUSH0 PUSH20 0xFFFFFFFFFFFFFFFFFFFFFFFFFFFFFFFFFFFFFFFF AND DUP8 PUSH20 0xFFFFFFFFFFFFFFFFFFFFFFFFFFFFFFFFFFFFFFFF AND SUB PUSH2 0x5D3 JUMPI PUSH1 0x40 MLOAD PUSH32 0x8C379A000000000000000000000000000000000000000000000000000000000 DUP2 MSTORE PUSH1 0x4 ADD PUSH2 0x5CA SWAP1 PUSH2 0x2583 JUMP JUMPDEST PUSH1 0x40 MLOAD DUP1 SWAP2 SUB SWAP1 REVERT JUMPDEST PUSH0 DUP5 GT PUSH2 0x615 JUMPI PUSH1 0x40 MLOAD PUSH32 0x8C379A000000000000000000000000000000000000000000000000000000000 DUP2 MSTORE PUSH1 0x4 ADD PUSH2 0x60C SWAP1 PUSH2 0x25EB JUMP JUMPDEST PUSH1 0x40 MLOAD DUP1 SWAP2 SUB SWAP1 REVERT JUMPDEST PUSH0 DUP2 GT PUSH2 0x657 JUMPI PUSH1 0x40 MLOAD PUSH32 0x8C379A000000000000000000000000000000000000000000000000000000000 DUP2 MSTORE PUSH1 0x4 ADD PUSH2 0x64E SWAP1 PUSH2 0x2653 JUMP JUMPDEST PUSH1 0x40 MLOAD DUP1 SWAP2 SUB SWAP1 REVERT JUMPDEST PUSH1 0x1 DUP4 LT ISZERO PUSH2 0x69B JUMPI PUSH1 0x40 MLOAD PUSH32 0x8C379A000000000000000000000000000000000000000000000000000000000 DUP2 MSTORE PUSH1 0x4 ADD PUSH2 0x692 SWAP1 PUSH2 0x26BB JUMP JUMPDEST PUSH1 0x40 MLOAD DUP1 SWAP2 SUB SWAP1 REVERT JUMPDEST DUP5 DUP5 LT ISZERO PUSH2 0x6DE JUMPI PUSH1 0x40 MLOAD PUSH32 0x8C379A000000000000000000000000000000000000000000000000000000000 DUP2 MSTORE PUSH1 0x4 ADD PUSH2 0x6D5 SWAP1 PUSH2 0x2723 JUMP JUMPDEST PUSH1 0x40 MLOAD DUP1 SWAP2 SUB SWAP1 REVERT JUMPDEST DUP1 PUSH2 0x6E7 PUSH2 0x125A JUMP JUMPDEST LT ISZERO PUSH2 0x728 JUMPI PUSH1 0x40 MLOAD PUSH32 0x8C379A000000000000000000000000000000000000000000000000000000000 DUP2 MSTORE PUSH1 0x4 ADD PUSH2 0x71F SWAP1 PUSH2 0x27B1 JUMP JUMPDEST PUSH1 0x40 MLOAD DUP1 SWAP2 SUB SWAP1 REVERT JUMPDEST PUSH0 PUSH2 0x732 DUP9 PUSH2 0x18A4 JUMP JUMPDEST SWAP1 POP PUSH0 DUP7 DUP9 PUSH2 0x741 SWAP2 SWAP1 PUSH2 0x27CF JUMP JUMPDEST SWAP1 POP PUSH1 0x40 MLOAD DUP1 PUSH2 0x140 ADD PUSH1 0x40 MSTORE DUP1 PUSH1 0x1 ISZERO ISZERO DUP2 MSTORE PUSH1 0x20 ADD DUP11 PUSH20 0xFFFFFFFFFFFFFFFFFFFFFFFFFFFFFFFFFFFFFFFF AND DUP2 MSTORE PUSH1 0x20 ADD DUP3 DUP2 MSTORE PUSH1 0x20 ADD DUP10 DUP2 MSTORE PUSH1 0x20 ADD DUP8 DUP2 MSTORE PUSH1 0x20 ADD DUP7 DUP2 MSTORE PUSH1 0x20 ADD DUP6 ISZERO ISZERO DUP2 MSTORE PUSH1 0x20 ADD DUP5 DUP2 MSTORE PUSH1 0x20 ADD PUSH0 DUP2 MSTORE PUSH1 0x20 ADD PUSH0 ISZERO ISZERO DUP2 MSTORE POP PUSH1 0x3 PUSH0 DUP5 DUP2 MSTORE PUSH1 0x20 ADD SWAP1 DUP2 MSTORE PUSH1 0x20 ADD PUSH0 KECCAK256 PUSH0 DUP3 ADD MLOAD DUP2 PUSH0 ADD PUSH0 PUSH2 0x100 EXP DUP2 SLOAD DUP2 PUSH1 0xFF MUL NOT AND SWAP1 DUP4 ISZERO ISZERO MUL OR SWAP1 SSTORE POP PUSH1 0x20 DUP3 ADD MLOAD DUP2 PUSH0 ADD PUSH1 0x1 PUSH2 0x100 EXP DUP2 SLOAD DUP2 PUSH20 0xFFFFFFFFFFFFFFFFFFFFFFFFFFFFFFFFFFFFFFFF MUL NOT AND SWAP1 DUP4 PUSH20 0xFFFFFFFFFFFFFFFFFFFFFFFFFFFFFFFFFFFFFFFF AND MUL OR SWAP1 SSTORE POP PUSH1 0x40 DUP3 ADD MLOAD DUP2 PUSH1 0x1 ADD SSTORE PUSH1 0x60 DUP3 ADD MLOAD DUP2 PUSH1 0x2 ADD SSTORE PUSH1 0x80 DUP3 ADD MLOAD DUP2 PUSH1 0x3 ADD SSTORE PUSH1 0xA0 DUP3 ADD MLOAD DUP2 PUSH1 0x4 ADD SSTORE PUSH1 0xC0 DUP3 ADD MLOAD DUP2 PUSH1 0x5 ADD PUSH0 PUSH2 0x100 EXP DUP2 SLOAD DUP2 PUSH1 0xFF MUL NOT AND SWAP1 DUP4 ISZERO ISZERO MUL OR SWAP1 SSTORE POP PUSH1 0xE0 DUP3 ADD MLOAD DUP2 PUSH1 0x6 ADD SSTORE PUSH2 0x100 DUP3 ADD MLOAD DUP2 PUSH1 0x7 ADD SSTORE PUSH2 0x120 DUP3 ADD MLOAD DUP2 PUSH1 0x8 ADD PUSH0 PUSH2 0x100 EXP DUP2 SLOAD DUP2 PUSH1 0xFF MUL NOT AND SWAP1 DUP4 ISZERO ISZERO MUL OR SWAP1 SSTORE POP SWAP1 POP POP DUP3 PUSH1 0x6 PUSH0 DUP3 DUP3 SLOAD PUSH2 0x8AA SWAP2 SWAP1 PUSH2 0x27CF JUMP JUMPDEST SWAP3 POP POP DUP2 SWAP1 SSTORE POP PUSH1 0x5 DUP3 SWAP1 DUP1 PUSH1 0x1 DUP2 SLOAD ADD DUP1 DUP3 SSTORE DUP1 SWAP2 POP POP PUSH1 0x1 SWAP1 SUB SWAP1 PUSH0 MSTORE PUSH1 0x20 PUSH0 KECCAK256 ADD PUSH0 SWAP1 SWAP2 SWAP1 SWAP2 SWAP1 SWAP2 POP SSTORE PUSH0 PUSH1 0x4 PUSH0 DUP12 PUSH20 0xFFFFFFFFFFFFFFFFFFFFFFFFFFFFFFFFFFFFFFFF AND PUSH20 0xFFFFFFFFFFFFFFFFFFFFFFFFFFFFFFFFFFFFFFFF AND DUP2 MSTORE PUSH1 0x20 ADD SWAP1 DUP2 MSTORE PUSH1 0x20 ADD PUSH0 KECCAK256 SLOAD SWAP1 POP PUSH1 0x1 DUP2 PUSH2 0x925 SWAP2 SWAP1 PUSH2 0x27CF JUMP JUMPDEST PUSH1 0x4 PUSH0 DUP13 PUSH20 0xFFFFFFFFFFFFFFFFFFFFFFFFFFFFFFFFFFFFFFFF AND PUSH20 0xFFFFFFFFFFFFFFFFFFFFFFFFFFFFFFFFFFFFFFFF AND DUP2 MSTORE PUSH1 0x20 ADD SWAP1 DUP2 MSTORE PUSH1 0x20 ADD PUSH0 KECCAK256 DUP2 SWAP1 SSTORE POP DUP10 PUSH20 0xFFFFFFFFFFFFFFFFFFFFFFFFFFFFFFFFFFFFFFFF AND DUP4 PUSH32 0x5DD2F0F5121D44031A18F4EC7685B97CE3BD9400FEDA582818AA28501F1FCF8C DUP5 DUP13 DUP12 DUP12 DUP12 DUP12 PUSH1 0x40 MLOAD PUSH2 0x9B7 SWAP7 SWAP6 SWAP5 SWAP4 SWAP3 SWAP2 SWAP1 PUSH2 0x2802 JUMP JUMPDEST PUSH1 0x40 MLOAD DUP1 SWAP2 SUB SWAP1 LOG3 POP POP POP POP POP POP POP POP POP POP JUMP JUMPDEST PUSH1 0x60 PUSH0 PUSH1 0x4 PUSH0 DUP5 PUSH20 0xFFFFFFFFFFFFFFFFFFFFFFFFFFFFFFFFFFFFFFFF AND PUSH20 0xFFFFFFFFFFFFFFFFFFFFFFFFFFFFFFFFFFFFFFFF AND DUP2 MSTORE PUSH1 0x20 ADD SWAP1 DUP2 MSTORE PUSH1 0x20 ADD PUSH0 KECCAK256 SLOAD SWAP1 POP PUSH0 DUP2 PUSH8 0xFFFFFFFFFFFFFFFF DUP2 GT ISZERO PUSH2 0xA29 JUMPI PUSH2 0xA28 PUSH2 0x2861 JUMP JUMPDEST JUMPDEST PUSH1 0x40 MLOAD SWAP1 DUP1 DUP3 MSTORE DUP1 PUSH1 0x20 MUL PUSH1 0x20 ADD DUP3 ADD PUSH1 0x40 MSTORE DUP1 ISZERO PUSH2 0xA62 JUMPI DUP2 PUSH1 0x20 ADD JUMPDEST PUSH2 0xA4F PUSH2 0x1D2F JUMP JUMPDEST DUP2 MSTORE PUSH1 0x20 ADD SWAP1 PUSH1 0x1 SWAP1 SUB SWAP1 DUP2 PUSH2 0xA47 JUMPI SWAP1 POP JUMPDEST POP SWAP1 POP PUSH0 PUSH0 SWAP1 POP JUMPDEST DUP3 DUP2 LT ISZERO PUSH2 0xAA7 JUMPI PUSH2 0xA7C DUP6 DUP3 PUSH2 0x1882 JUMP JUMPDEST DUP3 DUP3 DUP2 MLOAD DUP2 LT PUSH2 0xA8F JUMPI PUSH2 0xA8E PUSH2 0x288E JUMP JUMPDEST JUMPDEST PUSH1 0x20 MUL PUSH1 0x20 ADD ADD DUP2 SWAP1 MSTORE POP DUP1 DUP1 PUSH1 0x1 ADD SWAP2 POP POP PUSH2 0xA6A JUMP JUMPDEST POP DUP1 SWAP3 POP POP POP SWAP2 SWAP1 POP JUMP JUMPDEST PUSH2 0xABA PUSH2 0x1984 JUMP JUMPDEST DUP1 PUSH2 0xAC3 PUSH2 0x125A JUMP JUMPDEST LT ISZERO PUSH2 0xB04 JUMPI PUSH1 0x40 MLOAD PUSH32 0x8C379A000000000000000000000000000000000000000000000000000000000 DUP2 MSTORE PUSH1 0x4 ADD PUSH2 0xAFB SWAP1 PUSH2 0x2905 JUMP JUMPDEST PUSH1 0x40 MLOAD DUP1 SWAP2 SUB SWAP1 REVERT JUMPDEST PUSH2 0xB57 PUSH2 0xB0F PUSH2 0x1233 JUMP JUMPDEST DUP3 PUSH1 0x2 PUSH0 SWAP1 SLOAD SWAP1 PUSH2 0x100 EXP SWAP1 DIV PUSH20 0xFFFFFFFFFFFFFFFFFFFFFFFFFFFFFFFFFFFFFFFF AND PUSH20 0xFFFFFFFFFFFFFFFFFFFFFFFFFFFFFFFFFFFFFFFF AND PUSH2 0x1A0B SWAP1 SWAP3 SWAP2 SWAP1 PUSH4 0xFFFFFFFF AND JUMP JUMPDEST POP JUMP JUMPDEST PUSH0 PUSH0 PUSH0 PUSH0 PUSH1 0x4 PUSH0 DUP7 PUSH20 0xFFFFFFFFFFFFFFFFFFFFFFFFFFFFFFFFFFFFFFFF AND PUSH20 0xFFFFFFFFFFFFFFFFFFFFFFFFFFFFFFFFFFFFFFFF AND DUP2 MSTORE PUSH1 0x20 ADD SWAP1 DUP2 MSTORE PUSH1 0x20 ADD PUSH0 KECCAK256 SLOAD SWAP1 POP PUSH0 PUSH0 SWAP1 POP JUMPDEST DUP2 DUP2 LT ISZERO PUSH2 0xD2F JUMPI PUSH0 PUSH2 0xBB6 DUP8 DUP4 PUSH2 0x1201 JUMP JUMPDEST SWAP1 POP PUSH0 PUSH1 0x3 PUSH0 DUP4 DUP2 MSTORE PUSH1 0x20 ADD SWAP1 DUP2 MSTORE PUSH1 0x20 ADD PUSH0 KECCAK256 SWAP1 POP DUP1 PUSH0 ADD PUSH0 SWAP1 SLOAD SWAP1 PUSH2 0x100 EXP SWAP1 DIV PUSH1 0xFF AND DUP1 ISZERO PUSH2 0xBF6 JUMPI POP DUP1 PUSH1 0x8 ADD PUSH0 SWAP1 SLOAD SWAP1 PUSH2 0x100 EXP SWAP1 DIV PUSH1 0xFF AND ISZERO JUMPDEST ISZERO PUSH2 0xD20 JUMPI DUP1 PUSH1 0x6 ADD SLOAD DUP8 PUSH2 0xC0B SWAP2 SWAP1 PUSH2 0x27CF JUMP JUMPDEST SWAP7 POP DUP1 PUSH1 0x7 ADD SLOAD DUP7 PUSH2 0xC1D SWAP2 SWAP1 PUSH2 0x27CF JUMP JUMPDEST SWAP6 POP PUSH2 0xD12 DUP2 PUSH1 0x40 MLOAD DUP1 PUSH2 0x140 ADD PUSH1 0x40 MSTORE SWAP1 DUP2 PUSH0 DUP3 ADD PUSH0 SWAP1 SLOAD SWAP1 PUSH2 0x100 EXP SWAP1 DIV PUSH1 0xFF AND ISZERO ISZERO ISZERO ISZERO DUP2 MSTORE PUSH1 0x20 ADD PUSH0 DUP3 ADD PUSH1 0x1 SWAP1 SLOAD SWAP1 PUSH2 0x100 EXP SWAP1 DIV PUSH20 0xFFFFFFFFFFFFFFFFFFFFFFFFFFFFFFFFFFFFFFFF AND PUSH20 0xFFFFFFFFFFFFFFFFFFFFFFFFFFFFFFFFFFFFFFFF AND PUSH20 0xFFFFFFFFFFFFFFFFFFFFFFFFFFFFFFFFFFFFFFFF AND DUP2 MSTORE PUSH1 0x20 ADD PUSH1 0x1 DUP3 ADD SLOAD DUP2 MSTORE PUSH1 0x20 ADD PUSH1 0x2 DUP3 ADD SLOAD DUP2 MSTORE PUSH1 0x20 ADD PUSH1 0x3 DUP3 ADD SLOAD DUP2 MSTORE PUSH1 0x20 ADD PUSH1 0x4 DUP3 ADD SLOAD DUP2 MSTORE PUSH1 0x20 ADD PUSH1 0x5 DUP3 ADD PUSH0 SWAP1 SLOAD SWAP1 PUSH2 0x100 EXP SWAP1 DIV PUSH1 0xFF AND ISZERO ISZERO ISZERO ISZERO DUP2 MSTORE PUSH1 0x20 ADD PUSH1 0x6 DUP3 ADD SLOAD DUP2 MSTORE PUSH1 0x20 ADD PUSH1 0x7 DUP3 ADD SLOAD DUP2 MSTORE PUSH1 0x20 ADD PUSH1 0x8 DUP3 ADD PUSH0 SWAP1 SLOAD SWAP1 PUSH2 0x100 EXP SWAP1 DIV PUSH1 0xFF AND ISZERO ISZERO ISZERO ISZERO DUP2 MSTORE POP POP PUSH2 0x1A8A JUMP JUMPDEST DUP6 PUSH2 0xD1D SWAP2 SWAP1 PUSH2 0x27CF JUMP JUMPDEST SWAP5 POP JUMPDEST POP POP DUP1 DUP1 PUSH1 0x1 ADD SWAP2 POP POP PUSH2 0xBA3 JUMP JUMPDEST POP SWAP2 SWAP4 POP SWAP2 SWAP4 JUMP JUMPDEST PUSH1 0x4 PUSH1 0x20 MSTORE DUP1 PUSH0 MSTORE PUSH1 0x40 PUSH0 KECCAK256 PUSH0 SWAP2 POP SWAP1 POP SLOAD DUP2 JUMP JUMPDEST PUSH0 PUSH1 0x4 PUSH0 DUP4 PUSH20 0xFFFFFFFFFFFFFFFFFFFFFFFFFFFFFFFFFFFFFFFF AND PUSH20 0xFFFFFFFFFFFFFFFFFFFFFFFFFFFFFFFFFFFFFFFF AND DUP2 MSTORE PUSH1 0x20 ADD SWAP1 DUP2 MSTORE PUSH1 0x20 ADD PUSH0 KECCAK256 SLOAD SWAP1 POP SWAP2 SWAP1 POP JUMP JUMPDEST PUSH1 0x3 PUSH1 0x20 MSTORE DUP1 PUSH0 MSTORE PUSH1 0x40 PUSH0 KECCAK256 PUSH0 SWAP2 POP SWAP1 POP DUP1 PUSH0 ADD PUSH0 SWAP1 SLOAD SWAP1 PUSH2 0x100 EXP SWAP1 DIV PUSH1 0xFF AND SWAP1 DUP1 PUSH0 ADD PUSH1 0x1 SWAP1 SLOAD SWAP1 PUSH2 0x100 EXP SWAP1 DIV PUSH20 0xFFFFFFFFFFFFFFFFFFFFFFFFFFFFFFFFFFFFFFFF AND SWAP1 DUP1 PUSH1 0x1 ADD SLOAD SWAP1 DUP1 PUSH1 0x2 ADD SLOAD SWAP1 DUP1 PUSH1 0x3 ADD SLOAD SWAP1 DUP1 PUSH1 0x4 ADD SLOAD SWAP1 DUP1 PUSH1 0x5 ADD PUSH0 SWAP1 SLOAD SWAP1 PUSH2 0x100 EXP SWAP1 DIV PUSH1 0xFF AND SWAP1 DUP1 PUSH1 0x6 ADD SLOAD SWAP1 DUP1 PUSH1 0x7 ADD SLOAD SWAP1 DUP1 PUSH1 0x8 ADD PUSH0 SWAP1 SLOAD SWAP1 PUSH2 0x100 EXP SWAP1 DIV PUSH1 0xFF AND SWAP1 POP DUP11 JUMP JUMPDEST PUSH2 0xE2D PUSH2 0x1B74 JUMP JUMPDEST PUSH0 PUSH1 0x3 PUSH0 DUP5 DUP2 MSTORE PUSH1 0x20 ADD SWAP1 DUP2 MSTORE PUSH1 0x20 ADD PUSH0 KECCAK256 SWAP1 POP DUP1 PUSH0 ADD PUSH0 SWAP1 SLOAD SWAP1 PUSH2 0x100 EXP SWAP1 DIV PUSH1 0xFF AND PUSH2 0xE90 JUMPI PUSH1 0x40 MLOAD PUSH32 0x8C379A000000000000000000000000000000000000000000000000000000000 DUP2 MSTORE PUSH1 0x4 ADD PUSH2 0xE87 SWAP1 PUSH2 0x296D JUMP JUMPDEST PUSH1 0x40 MLOAD DUP1 SWAP2 SUB SWAP1 REVERT JUMPDEST PUSH0 DUP2 PUSH0 ADD PUSH1 0x1 SWAP1 SLOAD SWAP1 PUSH2 0x100 EXP SWAP1 DIV PUSH20 0xFFFFFFFFFFFFFFFFFFFFFFFFFFFFFFFFFFFFFFFF AND PUSH20 0xFFFFFFFFFFFFFFFFFFFFFFFFFFFFFFFFFFFFFFFF AND CALLER PUSH20 0xFFFFFFFFFFFFFFFFFFFFFFFFFFFFFFFFFFFFFFFF AND EQ SWAP1 POP PUSH0 PUSH2 0xEEE PUSH2 0x1233 JUMP JUMPDEST PUSH20 0xFFFFFFFFFFFFFFFFFFFFFFFFFFFFFFFFFFFFFFFF AND CALLER PUSH20 0xFFFFFFFFFFFFFFFFFFFFFFFFFFFFFFFFFFFFFFFF AND EQ SWAP1 POP DUP2 DUP1 PUSH2 0xF27 JUMPI POP DUP1 JUMPDEST PUSH2 0xF66 JUMPI PUSH1 0x40 MLOAD PUSH32 0x8C379A000000000000000000000000000000000000000000000000000000000 DUP2 MSTORE PUSH1 0x4 ADD PUSH2 0xF5D SWAP1 PUSH2 0x29FB JUMP JUMPDEST PUSH1 0x40 MLOAD DUP1 SWAP2 SUB SWAP1 REVERT JUMPDEST PUSH0 PUSH2 0x105A DUP5 PUSH1 0x40 MLOAD DUP1 PUSH2 0x140 ADD PUSH1 0x40 MSTORE SWAP1 DUP2 PUSH0 DUP3 ADD PUSH0 SWAP1 SLOAD SWAP1 PUSH2 0x100 EXP SWAP1 DIV PUSH1 0xFF AND ISZERO ISZERO ISZERO ISZERO DUP2 MSTORE PUSH1 0x20 ADD PUSH0 DUP3 ADD PUSH1 0x1 SWAP1 SLOAD SWAP1 PUSH2 0x100 EXP SWAP1 DIV PUSH20 0xFFFFFFFFFFFFFFFFFFFFFFFFFFFFFFFFFFFFFFFF AND PUSH20 0xFFFFFFFFFFFFFFFFFFFFFFFFFFFFFFFFFFFFFFFF AND PUSH20 0xFFFFFFFFFFFFFFFFFFFFFFFFFFFFFFFFFFFFFFFF AND DUP2 MSTORE PUSH1 0x20 ADD PUSH1 0x1 DUP3 ADD SLOAD DUP2 MSTORE PUSH1 0x20 ADD PUSH1 0x2 DUP3 ADD SLOAD DUP2 MSTORE PUSH1 0x20 ADD PUSH1 0x3 DUP3 ADD SLOAD DUP2 MSTORE PUSH1 0x20 ADD PUSH1 0x4 DUP3 ADD SLOAD DUP2 MSTORE PUSH1 0x20 ADD PUSH1 0x5 DUP3 ADD PUSH0 SWAP1 SLOAD SWAP1 PUSH2 0x100 EXP SWAP1 DIV PUSH1 0xFF AND ISZERO ISZERO ISZERO ISZERO DUP2 MSTORE PUSH1 0x20 ADD PUSH1 0x6 DUP3 ADD SLOAD DUP2 MSTORE PUSH1 0x20 ADD PUSH1 0x7 DUP3 ADD SLOAD DUP2 MSTORE PUSH1 0x20 ADD PUSH1 0x8 DUP3 ADD PUSH0 SWAP1 SLOAD SWAP1 PUSH2 0x100 EXP SWAP1 DIV PUSH1 0xFF AND ISZERO ISZERO ISZERO ISZERO DUP2 MSTORE POP POP PUSH2 0x1A8A JUMP JUMPDEST SWAP1 POP DUP5 DUP2 LT ISZERO PUSH2 0x109F JUMPI PUSH1 0x40 MLOAD PUSH32 0x8C379A000000000000000000000000000000000000000000000000000000000 DUP2 MSTORE PUSH1 0x4 ADD PUSH2 0x1096 SWAP1 PUSH2 0x2A89 JUMP JUMPDEST PUSH1 0x40 MLOAD DUP1 SWAP2 SUB SWAP1 REVERT JUMPDEST DUP5 DUP5 PUSH1 0x7 ADD PUSH0 DUP3 DUP3 SLOAD PUSH2 0x10B2 SWAP2 SWAP1 PUSH2 0x27CF JUMP JUMPDEST SWAP3 POP POP DUP2 SWAP1 SSTORE POP DUP5 PUSH1 0x6 PUSH0 DUP3 DUP3 SLOAD PUSH2 0x10CA SWAP2 SWAP1 PUSH2 0x24D0 JUMP JUMPDEST SWAP3 POP POP DUP2 SWAP1 SSTORE POP PUSH2 0x1140 DUP5 PUSH0 ADD PUSH1 0x1 SWAP1 SLOAD SWAP1 PUSH2 0x100 EXP SWAP1 DIV PUSH20 0xFFFFFFFFFFFFFFFFFFFFFFFFFFFFFFFFFFFFFFFF AND DUP7 PUSH1 0x2 PUSH0 SWAP1 SLOAD SWAP1 PUSH2 0x100 EXP SWAP1 DIV PUSH20 0xFFFFFFFFFFFFFFFFFFFFFFFFFFFFFFFFFFFFFFFF AND PUSH20 0xFFFFFFFFFFFFFFFFFFFFFFFFFFFFFFFFFFFFFFFF AND PUSH2 0x1A0B SWAP1 SWAP3 SWAP2 SWAP1 PUSH4 0xFFFFFFFF AND JUMP JUMPDEST DUP4 PUSH0 ADD PUSH1 0x1 SWAP1 SLOAD SWAP1 PUSH2 0x100 EXP SWAP1 DIV PUSH20 0xFFFFFFFFFFFFFFFFFFFFFFFFFFFFFFFFFFFFFFFF AND PUSH20 0xFFFFFFFFFFFFFFFFFFFFFFFFFFFFFFFFFFFFFFFF AND DUP7 PUSH32 0x62EB4BD96D9A7A66875A9F46F9F9D8BF6CFED3FE0578671B752301427D2A4F66 DUP8 PUSH1 0x40 MLOAD PUSH2 0x11AA SWAP2 SWAP1 PUSH2 0x2190 JUMP JUMPDEST PUSH1 0x40 MLOAD DUP1 SWAP2 SUB SWAP1 LOG3 POP POP POP POP PUSH2 0x11BE PUSH2 0x1BC3 JUMP JUMPDEST POP POP JUMP JUMPDEST PUSH0 PUSH1 0x5 DUP1 SLOAD SWAP1 POP SWAP1 POP SWAP1 JUMP JUMPDEST PUSH2 0x11D6 PUSH2 0x1984 JUMP JUMPDEST PUSH2 0x11DF PUSH0 PUSH2 0x1BCC JUMP JUMPDEST JUMP JUMPDEST PUSH1 0x5 DUP2 DUP2 SLOAD DUP2 LT PUSH2 0x11F0 JUMPI PUSH0 DUP1 REVERT JUMPDEST SWAP1 PUSH0 MSTORE PUSH1 0x20 PUSH0 KECCAK256 ADD PUSH0 SWAP2 POP SWAP1 POP SLOAD DUP2 JUMP JUMPDEST PUSH0 DUP3 DUP3 PUSH1 0x40 MLOAD PUSH1 0x20 ADD PUSH2 0x1215 SWAP3 SWAP2 SWAP1 PUSH2 0x2B0C JUMP JUMPDEST PUSH1 0x40 MLOAD PUSH1 0x20 DUP2 DUP4 SUB SUB DUP2 MSTORE SWAP1 PUSH1 0x40 MSTORE DUP1 MLOAD SWAP1 PUSH1 0x20 ADD KECCAK256 SWAP1 POP SWAP3 SWAP2 POP POP JUMP JUMPDEST PUSH0 PUSH0 PUSH0 SWAP1 SLOAD SWAP1 PUSH2 0x100 EXP SWAP1 DIV PUSH20 0xFFFFFFFFFFFFFFFFFFFFFFFFFFFFFFFFFFFFFFFF AND SWAP1 POP SWAP1 JUMP JUMPDEST PUSH0 PUSH1 0x6 SLOAD PUSH1 0x2 PUSH0 SWAP1 SLOAD SWAP1 PUSH2 0x100 EXP SWAP1 DIV PUSH20 0xFFFFFFFFFFFFFFFFFFFFFFFFFFFFFFFFFFFFFFFF AND PUSH20 0xFFFFFFFFFFFFFFFFFFFFFFFFFFFFFFFFFFFFFFFF AND PUSH4 0x70A08231 ADDRESS PUSH1 0x40 MLOAD DUP3 PUSH4 0xFFFFFFFF AND PUSH1 0xE0 SHL DUP2 MSTORE PUSH1 0x4 ADD PUSH2 0x12B8 SWAP2 SWAP1 PUSH2 0x2332 JUMP JUMPDEST PUSH1 0x20 PUSH1 0x40 MLOAD DUP1 DUP4 SUB DUP2 DUP7 GAS STATICCALL ISZERO DUP1 ISZERO PUSH2 0x12D3 JUMPI RETURNDATASIZE PUSH0 PUSH0 RETURNDATACOPY RETURNDATASIZE PUSH0 REVERT JUMPDEST POP POP POP POP PUSH1 0x40 MLOAD RETURNDATASIZE PUSH1 0x1F NOT PUSH1 0x1F DUP3 ADD AND DUP3 ADD DUP1 PUSH1 0x40 MSTORE POP DUP2 ADD SWAP1 PUSH2 0x12F7 SWAP2 SWAP1 PUSH2 0x2B4B JUMP JUMPDEST PUSH2 0x1301 SWAP2 SWAP1 PUSH2 0x24D0 JUMP JUMPDEST SWAP1 POP SWAP1 JUMP JUMPDEST PUSH1 0x6 SLOAD DUP2 JUMP JUMPDEST PUSH2 0x1314 PUSH2 0x1D2F JUMP JUMPDEST PUSH1 0x3 PUSH0 DUP4 DUP2 MSTORE PUSH1 0x20 ADD SWAP1 DUP2 MSTORE PUSH1 0x20 ADD PUSH0 KECCAK256 PUSH1 0x40 MLOAD DUP1 PUSH2 0x140 ADD PUSH1 0x40 MSTORE SWAP1 DUP2 PUSH0 DUP3 ADD PUSH0 SWAP1 SLOAD SWAP1 PUSH2 0x100 EXP SWAP1 DIV PUSH1 0xFF AND ISZERO ISZERO ISZERO ISZERO DUP2 MSTORE PUSH1 0x20 ADD PUSH0 DUP3 ADD PUSH1 0x1 SWAP1 SLOAD SWAP1 PUSH2 0x100 EXP SWAP1 DIV PUSH20 0xFFFFFFFFFFFFFFFFFFFFFFFFFFFFFFFFFFFFFFFF AND PUSH20 0xFFFFFFFFFFFFFFFFFFFFFFFFFFFFFFFFFFFFFFFF AND PUSH20 0xFFFFFFFFFFFFFFFFFFFFFFFFFFFFFFFFFFFFFFFF AND DUP2 MSTORE PUSH1 0x20 ADD PUSH1 0x1 DUP3 ADD SLOAD DUP2 MSTORE PUSH1 0x20 ADD PUSH1 0x2 DUP3 ADD SLOAD DUP2 MSTORE PUSH1 0x20 ADD PUSH1 0x3 DUP3 ADD SLOAD DUP2 MSTORE PUSH1 0x20 ADD PUSH1 0x4 DUP3 ADD SLOAD DUP2 MSTORE PUSH1 0x20 ADD PUSH1 0x5 DUP3 ADD PUSH0 SWAP1 SLOAD SWAP1 PUSH2 0x100 EXP SWAP1 DIV PUSH1 0xFF AND ISZERO ISZERO ISZERO ISZERO DUP2 MSTORE PUSH1 0x20 ADD PUSH1 0x6 DUP3 ADD SLOAD DUP2 MSTORE PUSH1 0x20 ADD PUSH1 0x7 DUP3 ADD SLOAD DUP2 MSTORE PUSH1 0x20 ADD PUSH1 0x8 DUP3 ADD PUSH0 SWAP1 SLOAD SWAP1 PUSH2 0x100 EXP SWAP1 DIV PUSH1 0xFF AND ISZERO ISZERO ISZERO ISZERO DUP2 MSTORE POP POP SWAP1 POP SWAP2 SWAP1 POP JUMP JUMPDEST PUSH2 0x141E PUSH2 0x1984 JUMP JUMPDEST PUSH0 PUSH1 0x3 PUSH0 DUP4 DUP2 MSTORE PUSH1 0x20 ADD SWAP1 DUP2 MSTORE PUSH1 0x20 ADD PUSH0 KECCAK256 SWAP1 POP DUP1 PUSH0 ADD PUSH0 SWAP1 SLOAD SWAP1 PUSH2 0x100 EXP SWAP1 DIV PUSH1 0xFF AND PUSH2 0x1481 JUMPI PUSH1 0x40 MLOAD PUSH32 0x8C379A000000000000000000000000000000000000000000000000000000000 DUP2 MSTORE PUSH1 0x4 ADD PUSH2 0x1478 SWAP1 PUSH2 0x296D JUMP JUMPDEST PUSH1 0x40 MLOAD DUP1 SWAP2 SUB SWAP1 REVERT JUMPDEST DUP1 PUSH1 0x5 ADD PUSH0 SWAP1 SLOAD SWAP1 PUSH2 0x100 EXP SWAP1 DIV PUSH1 0xFF AND PUSH2 0x14D1 JUMPI PUSH1 0x40 MLOAD PUSH32 0x8C379A000000000000000000000000000000000000000000000000000000000 DUP2 MSTORE PUSH1 0x4 ADD PUSH2 0x14C8 SWAP1 PUSH2 0x2BC0 JUMP JUMPDEST PUSH1 0x40 MLOAD DUP1 SWAP2 SUB SWAP1 REVERT JUMPDEST DUP1 PUSH1 0x8 ADD PUSH0 SWAP1 SLOAD SWAP1 PUSH2 0x100 EXP SWAP1 DIV PUSH1 0xFF AND ISZERO PUSH2 0x1522 JUMPI PUSH1 0x40 MLOAD PUSH32 0x8C379A000000000000000000000000000000000000000000000000000000000 DUP2 MSTORE PUSH1 0x4 ADD PUSH2 0x1519 SWAP1 PUSH2 0x2C28 JUMP JUMPDEST PUSH1 0x40 MLOAD DUP1 SWAP2 SUB SWAP1 REVERT JUMPDEST PUSH0 PUSH2 0x1616 DUP3 PUSH1 0x40 MLOAD DUP1 PUSH2 0x140 ADD PUSH1 0x40 MSTORE SWAP1 DUP2 PUSH0 DUP3 ADD PUSH0 SWAP1 SLOAD SWAP1 PUSH2 0x100 EXP SWAP1 DIV PUSH1 0xFF AND ISZERO ISZERO ISZERO ISZERO DUP2 MSTORE PUSH1 0x20 ADD PUSH0 DUP3 ADD PUSH1 0x1 SWAP1 SLOAD SWAP1 PUSH2 0x100 EXP SWAP1 DIV PUSH20 0xFFFFFFFFFFFFFFFFFFFFFFFFFFFFFFFFFFFFFFFF AND PUSH20 0xFFFFFFFFFFFFFFFFFFFFFFFFFFFFFFFFFFFFFFFF AND PUSH20 0xFFFFFFFFFFFFFFFFFFFFFFFFFFFFFFFFFFFFFFFF AND DUP2 MSTORE PUSH1 0x20 ADD PUSH1 0x1 DUP3 ADD SLOAD DUP2 MSTORE PUSH1 0x20 ADD PUSH1 0x2 DUP3 ADD SLOAD DUP2 MSTORE PUSH1 0x20 ADD PUSH1 0x3 DUP3 ADD SLOAD DUP2 MSTORE PUSH1 0x20 ADD PUSH1 0x4 DUP3 ADD SLOAD DUP2 MSTORE PUSH1 0x20 ADD PUSH1 0x5 DUP3 ADD PUSH0 SWAP1 SLOAD SWAP1 PUSH2 0x100 EXP SWAP1 DIV PUSH1 0xFF AND ISZERO ISZERO ISZERO ISZERO DUP2 MSTORE PUSH1 0x20 ADD PUSH1 0x6 DUP3 ADD SLOAD DUP2 MSTORE PUSH1 0x20 ADD PUSH1 0x7 DUP3 ADD SLOAD DUP2 MSTORE PUSH1 0x20 ADD PUSH1 0x8 DUP3 ADD PUSH0 SWAP1 SLOAD SWAP1 PUSH2 0x100 EXP SWAP1 DIV PUSH1 0xFF AND ISZERO ISZERO ISZERO ISZERO DUP2 MSTORE POP POP PUSH2 0x1A8A JUMP JUMPDEST SWAP1 POP PUSH0 DUP2 GT ISZERO PUSH2 0x162B JUMPI PUSH2 0x162A DUP4 DUP3 PUSH2 0xE25 JUMP JUMPDEST JUMPDEST PUSH0 DUP3 PUSH1 0x7 ADD SLOAD DUP4 PUSH1 0x6 ADD SLOAD PUSH2 0x1640 SWAP2 SWAP1 PUSH2 0x24D0 JUMP JUMPDEST SWAP1 POP DUP1 PUSH1 0x6 PUSH0 DUP3 DUP3 SLOAD PUSH2 0x1653 SWAP2 SWAP1 PUSH2 0x24D0 JUMP JUMPDEST SWAP3 POP POP DUP2 SWAP1 SSTORE POP PUSH1 0x1 DUP4 PUSH1 0x8 ADD PUSH0 PUSH2 0x100 EXP DUP2 SLOAD DUP2 PUSH1 0xFF MUL NOT AND SWAP1 DUP4 ISZERO ISZERO MUL OR SWAP1 SSTORE POP DUP3 PUSH0 ADD PUSH1 0x1 SWAP1 SLOAD SWAP1 PUSH2 0x100 EXP SWAP1 DIV PUSH20 0xFFFFFFFFFFFFFFFFFFFFFFFFFFFFFFFFFFFFFFFF AND PUSH20 0xFFFFFFFFFFFFFFFFFFFFFFFFFFFFFFFFFFFFFFFF AND DUP5 PUSH32 0xDBFC1FBE382EED671971D1C491D4108E66995DED4191EF7271701A283F1B05C6 DUP4 PUSH1 0x40 MLOAD PUSH2 0x16E0 SWAP2 SWAP1 PUSH2 0x2190 JUMP JUMPDEST PUSH1 0x40 MLOAD DUP1 SWAP2 SUB SWAP1 LOG3 POP POP POP POP JUMP JUMPDEST PUSH0 PUSH0 PUSH1 0x3 PUSH0 DUP5 DUP2 MSTORE PUSH1 0x20 ADD SWAP1 DUP2 MSTORE PUSH1 0x20 ADD PUSH0 KECCAK256 SWAP1 POP PUSH2 0x17F6 DUP2 PUSH1 0x40 MLOAD DUP1 PUSH2 0x140 ADD PUSH1 0x40 MSTORE SWAP1 DUP2 PUSH0 DUP3 ADD PUSH0 SWAP1 SLOAD SWAP1 PUSH2 0x100 EXP SWAP1 DIV PUSH1 0xFF AND ISZERO ISZERO ISZERO ISZERO DUP2 MSTORE PUSH1 0x20 ADD PUSH0 DUP3 ADD PUSH1 0x1 SWAP1 SLOAD SWAP1 PUSH2 0x100 EXP SWAP1 DIV PUSH20 0xFFFFFFFFFFFFFFFFFFFFFFFFFFFFFFFFFFFFFFFF AND PUSH20 0xFFFFFFFFFFFFFFFFFFFFFFFFFFFFFFFFFFFFFFFF AND PUSH20 0xFFFFFFFFFFFFFFFFFFFFFFFFFFFFFFFFFFFFFFFF AND DUP2 MSTORE PUSH1 0x20 ADD PUSH1 0x1 DUP3 ADD SLOAD DUP2 MSTORE PUSH1 0x20 ADD PUSH1 0x2 DUP3 ADD SLOAD DUP2 MSTORE PUSH1 0x20 ADD PUSH1 0x3 DUP3 ADD SLOAD DUP2 MSTORE PUSH1 0x20 ADD PUSH1 0x4 DUP3 ADD SLOAD DUP2 MSTORE PUSH1 0x20 ADD PUSH1 0x5 DUP3 ADD PUSH0 SWAP1 SLOAD SWAP1 PUSH2 0x100 EXP SWAP1 DIV PUSH1 0xFF AND ISZERO ISZERO ISZERO ISZERO DUP2 MSTORE PUSH1 0x20 ADD PUSH1 0x6 DUP3 ADD SLOAD DUP2 MSTORE PUSH1 0x20 ADD PUSH1 0x7 DUP3 ADD SLOAD DUP2 MSTORE PUSH1 0x20 ADD PUSH1 0x8 DUP3 ADD PUSH0 SWAP1 SLOAD SWAP1 PUSH2 0x100 EXP SWAP1 DIV PUSH1 0xFF AND ISZERO ISZERO ISZERO ISZERO DUP2 MSTORE POP POP PUSH2 0x1A8A JUMP JUMPDEST SWAP2 POP POP SWAP2 SWAP1 POP JUMP JUMPDEST PUSH2 0x1806 PUSH2 0x1984 JUMP JUMPDEST PUSH0 PUSH20 0xFFFFFFFFFFFFFFFFFFFFFFFFFFFFFFFFFFFFFFFF AND DUP2 PUSH20 0xFFFFFFFFFFFFFFFFFFFFFFFFFFFFFFFFFFFFFFFF AND SUB PUSH2 0x1876 JUMPI PUSH0 PUSH1 0x40 MLOAD PUSH32 0x1E4FBDF700000000000000000000000000000000000000000000000000000000 DUP2 MSTORE PUSH1 0x4 ADD PUSH2 0x186D SWAP2 SWAP1 PUSH2 0x2332 JUMP JUMPDEST PUSH1 0x40 MLOAD DUP1 SWAP2 SUB SWAP1 REVERT JUMPDEST PUSH2 0x187F DUP2 PUSH2 0x1BCC JUMP JUMPDEST POP JUMP JUMPDEST PUSH2 0x188A PUSH2 0x1D2F JUMP JUMPDEST PUSH2 0x189C PUSH2 0x1897 DUP5 DUP5 PUSH2 0x1201 JUMP JUMPDEST PUSH2 0x130C JUMP JUMPDEST SWAP1 POP SWAP3 SWAP2 POP POP JUMP JUMPDEST PUSH0 PUSH2 0x18EC DUP3 PUSH1 0x4 PUSH0 DUP6 PUSH20 0xFFFFFFFFFFFFFFFFFFFFFFFFFFFFFFFFFFFFFFFF AND PUSH20 0xFFFFFFFFFFFFFFFFFFFFFFFFFFFFFFFFFFFFFFFF AND DUP2 MSTORE PUSH1 0x20 ADD SWAP1 DUP2 MSTORE PUSH1 0x20 ADD PUSH0 KECCAK256 SLOAD PUSH2 0x1201 JUMP JUMPDEST SWAP1 POP SWAP2 SWAP1 POP JUMP JUMPDEST PUSH0 PUSH1 0x5 DUP1 SLOAD SWAP1 POP DUP3 LT PUSH2 0x193B JUMPI PUSH1 0x40 MLOAD PUSH32 0x8C379A000000000000000000000000000000000000000000000000000000000 DUP2 MSTORE PUSH1 0x4 ADD PUSH2 0x1932 SWAP1 PUSH2 0x2C90 JUMP JUMPDEST PUSH1 0x40 MLOAD DUP1 SWAP2 SUB SWAP1 REVERT JUMPDEST PUSH1 0x5 DUP3 DUP2 SLOAD DUP2 LT PUSH2 0x194F JUMPI PUSH2 0x194E PUSH2 0x288E JUMP JUMPDEST JUMPDEST SWAP1 PUSH0 MSTORE PUSH1 0x20 PUSH0 KECCAK256 ADD SLOAD SWAP1 POP SWAP2 SWAP1 POP JUMP JUMPDEST PUSH1 0x2 PUSH0 SWAP1 SLOAD SWAP1 PUSH2 0x100 EXP SWAP1 DIV PUSH20 0xFFFFFFFFFFFFFFFFFFFFFFFFFFFFFFFFFFFFFFFF AND DUP2 JUMP JUMPDEST PUSH2 0x198C PUSH2 0x1C8D JUMP JUMPDEST PUSH20 0xFFFFFFFFFFFFFFFFFFFFFFFFFFFFFFFFFFFFFFFF AND PUSH2 0x19AA PUSH2 0x1233 JUMP JUMPDEST PUSH20 0xFFFFFFFFFFFFFFFFFFFFFFFFFFFFFFFFFFFFFFFF AND EQ PUSH2 0x1A09 JUMPI PUSH2 0x19CD PUSH2 0x1C8D JUMP JUMPDEST PUSH1 0x40 MLOAD PUSH32 0x118CDAA700000000000000000000000000000000000000000000000000000000 DUP2 MSTORE PUSH1 0x4 ADD PUSH2 0x1A00 SWAP2 SWAP1 PUSH2 0x2332 JUMP JUMPDEST PUSH1 0x40 MLOAD DUP1 SWAP2 SUB SWAP1 REVERT JUMPDEST JUMP JUMPDEST PUSH2 0x1A85 DUP4 DUP5 PUSH20 0xFFFFFFFFFFFFFFFFFFFFFFFFFFFFFFFFFFFFFFFF AND PUSH4 0xA9059CBB DUP6 DUP6 PUSH1 0x40 MLOAD PUSH1 0x24 ADD PUSH2 0x1A3E SWAP3 SWAP2 SWAP1 PUSH2 0x2CAE JUMP JUMPDEST PUSH1 0x40 MLOAD PUSH1 0x20 DUP2 DUP4 SUB SUB DUP2 MSTORE SWAP1 PUSH1 0x40 MSTORE SWAP2 POP PUSH1 0xE0 SHL PUSH1 0x20 DUP3 ADD DUP1 MLOAD PUSH28 0xFFFFFFFFFFFFFFFFFFFFFFFFFFFFFFFFFFFFFFFFFFFFFFFFFFFFFFFF DUP4 DUP2 DUP4 AND OR DUP4 MSTORE POP POP POP POP PUSH2 0x1C94 JUMP JUMPDEST POP POP POP JUMP JUMPDEST PUSH0 DUP2 PUSH0 ADD MLOAD ISZERO DUP1 PUSH2 0x1A9D JUMPI POP DUP2 PUSH2 0x120 ADD MLOAD JUMPDEST ISZERO PUSH2 0x1AAA JUMPI PUSH0 SWAP1 POP PUSH2 0x1B6F JUMP JUMPDEST PUSH0 TIMESTAMP SWAP1 POP DUP3 PUSH1 0x40 ADD MLOAD DUP2 LT ISZERO PUSH2 0x1AC3 JUMPI PUSH0 SWAP2 POP POP PUSH2 0x1B6F JUMP JUMPDEST DUP3 PUSH1 0x80 ADD MLOAD DUP4 PUSH1 0x60 ADD MLOAD PUSH2 0x1AD7 SWAP2 SWAP1 PUSH2 0x27CF JUMP JUMPDEST DUP2 LT PUSH2 0x1AFA JUMPI DUP3 PUSH2 0x100 ADD MLOAD DUP4 PUSH1 0xE0 ADD MLOAD PUSH2 0x1AF2 SWAP2 SWAP1 PUSH2 0x24D0 JUMP JUMPDEST SWAP2 POP POP PUSH2 0x1B6F JUMP JUMPDEST PUSH0 DUP4 PUSH1 0x60 ADD MLOAD DUP3 PUSH2 0x1B0B SWAP2 SWAP1 PUSH2 0x24D0 JUMP JUMPDEST SWAP1 POP PUSH0 DUP5 PUSH1 0xA0 ADD MLOAD SWAP1 POP PUSH0 DUP2 DUP4 PUSH2 0x1B22 SWAP2 SWAP1 PUSH2 0x2D02 JUMP JUMPDEST SWAP1 POP PUSH0 DUP3 DUP3 PUSH2 0x1B31 SWAP2 SWAP1 PUSH2 0x2D32 JUMP JUMPDEST SWAP1 POP PUSH0 DUP8 PUSH1 0x80 ADD MLOAD DUP3 DUP10 PUSH1 0xE0 ADD MLOAD PUSH2 0x1B49 SWAP2 SWAP1 PUSH2 0x2D32 JUMP JUMPDEST PUSH2 0x1B53 SWAP2 SWAP1 PUSH2 0x2D02 JUMP JUMPDEST SWAP1 POP DUP8 PUSH2 0x100 ADD MLOAD DUP2 PUSH2 0x1B66 SWAP2 SWAP1 PUSH2 0x24D0 JUMP JUMPDEST SWAP7 POP POP POP POP POP POP POP JUMPDEST SWAP2 SWAP1 POP JUMP JUMPDEST PUSH1 0x2 PUSH1 0x1 SLOAD SUB PUSH2 0x1BB9 JUMPI PUSH1 0x40 MLOAD PUSH32 0x8C379A000000000000000000000000000000000000000000000000000000000 DUP2 MSTORE PUSH1 0x4 ADD PUSH2 0x1BB0 SWAP1 PUSH2 0x2DBD JUMP JUMPDEST PUSH1 0x40 MLOAD DUP1 SWAP2 SUB SWAP1 REVERT JUMPDEST PUSH1 0x2 PUSH1 0x1 DUP2 SWAP1 SSTORE POP JUMP JUMPDEST PUSH1 0x1 DUP1 DUP2 SWAP1 SSTORE POP JUMP JUMPDEST PUSH0 PUSH0 PUSH0 SWAP1 SLOAD SWAP1 PUSH2 0x100 EXP SWAP1 DIV PUSH20 0xFFFFFFFFFFFFFFFFFFFFFFFFFFFFFFFFFFFFFFFF AND SWAP1 POP DUP2 PUSH0 PUSH0 PUSH2 0x100 EXP DUP2 SLOAD DUP2 PUSH20 0xFFFFFFFFFFFFFFFFFFFFFFFFFFFFFFFFFFFFFFFF MUL NOT AND SWAP1 DUP4 PUSH20 0xFFFFFFFFFFFFFFFFFFFFFFFFFFFFFFFFFFFFFFFF AND MUL OR SWAP1 SSTORE POP DUP2 PUSH20 0xFFFFFFFFFFFFFFFFFFFFFFFFFFFFFFFFFFFFFFFF AND DUP2 PUSH20 0xFFFFFFFFFFFFFFFFFFFFFFFFFFFFFFFFFFFFFFFF AND PUSH32 0x8BE0079C531659141344CD1FD0A4F28419497F9722A3DAAFE3B4186F6B6457E0 PUSH1 0x40 MLOAD PUSH1 0x40 MLOAD DUP1 SWAP2 SUB SWAP1 LOG3 POP POP JUMP JUMPDEST PUSH0 CALLER SWAP1 POP SWAP1 JUMP JUMPDEST PUSH0 PUSH0 PUSH1 0x20 PUSH0 DUP5 MLOAD PUSH1 0x20 DUP7 ADD PUSH0 DUP9 GAS CALL DUP1 PUSH2 0x1CB3 JUMPI PUSH1 0x40 MLOAD RETURNDATASIZE PUSH0 DUP3 RETURNDATACOPY RETURNDATASIZE DUP2 REVERT JUMPDEST RETURNDATASIZE SWAP3 POP PUSH0 MLOAD SWAP2 POP POP PUSH0 DUP3 EQ PUSH2 0x1CCC JUMPI PUSH1 0x1 DUP2 EQ ISZERO PUSH2 0x1CE7 JUMP JUMPDEST PUSH0 DUP5 PUSH20 0xFFFFFFFFFFFFFFFFFFFFFFFFFFFFFFFFFFFFFFFF AND EXTCODESIZE EQ JUMPDEST ISZERO PUSH2 0x1D29 JUMPI DUP4 PUSH1 0x40 MLOAD PUSH32 0x5274AFE700000000000000000000000000000000000000000000000000000000 DUP2 MSTORE PUSH1 0x4 ADD PUSH2 0x1D20 SWAP2 SWAP1 PUSH2 0x2332 JUMP JUMPDEST PUSH1 0x40 MLOAD DUP1 SWAP2 SUB SWAP1 REVERT JUMPDEST POP POP POP POP JUMP JUMPDEST PUSH1 0x40 MLOAD DUP1 PUSH2 0x140 ADD PUSH1 0x40 MSTORE DUP1 PUSH0 ISZERO ISZERO DUP2 MSTORE PUSH1 0x20 ADD PUSH0 PUSH20 0xFFFFFFFFFFFFFFFFFFFFFFFFFFFFFFFFFFFFFFFF AND DUP2 MSTORE PUSH1 0x20 ADD PUSH0 DUP2 MSTORE PUSH1 0x20 ADD PUSH0 DUP2 MSTORE PUSH1 0x20 ADD PUSH0 DUP2 MSTORE PUSH1 0x20 ADD PUSH0 DUP2 MSTORE PUSH1 0x20 ADD PUSH0 ISZERO ISZERO DUP2 MSTORE PUSH1 0x20 ADD PUSH0 DUP2 MSTORE PUSH1 0x20 ADD PUSH0 DUP2 MSTORE PUSH1 0x20 ADD PUSH0 ISZERO ISZERO DUP2 MSTORE POP SWAP1 JUMP JUMPDEST PUSH0 PUSH0 REVERT JUMPDEST PUSH0 PUSH20 0xFFFFFFFFFFFFFFFFFFFFFFFFFFFFFFFFFFFFFFFF DUP3 AND SWAP1 POP SWAP2 SWAP1 POP JUMP JUMPDEST PUSH0 PUSH2 0x1DC1 DUP3 PUSH2 0x1D98 JUMP JUMPDEST SWAP1 POP SWAP2 SWAP1 POP JUMP JUMPDEST PUSH2 0x1DD1 DUP2 PUSH2 0x1DB7 JUMP JUMPDEST DUP2 EQ PUSH2 0x1DDB JUMPI PUSH0 PUSH0 REVERT JUMPDEST POP JUMP JUMPDEST PUSH0 DUP2 CALLDATALOAD SWAP1 POP PUSH2 0x1DEC DUP2 PUSH2 0x1DC8 JUMP JUMPDEST SWAP3 SWAP2 POP POP JUMP JUMPDEST PUSH0 PUSH1 0x20 DUP3 DUP5 SUB SLT ISZERO PUSH2 0x1E07 JUMPI PUSH2 0x1E06 PUSH2 0x1D94 JUMP JUMPDEST JUMPDEST PUSH0 PUSH2 0x1E14 DUP5 DUP3 DUP6 ADD PUSH2 0x1DDE JUMP JUMPDEST SWAP2 POP POP SWAP3 SWAP2 POP POP JUMP JUMPDEST PUSH0 DUP2 SWAP1 POP SWAP2 SWAP1 POP JUMP JUMPDEST PUSH2 0x1E2F DUP2 PUSH2 0x1E1D JUMP JUMPDEST DUP3 MSTORE POP POP JUMP JUMPDEST PUSH0 PUSH1 0x20 DUP3 ADD SWAP1 POP PUSH2 0x1E48 PUSH0 DUP4 ADD DUP5 PUSH2 0x1E26 JUMP JUMPDEST SWAP3 SWAP2 POP POP JUMP JUMPDEST PUSH0 DUP2 SWAP1 POP SWAP2 SWAP1 POP JUMP JUMPDEST PUSH2 0x1E60 DUP2 PUSH2 0x1E4E JUMP JUMPDEST DUP2 EQ PUSH2 0x1E6A JUMPI PUSH0 PUSH0 REVERT JUMPDEST POP JUMP JUMPDEST PUSH0 DUP2 CALLDATALOAD SWAP1 POP PUSH2 0x1E7B DUP2 PUSH2 0x1E57 JUMP JUMPDEST SWAP3 SWAP2 POP POP JUMP JUMPDEST PUSH0 DUP2 ISZERO ISZERO SWAP1 POP SWAP2 SWAP1 POP JUMP JUMPDEST PUSH2 0x1E95 DUP2 PUSH2 0x1E81 JUMP JUMPDEST DUP2 EQ PUSH2 0x1E9F JUMPI PUSH0 PUSH0 REVERT JUMPDEST POP JUMP JUMPDEST PUSH0 DUP2 CALLDATALOAD SWAP1 POP PUSH2 0x1EB0 DUP2 PUSH2 0x1E8C JUMP JUMPDEST SWAP3 SWAP2 POP POP JUMP JUMPDEST PUSH0 PUSH0 PUSH0 PUSH0 PUSH0 PUSH0 PUSH0 PUSH1 0xE0 DUP9 DUP11 SUB SLT ISZERO PUSH2 0x1ED1 JUMPI PUSH2 0x1ED0 PUSH2 0x1D94 JUMP JUMPDEST JUMPDEST PUSH0 PUSH2 0x1EDE DUP11 DUP3 DUP12 ADD PUSH2 0x1DDE JUMP JUMPDEST SWAP8 POP POP PUSH1 0x20 PUSH2 0x1EEF DUP11 DUP3 DUP12 ADD PUSH2 0x1E6D JUMP JUMPDEST SWAP7 POP POP PUSH1 0x40 PUSH2 0x1F00 DUP11 DUP3 DUP12 ADD PUSH2 0x1E6D JUMP JUMPDEST SWAP6 POP POP PUSH1 0x60 PUSH2 0x1F11 DUP11 DUP3 DUP12 ADD PUSH2 0x1E6D JUMP JUMPDEST SWAP5 POP POP PUSH1 0x80 PUSH2 0x1F22 DUP11 DUP3 DUP12 ADD PUSH2 0x1E6D JUMP JUMPDEST SWAP4 POP POP PUSH1 0xA0 PUSH2 0x1F33 DUP11 DUP3 DUP12 ADD PUSH2 0x1EA2 JUMP JUMPDEST SWAP3 POP POP PUSH1 0xC0 PUSH2 0x1F44 DUP11 DUP3 DUP12 ADD PUSH2 0x1E6D JUMP JUMPDEST SWAP2 POP POP SWAP3 SWAP6 SWAP9 SWAP2 SWAP5 SWAP8 POP SWAP3 SWAP6 POP JUMP JUMPDEST PUSH0 DUP2 MLOAD SWAP1 POP SWAP2 SWAP1 POP JUMP JUMPDEST PUSH0 DUP3 DUP3 MSTORE PUSH1 0x20 DUP3 ADD SWAP1 POP SWAP3 SWAP2 POP POP JUMP JUMPDEST PUSH0 DUP2 SWAP1 POP PUSH1 0x20 DUP3 ADD SWAP1 POP SWAP2 SWAP1 POP JUMP JUMPDEST PUSH2 0x1F85 DUP2 PUSH2 0x1E81 JUMP JUMPDEST DUP3 MSTORE POP POP JUMP JUMPDEST PUSH2 0x1F94 DUP2 PUSH2 0x1DB7 JUMP JUMPDEST DUP3 MSTORE POP POP JUMP JUMPDEST PUSH2 0x1FA3 DUP2 PUSH2 0x1E4E JUMP JUMPDEST DUP3 MSTORE POP POP JUMP JUMPDEST PUSH2 0x140 DUP3 ADD PUSH0 DUP3 ADD MLOAD PUSH2 0x1FBE PUSH0 DUP6 ADD DUP3 PUSH2 0x1F7C JUMP JUMPDEST POP PUSH1 0x20 DUP3 ADD MLOAD PUSH2 0x1FD1 PUSH1 0x20 DUP6 ADD DUP3 PUSH2 0x1F8B JUMP JUMPDEST POP PUSH1 0x40 DUP3 ADD MLOAD PUSH2 0x1FE4 PUSH1 0x40 DUP6 ADD DUP3 PUSH2 0x1F9A JUMP JUMPDEST POP PUSH1 0x60 DUP3 ADD MLOAD PUSH2 0x1FF7 PUSH1 0x60 DUP6 ADD DUP3 PUSH2 0x1F9A JUMP JUMPDEST POP PUSH1 0x80 DUP3 ADD MLOAD PUSH2 0x200A PUSH1 0x80 DUP6 ADD DUP3 PUSH2 0x1F9A JUMP JUMPDEST POP PUSH1 0xA0 DUP3 ADD MLOAD PUSH2 0x201D PUSH1 0xA0 DUP6 ADD DUP3 PUSH2 0x1F9A JUMP JUMPDEST POP PUSH1 0xC0 DUP3 ADD MLOAD PUSH2 0x2030 PUSH1 0xC0 DUP6 ADD DUP3 PUSH2 0x1F7C JUMP JUMPDEST POP PUSH1 0xE0 DUP3 ADD MLOAD PUSH2 0x2043 PUSH1 0xE0 DUP6 ADD DUP3 PUSH2 0x1F9A JUMP JUMPDEST POP PUSH2 0x100 DUP3 ADD MLOAD PUSH2 0x2058 PUSH2 0x100 DUP6 ADD DUP3 PUSH2 0x1F9A JUMP JUMPDEST POP PUSH2 0x120 DUP3 ADD MLOAD PUSH2 0x206D PUSH2 0x120 DUP6 ADD DUP3 PUSH2 0x1F7C JUMP JUMPDEST POP POP POP POP JUMP JUMPDEST PUSH0 PUSH2 0x207E DUP4 DUP4 PUSH2 0x1FA9 JUMP JUMPDEST PUSH2 0x140 DUP4 ADD SWAP1 POP SWAP3 SWAP2 POP POP JUMP JUMPDEST PUSH0 PUSH1 0x20 DUP3 ADD SWAP1 POP SWAP2 SWAP1 POP JUMP JUMPDEST PUSH0 PUSH2 0x20A1 DUP3 PUSH2 0x1F53 JUMP JUMPDEST PUSH2 0x20AB DUP2 DUP6 PUSH2 0x1F5D JUMP JUMPDEST SWAP4 POP PUSH2 0x20B6 DUP4 PUSH2 0x1F6D JUMP JUMPDEST DUP1 PUSH0 JUMPDEST DUP4 DUP2 LT ISZERO PUSH2 0x20E6 JUMPI DUP2 MLOAD PUSH2 0x20CD DUP9 DUP3 PUSH2 0x2073 JUMP JUMPDEST SWAP8 POP PUSH2 0x20D8 DUP4 PUSH2 0x208B JUMP JUMPDEST SWAP3 POP POP PUSH1 0x1 DUP2 ADD SWAP1 POP PUSH2 0x20B9 JUMP JUMPDEST POP DUP6 SWAP4 POP POP POP POP SWAP3 SWAP2 POP POP JUMP JUMPDEST PUSH0 PUSH1 0x20 DUP3 ADD SWAP1 POP DUP2 DUP2 SUB PUSH0 DUP4 ADD MSTORE PUSH2 0x210B DUP2 DUP5 PUSH2 0x2097 JUMP JUMPDEST SWAP1 POP SWAP3 SWAP2 POP POP JUMP JUMPDEST PUSH0 PUSH1 0x20 DUP3 DUP5 SUB SLT ISZERO PUSH2 0x2128 JUMPI PUSH2 0x2127 PUSH2 0x1D94 JUMP JUMPDEST JUMPDEST PUSH0 PUSH2 0x2135 DUP5 DUP3 DUP6 ADD PUSH2 0x1E6D JUMP JUMPDEST SWAP2 POP POP SWAP3 SWAP2 POP POP JUMP JUMPDEST PUSH2 0x2147 DUP2 PUSH2 0x1E4E JUMP JUMPDEST DUP3 MSTORE POP POP JUMP JUMPDEST PUSH0 PUSH1 0x80 DUP3 ADD SWAP1 POP PUSH2 0x2160 PUSH0 DUP4 ADD DUP8 PUSH2 0x213E JUMP JUMPDEST PUSH2 0x216D PUSH1 0x20 DUP4 ADD DUP7 PUSH2 0x213E JUMP JUMPDEST PUSH2 0x217A PUSH1 0x40 DUP4 ADD DUP6 PUSH2 0x213E JUMP JUMPDEST PUSH2 0x2187 PUSH1 0x60 DUP4 ADD DUP5 PUSH2 0x213E JUMP JUMPDEST SWAP6 SWAP5 POP POP POP POP POP JUMP JUMPDEST PUSH0 PUSH1 0x20 DUP3 ADD SWAP1 POP PUSH2 0x21A3 PUSH0 DUP4 ADD DUP5 PUSH2 0x213E JUMP JUMPDEST SWAP3 SWAP2 POP POP JUMP JUMPDEST PUSH2 0x21B2 DUP2 PUSH2 0x1E1D JUMP JUMPDEST DUP2 EQ PUSH2 0x21BC JUMPI PUSH0 PUSH0 REVERT JUMPDEST POP JUMP JUMPDEST PUSH0 DUP2 CALLDATALOAD SWAP1 POP PUSH2 0x21CD DUP2 PUSH2 0x21A9 JUMP JUMPDEST SWAP3 SWAP2 POP POP JUMP JUMPDEST PUSH0 PUSH1 0x20 DUP3 DUP5 SUB SLT ISZERO PUSH2 0x21E8 JUMPI PUSH2 0x21E7 PUSH2 0x1D94 JUMP JUMPDEST JUMPDEST PUSH0 PUSH2 0x21F5 DUP5 DUP3 DUP6 ADD PUSH2 0x21BF JUMP JUMPDEST SWAP2 POP POP SWAP3 SWAP2 POP POP JUMP JUMPDEST PUSH2 0x2207 DUP2 PUSH2 0x1E81 JUMP JUMPDEST DUP3 MSTORE POP POP JUMP JUMPDEST PUSH2 0x2216 DUP2 PUSH2 0x1DB7 JUMP JUMPDEST DUP3 MSTORE POP POP JUMP JUMPDEST PUSH0 PUSH2 0x140 DUP3 ADD SWAP1 POP PUSH2 0x2230 PUSH0 DUP4 ADD DUP14 PUSH2 0x21FE JUMP JUMPDEST PUSH2 0x223D PUSH1 0x20 DUP4 ADD DUP13 PUSH2 0x220D JUMP JUMPDEST PUSH2 0x224A PUSH1 0x40 DUP4 ADD DUP12 PUSH2 0x213E JUMP JUMPDEST PUSH2 0x2257 PUSH1 0x60 DUP4 ADD DUP11 PUSH2 0x213E JUMP JUMPDEST PUSH2 0x2264 PUSH1 0x80 DUP4 ADD DUP10 PUSH2 0x213E JUMP JUMPDEST PUSH2 0x2271 PUSH1 0xA0 DUP4 ADD DUP9 PUSH2 0x213E JUMP JUMPDEST PUSH2 0x227E PUSH1 0xC0 DUP4 ADD DUP8 PUSH2 0x21FE JUMP JUMPDEST PUSH2 0x228B PUSH1 0xE0 DUP4 ADD DUP7 PUSH2 0x213E JUMP JUMPDEST PUSH2 0x2299 PUSH2 0x100 DUP4 ADD DUP6 PUSH2 0x213E JUMP JUMPDEST PUSH2 0x22A7 PUSH2 0x120 DUP4 ADD DUP5 PUSH2 0x21FE JUMP JUMPDEST SWAP12 SWAP11 POP POP POP POP POP POP POP POP POP POP POP JUMP JUMPDEST PUSH0 PUSH0 PUSH1 0x40 DUP4 DUP6 SUB SLT ISZERO PUSH2 0x22CC JUMPI PUSH2 0x22CB PUSH2 0x1D94 JUMP JUMPDEST JUMPDEST PUSH0 PUSH2 0x22D9 DUP6 DUP3 DUP7 ADD PUSH2 0x21BF JUMP JUMPDEST SWAP3 POP POP PUSH1 0x20 PUSH2 0x22EA DUP6 DUP3 DUP7 ADD PUSH2 0x1E6D JUMP JUMPDEST SWAP2 POP POP SWAP3 POP SWAP3 SWAP1 POP JUMP JUMPDEST PUSH0 PUSH0 PUSH1 0x40 DUP4 DUP6 SUB SLT ISZERO PUSH2 0x230A JUMPI PUSH2 0x2309 PUSH2 0x1D94 JUMP JUMPDEST JUMPDEST PUSH0 PUSH2 0x2317 DUP6 DUP3 DUP7 ADD PUSH2 0x1DDE JUMP JUMPDEST SWAP3 POP POP PUSH1 0x20 PUSH2 0x2328 DUP6 DUP3 DUP7 ADD PUSH2 0x1E6D JUMP JUMPDEST SWAP2 POP POP SWAP3 POP SWAP3 SWAP1 POP JUMP JUMPDEST PUSH0 PUSH1 0x20 DUP3 ADD SWAP1 POP PUSH2 0x2345 PUSH0 DUP4 ADD DUP5 PUSH2 0x220D JUMP JUMPDEST SWAP3 SWAP2 POP POP JUMP JUMPDEST PUSH2 0x140 DUP3 ADD PUSH0 DUP3 ADD MLOAD PUSH2 0x2360 PUSH0 DUP6 ADD DUP3 PUSH2 0x1F7C JUMP JUMPDEST POP PUSH1 0x20 DUP3 ADD MLOAD PUSH2 0x2373 PUSH1 0x20 DUP6 ADD DUP3 PUSH2 0x1F8B JUMP JUMPDEST POP PUSH1 0x40 DUP3 ADD MLOAD PUSH2 0x2386 PUSH1 0x40 DUP6 ADD DUP3 PUSH2 0x1F9A JUMP JUMPDEST POP PUSH1 0x60 DUP3 ADD MLOAD PUSH2 0x2399 PUSH1 0x60 DUP6 ADD DUP3 PUSH2 0x1F9A JUMP JUMPDEST POP PUSH1 0x80 DUP3 ADD MLOAD PUSH2 0x23AC PUSH1 0x80 DUP6 ADD DUP3 PUSH2 0x1F9A JUMP JUMPDEST POP PUSH1 0xA0 DUP3 ADD MLOAD PUSH2 0x23BF PUSH1 0xA0 DUP6 ADD DUP3 PUSH2 0x1F9A JUMP JUMPDEST POP PUSH1 0xC0 DUP3 ADD MLOAD PUSH2 0x23D2 PUSH1 0xC0 DUP6 ADD DUP3 PUSH2 0x1F7C JUMP JUMPDEST POP PUSH1 0xE0 DUP3 ADD MLOAD PUSH2 0x23E5 PUSH1 0xE0 DUP6 ADD DUP3 PUSH2 0x1F9A JUMP JUMPDEST POP PUSH2 0x100 DUP3 ADD MLOAD PUSH2 0x23FA PUSH2 0x100 DUP6 ADD DUP3 PUSH2 0x1F9A JUMP JUMPDEST POP PUSH2 0x120 DUP3 ADD MLOAD PUSH2 0x240F PUSH2 0x120 DUP6 ADD DUP3 PUSH2 0x1F7C JUMP JUMPDEST POP POP POP POP JUMP JUMPDEST PUSH0 PUSH2 0x140 DUP3 ADD SWAP1 POP PUSH2 0x2429 PUSH0 DUP4 ADD DUP5 PUSH2 0x234B JUMP JUMPDEST SWAP3 SWAP2 POP POP JUMP JUMPDEST PUSH0 DUP2 SWAP1 POP SWAP2 SWAP1 POP JUMP JUMPDEST PUSH0 PUSH2 0x2452 PUSH2 0x244D PUSH2 0x2448 DUP5 PUSH2 0x1D98 JUMP JUMPDEST PUSH2 0x242F JUMP JUMPDEST PUSH2 0x1D98 JUMP JUMPDEST SWAP1 POP SWAP2 SWAP1 POP JUMP JUMPDEST PUSH0 PUSH2 0x2463 DUP3 PUSH2 0x2438 JUMP JUMPDEST SWAP1 POP SWAP2 SWAP1 POP JUMP JUMPDEST PUSH0 PUSH2 0x2474 DUP3 PUSH2 0x2459 JUMP JUMPDEST SWAP1 POP SWAP2 SWAP1 POP JUMP JUMPDEST PUSH2 0x2484 DUP2 PUSH2 0x246A JUMP JUMPDEST DUP3 MSTORE POP POP JUMP JUMPDEST PUSH0 PUSH1 0x20 DUP3 ADD SWAP1 POP PUSH2 0x249D PUSH0 DUP4 ADD DUP5 PUSH2 0x247B JUMP JUMPDEST SWAP3 SWAP2 POP POP JUMP JUMPDEST PUSH32 0x4E487B7100000000000000000000000000000000000000000000000000000000 PUSH0 MSTORE PUSH1 0x11 PUSH1 0x4 MSTORE PUSH1 0x24 PUSH0 REVERT JUMPDEST PUSH0 PUSH2 0x24DA DUP3 PUSH2 0x1E4E JUMP JUMPDEST SWAP2 POP PUSH2 0x24E5 DUP4 PUSH2 0x1E4E JUMP JUMPDEST SWAP3 POP DUP3 DUP3 SUB SWAP1 POP DUP2 DUP2 GT ISZERO PUSH2 0x24FD JUMPI PUSH2 0x24FC PUSH2 0x24A3 JUMP JUMPDEST JUMPDEST SWAP3 SWAP2 POP POP JUMP JUMPDEST PUSH0 DUP3 DUP3 MSTORE PUSH1 0x20 DUP3 ADD SWAP1 POP SWAP3 SWAP2 POP POP JUMP JUMPDEST PUSH32 0x42656E65666963696172792063616E6E6F74206265207A65726F206164647265 PUSH0 DUP3 ADD MSTORE PUSH32 0x7373000000000000000000000000000000000000000000000000000000000000 PUSH1 0x20 DUP3 ADD MSTORE POP JUMP JUMPDEST PUSH0 PUSH2 0x256D PUSH1 0x22 DUP4 PUSH2 0x2503 JUMP JUMPDEST SWAP2 POP PUSH2 0x2578 DUP3 PUSH2 0x2513 JUMP JUMPDEST PUSH1 0x40 DUP3 ADD SWAP1 POP SWAP2 SWAP1 POP JUMP JUMPDEST PUSH0 PUSH1 0x20 DUP3 ADD SWAP1 POP DUP2 DUP2 SUB PUSH0 DUP4 ADD MSTORE PUSH2 0x259A DUP2 PUSH2 0x2561 JUMP JUMPDEST SWAP1 POP SWAP2 SWAP1 POP JUMP JUMPDEST PUSH32 0x4475726174696F6E206D757374206265203E2030000000000000000000000000 PUSH0 DUP3 ADD MSTORE POP JUMP JUMPDEST PUSH0 PUSH2 0x25D5 PUSH1 0x14 DUP4 PUSH2 0x2503 JUMP JUMPDEST SWAP2 POP PUSH2 0x25E0 DUP3 PUSH2 0x25A1 JUMP JUMPDEST PUSH1 0x20 DUP3 ADD SWAP1 POP SWAP2 SWAP1 POP JUMP JUMPDEST PUSH0 PUSH1 0x20 DUP3 ADD SWAP1 POP DUP2 DUP2 SUB PUSH0 DUP4 ADD MSTORE PUSH2 0x2602 DUP2 PUSH2 0x25C9 JUMP JUMPDEST SWAP1 POP SWAP2 SWAP1 POP JUMP JUMPDEST PUSH32 0x416D6F756E74206D757374206265203E20300000000000000000000000000000 PUSH0 DUP3 ADD MSTORE POP JUMP JUMPDEST PUSH0 PUSH2 0x263D PUSH1 0x12 DUP4 PUSH2 0x2503 JUMP JUMPDEST SWAP2 POP PUSH2 0x2648 DUP3 PUSH2 0x2609 JUMP JUMPDEST PUSH1 0x20 DUP3 ADD SWAP1 POP SWAP2 SWAP1 POP JUMP JUMPDEST PUSH0 PUSH1 0x20 DUP3 ADD SWAP1 POP DUP2 DUP2 SUB PUSH0 DUP4 ADD MSTORE PUSH2 0x266A DUP2 PUSH2 0x2631 JUMP JUMPDEST SWAP1 POP SWAP2 SWAP1 POP JUMP JUMPDEST PUSH32 0x536C69636520706572696F64206D757374206265203E3D2031207365636F6E64 PUSH0 DUP3 ADD MSTORE POP JUMP JUMPDEST PUSH0 PUSH2 0x26A5 PUSH1 0x20 DUP4 PUSH2 0x2503 JUMP JUMPDEST SWAP2 POP PUSH2 0x26B0 DUP3 PUSH2 0x2671 JUMP JUMPDEST PUSH1 0x20 DUP3 ADD SWAP1 POP SWAP2 SWAP1 POP JUMP JUMPDEST PUSH0 PUSH1 0x20 DUP3 ADD SWAP1 POP DUP2 DUP2 SUB PUSH0 DUP4 ADD MSTORE PUSH2 0x26D2 DUP2 PUSH2 0x2699 JUMP JUMPDEST SWAP1 POP SWAP2 SWAP1 POP JUMP JUMPDEST PUSH32 0x4475726174696F6E206D757374206265203E3D20636C69666600000000000000 PUSH0 DUP3 ADD MSTORE POP JUMP JUMPDEST PUSH0 PUSH2 0x270D PUSH1 0x19 DUP4 PUSH2 0x2503 JUMP JUMPDEST SWAP2 POP PUSH2 0x2718 DUP3 PUSH2 0x26D9 JUMP JUMPDEST PUSH1 0x20 DUP3 ADD SWAP1 POP SWAP2 SWAP1 POP JUMP JUMPDEST PUSH0 PUSH1 0x20 DUP3 ADD SWAP1 POP DUP2 DUP2 SUB PUSH0 DUP4 ADD MSTORE PUSH2 0x273A DUP2 PUSH2 0x2701 JUMP JUMPDEST SWAP1 POP SWAP2 SWAP1 POP JUMP JUMPDEST PUSH32 0x43616E6E6F74206372656174652076657374696E67207363686564756C653A20 PUSH0 DUP3 ADD MSTORE PUSH32 0x696E73756666696369656E7420746F6B656E7300000000000000000000000000 PUSH1 0x20 DUP3 ADD MSTORE POP JUMP JUMPDEST PUSH0 PUSH2 0x279B PUSH1 0x33 DUP4 PUSH2 0x2503 JUMP JUMPDEST SWAP2 POP PUSH2 0x27A6 DUP3 PUSH2 0x2741 JUMP JUMPDEST PUSH1 0x40 DUP3 ADD SWAP1 POP SWAP2 SWAP1 POP JUMP JUMPDEST PUSH0 PUSH1 0x20 DUP3 ADD SWAP1 POP DUP2 DUP2 SUB PUSH0 DUP4 ADD MSTORE PUSH2 0x27C8 DUP2 PUSH2 0x278F JUMP JUMPDEST SWAP1 POP SWAP2 SWAP1 POP JUMP JUMPDEST PUSH0 PUSH2 0x27D9 DUP3 PUSH2 0x1E4E JUMP JUMPDEST SWAP2 POP PUSH2 0x27E4 DUP4 PUSH2 0x1E4E JUMP JUMPDEST SWAP3 POP DUP3 DUP3 ADD SWAP1 POP DUP1 DUP3 GT ISZERO PUSH2 0x27FC JUMPI PUSH2 0x27FB PUSH2 0x24A3 JUMP JUMPDEST JUMPDEST SWAP3 SWAP2 POP POP JUMP JUMPDEST PUSH0 PUSH1 0xC0 DUP3 ADD SWAP1 POP PUSH2 0x2815 PUSH0 DUP4 ADD DUP10 PUSH2 0x213E JUMP JUMPDEST PUSH2 0x2822 PUSH1 0x20 DUP4 ADD DUP9 PUSH2 0x213E JUMP JUMPDEST PUSH2 0x282F PUSH1 0x40 DUP4 ADD DUP8 PUSH2 0x213E JUMP JUMPDEST PUSH2 0x283C PUSH1 0x60 DUP4 ADD DUP7 PUSH2 0x213E JUMP JUMPDEST PUSH2 0x2849 PUSH1 0x80 DUP4 ADD DUP6 PUSH2 0x21FE JUMP JUMPDEST PUSH2 0x2856 PUSH1 0xA0 DUP4 ADD DUP5 PUSH2 0x213E JUMP JUMPDEST SWAP8 SWAP7 POP POP POP POP POP POP POP JUMP JUMPDEST PUSH32 0x4E487B7100000000000000000000000000000000000000000000000000000000 PUSH0 MSTORE PUSH1 0x41 PUSH1 0x4 MSTORE PUSH1 0x24 PUSH0 REVERT JUMPDEST PUSH32 0x4E487B7100000000000000000000000000000000000000000000000000000000 PUSH0 MSTORE PUSH1 0x32 PUSH1 0x4 MSTORE PUSH1 0x24 PUSH0 REVERT JUMPDEST PUSH32 0x4E6F7420656E6F75676820776974686472617761626C652066756E6473000000 PUSH0 DUP3 ADD MSTORE POP JUMP JUMPDEST PUSH0 PUSH2 0x28EF PUSH1 0x1D DUP4 PUSH2 0x2503 JUMP JUMPDEST SWAP2 POP PUSH2 0x28FA DUP3 PUSH2 0x28BB JUMP JUMPDEST PUSH1 0x20 DUP3 ADD SWAP1 POP SWAP2 SWAP1 POP JUMP JUMPDEST PUSH0 PUSH1 0x20 DUP3 ADD SWAP1 POP DUP2 DUP2 SUB PUSH0 DUP4 ADD MSTORE PUSH2 0x291C DUP2 PUSH2 0x28E3 JUMP JUMPDEST SWAP1 POP SWAP2 SWAP1 POP JUMP JUMPDEST PUSH32 0x56657374696E67207363686564756C65206E6F7420666F756E64000000000000 PUSH0 DUP3 ADD MSTORE POP JUMP JUMPDEST PUSH0 PUSH2 0x2957 PUSH1 0x1A DUP4 PUSH2 0x2503 JUMP JUMPDEST SWAP2 POP PUSH2 0x2962 DUP3 PUSH2 0x2923 JUMP JUMPDEST PUSH1 0x20 DUP3 ADD SWAP1 POP SWAP2 SWAP1 POP JUMP JUMPDEST PUSH0 PUSH1 0x20 DUP3 ADD SWAP1 POP DUP2 DUP2 SUB PUSH0 DUP4 ADD MSTORE PUSH2 0x2984 DUP2 PUSH2 0x294B JUMP JUMPDEST SWAP1 POP SWAP2 SWAP1 POP JUMP JUMPDEST PUSH32 0x4F6E6C792062656E6566696369617279206F72206F776E65722063616E207265 PUSH0 DUP3 ADD MSTORE PUSH32 0x6C656173652076657374656420746F6B656E7300000000000000000000000000 PUSH1 0x20 DUP3 ADD MSTORE POP JUMP JUMPDEST PUSH0 PUSH2 0x29E5 PUSH1 0x33 DUP4 PUSH2 0x2503 JUMP JUMPDEST SWAP2 POP PUSH2 0x29F0 DUP3 PUSH2 0x298B JUMP JUMPDEST PUSH1 0x40 DUP3 ADD SWAP1 POP SWAP2 SWAP1 POP JUMP JUMPDEST PUSH0 PUSH1 0x20 DUP3 ADD SWAP1 POP DUP2 DUP2 SUB PUSH0 DUP4 ADD MSTORE PUSH2 0x2A12 DUP2 PUSH2 0x29D9 JUMP JUMPDEST SWAP1 POP SWAP2 SWAP1 POP JUMP JUMPDEST PUSH32 0x43616E6E6F742072656C65617365206D6F7265207468616E2076657374656420 PUSH0 DUP3 ADD MSTORE PUSH32 0x616D6F756E740000000000000000000000000000000000000000000000000000 PUSH1 0x20 DUP3 ADD MSTORE POP JUMP JUMPDEST PUSH0 PUSH2 0x2A73 PUSH1 0x26 DUP4 PUSH2 0x2503 JUMP JUMPDEST SWAP2 POP PUSH2 0x2A7E DUP3 PUSH2 0x2A19 JUMP JUMPDEST PUSH1 0x40 DUP3 ADD SWAP1 POP SWAP2 SWAP1 POP JUMP JUMPDEST PUSH0 PUSH1 0x20 DUP3 ADD SWAP1 POP DUP2 DUP2 SUB PUSH0 DUP4 ADD MSTORE PUSH2 0x2AA0 DUP2 PUSH2 0x2A67 JUMP JUMPDEST SWAP1 POP SWAP2 SWAP1 POP JUMP JUMPDEST PUSH0 DUP2 PUSH1 0x60 SHL SWAP1 POP SWAP2 SWAP1 POP JUMP JUMPDEST PUSH0 PUSH2 0x2ABD DUP3 PUSH2 0x2AA7 JUMP JUMPDEST SWAP1 POP SWAP2 SWAP1 POP JUMP JUMPDEST PUSH0 PUSH2 0x2ACE DUP3 PUSH2 0x2AB3 JUMP JUMPDEST SWAP1 POP SWAP2 SWAP1 POP JUMP JUMPDEST PUSH2 0x2AE6 PUSH2 0x2AE1 DUP3 PUSH2 0x1DB7 JUMP JUMPDEST PUSH2 0x2AC4 JUMP JUMPDEST DUP3 MSTORE POP POP JUMP JUMPDEST PUSH0 DUP2 SWAP1 POP SWAP2 SWAP1 POP JUMP JUMPDEST PUSH2 0x2B06 PUSH2 0x2B01 DUP3 PUSH2 0x1E4E JUMP JUMPDEST PUSH2 0x2AEC JUMP JUMPDEST DUP3 MSTORE POP POP JUMP JUMPDEST PUSH0 PUSH2 0x2B17 DUP3 DUP6 PUSH2 0x2AD5 JUMP JUMPDEST PUSH1 0x14 DUP3 ADD SWAP2 POP PUSH2 0x2B27 DUP3 DUP5 PUSH2 0x2AF5 JUMP JUMPDEST PUSH1 0x20 DUP3 ADD SWAP2 POP DUP2 SWAP1 POP SWAP4 SWAP3 POP POP POP JUMP JUMPDEST PUSH0 DUP2 MLOAD SWAP1 POP PUSH2 0x2B45 DUP2 PUSH2 0x1E57 JUMP JUMPDEST SWAP3 SWAP2 POP POP JUMP JUMPDEST PUSH0 PUSH1 0x20 DUP3 DUP5 SUB SLT ISZERO PUSH2 0x2B60 JUMPI PUSH2 0x2B5F PUSH2 0x1D94 JUMP JUMPDEST JUMPDEST PUSH0 PUSH2 0x2B6D DUP5 DUP3 DUP6 ADD PUSH2 0x2B37 JUMP JUMPDEST SWAP2 POP POP SWAP3 SWAP2 POP POP JUMP JUMPDEST PUSH32 0x56657374696E67207363686564756C65206E6F74207265766F6361626C650000 PUSH0 DUP3 ADD MSTORE POP JUMP JUMPDEST PUSH0 PUSH2 0x2BAA PUSH1 0x1E DUP4 PUSH2 0x2503 JUMP JUMPDEST SWAP2 POP PUSH2 0x2BB5 DUP3 PUSH2 0x2B76 JUMP JUMPDEST PUSH1 0x20 DUP3 ADD SWAP1 POP SWAP2 SWAP1 POP JUMP JUMPDEST PUSH0 PUSH1 0x20 DUP3 ADD SWAP1 POP DUP2 DUP2 SUB PUSH0 DUP4 ADD MSTORE PUSH2 0x2BD7 DUP2 PUSH2 0x2B9E JUMP JUMPDEST SWAP1 POP SWAP2 SWAP1 POP JUMP JUMPDEST PUSH32 0x56657374696E67207363686564756C6520616C7265616479207265766F6B6564 PUSH0 DUP3 ADD MSTORE POP JUMP JUMPDEST PUSH0 PUSH2 0x2C12 PUSH1 0x20 DUP4 PUSH2 0x2503 JUMP JUMPDEST SWAP2 POP PUSH2 0x2C1D DUP3 PUSH2 0x2BDE JUMP JUMPDEST PUSH1 0x20 DUP3 ADD SWAP1 POP SWAP2 SWAP1 POP JUMP JUMPDEST PUSH0 PUSH1 0x20 DUP3 ADD SWAP1 POP DUP2 DUP2 SUB PUSH0 DUP4 ADD MSTORE PUSH2 0x2C3F DUP2 PUSH2 0x2C06 JUMP JUMPDEST SWAP1 POP SWAP2 SWAP1 POP JUMP JUMPDEST PUSH32 0x496E646578206F7574206F6620626F756E647300000000000000000000000000 PUSH0 DUP3 ADD MSTORE POP JUMP JUMPDEST PUSH0 PUSH2 0x2C7A PUSH1 0x13 DUP4 PUSH2 0x2503 JUMP JUMPDEST SWAP2 POP PUSH2 0x2C85 DUP3 PUSH2 0x2C46 JUMP JUMPDEST PUSH1 0x20 DUP3 ADD SWAP1 POP SWAP2 SWAP1 POP JUMP JUMPDEST PUSH0 PUSH1 0x20 DUP3 ADD SWAP1 POP DUP2 DUP2 SUB PUSH0 DUP4 ADD MSTORE PUSH2 0x2CA7 DUP2 PUSH2 0x2C6E JUMP JUMPDEST SWAP1 POP SWAP2 SWAP1 POP JUMP JUMPDEST PUSH0 PUSH1 0x40 DUP3 ADD SWAP1 POP PUSH2 0x2CC1 PUSH0 DUP4 ADD DUP6 PUSH2 0x220D JUMP JUMPDEST PUSH2 0x2CCE PUSH1 0x20 DUP4 ADD DUP5 PUSH2 0x213E JUMP JUMPDEST SWAP4 SWAP3 POP POP POP JUMP JUMPDEST PUSH32 0x4E487B7100000000000000000000000000000000000000000000000000000000 PUSH0 MSTORE PUSH1 0x12 PUSH1 0x4 MSTORE PUSH1 0x24 PUSH0 REVERT JUMPDEST PUSH0 PUSH2 0x2D0C DUP3 PUSH2 0x1E4E JUMP JUMPDEST SWAP2 POP PUSH2 0x2D17 DUP4 PUSH2 0x1E4E JUMP JUMPDEST SWAP3 POP DUP3 PUSH2 0x2D27 JUMPI PUSH2 0x2D26 PUSH2 0x2CD5 JUMP JUMPDEST JUMPDEST DUP3 DUP3 DIV SWAP1 POP SWAP3 SWAP2 POP POP JUMP JUMPDEST PUSH0 PUSH2 0x2D3C DUP3 PUSH2 0x1E4E JUMP JUMPDEST SWAP2 POP PUSH2 0x2D47 DUP4 PUSH2 0x1E4E JUMP JUMPDEST SWAP3 POP DUP3 DUP3 MUL PUSH2 0x2D55 DUP2 PUSH2 0x1E4E JUMP JUMPDEST SWAP2 POP DUP3 DUP3 DIV DUP5 EQ DUP4 ISZERO OR PUSH2 0x2D6C JUMPI PUSH2 0x2D6B PUSH2 0x24A3 JUMP JUMPDEST JUMPDEST POP SWAP3 SWAP2 POP POP JUMP JUMPDEST PUSH32 0x5265656E7472616E637947756172643A207265656E7472616E742063616C6C00 PUSH0 DUP3 ADD MSTORE POP JUMP JUMPDEST PUSH0 PUSH2 0x2DA7 PUSH1 0x1F DUP4 PUSH2 0x2503 JUMP JUMPDEST SWAP2 POP PUSH2 0x2DB2 DUP3 PUSH2 0x2D73 JUMP JUMPDEST PUSH1 0x20 DUP3 ADD SWAP1 POP SWAP2 SWAP1 POP JUMP JUMPDEST PUSH0 PUSH1 0x20 DUP3 ADD SWAP1 POP DUP2 DUP2 SUB PUSH0 DUP4 ADD MSTORE PUSH2 0x2DD4 DUP2 PUSH2 0x2D9B JUMP JUMPDEST SWAP1 POP SWAP2 SWAP1 POP JUMP INVALID LOG2 PUSH5 0x6970667358 0x22 SLT KECCAK256 0x23 0xD4 NOT BYTE 0x2E SELFDESTRUCT ADD SAR GASPRICE 0xE8 0x4B DUP1 LOG3 0xA8 PUSH25 0xE16912DB0EA549D9B3254ECFAA8BF41A1864736F6C63430008 0x1E STOP CALLER "
				},
				"gasEstimates": {
					"creation": {
						"codeDepositCost": "2358600",
						"executionCost": "infinite",
						"totalCost": "infinite"
					},
					"external": {
						"computeNextVestingScheduleIdForHolder(address)": "infinite",
						"computeReleasableAmount(bytes32)": "infinite",
						"computeVestingScheduleIdForAddressAndIndex(address,uint256)": "infinite",
						"createVestingSchedule(address,uint256,uint256,uint256,uint256,bool,uint256)": "infinite",
						"getBeneficiaryInfo(address)": "infinite",
						"getLastVestingScheduleIdForHolder(address)": "infinite",
						"getTotalVestingSchedules()": "2529",
						"getVestingIdAtIndex(uint256)": "7112",
						"getVestingSchedule(bytes32)": "infinite",
						"getVestingScheduleByAddressAndIndex(address,uint256)": "infinite",
						"getVestingSchedulesByBeneficiary(address)": "infinite",
						"getVestingSchedulesCountByBeneficiary(address)": "2852",
						"getWithdrawableAmount()": "infinite",
						"holdersVestingCount(address)": "2936",
						"owner()": "2559",
						"release(bytes32,uint256)": "infinite",
						"renounceOwnership()": "infinite",
						"revoke(bytes32)": "infinite",
						"token()": "infinite",
						"transferOwnership(address)": "infinite",
						"vestingSchedules(bytes32)": "infinite",
						"vestingSchedulesIds(uint256)": "5004",
						"vestingSchedulesTotalAmount()": "2514",
						"withdraw(uint256)": "infinite"
					},
					"internal": {
						"_computeReleasableAmount(struct TokenVesting.VestingSchedule memory)": "infinite"
					}
				},
				"methodIdentifiers": {
					"computeNextVestingScheduleIdForHolder(address)": "f7c469f0",
					"computeReleasableAmount(bytes32)": "ea1bb3d5",
					"computeVestingScheduleIdForAddressAndIndex(address,uint256)": "8af104da",
					"createVestingSchedule(address,uint256,uint256,uint256,uint256,bool,uint256)": "17e289e9",
					"getBeneficiaryInfo(address)": "366dc083",
					"getLastVestingScheduleIdForHolder(address)": "098df445",
					"getTotalVestingSchedules()": "6a273a27",
					"getVestingIdAtIndex(uint256)": "f9079b37",
					"getVestingSchedule(bytes32)": "9ef346b4",
					"getVestingScheduleByAddressAndIndex(address,uint256)": "f51321d7",
					"getVestingSchedulesByBeneficiary(address)": "2794e427",
					"getVestingSchedulesCountByBeneficiary(address)": "5a7bb69a",
					"getWithdrawableAmount()": "90be10cc",
					"holdersVestingCount(address)": "471121d1",
					"owner()": "8da5cb5b",
					"release(bytes32,uint256)": "66afd8ef",
					"renounceOwnership()": "715018a6",
					"revoke(bytes32)": "b75c7dc6",
					"token()": "fc0c546a",
					"transferOwnership(address)": "f2fde38b",
					"vestingSchedules(bytes32)": "60417887",
					"vestingSchedulesIds(uint256)": "8815e862",
					"vestingSchedulesTotalAmount()": "9d8535ad",
					"withdraw(uint256)": "2e1a7d4d"
				}
			},
			"storageLayout": {
				"storage": [
					{
						"astId": 8,
						"contract": "contracts/TokenVestingContract.sol:TokenVesting",
						"label": "_owner",
						"offset": 0,
						"slot": "0",
						"type": "t_address"
					},
					{
						"astId": 248,
						"contract": "contracts/TokenVestingContract.sol:TokenVesting",
						"label": "_status",
						"offset": 0,
						"slot": "1",
						"type": "t_uint256"
					},
					{
						"astId": 924,
						"contract": "contracts/TokenVestingContract.sol:TokenVesting",
						"label": "token",
						"offset": 0,
						"slot": "2",
						"type": "t_contract(IERC20)380"
					},
					{
						"astId": 929,
						"contract": "contracts/TokenVestingContract.sol:TokenVesting",
						"label": "vestingSchedules",
						"offset": 0,
						"slot": "3",
						"type": "t_mapping(t_bytes32,t_struct(VestingSchedule)921_storage)"
					},
					{
						"astId": 933,
						"contract": "contracts/TokenVestingContract.sol:TokenVesting",
						"label": "holdersVestingCount",
						"offset": 0,
						"slot": "4",
						"type": "t_mapping(t_address,t_uint256)"
					},
					{
						"astId": 936,
						"contract": "contracts/TokenVestingContract.sol:TokenVesting",
						"label": "vestingSchedulesIds",
						"offset": 0,
						"slot": "5",
						"type": "t_array(t_bytes32)dyn_storage"
					},
					{
						"astId": 938,
						"contract": "contracts/TokenVestingContract.sol:TokenVesting",
						"label": "vestingSchedulesTotalAmount",
						"offset": 0,
						"slot": "6",
						"type": "t_uint256"
					}
				],
				"types": {
					"t_address": {
						"encoding": "inplace",
						"label": "address",
						"numberOfBytes": "20"
					},
					"t_array(t_bytes32)dyn_storage": {
						"base": "t_bytes32",
						"encoding": "dynamic_array",
						"label": "bytes32[]",
						"numberOfBytes": "32"
					},
					"t_bool": {
						"encoding": "inplace",
						"label": "bool",
						"numberOfBytes": "1"
					},
					"t_bytes32": {
						"encoding": "inplace",
						"label": "bytes32",
						"numberOfBytes": "32"
					},
					"t_contract(IERC20)380": {
						"encoding": "inplace",
						"label": "contract IERC20",
						"numberOfBytes": "20"
					},
					"t_mapping(t_address,t_uint256)": {
						"encoding": "mapping",
						"key": "t_address",
						"label": "mapping(address => uint256)",
						"numberOfBytes": "32",
						"value": "t_uint256"
					},
					"t_mapping(t_bytes32,t_struct(VestingSchedule)921_storage)": {
						"encoding": "mapping",
						"key": "t_bytes32",
						"label": "mapping(bytes32 => struct TokenVesting.VestingSchedule)",
						"numberOfBytes": "32",
						"value": "t_struct(VestingSchedule)921_storage"
					},
					"t_struct(VestingSchedule)921_storage": {
						"encoding": "inplace",
						"label": "struct TokenVesting.VestingSchedule",
						"members": [
							{
								"astId": 902,
								"contract": "contracts/TokenVestingContract.sol:TokenVesting",
								"label": "initialized",
								"offset": 0,
								"slot": "0",
								"type": "t_bool"
							},
							{
								"astId": 904,
								"contract": "contracts/TokenVestingContract.sol:TokenVesting",
								"label": "beneficiary",
								"offset": 1,
								"slot": "0",
								"type": "t_address"
							},
							{
								"astId": 906,
								"contract": "contracts/TokenVestingContract.sol:TokenVesting",
								"label": "cliff",
								"offset": 0,
								"slot": "1",
								"type": "t_uint256"
							},
							{
								"astId": 908,
								"contract": "contracts/TokenVestingContract.sol:TokenVesting",
								"label": "start",
								"offset": 0,
								"slot": "2",
								"type": "t_uint256"
							},
							{
								"astId": 910,
								"contract": "contracts/TokenVestingContract.sol:TokenVesting",
								"label": "duration",
								"offset": 0,
								"slot": "3",
								"type": "t_uint256"
							},
							{
								"astId": 912,
								"contract": "contracts/TokenVestingContract.sol:TokenVesting",
								"label": "slicePeriodSeconds",
								"offset": 0,
								"slot": "4",
								"type": "t_uint256"
							},
							{
								"astId": 914,
								"contract": "contracts/TokenVestingContract.sol:TokenVesting",
								"label": "revocable",
								"offset": 0,
								"slot": "5",
								"type": "t_bool"
							},
							{
								"astId": 916,
								"contract": "contracts/TokenVestingContract.sol:TokenVesting",
								"label": "amountTotal",
								"offset": 0,
								"slot": "6",
								"type": "t_uint256"
							},
							{
								"astId": 918,
								"contract": "contracts/TokenVestingContract.sol:TokenVesting",
								"label": "released",
								"offset": 0,
								"slot": "7",
								"type": "t_uint256"
							},
							{
								"astId": 920,
								"contract": "contracts/TokenVestingContract.sol:TokenVesting",
								"label": "revoked",
								"offset": 0,
								"slot": "8",
								"type": "t_bool"
							}
						],
						"numberOfBytes": "288"
					},
					"t_uint256": {
						"encoding": "inplace",
						"label": "uint256",
						"numberOfBytes": "32"
					}
				}
			},
			"userdoc": {
				"kind": "user",
				"methods": {},
				"version": 1
			}
		}
	}
}