{
	"contracts/DeFiStakingPlatform.sol": {
		"DeFiStaking": {
			"abi": [
				{
					"inputs": [],
					"stateMutability": "nonpayable",
					"type": "constructor"
				},
				{
					"inputs": [
						{
							"internalType": "address",
							"name": "owner",
							"type": "address"
						}
					],
					"name": "OwnableInvalidOwner",
					"type": "error"
				},
				{
					"inputs": [
						{
							"internalType": "address",
							"name": "account",
							"type": "address"
						}
					],
					"name": "OwnableUnauthorizedAccount",
					"type": "error"
				},
				{
					"inputs": [
						{
							"internalType": "address",
							"name": "token",
							"type": "address"
						}
					],
					"name": "SafeERC20FailedOperation",
					"type": "error"
				},
				{
					"anonymous": false,
					"inputs": [
						{
							"indexed": true,
							"internalType": "address",
							"name": "previousOwner",
							"type": "address"
						},
						{
							"indexed": true,
							"internalType": "address",
							"name": "newOwner",
							"type": "address"
						}
					],
					"name": "OwnershipTransferred",
					"type": "event"
				},
				{
					"anonymous": false,
					"inputs": [
						{
							"indexed": false,
							"internalType": "address",
							"name": "account",
							"type": "address"
						}
					],
					"name": "Paused",
					"type": "event"
				},
				{
					"anonymous": false,
					"inputs": [
						{
							"indexed": true,
							"internalType": "uint256",
							"name": "poolId",
							"type": "uint256"
						},
						{
							"indexed": false,
							"internalType": "address",
							"name": "stakingToken",
							"type": "address"
						},
						{
							"indexed": false,
							"internalType": "address",
							"name": "rewardToken",
							"type": "address"
						},
						{
							"indexed": false,
							"internalType": "uint256",
							"name": "rewardRate",
							"type": "uint256"
						},
						{
							"indexed": false,
							"internalType": "uint256",
							"name": "minimumStake",
							"type": "uint256"
						},
						{
							"indexed": false,
							"internalType": "uint256",
							"name": "lockPeriod",
							"type": "uint256"
						}
					],
					"name": "PoolCreated",
					"type": "event"
				},
				{
					"anonymous": false,
					"inputs": [
						{
							"indexed": true,
							"internalType": "uint256",
							"name": "poolId",
							"type": "uint256"
						},
						{
							"indexed": false,
							"internalType": "bool",
							"name": "active",
							"type": "bool"
						}
					],
					"name": "PoolStatusChanged",
					"type": "event"
				},
				{
					"anonymous": false,
					"inputs": [
						{
							"indexed": true,
							"internalType": "address",
							"name": "user",
							"type": "address"
						},
						{
							"indexed": true,
							"internalType": "uint256",
							"name": "poolId",
							"type": "uint256"
						},
						{
							"indexed": false,
							"internalType": "uint256",
							"name": "reward",
							"type": "uint256"
						}
					],
					"name": "RewardPaid",
					"type": "event"
				},
				{
					"anonymous": false,
					"inputs": [
						{
							"indexed": true,
							"internalType": "uint256",
							"name": "poolId",
							"type": "uint256"
						},
						{
							"indexed": false,
							"internalType": "uint256",
							"name": "newRate",
							"type": "uint256"
						}
					],
					"name": "RewardRateUpdated",
					"type": "event"
				},
				{
					"anonymous": false,
					"inputs": [
						{
							"indexed": true,
							"internalType": "address",
							"name": "user",
							"type": "address"
						},
						{
							"indexed": true,
							"internalType": "uint256",
							"name": "poolId",
							"type": "uint256"
						},
						{
							"indexed": false,
							"internalType": "uint256",
							"name": "amount",
							"type": "uint256"
						}
					],
					"name": "Staked",
					"type": "event"
				},
				{
					"anonymous": false,
					"inputs": [
						{
							"indexed": false,
							"internalType": "address",
							"name": "account",
							"type": "address"
						}
					],
					"name": "Unpaused",
					"type": "event"
				},
				{
					"anonymous": false,
					"inputs": [
						{
							"indexed": true,
							"internalType": "address",
							"name": "user",
							"type": "address"
						},
						{
							"indexed": true,
							"internalType": "uint256",
							"name": "poolId",
							"type": "uint256"
						},
						{
							"indexed": false,
							"internalType": "uint256",
							"name": "amount",
							"type": "uint256"
						}
					],
					"name": "Withdrawn",
					"type": "event"
				},
				{
					"inputs": [],
					"name": "REWARD_PRECISION",
					"outputs": [
						{
							"internalType": "uint256",
							"name": "",
							"type": "uint256"
						}
					],
					"stateMutability": "view",
					"type": "function"
				},
				{
					"inputs": [
						{
							"internalType": "uint256",
							"name": "poolId",
							"type": "uint256"
						}
					],
					"name": "compound",
					"outputs": [],
					"stateMutability": "nonpayable",
					"type": "function"
				},
				{
					"inputs": [
						{
							"internalType": "address",
							"name": "_stakingToken",
							"type": "address"
						},
						{
							"internalType": "address",
							"name": "_rewardToken",
							"type": "address"
						},
						{
							"internalType": "uint256",
							"name": "_rewardRate",
							"type": "uint256"
						},
						{
							"internalType": "uint256",
							"name": "_minimumStake",
							"type": "uint256"
						},
						{
							"internalType": "uint256",
							"name": "_lockPeriod",
							"type": "uint256"
						}
					],
					"name": "createPool",
					"outputs": [],
					"stateMutability": "nonpayable",
					"type": "function"
				},
				{
					"inputs": [
						{
							"internalType": "uint256",
							"name": "poolId",
							"type": "uint256"
						},
						{
							"internalType": "address",
							"name": "account",
							"type": "address"
						}
					],
					"name": "earned",
					"outputs": [
						{
							"internalType": "uint256",
							"name": "",
							"type": "uint256"
						}
					],
					"stateMutability": "view",
					"type": "function"
				},
				{
					"inputs": [
						{
							"internalType": "uint256",
							"name": "poolId",
							"type": "uint256"
						}
					],
					"name": "emergencyWithdraw",
					"outputs": [],
					"stateMutability": "nonpayable",
					"type": "function"
				},
				{
					"inputs": [
						{
							"internalType": "uint256",
							"name": "poolId",
							"type": "uint256"
						}
					],
					"name": "exit",
					"outputs": [],
					"stateMutability": "nonpayable",
					"type": "function"
				},
				{
					"inputs": [
						{
							"internalType": "uint256",
							"name": "poolId",
							"type": "uint256"
						}
					],
					"name": "getPoolInfo",
					"outputs": [
						{
							"internalType": "address",
							"name": "stakingToken",
							"type": "address"
						},
						{
							"internalType": "address",
							"name": "rewardToken",
							"type": "address"
						},
						{
							"internalType": "uint256",
							"name": "rewardRate",
							"type": "uint256"
						},
						{
							"internalType": "uint256",
							"name": "totalSupply",
							"type": "uint256"
						},
						{
							"internalType": "uint256",
							"name": "minimumStake",
							"type": "uint256"
						},
						{
							"internalType": "uint256",
							"name": "lockPeriod",
							"type": "uint256"
						},
						{
							"internalType": "bool",
							"name": "active",
							"type": "bool"
						}
					],
					"stateMutability": "view",
					"type": "function"
				},
				{
					"inputs": [
						{
							"internalType": "uint256",
							"name": "poolId",
							"type": "uint256"
						}
					],
					"name": "getReward",
					"outputs": [],
					"stateMutability": "nonpayable",
					"type": "function"
				},
				{
					"inputs": [
						{
							"internalType": "uint256",
							"name": "poolId",
							"type": "uint256"
						},
						{
							"internalType": "address",
							"name": "user",
							"type": "address"
						}
					],
					"name": "getUserInfo",
					"outputs": [
						{
							"internalType": "uint256",
							"name": "balance",
							"type": "uint256"
						},
						{
							"internalType": "uint256",
							"name": "earnedAmount",
							"type": "uint256"
						},
						{
							"internalType": "uint256",
							"name": "stakedTime",
							"type": "uint256"
						},
						{
							"internalType": "uint256",
							"name": "unlockTime",
							"type": "uint256"
						}
					],
					"stateMutability": "view",
					"type": "function"
				},
				{
					"inputs": [],
					"name": "owner",
					"outputs": [
						{
							"internalType": "address",
							"name": "",
							"type": "address"
						}
					],
					"stateMutability": "view",
					"type": "function"
				},
				{
					"inputs": [],
					"name": "pause",
					"outputs": [],
					"stateMutability": "nonpayable",
					"type": "function"
				},
				{
					"inputs": [],
					"name": "paused",
					"outputs": [
						{
							"internalType": "bool",
							"name": "",
							"type": "bool"
						}
					],
					"stateMutability": "view",
					"type": "function"
				},
				{
					"inputs": [],
					"name": "poolCount",
					"outputs": [
						{
							"internalType": "uint256",
							"name": "",
							"type": "uint256"
						}
					],
					"stateMutability": "view",
					"type": "function"
				},
				{
					"inputs": [
						{
							"internalType": "uint256",
							"name": "",
							"type": "uint256"
						}
					],
					"name": "pools",
					"outputs": [
						{
							"internalType": "contract IERC20",
							"name": "stakingToken",
							"type": "address"
						},
						{
							"internalType": "contract IERC20",
							"name": "rewardToken",
							"type": "address"
						},
						{
							"internalType": "uint256",
							"name": "rewardRate",
							"type": "uint256"
						},
						{
							"internalType": "uint256",
							"name": "lastUpdateTime",
							"type": "uint256"
						},
						{
							"internalType": "uint256",
							"name": "rewardPerTokenStored",
							"type": "uint256"
						},
						{
							"internalType": "uint256",
							"name": "totalSupply",
							"type": "uint256"
						},
						{
							"internalType": "uint256",
							"name": "minimumStake",
							"type": "uint256"
						},
						{
							"internalType": "uint256",
							"name": "lockPeriod",
							"type": "uint256"
						},
						{
							"internalType": "bool",
							"name": "active",
							"type": "bool"
						}
					],
					"stateMutability": "view",
					"type": "function"
				},
				{
					"inputs": [],
					"name": "renounceOwnership",
					"outputs": [],
					"stateMutability": "nonpayable",
					"type": "function"
				},
				{
					"inputs": [
						{
							"internalType": "uint256",
							"name": "poolId",
							"type": "uint256"
						}
					],
					"name": "rewardPerToken",
					"outputs": [
						{
							"internalType": "uint256",
							"name": "",
							"type": "uint256"
						}
					],
					"stateMutability": "view",
					"type": "function"
				},
				{
					"inputs": [
						{
							"internalType": "uint256",
							"name": "poolId",
							"type": "uint256"
						},
						{
							"internalType": "bool",
							"name": "active",
							"type": "bool"
						}
					],
					"name": "setPoolStatus",
					"outputs": [],
					"stateMutability": "nonpayable",
					"type": "function"
				},
				{
					"inputs": [
						{
							"internalType": "uint256",
							"name": "poolId",
							"type": "uint256"
						},
						{
							"internalType": "uint256",
							"name": "amount",
							"type": "uint256"
						}
					],
					"name": "stake",
					"outputs": [],
					"stateMutability": "nonpayable",
					"type": "function"
				},
				{
					"inputs": [
						{
							"internalType": "address",
							"name": "newOwner",
							"type": "address"
						}
					],
					"name": "transferOwnership",
					"outputs": [],
					"stateMutability": "nonpayable",
					"type": "function"
				},
				{
					"inputs": [],
					"name": "unpause",
					"outputs": [],
					"stateMutability": "nonpayable",
					"type": "function"
				},
				{
					"inputs": [
						{
							"internalType": "uint256",
							"name": "poolId",
							"type": "uint256"
						},
						{
							"internalType": "uint256",
							"name": "newRate",
							"type": "uint256"
						}
					],
					"name": "updateRewardRate",
					"outputs": [],
					"stateMutability": "nonpayable",
					"type": "function"
				},
				{
					"inputs": [
						{
							"internalType": "uint256",
							"name": "",
							"type": "uint256"
						},
						{
							"internalType": "address",
							"name": "",
							"type": "address"
						}
					],
					"name": "userInfo",
					"outputs": [
						{
							"internalType": "uint256",
							"name": "balance",
							"type": "uint256"
						},
						{
							"internalType": "uint256",
							"name": "userRewardPerTokenPaid",
							"type": "uint256"
						},
						{
							"internalType": "uint256",
							"name": "rewards",
							"type": "uint256"
						},
						{
							"internalType": "uint256",
							"name": "stakedTime",
							"type": "uint256"
						}
					],
					"stateMutability": "view",
					"type": "function"
				},
				{
					"inputs": [
						{
							"internalType": "uint256",
							"name": "poolId",
							"type": "uint256"
						},
						{
							"internalType": "uint256",
							"name": "amount",
							"type": "uint256"
						}
					],
					"name": "withdraw",
					"outputs": [],
					"stateMutability": "nonpayable",
					"type": "function"
				}
			],
			"devdoc": {
				"errors": {
					"OwnableInvalidOwner(address)": [
						{
							"details": "The owner is not a valid owner account. (eg. `address(0)`)"
						}
					],
					"OwnableUnauthorizedAccount(address)": [
						{
							"details": "The caller account is not authorized to perform an operation."
						}
					],
					"SafeERC20FailedOperation(address)": [
						{
							"details": "An operation with an ERC-20 token failed."
						}
					]
				},
				"events": {
					"Paused(address)": {
						"details": "Emitted when the pause is triggered by `account`."
					},
					"Unpaused(address)": {
						"details": "Emitted when the pause is lifted by `account`."
					}
				},
				"kind": "dev",
				"methods": {
					"owner()": {
						"details": "Returns the address of the current owner."
					},
					"paused()": {
						"details": "Returns true if the contract is paused, and false otherwise."
					},
					"renounceOwnership()": {
						"details": "Leaves the contract without owner. It will not be possible to call `onlyOwner` functions. Can only be called by the current owner. NOTE: Renouncing ownership will leave the contract without an owner, thereby disabling any functionality that is only available to the owner."
					},
					"transferOwnership(address)": {
						"details": "Transfers ownership of the contract to a new account (`newOwner`). Can only be called by the current owner."
					}
				},
				"version": 1
			},
			"evm": {
				"assembly": "    /* \"contracts/DeFiStakingPlatform.sol\":363:10088  contract DeFiStaking is ReentrancyGuard, Ownable, Pausable {... */\n  mstore(0x40, 0x80)\n    /* \"contracts/DeFiStakingPlatform.sol\":1220:1256  constructor() Ownable(msg.sender) {} */\n  callvalue\n  dup1\n  iszero\n  tag_1\n  jumpi\n  revert(0x00, 0x00)\ntag_1:\n  pop\n    /* \"contracts/DeFiStakingPlatform.sol\":1242:1252  msg.sender */\n  caller\n    /* \"@openzeppelin/contracts/security/ReentrancyGuard.sol\":1716:1717  1 */\n  0x01\n    /* \"@openzeppelin/contracts/security/ReentrancyGuard.sol\":1821:1828  _status */\n  0x00\n    /* \"@openzeppelin/contracts/security/ReentrancyGuard.sol\":1821:1843  _status = _NOT_ENTERED */\n  dup2\n  swap1\n  sstore\n  pop\n    /* \"@openzeppelin/contracts/access/Ownable.sol\":1297:1298  0 */\n  0x00\n    /* \"@openzeppelin/contracts/access/Ownable.sol\":1273:1299  initialOwner == address(0) */\n  0xffffffffffffffffffffffffffffffffffffffff\n  and\n    /* \"@openzeppelin/contracts/access/Ownable.sol\":1273:1285  initialOwner */\n  dup2\n    /* \"@openzeppelin/contracts/access/Ownable.sol\":1273:1299  initialOwner == address(0) */\n  0xffffffffffffffffffffffffffffffffffffffff\n  and\n  sub\n    /* \"@openzeppelin/contracts/access/Ownable.sol\":1269:1364  if (initialOwner == address(0)) {... */\n  tag_8\n  jumpi\n    /* \"@openzeppelin/contracts/access/Ownable.sol\":1350:1351  0 */\n  0x00\n    /* \"@openzeppelin/contracts/access/Ownable.sol\":1322:1353  OwnableInvalidOwner(address(0)) */\n  mload(0x40)\n  0x1e4fbdf700000000000000000000000000000000000000000000000000000000\n  dup2\n  mstore\n  0x04\n  add\n  tag_9\n  swap2\n  swap1\n  tag_10\n  jump\t// in\ntag_9:\n  mload(0x40)\n  dup1\n  swap2\n  sub\n  swap1\n  revert\n    /* \"@openzeppelin/contracts/access/Ownable.sol\":1269:1364  if (initialOwner == address(0)) {... */\ntag_8:\n    /* \"@openzeppelin/contracts/access/Ownable.sol\":1373:1405  _transferOwnership(initialOwner) */\n  tag_11\n    /* \"@openzeppelin/contracts/access/Ownable.sol\":1392:1404  initialOwner */\n  dup2\n    /* \"@openzeppelin/contracts/access/Ownable.sol\":1373:1391  _transferOwnership */\n  shl(0x20, tag_12)\n    /* \"@openzeppelin/contracts/access/Ownable.sol\":1373:1405  _transferOwnership(initialOwner) */\n  0x20\n  shr\n  jump\t// in\ntag_11:\n    /* \"@openzeppelin/contracts/access/Ownable.sol\":1225:1412  constructor(address initialOwner) {... */\n  pop\n    /* \"@openzeppelin/contracts/security/Pausable.sol\":1006:1011  false */\n  0x00\n    /* \"@openzeppelin/contracts/security/Pausable.sol\":996:1003  _paused */\n  0x01\n  0x14\n    /* \"@openzeppelin/contracts/security/Pausable.sol\":996:1011  _paused = false */\n  0x0100\n  exp\n  dup2\n  sload\n  dup2\n  0xff\n  mul\n  not\n  and\n  swap1\n  dup4\n  iszero\n  iszero\n  mul\n  or\n  swap1\n  sstore\n  pop\n    /* \"contracts/DeFiStakingPlatform.sol\":363:10088  contract DeFiStaking is ReentrancyGuard, Ownable, Pausable {... */\n  jump(tag_15)\n    /* \"@openzeppelin/contracts/access/Ownable.sol\":2912:3099  function _transferOwnership(address newOwner) internal virtual {... */\ntag_12:\n    /* \"@openzeppelin/contracts/access/Ownable.sol\":2985:3001  address oldOwner */\n  0x00\n    /* \"@openzeppelin/contracts/access/Ownable.sol\":3004:3010  _owner */\n  0x01\n  0x00\n  swap1\n  sload\n  swap1\n  0x0100\n  exp\n  swap1\n  div\n  0xffffffffffffffffffffffffffffffffffffffff\n  and\n    /* \"@openzeppelin/contracts/access/Ownable.sol\":2985:3010  address oldOwner = _owner */\n  swap1\n  pop\n    /* \"@openzeppelin/contracts/access/Ownable.sol\":3029:3037  newOwner */\n  dup2\n    /* \"@openzeppelin/contracts/access/Ownable.sol\":3020:3026  _owner */\n  0x01\n  0x00\n    /* \"@openzeppelin/contracts/access/Ownable.sol\":3020:3037  _owner = newOwner */\n  0x0100\n  exp\n  dup2\n  sload\n  dup2\n  0xffffffffffffffffffffffffffffffffffffffff\n  mul\n  not\n  and\n  swap1\n  dup4\n  0xffffffffffffffffffffffffffffffffffffffff\n  and\n  mul\n  or\n  swap1\n  sstore\n  pop\n    /* \"@openzeppelin/contracts/access/Ownable.sol\":3083:3091  newOwner */\n  dup2\n    /* \"@openzeppelin/contracts/access/Ownable.sol\":3052:3092  OwnershipTransferred(oldOwner, newOwner) */\n  0xffffffffffffffffffffffffffffffffffffffff\n  and\n    /* \"@openzeppelin/contracts/access/Ownable.sol\":3073:3081  oldOwner */\n  dup2\n    /* \"@openzeppelin/contracts/access/Ownable.sol\":3052:3092  OwnershipTransferred(oldOwner, newOwner) */\n  0xffffffffffffffffffffffffffffffffffffffff\n  and\n  0x8be0079c531659141344cd1fd0a4f28419497f9722a3daafe3b4186f6b6457e0\n  mload(0x40)\n  mload(0x40)\n  dup1\n  swap2\n  sub\n  swap1\n  log3\n    /* \"@openzeppelin/contracts/access/Ownable.sol\":2975:3099  {... */\n  pop\n    /* \"@openzeppelin/contracts/access/Ownable.sol\":2912:3099  function _transferOwnership(address newOwner) internal virtual {... */\n  pop\n  jump\t// out\n    /* \"#utility.yul\":7:133   */\ntag_17:\n    /* \"#utility.yul\":44:51   */\n  0x00\n    /* \"#utility.yul\":84:126   */\n  0xffffffffffffffffffffffffffffffffffffffff\n    /* \"#utility.yul\":77:82   */\n  dup3\n    /* \"#utility.yul\":73:127   */\n  and\n    /* \"#utility.yul\":62:127   */\n  swap1\n  pop\n    /* \"#utility.yul\":7:133   */\n  swap2\n  swap1\n  pop\n  jump\t// out\n    /* \"#utility.yul\":139:235   */\ntag_18:\n    /* \"#utility.yul\":176:183   */\n  0x00\n    /* \"#utility.yul\":205:229   */\n  tag_23\n    /* \"#utility.yul\":223:228   */\n  dup3\n    /* \"#utility.yul\":205:229   */\n  tag_17\n  jump\t// in\ntag_23:\n    /* \"#utility.yul\":194:229   */\n  swap1\n  pop\n    /* \"#utility.yul\":139:235   */\n  swap2\n  swap1\n  pop\n  jump\t// out\n    /* \"#utility.yul\":241:359   */\ntag_19:\n    /* \"#utility.yul\":328:352   */\n  tag_25\n    /* \"#utility.yul\":346:351   */\n  dup2\n    /* \"#utility.yul\":328:352   */\n  tag_18\n  jump\t// in\ntag_25:\n    /* \"#utility.yul\":323:326   */\n  dup3\n    /* \"#utility.yul\":316:353   */\n  mstore\n    /* \"#utility.yul\":241:359   */\n  pop\n  pop\n  jump\t// out\n    /* \"#utility.yul\":365:587   */\ntag_10:\n    /* \"#utility.yul\":458:462   */\n  0x00\n    /* \"#utility.yul\":496:498   */\n  0x20\n    /* \"#utility.yul\":485:494   */\n  dup3\n    /* \"#utility.yul\":481:499   */\n  add\n    /* \"#utility.yul\":473:499   */\n  swap1\n  pop\n    /* \"#utility.yul\":509:580   */\n  tag_27\n    /* \"#utility.yul\":577:578   */\n  0x00\n    /* \"#utility.yul\":566:575   */\n  dup4\n    /* \"#utility.yul\":562:579   */\n  add\n    /* \"#utility.yul\":553:559   */\n  dup5\n    /* \"#utility.yul\":509:580   */\n  tag_19\n  jump\t// in\ntag_27:\n    /* \"#utility.yul\":365:587   */\n  swap3\n  swap2\n  pop\n  pop\n  jump\t// out\n    /* \"contracts/DeFiStakingPlatform.sol\":363:10088  contract DeFiStaking is ReentrancyGuard, Ownable, Pausable {... */\ntag_15:\n  dataSize(sub_0)\n  dup1\n  dataOffset(sub_0)\n  0x00\n  codecopy\n  0x00\n  return\nstop\n\nsub_0: assembly {\n        /* \"contracts/DeFiStakingPlatform.sol\":363:10088  contract DeFiStaking is ReentrancyGuard, Ownable, Pausable {... */\n      mstore(0x40, 0x80)\n      callvalue\n      dup1\n      iszero\n      tag_1\n      jumpi\n      revert(0x00, 0x00)\n    tag_1:\n      pop\n      jumpi(tag_2, lt(calldatasize, 0x04))\n      shr(0xe0, calldataload(0x00))\n      dup1\n      0x8456cb59\n      gt\n      tag_26\n      jumpi\n      dup1\n      0xac4afa38\n      gt\n      tag_27\n      jumpi\n      dup1\n      0xac4afa38\n      eq\n      tag_20\n      jumpi\n      dup1\n      0xb32534cf\n      eq\n      tag_21\n      jumpi\n      dup1\n      0xbbcaf3fe\n      eq\n      tag_22\n      jumpi\n      dup1\n      0xe39c08fc\n      eq\n      tag_23\n      jumpi\n      dup1\n      0xf2fde38b\n      eq\n      tag_24\n      jumpi\n      dup1\n      0xf525cb68\n      eq\n      tag_25\n      jumpi\n      jump(tag_2)\n    tag_27:\n      dup1\n      0x8456cb59\n      eq\n      tag_14\n      jumpi\n      dup1\n      0x85ac165a\n      eq\n      tag_15\n      jumpi\n      dup1\n      0x874c120b\n      eq\n      tag_16\n      jumpi\n      dup1\n      0x8da5cb5b\n      eq\n      tag_17\n      jumpi\n      dup1\n      0x93f1a40b\n      eq\n      tag_18\n      jumpi\n      dup1\n      0xaa5f7e26\n      eq\n      tag_19\n      jumpi\n      jump(tag_2)\n    tag_26:\n      dup1\n      0x441a3e70\n      gt\n      tag_28\n      jumpi\n      dup1\n      0x441a3e70\n      eq\n      tag_8\n      jumpi\n      dup1\n      0x5312ea8e\n      eq\n      tag_9\n      jumpi\n      dup1\n      0x5c975abb\n      eq\n      tag_10\n      jumpi\n      dup1\n      0x715018a6\n      eq\n      tag_11\n      jumpi\n      dup1\n      0x7b0472f0\n      eq\n      tag_12\n      jumpi\n      dup1\n      0x7f8661a1\n      eq\n      tag_13\n      jumpi\n      jump(tag_2)\n    tag_28:\n      dup1\n      0x1069f3b5\n      eq\n      tag_3\n      jumpi\n      dup1\n      0x1c4b774b\n      eq\n      tag_4\n      jumpi\n      dup1\n      0x2f380b35\n      eq\n      tag_5\n      jumpi\n      dup1\n      0x3d6aa5e1\n      eq\n      tag_6\n      jumpi\n      dup1\n      0x3f4ba83a\n      eq\n      tag_7\n      jumpi\n    tag_2:\n      revert(0x00, 0x00)\n        /* \"contracts/DeFiStakingPlatform.sol\":9387:9931  function getUserInfo(uint256 poolId, address user) ... */\n    tag_3:\n      tag_29\n      0x04\n      dup1\n      calldatasize\n      sub\n      dup2\n      add\n      swap1\n      tag_30\n      swap2\n      swap1\n      tag_31\n      jump\t// in\n    tag_30:\n      tag_32\n      jump\t// in\n    tag_29:\n      mload(0x40)\n      tag_33\n      swap5\n      swap4\n      swap3\n      swap2\n      swap1\n      tag_34\n      jump\t// in\n    tag_33:\n      mload(0x40)\n      dup1\n      swap2\n      sub\n      swap1\n      return\n        /* \"contracts/DeFiStakingPlatform.sol\":5989:6463  function getReward(uint256 poolId) ... */\n    tag_4:\n      tag_35\n      0x04\n      dup1\n      calldatasize\n      sub\n      dup2\n      add\n      swap1\n      tag_36\n      swap2\n      swap1\n      tag_37\n      jump\t// in\n    tag_36:\n      tag_38\n      jump\t// in\n    tag_35:\n      stop\n        /* \"contracts/DeFiStakingPlatform.sol\":8691:9375  function getPoolInfo(uint256 poolId) ... */\n    tag_5:\n      tag_39\n      0x04\n      dup1\n      calldatasize\n      sub\n      dup2\n      add\n      swap1\n      tag_40\n      swap2\n      swap1\n      tag_37\n      jump\t// in\n    tag_40:\n      tag_41\n      jump\t// in\n    tag_39:\n      mload(0x40)\n      tag_42\n      swap8\n      swap7\n      swap6\n      swap5\n      swap4\n      swap3\n      swap2\n      swap1\n      tag_43\n      jump\t// in\n    tag_42:\n      mload(0x40)\n      dup1\n      swap2\n      sub\n      swap1\n      return\n        /* \"contracts/DeFiStakingPlatform.sol\":1160:1207  uint256 public constant REWARD_PRECISION = 1e18 */\n    tag_6:\n      tag_44\n      tag_45\n      jump\t// in\n    tag_44:\n      mload(0x40)\n      tag_46\n      swap2\n      swap1\n      tag_47\n      jump\t// in\n    tag_46:\n      mload(0x40)\n      dup1\n      swap2\n      sub\n      swap1\n      return\n        /* \"contracts/DeFiStakingPlatform.sol\":10018:10085  function unpause() external onlyOwner {... */\n    tag_7:\n      tag_48\n      tag_49\n      jump\t// in\n    tag_48:\n      stop\n        /* \"contracts/DeFiStakingPlatform.sol\":5200:5977  function withdraw(uint256 poolId, uint256 amount) ... */\n    tag_8:\n      tag_50\n      0x04\n      dup1\n      calldatasize\n      sub\n      dup2\n      add\n      swap1\n      tag_51\n      swap2\n      swap1\n      tag_52\n      jump\t// in\n    tag_51:\n      tag_53\n      jump\t// in\n    tag_50:\n      stop\n        /* \"contracts/DeFiStakingPlatform.sol\":7535:8084  function emergencyWithdraw(uint256 poolId) ... */\n    tag_9:\n      tag_54\n      0x04\n      dup1\n      calldatasize\n      sub\n      dup2\n      add\n      swap1\n      tag_55\n      swap2\n      swap1\n      tag_37\n      jump\t// in\n    tag_55:\n      tag_56\n      jump\t// in\n    tag_54:\n      stop\n        /* \"@openzeppelin/contracts/security/Pausable.sol\":1615:1699  function paused() public view virtual returns (bool) {... */\n    tag_10:\n      tag_57\n      tag_58\n      jump\t// in\n    tag_57:\n      mload(0x40)\n      tag_59\n      swap2\n      swap1\n      tag_60\n      jump\t// in\n    tag_59:\n      mload(0x40)\n      dup1\n      swap2\n      sub\n      swap1\n      return\n        /* \"@openzeppelin/contracts/access/Ownable.sol\":2293:2394  function renounceOwnership() public virtual onlyOwner {... */\n    tag_11:\n      tag_61\n      tag_62\n      jump\t// in\n    tag_61:\n      stop\n        /* \"contracts/DeFiStakingPlatform.sol\":4427:5188  function stake(uint256 poolId, uint256 amount) ... */\n    tag_12:\n      tag_63\n      0x04\n      dup1\n      calldatasize\n      sub\n      dup2\n      add\n      swap1\n      tag_64\n      swap2\n      swap1\n      tag_52\n      jump\t// in\n    tag_64:\n      tag_65\n      jump\t// in\n    tag_63:\n      stop\n        /* \"contracts/DeFiStakingPlatform.sol\":6475:6654  function exit(uint256 poolId) external {... */\n    tag_13:\n      tag_66\n      0x04\n      dup1\n      calldatasize\n      sub\n      dup2\n      add\n      swap1\n      tag_67\n      swap2\n      swap1\n      tag_37\n      jump\t// in\n    tag_67:\n      tag_68\n      jump\t// in\n    tag_66:\n      stop\n        /* \"contracts/DeFiStakingPlatform.sol\":9943:10006  function pause() external onlyOwner {... */\n    tag_14:\n      tag_69\n      tag_70\n      jump\t// in\n    tag_69:\n      stop\n        /* \"contracts/DeFiStakingPlatform.sol\":2634:3717  function createPool(... */\n    tag_15:\n      tag_71\n      0x04\n      dup1\n      calldatasize\n      sub\n      dup2\n      add\n      swap1\n      tag_72\n      swap2\n      swap1\n      tag_73\n      jump\t// in\n    tag_72:\n      tag_74\n      jump\t// in\n    tag_71:\n      stop\n        /* \"contracts/DeFiStakingPlatform.sol\":3729:4133  function rewardPerToken(uint256 poolId) public view returns (uint256) {... */\n    tag_16:\n      tag_75\n      0x04\n      dup1\n      calldatasize\n      sub\n      dup2\n      add\n      swap1\n      tag_76\n      swap2\n      swap1\n      tag_37\n      jump\t// in\n    tag_76:\n      tag_77\n      jump\t// in\n    tag_75:\n      mload(0x40)\n      tag_78\n      swap2\n      swap1\n      tag_47\n      jump\t// in\n    tag_78:\n      mload(0x40)\n      dup1\n      swap2\n      sub\n      swap1\n      return\n        /* \"@openzeppelin/contracts/access/Ownable.sol\":1638:1723  function owner() public view virtual returns (address) {... */\n    tag_17:\n      tag_79\n      tag_80\n      jump\t// in\n    tag_79:\n      mload(0x40)\n      tag_81\n      swap2\n      swap1\n      tag_82\n      jump\t// in\n    tag_81:\n      mload(0x40)\n      dup1\n      swap2\n      sub\n      swap1\n      return\n        /* \"contracts/DeFiStakingPlatform.sol\":1052:1116  mapping(uint256 => mapping(address => UserInfo)) public userInfo */\n    tag_18:\n      tag_83\n      0x04\n      dup1\n      calldatasize\n      sub\n      dup2\n      add\n      swap1\n      tag_84\n      swap2\n      swap1\n      tag_31\n      jump\t// in\n    tag_84:\n      tag_85\n      jump\t// in\n    tag_83:\n      mload(0x40)\n      tag_86\n      swap5\n      swap4\n      swap3\n      swap2\n      swap1\n      tag_34\n      jump\t// in\n    tag_86:\n      mload(0x40)\n      dup1\n      swap2\n      sub\n      swap1\n      return\n        /* \"contracts/DeFiStakingPlatform.sol\":6666:7523  function compound(uint256 poolId) ... */\n    tag_19:\n      tag_87\n      0x04\n      dup1\n      calldatasize\n      sub\n      dup2\n      add\n      swap1\n      tag_88\n      swap2\n      swap1\n      tag_37\n      jump\t// in\n    tag_88:\n      tag_89\n      jump\t// in\n    tag_87:\n      stop\n        /* \"contracts/DeFiStakingPlatform.sol\":1001:1045  mapping(uint256 => StakingPool) public pools */\n    tag_20:\n      tag_90\n      0x04\n      dup1\n      calldatasize\n      sub\n      dup2\n      add\n      swap1\n      tag_91\n      swap2\n      swap1\n      tag_37\n      jump\t// in\n    tag_91:\n      tag_92\n      jump\t// in\n    tag_90:\n      mload(0x40)\n      tag_93\n      swap10\n      swap9\n      swap8\n      swap7\n      swap6\n      swap5\n      swap4\n      swap3\n      swap2\n      swap1\n      tag_94\n      jump\t// in\n    tag_93:\n      mload(0x40)\n      dup1\n      swap2\n      sub\n      swap1\n      return\n        /* \"contracts/DeFiStakingPlatform.sol\":8096:8444  function updateRewardRate(uint256 poolId, uint256 newRate) ... */\n    tag_21:\n      tag_95\n      0x04\n      dup1\n      calldatasize\n      sub\n      dup2\n      add\n      swap1\n      tag_96\n      swap2\n      swap1\n      tag_52\n      jump\t// in\n    tag_96:\n      tag_97\n      jump\t// in\n    tag_95:\n      stop\n        /* \"contracts/DeFiStakingPlatform.sol\":8456:8679  function setPoolStatus(uint256 poolId, bool active) ... */\n    tag_22:\n      tag_98\n      0x04\n      dup1\n      calldatasize\n      sub\n      dup2\n      add\n      swap1\n      tag_99\n      swap2\n      swap1\n      tag_100\n      jump\t// in\n    tag_99:\n      tag_101\n      jump\t// in\n    tag_98:\n      stop\n        /* \"contracts/DeFiStakingPlatform.sol\":4145:4415  function earned(uint256 poolId, address account) public view returns (uint256) {... */\n    tag_23:\n      tag_102\n      0x04\n      dup1\n      calldatasize\n      sub\n      dup2\n      add\n      swap1\n      tag_103\n      swap2\n      swap1\n      tag_31\n      jump\t// in\n    tag_103:\n      tag_104\n      jump\t// in\n    tag_102:\n      mload(0x40)\n      tag_105\n      swap2\n      swap1\n      tag_47\n      jump\t// in\n    tag_105:\n      mload(0x40)\n      dup1\n      swap2\n      sub\n      swap1\n      return\n        /* \"@openzeppelin/contracts/access/Ownable.sol\":2543:2758  function transferOwnership(address newOwner) public virtual onlyOwner {... */\n    tag_24:\n      tag_106\n      0x04\n      dup1\n      calldatasize\n      sub\n      dup2\n      add\n      swap1\n      tag_107\n      swap2\n      swap1\n      tag_108\n      jump\t// in\n    tag_107:\n      tag_109\n      jump\t// in\n    tag_106:\n      stop\n        /* \"contracts/DeFiStakingPlatform.sol\":1129:1153  uint256 public poolCount */\n    tag_25:\n      tag_110\n      tag_111\n      jump\t// in\n    tag_110:\n      mload(0x40)\n      tag_112\n      swap2\n      swap1\n      tag_47\n      jump\t// in\n    tag_112:\n      mload(0x40)\n      dup1\n      swap2\n      sub\n      swap1\n      return\n        /* \"contracts/DeFiStakingPlatform.sol\":9387:9931  function getUserInfo(uint256 poolId, address user) ... */\n    tag_32:\n        /* \"contracts/DeFiStakingPlatform.sol\":9534:9549  uint256 balance */\n      0x00\n        /* \"contracts/DeFiStakingPlatform.sol\":9564:9584  uint256 earnedAmount */\n      0x00\n        /* \"contracts/DeFiStakingPlatform.sol\":9599:9617  uint256 stakedTime */\n      0x00\n        /* \"contracts/DeFiStakingPlatform.sol\":9632:9650  uint256 unlockTime */\n      0x00\n        /* \"contracts/DeFiStakingPlatform.sol\":9493:9499  poolId */\n      dup6\n        /* \"contracts/DeFiStakingPlatform.sol\":2439:2448  poolCount */\n      sload(0x04)\n        /* \"contracts/DeFiStakingPlatform.sol\":2430:2436  poolId */\n      dup2\n        /* \"contracts/DeFiStakingPlatform.sol\":2430:2448  poolId < poolCount */\n      lt\n        /* \"contracts/DeFiStakingPlatform.sol\":2422:2472  require(poolId < poolCount, \"Pool does not exist\") */\n      tag_114\n      jumpi\n      mload(0x40)\n      0x08c379a000000000000000000000000000000000000000000000000000000000\n      dup2\n      mstore\n      0x04\n      add\n      tag_115\n      swap1\n      tag_116\n      jump\t// in\n    tag_115:\n      mload(0x40)\n      dup1\n      swap2\n      sub\n      swap1\n      revert\n    tag_114:\n        /* \"contracts/DeFiStakingPlatform.sol\":9679:9705  UserInfo storage userStake */\n      0x00\n        /* \"contracts/DeFiStakingPlatform.sol\":9708:9716  userInfo */\n      0x03\n        /* \"contracts/DeFiStakingPlatform.sol\":9708:9724  userInfo[poolId] */\n      0x00\n        /* \"contracts/DeFiStakingPlatform.sol\":9717:9723  poolId */\n      dup10\n        /* \"contracts/DeFiStakingPlatform.sol\":9708:9724  userInfo[poolId] */\n      dup2\n      mstore\n      0x20\n      add\n      swap1\n      dup2\n      mstore\n      0x20\n      add\n      0x00\n      keccak256\n        /* \"contracts/DeFiStakingPlatform.sol\":9708:9730  userInfo[poolId][user] */\n      0x00\n        /* \"contracts/DeFiStakingPlatform.sol\":9725:9729  user */\n      dup9\n        /* \"contracts/DeFiStakingPlatform.sol\":9708:9730  userInfo[poolId][user] */\n      0xffffffffffffffffffffffffffffffffffffffff\n      and\n      0xffffffffffffffffffffffffffffffffffffffff\n      and\n      dup2\n      mstore\n      0x20\n      add\n      swap1\n      dup2\n      mstore\n      0x20\n      add\n      0x00\n      keccak256\n        /* \"contracts/DeFiStakingPlatform.sol\":9679:9730  UserInfo storage userStake = userInfo[poolId][user] */\n      swap1\n      pop\n        /* \"contracts/DeFiStakingPlatform.sol\":9763:9772  userStake */\n      dup1\n        /* \"contracts/DeFiStakingPlatform.sol\":9763:9780  userStake.balance */\n      0x00\n      add\n      sload\n        /* \"contracts/DeFiStakingPlatform.sol\":9795:9815  earned(poolId, user) */\n      tag_118\n        /* \"contracts/DeFiStakingPlatform.sol\":9802:9808  poolId */\n      dup10\n        /* \"contracts/DeFiStakingPlatform.sol\":9810:9814  user */\n      dup10\n        /* \"contracts/DeFiStakingPlatform.sol\":9795:9801  earned */\n      tag_104\n        /* \"contracts/DeFiStakingPlatform.sol\":9795:9815  earned(poolId, user) */\n      jump\t// in\n    tag_118:\n        /* \"contracts/DeFiStakingPlatform.sol\":9830:9839  userStake */\n      dup3\n        /* \"contracts/DeFiStakingPlatform.sol\":9830:9850  userStake.stakedTime */\n      0x03\n      add\n      sload\n        /* \"contracts/DeFiStakingPlatform.sol\":9888:9893  pools */\n      0x02\n        /* \"contracts/DeFiStakingPlatform.sol\":9888:9901  pools[poolId] */\n      0x00\n        /* \"contracts/DeFiStakingPlatform.sol\":9894:9900  poolId */\n      dup13\n        /* \"contracts/DeFiStakingPlatform.sol\":9888:9901  pools[poolId] */\n      dup2\n      mstore\n      0x20\n      add\n      swap1\n      dup2\n      mstore\n      0x20\n      add\n      0x00\n      keccak256\n        /* \"contracts/DeFiStakingPlatform.sol\":9888:9912  pools[poolId].lockPeriod */\n      0x07\n      add\n      sload\n        /* \"contracts/DeFiStakingPlatform.sol\":9865:9874  userStake */\n      dup5\n        /* \"contracts/DeFiStakingPlatform.sol\":9865:9885  userStake.stakedTime */\n      0x03\n      add\n      sload\n        /* \"contracts/DeFiStakingPlatform.sol\":9865:9912  userStake.stakedTime + pools[poolId].lockPeriod */\n      tag_119\n      swap2\n      swap1\n      tag_120\n      jump\t// in\n    tag_119:\n        /* \"contracts/DeFiStakingPlatform.sol\":9741:9923  return (... */\n      swap6\n      pop\n      swap6\n      pop\n      swap6\n      pop\n      swap6\n      pop\n      pop\n        /* \"contracts/DeFiStakingPlatform.sol\":9387:9931  function getUserInfo(uint256 poolId, address user) ... */\n      pop\n      swap3\n      swap6\n      swap2\n      swap5\n      pop\n      swap3\n      pop\n      jump\t// out\n        /* \"contracts/DeFiStakingPlatform.sol\":5989:6463  function getReward(uint256 poolId) ... */\n    tag_38:\n        /* \"@openzeppelin/contracts/security/ReentrancyGuard.sol\":2261:2282  _nonReentrantBefore() */\n      tag_122\n        /* \"@openzeppelin/contracts/security/ReentrancyGuard.sol\":2261:2280  _nonReentrantBefore */\n      tag_123\n        /* \"@openzeppelin/contracts/security/ReentrancyGuard.sol\":2261:2282  _nonReentrantBefore() */\n      jump\t// in\n    tag_122:\n        /* \"contracts/DeFiStakingPlatform.sol\":6085:6091  poolId */\n      dup1\n        /* \"contracts/DeFiStakingPlatform.sol\":2439:2448  poolCount */\n      sload(0x04)\n        /* \"contracts/DeFiStakingPlatform.sol\":2430:2436  poolId */\n      dup2\n        /* \"contracts/DeFiStakingPlatform.sol\":2430:2448  poolId < poolCount */\n      lt\n        /* \"contracts/DeFiStakingPlatform.sol\":2422:2472  require(poolId < poolCount, \"Pool does not exist\") */\n      tag_125\n      jumpi\n      mload(0x40)\n      0x08c379a000000000000000000000000000000000000000000000000000000000\n      dup2\n      mstore\n      0x04\n      add\n      tag_126\n      swap1\n      tag_116\n      jump\t// in\n    tag_126:\n      mload(0x40)\n      dup1\n      swap2\n      sub\n      swap1\n      revert\n    tag_125:\n        /* \"contracts/DeFiStakingPlatform.sol\":6116:6122  poolId */\n      dup2\n        /* \"contracts/DeFiStakingPlatform.sol\":6124:6134  msg.sender */\n      caller\n        /* \"contracts/DeFiStakingPlatform.sol\":1948:1972  StakingPool storage pool */\n      0x00\n        /* \"contracts/DeFiStakingPlatform.sol\":1975:1980  pools */\n      0x02\n        /* \"contracts/DeFiStakingPlatform.sol\":1975:1988  pools[poolId] */\n      0x00\n        /* \"contracts/DeFiStakingPlatform.sol\":1981:1987  poolId */\n      dup5\n        /* \"contracts/DeFiStakingPlatform.sol\":1975:1988  pools[poolId] */\n      dup2\n      mstore\n      0x20\n      add\n      swap1\n      dup2\n      mstore\n      0x20\n      add\n      0x00\n      keccak256\n        /* \"contracts/DeFiStakingPlatform.sol\":1948:1988  StakingPool storage pool = pools[poolId] */\n      swap1\n      pop\n        /* \"contracts/DeFiStakingPlatform.sol\":2027:2049  rewardPerToken(poolId) */\n      tag_128\n        /* \"contracts/DeFiStakingPlatform.sol\":2042:2048  poolId */\n      dup4\n        /* \"contracts/DeFiStakingPlatform.sol\":2027:2041  rewardPerToken */\n      tag_77\n        /* \"contracts/DeFiStakingPlatform.sol\":2027:2049  rewardPerToken(poolId) */\n      jump\t// in\n    tag_128:\n        /* \"contracts/DeFiStakingPlatform.sol\":1999:2003  pool */\n      dup2\n        /* \"contracts/DeFiStakingPlatform.sol\":1999:2024  pool.rewardPerTokenStored */\n      0x04\n      add\n        /* \"contracts/DeFiStakingPlatform.sol\":1999:2049  pool.rewardPerTokenStored = rewardPerToken(poolId) */\n      dup2\n      swap1\n      sstore\n      pop\n        /* \"contracts/DeFiStakingPlatform.sol\":2082:2097  block.timestamp */\n      timestamp\n        /* \"contracts/DeFiStakingPlatform.sol\":2060:2064  pool */\n      dup2\n        /* \"contracts/DeFiStakingPlatform.sol\":2060:2079  pool.lastUpdateTime */\n      0x03\n      add\n        /* \"contracts/DeFiStakingPlatform.sol\":2060:2097  pool.lastUpdateTime = block.timestamp */\n      dup2\n      swap1\n      sstore\n      pop\n        /* \"contracts/DeFiStakingPlatform.sol\":2141:2142  0 */\n      0x00\n        /* \"contracts/DeFiStakingPlatform.sol\":2122:2143  account != address(0) */\n      0xffffffffffffffffffffffffffffffffffffffff\n      and\n        /* \"contracts/DeFiStakingPlatform.sol\":2122:2129  account */\n      dup3\n        /* \"contracts/DeFiStakingPlatform.sol\":2122:2143  account != address(0) */\n      0xffffffffffffffffffffffffffffffffffffffff\n      and\n      eq\n        /* \"contracts/DeFiStakingPlatform.sol\":2118:2344  if (account != address(0)) {... */\n      tag_129\n      jumpi\n        /* \"contracts/DeFiStakingPlatform.sol\":2160:2181  UserInfo storage user */\n      0x00\n        /* \"contracts/DeFiStakingPlatform.sol\":2184:2192  userInfo */\n      0x03\n        /* \"contracts/DeFiStakingPlatform.sol\":2184:2200  userInfo[poolId] */\n      0x00\n        /* \"contracts/DeFiStakingPlatform.sol\":2193:2199  poolId */\n      dup6\n        /* \"contracts/DeFiStakingPlatform.sol\":2184:2200  userInfo[poolId] */\n      dup2\n      mstore\n      0x20\n      add\n      swap1\n      dup2\n      mstore\n      0x20\n      add\n      0x00\n      keccak256\n        /* \"contracts/DeFiStakingPlatform.sol\":2184:2209  userInfo[poolId][account] */\n      0x00\n        /* \"contracts/DeFiStakingPlatform.sol\":2201:2208  account */\n      dup5\n        /* \"contracts/DeFiStakingPlatform.sol\":2184:2209  userInfo[poolId][account] */\n      0xffffffffffffffffffffffffffffffffffffffff\n      and\n      0xffffffffffffffffffffffffffffffffffffffff\n      and\n      dup2\n      mstore\n      0x20\n      add\n      swap1\n      dup2\n      mstore\n      0x20\n      add\n      0x00\n      keccak256\n        /* \"contracts/DeFiStakingPlatform.sol\":2160:2209  UserInfo storage user = userInfo[poolId][account] */\n      swap1\n      pop\n        /* \"contracts/DeFiStakingPlatform.sol\":2239:2262  earned(poolId, account) */\n      tag_130\n        /* \"contracts/DeFiStakingPlatform.sol\":2246:2252  poolId */\n      dup5\n        /* \"contracts/DeFiStakingPlatform.sol\":2254:2261  account */\n      dup5\n        /* \"contracts/DeFiStakingPlatform.sol\":2239:2245  earned */\n      tag_104\n        /* \"contracts/DeFiStakingPlatform.sol\":2239:2262  earned(poolId, account) */\n      jump\t// in\n    tag_130:\n        /* \"contracts/DeFiStakingPlatform.sol\":2224:2228  user */\n      dup2\n        /* \"contracts/DeFiStakingPlatform.sol\":2224:2236  user.rewards */\n      0x02\n      add\n        /* \"contracts/DeFiStakingPlatform.sol\":2224:2262  user.rewards = earned(poolId, account) */\n      dup2\n      swap1\n      sstore\n      pop\n        /* \"contracts/DeFiStakingPlatform.sol\":2307:2311  pool */\n      dup2\n        /* \"contracts/DeFiStakingPlatform.sol\":2307:2332  pool.rewardPerTokenStored */\n      0x04\n      add\n      sload\n        /* \"contracts/DeFiStakingPlatform.sol\":2277:2281  user */\n      dup2\n        /* \"contracts/DeFiStakingPlatform.sol\":2277:2304  user.userRewardPerTokenPaid */\n      0x01\n      add\n        /* \"contracts/DeFiStakingPlatform.sol\":2277:2332  user.userRewardPerTokenPaid = pool.rewardPerTokenStored */\n      dup2\n      swap1\n      sstore\n      pop\n        /* \"contracts/DeFiStakingPlatform.sol\":2145:2344  {... */\n      pop\n        /* \"contracts/DeFiStakingPlatform.sol\":2118:2344  if (account != address(0)) {... */\n    tag_129:\n        /* \"contracts/DeFiStakingPlatform.sol\":6153:6174  UserInfo storage user */\n      0x00\n        /* \"contracts/DeFiStakingPlatform.sol\":6177:6185  userInfo */\n      0x03\n        /* \"contracts/DeFiStakingPlatform.sol\":6177:6193  userInfo[poolId] */\n      0x00\n        /* \"contracts/DeFiStakingPlatform.sol\":6186:6192  poolId */\n      dup8\n        /* \"contracts/DeFiStakingPlatform.sol\":6177:6193  userInfo[poolId] */\n      dup2\n      mstore\n      0x20\n      add\n      swap1\n      dup2\n      mstore\n      0x20\n      add\n      0x00\n      keccak256\n        /* \"contracts/DeFiStakingPlatform.sol\":6177:6205  userInfo[poolId][msg.sender] */\n      0x00\n        /* \"contracts/DeFiStakingPlatform.sol\":6194:6204  msg.sender */\n      caller\n        /* \"contracts/DeFiStakingPlatform.sol\":6177:6205  userInfo[poolId][msg.sender] */\n      0xffffffffffffffffffffffffffffffffffffffff\n      and\n      0xffffffffffffffffffffffffffffffffffffffff\n      and\n      dup2\n      mstore\n      0x20\n      add\n      swap1\n      dup2\n      mstore\n      0x20\n      add\n      0x00\n      keccak256\n        /* \"contracts/DeFiStakingPlatform.sol\":6153:6205  UserInfo storage user = userInfo[poolId][msg.sender] */\n      swap1\n      pop\n        /* \"contracts/DeFiStakingPlatform.sol\":6216:6230  uint256 reward */\n      0x00\n        /* \"contracts/DeFiStakingPlatform.sol\":6233:6237  user */\n      dup2\n        /* \"contracts/DeFiStakingPlatform.sol\":6233:6245  user.rewards */\n      0x02\n      add\n      sload\n        /* \"contracts/DeFiStakingPlatform.sol\":6216:6245  uint256 reward = user.rewards */\n      swap1\n      pop\n        /* \"contracts/DeFiStakingPlatform.sol\":6279:6280  0 */\n      0x00\n        /* \"contracts/DeFiStakingPlatform.sol\":6270:6276  reward */\n      dup2\n        /* \"contracts/DeFiStakingPlatform.sol\":6270:6280  reward > 0 */\n      gt\n        /* \"contracts/DeFiStakingPlatform.sol\":6266:6456  if (reward > 0) {... */\n      iszero\n      tag_132\n      jumpi\n        /* \"contracts/DeFiStakingPlatform.sol\":6312:6313  0 */\n      0x00\n        /* \"contracts/DeFiStakingPlatform.sol\":6297:6301  user */\n      dup3\n        /* \"contracts/DeFiStakingPlatform.sol\":6297:6309  user.rewards */\n      0x02\n      add\n        /* \"contracts/DeFiStakingPlatform.sol\":6297:6313  user.rewards = 0 */\n      dup2\n      swap1\n      sstore\n      pop\n        /* \"contracts/DeFiStakingPlatform.sol\":6328:6386  pools[poolId].rewardToken.safeTransfer(msg.sender, reward) */\n      tag_133\n        /* \"contracts/DeFiStakingPlatform.sol\":6367:6377  msg.sender */\n      caller\n        /* \"contracts/DeFiStakingPlatform.sol\":6379:6385  reward */\n      dup3\n        /* \"contracts/DeFiStakingPlatform.sol\":6328:6333  pools */\n      0x02\n        /* \"contracts/DeFiStakingPlatform.sol\":6328:6341  pools[poolId] */\n      0x00\n        /* \"contracts/DeFiStakingPlatform.sol\":6334:6340  poolId */\n      dup12\n        /* \"contracts/DeFiStakingPlatform.sol\":6328:6341  pools[poolId] */\n      dup2\n      mstore\n      0x20\n      add\n      swap1\n      dup2\n      mstore\n      0x20\n      add\n      0x00\n      keccak256\n        /* \"contracts/DeFiStakingPlatform.sol\":6328:6353  pools[poolId].rewardToken */\n      0x01\n      add\n      0x00\n      swap1\n      sload\n      swap1\n      0x0100\n      exp\n      swap1\n      div\n      0xffffffffffffffffffffffffffffffffffffffff\n      and\n        /* \"contracts/DeFiStakingPlatform.sol\":6328:6366  pools[poolId].rewardToken.safeTransfer */\n      0xffffffffffffffffffffffffffffffffffffffff\n      and\n      tag_134\n      swap1\n        /* \"contracts/DeFiStakingPlatform.sol\":6328:6386  pools[poolId].rewardToken.safeTransfer(msg.sender, reward) */\n      swap3\n      swap2\n      swap1\n      0xffffffff\n      and\n      jump\t// in\n    tag_133:\n        /* \"contracts/DeFiStakingPlatform.sol\":6429:6435  poolId */\n      dup7\n        /* \"contracts/DeFiStakingPlatform.sol\":6417:6427  msg.sender */\n      caller\n        /* \"contracts/DeFiStakingPlatform.sol\":6406:6444  RewardPaid(msg.sender, poolId, reward) */\n      0xffffffffffffffffffffffffffffffffffffffff\n      and\n      0xd6f2c8500df5b44f11e9e48b91ff9f1b9d81bc496d55570c2b1b75bf65243f51\n        /* \"contracts/DeFiStakingPlatform.sol\":6437:6443  reward */\n      dup4\n        /* \"contracts/DeFiStakingPlatform.sol\":6406:6444  RewardPaid(msg.sender, poolId, reward) */\n      mload(0x40)\n      tag_135\n      swap2\n      swap1\n      tag_47\n      jump\t// in\n    tag_135:\n      mload(0x40)\n      dup1\n      swap2\n      sub\n      swap1\n      log3\n        /* \"contracts/DeFiStakingPlatform.sol\":6266:6456  if (reward > 0) {... */\n    tag_132:\n        /* \"contracts/DeFiStakingPlatform.sol\":6142:6463  {... */\n      pop\n      pop\n        /* \"contracts/DeFiStakingPlatform.sol\":1937:2363  {... */\n      pop\n        /* \"contracts/DeFiStakingPlatform.sol\":2483:2484  _ */\n      pop\n      pop\n        /* \"@openzeppelin/contracts/security/ReentrancyGuard.sol\":2292:2293  _ */\n      pop\n        /* \"@openzeppelin/contracts/security/ReentrancyGuard.sol\":2303:2323  _nonReentrantAfter() */\n      tag_136\n        /* \"@openzeppelin/contracts/security/ReentrancyGuard.sol\":2303:2321  _nonReentrantAfter */\n      tag_137\n        /* \"@openzeppelin/contracts/security/ReentrancyGuard.sol\":2303:2323  _nonReentrantAfter() */\n      jump\t// in\n    tag_136:\n        /* \"contracts/DeFiStakingPlatform.sol\":5989:6463  function getReward(uint256 poolId) ... */\n      pop\n      jump\t// out\n        /* \"contracts/DeFiStakingPlatform.sol\":8691:9375  function getPoolInfo(uint256 poolId) ... */\n    tag_41:\n        /* \"contracts/DeFiStakingPlatform.sol\":8824:8844  address stakingToken */\n      0x00\n        /* \"contracts/DeFiStakingPlatform.sol\":8859:8878  address rewardToken */\n      0x00\n        /* \"contracts/DeFiStakingPlatform.sol\":8893:8911  uint256 rewardRate */\n      0x00\n        /* \"contracts/DeFiStakingPlatform.sol\":8926:8945  uint256 totalSupply */\n      0x00\n        /* \"contracts/DeFiStakingPlatform.sol\":8960:8980  uint256 minimumStake */\n      0x00\n        /* \"contracts/DeFiStakingPlatform.sol\":8995:9013  uint256 lockPeriod */\n      0x00\n        /* \"contracts/DeFiStakingPlatform.sol\":9028:9039  bool active */\n      0x00\n        /* \"contracts/DeFiStakingPlatform.sol\":8783:8789  poolId */\n      dup8\n        /* \"contracts/DeFiStakingPlatform.sol\":2439:2448  poolCount */\n      sload(0x04)\n        /* \"contracts/DeFiStakingPlatform.sol\":2430:2436  poolId */\n      dup2\n        /* \"contracts/DeFiStakingPlatform.sol\":2430:2448  poolId < poolCount */\n      lt\n        /* \"contracts/DeFiStakingPlatform.sol\":2422:2472  require(poolId < poolCount, \"Pool does not exist\") */\n      tag_139\n      jumpi\n      mload(0x40)\n      0x08c379a000000000000000000000000000000000000000000000000000000000\n      dup2\n      mstore\n      0x04\n      add\n      tag_140\n      swap1\n      tag_116\n      jump\t// in\n    tag_140:\n      mload(0x40)\n      dup1\n      swap2\n      sub\n      swap1\n      revert\n    tag_139:\n        /* \"contracts/DeFiStakingPlatform.sol\":9068:9092  StakingPool storage pool */\n      0x00\n        /* \"contracts/DeFiStakingPlatform.sol\":9095:9100  pools */\n      0x02\n        /* \"contracts/DeFiStakingPlatform.sol\":9095:9108  pools[poolId] */\n      0x00\n        /* \"contracts/DeFiStakingPlatform.sol\":9101:9107  poolId */\n      dup12\n        /* \"contracts/DeFiStakingPlatform.sol\":9095:9108  pools[poolId] */\n      dup2\n      mstore\n      0x20\n      add\n      swap1\n      dup2\n      mstore\n      0x20\n      add\n      0x00\n      keccak256\n        /* \"contracts/DeFiStakingPlatform.sol\":9068:9108  StakingPool storage pool = pools[poolId] */\n      swap1\n      pop\n        /* \"contracts/DeFiStakingPlatform.sol\":9149:9153  pool */\n      dup1\n        /* \"contracts/DeFiStakingPlatform.sol\":9149:9166  pool.stakingToken */\n      0x00\n      add\n      0x00\n      swap1\n      sload\n      swap1\n      0x0100\n      exp\n      swap1\n      div\n      0xffffffffffffffffffffffffffffffffffffffff\n      and\n        /* \"contracts/DeFiStakingPlatform.sol\":9190:9194  pool */\n      dup2\n        /* \"contracts/DeFiStakingPlatform.sol\":9190:9206  pool.rewardToken */\n      0x01\n      add\n      0x00\n      swap1\n      sload\n      swap1\n      0x0100\n      exp\n      swap1\n      div\n      0xffffffffffffffffffffffffffffffffffffffff\n      and\n        /* \"contracts/DeFiStakingPlatform.sol\":9222:9226  pool */\n      dup3\n        /* \"contracts/DeFiStakingPlatform.sol\":9222:9237  pool.rewardRate */\n      0x02\n      add\n      sload\n        /* \"contracts/DeFiStakingPlatform.sol\":9252:9256  pool */\n      dup4\n        /* \"contracts/DeFiStakingPlatform.sol\":9252:9268  pool.totalSupply */\n      0x05\n      add\n      sload\n        /* \"contracts/DeFiStakingPlatform.sol\":9283:9287  pool */\n      dup5\n        /* \"contracts/DeFiStakingPlatform.sol\":9283:9300  pool.minimumStake */\n      0x06\n      add\n      sload\n        /* \"contracts/DeFiStakingPlatform.sol\":9315:9319  pool */\n      dup6\n        /* \"contracts/DeFiStakingPlatform.sol\":9315:9330  pool.lockPeriod */\n      0x07\n      add\n      sload\n        /* \"contracts/DeFiStakingPlatform.sol\":9345:9349  pool */\n      dup7\n        /* \"contracts/DeFiStakingPlatform.sol\":9345:9356  pool.active */\n      0x08\n      add\n      0x00\n      swap1\n      sload\n      swap1\n      0x0100\n      exp\n      swap1\n      div\n      0xff\n      and\n        /* \"contracts/DeFiStakingPlatform.sol\":9119:9367  return (... */\n      swap9\n      pop\n      swap9\n      pop\n      swap9\n      pop\n      swap9\n      pop\n      swap9\n      pop\n      swap9\n      pop\n      swap9\n      pop\n      pop\n        /* \"contracts/DeFiStakingPlatform.sol\":8691:9375  function getPoolInfo(uint256 poolId) ... */\n      pop\n      swap2\n      swap4\n      swap6\n      swap8\n      swap1\n      swap3\n      swap5\n      swap7\n      pop\n      jump\t// out\n        /* \"contracts/DeFiStakingPlatform.sol\":1160:1207  uint256 public constant REWARD_PRECISION = 1e18 */\n    tag_45:\n        /* \"contracts/DeFiStakingPlatform.sol\":1203:1207  1e18 */\n      0x0de0b6b3a7640000\n        /* \"contracts/DeFiStakingPlatform.sol\":1160:1207  uint256 public constant REWARD_PRECISION = 1e18 */\n      dup2\n      jump\t// out\n        /* \"contracts/DeFiStakingPlatform.sol\":10018:10085  function unpause() external onlyOwner {... */\n    tag_49:\n        /* \"@openzeppelin/contracts/access/Ownable.sol\":1531:1544  _checkOwner() */\n      tag_143\n        /* \"@openzeppelin/contracts/access/Ownable.sol\":1531:1542  _checkOwner */\n      tag_144\n        /* \"@openzeppelin/contracts/access/Ownable.sol\":1531:1544  _checkOwner() */\n      jump\t// in\n    tag_143:\n        /* \"contracts/DeFiStakingPlatform.sol\":10067:10077  _unpause() */\n      tag_146\n        /* \"contracts/DeFiStakingPlatform.sol\":10067:10075  _unpause */\n      tag_147\n        /* \"contracts/DeFiStakingPlatform.sol\":10067:10077  _unpause() */\n      jump\t// in\n    tag_146:\n        /* \"contracts/DeFiStakingPlatform.sol\":10018:10085  function unpause() external onlyOwner {... */\n      jump\t// out\n        /* \"contracts/DeFiStakingPlatform.sol\":5200:5977  function withdraw(uint256 poolId, uint256 amount) ... */\n    tag_53:\n        /* \"@openzeppelin/contracts/security/ReentrancyGuard.sol\":2261:2282  _nonReentrantBefore() */\n      tag_149\n        /* \"@openzeppelin/contracts/security/ReentrancyGuard.sol\":2261:2280  _nonReentrantBefore */\n      tag_123\n        /* \"@openzeppelin/contracts/security/ReentrancyGuard.sol\":2261:2282  _nonReentrantBefore() */\n      jump\t// in\n    tag_149:\n        /* \"contracts/DeFiStakingPlatform.sol\":5311:5317  poolId */\n      dup2\n        /* \"contracts/DeFiStakingPlatform.sol\":2439:2448  poolCount */\n      sload(0x04)\n        /* \"contracts/DeFiStakingPlatform.sol\":2430:2436  poolId */\n      dup2\n        /* \"contracts/DeFiStakingPlatform.sol\":2430:2448  poolId < poolCount */\n      lt\n        /* \"contracts/DeFiStakingPlatform.sol\":2422:2472  require(poolId < poolCount, \"Pool does not exist\") */\n      tag_151\n      jumpi\n      mload(0x40)\n      0x08c379a000000000000000000000000000000000000000000000000000000000\n      dup2\n      mstore\n      0x04\n      add\n      tag_152\n      swap1\n      tag_116\n      jump\t// in\n    tag_152:\n      mload(0x40)\n      dup1\n      swap2\n      sub\n      swap1\n      revert\n    tag_151:\n        /* \"contracts/DeFiStakingPlatform.sol\":5342:5348  poolId */\n      dup3\n        /* \"contracts/DeFiStakingPlatform.sol\":5350:5360  msg.sender */\n      caller\n        /* \"contracts/DeFiStakingPlatform.sol\":1948:1972  StakingPool storage pool */\n      0x00\n        /* \"contracts/DeFiStakingPlatform.sol\":1975:1980  pools */\n      0x02\n        /* \"contracts/DeFiStakingPlatform.sol\":1975:1988  pools[poolId] */\n      0x00\n        /* \"contracts/DeFiStakingPlatform.sol\":1981:1987  poolId */\n      dup5\n        /* \"contracts/DeFiStakingPlatform.sol\":1975:1988  pools[poolId] */\n      dup2\n      mstore\n      0x20\n      add\n      swap1\n      dup2\n      mstore\n      0x20\n      add\n      0x00\n      keccak256\n        /* \"contracts/DeFiStakingPlatform.sol\":1948:1988  StakingPool storage pool = pools[poolId] */\n      swap1\n      pop\n        /* \"contracts/DeFiStakingPlatform.sol\":2027:2049  rewardPerToken(poolId) */\n      tag_154\n        /* \"contracts/DeFiStakingPlatform.sol\":2042:2048  poolId */\n      dup4\n        /* \"contracts/DeFiStakingPlatform.sol\":2027:2041  rewardPerToken */\n      tag_77\n        /* \"contracts/DeFiStakingPlatform.sol\":2027:2049  rewardPerToken(poolId) */\n      jump\t// in\n    tag_154:\n        /* \"contracts/DeFiStakingPlatform.sol\":1999:2003  pool */\n      dup2\n        /* \"contracts/DeFiStakingPlatform.sol\":1999:2024  pool.rewardPerTokenStored */\n      0x04\n      add\n        /* \"contracts/DeFiStakingPlatform.sol\":1999:2049  pool.rewardPerTokenStored = rewardPerToken(poolId) */\n      dup2\n      swap1\n      sstore\n      pop\n        /* \"contracts/DeFiStakingPlatform.sol\":2082:2097  block.timestamp */\n      timestamp\n        /* \"contracts/DeFiStakingPlatform.sol\":2060:2064  pool */\n      dup2\n        /* \"contracts/DeFiStakingPlatform.sol\":2060:2079  pool.lastUpdateTime */\n      0x03\n      add\n        /* \"contracts/DeFiStakingPlatform.sol\":2060:2097  pool.lastUpdateTime = block.timestamp */\n      dup2\n      swap1\n      sstore\n      pop\n        /* \"contracts/DeFiStakingPlatform.sol\":2141:2142  0 */\n      0x00\n        /* \"contracts/DeFiStakingPlatform.sol\":2122:2143  account != address(0) */\n      0xffffffffffffffffffffffffffffffffffffffff\n      and\n        /* \"contracts/DeFiStakingPlatform.sol\":2122:2129  account */\n      dup3\n        /* \"contracts/DeFiStakingPlatform.sol\":2122:2143  account != address(0) */\n      0xffffffffffffffffffffffffffffffffffffffff\n      and\n      eq\n        /* \"contracts/DeFiStakingPlatform.sol\":2118:2344  if (account != address(0)) {... */\n      tag_155\n      jumpi\n        /* \"contracts/DeFiStakingPlatform.sol\":2160:2181  UserInfo storage user */\n      0x00\n        /* \"contracts/DeFiStakingPlatform.sol\":2184:2192  userInfo */\n      0x03\n        /* \"contracts/DeFiStakingPlatform.sol\":2184:2200  userInfo[poolId] */\n      0x00\n        /* \"contracts/DeFiStakingPlatform.sol\":2193:2199  poolId */\n      dup6\n        /* \"contracts/DeFiStakingPlatform.sol\":2184:2200  userInfo[poolId] */\n      dup2\n      mstore\n      0x20\n      add\n      swap1\n      dup2\n      mstore\n      0x20\n      add\n      0x00\n      keccak256\n        /* \"contracts/DeFiStakingPlatform.sol\":2184:2209  userInfo[poolId][account] */\n      0x00\n        /* \"contracts/DeFiStakingPlatform.sol\":2201:2208  account */\n      dup5\n        /* \"contracts/DeFiStakingPlatform.sol\":2184:2209  userInfo[poolId][account] */\n      0xffffffffffffffffffffffffffffffffffffffff\n      and\n      0xffffffffffffffffffffffffffffffffffffffff\n      and\n      dup2\n      mstore\n      0x20\n      add\n      swap1\n      dup2\n      mstore\n      0x20\n      add\n      0x00\n      keccak256\n        /* \"contracts/DeFiStakingPlatform.sol\":2160:2209  UserInfo storage user = userInfo[poolId][account] */\n      swap1\n      pop\n        /* \"contracts/DeFiStakingPlatform.sol\":2239:2262  earned(poolId, account) */\n      tag_156\n        /* \"contracts/DeFiStakingPlatform.sol\":2246:2252  poolId */\n      dup5\n        /* \"contracts/DeFiStakingPlatform.sol\":2254:2261  account */\n      dup5\n        /* \"contracts/DeFiStakingPlatform.sol\":2239:2245  earned */\n      tag_104\n        /* \"contracts/DeFiStakingPlatform.sol\":2239:2262  earned(poolId, account) */\n      jump\t// in\n    tag_156:\n        /* \"contracts/DeFiStakingPlatform.sol\":2224:2228  user */\n      dup2\n        /* \"contracts/DeFiStakingPlatform.sol\":2224:2236  user.rewards */\n      0x02\n      add\n        /* \"contracts/DeFiStakingPlatform.sol\":2224:2262  user.rewards = earned(poolId, account) */\n      dup2\n      swap1\n      sstore\n      pop\n        /* \"contracts/DeFiStakingPlatform.sol\":2307:2311  pool */\n      dup2\n        /* \"contracts/DeFiStakingPlatform.sol\":2307:2332  pool.rewardPerTokenStored */\n      0x04\n      add\n      sload\n        /* \"contracts/DeFiStakingPlatform.sol\":2277:2281  user */\n      dup2\n        /* \"contracts/DeFiStakingPlatform.sol\":2277:2304  user.userRewardPerTokenPaid */\n      0x01\n      add\n        /* \"contracts/DeFiStakingPlatform.sol\":2277:2332  user.userRewardPerTokenPaid = pool.rewardPerTokenStored */\n      dup2\n      swap1\n      sstore\n      pop\n        /* \"contracts/DeFiStakingPlatform.sol\":2145:2344  {... */\n      pop\n        /* \"contracts/DeFiStakingPlatform.sol\":2118:2344  if (account != address(0)) {... */\n    tag_155:\n        /* \"contracts/DeFiStakingPlatform.sol\":5396:5397  0 */\n      0x00\n        /* \"contracts/DeFiStakingPlatform.sol\":5387:5393  amount */\n      dup6\n        /* \"contracts/DeFiStakingPlatform.sol\":5387:5397  amount > 0 */\n      gt\n        /* \"contracts/DeFiStakingPlatform.sol\":5379:5419  require(amount > 0, \"Cannot withdraw 0\") */\n      tag_158\n      jumpi\n      mload(0x40)\n      0x08c379a000000000000000000000000000000000000000000000000000000000\n      dup2\n      mstore\n      0x04\n      add\n      tag_159\n      swap1\n      tag_160\n      jump\t// in\n    tag_159:\n      mload(0x40)\n      dup1\n      swap2\n      sub\n      swap1\n      revert\n    tag_158:\n        /* \"contracts/DeFiStakingPlatform.sol\":5440:5464  StakingPool storage pool */\n      0x00\n        /* \"contracts/DeFiStakingPlatform.sol\":5467:5472  pools */\n      0x02\n        /* \"contracts/DeFiStakingPlatform.sol\":5467:5480  pools[poolId] */\n      0x00\n        /* \"contracts/DeFiStakingPlatform.sol\":5473:5479  poolId */\n      dup9\n        /* \"contracts/DeFiStakingPlatform.sol\":5467:5480  pools[poolId] */\n      dup2\n      mstore\n      0x20\n      add\n      swap1\n      dup2\n      mstore\n      0x20\n      add\n      0x00\n      keccak256\n        /* \"contracts/DeFiStakingPlatform.sol\":5440:5480  StakingPool storage pool = pools[poolId] */\n      swap1\n      pop\n        /* \"contracts/DeFiStakingPlatform.sol\":5491:5512  UserInfo storage user */\n      0x00\n        /* \"contracts/DeFiStakingPlatform.sol\":5515:5523  userInfo */\n      0x03\n        /* \"contracts/DeFiStakingPlatform.sol\":5515:5531  userInfo[poolId] */\n      0x00\n        /* \"contracts/DeFiStakingPlatform.sol\":5524:5530  poolId */\n      dup10\n        /* \"contracts/DeFiStakingPlatform.sol\":5515:5531  userInfo[poolId] */\n      dup2\n      mstore\n      0x20\n      add\n      swap1\n      dup2\n      mstore\n      0x20\n      add\n      0x00\n      keccak256\n        /* \"contracts/DeFiStakingPlatform.sol\":5515:5543  userInfo[poolId][msg.sender] */\n      0x00\n        /* \"contracts/DeFiStakingPlatform.sol\":5532:5542  msg.sender */\n      caller\n        /* \"contracts/DeFiStakingPlatform.sol\":5515:5543  userInfo[poolId][msg.sender] */\n      0xffffffffffffffffffffffffffffffffffffffff\n      and\n      0xffffffffffffffffffffffffffffffffffffffff\n      and\n      dup2\n      mstore\n      0x20\n      add\n      swap1\n      dup2\n      mstore\n      0x20\n      add\n      0x00\n      keccak256\n        /* \"contracts/DeFiStakingPlatform.sol\":5491:5543  UserInfo storage user = userInfo[poolId][msg.sender] */\n      swap1\n      pop\n        /* \"contracts/DeFiStakingPlatform.sol\":5588:5594  amount */\n      dup7\n        /* \"contracts/DeFiStakingPlatform.sol\":5572:5576  user */\n      dup2\n        /* \"contracts/DeFiStakingPlatform.sol\":5572:5584  user.balance */\n      0x00\n      add\n      sload\n        /* \"contracts/DeFiStakingPlatform.sol\":5572:5594  user.balance >= amount */\n      lt\n      iszero\n        /* \"contracts/DeFiStakingPlatform.sol\":5564:5619  require(user.balance >= amount, \"Insufficient balance\") */\n      tag_161\n      jumpi\n      mload(0x40)\n      0x08c379a000000000000000000000000000000000000000000000000000000000\n      dup2\n      mstore\n      0x04\n      add\n      tag_162\n      swap1\n      tag_163\n      jump\t// in\n    tag_162:\n      mload(0x40)\n      dup1\n      swap2\n      sub\n      swap1\n      revert\n    tag_161:\n        /* \"contracts/DeFiStakingPlatform.sol\":5689:5693  pool */\n      dup2\n        /* \"contracts/DeFiStakingPlatform.sol\":5689:5704  pool.lockPeriod */\n      0x07\n      add\n      sload\n        /* \"contracts/DeFiStakingPlatform.sol\":5671:5675  user */\n      dup2\n        /* \"contracts/DeFiStakingPlatform.sol\":5671:5686  user.stakedTime */\n      0x03\n      add\n      sload\n        /* \"contracts/DeFiStakingPlatform.sol\":5671:5704  user.stakedTime + pool.lockPeriod */\n      tag_164\n      swap2\n      swap1\n      tag_120\n      jump\t// in\n    tag_164:\n        /* \"contracts/DeFiStakingPlatform.sol\":5652:5667  block.timestamp */\n      timestamp\n        /* \"contracts/DeFiStakingPlatform.sol\":5652:5704  block.timestamp >= user.stakedTime + pool.lockPeriod */\n      lt\n      iszero\n        /* \"contracts/DeFiStakingPlatform.sol\":5630:5755  require(... */\n      tag_165\n      jumpi\n      mload(0x40)\n      0x08c379a000000000000000000000000000000000000000000000000000000000\n      dup2\n      mstore\n      0x04\n      add\n      tag_166\n      swap1\n      tag_167\n      jump\t// in\n    tag_166:\n      mload(0x40)\n      dup1\n      swap2\n      sub\n      swap1\n      revert\n    tag_165:\n        /* \"contracts/DeFiStakingPlatform.sol\":5796:5802  amount */\n      dup7\n        /* \"contracts/DeFiStakingPlatform.sol\":5776:5780  pool */\n      dup3\n        /* \"contracts/DeFiStakingPlatform.sol\":5776:5792  pool.totalSupply */\n      0x05\n      add\n      0x00\n        /* \"contracts/DeFiStakingPlatform.sol\":5776:5802  pool.totalSupply -= amount */\n      dup3\n      dup3\n      sload\n      tag_168\n      swap2\n      swap1\n      tag_169\n      jump\t// in\n    tag_168:\n      swap3\n      pop\n      pop\n      dup2\n      swap1\n      sstore\n      pop\n        /* \"contracts/DeFiStakingPlatform.sol\":5829:5835  amount */\n      dup7\n        /* \"contracts/DeFiStakingPlatform.sol\":5813:5817  user */\n      dup2\n        /* \"contracts/DeFiStakingPlatform.sol\":5813:5825  user.balance */\n      0x00\n      add\n      0x00\n        /* \"contracts/DeFiStakingPlatform.sol\":5813:5835  user.balance -= amount */\n      dup3\n      dup3\n      sload\n      tag_170\n      swap2\n      swap1\n      tag_169\n      jump\t// in\n    tag_170:\n      swap3\n      pop\n      pop\n      dup2\n      swap1\n      sstore\n      pop\n        /* \"contracts/DeFiStakingPlatform.sol\":5856:5906  pool.stakingToken.safeTransfer(msg.sender, amount) */\n      tag_171\n        /* \"contracts/DeFiStakingPlatform.sol\":5887:5897  msg.sender */\n      caller\n        /* \"contracts/DeFiStakingPlatform.sol\":5899:5905  amount */\n      dup9\n        /* \"contracts/DeFiStakingPlatform.sol\":5856:5860  pool */\n      dup5\n        /* \"contracts/DeFiStakingPlatform.sol\":5856:5873  pool.stakingToken */\n      0x00\n      add\n      0x00\n      swap1\n      sload\n      swap1\n      0x0100\n      exp\n      swap1\n      div\n      0xffffffffffffffffffffffffffffffffffffffff\n      and\n        /* \"contracts/DeFiStakingPlatform.sol\":5856:5886  pool.stakingToken.safeTransfer */\n      0xffffffffffffffffffffffffffffffffffffffff\n      and\n      tag_134\n      swap1\n        /* \"contracts/DeFiStakingPlatform.sol\":5856:5906  pool.stakingToken.safeTransfer(msg.sender, amount) */\n      swap3\n      swap2\n      swap1\n      0xffffffff\n      and\n      jump\t// in\n    tag_171:\n        /* \"contracts/DeFiStakingPlatform.sol\":5954:5960  poolId */\n      dup8\n        /* \"contracts/DeFiStakingPlatform.sol\":5942:5952  msg.sender */\n      caller\n        /* \"contracts/DeFiStakingPlatform.sol\":5932:5969  Withdrawn(msg.sender, poolId, amount) */\n      0xffffffffffffffffffffffffffffffffffffffff\n      and\n      0x92ccf450a286a957af52509bc1c9939d1a6a481783e142e41e2499f0bb66ebc6\n        /* \"contracts/DeFiStakingPlatform.sol\":5962:5968  amount */\n      dup10\n        /* \"contracts/DeFiStakingPlatform.sol\":5932:5969  Withdrawn(msg.sender, poolId, amount) */\n      mload(0x40)\n      tag_172\n      swap2\n      swap1\n      tag_47\n      jump\t// in\n    tag_172:\n      mload(0x40)\n      dup1\n      swap2\n      sub\n      swap1\n      log3\n        /* \"contracts/DeFiStakingPlatform.sol\":5368:5977  {... */\n      pop\n      pop\n        /* \"contracts/DeFiStakingPlatform.sol\":1937:2363  {... */\n      pop\n        /* \"contracts/DeFiStakingPlatform.sol\":2483:2484  _ */\n      pop\n      pop\n        /* \"@openzeppelin/contracts/security/ReentrancyGuard.sol\":2292:2293  _ */\n      pop\n        /* \"@openzeppelin/contracts/security/ReentrancyGuard.sol\":2303:2323  _nonReentrantAfter() */\n      tag_173\n        /* \"@openzeppelin/contracts/security/ReentrancyGuard.sol\":2303:2321  _nonReentrantAfter */\n      tag_137\n        /* \"@openzeppelin/contracts/security/ReentrancyGuard.sol\":2303:2323  _nonReentrantAfter() */\n      jump\t// in\n    tag_173:\n        /* \"contracts/DeFiStakingPlatform.sol\":5200:5977  function withdraw(uint256 poolId, uint256 amount) ... */\n      pop\n      pop\n      jump\t// out\n        /* \"contracts/DeFiStakingPlatform.sol\":7535:8084  function emergencyWithdraw(uint256 poolId) ... */\n    tag_56:\n        /* \"@openzeppelin/contracts/security/ReentrancyGuard.sol\":2261:2282  _nonReentrantBefore() */\n      tag_175\n        /* \"@openzeppelin/contracts/security/ReentrancyGuard.sol\":2261:2280  _nonReentrantBefore */\n      tag_123\n        /* \"@openzeppelin/contracts/security/ReentrancyGuard.sol\":2261:2282  _nonReentrantBefore() */\n      jump\t// in\n    tag_175:\n        /* \"contracts/DeFiStakingPlatform.sol\":7641:7647  poolId */\n      dup1\n        /* \"contracts/DeFiStakingPlatform.sol\":2439:2448  poolCount */\n      sload(0x04)\n        /* \"contracts/DeFiStakingPlatform.sol\":2430:2436  poolId */\n      dup2\n        /* \"contracts/DeFiStakingPlatform.sol\":2430:2448  poolId < poolCount */\n      lt\n        /* \"contracts/DeFiStakingPlatform.sol\":2422:2472  require(poolId < poolCount, \"Pool does not exist\") */\n      tag_177\n      jumpi\n      mload(0x40)\n      0x08c379a000000000000000000000000000000000000000000000000000000000\n      dup2\n      mstore\n      0x04\n      add\n      tag_178\n      swap1\n      tag_116\n      jump\t// in\n    tag_178:\n      mload(0x40)\n      dup1\n      swap2\n      sub\n      swap1\n      revert\n    tag_177:\n        /* \"contracts/DeFiStakingPlatform.sol\":7666:7687  UserInfo storage user */\n      0x00\n        /* \"contracts/DeFiStakingPlatform.sol\":7690:7698  userInfo */\n      0x03\n        /* \"contracts/DeFiStakingPlatform.sol\":7690:7706  userInfo[poolId] */\n      0x00\n        /* \"contracts/DeFiStakingPlatform.sol\":7699:7705  poolId */\n      dup5\n        /* \"contracts/DeFiStakingPlatform.sol\":7690:7706  userInfo[poolId] */\n      dup2\n      mstore\n      0x20\n      add\n      swap1\n      dup2\n      mstore\n      0x20\n      add\n      0x00\n      keccak256\n        /* \"contracts/DeFiStakingPlatform.sol\":7690:7718  userInfo[poolId][msg.sender] */\n      0x00\n        /* \"contracts/DeFiStakingPlatform.sol\":7707:7717  msg.sender */\n      caller\n        /* \"contracts/DeFiStakingPlatform.sol\":7690:7718  userInfo[poolId][msg.sender] */\n      0xffffffffffffffffffffffffffffffffffffffff\n      and\n      0xffffffffffffffffffffffffffffffffffffffff\n      and\n      dup2\n      mstore\n      0x20\n      add\n      swap1\n      dup2\n      mstore\n      0x20\n      add\n      0x00\n      keccak256\n        /* \"contracts/DeFiStakingPlatform.sol\":7666:7718  UserInfo storage user = userInfo[poolId][msg.sender] */\n      swap1\n      pop\n        /* \"contracts/DeFiStakingPlatform.sol\":7729:7743  uint256 amount */\n      0x00\n        /* \"contracts/DeFiStakingPlatform.sol\":7746:7750  user */\n      dup2\n        /* \"contracts/DeFiStakingPlatform.sol\":7746:7758  user.balance */\n      0x00\n      add\n      sload\n        /* \"contracts/DeFiStakingPlatform.sol\":7729:7758  uint256 amount = user.balance */\n      swap1\n      pop\n        /* \"contracts/DeFiStakingPlatform.sol\":7796:7797  0 */\n      0x00\n        /* \"contracts/DeFiStakingPlatform.sol\":7787:7793  amount */\n      dup2\n        /* \"contracts/DeFiStakingPlatform.sol\":7787:7797  amount > 0 */\n      gt\n        /* \"contracts/DeFiStakingPlatform.sol\":7779:7823  require(amount > 0, \"No tokens to withdraw\") */\n      tag_180\n      jumpi\n      mload(0x40)\n      0x08c379a000000000000000000000000000000000000000000000000000000000\n      dup2\n      mstore\n      0x04\n      add\n      tag_181\n      swap1\n      tag_182\n      jump\t// in\n    tag_181:\n      mload(0x40)\n      dup1\n      swap2\n      sub\n      swap1\n      revert\n    tag_180:\n        /* \"contracts/DeFiStakingPlatform.sol\":7873:7879  amount */\n      dup1\n        /* \"contracts/DeFiStakingPlatform.sol\":7844:7849  pools */\n      0x02\n        /* \"contracts/DeFiStakingPlatform.sol\":7844:7857  pools[poolId] */\n      0x00\n        /* \"contracts/DeFiStakingPlatform.sol\":7850:7856  poolId */\n      dup7\n        /* \"contracts/DeFiStakingPlatform.sol\":7844:7857  pools[poolId] */\n      dup2\n      mstore\n      0x20\n      add\n      swap1\n      dup2\n      mstore\n      0x20\n      add\n      0x00\n      keccak256\n        /* \"contracts/DeFiStakingPlatform.sol\":7844:7869  pools[poolId].totalSupply */\n      0x05\n      add\n      0x00\n        /* \"contracts/DeFiStakingPlatform.sol\":7844:7879  pools[poolId].totalSupply -= amount */\n      dup3\n      dup3\n      sload\n      tag_183\n      swap2\n      swap1\n      tag_169\n      jump\t// in\n    tag_183:\n      swap3\n      pop\n      pop\n      dup2\n      swap1\n      sstore\n      pop\n        /* \"contracts/DeFiStakingPlatform.sol\":7905:7906  0 */\n      0x00\n        /* \"contracts/DeFiStakingPlatform.sol\":7890:7894  user */\n      dup3\n        /* \"contracts/DeFiStakingPlatform.sol\":7890:7902  user.balance */\n      0x00\n      add\n        /* \"contracts/DeFiStakingPlatform.sol\":7890:7906  user.balance = 0 */\n      dup2\n      swap1\n      sstore\n      pop\n        /* \"contracts/DeFiStakingPlatform.sol\":7932:7933  0 */\n      0x00\n        /* \"contracts/DeFiStakingPlatform.sol\":7917:7921  user */\n      dup3\n        /* \"contracts/DeFiStakingPlatform.sol\":7917:7929  user.rewards */\n      0x02\n      add\n        /* \"contracts/DeFiStakingPlatform.sol\":7917:7933  user.rewards = 0 */\n      dup2\n      swap1\n      sstore\n      pop\n        /* \"contracts/DeFiStakingPlatform.sol\":7954:8013  pools[poolId].stakingToken.safeTransfer(msg.sender, amount) */\n      tag_184\n        /* \"contracts/DeFiStakingPlatform.sol\":7994:8004  msg.sender */\n      caller\n        /* \"contracts/DeFiStakingPlatform.sol\":8006:8012  amount */\n      dup3\n        /* \"contracts/DeFiStakingPlatform.sol\":7954:7959  pools */\n      0x02\n        /* \"contracts/DeFiStakingPlatform.sol\":7954:7967  pools[poolId] */\n      0x00\n        /* \"contracts/DeFiStakingPlatform.sol\":7960:7966  poolId */\n      dup9\n        /* \"contracts/DeFiStakingPlatform.sol\":7954:7967  pools[poolId] */\n      dup2\n      mstore\n      0x20\n      add\n      swap1\n      dup2\n      mstore\n      0x20\n      add\n      0x00\n      keccak256\n        /* \"contracts/DeFiStakingPlatform.sol\":7954:7980  pools[poolId].stakingToken */\n      0x00\n      add\n      0x00\n      swap1\n      sload\n      swap1\n      0x0100\n      exp\n      swap1\n      div\n      0xffffffffffffffffffffffffffffffffffffffff\n      and\n        /* \"contracts/DeFiStakingPlatform.sol\":7954:7993  pools[poolId].stakingToken.safeTransfer */\n      0xffffffffffffffffffffffffffffffffffffffff\n      and\n      tag_134\n      swap1\n        /* \"contracts/DeFiStakingPlatform.sol\":7954:8013  pools[poolId].stakingToken.safeTransfer(msg.sender, amount) */\n      swap3\n      swap2\n      swap1\n      0xffffffff\n      and\n      jump\t// in\n    tag_184:\n        /* \"contracts/DeFiStakingPlatform.sol\":8061:8067  poolId */\n      dup4\n        /* \"contracts/DeFiStakingPlatform.sol\":8049:8059  msg.sender */\n      caller\n        /* \"contracts/DeFiStakingPlatform.sol\":8039:8076  Withdrawn(msg.sender, poolId, amount) */\n      0xffffffffffffffffffffffffffffffffffffffff\n      and\n      0x92ccf450a286a957af52509bc1c9939d1a6a481783e142e41e2499f0bb66ebc6\n        /* \"contracts/DeFiStakingPlatform.sol\":8069:8075  amount */\n      dup4\n        /* \"contracts/DeFiStakingPlatform.sol\":8039:8076  Withdrawn(msg.sender, poolId, amount) */\n      mload(0x40)\n      tag_185\n      swap2\n      swap1\n      tag_47\n      jump\t// in\n    tag_185:\n      mload(0x40)\n      dup1\n      swap2\n      sub\n      swap1\n      log3\n        /* \"contracts/DeFiStakingPlatform.sol\":7655:8084  {... */\n      pop\n      pop\n        /* \"@openzeppelin/contracts/security/ReentrancyGuard.sol\":2292:2293  _ */\n      pop\n        /* \"@openzeppelin/contracts/security/ReentrancyGuard.sol\":2303:2323  _nonReentrantAfter() */\n      tag_186\n        /* \"@openzeppelin/contracts/security/ReentrancyGuard.sol\":2303:2321  _nonReentrantAfter */\n      tag_137\n        /* \"@openzeppelin/contracts/security/ReentrancyGuard.sol\":2303:2323  _nonReentrantAfter() */\n      jump\t// in\n    tag_186:\n        /* \"contracts/DeFiStakingPlatform.sol\":7535:8084  function emergencyWithdraw(uint256 poolId) ... */\n      pop\n      jump\t// out\n        /* \"@openzeppelin/contracts/security/Pausable.sol\":1615:1699  function paused() public view virtual returns (bool) {... */\n    tag_58:\n        /* \"@openzeppelin/contracts/security/Pausable.sol\":1662:1666  bool */\n      0x00\n        /* \"@openzeppelin/contracts/security/Pausable.sol\":1685:1692  _paused */\n      0x01\n      0x14\n      swap1\n      sload\n      swap1\n      0x0100\n      exp\n      swap1\n      div\n      0xff\n      and\n        /* \"@openzeppelin/contracts/security/Pausable.sol\":1678:1692  return _paused */\n      swap1\n      pop\n        /* \"@openzeppelin/contracts/security/Pausable.sol\":1615:1699  function paused() public view virtual returns (bool) {... */\n      swap1\n      jump\t// out\n        /* \"@openzeppelin/contracts/access/Ownable.sol\":2293:2394  function renounceOwnership() public virtual onlyOwner {... */\n    tag_62:\n        /* \"@openzeppelin/contracts/access/Ownable.sol\":1531:1544  _checkOwner() */\n      tag_189\n        /* \"@openzeppelin/contracts/access/Ownable.sol\":1531:1542  _checkOwner */\n      tag_144\n        /* \"@openzeppelin/contracts/access/Ownable.sol\":1531:1544  _checkOwner() */\n      jump\t// in\n    tag_189:\n        /* \"@openzeppelin/contracts/access/Ownable.sol\":2357:2387  _transferOwnership(address(0)) */\n      tag_191\n        /* \"@openzeppelin/contracts/access/Ownable.sol\":2384:2385  0 */\n      0x00\n        /* \"@openzeppelin/contracts/access/Ownable.sol\":2357:2375  _transferOwnership */\n      tag_192\n        /* \"@openzeppelin/contracts/access/Ownable.sol\":2357:2387  _transferOwnership(address(0)) */\n      jump\t// in\n    tag_191:\n        /* \"@openzeppelin/contracts/access/Ownable.sol\":2293:2394  function renounceOwnership() public virtual onlyOwner {... */\n      jump\t// out\n        /* \"contracts/DeFiStakingPlatform.sol\":4427:5188  function stake(uint256 poolId, uint256 amount) ... */\n    tag_65:\n        /* \"@openzeppelin/contracts/security/ReentrancyGuard.sol\":2261:2282  _nonReentrantBefore() */\n      tag_194\n        /* \"@openzeppelin/contracts/security/ReentrancyGuard.sol\":2261:2280  _nonReentrantBefore */\n      tag_123\n        /* \"@openzeppelin/contracts/security/ReentrancyGuard.sol\":2261:2282  _nonReentrantBefore() */\n      jump\t// in\n    tag_194:\n        /* \"@openzeppelin/contracts/security/Pausable.sol\":1239:1258  _requireNotPaused() */\n      tag_196\n        /* \"@openzeppelin/contracts/security/Pausable.sol\":1239:1256  _requireNotPaused */\n      tag_197\n        /* \"@openzeppelin/contracts/security/Pausable.sol\":1239:1258  _requireNotPaused() */\n      jump\t// in\n    tag_196:\n        /* \"contracts/DeFiStakingPlatform.sol\":4561:4567  poolId */\n      dup2\n        /* \"contracts/DeFiStakingPlatform.sol\":2439:2448  poolCount */\n      sload(0x04)\n        /* \"contracts/DeFiStakingPlatform.sol\":2430:2436  poolId */\n      dup2\n        /* \"contracts/DeFiStakingPlatform.sol\":2430:2448  poolId < poolCount */\n      lt\n        /* \"contracts/DeFiStakingPlatform.sol\":2422:2472  require(poolId < poolCount, \"Pool does not exist\") */\n      tag_199\n      jumpi\n      mload(0x40)\n      0x08c379a000000000000000000000000000000000000000000000000000000000\n      dup2\n      mstore\n      0x04\n      add\n      tag_200\n      swap1\n      tag_116\n      jump\t// in\n    tag_200:\n      mload(0x40)\n      dup1\n      swap2\n      sub\n      swap1\n      revert\n    tag_199:\n        /* \"contracts/DeFiStakingPlatform.sol\":4590:4596  poolId */\n      dup3\n        /* \"contracts/DeFiStakingPlatform.sol\":2559:2564  pools */\n      0x02\n        /* \"contracts/DeFiStakingPlatform.sol\":2559:2572  pools[poolId] */\n      0x00\n        /* \"contracts/DeFiStakingPlatform.sol\":2565:2571  poolId */\n      dup3\n        /* \"contracts/DeFiStakingPlatform.sol\":2559:2572  pools[poolId] */\n      dup2\n      mstore\n      0x20\n      add\n      swap1\n      dup2\n      mstore\n      0x20\n      add\n      0x00\n      keccak256\n        /* \"contracts/DeFiStakingPlatform.sol\":2559:2579  pools[poolId].active */\n      0x08\n      add\n      0x00\n      swap1\n      sload\n      swap1\n      0x0100\n      exp\n      swap1\n      div\n      0xff\n      and\n        /* \"contracts/DeFiStakingPlatform.sol\":2551:2602  require(pools[poolId].active, \"Pool is not active\") */\n      tag_202\n      jumpi\n      mload(0x40)\n      0x08c379a000000000000000000000000000000000000000000000000000000000\n      dup2\n      mstore\n      0x04\n      add\n      tag_203\n      swap1\n      tag_204\n      jump\t// in\n    tag_203:\n      mload(0x40)\n      dup1\n      swap2\n      sub\n      swap1\n      revert\n    tag_202:\n        /* \"contracts/DeFiStakingPlatform.sol\":4621:4627  poolId */\n      dup4\n        /* \"contracts/DeFiStakingPlatform.sol\":4629:4639  msg.sender */\n      caller\n        /* \"contracts/DeFiStakingPlatform.sol\":1948:1972  StakingPool storage pool */\n      0x00\n        /* \"contracts/DeFiStakingPlatform.sol\":1975:1980  pools */\n      0x02\n        /* \"contracts/DeFiStakingPlatform.sol\":1975:1988  pools[poolId] */\n      0x00\n        /* \"contracts/DeFiStakingPlatform.sol\":1981:1987  poolId */\n      dup5\n        /* \"contracts/DeFiStakingPlatform.sol\":1975:1988  pools[poolId] */\n      dup2\n      mstore\n      0x20\n      add\n      swap1\n      dup2\n      mstore\n      0x20\n      add\n      0x00\n      keccak256\n        /* \"contracts/DeFiStakingPlatform.sol\":1948:1988  StakingPool storage pool = pools[poolId] */\n      swap1\n      pop\n        /* \"contracts/DeFiStakingPlatform.sol\":2027:2049  rewardPerToken(poolId) */\n      tag_206\n        /* \"contracts/DeFiStakingPlatform.sol\":2042:2048  poolId */\n      dup4\n        /* \"contracts/DeFiStakingPlatform.sol\":2027:2041  rewardPerToken */\n      tag_77\n        /* \"contracts/DeFiStakingPlatform.sol\":2027:2049  rewardPerToken(poolId) */\n      jump\t// in\n    tag_206:\n        /* \"contracts/DeFiStakingPlatform.sol\":1999:2003  pool */\n      dup2\n        /* \"contracts/DeFiStakingPlatform.sol\":1999:2024  pool.rewardPerTokenStored */\n      0x04\n      add\n        /* \"contracts/DeFiStakingPlatform.sol\":1999:2049  pool.rewardPerTokenStored = rewardPerToken(poolId) */\n      dup2\n      swap1\n      sstore\n      pop\n        /* \"contracts/DeFiStakingPlatform.sol\":2082:2097  block.timestamp */\n      timestamp\n        /* \"contracts/DeFiStakingPlatform.sol\":2060:2064  pool */\n      dup2\n        /* \"contracts/DeFiStakingPlatform.sol\":2060:2079  pool.lastUpdateTime */\n      0x03\n      add\n        /* \"contracts/DeFiStakingPlatform.sol\":2060:2097  pool.lastUpdateTime = block.timestamp */\n      dup2\n      swap1\n      sstore\n      pop\n        /* \"contracts/DeFiStakingPlatform.sol\":2141:2142  0 */\n      0x00\n        /* \"contracts/DeFiStakingPlatform.sol\":2122:2143  account != address(0) */\n      0xffffffffffffffffffffffffffffffffffffffff\n      and\n        /* \"contracts/DeFiStakingPlatform.sol\":2122:2129  account */\n      dup3\n        /* \"contracts/DeFiStakingPlatform.sol\":2122:2143  account != address(0) */\n      0xffffffffffffffffffffffffffffffffffffffff\n      and\n      eq\n        /* \"contracts/DeFiStakingPlatform.sol\":2118:2344  if (account != address(0)) {... */\n      tag_207\n      jumpi\n        /* \"contracts/DeFiStakingPlatform.sol\":2160:2181  UserInfo storage user */\n      0x00\n        /* \"contracts/DeFiStakingPlatform.sol\":2184:2192  userInfo */\n      0x03\n        /* \"contracts/DeFiStakingPlatform.sol\":2184:2200  userInfo[poolId] */\n      0x00\n        /* \"contracts/DeFiStakingPlatform.sol\":2193:2199  poolId */\n      dup6\n        /* \"contracts/DeFiStakingPlatform.sol\":2184:2200  userInfo[poolId] */\n      dup2\n      mstore\n      0x20\n      add\n      swap1\n      dup2\n      mstore\n      0x20\n      add\n      0x00\n      keccak256\n        /* \"contracts/DeFiStakingPlatform.sol\":2184:2209  userInfo[poolId][account] */\n      0x00\n        /* \"contracts/DeFiStakingPlatform.sol\":2201:2208  account */\n      dup5\n        /* \"contracts/DeFiStakingPlatform.sol\":2184:2209  userInfo[poolId][account] */\n      0xffffffffffffffffffffffffffffffffffffffff\n      and\n      0xffffffffffffffffffffffffffffffffffffffff\n      and\n      dup2\n      mstore\n      0x20\n      add\n      swap1\n      dup2\n      mstore\n      0x20\n      add\n      0x00\n      keccak256\n        /* \"contracts/DeFiStakingPlatform.sol\":2160:2209  UserInfo storage user = userInfo[poolId][account] */\n      swap1\n      pop\n        /* \"contracts/DeFiStakingPlatform.sol\":2239:2262  earned(poolId, account) */\n      tag_208\n        /* \"contracts/DeFiStakingPlatform.sol\":2246:2252  poolId */\n      dup5\n        /* \"contracts/DeFiStakingPlatform.sol\":2254:2261  account */\n      dup5\n        /* \"contracts/DeFiStakingPlatform.sol\":2239:2245  earned */\n      tag_104\n        /* \"contracts/DeFiStakingPlatform.sol\":2239:2262  earned(poolId, account) */\n      jump\t// in\n    tag_208:\n        /* \"contracts/DeFiStakingPlatform.sol\":2224:2228  user */\n      dup2\n        /* \"contracts/DeFiStakingPlatform.sol\":2224:2236  user.rewards */\n      0x02\n      add\n        /* \"contracts/DeFiStakingPlatform.sol\":2224:2262  user.rewards = earned(poolId, account) */\n      dup2\n      swap1\n      sstore\n      pop\n        /* \"contracts/DeFiStakingPlatform.sol\":2307:2311  pool */\n      dup2\n        /* \"contracts/DeFiStakingPlatform.sol\":2307:2332  pool.rewardPerTokenStored */\n      0x04\n      add\n      sload\n        /* \"contracts/DeFiStakingPlatform.sol\":2277:2281  user */\n      dup2\n        /* \"contracts/DeFiStakingPlatform.sol\":2277:2304  user.userRewardPerTokenPaid */\n      0x01\n      add\n        /* \"contracts/DeFiStakingPlatform.sol\":2277:2332  user.userRewardPerTokenPaid = pool.rewardPerTokenStored */\n      dup2\n      swap1\n      sstore\n      pop\n        /* \"contracts/DeFiStakingPlatform.sol\":2145:2344  {... */\n      pop\n        /* \"contracts/DeFiStakingPlatform.sol\":2118:2344  if (account != address(0)) {... */\n    tag_207:\n        /* \"contracts/DeFiStakingPlatform.sol\":4675:4676  0 */\n      0x00\n        /* \"contracts/DeFiStakingPlatform.sol\":4666:4672  amount */\n      dup7\n        /* \"contracts/DeFiStakingPlatform.sol\":4666:4676  amount > 0 */\n      gt\n        /* \"contracts/DeFiStakingPlatform.sol\":4658:4695  require(amount > 0, \"Cannot stake 0\") */\n      tag_210\n      jumpi\n      mload(0x40)\n      0x08c379a000000000000000000000000000000000000000000000000000000000\n      dup2\n      mstore\n      0x04\n      add\n      tag_211\n      swap1\n      tag_212\n      jump\t// in\n    tag_211:\n      mload(0x40)\n      dup1\n      swap2\n      sub\n      swap1\n      revert\n    tag_210:\n        /* \"contracts/DeFiStakingPlatform.sol\":4716:4740  StakingPool storage pool */\n      0x00\n        /* \"contracts/DeFiStakingPlatform.sol\":4743:4748  pools */\n      0x02\n        /* \"contracts/DeFiStakingPlatform.sol\":4743:4756  pools[poolId] */\n      0x00\n        /* \"contracts/DeFiStakingPlatform.sol\":4749:4755  poolId */\n      dup10\n        /* \"contracts/DeFiStakingPlatform.sol\":4743:4756  pools[poolId] */\n      dup2\n      mstore\n      0x20\n      add\n      swap1\n      dup2\n      mstore\n      0x20\n      add\n      0x00\n      keccak256\n        /* \"contracts/DeFiStakingPlatform.sol\":4716:4756  StakingPool storage pool = pools[poolId] */\n      swap1\n      pop\n        /* \"contracts/DeFiStakingPlatform.sol\":4767:4788  UserInfo storage user */\n      0x00\n        /* \"contracts/DeFiStakingPlatform.sol\":4791:4799  userInfo */\n      0x03\n        /* \"contracts/DeFiStakingPlatform.sol\":4791:4807  userInfo[poolId] */\n      0x00\n        /* \"contracts/DeFiStakingPlatform.sol\":4800:4806  poolId */\n      dup11\n        /* \"contracts/DeFiStakingPlatform.sol\":4791:4807  userInfo[poolId] */\n      dup2\n      mstore\n      0x20\n      add\n      swap1\n      dup2\n      mstore\n      0x20\n      add\n      0x00\n      keccak256\n        /* \"contracts/DeFiStakingPlatform.sol\":4791:4819  userInfo[poolId][msg.sender] */\n      0x00\n        /* \"contracts/DeFiStakingPlatform.sol\":4808:4818  msg.sender */\n      caller\n        /* \"contracts/DeFiStakingPlatform.sol\":4791:4819  userInfo[poolId][msg.sender] */\n      0xffffffffffffffffffffffffffffffffffffffff\n      and\n      0xffffffffffffffffffffffffffffffffffffffff\n      and\n      dup2\n      mstore\n      0x20\n      add\n      swap1\n      dup2\n      mstore\n      0x20\n      add\n      0x00\n      keccak256\n        /* \"contracts/DeFiStakingPlatform.sol\":4767:4819  UserInfo storage user = userInfo[poolId][msg.sender] */\n      swap1\n      pop\n        /* \"contracts/DeFiStakingPlatform.sol\":4858:4862  pool */\n      dup2\n        /* \"contracts/DeFiStakingPlatform.sol\":4858:4875  pool.minimumStake */\n      0x06\n      add\n      sload\n        /* \"contracts/DeFiStakingPlatform.sol\":4848:4854  amount */\n      dup9\n        /* \"contracts/DeFiStakingPlatform.sol\":4848:4875  amount >= pool.minimumStake */\n      lt\n      iszero\n        /* \"contracts/DeFiStakingPlatform.sol\":4840:4906  require(amount >= pool.minimumStake, \"Amount below minimum stake\") */\n      tag_213\n      jumpi\n      mload(0x40)\n      0x08c379a000000000000000000000000000000000000000000000000000000000\n      dup2\n      mstore\n      0x04\n      add\n      tag_214\n      swap1\n      tag_215\n      jump\t// in\n    tag_214:\n      mload(0x40)\n      dup1\n      swap2\n      sub\n      swap1\n      revert\n    tag_213:\n        /* \"contracts/DeFiStakingPlatform.sol\":4947:4953  amount */\n      dup8\n        /* \"contracts/DeFiStakingPlatform.sol\":4927:4931  pool */\n      dup3\n        /* \"contracts/DeFiStakingPlatform.sol\":4927:4943  pool.totalSupply */\n      0x05\n      add\n      0x00\n        /* \"contracts/DeFiStakingPlatform.sol\":4927:4953  pool.totalSupply += amount */\n      dup3\n      dup3\n      sload\n      tag_216\n      swap2\n      swap1\n      tag_120\n      jump\t// in\n    tag_216:\n      swap3\n      pop\n      pop\n      dup2\n      swap1\n      sstore\n      pop\n        /* \"contracts/DeFiStakingPlatform.sol\":4980:4986  amount */\n      dup8\n        /* \"contracts/DeFiStakingPlatform.sol\":4964:4968  user */\n      dup2\n        /* \"contracts/DeFiStakingPlatform.sol\":4964:4976  user.balance */\n      0x00\n      add\n      0x00\n        /* \"contracts/DeFiStakingPlatform.sol\":4964:4986  user.balance += amount */\n      dup3\n      dup3\n      sload\n      tag_217\n      swap2\n      swap1\n      tag_120\n      jump\t// in\n    tag_217:\n      swap3\n      pop\n      pop\n      dup2\n      swap1\n      sstore\n      pop\n        /* \"contracts/DeFiStakingPlatform.sol\":5015:5030  block.timestamp */\n      timestamp\n        /* \"contracts/DeFiStakingPlatform.sol\":4997:5001  user */\n      dup2\n        /* \"contracts/DeFiStakingPlatform.sol\":4997:5012  user.stakedTime */\n      0x03\n      add\n        /* \"contracts/DeFiStakingPlatform.sol\":4997:5030  user.stakedTime = block.timestamp */\n      dup2\n      swap1\n      sstore\n      pop\n        /* \"contracts/DeFiStakingPlatform.sol\":5051:5120  pool.stakingToken.safeTransferFrom(msg.sender, address(this), amount) */\n      tag_218\n        /* \"contracts/DeFiStakingPlatform.sol\":5086:5096  msg.sender */\n      caller\n        /* \"contracts/DeFiStakingPlatform.sol\":5106:5110  this */\n      address\n        /* \"contracts/DeFiStakingPlatform.sol\":5113:5119  amount */\n      dup11\n        /* \"contracts/DeFiStakingPlatform.sol\":5051:5055  pool */\n      dup6\n        /* \"contracts/DeFiStakingPlatform.sol\":5051:5068  pool.stakingToken */\n      0x00\n      add\n      0x00\n      swap1\n      sload\n      swap1\n      0x0100\n      exp\n      swap1\n      div\n      0xffffffffffffffffffffffffffffffffffffffff\n      and\n        /* \"contracts/DeFiStakingPlatform.sol\":5051:5085  pool.stakingToken.safeTransferFrom */\n      0xffffffffffffffffffffffffffffffffffffffff\n      and\n      tag_219\n      swap1\n        /* \"contracts/DeFiStakingPlatform.sol\":5051:5120  pool.stakingToken.safeTransferFrom(msg.sender, address(this), amount) */\n      swap4\n      swap3\n      swap2\n      swap1\n      0xffffffff\n      and\n      jump\t// in\n    tag_218:\n        /* \"contracts/DeFiStakingPlatform.sol\":5165:5171  poolId */\n      dup9\n        /* \"contracts/DeFiStakingPlatform.sol\":5153:5163  msg.sender */\n      caller\n        /* \"contracts/DeFiStakingPlatform.sol\":5146:5180  Staked(msg.sender, poolId, amount) */\n      0xffffffffffffffffffffffffffffffffffffffff\n      and\n      0x1449c6dd7851abc30abf37f57715f492010519147cc2652fbc38202c18a6ee90\n        /* \"contracts/DeFiStakingPlatform.sol\":5173:5179  amount */\n      dup11\n        /* \"contracts/DeFiStakingPlatform.sol\":5146:5180  Staked(msg.sender, poolId, amount) */\n      mload(0x40)\n      tag_220\n      swap2\n      swap1\n      tag_47\n      jump\t// in\n    tag_220:\n      mload(0x40)\n      dup1\n      swap2\n      sub\n      swap1\n      log3\n        /* \"contracts/DeFiStakingPlatform.sol\":4647:5188  {... */\n      pop\n      pop\n        /* \"contracts/DeFiStakingPlatform.sol\":1937:2363  {... */\n      pop\n        /* \"contracts/DeFiStakingPlatform.sol\":2613:2614  _ */\n      pop\n      pop\n        /* \"contracts/DeFiStakingPlatform.sol\":2483:2484  _ */\n      pop\n        /* \"@openzeppelin/contracts/security/Pausable.sol\":1268:1269  _ */\n      pop\n        /* \"@openzeppelin/contracts/security/ReentrancyGuard.sol\":2303:2323  _nonReentrantAfter() */\n      tag_221\n        /* \"@openzeppelin/contracts/security/ReentrancyGuard.sol\":2303:2321  _nonReentrantAfter */\n      tag_137\n        /* \"@openzeppelin/contracts/security/ReentrancyGuard.sol\":2303:2323  _nonReentrantAfter() */\n      jump\t// in\n    tag_221:\n        /* \"contracts/DeFiStakingPlatform.sol\":4427:5188  function stake(uint256 poolId, uint256 amount) ... */\n      pop\n      pop\n      jump\t// out\n        /* \"contracts/DeFiStakingPlatform.sol\":6475:6654  function exit(uint256 poolId) external {... */\n    tag_68:\n        /* \"contracts/DeFiStakingPlatform.sol\":6525:6546  UserInfo storage user */\n      0x00\n        /* \"contracts/DeFiStakingPlatform.sol\":6549:6557  userInfo */\n      0x03\n        /* \"contracts/DeFiStakingPlatform.sol\":6549:6565  userInfo[poolId] */\n      0x00\n        /* \"contracts/DeFiStakingPlatform.sol\":6558:6564  poolId */\n      dup4\n        /* \"contracts/DeFiStakingPlatform.sol\":6549:6565  userInfo[poolId] */\n      dup2\n      mstore\n      0x20\n      add\n      swap1\n      dup2\n      mstore\n      0x20\n      add\n      0x00\n      keccak256\n        /* \"contracts/DeFiStakingPlatform.sol\":6549:6577  userInfo[poolId][msg.sender] */\n      0x00\n        /* \"contracts/DeFiStakingPlatform.sol\":6566:6576  msg.sender */\n      caller\n        /* \"contracts/DeFiStakingPlatform.sol\":6549:6577  userInfo[poolId][msg.sender] */\n      0xffffffffffffffffffffffffffffffffffffffff\n      and\n      0xffffffffffffffffffffffffffffffffffffffff\n      and\n      dup2\n      mstore\n      0x20\n      add\n      swap1\n      dup2\n      mstore\n      0x20\n      add\n      0x00\n      keccak256\n        /* \"contracts/DeFiStakingPlatform.sol\":6525:6577  UserInfo storage user = userInfo[poolId][msg.sender] */\n      swap1\n      pop\n        /* \"contracts/DeFiStakingPlatform.sol\":6588:6618  withdraw(poolId, user.balance) */\n      tag_223\n        /* \"contracts/DeFiStakingPlatform.sol\":6597:6603  poolId */\n      dup3\n        /* \"contracts/DeFiStakingPlatform.sol\":6605:6609  user */\n      dup3\n        /* \"contracts/DeFiStakingPlatform.sol\":6605:6617  user.balance */\n      0x00\n      add\n      sload\n        /* \"contracts/DeFiStakingPlatform.sol\":6588:6596  withdraw */\n      tag_53\n        /* \"contracts/DeFiStakingPlatform.sol\":6588:6618  withdraw(poolId, user.balance) */\n      jump\t// in\n    tag_223:\n        /* \"contracts/DeFiStakingPlatform.sol\":6629:6646  getReward(poolId) */\n      tag_224\n        /* \"contracts/DeFiStakingPlatform.sol\":6639:6645  poolId */\n      dup3\n        /* \"contracts/DeFiStakingPlatform.sol\":6629:6638  getReward */\n      tag_38\n        /* \"contracts/DeFiStakingPlatform.sol\":6629:6646  getReward(poolId) */\n      jump\t// in\n    tag_224:\n        /* \"contracts/DeFiStakingPlatform.sol\":6514:6654  {... */\n      pop\n        /* \"contracts/DeFiStakingPlatform.sol\":6475:6654  function exit(uint256 poolId) external {... */\n      pop\n      jump\t// out\n        /* \"contracts/DeFiStakingPlatform.sol\":9943:10006  function pause() external onlyOwner {... */\n    tag_70:\n        /* \"@openzeppelin/contracts/access/Ownable.sol\":1531:1544  _checkOwner() */\n      tag_226\n        /* \"@openzeppelin/contracts/access/Ownable.sol\":1531:1542  _checkOwner */\n      tag_144\n        /* \"@openzeppelin/contracts/access/Ownable.sol\":1531:1544  _checkOwner() */\n      jump\t// in\n    tag_226:\n        /* \"contracts/DeFiStakingPlatform.sol\":9990:9998  _pause() */\n      tag_228\n        /* \"contracts/DeFiStakingPlatform.sol\":9990:9996  _pause */\n      tag_229\n        /* \"contracts/DeFiStakingPlatform.sol\":9990:9998  _pause() */\n      jump\t// in\n    tag_228:\n        /* \"contracts/DeFiStakingPlatform.sol\":9943:10006  function pause() external onlyOwner {... */\n      jump\t// out\n        /* \"contracts/DeFiStakingPlatform.sol\":2634:3717  function createPool(... */\n    tag_74:\n        /* \"@openzeppelin/contracts/access/Ownable.sol\":1531:1544  _checkOwner() */\n      tag_231\n        /* \"@openzeppelin/contracts/access/Ownable.sol\":1531:1542  _checkOwner */\n      tag_144\n        /* \"@openzeppelin/contracts/access/Ownable.sol\":1531:1544  _checkOwner() */\n      jump\t// in\n    tag_231:\n        /* \"contracts/DeFiStakingPlatform.sol\":2879:2880  0 */\n      0x00\n        /* \"contracts/DeFiStakingPlatform.sol\":2854:2881  _stakingToken != address(0) */\n      0xffffffffffffffffffffffffffffffffffffffff\n      and\n        /* \"contracts/DeFiStakingPlatform.sol\":2854:2867  _stakingToken */\n      dup6\n        /* \"contracts/DeFiStakingPlatform.sol\":2854:2881  _stakingToken != address(0) */\n      0xffffffffffffffffffffffffffffffffffffffff\n      and\n      sub\n        /* \"contracts/DeFiStakingPlatform.sol\":2846:2907  require(_stakingToken != address(0), \"Invalid staking token\") */\n      tag_233\n      jumpi\n      mload(0x40)\n      0x08c379a000000000000000000000000000000000000000000000000000000000\n      dup2\n      mstore\n      0x04\n      add\n      tag_234\n      swap1\n      tag_235\n      jump\t// in\n    tag_234:\n      mload(0x40)\n      dup1\n      swap2\n      sub\n      swap1\n      revert\n    tag_233:\n        /* \"contracts/DeFiStakingPlatform.sol\":2950:2951  0 */\n      0x00\n        /* \"contracts/DeFiStakingPlatform.sol\":2926:2952  _rewardToken != address(0) */\n      0xffffffffffffffffffffffffffffffffffffffff\n      and\n        /* \"contracts/DeFiStakingPlatform.sol\":2926:2938  _rewardToken */\n      dup5\n        /* \"contracts/DeFiStakingPlatform.sol\":2926:2952  _rewardToken != address(0) */\n      0xffffffffffffffffffffffffffffffffffffffff\n      and\n      sub\n        /* \"contracts/DeFiStakingPlatform.sol\":2918:2977  require(_rewardToken != address(0), \"Invalid reward token\") */\n      tag_236\n      jumpi\n      mload(0x40)\n      0x08c379a000000000000000000000000000000000000000000000000000000000\n      dup2\n      mstore\n      0x04\n      add\n      tag_237\n      swap1\n      tag_238\n      jump\t// in\n    tag_237:\n      mload(0x40)\n      dup1\n      swap2\n      sub\n      swap1\n      revert\n    tag_236:\n        /* \"contracts/DeFiStakingPlatform.sol\":3010:3011  0 */\n      0x00\n        /* \"contracts/DeFiStakingPlatform.sol\":2996:3007  _rewardRate */\n      dup4\n        /* \"contracts/DeFiStakingPlatform.sol\":2996:3011  _rewardRate > 0 */\n      gt\n        /* \"contracts/DeFiStakingPlatform.sol\":2988:3050  require(_rewardRate > 0, \"Reward rate must be greater than 0\") */\n      tag_239\n      jumpi\n      mload(0x40)\n      0x08c379a000000000000000000000000000000000000000000000000000000000\n      dup2\n      mstore\n      0x04\n      add\n      tag_240\n      swap1\n      tag_241\n      jump\t// in\n    tag_240:\n      mload(0x40)\n      dup1\n      swap2\n      sub\n      swap1\n      revert\n    tag_239:\n        /* \"contracts/DeFiStakingPlatform.sol\":3090:3470  StakingPool({... */\n      mload(0x40)\n      dup1\n      0x0120\n      add\n      0x40\n      mstore\n      dup1\n        /* \"contracts/DeFiStakingPlatform.sol\":3138:3151  _stakingToken */\n      dup7\n        /* \"contracts/DeFiStakingPlatform.sol\":3090:3470  StakingPool({... */\n      0xffffffffffffffffffffffffffffffffffffffff\n      and\n      dup2\n      mstore\n      0x20\n      add\n        /* \"contracts/DeFiStakingPlatform.sol\":3187:3199  _rewardToken */\n      dup6\n        /* \"contracts/DeFiStakingPlatform.sol\":3090:3470  StakingPool({... */\n      0xffffffffffffffffffffffffffffffffffffffff\n      and\n      dup2\n      mstore\n      0x20\n      add\n        /* \"contracts/DeFiStakingPlatform.sol\":3227:3238  _rewardRate */\n      dup5\n        /* \"contracts/DeFiStakingPlatform.sol\":3090:3470  StakingPool({... */\n      dup2\n      mstore\n      0x20\n      add\n        /* \"contracts/DeFiStakingPlatform.sol\":3269:3284  block.timestamp */\n      timestamp\n        /* \"contracts/DeFiStakingPlatform.sol\":3090:3470  StakingPool({... */\n      dup2\n      mstore\n      0x20\n      add\n        /* \"contracts/DeFiStakingPlatform.sol\":3321:3322  0 */\n      0x00\n        /* \"contracts/DeFiStakingPlatform.sol\":3090:3470  StakingPool({... */\n      dup2\n      mstore\n      0x20\n      add\n        /* \"contracts/DeFiStakingPlatform.sol\":3350:3351  0 */\n      0x00\n        /* \"contracts/DeFiStakingPlatform.sol\":3090:3470  StakingPool({... */\n      dup2\n      mstore\n      0x20\n      add\n        /* \"contracts/DeFiStakingPlatform.sol\":3380:3393  _minimumStake */\n      dup4\n        /* \"contracts/DeFiStakingPlatform.sol\":3090:3470  StakingPool({... */\n      dup2\n      mstore\n      0x20\n      add\n        /* \"contracts/DeFiStakingPlatform.sol\":3420:3431  _lockPeriod */\n      dup3\n        /* \"contracts/DeFiStakingPlatform.sol\":3090:3470  StakingPool({... */\n      dup2\n      mstore\n      0x20\n      add\n        /* \"contracts/DeFiStakingPlatform.sol\":3454:3458  true */\n      0x01\n        /* \"contracts/DeFiStakingPlatform.sol\":3090:3470  StakingPool({... */\n      iszero\n      iszero\n      dup2\n      mstore\n      pop\n        /* \"contracts/DeFiStakingPlatform.sol\":3071:3076  pools */\n      0x02\n        /* \"contracts/DeFiStakingPlatform.sol\":3071:3087  pools[poolCount] */\n      0x00\n        /* \"contracts/DeFiStakingPlatform.sol\":3077:3086  poolCount */\n      sload(0x04)\n        /* \"contracts/DeFiStakingPlatform.sol\":3071:3087  pools[poolCount] */\n      dup2\n      mstore\n      0x20\n      add\n      swap1\n      dup2\n      mstore\n      0x20\n      add\n      0x00\n      keccak256\n        /* \"contracts/DeFiStakingPlatform.sol\":3071:3470  pools[poolCount] = StakingPool({... */\n      0x00\n      dup3\n      add\n      mload\n      dup2\n      0x00\n      add\n      exp(0x0100, 0x00)\n      dup2\n      sload\n      dup2\n      0xffffffffffffffffffffffffffffffffffffffff\n      mul\n      not\n      and\n      swap1\n      dup4\n      0xffffffffffffffffffffffffffffffffffffffff\n      and\n      mul\n      or\n      swap1\n      sstore\n      pop\n      0x20\n      dup3\n      add\n      mload\n      dup2\n      0x01\n      add\n      exp(0x0100, 0x00)\n      dup2\n      sload\n      dup2\n      0xffffffffffffffffffffffffffffffffffffffff\n      mul\n      not\n      and\n      swap1\n      dup4\n      0xffffffffffffffffffffffffffffffffffffffff\n      and\n      mul\n      or\n      swap1\n      sstore\n      pop\n      0x40\n      dup3\n      add\n      mload\n      dup2\n      0x02\n      add\n      sstore\n      0x60\n      dup3\n      add\n      mload\n      dup2\n      0x03\n      add\n      sstore\n      0x80\n      dup3\n      add\n      mload\n      dup2\n      0x04\n      add\n      sstore\n      0xa0\n      dup3\n      add\n      mload\n      dup2\n      0x05\n      add\n      sstore\n      0xc0\n      dup3\n      add\n      mload\n      dup2\n      0x06\n      add\n      sstore\n      0xe0\n      dup3\n      add\n      mload\n      dup2\n      0x07\n      add\n      sstore\n      0x0100\n      dup3\n      add\n      mload\n      dup2\n      0x08\n      add\n      exp(0x0100, 0x00)\n      dup2\n      sload\n      dup2\n      0xff\n      mul\n      not\n      and\n      swap1\n      dup4\n      iszero\n      iszero\n      mul\n      or\n      swap1\n      sstore\n      pop\n      swap1\n      pop\n      pop\n        /* \"contracts/DeFiStakingPlatform.sol\":3522:3531  poolCount */\n      sload(0x04)\n        /* \"contracts/DeFiStakingPlatform.sol\":3496:3677  PoolCreated(... */\n      0xb203c0a4a9d84ddde23dba31a828c25525b2e0b5fe6a0e356d983aed95961ca1\n        /* \"contracts/DeFiStakingPlatform.sol\":3546:3559  _stakingToken */\n      dup7\n        /* \"contracts/DeFiStakingPlatform.sol\":3574:3586  _rewardToken */\n      dup7\n        /* \"contracts/DeFiStakingPlatform.sol\":3601:3612  _rewardRate */\n      dup7\n        /* \"contracts/DeFiStakingPlatform.sol\":3627:3640  _minimumStake */\n      dup7\n        /* \"contracts/DeFiStakingPlatform.sol\":3655:3666  _lockPeriod */\n      dup7\n        /* \"contracts/DeFiStakingPlatform.sol\":3496:3677  PoolCreated(... */\n      mload(0x40)\n      tag_242\n      swap6\n      swap5\n      swap4\n      swap3\n      swap2\n      swap1\n      tag_243\n      jump\t// in\n    tag_242:\n      mload(0x40)\n      dup1\n      swap2\n      sub\n      swap1\n      log2\n        /* \"contracts/DeFiStakingPlatform.sol\":3698:3707  poolCount */\n      0x04\n      0x00\n        /* \"contracts/DeFiStakingPlatform.sol\":3698:3709  poolCount++ */\n      dup2\n      sload\n      dup1\n      swap3\n      swap2\n      swap1\n      tag_244\n      swap1\n      tag_245\n      jump\t// in\n    tag_244:\n      swap2\n      swap1\n      pop\n      sstore\n      pop\n        /* \"contracts/DeFiStakingPlatform.sol\":2634:3717  function createPool(... */\n      pop\n      pop\n      pop\n      pop\n      pop\n      jump\t// out\n        /* \"contracts/DeFiStakingPlatform.sol\":3729:4133  function rewardPerToken(uint256 poolId) public view returns (uint256) {... */\n    tag_77:\n        /* \"contracts/DeFiStakingPlatform.sol\":3790:3797  uint256 */\n      0x00\n        /* \"contracts/DeFiStakingPlatform.sol\":3810:3834  StakingPool storage pool */\n      0x00\n        /* \"contracts/DeFiStakingPlatform.sol\":3837:3842  pools */\n      0x02\n        /* \"contracts/DeFiStakingPlatform.sol\":3837:3850  pools[poolId] */\n      0x00\n        /* \"contracts/DeFiStakingPlatform.sol\":3843:3849  poolId */\n      dup5\n        /* \"contracts/DeFiStakingPlatform.sol\":3837:3850  pools[poolId] */\n      dup2\n      mstore\n      0x20\n      add\n      swap1\n      dup2\n      mstore\n      0x20\n      add\n      0x00\n      keccak256\n        /* \"contracts/DeFiStakingPlatform.sol\":3810:3850  StakingPool storage pool = pools[poolId] */\n      swap1\n      pop\n        /* \"contracts/DeFiStakingPlatform.sol\":3885:3886  0 */\n      0x00\n        /* \"contracts/DeFiStakingPlatform.sol\":3865:3869  pool */\n      dup2\n        /* \"contracts/DeFiStakingPlatform.sol\":3865:3881  pool.totalSupply */\n      0x05\n      add\n      sload\n        /* \"contracts/DeFiStakingPlatform.sol\":3865:3886  pool.totalSupply == 0 */\n      sub\n        /* \"contracts/DeFiStakingPlatform.sol\":3861:3947  if (pool.totalSupply == 0) {... */\n      tag_247\n      jumpi\n        /* \"contracts/DeFiStakingPlatform.sol\":3910:3914  pool */\n      dup1\n        /* \"contracts/DeFiStakingPlatform.sol\":3910:3935  pool.rewardPerTokenStored */\n      0x04\n      add\n      sload\n        /* \"contracts/DeFiStakingPlatform.sol\":3903:3935  return pool.rewardPerTokenStored */\n      swap2\n      pop\n      pop\n      jump(tag_246)\n        /* \"contracts/DeFiStakingPlatform.sol\":3861:3947  if (pool.totalSupply == 0) {... */\n    tag_247:\n        /* \"contracts/DeFiStakingPlatform.sol\":4098:4102  pool */\n      dup1\n        /* \"contracts/DeFiStakingPlatform.sol\":4098:4114  pool.totalSupply */\n      0x05\n      add\n      sload\n        /* \"contracts/DeFiStakingPlatform.sol\":1203:1207  1e18 */\n      0x0de0b6b3a7640000\n        /* \"contracts/DeFiStakingPlatform.sol\":4060:4064  pool */\n      dup3\n        /* \"contracts/DeFiStakingPlatform.sol\":4060:4075  pool.rewardRate */\n      0x02\n      add\n      sload\n        /* \"contracts/DeFiStakingPlatform.sol\":4037:4041  pool */\n      dup4\n        /* \"contracts/DeFiStakingPlatform.sol\":4037:4056  pool.lastUpdateTime */\n      0x03\n      add\n      sload\n        /* \"contracts/DeFiStakingPlatform.sol\":4019:4034  block.timestamp */\n      timestamp\n        /* \"contracts/DeFiStakingPlatform.sol\":4019:4056  block.timestamp - pool.lastUpdateTime */\n      tag_248\n      swap2\n      swap1\n      tag_169\n      jump\t// in\n    tag_248:\n        /* \"contracts/DeFiStakingPlatform.sol\":4018:4075  (block.timestamp - pool.lastUpdateTime) * pool.rewardRate */\n      tag_249\n      swap2\n      swap1\n      tag_250\n      jump\t// in\n    tag_249:\n        /* \"contracts/DeFiStakingPlatform.sol\":4018:4094  (block.timestamp - pool.lastUpdateTime) * pool.rewardRate * REWARD_PRECISION */\n      tag_251\n      swap2\n      swap1\n      tag_250\n      jump\t// in\n    tag_251:\n        /* \"contracts/DeFiStakingPlatform.sol\":4017:4114  ((block.timestamp - pool.lastUpdateTime) * pool.rewardRate * REWARD_PRECISION) / pool.totalSupply */\n      tag_252\n      swap2\n      swap1\n      tag_253\n      jump\t// in\n    tag_252:\n        /* \"contracts/DeFiStakingPlatform.sol\":3974:3978  pool */\n      dup2\n        /* \"contracts/DeFiStakingPlatform.sol\":3974:3999  pool.rewardPerTokenStored */\n      0x04\n      add\n      sload\n        /* \"contracts/DeFiStakingPlatform.sol\":3974:4125  pool.rewardPerTokenStored + (... */\n      tag_254\n      swap2\n      swap1\n      tag_120\n      jump\t// in\n    tag_254:\n        /* \"contracts/DeFiStakingPlatform.sol\":3967:4125  return pool.rewardPerTokenStored + (... */\n      swap2\n      pop\n      pop\n        /* \"contracts/DeFiStakingPlatform.sol\":3729:4133  function rewardPerToken(uint256 poolId) public view returns (uint256) {... */\n    tag_246:\n      swap2\n      swap1\n      pop\n      jump\t// out\n        /* \"@openzeppelin/contracts/access/Ownable.sol\":1638:1723  function owner() public view virtual returns (address) {... */\n    tag_80:\n        /* \"@openzeppelin/contracts/access/Ownable.sol\":1684:1691  address */\n      0x00\n        /* \"@openzeppelin/contracts/access/Ownable.sol\":1710:1716  _owner */\n      0x01\n      0x00\n      swap1\n      sload\n      swap1\n      0x0100\n      exp\n      swap1\n      div\n      0xffffffffffffffffffffffffffffffffffffffff\n      and\n        /* \"@openzeppelin/contracts/access/Ownable.sol\":1703:1716  return _owner */\n      swap1\n      pop\n        /* \"@openzeppelin/contracts/access/Ownable.sol\":1638:1723  function owner() public view virtual returns (address) {... */\n      swap1\n      jump\t// out\n        /* \"contracts/DeFiStakingPlatform.sol\":1052:1116  mapping(uint256 => mapping(address => UserInfo)) public userInfo */\n    tag_85:\n      mstore(0x20, 0x03)\n      dup2\n      0x00\n      mstore\n      mstore(0x20, keccak256(0x00, 0x40))\n      dup1\n      0x00\n      mstore\n      keccak256(0x00, 0x40)\n      0x00\n      swap2\n      pop\n      swap2\n      pop\n      pop\n      dup1\n      0x00\n      add\n      sload\n      swap1\n      dup1\n      0x01\n      add\n      sload\n      swap1\n      dup1\n      0x02\n      add\n      sload\n      swap1\n      dup1\n      0x03\n      add\n      sload\n      swap1\n      pop\n      dup5\n      jump\t// out\n        /* \"contracts/DeFiStakingPlatform.sol\":6666:7523  function compound(uint256 poolId) ... */\n    tag_89:\n        /* \"@openzeppelin/contracts/security/ReentrancyGuard.sol\":2261:2282  _nonReentrantBefore() */\n      tag_257\n        /* \"@openzeppelin/contracts/security/ReentrancyGuard.sol\":2261:2280  _nonReentrantBefore */\n      tag_123\n        /* \"@openzeppelin/contracts/security/ReentrancyGuard.sol\":2261:2282  _nonReentrantBefore() */\n      jump\t// in\n    tag_257:\n        /* \"contracts/DeFiStakingPlatform.sol\":6763:6769  poolId */\n      dup1\n        /* \"contracts/DeFiStakingPlatform.sol\":2439:2448  poolCount */\n      sload(0x04)\n        /* \"contracts/DeFiStakingPlatform.sol\":2430:2436  poolId */\n      dup2\n        /* \"contracts/DeFiStakingPlatform.sol\":2430:2448  poolId < poolCount */\n      lt\n        /* \"contracts/DeFiStakingPlatform.sol\":2422:2472  require(poolId < poolCount, \"Pool does not exist\") */\n      tag_259\n      jumpi\n      mload(0x40)\n      0x08c379a000000000000000000000000000000000000000000000000000000000\n      dup2\n      mstore\n      0x04\n      add\n      tag_260\n      swap1\n      tag_116\n      jump\t// in\n    tag_260:\n      mload(0x40)\n      dup1\n      swap2\n      sub\n      swap1\n      revert\n    tag_259:\n        /* \"contracts/DeFiStakingPlatform.sol\":6792:6798  poolId */\n      dup2\n        /* \"contracts/DeFiStakingPlatform.sol\":2559:2564  pools */\n      0x02\n        /* \"contracts/DeFiStakingPlatform.sol\":2559:2572  pools[poolId] */\n      0x00\n        /* \"contracts/DeFiStakingPlatform.sol\":2565:2571  poolId */\n      dup3\n        /* \"contracts/DeFiStakingPlatform.sol\":2559:2572  pools[poolId] */\n      dup2\n      mstore\n      0x20\n      add\n      swap1\n      dup2\n      mstore\n      0x20\n      add\n      0x00\n      keccak256\n        /* \"contracts/DeFiStakingPlatform.sol\":2559:2579  pools[poolId].active */\n      0x08\n      add\n      0x00\n      swap1\n      sload\n      swap1\n      0x0100\n      exp\n      swap1\n      div\n      0xff\n      and\n        /* \"contracts/DeFiStakingPlatform.sol\":2551:2602  require(pools[poolId].active, \"Pool is not active\") */\n      tag_262\n      jumpi\n      mload(0x40)\n      0x08c379a000000000000000000000000000000000000000000000000000000000\n      dup2\n      mstore\n      0x04\n      add\n      tag_263\n      swap1\n      tag_204\n      jump\t// in\n    tag_263:\n      mload(0x40)\n      dup1\n      swap2\n      sub\n      swap1\n      revert\n    tag_262:\n        /* \"contracts/DeFiStakingPlatform.sol\":6823:6829  poolId */\n      dup3\n        /* \"contracts/DeFiStakingPlatform.sol\":6831:6841  msg.sender */\n      caller\n        /* \"contracts/DeFiStakingPlatform.sol\":1948:1972  StakingPool storage pool */\n      0x00\n        /* \"contracts/DeFiStakingPlatform.sol\":1975:1980  pools */\n      0x02\n        /* \"contracts/DeFiStakingPlatform.sol\":1975:1988  pools[poolId] */\n      0x00\n        /* \"contracts/DeFiStakingPlatform.sol\":1981:1987  poolId */\n      dup5\n        /* \"contracts/DeFiStakingPlatform.sol\":1975:1988  pools[poolId] */\n      dup2\n      mstore\n      0x20\n      add\n      swap1\n      dup2\n      mstore\n      0x20\n      add\n      0x00\n      keccak256\n        /* \"contracts/DeFiStakingPlatform.sol\":1948:1988  StakingPool storage pool = pools[poolId] */\n      swap1\n      pop\n        /* \"contracts/DeFiStakingPlatform.sol\":2027:2049  rewardPerToken(poolId) */\n      tag_265\n        /* \"contracts/DeFiStakingPlatform.sol\":2042:2048  poolId */\n      dup4\n        /* \"contracts/DeFiStakingPlatform.sol\":2027:2041  rewardPerToken */\n      tag_77\n        /* \"contracts/DeFiStakingPlatform.sol\":2027:2049  rewardPerToken(poolId) */\n      jump\t// in\n    tag_265:\n        /* \"contracts/DeFiStakingPlatform.sol\":1999:2003  pool */\n      dup2\n        /* \"contracts/DeFiStakingPlatform.sol\":1999:2024  pool.rewardPerTokenStored */\n      0x04\n      add\n        /* \"contracts/DeFiStakingPlatform.sol\":1999:2049  pool.rewardPerTokenStored = rewardPerToken(poolId) */\n      dup2\n      swap1\n      sstore\n      pop\n        /* \"contracts/DeFiStakingPlatform.sol\":2082:2097  block.timestamp */\n      timestamp\n        /* \"contracts/DeFiStakingPlatform.sol\":2060:2064  pool */\n      dup2\n        /* \"contracts/DeFiStakingPlatform.sol\":2060:2079  pool.lastUpdateTime */\n      0x03\n      add\n        /* \"contracts/DeFiStakingPlatform.sol\":2060:2097  pool.lastUpdateTime = block.timestamp */\n      dup2\n      swap1\n      sstore\n      pop\n        /* \"contracts/DeFiStakingPlatform.sol\":2141:2142  0 */\n      0x00\n        /* \"contracts/DeFiStakingPlatform.sol\":2122:2143  account != address(0) */\n      0xffffffffffffffffffffffffffffffffffffffff\n      and\n        /* \"contracts/DeFiStakingPlatform.sol\":2122:2129  account */\n      dup3\n        /* \"contracts/DeFiStakingPlatform.sol\":2122:2143  account != address(0) */\n      0xffffffffffffffffffffffffffffffffffffffff\n      and\n      eq\n        /* \"contracts/DeFiStakingPlatform.sol\":2118:2344  if (account != address(0)) {... */\n      tag_266\n      jumpi\n        /* \"contracts/DeFiStakingPlatform.sol\":2160:2181  UserInfo storage user */\n      0x00\n        /* \"contracts/DeFiStakingPlatform.sol\":2184:2192  userInfo */\n      0x03\n        /* \"contracts/DeFiStakingPlatform.sol\":2184:2200  userInfo[poolId] */\n      0x00\n        /* \"contracts/DeFiStakingPlatform.sol\":2193:2199  poolId */\n      dup6\n        /* \"contracts/DeFiStakingPlatform.sol\":2184:2200  userInfo[poolId] */\n      dup2\n      mstore\n      0x20\n      add\n      swap1\n      dup2\n      mstore\n      0x20\n      add\n      0x00\n      keccak256\n        /* \"contracts/DeFiStakingPlatform.sol\":2184:2209  userInfo[poolId][account] */\n      0x00\n        /* \"contracts/DeFiStakingPlatform.sol\":2201:2208  account */\n      dup5\n        /* \"contracts/DeFiStakingPlatform.sol\":2184:2209  userInfo[poolId][account] */\n      0xffffffffffffffffffffffffffffffffffffffff\n      and\n      0xffffffffffffffffffffffffffffffffffffffff\n      and\n      dup2\n      mstore\n      0x20\n      add\n      swap1\n      dup2\n      mstore\n      0x20\n      add\n      0x00\n      keccak256\n        /* \"contracts/DeFiStakingPlatform.sol\":2160:2209  UserInfo storage user = userInfo[poolId][account] */\n      swap1\n      pop\n        /* \"contracts/DeFiStakingPlatform.sol\":2239:2262  earned(poolId, account) */\n      tag_267\n        /* \"contracts/DeFiStakingPlatform.sol\":2246:2252  poolId */\n      dup5\n        /* \"contracts/DeFiStakingPlatform.sol\":2254:2261  account */\n      dup5\n        /* \"contracts/DeFiStakingPlatform.sol\":2239:2245  earned */\n      tag_104\n        /* \"contracts/DeFiStakingPlatform.sol\":2239:2262  earned(poolId, account) */\n      jump\t// in\n    tag_267:\n        /* \"contracts/DeFiStakingPlatform.sol\":2224:2228  user */\n      dup2\n        /* \"contracts/DeFiStakingPlatform.sol\":2224:2236  user.rewards */\n      0x02\n      add\n        /* \"contracts/DeFiStakingPlatform.sol\":2224:2262  user.rewards = earned(poolId, account) */\n      dup2\n      swap1\n      sstore\n      pop\n        /* \"contracts/DeFiStakingPlatform.sol\":2307:2311  pool */\n      dup2\n        /* \"contracts/DeFiStakingPlatform.sol\":2307:2332  pool.rewardPerTokenStored */\n      0x04\n      add\n      sload\n        /* \"contracts/DeFiStakingPlatform.sol\":2277:2281  user */\n      dup2\n        /* \"contracts/DeFiStakingPlatform.sol\":2277:2304  user.userRewardPerTokenPaid */\n      0x01\n      add\n        /* \"contracts/DeFiStakingPlatform.sol\":2277:2332  user.userRewardPerTokenPaid = pool.rewardPerTokenStored */\n      dup2\n      swap1\n      sstore\n      pop\n        /* \"contracts/DeFiStakingPlatform.sol\":2145:2344  {... */\n      pop\n        /* \"contracts/DeFiStakingPlatform.sol\":2118:2344  if (account != address(0)) {... */\n    tag_266:\n        /* \"contracts/DeFiStakingPlatform.sol\":6929:6934  pools */\n      0x02\n        /* \"contracts/DeFiStakingPlatform.sol\":6929:6942  pools[poolId] */\n      0x00\n        /* \"contracts/DeFiStakingPlatform.sol\":6935:6941  poolId */\n      dup8\n        /* \"contracts/DeFiStakingPlatform.sol\":6929:6942  pools[poolId] */\n      dup2\n      mstore\n      0x20\n      add\n      swap1\n      dup2\n      mstore\n      0x20\n      add\n      0x00\n      keccak256\n        /* \"contracts/DeFiStakingPlatform.sol\":6929:6954  pools[poolId].rewardToken */\n      0x01\n      add\n      0x00\n      swap1\n      sload\n      swap1\n      0x0100\n      exp\n      swap1\n      div\n      0xffffffffffffffffffffffffffffffffffffffff\n      and\n        /* \"contracts/DeFiStakingPlatform.sol\":6882:6955  address(pools[poolId].stakingToken) == address(pools[poolId].rewardToken) */\n      0xffffffffffffffffffffffffffffffffffffffff\n      and\n        /* \"contracts/DeFiStakingPlatform.sol\":6890:6895  pools */\n      0x02\n        /* \"contracts/DeFiStakingPlatform.sol\":6890:6903  pools[poolId] */\n      0x00\n        /* \"contracts/DeFiStakingPlatform.sol\":6896:6902  poolId */\n      dup9\n        /* \"contracts/DeFiStakingPlatform.sol\":6890:6903  pools[poolId] */\n      dup2\n      mstore\n      0x20\n      add\n      swap1\n      dup2\n      mstore\n      0x20\n      add\n      0x00\n      keccak256\n        /* \"contracts/DeFiStakingPlatform.sol\":6890:6916  pools[poolId].stakingToken */\n      0x00\n      add\n      0x00\n      swap1\n      sload\n      swap1\n      0x0100\n      exp\n      swap1\n      div\n      0xffffffffffffffffffffffffffffffffffffffff\n      and\n        /* \"contracts/DeFiStakingPlatform.sol\":6882:6955  address(pools[poolId].stakingToken) == address(pools[poolId].rewardToken) */\n      0xffffffffffffffffffffffffffffffffffffffff\n      and\n      eq\n        /* \"contracts/DeFiStakingPlatform.sol\":6860:7015  require(... */\n      tag_269\n      jumpi\n      mload(0x40)\n      0x08c379a000000000000000000000000000000000000000000000000000000000\n      dup2\n      mstore\n      0x04\n      add\n      tag_270\n      swap1\n      tag_271\n      jump\t// in\n    tag_270:\n      mload(0x40)\n      dup1\n      swap2\n      sub\n      swap1\n      revert\n    tag_269:\n        /* \"contracts/DeFiStakingPlatform.sol\":7036:7057  UserInfo storage user */\n      0x00\n        /* \"contracts/DeFiStakingPlatform.sol\":7060:7068  userInfo */\n      0x03\n        /* \"contracts/DeFiStakingPlatform.sol\":7060:7076  userInfo[poolId] */\n      0x00\n        /* \"contracts/DeFiStakingPlatform.sol\":7069:7075  poolId */\n      dup9\n        /* \"contracts/DeFiStakingPlatform.sol\":7060:7076  userInfo[poolId] */\n      dup2\n      mstore\n      0x20\n      add\n      swap1\n      dup2\n      mstore\n      0x20\n      add\n      0x00\n      keccak256\n        /* \"contracts/DeFiStakingPlatform.sol\":7060:7088  userInfo[poolId][msg.sender] */\n      0x00\n        /* \"contracts/DeFiStakingPlatform.sol\":7077:7087  msg.sender */\n      caller\n        /* \"contracts/DeFiStakingPlatform.sol\":7060:7088  userInfo[poolId][msg.sender] */\n      0xffffffffffffffffffffffffffffffffffffffff\n      and\n      0xffffffffffffffffffffffffffffffffffffffff\n      and\n      dup2\n      mstore\n      0x20\n      add\n      swap1\n      dup2\n      mstore\n      0x20\n      add\n      0x00\n      keccak256\n        /* \"contracts/DeFiStakingPlatform.sol\":7036:7088  UserInfo storage user = userInfo[poolId][msg.sender] */\n      swap1\n      pop\n        /* \"contracts/DeFiStakingPlatform.sol\":7099:7113  uint256 reward */\n      0x00\n        /* \"contracts/DeFiStakingPlatform.sol\":7116:7120  user */\n      dup2\n        /* \"contracts/DeFiStakingPlatform.sol\":7116:7128  user.rewards */\n      0x02\n      add\n      sload\n        /* \"contracts/DeFiStakingPlatform.sol\":7099:7128  uint256 reward = user.rewards */\n      swap1\n      pop\n        /* \"contracts/DeFiStakingPlatform.sol\":7162:7163  0 */\n      0x00\n        /* \"contracts/DeFiStakingPlatform.sol\":7153:7159  reward */\n      dup2\n        /* \"contracts/DeFiStakingPlatform.sol\":7153:7163  reward > 0 */\n      gt\n        /* \"contracts/DeFiStakingPlatform.sol\":7149:7516  if (reward > 0) {... */\n      iszero\n      tag_272\n      jumpi\n        /* \"contracts/DeFiStakingPlatform.sol\":7195:7196  0 */\n      0x00\n        /* \"contracts/DeFiStakingPlatform.sol\":7180:7184  user */\n      dup3\n        /* \"contracts/DeFiStakingPlatform.sol\":7180:7192  user.rewards */\n      0x02\n      add\n        /* \"contracts/DeFiStakingPlatform.sol\":7180:7196  user.rewards = 0 */\n      dup2\n      swap1\n      sstore\n      pop\n        /* \"contracts/DeFiStakingPlatform.sol\":7287:7293  reward */\n      dup1\n        /* \"contracts/DeFiStakingPlatform.sol\":7258:7263  pools */\n      0x02\n        /* \"contracts/DeFiStakingPlatform.sol\":7258:7271  pools[poolId] */\n      0x00\n        /* \"contracts/DeFiStakingPlatform.sol\":7264:7270  poolId */\n      dup11\n        /* \"contracts/DeFiStakingPlatform.sol\":7258:7271  pools[poolId] */\n      dup2\n      mstore\n      0x20\n      add\n      swap1\n      dup2\n      mstore\n      0x20\n      add\n      0x00\n      keccak256\n        /* \"contracts/DeFiStakingPlatform.sol\":7258:7283  pools[poolId].totalSupply */\n      0x05\n      add\n      0x00\n        /* \"contracts/DeFiStakingPlatform.sol\":7258:7293  pools[poolId].totalSupply += reward */\n      dup3\n      dup3\n      sload\n      tag_273\n      swap2\n      swap1\n      tag_120\n      jump\t// in\n    tag_273:\n      swap3\n      pop\n      pop\n      dup2\n      swap1\n      sstore\n      pop\n        /* \"contracts/DeFiStakingPlatform.sol\":7324:7330  reward */\n      dup1\n        /* \"contracts/DeFiStakingPlatform.sol\":7308:7312  user */\n      dup3\n        /* \"contracts/DeFiStakingPlatform.sol\":7308:7320  user.balance */\n      0x00\n      add\n      0x00\n        /* \"contracts/DeFiStakingPlatform.sol\":7308:7330  user.balance += reward */\n      dup3\n      dup3\n      sload\n      tag_274\n      swap2\n      swap1\n      tag_120\n      jump\t// in\n    tag_274:\n      swap3\n      pop\n      pop\n      dup2\n      swap1\n      sstore\n      pop\n        /* \"contracts/DeFiStakingPlatform.sol\":7363:7378  block.timestamp */\n      timestamp\n        /* \"contracts/DeFiStakingPlatform.sol\":7345:7349  user */\n      dup3\n        /* \"contracts/DeFiStakingPlatform.sol\":7345:7360  user.stakedTime */\n      0x03\n      add\n        /* \"contracts/DeFiStakingPlatform.sol\":7345:7378  user.stakedTime = block.timestamp */\n      dup2\n      swap1\n      sstore\n      pop\n        /* \"contracts/DeFiStakingPlatform.sol\":7435:7441  poolId */\n      dup8\n        /* \"contracts/DeFiStakingPlatform.sol\":7423:7433  msg.sender */\n      caller\n        /* \"contracts/DeFiStakingPlatform.sol\":7412:7450  RewardPaid(msg.sender, poolId, reward) */\n      0xffffffffffffffffffffffffffffffffffffffff\n      and\n      0xd6f2c8500df5b44f11e9e48b91ff9f1b9d81bc496d55570c2b1b75bf65243f51\n        /* \"contracts/DeFiStakingPlatform.sol\":7443:7449  reward */\n      dup4\n        /* \"contracts/DeFiStakingPlatform.sol\":7412:7450  RewardPaid(msg.sender, poolId, reward) */\n      mload(0x40)\n      tag_275\n      swap2\n      swap1\n      tag_47\n      jump\t// in\n    tag_275:\n      mload(0x40)\n      dup1\n      swap2\n      sub\n      swap1\n      log3\n        /* \"contracts/DeFiStakingPlatform.sol\":7489:7495  poolId */\n      dup8\n        /* \"contracts/DeFiStakingPlatform.sol\":7477:7487  msg.sender */\n      caller\n        /* \"contracts/DeFiStakingPlatform.sol\":7470:7504  Staked(msg.sender, poolId, reward) */\n      0xffffffffffffffffffffffffffffffffffffffff\n      and\n      0x1449c6dd7851abc30abf37f57715f492010519147cc2652fbc38202c18a6ee90\n        /* \"contracts/DeFiStakingPlatform.sol\":7497:7503  reward */\n      dup4\n        /* \"contracts/DeFiStakingPlatform.sol\":7470:7504  Staked(msg.sender, poolId, reward) */\n      mload(0x40)\n      tag_276\n      swap2\n      swap1\n      tag_47\n      jump\t// in\n    tag_276:\n      mload(0x40)\n      dup1\n      swap2\n      sub\n      swap1\n      log3\n        /* \"contracts/DeFiStakingPlatform.sol\":7149:7516  if (reward > 0) {... */\n    tag_272:\n        /* \"contracts/DeFiStakingPlatform.sol\":6849:7523  {... */\n      pop\n      pop\n        /* \"contracts/DeFiStakingPlatform.sol\":1937:2363  {... */\n      pop\n        /* \"contracts/DeFiStakingPlatform.sol\":2613:2614  _ */\n      pop\n      pop\n        /* \"contracts/DeFiStakingPlatform.sol\":2483:2484  _ */\n      pop\n        /* \"@openzeppelin/contracts/security/ReentrancyGuard.sol\":2292:2293  _ */\n      pop\n        /* \"@openzeppelin/contracts/security/ReentrancyGuard.sol\":2303:2323  _nonReentrantAfter() */\n      tag_277\n        /* \"@openzeppelin/contracts/security/ReentrancyGuard.sol\":2303:2321  _nonReentrantAfter */\n      tag_137\n        /* \"@openzeppelin/contracts/security/ReentrancyGuard.sol\":2303:2323  _nonReentrantAfter() */\n      jump\t// in\n    tag_277:\n        /* \"contracts/DeFiStakingPlatform.sol\":6666:7523  function compound(uint256 poolId) ... */\n      pop\n      jump\t// out\n        /* \"contracts/DeFiStakingPlatform.sol\":1001:1045  mapping(uint256 => StakingPool) public pools */\n    tag_92:\n      mstore(0x20, 0x02)\n      dup1\n      0x00\n      mstore\n      keccak256(0x00, 0x40)\n      0x00\n      swap2\n      pop\n      swap1\n      pop\n      dup1\n      0x00\n      add\n      0x00\n      swap1\n      sload\n      swap1\n      0x0100\n      exp\n      swap1\n      div\n      0xffffffffffffffffffffffffffffffffffffffff\n      and\n      swap1\n      dup1\n      0x01\n      add\n      0x00\n      swap1\n      sload\n      swap1\n      0x0100\n      exp\n      swap1\n      div\n      0xffffffffffffffffffffffffffffffffffffffff\n      and\n      swap1\n      dup1\n      0x02\n      add\n      sload\n      swap1\n      dup1\n      0x03\n      add\n      sload\n      swap1\n      dup1\n      0x04\n      add\n      sload\n      swap1\n      dup1\n      0x05\n      add\n      sload\n      swap1\n      dup1\n      0x06\n      add\n      sload\n      swap1\n      dup1\n      0x07\n      add\n      sload\n      swap1\n      dup1\n      0x08\n      add\n      0x00\n      swap1\n      sload\n      swap1\n      0x0100\n      exp\n      swap1\n      div\n      0xff\n      and\n      swap1\n      pop\n      dup10\n      jump\t// out\n        /* \"contracts/DeFiStakingPlatform.sol\":8096:8444  function updateRewardRate(uint256 poolId, uint256 newRate) ... */\n    tag_97:\n        /* \"@openzeppelin/contracts/access/Ownable.sol\":1531:1544  _checkOwner() */\n      tag_279\n        /* \"@openzeppelin/contracts/access/Ownable.sol\":1531:1542  _checkOwner */\n      tag_144\n        /* \"@openzeppelin/contracts/access/Ownable.sol\":1531:1544  _checkOwner() */\n      jump\t// in\n    tag_279:\n        /* \"contracts/DeFiStakingPlatform.sol\":8215:8221  poolId */\n      dup2\n        /* \"contracts/DeFiStakingPlatform.sol\":2439:2448  poolCount */\n      sload(0x04)\n        /* \"contracts/DeFiStakingPlatform.sol\":2430:2436  poolId */\n      dup2\n        /* \"contracts/DeFiStakingPlatform.sol\":2430:2448  poolId < poolCount */\n      lt\n        /* \"contracts/DeFiStakingPlatform.sol\":2422:2472  require(poolId < poolCount, \"Pool does not exist\") */\n      tag_281\n      jumpi\n      mload(0x40)\n      0x08c379a000000000000000000000000000000000000000000000000000000000\n      dup2\n      mstore\n      0x04\n      add\n      tag_282\n      swap1\n      tag_116\n      jump\t// in\n    tag_282:\n      mload(0x40)\n      dup1\n      swap2\n      sub\n      swap1\n      revert\n    tag_281:\n        /* \"contracts/DeFiStakingPlatform.sol\":8246:8252  poolId */\n      dup3\n        /* \"contracts/DeFiStakingPlatform.sol\":8262:8263  0 */\n      0x00\n        /* \"contracts/DeFiStakingPlatform.sol\":1948:1972  StakingPool storage pool */\n      0x00\n        /* \"contracts/DeFiStakingPlatform.sol\":1975:1980  pools */\n      0x02\n        /* \"contracts/DeFiStakingPlatform.sol\":1975:1988  pools[poolId] */\n      0x00\n        /* \"contracts/DeFiStakingPlatform.sol\":1981:1987  poolId */\n      dup5\n        /* \"contracts/DeFiStakingPlatform.sol\":1975:1988  pools[poolId] */\n      dup2\n      mstore\n      0x20\n      add\n      swap1\n      dup2\n      mstore\n      0x20\n      add\n      0x00\n      keccak256\n        /* \"contracts/DeFiStakingPlatform.sol\":1948:1988  StakingPool storage pool = pools[poolId] */\n      swap1\n      pop\n        /* \"contracts/DeFiStakingPlatform.sol\":2027:2049  rewardPerToken(poolId) */\n      tag_284\n        /* \"contracts/DeFiStakingPlatform.sol\":2042:2048  poolId */\n      dup4\n        /* \"contracts/DeFiStakingPlatform.sol\":2027:2041  rewardPerToken */\n      tag_77\n        /* \"contracts/DeFiStakingPlatform.sol\":2027:2049  rewardPerToken(poolId) */\n      jump\t// in\n    tag_284:\n        /* \"contracts/DeFiStakingPlatform.sol\":1999:2003  pool */\n      dup2\n        /* \"contracts/DeFiStakingPlatform.sol\":1999:2024  pool.rewardPerTokenStored */\n      0x04\n      add\n        /* \"contracts/DeFiStakingPlatform.sol\":1999:2049  pool.rewardPerTokenStored = rewardPerToken(poolId) */\n      dup2\n      swap1\n      sstore\n      pop\n        /* \"contracts/DeFiStakingPlatform.sol\":2082:2097  block.timestamp */\n      timestamp\n        /* \"contracts/DeFiStakingPlatform.sol\":2060:2064  pool */\n      dup2\n        /* \"contracts/DeFiStakingPlatform.sol\":2060:2079  pool.lastUpdateTime */\n      0x03\n      add\n        /* \"contracts/DeFiStakingPlatform.sol\":2060:2097  pool.lastUpdateTime = block.timestamp */\n      dup2\n      swap1\n      sstore\n      pop\n        /* \"contracts/DeFiStakingPlatform.sol\":2141:2142  0 */\n      0x00\n        /* \"contracts/DeFiStakingPlatform.sol\":2122:2143  account != address(0) */\n      0xffffffffffffffffffffffffffffffffffffffff\n      and\n        /* \"contracts/DeFiStakingPlatform.sol\":2122:2129  account */\n      dup3\n        /* \"contracts/DeFiStakingPlatform.sol\":2122:2143  account != address(0) */\n      0xffffffffffffffffffffffffffffffffffffffff\n      and\n      eq\n        /* \"contracts/DeFiStakingPlatform.sol\":2118:2344  if (account != address(0)) {... */\n      tag_285\n      jumpi\n        /* \"contracts/DeFiStakingPlatform.sol\":2160:2181  UserInfo storage user */\n      0x00\n        /* \"contracts/DeFiStakingPlatform.sol\":2184:2192  userInfo */\n      0x03\n        /* \"contracts/DeFiStakingPlatform.sol\":2184:2200  userInfo[poolId] */\n      0x00\n        /* \"contracts/DeFiStakingPlatform.sol\":2193:2199  poolId */\n      dup6\n        /* \"contracts/DeFiStakingPlatform.sol\":2184:2200  userInfo[poolId] */\n      dup2\n      mstore\n      0x20\n      add\n      swap1\n      dup2\n      mstore\n      0x20\n      add\n      0x00\n      keccak256\n        /* \"contracts/DeFiStakingPlatform.sol\":2184:2209  userInfo[poolId][account] */\n      0x00\n        /* \"contracts/DeFiStakingPlatform.sol\":2201:2208  account */\n      dup5\n        /* \"contracts/DeFiStakingPlatform.sol\":2184:2209  userInfo[poolId][account] */\n      0xffffffffffffffffffffffffffffffffffffffff\n      and\n      0xffffffffffffffffffffffffffffffffffffffff\n      and\n      dup2\n      mstore\n      0x20\n      add\n      swap1\n      dup2\n      mstore\n      0x20\n      add\n      0x00\n      keccak256\n        /* \"contracts/DeFiStakingPlatform.sol\":2160:2209  UserInfo storage user = userInfo[poolId][account] */\n      swap1\n      pop\n        /* \"contracts/DeFiStakingPlatform.sol\":2239:2262  earned(poolId, account) */\n      tag_286\n        /* \"contracts/DeFiStakingPlatform.sol\":2246:2252  poolId */\n      dup5\n        /* \"contracts/DeFiStakingPlatform.sol\":2254:2261  account */\n      dup5\n        /* \"contracts/DeFiStakingPlatform.sol\":2239:2245  earned */\n      tag_104\n        /* \"contracts/DeFiStakingPlatform.sol\":2239:2262  earned(poolId, account) */\n      jump\t// in\n    tag_286:\n        /* \"contracts/DeFiStakingPlatform.sol\":2224:2228  user */\n      dup2\n        /* \"contracts/DeFiStakingPlatform.sol\":2224:2236  user.rewards */\n      0x02\n      add\n        /* \"contracts/DeFiStakingPlatform.sol\":2224:2262  user.rewards = earned(poolId, account) */\n      dup2\n      swap1\n      sstore\n      pop\n        /* \"contracts/DeFiStakingPlatform.sol\":2307:2311  pool */\n      dup2\n        /* \"contracts/DeFiStakingPlatform.sol\":2307:2332  pool.rewardPerTokenStored */\n      0x04\n      add\n      sload\n        /* \"contracts/DeFiStakingPlatform.sol\":2277:2281  user */\n      dup2\n        /* \"contracts/DeFiStakingPlatform.sol\":2277:2304  user.userRewardPerTokenPaid */\n      0x01\n      add\n        /* \"contracts/DeFiStakingPlatform.sol\":2277:2332  user.userRewardPerTokenPaid = pool.rewardPerTokenStored */\n      dup2\n      swap1\n      sstore\n      pop\n        /* \"contracts/DeFiStakingPlatform.sol\":2145:2344  {... */\n      pop\n        /* \"contracts/DeFiStakingPlatform.sol\":2118:2344  if (account != address(0)) {... */\n    tag_285:\n        /* \"contracts/DeFiStakingPlatform.sol\":8301:8302  0 */\n      0x00\n        /* \"contracts/DeFiStakingPlatform.sol\":8291:8298  newRate */\n      dup6\n        /* \"contracts/DeFiStakingPlatform.sol\":8291:8302  newRate > 0 */\n      gt\n        /* \"contracts/DeFiStakingPlatform.sol\":8283:8341  require(newRate > 0, \"Reward rate must be greater than 0\") */\n      tag_288\n      jumpi\n      mload(0x40)\n      0x08c379a000000000000000000000000000000000000000000000000000000000\n      dup2\n      mstore\n      0x04\n      add\n      tag_289\n      swap1\n      tag_241\n      jump\t// in\n    tag_289:\n      mload(0x40)\n      dup1\n      swap2\n      sub\n      swap1\n      revert\n    tag_288:\n        /* \"contracts/DeFiStakingPlatform.sol\":8379:8386  newRate */\n      dup5\n        /* \"contracts/DeFiStakingPlatform.sol\":8352:8357  pools */\n      0x02\n        /* \"contracts/DeFiStakingPlatform.sol\":8352:8365  pools[poolId] */\n      0x00\n        /* \"contracts/DeFiStakingPlatform.sol\":8358:8364  poolId */\n      dup9\n        /* \"contracts/DeFiStakingPlatform.sol\":8352:8365  pools[poolId] */\n      dup2\n      mstore\n      0x20\n      add\n      swap1\n      dup2\n      mstore\n      0x20\n      add\n      0x00\n      keccak256\n        /* \"contracts/DeFiStakingPlatform.sol\":8352:8376  pools[poolId].rewardRate */\n      0x02\n      add\n        /* \"contracts/DeFiStakingPlatform.sol\":8352:8386  pools[poolId].rewardRate = newRate */\n      dup2\n      swap1\n      sstore\n      pop\n        /* \"contracts/DeFiStakingPlatform.sol\":8420:8426  poolId */\n      dup6\n        /* \"contracts/DeFiStakingPlatform.sol\":8402:8436  RewardRateUpdated(poolId, newRate) */\n      0xc390a98ace15a7bb6bab611eedfdbb2685043b241a869420043cdfb23ccfee50\n        /* \"contracts/DeFiStakingPlatform.sol\":8428:8435  newRate */\n      dup7\n        /* \"contracts/DeFiStakingPlatform.sol\":8402:8436  RewardRateUpdated(poolId, newRate) */\n      mload(0x40)\n      tag_290\n      swap2\n      swap1\n      tag_47\n      jump\t// in\n    tag_290:\n      mload(0x40)\n      dup1\n      swap2\n      sub\n      swap1\n      log2\n        /* \"contracts/DeFiStakingPlatform.sol\":1937:2363  {... */\n      pop\n        /* \"contracts/DeFiStakingPlatform.sol\":2483:2484  _ */\n      pop\n      pop\n        /* \"@openzeppelin/contracts/access/Ownable.sol\":1554:1555  _ */\n      pop\n        /* \"contracts/DeFiStakingPlatform.sol\":8096:8444  function updateRewardRate(uint256 poolId, uint256 newRate) ... */\n      pop\n      pop\n      jump\t// out\n        /* \"contracts/DeFiStakingPlatform.sol\":8456:8679  function setPoolStatus(uint256 poolId, bool active) ... */\n    tag_101:\n        /* \"@openzeppelin/contracts/access/Ownable.sol\":1531:1544  _checkOwner() */\n      tag_292\n        /* \"@openzeppelin/contracts/access/Ownable.sol\":1531:1542  _checkOwner */\n      tag_144\n        /* \"@openzeppelin/contracts/access/Ownable.sol\":1531:1544  _checkOwner() */\n      jump\t// in\n    tag_292:\n        /* \"contracts/DeFiStakingPlatform.sol\":8568:8574  poolId */\n      dup2\n        /* \"contracts/DeFiStakingPlatform.sol\":2439:2448  poolCount */\n      sload(0x04)\n        /* \"contracts/DeFiStakingPlatform.sol\":2430:2436  poolId */\n      dup2\n        /* \"contracts/DeFiStakingPlatform.sol\":2430:2448  poolId < poolCount */\n      lt\n        /* \"contracts/DeFiStakingPlatform.sol\":2422:2472  require(poolId < poolCount, \"Pool does not exist\") */\n      tag_294\n      jumpi\n      mload(0x40)\n      0x08c379a000000000000000000000000000000000000000000000000000000000\n      dup2\n      mstore\n      0x04\n      add\n      tag_295\n      swap1\n      tag_116\n      jump\t// in\n    tag_295:\n      mload(0x40)\n      dup1\n      swap2\n      sub\n      swap1\n      revert\n    tag_294:\n        /* \"contracts/DeFiStakingPlatform.sol\":8616:8622  active */\n      dup2\n        /* \"contracts/DeFiStakingPlatform.sol\":8593:8598  pools */\n      0x02\n        /* \"contracts/DeFiStakingPlatform.sol\":8593:8606  pools[poolId] */\n      0x00\n        /* \"contracts/DeFiStakingPlatform.sol\":8599:8605  poolId */\n      dup6\n        /* \"contracts/DeFiStakingPlatform.sol\":8593:8606  pools[poolId] */\n      dup2\n      mstore\n      0x20\n      add\n      swap1\n      dup2\n      mstore\n      0x20\n      add\n      0x00\n      keccak256\n        /* \"contracts/DeFiStakingPlatform.sol\":8593:8613  pools[poolId].active */\n      0x08\n      add\n      0x00\n        /* \"contracts/DeFiStakingPlatform.sol\":8593:8622  pools[poolId].active = active */\n      0x0100\n      exp\n      dup2\n      sload\n      dup2\n      0xff\n      mul\n      not\n      and\n      swap1\n      dup4\n      iszero\n      iszero\n      mul\n      or\n      swap1\n      sstore\n      pop\n        /* \"contracts/DeFiStakingPlatform.sol\":8656:8662  poolId */\n      dup3\n        /* \"contracts/DeFiStakingPlatform.sol\":8638:8671  PoolStatusChanged(poolId, active) */\n      0xb3c3c605d1520cd5bf41301dd5c04929e0ff021b02a10ea259b5a5b2d521a29c\n        /* \"contracts/DeFiStakingPlatform.sol\":8664:8670  active */\n      dup4\n        /* \"contracts/DeFiStakingPlatform.sol\":8638:8671  PoolStatusChanged(poolId, active) */\n      mload(0x40)\n      tag_297\n      swap2\n      swap1\n      tag_60\n      jump\t// in\n    tag_297:\n      mload(0x40)\n      dup1\n      swap2\n      sub\n      swap1\n      log2\n        /* \"@openzeppelin/contracts/access/Ownable.sol\":1554:1555  _ */\n      pop\n        /* \"contracts/DeFiStakingPlatform.sol\":8456:8679  function setPoolStatus(uint256 poolId, bool active) ... */\n      pop\n      pop\n      jump\t// out\n        /* \"contracts/DeFiStakingPlatform.sol\":4145:4415  function earned(uint256 poolId, address account) public view returns (uint256) {... */\n    tag_104:\n        /* \"contracts/DeFiStakingPlatform.sol\":4215:4222  uint256 */\n      0x00\n        /* \"contracts/DeFiStakingPlatform.sol\":4235:4256  UserInfo storage user */\n      0x00\n        /* \"contracts/DeFiStakingPlatform.sol\":4259:4267  userInfo */\n      0x03\n        /* \"contracts/DeFiStakingPlatform.sol\":4259:4275  userInfo[poolId] */\n      0x00\n        /* \"contracts/DeFiStakingPlatform.sol\":4268:4274  poolId */\n      dup6\n        /* \"contracts/DeFiStakingPlatform.sol\":4259:4275  userInfo[poolId] */\n      dup2\n      mstore\n      0x20\n      add\n      swap1\n      dup2\n      mstore\n      0x20\n      add\n      0x00\n      keccak256\n        /* \"contracts/DeFiStakingPlatform.sol\":4259:4284  userInfo[poolId][account] */\n      0x00\n        /* \"contracts/DeFiStakingPlatform.sol\":4276:4283  account */\n      dup5\n        /* \"contracts/DeFiStakingPlatform.sol\":4259:4284  userInfo[poolId][account] */\n      0xffffffffffffffffffffffffffffffffffffffff\n      and\n      0xffffffffffffffffffffffffffffffffffffffff\n      and\n      dup2\n      mstore\n      0x20\n      add\n      swap1\n      dup2\n      mstore\n      0x20\n      add\n      0x00\n      keccak256\n        /* \"contracts/DeFiStakingPlatform.sol\":4235:4284  UserInfo storage user = userInfo[poolId][account] */\n      swap1\n      pop\n        /* \"contracts/DeFiStakingPlatform.sol\":4395:4399  user */\n      dup1\n        /* \"contracts/DeFiStakingPlatform.sol\":4395:4407  user.rewards */\n      0x02\n      add\n      sload\n        /* \"contracts/DeFiStakingPlatform.sol\":1203:1207  1e18 */\n      0x0de0b6b3a7640000\n        /* \"contracts/DeFiStakingPlatform.sol\":4344:4348  user */\n      dup3\n        /* \"contracts/DeFiStakingPlatform.sol\":4344:4371  user.userRewardPerTokenPaid */\n      0x01\n      add\n      sload\n        /* \"contracts/DeFiStakingPlatform.sol\":4319:4341  rewardPerToken(poolId) */\n      tag_299\n        /* \"contracts/DeFiStakingPlatform.sol\":4334:4340  poolId */\n      dup8\n        /* \"contracts/DeFiStakingPlatform.sol\":4319:4333  rewardPerToken */\n      tag_77\n        /* \"contracts/DeFiStakingPlatform.sol\":4319:4341  rewardPerToken(poolId) */\n      jump\t// in\n    tag_299:\n        /* \"contracts/DeFiStakingPlatform.sol\":4319:4371  rewardPerToken(poolId) - user.userRewardPerTokenPaid */\n      tag_300\n      swap2\n      swap1\n      tag_169\n      jump\t// in\n    tag_300:\n        /* \"contracts/DeFiStakingPlatform.sol\":4303:4307  user */\n      dup4\n        /* \"contracts/DeFiStakingPlatform.sol\":4303:4315  user.balance */\n      0x00\n      add\n      sload\n        /* \"contracts/DeFiStakingPlatform.sol\":4303:4372  user.balance * (rewardPerToken(poolId) - user.userRewardPerTokenPaid) */\n      tag_301\n      swap2\n      swap1\n      tag_250\n      jump\t// in\n    tag_301:\n        /* \"contracts/DeFiStakingPlatform.sol\":4302:4392  (user.balance * (rewardPerToken(poolId) - user.userRewardPerTokenPaid)) / REWARD_PRECISION */\n      tag_302\n      swap2\n      swap1\n      tag_253\n      jump\t// in\n    tag_302:\n        /* \"contracts/DeFiStakingPlatform.sol\":4302:4407  (user.balance * (rewardPerToken(poolId) - user.userRewardPerTokenPaid)) / REWARD_PRECISION + user.rewards */\n      tag_303\n      swap2\n      swap1\n      tag_120\n      jump\t// in\n    tag_303:\n        /* \"contracts/DeFiStakingPlatform.sol\":4295:4407  return (user.balance * (rewardPerToken(poolId) - user.userRewardPerTokenPaid)) / REWARD_PRECISION + user.rewards */\n      swap2\n      pop\n      pop\n        /* \"contracts/DeFiStakingPlatform.sol\":4145:4415  function earned(uint256 poolId, address account) public view returns (uint256) {... */\n      swap3\n      swap2\n      pop\n      pop\n      jump\t// out\n        /* \"@openzeppelin/contracts/access/Ownable.sol\":2543:2758  function transferOwnership(address newOwner) public virtual onlyOwner {... */\n    tag_109:\n        /* \"@openzeppelin/contracts/access/Ownable.sol\":1531:1544  _checkOwner() */\n      tag_305\n        /* \"@openzeppelin/contracts/access/Ownable.sol\":1531:1542  _checkOwner */\n      tag_144\n        /* \"@openzeppelin/contracts/access/Ownable.sol\":1531:1544  _checkOwner() */\n      jump\t// in\n    tag_305:\n        /* \"@openzeppelin/contracts/access/Ownable.sol\":2647:2648  0 */\n      0x00\n        /* \"@openzeppelin/contracts/access/Ownable.sol\":2627:2649  newOwner == address(0) */\n      0xffffffffffffffffffffffffffffffffffffffff\n      and\n        /* \"@openzeppelin/contracts/access/Ownable.sol\":2627:2635  newOwner */\n      dup2\n        /* \"@openzeppelin/contracts/access/Ownable.sol\":2627:2649  newOwner == address(0) */\n      0xffffffffffffffffffffffffffffffffffffffff\n      and\n      sub\n        /* \"@openzeppelin/contracts/access/Ownable.sol\":2623:2714  if (newOwner == address(0)) {... */\n      tag_307\n      jumpi\n        /* \"@openzeppelin/contracts/access/Ownable.sol\":2700:2701  0 */\n      0x00\n        /* \"@openzeppelin/contracts/access/Ownable.sol\":2672:2703  OwnableInvalidOwner(address(0)) */\n      mload(0x40)\n      0x1e4fbdf700000000000000000000000000000000000000000000000000000000\n      dup2\n      mstore\n      0x04\n      add\n      tag_308\n      swap2\n      swap1\n      tag_82\n      jump\t// in\n    tag_308:\n      mload(0x40)\n      dup1\n      swap2\n      sub\n      swap1\n      revert\n        /* \"@openzeppelin/contracts/access/Ownable.sol\":2623:2714  if (newOwner == address(0)) {... */\n    tag_307:\n        /* \"@openzeppelin/contracts/access/Ownable.sol\":2723:2751  _transferOwnership(newOwner) */\n      tag_309\n        /* \"@openzeppelin/contracts/access/Ownable.sol\":2742:2750  newOwner */\n      dup2\n        /* \"@openzeppelin/contracts/access/Ownable.sol\":2723:2741  _transferOwnership */\n      tag_192\n        /* \"@openzeppelin/contracts/access/Ownable.sol\":2723:2751  _transferOwnership(newOwner) */\n      jump\t// in\n    tag_309:\n        /* \"@openzeppelin/contracts/access/Ownable.sol\":2543:2758  function transferOwnership(address newOwner) public virtual onlyOwner {... */\n      pop\n      jump\t// out\n        /* \"contracts/DeFiStakingPlatform.sol\":1129:1153  uint256 public poolCount */\n    tag_111:\n      sload(0x04)\n      dup2\n      jump\t// out\n        /* \"@openzeppelin/contracts/security/ReentrancyGuard.sol\":2336:2623  function _nonReentrantBefore() private {... */\n    tag_123:\n        /* \"@openzeppelin/contracts/security/ReentrancyGuard.sol\":1759:1760  2 */\n      0x02\n        /* \"@openzeppelin/contracts/security/ReentrancyGuard.sol\":2468:2475  _status */\n      sload(0x00)\n        /* \"@openzeppelin/contracts/security/ReentrancyGuard.sol\":2468:2487  _status != _ENTERED */\n      sub\n        /* \"@openzeppelin/contracts/security/ReentrancyGuard.sol\":2460:2523  require(_status != _ENTERED, \"ReentrancyGuard: reentrant call\") */\n      tag_311\n      jumpi\n      mload(0x40)\n      0x08c379a000000000000000000000000000000000000000000000000000000000\n      dup2\n      mstore\n      0x04\n      add\n      tag_312\n      swap1\n      tag_313\n      jump\t// in\n    tag_312:\n      mload(0x40)\n      dup1\n      swap2\n      sub\n      swap1\n      revert\n    tag_311:\n        /* \"@openzeppelin/contracts/security/ReentrancyGuard.sol\":1759:1760  2 */\n      0x02\n        /* \"@openzeppelin/contracts/security/ReentrancyGuard.sol\":2598:2605  _status */\n      0x00\n        /* \"@openzeppelin/contracts/security/ReentrancyGuard.sol\":2598:2616  _status = _ENTERED */\n      dup2\n      swap1\n      sstore\n      pop\n        /* \"@openzeppelin/contracts/security/ReentrancyGuard.sol\":2336:2623  function _nonReentrantBefore() private {... */\n      jump\t// out\n        /* \"@openzeppelin/contracts/token/ERC20/utils/SafeERC20.sol\":1219:1379  function safeTransfer(IERC20 token, address to, uint256 value) internal {... */\n    tag_134:\n        /* \"@openzeppelin/contracts/token/ERC20/utils/SafeERC20.sol\":1301:1372  _callOptionalReturn(token, abi.encodeCall(token.transfer, (to, value))) */\n      tag_315\n        /* \"@openzeppelin/contracts/token/ERC20/utils/SafeERC20.sol\":1321:1326  token */\n      dup4\n        /* \"@openzeppelin/contracts/token/ERC20/utils/SafeERC20.sol\":1343:1348  token */\n      dup5\n        /* \"@openzeppelin/contracts/token/ERC20/utils/SafeERC20.sol\":1343:1357  token.transfer */\n      0xffffffffffffffffffffffffffffffffffffffff\n      and\n      0xa9059cbb\n        /* \"@openzeppelin/contracts/token/ERC20/utils/SafeERC20.sol\":1360:1362  to */\n      dup6\n        /* \"@openzeppelin/contracts/token/ERC20/utils/SafeERC20.sol\":1364:1369  value */\n      dup6\n        /* \"@openzeppelin/contracts/token/ERC20/utils/SafeERC20.sol\":1328:1371  abi.encodeCall(token.transfer, (to, value)) */\n      add(0x24, mload(0x40))\n      tag_316\n      swap3\n      swap2\n      swap1\n      tag_317\n      jump\t// in\n    tag_316:\n      mload(0x40)\n      0x20\n      dup2\n      dup4\n      sub\n      sub\n      dup2\n      mstore\n      swap1\n      0x40\n      mstore\n      swap2\n      pop\n      0xe0\n      shl\n      0x20\n      dup3\n      add\n      dup1\n      mload\n      0xffffffffffffffffffffffffffffffffffffffffffffffffffffffff\n      dup4\n      dup2\n      dup4\n      and\n      or\n      dup4\n      mstore\n      pop\n      pop\n      pop\n      pop\n        /* \"@openzeppelin/contracts/token/ERC20/utils/SafeERC20.sol\":1301:1320  _callOptionalReturn */\n      tag_318\n        /* \"@openzeppelin/contracts/token/ERC20/utils/SafeERC20.sol\":1301:1372  _callOptionalReturn(token, abi.encodeCall(token.transfer, (to, value))) */\n      jump\t// in\n    tag_315:\n        /* \"@openzeppelin/contracts/token/ERC20/utils/SafeERC20.sol\":1219:1379  function safeTransfer(IERC20 token, address to, uint256 value) internal {... */\n      pop\n      pop\n      pop\n      jump\t// out\n        /* \"@openzeppelin/contracts/security/ReentrancyGuard.sol\":2629:2838  function _nonReentrantAfter() private {... */\n    tag_137:\n        /* \"@openzeppelin/contracts/security/ReentrancyGuard.sol\":1716:1717  1 */\n      0x01\n        /* \"@openzeppelin/contracts/security/ReentrancyGuard.sol\":2809:2816  _status */\n      0x00\n        /* \"@openzeppelin/contracts/security/ReentrancyGuard.sol\":2809:2831  _status = _NOT_ENTERED */\n      dup2\n      swap1\n      sstore\n      pop\n        /* \"@openzeppelin/contracts/security/ReentrancyGuard.sol\":2629:2838  function _nonReentrantAfter() private {... */\n      jump\t// out\n        /* \"@openzeppelin/contracts/access/Ownable.sol\":1796:1958  function _checkOwner() internal view virtual {... */\n    tag_144:\n        /* \"@openzeppelin/contracts/access/Ownable.sol\":1866:1878  _msgSender() */\n      tag_321\n        /* \"@openzeppelin/contracts/access/Ownable.sol\":1866:1876  _msgSender */\n      tag_322\n        /* \"@openzeppelin/contracts/access/Ownable.sol\":1866:1878  _msgSender() */\n      jump\t// in\n    tag_321:\n        /* \"@openzeppelin/contracts/access/Ownable.sol\":1855:1878  owner() != _msgSender() */\n      0xffffffffffffffffffffffffffffffffffffffff\n      and\n        /* \"@openzeppelin/contracts/access/Ownable.sol\":1855:1862  owner() */\n      tag_323\n        /* \"@openzeppelin/contracts/access/Ownable.sol\":1855:1860  owner */\n      tag_80\n        /* \"@openzeppelin/contracts/access/Ownable.sol\":1855:1862  owner() */\n      jump\t// in\n    tag_323:\n        /* \"@openzeppelin/contracts/access/Ownable.sol\":1855:1878  owner() != _msgSender() */\n      0xffffffffffffffffffffffffffffffffffffffff\n      and\n      eq\n        /* \"@openzeppelin/contracts/access/Ownable.sol\":1851:1952  if (owner() != _msgSender()) {... */\n      tag_324\n      jumpi\n        /* \"@openzeppelin/contracts/access/Ownable.sol\":1928:1940  _msgSender() */\n      tag_325\n        /* \"@openzeppelin/contracts/access/Ownable.sol\":1928:1938  _msgSender */\n      tag_322\n        /* \"@openzeppelin/contracts/access/Ownable.sol\":1928:1940  _msgSender() */\n      jump\t// in\n    tag_325:\n        /* \"@openzeppelin/contracts/access/Ownable.sol\":1901:1941  OwnableUnauthorizedAccount(_msgSender()) */\n      mload(0x40)\n      0x118cdaa700000000000000000000000000000000000000000000000000000000\n      dup2\n      mstore\n      0x04\n      add\n      tag_326\n      swap2\n      swap1\n      tag_82\n      jump\t// in\n    tag_326:\n      mload(0x40)\n      dup1\n      swap2\n      sub\n      swap1\n      revert\n        /* \"@openzeppelin/contracts/access/Ownable.sol\":1851:1952  if (owner() != _msgSender()) {... */\n    tag_324:\n        /* \"@openzeppelin/contracts/access/Ownable.sol\":1796:1958  function _checkOwner() internal view virtual {... */\n      jump\t// out\n        /* \"@openzeppelin/contracts/security/Pausable.sol\":2433:2550  function _unpause() internal virtual whenPaused {... */\n    tag_147:\n        /* \"@openzeppelin/contracts/security/Pausable.sol\":1486:1502  _requirePaused() */\n      tag_328\n        /* \"@openzeppelin/contracts/security/Pausable.sol\":1486:1500  _requirePaused */\n      tag_329\n        /* \"@openzeppelin/contracts/security/Pausable.sol\":1486:1502  _requirePaused() */\n      jump\t// in\n    tag_328:\n        /* \"@openzeppelin/contracts/security/Pausable.sol\":2501:2506  false */\n      0x00\n        /* \"@openzeppelin/contracts/security/Pausable.sol\":2491:2498  _paused */\n      0x01\n      0x14\n        /* \"@openzeppelin/contracts/security/Pausable.sol\":2491:2506  _paused = false */\n      0x0100\n      exp\n      dup2\n      sload\n      dup2\n      0xff\n      mul\n      not\n      and\n      swap1\n      dup4\n      iszero\n      iszero\n      mul\n      or\n      swap1\n      sstore\n      pop\n        /* \"@openzeppelin/contracts/security/Pausable.sol\":2521:2543  Unpaused(_msgSender()) */\n      0x5db9ee0a495bf2e6ff9c91a7834c1ba4fdd244a5e8aa4e537bd38aeae4b073aa\n        /* \"@openzeppelin/contracts/security/Pausable.sol\":2530:2542  _msgSender() */\n      tag_331\n        /* \"@openzeppelin/contracts/security/Pausable.sol\":2530:2540  _msgSender */\n      tag_322\n        /* \"@openzeppelin/contracts/security/Pausable.sol\":2530:2542  _msgSender() */\n      jump\t// in\n    tag_331:\n        /* \"@openzeppelin/contracts/security/Pausable.sol\":2521:2543  Unpaused(_msgSender()) */\n      mload(0x40)\n      tag_332\n      swap2\n      swap1\n      tag_82\n      jump\t// in\n    tag_332:\n      mload(0x40)\n      dup1\n      swap2\n      sub\n      swap1\n      log1\n        /* \"@openzeppelin/contracts/security/Pausable.sol\":2433:2550  function _unpause() internal virtual whenPaused {... */\n      jump\t// out\n        /* \"@openzeppelin/contracts/access/Ownable.sol\":2912:3099  function _transferOwnership(address newOwner) internal virtual {... */\n    tag_192:\n        /* \"@openzeppelin/contracts/access/Ownable.sol\":2985:3001  address oldOwner */\n      0x00\n        /* \"@openzeppelin/contracts/access/Ownable.sol\":3004:3010  _owner */\n      0x01\n      0x00\n      swap1\n      sload\n      swap1\n      0x0100\n      exp\n      swap1\n      div\n      0xffffffffffffffffffffffffffffffffffffffff\n      and\n        /* \"@openzeppelin/contracts/access/Ownable.sol\":2985:3010  address oldOwner = _owner */\n      swap1\n      pop\n        /* \"@openzeppelin/contracts/access/Ownable.sol\":3029:3037  newOwner */\n      dup2\n        /* \"@openzeppelin/contracts/access/Ownable.sol\":3020:3026  _owner */\n      0x01\n      0x00\n        /* \"@openzeppelin/contracts/access/Ownable.sol\":3020:3037  _owner = newOwner */\n      0x0100\n      exp\n      dup2\n      sload\n      dup2\n      0xffffffffffffffffffffffffffffffffffffffff\n      mul\n      not\n      and\n      swap1\n      dup4\n      0xffffffffffffffffffffffffffffffffffffffff\n      and\n      mul\n      or\n      swap1\n      sstore\n      pop\n        /* \"@openzeppelin/contracts/access/Ownable.sol\":3083:3091  newOwner */\n      dup2\n        /* \"@openzeppelin/contracts/access/Ownable.sol\":3052:3092  OwnershipTransferred(oldOwner, newOwner) */\n      0xffffffffffffffffffffffffffffffffffffffff\n      and\n        /* \"@openzeppelin/contracts/access/Ownable.sol\":3073:3081  oldOwner */\n      dup2\n        /* \"@openzeppelin/contracts/access/Ownable.sol\":3052:3092  OwnershipTransferred(oldOwner, newOwner) */\n      0xffffffffffffffffffffffffffffffffffffffff\n      and\n      0x8be0079c531659141344cd1fd0a4f28419497f9722a3daafe3b4186f6b6457e0\n      mload(0x40)\n      mload(0x40)\n      dup1\n      swap2\n      sub\n      swap1\n      log3\n        /* \"@openzeppelin/contracts/access/Ownable.sol\":2975:3099  {... */\n      pop\n        /* \"@openzeppelin/contracts/access/Ownable.sol\":2912:3099  function _transferOwnership(address newOwner) internal virtual {... */\n      pop\n      jump\t// out\n        /* \"@openzeppelin/contracts/security/Pausable.sol\":1767:1873  function _requireNotPaused() internal view virtual {... */\n    tag_197:\n        /* \"@openzeppelin/contracts/security/Pausable.sol\":1837:1845  paused() */\n      tag_335\n        /* \"@openzeppelin/contracts/security/Pausable.sol\":1837:1843  paused */\n      tag_58\n        /* \"@openzeppelin/contracts/security/Pausable.sol\":1837:1845  paused() */\n      jump\t// in\n    tag_335:\n        /* \"@openzeppelin/contracts/security/Pausable.sol\":1836:1845  !paused() */\n      iszero\n        /* \"@openzeppelin/contracts/security/Pausable.sol\":1828:1866  require(!paused(), \"Pausable: paused\") */\n      tag_336\n      jumpi\n      mload(0x40)\n      0x08c379a000000000000000000000000000000000000000000000000000000000\n      dup2\n      mstore\n      0x04\n      add\n      tag_337\n      swap1\n      tag_338\n      jump\t// in\n    tag_337:\n      mload(0x40)\n      dup1\n      swap2\n      sub\n      swap1\n      revert\n    tag_336:\n        /* \"@openzeppelin/contracts/security/Pausable.sol\":1767:1873  function _requireNotPaused() internal view virtual {... */\n      jump\t// out\n        /* \"@openzeppelin/contracts/token/ERC20/utils/SafeERC20.sol\":1618:1806  function safeTransferFrom(IERC20 token, address from, address to, uint256 value) internal {... */\n    tag_219:\n        /* \"@openzeppelin/contracts/token/ERC20/utils/SafeERC20.sol\":1718:1799  _callOptionalReturn(token, abi.encodeCall(token.transferFrom, (from, to, value))) */\n      tag_340\n        /* \"@openzeppelin/contracts/token/ERC20/utils/SafeERC20.sol\":1738:1743  token */\n      dup5\n        /* \"@openzeppelin/contracts/token/ERC20/utils/SafeERC20.sol\":1760:1765  token */\n      dup6\n        /* \"@openzeppelin/contracts/token/ERC20/utils/SafeERC20.sol\":1760:1778  token.transferFrom */\n      0xffffffffffffffffffffffffffffffffffffffff\n      and\n      0x23b872dd\n        /* \"@openzeppelin/contracts/token/ERC20/utils/SafeERC20.sol\":1781:1785  from */\n      dup7\n        /* \"@openzeppelin/contracts/token/ERC20/utils/SafeERC20.sol\":1787:1789  to */\n      dup7\n        /* \"@openzeppelin/contracts/token/ERC20/utils/SafeERC20.sol\":1791:1796  value */\n      dup7\n        /* \"@openzeppelin/contracts/token/ERC20/utils/SafeERC20.sol\":1745:1798  abi.encodeCall(token.transferFrom, (from, to, value)) */\n      add(0x24, mload(0x40))\n      tag_341\n      swap4\n      swap3\n      swap2\n      swap1\n      tag_342\n      jump\t// in\n    tag_341:\n      mload(0x40)\n      0x20\n      dup2\n      dup4\n      sub\n      sub\n      dup2\n      mstore\n      swap1\n      0x40\n      mstore\n      swap2\n      pop\n      0xe0\n      shl\n      0x20\n      dup3\n      add\n      dup1\n      mload\n      0xffffffffffffffffffffffffffffffffffffffffffffffffffffffff\n      dup4\n      dup2\n      dup4\n      and\n      or\n      dup4\n      mstore\n      pop\n      pop\n      pop\n      pop\n        /* \"@openzeppelin/contracts/token/ERC20/utils/SafeERC20.sol\":1718:1737  _callOptionalReturn */\n      tag_318\n        /* \"@openzeppelin/contracts/token/ERC20/utils/SafeERC20.sol\":1718:1799  _callOptionalReturn(token, abi.encodeCall(token.transferFrom, (from, to, value))) */\n      jump\t// in\n    tag_340:\n        /* \"@openzeppelin/contracts/token/ERC20/utils/SafeERC20.sol\":1618:1806  function safeTransferFrom(IERC20 token, address from, address to, uint256 value) internal {... */\n      pop\n      pop\n      pop\n      pop\n      jump\t// out\n        /* \"@openzeppelin/contracts/security/Pausable.sol\":2186:2301  function _pause() internal virtual whenNotPaused {... */\n    tag_229:\n        /* \"@openzeppelin/contracts/security/Pausable.sol\":1239:1258  _requireNotPaused() */\n      tag_344\n        /* \"@openzeppelin/contracts/security/Pausable.sol\":1239:1256  _requireNotPaused */\n      tag_197\n        /* \"@openzeppelin/contracts/security/Pausable.sol\":1239:1258  _requireNotPaused() */\n      jump\t// in\n    tag_344:\n        /* \"@openzeppelin/contracts/security/Pausable.sol\":2255:2259  true */\n      0x01\n        /* \"@openzeppelin/contracts/security/Pausable.sol\":2245:2252  _paused */\n      dup1\n      0x14\n        /* \"@openzeppelin/contracts/security/Pausable.sol\":2245:2259  _paused = true */\n      0x0100\n      exp\n      dup2\n      sload\n      dup2\n      0xff\n      mul\n      not\n      and\n      swap1\n      dup4\n      iszero\n      iszero\n      mul\n      or\n      swap1\n      sstore\n      pop\n        /* \"@openzeppelin/contracts/security/Pausable.sol\":2274:2294  Paused(_msgSender()) */\n      0x62e78cea01bee320cd4e420270b5ea74000d11b0c9f74754ebdbfc544b05a258\n        /* \"@openzeppelin/contracts/security/Pausable.sol\":2281:2293  _msgSender() */\n      tag_346\n        /* \"@openzeppelin/contracts/security/Pausable.sol\":2281:2291  _msgSender */\n      tag_322\n        /* \"@openzeppelin/contracts/security/Pausable.sol\":2281:2293  _msgSender() */\n      jump\t// in\n    tag_346:\n        /* \"@openzeppelin/contracts/security/Pausable.sol\":2274:2294  Paused(_msgSender()) */\n      mload(0x40)\n      tag_347\n      swap2\n      swap1\n      tag_82\n      jump\t// in\n    tag_347:\n      mload(0x40)\n      dup1\n      swap2\n      sub\n      swap1\n      log1\n        /* \"@openzeppelin/contracts/security/Pausable.sol\":2186:2301  function _pause() internal virtual whenNotPaused {... */\n      jump\t// out\n        /* \"@openzeppelin/contracts/token/ERC20/utils/SafeERC20.sol\":8370:9090  function _callOptionalReturn(IERC20 token, bytes memory data) private {... */\n    tag_318:\n        /* \"@openzeppelin/contracts/token/ERC20/utils/SafeERC20.sol\":8450:8468  uint256 returnSize */\n      0x00\n        /* \"@openzeppelin/contracts/token/ERC20/utils/SafeERC20.sol\":8478:8497  uint256 returnValue */\n      0x00\n        /* \"@openzeppelin/contracts/token/ERC20/utils/SafeERC20.sol\":8616:8620  0x20 */\n      0x20\n        /* \"@openzeppelin/contracts/token/ERC20/utils/SafeERC20.sol\":8613:8614  0 */\n      0x00\n        /* \"@openzeppelin/contracts/token/ERC20/utils/SafeERC20.sol\":8606:8610  data */\n      dup5\n        /* \"@openzeppelin/contracts/token/ERC20/utils/SafeERC20.sol\":8600:8611  mload(data) */\n      mload\n        /* \"@openzeppelin/contracts/token/ERC20/utils/SafeERC20.sol\":8593:8597  0x20 */\n      0x20\n        /* \"@openzeppelin/contracts/token/ERC20/utils/SafeERC20.sol\":8587:8591  data */\n      dup7\n        /* \"@openzeppelin/contracts/token/ERC20/utils/SafeERC20.sol\":8583:8598  add(data, 0x20) */\n      add\n        /* \"@openzeppelin/contracts/token/ERC20/utils/SafeERC20.sol\":8580:8581  0 */\n      0x00\n        /* \"@openzeppelin/contracts/token/ERC20/utils/SafeERC20.sol\":8573:8578  token */\n      dup9\n        /* \"@openzeppelin/contracts/token/ERC20/utils/SafeERC20.sol\":8566:8571  gas() */\n      gas\n        /* \"@openzeppelin/contracts/token/ERC20/utils/SafeERC20.sol\":8561:8621  call(gas(), token, 0, add(data, 0x20), mload(data), 0, 0x20) */\n      call\n        /* \"@openzeppelin/contracts/token/ERC20/utils/SafeERC20.sol\":8673:8680  success */\n      dup1\n        /* \"@openzeppelin/contracts/token/ERC20/utils/SafeERC20.sol\":8663:8839  if iszero(success) {... */\n      tag_349\n      jumpi\n        /* \"@openzeppelin/contracts/token/ERC20/utils/SafeERC20.sol\":8717:8721  0x40 */\n      0x40\n        /* \"@openzeppelin/contracts/token/ERC20/utils/SafeERC20.sol\":8711:8722  mload(0x40) */\n      mload\n        /* \"@openzeppelin/contracts/token/ERC20/utils/SafeERC20.sol\":8762:8778  returndatasize() */\n      returndatasize\n        /* \"@openzeppelin/contracts/token/ERC20/utils/SafeERC20.sol\":8759:8760  0 */\n      0x00\n        /* \"@openzeppelin/contracts/token/ERC20/utils/SafeERC20.sol\":8754:8757  ptr */\n      dup3\n        /* \"@openzeppelin/contracts/token/ERC20/utils/SafeERC20.sol\":8739:8779  returndatacopy(ptr, 0, returndatasize()) */\n      returndatacopy\n        /* \"@openzeppelin/contracts/token/ERC20/utils/SafeERC20.sol\":8808:8824  returndatasize() */\n      returndatasize\n        /* \"@openzeppelin/contracts/token/ERC20/utils/SafeERC20.sol\":8803:8806  ptr */\n      dup2\n        /* \"@openzeppelin/contracts/token/ERC20/utils/SafeERC20.sol\":8796:8825  revert(ptr, returndatasize()) */\n      revert\n        /* \"@openzeppelin/contracts/token/ERC20/utils/SafeERC20.sol\":8663:8839  if iszero(success) {... */\n    tag_349:\n        /* \"@openzeppelin/contracts/token/ERC20/utils/SafeERC20.sol\":8866:8882  returndatasize() */\n      returndatasize\n        /* \"@openzeppelin/contracts/token/ERC20/utils/SafeERC20.sol\":8852:8882  returnSize := returndatasize() */\n      swap3\n      pop\n        /* \"@openzeppelin/contracts/token/ERC20/utils/SafeERC20.sol\":8916:8917  0 */\n      0x00\n        /* \"@openzeppelin/contracts/token/ERC20/utils/SafeERC20.sol\":8910:8918  mload(0) */\n      mload\n        /* \"@openzeppelin/contracts/token/ERC20/utils/SafeERC20.sol\":8895:8918  returnValue := mload(0) */\n      swap2\n      pop\n        /* \"@openzeppelin/contracts/token/ERC20/utils/SafeERC20.sol\":8532:8928  {... */\n      pop\n        /* \"@openzeppelin/contracts/token/ERC20/utils/SafeERC20.sol\":8956:8957  0 */\n      0x00\n        /* \"@openzeppelin/contracts/token/ERC20/utils/SafeERC20.sol\":8942:8952  returnSize */\n      dup3\n        /* \"@openzeppelin/contracts/token/ERC20/utils/SafeERC20.sol\":8942:8957  returnSize == 0 */\n      eq\n        /* \"@openzeppelin/contracts/token/ERC20/utils/SafeERC20.sol\":8942:9010  returnSize == 0 ? address(token).code.length == 0 : returnValue != 1 */\n      tag_350\n      jumpi\n        /* \"@openzeppelin/contracts/token/ERC20/utils/SafeERC20.sol\":9009:9010  1 */\n      0x01\n        /* \"@openzeppelin/contracts/token/ERC20/utils/SafeERC20.sol\":8994:9005  returnValue */\n      dup2\n        /* \"@openzeppelin/contracts/token/ERC20/utils/SafeERC20.sol\":8994:9010  returnValue != 1 */\n      eq\n      iszero\n        /* \"@openzeppelin/contracts/token/ERC20/utils/SafeERC20.sol\":8942:9010  returnSize == 0 ? address(token).code.length == 0 : returnValue != 1 */\n      jump(tag_351)\n    tag_350:\n        /* \"@openzeppelin/contracts/token/ERC20/utils/SafeERC20.sol\":8990:8991  0 */\n      0x00\n        /* \"@openzeppelin/contracts/token/ERC20/utils/SafeERC20.sol\":8968:8973  token */\n      dup5\n        /* \"@openzeppelin/contracts/token/ERC20/utils/SafeERC20.sol\":8960:8986  address(token).code.length */\n      0xffffffffffffffffffffffffffffffffffffffff\n      and\n      extcodesize\n        /* \"@openzeppelin/contracts/token/ERC20/utils/SafeERC20.sol\":8960:8991  address(token).code.length == 0 */\n      eq\n        /* \"@openzeppelin/contracts/token/ERC20/utils/SafeERC20.sol\":8942:9010  returnSize == 0 ? address(token).code.length == 0 : returnValue != 1 */\n    tag_351:\n        /* \"@openzeppelin/contracts/token/ERC20/utils/SafeERC20.sol\":8938:9084  if (returnSize == 0 ? address(token).code.length == 0 : returnValue != 1) {... */\n      iszero\n      tag_352\n      jumpi\n        /* \"@openzeppelin/contracts/token/ERC20/utils/SafeERC20.sol\":9066:9071  token */\n      dup4\n        /* \"@openzeppelin/contracts/token/ERC20/utils/SafeERC20.sol\":9033:9073  SafeERC20FailedOperation(address(token)) */\n      mload(0x40)\n      0x5274afe700000000000000000000000000000000000000000000000000000000\n      dup2\n      mstore\n      0x04\n      add\n      tag_353\n      swap2\n      swap1\n      tag_82\n      jump\t// in\n    tag_353:\n      mload(0x40)\n      dup1\n      swap2\n      sub\n      swap1\n      revert\n        /* \"@openzeppelin/contracts/token/ERC20/utils/SafeERC20.sol\":8938:9084  if (returnSize == 0 ? address(token).code.length == 0 : returnValue != 1) {... */\n    tag_352:\n        /* \"@openzeppelin/contracts/token/ERC20/utils/SafeERC20.sol\":8440:9090  {... */\n      pop\n      pop\n        /* \"@openzeppelin/contracts/token/ERC20/utils/SafeERC20.sol\":8370:9090  function _callOptionalReturn(IERC20 token, bytes memory data) private {... */\n      pop\n      pop\n      jump\t// out\n        /* \"@openzeppelin/contracts/utils/Context.sol\":656:752  function _msgSender() internal view virtual returns (address) {... */\n    tag_322:\n        /* \"@openzeppelin/contracts/utils/Context.sol\":709:716  address */\n      0x00\n        /* \"@openzeppelin/contracts/utils/Context.sol\":735:745  msg.sender */\n      caller\n        /* \"@openzeppelin/contracts/utils/Context.sol\":728:745  return msg.sender */\n      swap1\n      pop\n        /* \"@openzeppelin/contracts/utils/Context.sol\":656:752  function _msgSender() internal view virtual returns (address) {... */\n      swap1\n      jump\t// out\n        /* \"@openzeppelin/contracts/security/Pausable.sol\":1945:2051  function _requirePaused() internal view virtual {... */\n    tag_329:\n        /* \"@openzeppelin/contracts/security/Pausable.sol\":2011:2019  paused() */\n      tag_356\n        /* \"@openzeppelin/contracts/security/Pausable.sol\":2011:2017  paused */\n      tag_58\n        /* \"@openzeppelin/contracts/security/Pausable.sol\":2011:2019  paused() */\n      jump\t// in\n    tag_356:\n        /* \"@openzeppelin/contracts/security/Pausable.sol\":2003:2044  require(paused(), \"Pausable: not paused\") */\n      tag_357\n      jumpi\n      mload(0x40)\n      0x08c379a000000000000000000000000000000000000000000000000000000000\n      dup2\n      mstore\n      0x04\n      add\n      tag_358\n      swap1\n      tag_359\n      jump\t// in\n    tag_358:\n      mload(0x40)\n      dup1\n      swap2\n      sub\n      swap1\n      revert\n    tag_357:\n        /* \"@openzeppelin/contracts/security/Pausable.sol\":1945:2051  function _requirePaused() internal view virtual {... */\n      jump\t// out\n        /* \"#utility.yul\":88:205   */\n    tag_361:\n        /* \"#utility.yul\":197:198   */\n      0x00\n        /* \"#utility.yul\":194:195   */\n      0x00\n        /* \"#utility.yul\":187:199   */\n      revert\n        /* \"#utility.yul\":334:411   */\n    tag_363:\n        /* \"#utility.yul\":371:378   */\n      0x00\n        /* \"#utility.yul\":400:405   */\n      dup2\n        /* \"#utility.yul\":389:405   */\n      swap1\n      pop\n        /* \"#utility.yul\":334:411   */\n      swap2\n      swap1\n      pop\n      jump\t// out\n        /* \"#utility.yul\":417:539   */\n    tag_364:\n        /* \"#utility.yul\":490:514   */\n      tag_420\n        /* \"#utility.yul\":508:513   */\n      dup2\n        /* \"#utility.yul\":490:514   */\n      tag_363\n      jump\t// in\n    tag_420:\n        /* \"#utility.yul\":483:488   */\n      dup2\n        /* \"#utility.yul\":480:515   */\n      eq\n        /* \"#utility.yul\":470:533   */\n      tag_421\n      jumpi\n        /* \"#utility.yul\":529:530   */\n      0x00\n        /* \"#utility.yul\":526:527   */\n      0x00\n        /* \"#utility.yul\":519:531   */\n      revert\n        /* \"#utility.yul\":470:533   */\n    tag_421:\n        /* \"#utility.yul\":417:539   */\n      pop\n      jump\t// out\n        /* \"#utility.yul\":545:684   */\n    tag_365:\n        /* \"#utility.yul\":591:596   */\n      0x00\n        /* \"#utility.yul\":629:635   */\n      dup2\n        /* \"#utility.yul\":616:636   */\n      calldataload\n        /* \"#utility.yul\":607:636   */\n      swap1\n      pop\n        /* \"#utility.yul\":645:678   */\n      tag_423\n        /* \"#utility.yul\":672:677   */\n      dup2\n        /* \"#utility.yul\":645:678   */\n      tag_364\n      jump\t// in\n    tag_423:\n        /* \"#utility.yul\":545:684   */\n      swap3\n      swap2\n      pop\n      pop\n      jump\t// out\n        /* \"#utility.yul\":690:816   */\n    tag_366:\n        /* \"#utility.yul\":727:734   */\n      0x00\n        /* \"#utility.yul\":767:809   */\n      0xffffffffffffffffffffffffffffffffffffffff\n        /* \"#utility.yul\":760:765   */\n      dup3\n        /* \"#utility.yul\":756:810   */\n      and\n        /* \"#utility.yul\":745:810   */\n      swap1\n      pop\n        /* \"#utility.yul\":690:816   */\n      swap2\n      swap1\n      pop\n      jump\t// out\n        /* \"#utility.yul\":822:918   */\n    tag_367:\n        /* \"#utility.yul\":859:866   */\n      0x00\n        /* \"#utility.yul\":888:912   */\n      tag_426\n        /* \"#utility.yul\":906:911   */\n      dup3\n        /* \"#utility.yul\":888:912   */\n      tag_366\n      jump\t// in\n    tag_426:\n        /* \"#utility.yul\":877:912   */\n      swap1\n      pop\n        /* \"#utility.yul\":822:918   */\n      swap2\n      swap1\n      pop\n      jump\t// out\n        /* \"#utility.yul\":924:1046   */\n    tag_368:\n        /* \"#utility.yul\":997:1021   */\n      tag_428\n        /* \"#utility.yul\":1015:1020   */\n      dup2\n        /* \"#utility.yul\":997:1021   */\n      tag_367\n      jump\t// in\n    tag_428:\n        /* \"#utility.yul\":990:995   */\n      dup2\n        /* \"#utility.yul\":987:1022   */\n      eq\n        /* \"#utility.yul\":977:1040   */\n      tag_429\n      jumpi\n        /* \"#utility.yul\":1036:1037   */\n      0x00\n        /* \"#utility.yul\":1033:1034   */\n      0x00\n        /* \"#utility.yul\":1026:1038   */\n      revert\n        /* \"#utility.yul\":977:1040   */\n    tag_429:\n        /* \"#utility.yul\":924:1046   */\n      pop\n      jump\t// out\n        /* \"#utility.yul\":1052:1191   */\n    tag_369:\n        /* \"#utility.yul\":1098:1103   */\n      0x00\n        /* \"#utility.yul\":1136:1142   */\n      dup2\n        /* \"#utility.yul\":1123:1143   */\n      calldataload\n        /* \"#utility.yul\":1114:1143   */\n      swap1\n      pop\n        /* \"#utility.yul\":1152:1185   */\n      tag_431\n        /* \"#utility.yul\":1179:1184   */\n      dup2\n        /* \"#utility.yul\":1152:1185   */\n      tag_368\n      jump\t// in\n    tag_431:\n        /* \"#utility.yul\":1052:1191   */\n      swap3\n      swap2\n      pop\n      pop\n      jump\t// out\n        /* \"#utility.yul\":1197:1671   */\n    tag_31:\n        /* \"#utility.yul\":1265:1271   */\n      0x00\n        /* \"#utility.yul\":1273:1279   */\n      0x00\n        /* \"#utility.yul\":1322:1324   */\n      0x40\n        /* \"#utility.yul\":1310:1319   */\n      dup4\n        /* \"#utility.yul\":1301:1308   */\n      dup6\n        /* \"#utility.yul\":1297:1320   */\n      sub\n        /* \"#utility.yul\":1293:1325   */\n      slt\n        /* \"#utility.yul\":1290:1409   */\n      iszero\n      tag_433\n      jumpi\n        /* \"#utility.yul\":1328:1407   */\n      tag_434\n      tag_361\n      jump\t// in\n    tag_434:\n        /* \"#utility.yul\":1290:1409   */\n    tag_433:\n        /* \"#utility.yul\":1448:1449   */\n      0x00\n        /* \"#utility.yul\":1473:1526   */\n      tag_435\n        /* \"#utility.yul\":1518:1525   */\n      dup6\n        /* \"#utility.yul\":1509:1515   */\n      dup3\n        /* \"#utility.yul\":1498:1507   */\n      dup7\n        /* \"#utility.yul\":1494:1516   */\n      add\n        /* \"#utility.yul\":1473:1526   */\n      tag_365\n      jump\t// in\n    tag_435:\n        /* \"#utility.yul\":1463:1526   */\n      swap3\n      pop\n        /* \"#utility.yul\":1419:1536   */\n      pop\n        /* \"#utility.yul\":1575:1577   */\n      0x20\n        /* \"#utility.yul\":1601:1654   */\n      tag_436\n        /* \"#utility.yul\":1646:1653   */\n      dup6\n        /* \"#utility.yul\":1637:1643   */\n      dup3\n        /* \"#utility.yul\":1626:1635   */\n      dup7\n        /* \"#utility.yul\":1622:1644   */\n      add\n        /* \"#utility.yul\":1601:1654   */\n      tag_369\n      jump\t// in\n    tag_436:\n        /* \"#utility.yul\":1591:1654   */\n      swap2\n      pop\n        /* \"#utility.yul\":1546:1664   */\n      pop\n        /* \"#utility.yul\":1197:1671   */\n      swap3\n      pop\n      swap3\n      swap1\n      pop\n      jump\t// out\n        /* \"#utility.yul\":1677:1795   */\n    tag_370:\n        /* \"#utility.yul\":1764:1788   */\n      tag_438\n        /* \"#utility.yul\":1782:1787   */\n      dup2\n        /* \"#utility.yul\":1764:1788   */\n      tag_363\n      jump\t// in\n    tag_438:\n        /* \"#utility.yul\":1759:1762   */\n      dup3\n        /* \"#utility.yul\":1752:1789   */\n      mstore\n        /* \"#utility.yul\":1677:1795   */\n      pop\n      pop\n      jump\t// out\n        /* \"#utility.yul\":1801:2354   */\n    tag_34:\n        /* \"#utility.yul\":1978:1982   */\n      0x00\n        /* \"#utility.yul\":2016:2019   */\n      0x80\n        /* \"#utility.yul\":2005:2014   */\n      dup3\n        /* \"#utility.yul\":2001:2020   */\n      add\n        /* \"#utility.yul\":1993:2020   */\n      swap1\n      pop\n        /* \"#utility.yul\":2030:2101   */\n      tag_440\n        /* \"#utility.yul\":2098:2099   */\n      0x00\n        /* \"#utility.yul\":2087:2096   */\n      dup4\n        /* \"#utility.yul\":2083:2100   */\n      add\n        /* \"#utility.yul\":2074:2080   */\n      dup8\n        /* \"#utility.yul\":2030:2101   */\n      tag_370\n      jump\t// in\n    tag_440:\n        /* \"#utility.yul\":2111:2183   */\n      tag_441\n        /* \"#utility.yul\":2179:2181   */\n      0x20\n        /* \"#utility.yul\":2168:2177   */\n      dup4\n        /* \"#utility.yul\":2164:2182   */\n      add\n        /* \"#utility.yul\":2155:2161   */\n      dup7\n        /* \"#utility.yul\":2111:2183   */\n      tag_370\n      jump\t// in\n    tag_441:\n        /* \"#utility.yul\":2193:2265   */\n      tag_442\n        /* \"#utility.yul\":2261:2263   */\n      0x40\n        /* \"#utility.yul\":2250:2259   */\n      dup4\n        /* \"#utility.yul\":2246:2264   */\n      add\n        /* \"#utility.yul\":2237:2243   */\n      dup6\n        /* \"#utility.yul\":2193:2265   */\n      tag_370\n      jump\t// in\n    tag_442:\n        /* \"#utility.yul\":2275:2347   */\n      tag_443\n        /* \"#utility.yul\":2343:2345   */\n      0x60\n        /* \"#utility.yul\":2332:2341   */\n      dup4\n        /* \"#utility.yul\":2328:2346   */\n      add\n        /* \"#utility.yul\":2319:2325   */\n      dup5\n        /* \"#utility.yul\":2275:2347   */\n      tag_370\n      jump\t// in\n    tag_443:\n        /* \"#utility.yul\":1801:2354   */\n      swap6\n      swap5\n      pop\n      pop\n      pop\n      pop\n      pop\n      jump\t// out\n        /* \"#utility.yul\":2360:2689   */\n    tag_37:\n        /* \"#utility.yul\":2419:2425   */\n      0x00\n        /* \"#utility.yul\":2468:2470   */\n      0x20\n        /* \"#utility.yul\":2456:2465   */\n      dup3\n        /* \"#utility.yul\":2447:2454   */\n      dup5\n        /* \"#utility.yul\":2443:2466   */\n      sub\n        /* \"#utility.yul\":2439:2471   */\n      slt\n        /* \"#utility.yul\":2436:2555   */\n      iszero\n      tag_445\n      jumpi\n        /* \"#utility.yul\":2474:2553   */\n      tag_446\n      tag_361\n      jump\t// in\n    tag_446:\n        /* \"#utility.yul\":2436:2555   */\n    tag_445:\n        /* \"#utility.yul\":2594:2595   */\n      0x00\n        /* \"#utility.yul\":2619:2672   */\n      tag_447\n        /* \"#utility.yul\":2664:2671   */\n      dup5\n        /* \"#utility.yul\":2655:2661   */\n      dup3\n        /* \"#utility.yul\":2644:2653   */\n      dup6\n        /* \"#utility.yul\":2640:2662   */\n      add\n        /* \"#utility.yul\":2619:2672   */\n      tag_365\n      jump\t// in\n    tag_447:\n        /* \"#utility.yul\":2609:2672   */\n      swap2\n      pop\n        /* \"#utility.yul\":2565:2682   */\n      pop\n        /* \"#utility.yul\":2360:2689   */\n      swap3\n      swap2\n      pop\n      pop\n      jump\t// out\n        /* \"#utility.yul\":2695:2813   */\n    tag_371:\n        /* \"#utility.yul\":2782:2806   */\n      tag_449\n        /* \"#utility.yul\":2800:2805   */\n      dup2\n        /* \"#utility.yul\":2782:2806   */\n      tag_367\n      jump\t// in\n    tag_449:\n        /* \"#utility.yul\":2777:2780   */\n      dup3\n        /* \"#utility.yul\":2770:2807   */\n      mstore\n        /* \"#utility.yul\":2695:2813   */\n      pop\n      pop\n      jump\t// out\n        /* \"#utility.yul\":2819:2909   */\n    tag_372:\n        /* \"#utility.yul\":2853:2860   */\n      0x00\n        /* \"#utility.yul\":2896:2901   */\n      dup2\n        /* \"#utility.yul\":2889:2902   */\n      iszero\n        /* \"#utility.yul\":2882:2903   */\n      iszero\n        /* \"#utility.yul\":2871:2903   */\n      swap1\n      pop\n        /* \"#utility.yul\":2819:2909   */\n      swap2\n      swap1\n      pop\n      jump\t// out\n        /* \"#utility.yul\":2915:3024   */\n    tag_373:\n        /* \"#utility.yul\":2996:3017   */\n      tag_452\n        /* \"#utility.yul\":3011:3016   */\n      dup2\n        /* \"#utility.yul\":2996:3017   */\n      tag_372\n      jump\t// in\n    tag_452:\n        /* \"#utility.yul\":2991:2994   */\n      dup3\n        /* \"#utility.yul\":2984:3018   */\n      mstore\n        /* \"#utility.yul\":2915:3024   */\n      pop\n      pop\n      jump\t// out\n        /* \"#utility.yul\":3030:3904   */\n    tag_43:\n        /* \"#utility.yul\":3285:3289   */\n      0x00\n        /* \"#utility.yul\":3323:3326   */\n      0xe0\n        /* \"#utility.yul\":3312:3321   */\n      dup3\n        /* \"#utility.yul\":3308:3327   */\n      add\n        /* \"#utility.yul\":3300:3327   */\n      swap1\n      pop\n        /* \"#utility.yul\":3337:3408   */\n      tag_454\n        /* \"#utility.yul\":3405:3406   */\n      0x00\n        /* \"#utility.yul\":3394:3403   */\n      dup4\n        /* \"#utility.yul\":3390:3407   */\n      add\n        /* \"#utility.yul\":3381:3387   */\n      dup11\n        /* \"#utility.yul\":3337:3408   */\n      tag_371\n      jump\t// in\n    tag_454:\n        /* \"#utility.yul\":3418:3490   */\n      tag_455\n        /* \"#utility.yul\":3486:3488   */\n      0x20\n        /* \"#utility.yul\":3475:3484   */\n      dup4\n        /* \"#utility.yul\":3471:3489   */\n      add\n        /* \"#utility.yul\":3462:3468   */\n      dup10\n        /* \"#utility.yul\":3418:3490   */\n      tag_371\n      jump\t// in\n    tag_455:\n        /* \"#utility.yul\":3500:3572   */\n      tag_456\n        /* \"#utility.yul\":3568:3570   */\n      0x40\n        /* \"#utility.yul\":3557:3566   */\n      dup4\n        /* \"#utility.yul\":3553:3571   */\n      add\n        /* \"#utility.yul\":3544:3550   */\n      dup9\n        /* \"#utility.yul\":3500:3572   */\n      tag_370\n      jump\t// in\n    tag_456:\n        /* \"#utility.yul\":3582:3654   */\n      tag_457\n        /* \"#utility.yul\":3650:3652   */\n      0x60\n        /* \"#utility.yul\":3639:3648   */\n      dup4\n        /* \"#utility.yul\":3635:3653   */\n      add\n        /* \"#utility.yul\":3626:3632   */\n      dup8\n        /* \"#utility.yul\":3582:3654   */\n      tag_370\n      jump\t// in\n    tag_457:\n        /* \"#utility.yul\":3664:3737   */\n      tag_458\n        /* \"#utility.yul\":3732:3735   */\n      0x80\n        /* \"#utility.yul\":3721:3730   */\n      dup4\n        /* \"#utility.yul\":3717:3736   */\n      add\n        /* \"#utility.yul\":3708:3714   */\n      dup7\n        /* \"#utility.yul\":3664:3737   */\n      tag_370\n      jump\t// in\n    tag_458:\n        /* \"#utility.yul\":3747:3820   */\n      tag_459\n        /* \"#utility.yul\":3815:3818   */\n      0xa0\n        /* \"#utility.yul\":3804:3813   */\n      dup4\n        /* \"#utility.yul\":3800:3819   */\n      add\n        /* \"#utility.yul\":3791:3797   */\n      dup6\n        /* \"#utility.yul\":3747:3820   */\n      tag_370\n      jump\t// in\n    tag_459:\n        /* \"#utility.yul\":3830:3897   */\n      tag_460\n        /* \"#utility.yul\":3892:3895   */\n      0xc0\n        /* \"#utility.yul\":3881:3890   */\n      dup4\n        /* \"#utility.yul\":3877:3896   */\n      add\n        /* \"#utility.yul\":3868:3874   */\n      dup5\n        /* \"#utility.yul\":3830:3897   */\n      tag_373\n      jump\t// in\n    tag_460:\n        /* \"#utility.yul\":3030:3904   */\n      swap9\n      swap8\n      pop\n      pop\n      pop\n      pop\n      pop\n      pop\n      pop\n      pop\n      jump\t// out\n        /* \"#utility.yul\":3910:4132   */\n    tag_47:\n        /* \"#utility.yul\":4003:4007   */\n      0x00\n        /* \"#utility.yul\":4041:4043   */\n      0x20\n        /* \"#utility.yul\":4030:4039   */\n      dup3\n        /* \"#utility.yul\":4026:4044   */\n      add\n        /* \"#utility.yul\":4018:4044   */\n      swap1\n      pop\n        /* \"#utility.yul\":4054:4125   */\n      tag_462\n        /* \"#utility.yul\":4122:4123   */\n      0x00\n        /* \"#utility.yul\":4111:4120   */\n      dup4\n        /* \"#utility.yul\":4107:4124   */\n      add\n        /* \"#utility.yul\":4098:4104   */\n      dup5\n        /* \"#utility.yul\":4054:4125   */\n      tag_370\n      jump\t// in\n    tag_462:\n        /* \"#utility.yul\":3910:4132   */\n      swap3\n      swap2\n      pop\n      pop\n      jump\t// out\n        /* \"#utility.yul\":4138:4612   */\n    tag_52:\n        /* \"#utility.yul\":4206:4212   */\n      0x00\n        /* \"#utility.yul\":4214:4220   */\n      0x00\n        /* \"#utility.yul\":4263:4265   */\n      0x40\n        /* \"#utility.yul\":4251:4260   */\n      dup4\n        /* \"#utility.yul\":4242:4249   */\n      dup6\n        /* \"#utility.yul\":4238:4261   */\n      sub\n        /* \"#utility.yul\":4234:4266   */\n      slt\n        /* \"#utility.yul\":4231:4350   */\n      iszero\n      tag_464\n      jumpi\n        /* \"#utility.yul\":4269:4348   */\n      tag_465\n      tag_361\n      jump\t// in\n    tag_465:\n        /* \"#utility.yul\":4231:4350   */\n    tag_464:\n        /* \"#utility.yul\":4389:4390   */\n      0x00\n        /* \"#utility.yul\":4414:4467   */\n      tag_466\n        /* \"#utility.yul\":4459:4466   */\n      dup6\n        /* \"#utility.yul\":4450:4456   */\n      dup3\n        /* \"#utility.yul\":4439:4448   */\n      dup7\n        /* \"#utility.yul\":4435:4457   */\n      add\n        /* \"#utility.yul\":4414:4467   */\n      tag_365\n      jump\t// in\n    tag_466:\n        /* \"#utility.yul\":4404:4467   */\n      swap3\n      pop\n        /* \"#utility.yul\":4360:4477   */\n      pop\n        /* \"#utility.yul\":4516:4518   */\n      0x20\n        /* \"#utility.yul\":4542:4595   */\n      tag_467\n        /* \"#utility.yul\":4587:4594   */\n      dup6\n        /* \"#utility.yul\":4578:4584   */\n      dup3\n        /* \"#utility.yul\":4567:4576   */\n      dup7\n        /* \"#utility.yul\":4563:4585   */\n      add\n        /* \"#utility.yul\":4542:4595   */\n      tag_365\n      jump\t// in\n    tag_467:\n        /* \"#utility.yul\":4532:4595   */\n      swap2\n      pop\n        /* \"#utility.yul\":4487:4605   */\n      pop\n        /* \"#utility.yul\":4138:4612   */\n      swap3\n      pop\n      swap3\n      swap1\n      pop\n      jump\t// out\n        /* \"#utility.yul\":4618:4828   */\n    tag_60:\n        /* \"#utility.yul\":4705:4709   */\n      0x00\n        /* \"#utility.yul\":4743:4745   */\n      0x20\n        /* \"#utility.yul\":4732:4741   */\n      dup3\n        /* \"#utility.yul\":4728:4746   */\n      add\n        /* \"#utility.yul\":4720:4746   */\n      swap1\n      pop\n        /* \"#utility.yul\":4756:4821   */\n      tag_469\n        /* \"#utility.yul\":4818:4819   */\n      0x00\n        /* \"#utility.yul\":4807:4816   */\n      dup4\n        /* \"#utility.yul\":4803:4820   */\n      add\n        /* \"#utility.yul\":4794:4800   */\n      dup5\n        /* \"#utility.yul\":4756:4821   */\n      tag_373\n      jump\t// in\n    tag_469:\n        /* \"#utility.yul\":4618:4828   */\n      swap3\n      swap2\n      pop\n      pop\n      jump\t// out\n        /* \"#utility.yul\":4834:5745   */\n    tag_73:\n        /* \"#utility.yul\":4929:4935   */\n      0x00\n        /* \"#utility.yul\":4937:4943   */\n      0x00\n        /* \"#utility.yul\":4945:4951   */\n      0x00\n        /* \"#utility.yul\":4953:4959   */\n      0x00\n        /* \"#utility.yul\":4961:4967   */\n      0x00\n        /* \"#utility.yul\":5010:5013   */\n      0xa0\n        /* \"#utility.yul\":4998:5007   */\n      dup7\n        /* \"#utility.yul\":4989:4996   */\n      dup9\n        /* \"#utility.yul\":4985:5008   */\n      sub\n        /* \"#utility.yul\":4981:5014   */\n      slt\n        /* \"#utility.yul\":4978:5098   */\n      iszero\n      tag_471\n      jumpi\n        /* \"#utility.yul\":5017:5096   */\n      tag_472\n      tag_361\n      jump\t// in\n    tag_472:\n        /* \"#utility.yul\":4978:5098   */\n    tag_471:\n        /* \"#utility.yul\":5137:5138   */\n      0x00\n        /* \"#utility.yul\":5162:5215   */\n      tag_473\n        /* \"#utility.yul\":5207:5214   */\n      dup9\n        /* \"#utility.yul\":5198:5204   */\n      dup3\n        /* \"#utility.yul\":5187:5196   */\n      dup10\n        /* \"#utility.yul\":5183:5205   */\n      add\n        /* \"#utility.yul\":5162:5215   */\n      tag_369\n      jump\t// in\n    tag_473:\n        /* \"#utility.yul\":5152:5215   */\n      swap6\n      pop\n        /* \"#utility.yul\":5108:5225   */\n      pop\n        /* \"#utility.yul\":5264:5266   */\n      0x20\n        /* \"#utility.yul\":5290:5343   */\n      tag_474\n        /* \"#utility.yul\":5335:5342   */\n      dup9\n        /* \"#utility.yul\":5326:5332   */\n      dup3\n        /* \"#utility.yul\":5315:5324   */\n      dup10\n        /* \"#utility.yul\":5311:5333   */\n      add\n        /* \"#utility.yul\":5290:5343   */\n      tag_369\n      jump\t// in\n    tag_474:\n        /* \"#utility.yul\":5280:5343   */\n      swap5\n      pop\n        /* \"#utility.yul\":5235:5353   */\n      pop\n        /* \"#utility.yul\":5392:5394   */\n      0x40\n        /* \"#utility.yul\":5418:5471   */\n      tag_475\n        /* \"#utility.yul\":5463:5470   */\n      dup9\n        /* \"#utility.yul\":5454:5460   */\n      dup3\n        /* \"#utility.yul\":5443:5452   */\n      dup10\n        /* \"#utility.yul\":5439:5461   */\n      add\n        /* \"#utility.yul\":5418:5471   */\n      tag_365\n      jump\t// in\n    tag_475:\n        /* \"#utility.yul\":5408:5471   */\n      swap4\n      pop\n        /* \"#utility.yul\":5363:5481   */\n      pop\n        /* \"#utility.yul\":5520:5522   */\n      0x60\n        /* \"#utility.yul\":5546:5599   */\n      tag_476\n        /* \"#utility.yul\":5591:5598   */\n      dup9\n        /* \"#utility.yul\":5582:5588   */\n      dup3\n        /* \"#utility.yul\":5571:5580   */\n      dup10\n        /* \"#utility.yul\":5567:5589   */\n      add\n        /* \"#utility.yul\":5546:5599   */\n      tag_365\n      jump\t// in\n    tag_476:\n        /* \"#utility.yul\":5536:5599   */\n      swap3\n      pop\n        /* \"#utility.yul\":5491:5609   */\n      pop\n        /* \"#utility.yul\":5648:5651   */\n      0x80\n        /* \"#utility.yul\":5675:5728   */\n      tag_477\n        /* \"#utility.yul\":5720:5727   */\n      dup9\n        /* \"#utility.yul\":5711:5717   */\n      dup3\n        /* \"#utility.yul\":5700:5709   */\n      dup10\n        /* \"#utility.yul\":5696:5718   */\n      add\n        /* \"#utility.yul\":5675:5728   */\n      tag_365\n      jump\t// in\n    tag_477:\n        /* \"#utility.yul\":5665:5728   */\n      swap2\n      pop\n        /* \"#utility.yul\":5619:5738   */\n      pop\n        /* \"#utility.yul\":4834:5745   */\n      swap3\n      swap6\n      pop\n      swap3\n      swap6\n      swap1\n      swap4\n      pop\n      jump\t// out\n        /* \"#utility.yul\":5751:5973   */\n    tag_82:\n        /* \"#utility.yul\":5844:5848   */\n      0x00\n        /* \"#utility.yul\":5882:5884   */\n      0x20\n        /* \"#utility.yul\":5871:5880   */\n      dup3\n        /* \"#utility.yul\":5867:5885   */\n      add\n        /* \"#utility.yul\":5859:5885   */\n      swap1\n      pop\n        /* \"#utility.yul\":5895:5966   */\n      tag_479\n        /* \"#utility.yul\":5963:5964   */\n      0x00\n        /* \"#utility.yul\":5952:5961   */\n      dup4\n        /* \"#utility.yul\":5948:5965   */\n      add\n        /* \"#utility.yul\":5939:5945   */\n      dup5\n        /* \"#utility.yul\":5895:5966   */\n      tag_371\n      jump\t// in\n    tag_479:\n        /* \"#utility.yul\":5751:5973   */\n      swap3\n      swap2\n      pop\n      pop\n      jump\t// out\n        /* \"#utility.yul\":5979:6039   */\n    tag_374:\n        /* \"#utility.yul\":6007:6010   */\n      0x00\n        /* \"#utility.yul\":6028:6033   */\n      dup2\n        /* \"#utility.yul\":6021:6033   */\n      swap1\n      pop\n        /* \"#utility.yul\":5979:6039   */\n      swap2\n      swap1\n      pop\n      jump\t// out\n        /* \"#utility.yul\":6045:6187   */\n    tag_375:\n        /* \"#utility.yul\":6095:6104   */\n      0x00\n        /* \"#utility.yul\":6128:6181   */\n      tag_482\n        /* \"#utility.yul\":6146:6180   */\n      tag_483\n        /* \"#utility.yul\":6155:6179   */\n      tag_484\n        /* \"#utility.yul\":6173:6178   */\n      dup5\n        /* \"#utility.yul\":6155:6179   */\n      tag_366\n      jump\t// in\n    tag_484:\n        /* \"#utility.yul\":6146:6180   */\n      tag_374\n      jump\t// in\n    tag_483:\n        /* \"#utility.yul\":6128:6181   */\n      tag_366\n      jump\t// in\n    tag_482:\n        /* \"#utility.yul\":6115:6181   */\n      swap1\n      pop\n        /* \"#utility.yul\":6045:6187   */\n      swap2\n      swap1\n      pop\n      jump\t// out\n        /* \"#utility.yul\":6193:6319   */\n    tag_376:\n        /* \"#utility.yul\":6243:6252   */\n      0x00\n        /* \"#utility.yul\":6276:6313   */\n      tag_486\n        /* \"#utility.yul\":6307:6312   */\n      dup3\n        /* \"#utility.yul\":6276:6313   */\n      tag_375\n      jump\t// in\n    tag_486:\n        /* \"#utility.yul\":6263:6313   */\n      swap1\n      pop\n        /* \"#utility.yul\":6193:6319   */\n      swap2\n      swap1\n      pop\n      jump\t// out\n        /* \"#utility.yul\":6325:6465   */\n    tag_377:\n        /* \"#utility.yul\":6389:6398   */\n      0x00\n        /* \"#utility.yul\":6422:6459   */\n      tag_488\n        /* \"#utility.yul\":6453:6458   */\n      dup3\n        /* \"#utility.yul\":6422:6459   */\n      tag_376\n      jump\t// in\n    tag_488:\n        /* \"#utility.yul\":6409:6459   */\n      swap1\n      pop\n        /* \"#utility.yul\":6325:6465   */\n      swap2\n      swap1\n      pop\n      jump\t// out\n        /* \"#utility.yul\":6471:6630   */\n    tag_378:\n        /* \"#utility.yul\":6572:6623   */\n      tag_490\n        /* \"#utility.yul\":6617:6622   */\n      dup2\n        /* \"#utility.yul\":6572:6623   */\n      tag_377\n      jump\t// in\n    tag_490:\n        /* \"#utility.yul\":6567:6570   */\n      dup3\n        /* \"#utility.yul\":6560:6624   */\n      mstore\n        /* \"#utility.yul\":6471:6630   */\n      pop\n      pop\n      jump\t// out\n        /* \"#utility.yul\":6636:7788   */\n    tag_94:\n        /* \"#utility.yul\":6975:6979   */\n      0x00\n        /* \"#utility.yul\":7013:7016   */\n      0x0120\n        /* \"#utility.yul\":7002:7011   */\n      dup3\n        /* \"#utility.yul\":6998:7017   */\n      add\n        /* \"#utility.yul\":6990:7017   */\n      swap1\n      pop\n        /* \"#utility.yul\":7027:7112   */\n      tag_492\n        /* \"#utility.yul\":7109:7110   */\n      0x00\n        /* \"#utility.yul\":7098:7107   */\n      dup4\n        /* \"#utility.yul\":7094:7111   */\n      add\n        /* \"#utility.yul\":7085:7091   */\n      dup13\n        /* \"#utility.yul\":7027:7112   */\n      tag_378\n      jump\t// in\n    tag_492:\n        /* \"#utility.yul\":7122:7208   */\n      tag_493\n        /* \"#utility.yul\":7204:7206   */\n      0x20\n        /* \"#utility.yul\":7193:7202   */\n      dup4\n        /* \"#utility.yul\":7189:7207   */\n      add\n        /* \"#utility.yul\":7180:7186   */\n      dup12\n        /* \"#utility.yul\":7122:7208   */\n      tag_378\n      jump\t// in\n    tag_493:\n        /* \"#utility.yul\":7218:7290   */\n      tag_494\n        /* \"#utility.yul\":7286:7288   */\n      0x40\n        /* \"#utility.yul\":7275:7284   */\n      dup4\n        /* \"#utility.yul\":7271:7289   */\n      add\n        /* \"#utility.yul\":7262:7268   */\n      dup11\n        /* \"#utility.yul\":7218:7290   */\n      tag_370\n      jump\t// in\n    tag_494:\n        /* \"#utility.yul\":7300:7372   */\n      tag_495\n        /* \"#utility.yul\":7368:7370   */\n      0x60\n        /* \"#utility.yul\":7357:7366   */\n      dup4\n        /* \"#utility.yul\":7353:7371   */\n      add\n        /* \"#utility.yul\":7344:7350   */\n      dup10\n        /* \"#utility.yul\":7300:7372   */\n      tag_370\n      jump\t// in\n    tag_495:\n        /* \"#utility.yul\":7382:7455   */\n      tag_496\n        /* \"#utility.yul\":7450:7453   */\n      0x80\n        /* \"#utility.yul\":7439:7448   */\n      dup4\n        /* \"#utility.yul\":7435:7454   */\n      add\n        /* \"#utility.yul\":7426:7432   */\n      dup9\n        /* \"#utility.yul\":7382:7455   */\n      tag_370\n      jump\t// in\n    tag_496:\n        /* \"#utility.yul\":7465:7538   */\n      tag_497\n        /* \"#utility.yul\":7533:7536   */\n      0xa0\n        /* \"#utility.yul\":7522:7531   */\n      dup4\n        /* \"#utility.yul\":7518:7537   */\n      add\n        /* \"#utility.yul\":7509:7515   */\n      dup8\n        /* \"#utility.yul\":7465:7538   */\n      tag_370\n      jump\t// in\n    tag_497:\n        /* \"#utility.yul\":7548:7621   */\n      tag_498\n        /* \"#utility.yul\":7616:7619   */\n      0xc0\n        /* \"#utility.yul\":7605:7614   */\n      dup4\n        /* \"#utility.yul\":7601:7620   */\n      add\n        /* \"#utility.yul\":7592:7598   */\n      dup7\n        /* \"#utility.yul\":7548:7621   */\n      tag_370\n      jump\t// in\n    tag_498:\n        /* \"#utility.yul\":7631:7704   */\n      tag_499\n        /* \"#utility.yul\":7699:7702   */\n      0xe0\n        /* \"#utility.yul\":7688:7697   */\n      dup4\n        /* \"#utility.yul\":7684:7703   */\n      add\n        /* \"#utility.yul\":7675:7681   */\n      dup6\n        /* \"#utility.yul\":7631:7704   */\n      tag_370\n      jump\t// in\n    tag_499:\n        /* \"#utility.yul\":7714:7781   */\n      tag_500\n        /* \"#utility.yul\":7776:7779   */\n      0x0100\n        /* \"#utility.yul\":7765:7774   */\n      dup4\n        /* \"#utility.yul\":7761:7780   */\n      add\n        /* \"#utility.yul\":7752:7758   */\n      dup5\n        /* \"#utility.yul\":7714:7781   */\n      tag_373\n      jump\t// in\n    tag_500:\n        /* \"#utility.yul\":6636:7788   */\n      swap11\n      swap10\n      pop\n      pop\n      pop\n      pop\n      pop\n      pop\n      pop\n      pop\n      pop\n      pop\n      jump\t// out\n        /* \"#utility.yul\":7794:7910   */\n    tag_379:\n        /* \"#utility.yul\":7864:7885   */\n      tag_502\n        /* \"#utility.yul\":7879:7884   */\n      dup2\n        /* \"#utility.yul\":7864:7885   */\n      tag_372\n      jump\t// in\n    tag_502:\n        /* \"#utility.yul\":7857:7862   */\n      dup2\n        /* \"#utility.yul\":7854:7886   */\n      eq\n        /* \"#utility.yul\":7844:7904   */\n      tag_503\n      jumpi\n        /* \"#utility.yul\":7900:7901   */\n      0x00\n        /* \"#utility.yul\":7897:7898   */\n      0x00\n        /* \"#utility.yul\":7890:7902   */\n      revert\n        /* \"#utility.yul\":7844:7904   */\n    tag_503:\n        /* \"#utility.yul\":7794:7910   */\n      pop\n      jump\t// out\n        /* \"#utility.yul\":7916:8049   */\n    tag_380:\n        /* \"#utility.yul\":7959:7964   */\n      0x00\n        /* \"#utility.yul\":7997:8003   */\n      dup2\n        /* \"#utility.yul\":7984:8004   */\n      calldataload\n        /* \"#utility.yul\":7975:8004   */\n      swap1\n      pop\n        /* \"#utility.yul\":8013:8043   */\n      tag_505\n        /* \"#utility.yul\":8037:8042   */\n      dup2\n        /* \"#utility.yul\":8013:8043   */\n      tag_379\n      jump\t// in\n    tag_505:\n        /* \"#utility.yul\":7916:8049   */\n      swap3\n      swap2\n      pop\n      pop\n      jump\t// out\n        /* \"#utility.yul\":8055:8523   */\n    tag_100:\n        /* \"#utility.yul\":8120:8126   */\n      0x00\n        /* \"#utility.yul\":8128:8134   */\n      0x00\n        /* \"#utility.yul\":8177:8179   */\n      0x40\n        /* \"#utility.yul\":8165:8174   */\n      dup4\n        /* \"#utility.yul\":8156:8163   */\n      dup6\n        /* \"#utility.yul\":8152:8175   */\n      sub\n        /* \"#utility.yul\":8148:8180   */\n      slt\n        /* \"#utility.yul\":8145:8264   */\n      iszero\n      tag_507\n      jumpi\n        /* \"#utility.yul\":8183:8262   */\n      tag_508\n      tag_361\n      jump\t// in\n    tag_508:\n        /* \"#utility.yul\":8145:8264   */\n    tag_507:\n        /* \"#utility.yul\":8303:8304   */\n      0x00\n        /* \"#utility.yul\":8328:8381   */\n      tag_509\n        /* \"#utility.yul\":8373:8380   */\n      dup6\n        /* \"#utility.yul\":8364:8370   */\n      dup3\n        /* \"#utility.yul\":8353:8362   */\n      dup7\n        /* \"#utility.yul\":8349:8371   */\n      add\n        /* \"#utility.yul\":8328:8381   */\n      tag_365\n      jump\t// in\n    tag_509:\n        /* \"#utility.yul\":8318:8381   */\n      swap3\n      pop\n        /* \"#utility.yul\":8274:8391   */\n      pop\n        /* \"#utility.yul\":8430:8432   */\n      0x20\n        /* \"#utility.yul\":8456:8506   */\n      tag_510\n        /* \"#utility.yul\":8498:8505   */\n      dup6\n        /* \"#utility.yul\":8489:8495   */\n      dup3\n        /* \"#utility.yul\":8478:8487   */\n      dup7\n        /* \"#utility.yul\":8474:8496   */\n      add\n        /* \"#utility.yul\":8456:8506   */\n      tag_380\n      jump\t// in\n    tag_510:\n        /* \"#utility.yul\":8446:8506   */\n      swap2\n      pop\n        /* \"#utility.yul\":8401:8516   */\n      pop\n        /* \"#utility.yul\":8055:8523   */\n      swap3\n      pop\n      swap3\n      swap1\n      pop\n      jump\t// out\n        /* \"#utility.yul\":8529:8858   */\n    tag_108:\n        /* \"#utility.yul\":8588:8594   */\n      0x00\n        /* \"#utility.yul\":8637:8639   */\n      0x20\n        /* \"#utility.yul\":8625:8634   */\n      dup3\n        /* \"#utility.yul\":8616:8623   */\n      dup5\n        /* \"#utility.yul\":8612:8635   */\n      sub\n        /* \"#utility.yul\":8608:8640   */\n      slt\n        /* \"#utility.yul\":8605:8724   */\n      iszero\n      tag_512\n      jumpi\n        /* \"#utility.yul\":8643:8722   */\n      tag_513\n      tag_361\n      jump\t// in\n    tag_513:\n        /* \"#utility.yul\":8605:8724   */\n    tag_512:\n        /* \"#utility.yul\":8763:8764   */\n      0x00\n        /* \"#utility.yul\":8788:8841   */\n      tag_514\n        /* \"#utility.yul\":8833:8840   */\n      dup5\n        /* \"#utility.yul\":8824:8830   */\n      dup3\n        /* \"#utility.yul\":8813:8822   */\n      dup6\n        /* \"#utility.yul\":8809:8831   */\n      add\n        /* \"#utility.yul\":8788:8841   */\n      tag_369\n      jump\t// in\n    tag_514:\n        /* \"#utility.yul\":8778:8841   */\n      swap2\n      pop\n        /* \"#utility.yul\":8734:8851   */\n      pop\n        /* \"#utility.yul\":8529:8858   */\n      swap3\n      swap2\n      pop\n      pop\n      jump\t// out\n        /* \"#utility.yul\":8864:9033   */\n    tag_381:\n        /* \"#utility.yul\":8948:8959   */\n      0x00\n        /* \"#utility.yul\":8982:8988   */\n      dup3\n        /* \"#utility.yul\":8977:8980   */\n      dup3\n        /* \"#utility.yul\":8970:8989   */\n      mstore\n        /* \"#utility.yul\":9022:9026   */\n      0x20\n        /* \"#utility.yul\":9017:9020   */\n      dup3\n        /* \"#utility.yul\":9013:9027   */\n      add\n        /* \"#utility.yul\":8998:9027   */\n      swap1\n      pop\n        /* \"#utility.yul\":8864:9033   */\n      swap3\n      swap2\n      pop\n      pop\n      jump\t// out\n        /* \"#utility.yul\":9039:9208   */\n    tag_382:\n        /* \"#utility.yul\":9179:9200   */\n      0x506f6f6c20646f6573206e6f7420657869737400000000000000000000000000\n        /* \"#utility.yul\":9175:9176   */\n      0x00\n        /* \"#utility.yul\":9167:9173   */\n      dup3\n        /* \"#utility.yul\":9163:9177   */\n      add\n        /* \"#utility.yul\":9156:9201   */\n      mstore\n        /* \"#utility.yul\":9039:9208   */\n      pop\n      jump\t// out\n        /* \"#utility.yul\":9214:9580   */\n    tag_383:\n        /* \"#utility.yul\":9356:9359   */\n      0x00\n        /* \"#utility.yul\":9377:9444   */\n      tag_518\n        /* \"#utility.yul\":9441:9443   */\n      0x13\n        /* \"#utility.yul\":9436:9439   */\n      dup4\n        /* \"#utility.yul\":9377:9444   */\n      tag_381\n      jump\t// in\n    tag_518:\n        /* \"#utility.yul\":9370:9444   */\n      swap2\n      pop\n        /* \"#utility.yul\":9453:9546   */\n      tag_519\n        /* \"#utility.yul\":9542:9545   */\n      dup3\n        /* \"#utility.yul\":9453:9546   */\n      tag_382\n      jump\t// in\n    tag_519:\n        /* \"#utility.yul\":9571:9573   */\n      0x20\n        /* \"#utility.yul\":9566:9569   */\n      dup3\n        /* \"#utility.yul\":9562:9574   */\n      add\n        /* \"#utility.yul\":9555:9574   */\n      swap1\n      pop\n        /* \"#utility.yul\":9214:9580   */\n      swap2\n      swap1\n      pop\n      jump\t// out\n        /* \"#utility.yul\":9586:10005   */\n    tag_116:\n        /* \"#utility.yul\":9752:9756   */\n      0x00\n        /* \"#utility.yul\":9790:9792   */\n      0x20\n        /* \"#utility.yul\":9779:9788   */\n      dup3\n        /* \"#utility.yul\":9775:9793   */\n      add\n        /* \"#utility.yul\":9767:9793   */\n      swap1\n      pop\n        /* \"#utility.yul\":9839:9848   */\n      dup2\n        /* \"#utility.yul\":9833:9837   */\n      dup2\n        /* \"#utility.yul\":9829:9849   */\n      sub\n        /* \"#utility.yul\":9825:9826   */\n      0x00\n        /* \"#utility.yul\":9814:9823   */\n      dup4\n        /* \"#utility.yul\":9810:9827   */\n      add\n        /* \"#utility.yul\":9803:9850   */\n      mstore\n        /* \"#utility.yul\":9867:9998   */\n      tag_521\n        /* \"#utility.yul\":9993:9997   */\n      dup2\n        /* \"#utility.yul\":9867:9998   */\n      tag_383\n      jump\t// in\n    tag_521:\n        /* \"#utility.yul\":9859:9998   */\n      swap1\n      pop\n        /* \"#utility.yul\":9586:10005   */\n      swap2\n      swap1\n      pop\n      jump\t// out\n        /* \"#utility.yul\":10011:10191   */\n    tag_384:\n        /* \"#utility.yul\":10059:10136   */\n      0x4e487b7100000000000000000000000000000000000000000000000000000000\n        /* \"#utility.yul\":10056:10057   */\n      0x00\n        /* \"#utility.yul\":10049:10137   */\n      mstore\n        /* \"#utility.yul\":10156:10160   */\n      0x11\n        /* \"#utility.yul\":10153:10154   */\n      0x04\n        /* \"#utility.yul\":10146:10161   */\n      mstore\n        /* \"#utility.yul\":10180:10184   */\n      0x24\n        /* \"#utility.yul\":10177:10178   */\n      0x00\n        /* \"#utility.yul\":10170:10185   */\n      revert\n        /* \"#utility.yul\":10197:10388   */\n    tag_120:\n        /* \"#utility.yul\":10237:10240   */\n      0x00\n        /* \"#utility.yul\":10256:10276   */\n      tag_524\n        /* \"#utility.yul\":10274:10275   */\n      dup3\n        /* \"#utility.yul\":10256:10276   */\n      tag_363\n      jump\t// in\n    tag_524:\n        /* \"#utility.yul\":10251:10276   */\n      swap2\n      pop\n        /* \"#utility.yul\":10290:10310   */\n      tag_525\n        /* \"#utility.yul\":10308:10309   */\n      dup4\n        /* \"#utility.yul\":10290:10310   */\n      tag_363\n      jump\t// in\n    tag_525:\n        /* \"#utility.yul\":10285:10310   */\n      swap3\n      pop\n        /* \"#utility.yul\":10333:10334   */\n      dup3\n        /* \"#utility.yul\":10330:10331   */\n      dup3\n        /* \"#utility.yul\":10326:10335   */\n      add\n        /* \"#utility.yul\":10319:10335   */\n      swap1\n      pop\n        /* \"#utility.yul\":10354:10357   */\n      dup1\n        /* \"#utility.yul\":10351:10352   */\n      dup3\n        /* \"#utility.yul\":10348:10358   */\n      gt\n        /* \"#utility.yul\":10345:10381   */\n      iszero\n      tag_526\n      jumpi\n        /* \"#utility.yul\":10361:10379   */\n      tag_527\n      tag_384\n      jump\t// in\n    tag_527:\n        /* \"#utility.yul\":10345:10381   */\n    tag_526:\n        /* \"#utility.yul\":10197:10388   */\n      swap3\n      swap2\n      pop\n      pop\n      jump\t// out\n        /* \"#utility.yul\":10394:10561   */\n    tag_385:\n        /* \"#utility.yul\":10534:10553   */\n      0x43616e6e6f742077697468647261772030000000000000000000000000000000\n        /* \"#utility.yul\":10530:10531   */\n      0x00\n        /* \"#utility.yul\":10522:10528   */\n      dup3\n        /* \"#utility.yul\":10518:10532   */\n      add\n        /* \"#utility.yul\":10511:10554   */\n      mstore\n        /* \"#utility.yul\":10394:10561   */\n      pop\n      jump\t// out\n        /* \"#utility.yul\":10567:10933   */\n    tag_386:\n        /* \"#utility.yul\":10709:10712   */\n      0x00\n        /* \"#utility.yul\":10730:10797   */\n      tag_530\n        /* \"#utility.yul\":10794:10796   */\n      0x11\n        /* \"#utility.yul\":10789:10792   */\n      dup4\n        /* \"#utility.yul\":10730:10797   */\n      tag_381\n      jump\t// in\n    tag_530:\n        /* \"#utility.yul\":10723:10797   */\n      swap2\n      pop\n        /* \"#utility.yul\":10806:10899   */\n      tag_531\n        /* \"#utility.yul\":10895:10898   */\n      dup3\n        /* \"#utility.yul\":10806:10899   */\n      tag_385\n      jump\t// in\n    tag_531:\n        /* \"#utility.yul\":10924:10926   */\n      0x20\n        /* \"#utility.yul\":10919:10922   */\n      dup3\n        /* \"#utility.yul\":10915:10927   */\n      add\n        /* \"#utility.yul\":10908:10927   */\n      swap1\n      pop\n        /* \"#utility.yul\":10567:10933   */\n      swap2\n      swap1\n      pop\n      jump\t// out\n        /* \"#utility.yul\":10939:11358   */\n    tag_160:\n        /* \"#utility.yul\":11105:11109   */\n      0x00\n        /* \"#utility.yul\":11143:11145   */\n      0x20\n        /* \"#utility.yul\":11132:11141   */\n      dup3\n        /* \"#utility.yul\":11128:11146   */\n      add\n        /* \"#utility.yul\":11120:11146   */\n      swap1\n      pop\n        /* \"#utility.yul\":11192:11201   */\n      dup2\n        /* \"#utility.yul\":11186:11190   */\n      dup2\n        /* \"#utility.yul\":11182:11202   */\n      sub\n        /* \"#utility.yul\":11178:11179   */\n      0x00\n        /* \"#utility.yul\":11167:11176   */\n      dup4\n        /* \"#utility.yul\":11163:11180   */\n      add\n        /* \"#utility.yul\":11156:11203   */\n      mstore\n        /* \"#utility.yul\":11220:11351   */\n      tag_533\n        /* \"#utility.yul\":11346:11350   */\n      dup2\n        /* \"#utility.yul\":11220:11351   */\n      tag_386\n      jump\t// in\n    tag_533:\n        /* \"#utility.yul\":11212:11351   */\n      swap1\n      pop\n        /* \"#utility.yul\":10939:11358   */\n      swap2\n      swap1\n      pop\n      jump\t// out\n        /* \"#utility.yul\":11364:11534   */\n    tag_387:\n        /* \"#utility.yul\":11504:11526   */\n      0x496e73756666696369656e742062616c616e6365000000000000000000000000\n        /* \"#utility.yul\":11500:11501   */\n      0x00\n        /* \"#utility.yul\":11492:11498   */\n      dup3\n        /* \"#utility.yul\":11488:11502   */\n      add\n        /* \"#utility.yul\":11481:11527   */\n      mstore\n        /* \"#utility.yul\":11364:11534   */\n      pop\n      jump\t// out\n        /* \"#utility.yul\":11540:11906   */\n    tag_388:\n        /* \"#utility.yul\":11682:11685   */\n      0x00\n        /* \"#utility.yul\":11703:11770   */\n      tag_536\n        /* \"#utility.yul\":11767:11769   */\n      0x14\n        /* \"#utility.yul\":11762:11765   */\n      dup4\n        /* \"#utility.yul\":11703:11770   */\n      tag_381\n      jump\t// in\n    tag_536:\n        /* \"#utility.yul\":11696:11770   */\n      swap2\n      pop\n        /* \"#utility.yul\":11779:11872   */\n      tag_537\n        /* \"#utility.yul\":11868:11871   */\n      dup3\n        /* \"#utility.yul\":11779:11872   */\n      tag_387\n      jump\t// in\n    tag_537:\n        /* \"#utility.yul\":11897:11899   */\n      0x20\n        /* \"#utility.yul\":11892:11895   */\n      dup3\n        /* \"#utility.yul\":11888:11900   */\n      add\n        /* \"#utility.yul\":11881:11900   */\n      swap1\n      pop\n        /* \"#utility.yul\":11540:11906   */\n      swap2\n      swap1\n      pop\n      jump\t// out\n        /* \"#utility.yul\":11912:12331   */\n    tag_163:\n        /* \"#utility.yul\":12078:12082   */\n      0x00\n        /* \"#utility.yul\":12116:12118   */\n      0x20\n        /* \"#utility.yul\":12105:12114   */\n      dup3\n        /* \"#utility.yul\":12101:12119   */\n      add\n        /* \"#utility.yul\":12093:12119   */\n      swap1\n      pop\n        /* \"#utility.yul\":12165:12174   */\n      dup2\n        /* \"#utility.yul\":12159:12163   */\n      dup2\n        /* \"#utility.yul\":12155:12175   */\n      sub\n        /* \"#utility.yul\":12151:12152   */\n      0x00\n        /* \"#utility.yul\":12140:12149   */\n      dup4\n        /* \"#utility.yul\":12136:12153   */\n      add\n        /* \"#utility.yul\":12129:12176   */\n      mstore\n        /* \"#utility.yul\":12193:12324   */\n      tag_539\n        /* \"#utility.yul\":12319:12323   */\n      dup2\n        /* \"#utility.yul\":12193:12324   */\n      tag_388\n      jump\t// in\n    tag_539:\n        /* \"#utility.yul\":12185:12324   */\n      swap1\n      pop\n        /* \"#utility.yul\":11912:12331   */\n      swap2\n      swap1\n      pop\n      jump\t// out\n        /* \"#utility.yul\":12337:12510   */\n    tag_389:\n        /* \"#utility.yul\":12477:12502   */\n      0x546f6b656e7320617265207374696c6c206c6f636b6564000000000000000000\n        /* \"#utility.yul\":12473:12474   */\n      0x00\n        /* \"#utility.yul\":12465:12471   */\n      dup3\n        /* \"#utility.yul\":12461:12475   */\n      add\n        /* \"#utility.yul\":12454:12503   */\n      mstore\n        /* \"#utility.yul\":12337:12510   */\n      pop\n      jump\t// out\n        /* \"#utility.yul\":12516:12882   */\n    tag_390:\n        /* \"#utility.yul\":12658:12661   */\n      0x00\n        /* \"#utility.yul\":12679:12746   */\n      tag_542\n        /* \"#utility.yul\":12743:12745   */\n      0x17\n        /* \"#utility.yul\":12738:12741   */\n      dup4\n        /* \"#utility.yul\":12679:12746   */\n      tag_381\n      jump\t// in\n    tag_542:\n        /* \"#utility.yul\":12672:12746   */\n      swap2\n      pop\n        /* \"#utility.yul\":12755:12848   */\n      tag_543\n        /* \"#utility.yul\":12844:12847   */\n      dup3\n        /* \"#utility.yul\":12755:12848   */\n      tag_389\n      jump\t// in\n    tag_543:\n        /* \"#utility.yul\":12873:12875   */\n      0x20\n        /* \"#utility.yul\":12868:12871   */\n      dup3\n        /* \"#utility.yul\":12864:12876   */\n      add\n        /* \"#utility.yul\":12857:12876   */\n      swap1\n      pop\n        /* \"#utility.yul\":12516:12882   */\n      swap2\n      swap1\n      pop\n      jump\t// out\n        /* \"#utility.yul\":12888:13307   */\n    tag_167:\n        /* \"#utility.yul\":13054:13058   */\n      0x00\n        /* \"#utility.yul\":13092:13094   */\n      0x20\n        /* \"#utility.yul\":13081:13090   */\n      dup3\n        /* \"#utility.yul\":13077:13095   */\n      add\n        /* \"#utility.yul\":13069:13095   */\n      swap1\n      pop\n        /* \"#utility.yul\":13141:13150   */\n      dup2\n        /* \"#utility.yul\":13135:13139   */\n      dup2\n        /* \"#utility.yul\":13131:13151   */\n      sub\n        /* \"#utility.yul\":13127:13128   */\n      0x00\n        /* \"#utility.yul\":13116:13125   */\n      dup4\n        /* \"#utility.yul\":13112:13129   */\n      add\n        /* \"#utility.yul\":13105:13152   */\n      mstore\n        /* \"#utility.yul\":13169:13300   */\n      tag_545\n        /* \"#utility.yul\":13295:13299   */\n      dup2\n        /* \"#utility.yul\":13169:13300   */\n      tag_390\n      jump\t// in\n    tag_545:\n        /* \"#utility.yul\":13161:13300   */\n      swap1\n      pop\n        /* \"#utility.yul\":12888:13307   */\n      swap2\n      swap1\n      pop\n      jump\t// out\n        /* \"#utility.yul\":13313:13507   */\n    tag_169:\n        /* \"#utility.yul\":13353:13357   */\n      0x00\n        /* \"#utility.yul\":13373:13393   */\n      tag_547\n        /* \"#utility.yul\":13391:13392   */\n      dup3\n        /* \"#utility.yul\":13373:13393   */\n      tag_363\n      jump\t// in\n    tag_547:\n        /* \"#utility.yul\":13368:13393   */\n      swap2\n      pop\n        /* \"#utility.yul\":13407:13427   */\n      tag_548\n        /* \"#utility.yul\":13425:13426   */\n      dup4\n        /* \"#utility.yul\":13407:13427   */\n      tag_363\n      jump\t// in\n    tag_548:\n        /* \"#utility.yul\":13402:13427   */\n      swap3\n      pop\n        /* \"#utility.yul\":13451:13452   */\n      dup3\n        /* \"#utility.yul\":13448:13449   */\n      dup3\n        /* \"#utility.yul\":13444:13453   */\n      sub\n        /* \"#utility.yul\":13436:13453   */\n      swap1\n      pop\n        /* \"#utility.yul\":13475:13476   */\n      dup2\n        /* \"#utility.yul\":13469:13473   */\n      dup2\n        /* \"#utility.yul\":13466:13477   */\n      gt\n        /* \"#utility.yul\":13463:13500   */\n      iszero\n      tag_549\n      jumpi\n        /* \"#utility.yul\":13480:13498   */\n      tag_550\n      tag_384\n      jump\t// in\n    tag_550:\n        /* \"#utility.yul\":13463:13500   */\n    tag_549:\n        /* \"#utility.yul\":13313:13507   */\n      swap3\n      swap2\n      pop\n      pop\n      jump\t// out\n        /* \"#utility.yul\":13513:13684   */\n    tag_391:\n        /* \"#utility.yul\":13653:13676   */\n      0x4e6f20746f6b656e7320746f2077697468647261770000000000000000000000\n        /* \"#utility.yul\":13649:13650   */\n      0x00\n        /* \"#utility.yul\":13641:13647   */\n      dup3\n        /* \"#utility.yul\":13637:13651   */\n      add\n        /* \"#utility.yul\":13630:13677   */\n      mstore\n        /* \"#utility.yul\":13513:13684   */\n      pop\n      jump\t// out\n        /* \"#utility.yul\":13690:14056   */\n    tag_392:\n        /* \"#utility.yul\":13832:13835   */\n      0x00\n        /* \"#utility.yul\":13853:13920   */\n      tag_553\n        /* \"#utility.yul\":13917:13919   */\n      0x15\n        /* \"#utility.yul\":13912:13915   */\n      dup4\n        /* \"#utility.yul\":13853:13920   */\n      tag_381\n      jump\t// in\n    tag_553:\n        /* \"#utility.yul\":13846:13920   */\n      swap2\n      pop\n        /* \"#utility.yul\":13929:14022   */\n      tag_554\n        /* \"#utility.yul\":14018:14021   */\n      dup3\n        /* \"#utility.yul\":13929:14022   */\n      tag_391\n      jump\t// in\n    tag_554:\n        /* \"#utility.yul\":14047:14049   */\n      0x20\n        /* \"#utility.yul\":14042:14045   */\n      dup3\n        /* \"#utility.yul\":14038:14050   */\n      add\n        /* \"#utility.yul\":14031:14050   */\n      swap1\n      pop\n        /* \"#utility.yul\":13690:14056   */\n      swap2\n      swap1\n      pop\n      jump\t// out\n        /* \"#utility.yul\":14062:14481   */\n    tag_182:\n        /* \"#utility.yul\":14228:14232   */\n      0x00\n        /* \"#utility.yul\":14266:14268   */\n      0x20\n        /* \"#utility.yul\":14255:14264   */\n      dup3\n        /* \"#utility.yul\":14251:14269   */\n      add\n        /* \"#utility.yul\":14243:14269   */\n      swap1\n      pop\n        /* \"#utility.yul\":14315:14324   */\n      dup2\n        /* \"#utility.yul\":14309:14313   */\n      dup2\n        /* \"#utility.yul\":14305:14325   */\n      sub\n        /* \"#utility.yul\":14301:14302   */\n      0x00\n        /* \"#utility.yul\":14290:14299   */\n      dup4\n        /* \"#utility.yul\":14286:14303   */\n      add\n        /* \"#utility.yul\":14279:14326   */\n      mstore\n        /* \"#utility.yul\":14343:14474   */\n      tag_556\n        /* \"#utility.yul\":14469:14473   */\n      dup2\n        /* \"#utility.yul\":14343:14474   */\n      tag_392\n      jump\t// in\n    tag_556:\n        /* \"#utility.yul\":14335:14474   */\n      swap1\n      pop\n        /* \"#utility.yul\":14062:14481   */\n      swap2\n      swap1\n      pop\n      jump\t// out\n        /* \"#utility.yul\":14487:14655   */\n    tag_393:\n        /* \"#utility.yul\":14627:14647   */\n      0x506f6f6c206973206e6f74206163746976650000000000000000000000000000\n        /* \"#utility.yul\":14623:14624   */\n      0x00\n        /* \"#utility.yul\":14615:14621   */\n      dup3\n        /* \"#utility.yul\":14611:14625   */\n      add\n        /* \"#utility.yul\":14604:14648   */\n      mstore\n        /* \"#utility.yul\":14487:14655   */\n      pop\n      jump\t// out\n        /* \"#utility.yul\":14661:15027   */\n    tag_394:\n        /* \"#utility.yul\":14803:14806   */\n      0x00\n        /* \"#utility.yul\":14824:14891   */\n      tag_559\n        /* \"#utility.yul\":14888:14890   */\n      0x12\n        /* \"#utility.yul\":14883:14886   */\n      dup4\n        /* \"#utility.yul\":14824:14891   */\n      tag_381\n      jump\t// in\n    tag_559:\n        /* \"#utility.yul\":14817:14891   */\n      swap2\n      pop\n        /* \"#utility.yul\":14900:14993   */\n      tag_560\n        /* \"#utility.yul\":14989:14992   */\n      dup3\n        /* \"#utility.yul\":14900:14993   */\n      tag_393\n      jump\t// in\n    tag_560:\n        /* \"#utility.yul\":15018:15020   */\n      0x20\n        /* \"#utility.yul\":15013:15016   */\n      dup3\n        /* \"#utility.yul\":15009:15021   */\n      add\n        /* \"#utility.yul\":15002:15021   */\n      swap1\n      pop\n        /* \"#utility.yul\":14661:15027   */\n      swap2\n      swap1\n      pop\n      jump\t// out\n        /* \"#utility.yul\":15033:15452   */\n    tag_204:\n        /* \"#utility.yul\":15199:15203   */\n      0x00\n        /* \"#utility.yul\":15237:15239   */\n      0x20\n        /* \"#utility.yul\":15226:15235   */\n      dup3\n        /* \"#utility.yul\":15222:15240   */\n      add\n        /* \"#utility.yul\":15214:15240   */\n      swap1\n      pop\n        /* \"#utility.yul\":15286:15295   */\n      dup2\n        /* \"#utility.yul\":15280:15284   */\n      dup2\n        /* \"#utility.yul\":15276:15296   */\n      sub\n        /* \"#utility.yul\":15272:15273   */\n      0x00\n        /* \"#utility.yul\":15261:15270   */\n      dup4\n        /* \"#utility.yul\":15257:15274   */\n      add\n        /* \"#utility.yul\":15250:15297   */\n      mstore\n        /* \"#utility.yul\":15314:15445   */\n      tag_562\n        /* \"#utility.yul\":15440:15444   */\n      dup2\n        /* \"#utility.yul\":15314:15445   */\n      tag_394\n      jump\t// in\n    tag_562:\n        /* \"#utility.yul\":15306:15445   */\n      swap1\n      pop\n        /* \"#utility.yul\":15033:15452   */\n      swap2\n      swap1\n      pop\n      jump\t// out\n        /* \"#utility.yul\":15458:15622   */\n    tag_395:\n        /* \"#utility.yul\":15598:15614   */\n      0x43616e6e6f74207374616b652030000000000000000000000000000000000000\n        /* \"#utility.yul\":15594:15595   */\n      0x00\n        /* \"#utility.yul\":15586:15592   */\n      dup3\n        /* \"#utility.yul\":15582:15596   */\n      add\n        /* \"#utility.yul\":15575:15615   */\n      mstore\n        /* \"#utility.yul\":15458:15622   */\n      pop\n      jump\t// out\n        /* \"#utility.yul\":15628:15994   */\n    tag_396:\n        /* \"#utility.yul\":15770:15773   */\n      0x00\n        /* \"#utility.yul\":15791:15858   */\n      tag_565\n        /* \"#utility.yul\":15855:15857   */\n      0x0e\n        /* \"#utility.yul\":15850:15853   */\n      dup4\n        /* \"#utility.yul\":15791:15858   */\n      tag_381\n      jump\t// in\n    tag_565:\n        /* \"#utility.yul\":15784:15858   */\n      swap2\n      pop\n        /* \"#utility.yul\":15867:15960   */\n      tag_566\n        /* \"#utility.yul\":15956:15959   */\n      dup3\n        /* \"#utility.yul\":15867:15960   */\n      tag_395\n      jump\t// in\n    tag_566:\n        /* \"#utility.yul\":15985:15987   */\n      0x20\n        /* \"#utility.yul\":15980:15983   */\n      dup3\n        /* \"#utility.yul\":15976:15988   */\n      add\n        /* \"#utility.yul\":15969:15988   */\n      swap1\n      pop\n        /* \"#utility.yul\":15628:15994   */\n      swap2\n      swap1\n      pop\n      jump\t// out\n        /* \"#utility.yul\":16000:16419   */\n    tag_212:\n        /* \"#utility.yul\":16166:16170   */\n      0x00\n        /* \"#utility.yul\":16204:16206   */\n      0x20\n        /* \"#utility.yul\":16193:16202   */\n      dup3\n        /* \"#utility.yul\":16189:16207   */\n      add\n        /* \"#utility.yul\":16181:16207   */\n      swap1\n      pop\n        /* \"#utility.yul\":16253:16262   */\n      dup2\n        /* \"#utility.yul\":16247:16251   */\n      dup2\n        /* \"#utility.yul\":16243:16263   */\n      sub\n        /* \"#utility.yul\":16239:16240   */\n      0x00\n        /* \"#utility.yul\":16228:16237   */\n      dup4\n        /* \"#utility.yul\":16224:16241   */\n      add\n        /* \"#utility.yul\":16217:16264   */\n      mstore\n        /* \"#utility.yul\":16281:16412   */\n      tag_568\n        /* \"#utility.yul\":16407:16411   */\n      dup2\n        /* \"#utility.yul\":16281:16412   */\n      tag_396\n      jump\t// in\n    tag_568:\n        /* \"#utility.yul\":16273:16412   */\n      swap1\n      pop\n        /* \"#utility.yul\":16000:16419   */\n      swap2\n      swap1\n      pop\n      jump\t// out\n        /* \"#utility.yul\":16425:16601   */\n    tag_397:\n        /* \"#utility.yul\":16565:16593   */\n      0x416d6f756e742062656c6f77206d696e696d756d207374616b65000000000000\n        /* \"#utility.yul\":16561:16562   */\n      0x00\n        /* \"#utility.yul\":16553:16559   */\n      dup3\n        /* \"#utility.yul\":16549:16563   */\n      add\n        /* \"#utility.yul\":16542:16594   */\n      mstore\n        /* \"#utility.yul\":16425:16601   */\n      pop\n      jump\t// out\n        /* \"#utility.yul\":16607:16973   */\n    tag_398:\n        /* \"#utility.yul\":16749:16752   */\n      0x00\n        /* \"#utility.yul\":16770:16837   */\n      tag_571\n        /* \"#utility.yul\":16834:16836   */\n      0x1a\n        /* \"#utility.yul\":16829:16832   */\n      dup4\n        /* \"#utility.yul\":16770:16837   */\n      tag_381\n      jump\t// in\n    tag_571:\n        /* \"#utility.yul\":16763:16837   */\n      swap2\n      pop\n        /* \"#utility.yul\":16846:16939   */\n      tag_572\n        /* \"#utility.yul\":16935:16938   */\n      dup3\n        /* \"#utility.yul\":16846:16939   */\n      tag_397\n      jump\t// in\n    tag_572:\n        /* \"#utility.yul\":16964:16966   */\n      0x20\n        /* \"#utility.yul\":16959:16962   */\n      dup3\n        /* \"#utility.yul\":16955:16967   */\n      add\n        /* \"#utility.yul\":16948:16967   */\n      swap1\n      pop\n        /* \"#utility.yul\":16607:16973   */\n      swap2\n      swap1\n      pop\n      jump\t// out\n        /* \"#utility.yul\":16979:17398   */\n    tag_215:\n        /* \"#utility.yul\":17145:17149   */\n      0x00\n        /* \"#utility.yul\":17183:17185   */\n      0x20\n        /* \"#utility.yul\":17172:17181   */\n      dup3\n        /* \"#utility.yul\":17168:17186   */\n      add\n        /* \"#utility.yul\":17160:17186   */\n      swap1\n      pop\n        /* \"#utility.yul\":17232:17241   */\n      dup2\n        /* \"#utility.yul\":17226:17230   */\n      dup2\n        /* \"#utility.yul\":17222:17242   */\n      sub\n        /* \"#utility.yul\":17218:17219   */\n      0x00\n        /* \"#utility.yul\":17207:17216   */\n      dup4\n        /* \"#utility.yul\":17203:17220   */\n      add\n        /* \"#utility.yul\":17196:17243   */\n      mstore\n        /* \"#utility.yul\":17260:17391   */\n      tag_574\n        /* \"#utility.yul\":17386:17390   */\n      dup2\n        /* \"#utility.yul\":17260:17391   */\n      tag_398\n      jump\t// in\n    tag_574:\n        /* \"#utility.yul\":17252:17391   */\n      swap1\n      pop\n        /* \"#utility.yul\":16979:17398   */\n      swap2\n      swap1\n      pop\n      jump\t// out\n        /* \"#utility.yul\":17404:17575   */\n    tag_399:\n        /* \"#utility.yul\":17544:17567   */\n      0x496e76616c6964207374616b696e6720746f6b656e0000000000000000000000\n        /* \"#utility.yul\":17540:17541   */\n      0x00\n        /* \"#utility.yul\":17532:17538   */\n      dup3\n        /* \"#utility.yul\":17528:17542   */\n      add\n        /* \"#utility.yul\":17521:17568   */\n      mstore\n        /* \"#utility.yul\":17404:17575   */\n      pop\n      jump\t// out\n        /* \"#utility.yul\":17581:17947   */\n    tag_400:\n        /* \"#utility.yul\":17723:17726   */\n      0x00\n        /* \"#utility.yul\":17744:17811   */\n      tag_577\n        /* \"#utility.yul\":17808:17810   */\n      0x15\n        /* \"#utility.yul\":17803:17806   */\n      dup4\n        /* \"#utility.yul\":17744:17811   */\n      tag_381\n      jump\t// in\n    tag_577:\n        /* \"#utility.yul\":17737:17811   */\n      swap2\n      pop\n        /* \"#utility.yul\":17820:17913   */\n      tag_578\n        /* \"#utility.yul\":17909:17912   */\n      dup3\n        /* \"#utility.yul\":17820:17913   */\n      tag_399\n      jump\t// in\n    tag_578:\n        /* \"#utility.yul\":17938:17940   */\n      0x20\n        /* \"#utility.yul\":17933:17936   */\n      dup3\n        /* \"#utility.yul\":17929:17941   */\n      add\n        /* \"#utility.yul\":17922:17941   */\n      swap1\n      pop\n        /* \"#utility.yul\":17581:17947   */\n      swap2\n      swap1\n      pop\n      jump\t// out\n        /* \"#utility.yul\":17953:18372   */\n    tag_235:\n        /* \"#utility.yul\":18119:18123   */\n      0x00\n        /* \"#utility.yul\":18157:18159   */\n      0x20\n        /* \"#utility.yul\":18146:18155   */\n      dup3\n        /* \"#utility.yul\":18142:18160   */\n      add\n        /* \"#utility.yul\":18134:18160   */\n      swap1\n      pop\n        /* \"#utility.yul\":18206:18215   */\n      dup2\n        /* \"#utility.yul\":18200:18204   */\n      dup2\n        /* \"#utility.yul\":18196:18216   */\n      sub\n        /* \"#utility.yul\":18192:18193   */\n      0x00\n        /* \"#utility.yul\":18181:18190   */\n      dup4\n        /* \"#utility.yul\":18177:18194   */\n      add\n        /* \"#utility.yul\":18170:18217   */\n      mstore\n        /* \"#utility.yul\":18234:18365   */\n      tag_580\n        /* \"#utility.yul\":18360:18364   */\n      dup2\n        /* \"#utility.yul\":18234:18365   */\n      tag_400\n      jump\t// in\n    tag_580:\n        /* \"#utility.yul\":18226:18365   */\n      swap1\n      pop\n        /* \"#utility.yul\":17953:18372   */\n      swap2\n      swap1\n      pop\n      jump\t// out\n        /* \"#utility.yul\":18378:18548   */\n    tag_401:\n        /* \"#utility.yul\":18518:18540   */\n      0x496e76616c69642072657761726420746f6b656e000000000000000000000000\n        /* \"#utility.yul\":18514:18515   */\n      0x00\n        /* \"#utility.yul\":18506:18512   */\n      dup3\n        /* \"#utility.yul\":18502:18516   */\n      add\n        /* \"#utility.yul\":18495:18541   */\n      mstore\n        /* \"#utility.yul\":18378:18548   */\n      pop\n      jump\t// out\n        /* \"#utility.yul\":18554:18920   */\n    tag_402:\n        /* \"#utility.yul\":18696:18699   */\n      0x00\n        /* \"#utility.yul\":18717:18784   */\n      tag_583\n        /* \"#utility.yul\":18781:18783   */\n      0x14\n        /* \"#utility.yul\":18776:18779   */\n      dup4\n        /* \"#utility.yul\":18717:18784   */\n      tag_381\n      jump\t// in\n    tag_583:\n        /* \"#utility.yul\":18710:18784   */\n      swap2\n      pop\n        /* \"#utility.yul\":18793:18886   */\n      tag_584\n        /* \"#utility.yul\":18882:18885   */\n      dup3\n        /* \"#utility.yul\":18793:18886   */\n      tag_401\n      jump\t// in\n    tag_584:\n        /* \"#utility.yul\":18911:18913   */\n      0x20\n        /* \"#utility.yul\":18906:18909   */\n      dup3\n        /* \"#utility.yul\":18902:18914   */\n      add\n        /* \"#utility.yul\":18895:18914   */\n      swap1\n      pop\n        /* \"#utility.yul\":18554:18920   */\n      swap2\n      swap1\n      pop\n      jump\t// out\n        /* \"#utility.yul\":18926:19345   */\n    tag_238:\n        /* \"#utility.yul\":19092:19096   */\n      0x00\n        /* \"#utility.yul\":19130:19132   */\n      0x20\n        /* \"#utility.yul\":19119:19128   */\n      dup3\n        /* \"#utility.yul\":19115:19133   */\n      add\n        /* \"#utility.yul\":19107:19133   */\n      swap1\n      pop\n        /* \"#utility.yul\":19179:19188   */\n      dup2\n        /* \"#utility.yul\":19173:19177   */\n      dup2\n        /* \"#utility.yul\":19169:19189   */\n      sub\n        /* \"#utility.yul\":19165:19166   */\n      0x00\n        /* \"#utility.yul\":19154:19163   */\n      dup4\n        /* \"#utility.yul\":19150:19167   */\n      add\n        /* \"#utility.yul\":19143:19190   */\n      mstore\n        /* \"#utility.yul\":19207:19338   */\n      tag_586\n        /* \"#utility.yul\":19333:19337   */\n      dup2\n        /* \"#utility.yul\":19207:19338   */\n      tag_402\n      jump\t// in\n    tag_586:\n        /* \"#utility.yul\":19199:19338   */\n      swap1\n      pop\n        /* \"#utility.yul\":18926:19345   */\n      swap2\n      swap1\n      pop\n      jump\t// out\n        /* \"#utility.yul\":19351:19572   */\n    tag_403:\n        /* \"#utility.yul\":19491:19525   */\n      0x5265776172642072617465206d7573742062652067726561746572207468616e\n        /* \"#utility.yul\":19487:19488   */\n      0x00\n        /* \"#utility.yul\":19479:19485   */\n      dup3\n        /* \"#utility.yul\":19475:19489   */\n      add\n        /* \"#utility.yul\":19468:19526   */\n      mstore\n        /* \"#utility.yul\":19560:19564   */\n      0x2030000000000000000000000000000000000000000000000000000000000000\n        /* \"#utility.yul\":19555:19557   */\n      0x20\n        /* \"#utility.yul\":19547:19553   */\n      dup3\n        /* \"#utility.yul\":19543:19558   */\n      add\n        /* \"#utility.yul\":19536:19565   */\n      mstore\n        /* \"#utility.yul\":19351:19572   */\n      pop\n      jump\t// out\n        /* \"#utility.yul\":19578:19944   */\n    tag_404:\n        /* \"#utility.yul\":19720:19723   */\n      0x00\n        /* \"#utility.yul\":19741:19808   */\n      tag_589\n        /* \"#utility.yul\":19805:19807   */\n      0x22\n        /* \"#utility.yul\":19800:19803   */\n      dup4\n        /* \"#utility.yul\":19741:19808   */\n      tag_381\n      jump\t// in\n    tag_589:\n        /* \"#utility.yul\":19734:19808   */\n      swap2\n      pop\n        /* \"#utility.yul\":19817:19910   */\n      tag_590\n        /* \"#utility.yul\":19906:19909   */\n      dup3\n        /* \"#utility.yul\":19817:19910   */\n      tag_403\n      jump\t// in\n    tag_590:\n        /* \"#utility.yul\":19935:19937   */\n      0x40\n        /* \"#utility.yul\":19930:19933   */\n      dup3\n        /* \"#utility.yul\":19926:19938   */\n      add\n        /* \"#utility.yul\":19919:19938   */\n      swap1\n      pop\n        /* \"#utility.yul\":19578:19944   */\n      swap2\n      swap1\n      pop\n      jump\t// out\n        /* \"#utility.yul\":19950:20369   */\n    tag_241:\n        /* \"#utility.yul\":20116:20120   */\n      0x00\n        /* \"#utility.yul\":20154:20156   */\n      0x20\n        /* \"#utility.yul\":20143:20152   */\n      dup3\n        /* \"#utility.yul\":20139:20157   */\n      add\n        /* \"#utility.yul\":20131:20157   */\n      swap1\n      pop\n        /* \"#utility.yul\":20203:20212   */\n      dup2\n        /* \"#utility.yul\":20197:20201   */\n      dup2\n        /* \"#utility.yul\":20193:20213   */\n      sub\n        /* \"#utility.yul\":20189:20190   */\n      0x00\n        /* \"#utility.yul\":20178:20187   */\n      dup4\n        /* \"#utility.yul\":20174:20191   */\n      add\n        /* \"#utility.yul\":20167:20214   */\n      mstore\n        /* \"#utility.yul\":20231:20362   */\n      tag_592\n        /* \"#utility.yul\":20357:20361   */\n      dup2\n        /* \"#utility.yul\":20231:20362   */\n      tag_404\n      jump\t// in\n    tag_592:\n        /* \"#utility.yul\":20223:20362   */\n      swap1\n      pop\n        /* \"#utility.yul\":19950:20369   */\n      swap2\n      swap1\n      pop\n      jump\t// out\n        /* \"#utility.yul\":20375:21039   */\n    tag_243:\n        /* \"#utility.yul\":20580:20584   */\n      0x00\n        /* \"#utility.yul\":20618:20621   */\n      0xa0\n        /* \"#utility.yul\":20607:20616   */\n      dup3\n        /* \"#utility.yul\":20603:20622   */\n      add\n        /* \"#utility.yul\":20595:20622   */\n      swap1\n      pop\n        /* \"#utility.yul\":20632:20703   */\n      tag_594\n        /* \"#utility.yul\":20700:20701   */\n      0x00\n        /* \"#utility.yul\":20689:20698   */\n      dup4\n        /* \"#utility.yul\":20685:20702   */\n      add\n        /* \"#utility.yul\":20676:20682   */\n      dup9\n        /* \"#utility.yul\":20632:20703   */\n      tag_371\n      jump\t// in\n    tag_594:\n        /* \"#utility.yul\":20713:20785   */\n      tag_595\n        /* \"#utility.yul\":20781:20783   */\n      0x20\n        /* \"#utility.yul\":20770:20779   */\n      dup4\n        /* \"#utility.yul\":20766:20784   */\n      add\n        /* \"#utility.yul\":20757:20763   */\n      dup8\n        /* \"#utility.yul\":20713:20785   */\n      tag_371\n      jump\t// in\n    tag_595:\n        /* \"#utility.yul\":20795:20867   */\n      tag_596\n        /* \"#utility.yul\":20863:20865   */\n      0x40\n        /* \"#utility.yul\":20852:20861   */\n      dup4\n        /* \"#utility.yul\":20848:20866   */\n      add\n        /* \"#utility.yul\":20839:20845   */\n      dup7\n        /* \"#utility.yul\":20795:20867   */\n      tag_370\n      jump\t// in\n    tag_596:\n        /* \"#utility.yul\":20877:20949   */\n      tag_597\n        /* \"#utility.yul\":20945:20947   */\n      0x60\n        /* \"#utility.yul\":20934:20943   */\n      dup4\n        /* \"#utility.yul\":20930:20948   */\n      add\n        /* \"#utility.yul\":20921:20927   */\n      dup6\n        /* \"#utility.yul\":20877:20949   */\n      tag_370\n      jump\t// in\n    tag_597:\n        /* \"#utility.yul\":20959:21032   */\n      tag_598\n        /* \"#utility.yul\":21027:21030   */\n      0x80\n        /* \"#utility.yul\":21016:21025   */\n      dup4\n        /* \"#utility.yul\":21012:21031   */\n      add\n        /* \"#utility.yul\":21003:21009   */\n      dup5\n        /* \"#utility.yul\":20959:21032   */\n      tag_370\n      jump\t// in\n    tag_598:\n        /* \"#utility.yul\":20375:21039   */\n      swap7\n      swap6\n      pop\n      pop\n      pop\n      pop\n      pop\n      pop\n      jump\t// out\n        /* \"#utility.yul\":21045:21278   */\n    tag_245:\n        /* \"#utility.yul\":21084:21087   */\n      0x00\n        /* \"#utility.yul\":21107:21131   */\n      tag_600\n        /* \"#utility.yul\":21125:21130   */\n      dup3\n        /* \"#utility.yul\":21107:21131   */\n      tag_363\n      jump\t// in\n    tag_600:\n        /* \"#utility.yul\":21098:21131   */\n      swap2\n      pop\n        /* \"#utility.yul\":21153:21219   */\n      0xffffffffffffffffffffffffffffffffffffffffffffffffffffffffffffffff\n        /* \"#utility.yul\":21146:21151   */\n      dup3\n        /* \"#utility.yul\":21143:21220   */\n      sub\n        /* \"#utility.yul\":21140:21243   */\n      tag_601\n      jumpi\n        /* \"#utility.yul\":21223:21241   */\n      tag_602\n      tag_384\n      jump\t// in\n    tag_602:\n        /* \"#utility.yul\":21140:21243   */\n    tag_601:\n        /* \"#utility.yul\":21270:21271   */\n      0x01\n        /* \"#utility.yul\":21263:21268   */\n      dup3\n        /* \"#utility.yul\":21259:21272   */\n      add\n        /* \"#utility.yul\":21252:21272   */\n      swap1\n      pop\n        /* \"#utility.yul\":21045:21278   */\n      swap2\n      swap1\n      pop\n      jump\t// out\n        /* \"#utility.yul\":21284:21694   */\n    tag_250:\n        /* \"#utility.yul\":21324:21331   */\n      0x00\n        /* \"#utility.yul\":21347:21367   */\n      tag_604\n        /* \"#utility.yul\":21365:21366   */\n      dup3\n        /* \"#utility.yul\":21347:21367   */\n      tag_363\n      jump\t// in\n    tag_604:\n        /* \"#utility.yul\":21342:21367   */\n      swap2\n      pop\n        /* \"#utility.yul\":21381:21401   */\n      tag_605\n        /* \"#utility.yul\":21399:21400   */\n      dup4\n        /* \"#utility.yul\":21381:21401   */\n      tag_363\n      jump\t// in\n    tag_605:\n        /* \"#utility.yul\":21376:21401   */\n      swap3\n      pop\n        /* \"#utility.yul\":21436:21437   */\n      dup3\n        /* \"#utility.yul\":21433:21434   */\n      dup3\n        /* \"#utility.yul\":21429:21438   */\n      mul\n        /* \"#utility.yul\":21458:21488   */\n      tag_606\n        /* \"#utility.yul\":21476:21487   */\n      dup2\n        /* \"#utility.yul\":21458:21488   */\n      tag_363\n      jump\t// in\n    tag_606:\n        /* \"#utility.yul\":21447:21488   */\n      swap2\n      pop\n        /* \"#utility.yul\":21637:21638   */\n      dup3\n        /* \"#utility.yul\":21628:21635   */\n      dup3\n        /* \"#utility.yul\":21624:21639   */\n      div\n        /* \"#utility.yul\":21621:21622   */\n      dup5\n        /* \"#utility.yul\":21618:21640   */\n      eq\n        /* \"#utility.yul\":21598:21599   */\n      dup4\n        /* \"#utility.yul\":21591:21600   */\n      iszero\n        /* \"#utility.yul\":21571:21654   */\n      or\n        /* \"#utility.yul\":21548:21687   */\n      tag_607\n      jumpi\n        /* \"#utility.yul\":21667:21685   */\n      tag_608\n      tag_384\n      jump\t// in\n    tag_608:\n        /* \"#utility.yul\":21548:21687   */\n    tag_607:\n        /* \"#utility.yul\":21332:21694   */\n      pop\n        /* \"#utility.yul\":21284:21694   */\n      swap3\n      swap2\n      pop\n      pop\n      jump\t// out\n        /* \"#utility.yul\":21700:21880   */\n    tag_405:\n        /* \"#utility.yul\":21748:21825   */\n      0x4e487b7100000000000000000000000000000000000000000000000000000000\n        /* \"#utility.yul\":21745:21746   */\n      0x00\n        /* \"#utility.yul\":21738:21826   */\n      mstore\n        /* \"#utility.yul\":21845:21849   */\n      0x12\n        /* \"#utility.yul\":21842:21843   */\n      0x04\n        /* \"#utility.yul\":21835:21850   */\n      mstore\n        /* \"#utility.yul\":21869:21873   */\n      0x24\n        /* \"#utility.yul\":21866:21867   */\n      0x00\n        /* \"#utility.yul\":21859:21874   */\n      revert\n        /* \"#utility.yul\":21886:22071   */\n    tag_253:\n        /* \"#utility.yul\":21926:21927   */\n      0x00\n        /* \"#utility.yul\":21943:21963   */\n      tag_611\n        /* \"#utility.yul\":21961:21962   */\n      dup3\n        /* \"#utility.yul\":21943:21963   */\n      tag_363\n      jump\t// in\n    tag_611:\n        /* \"#utility.yul\":21938:21963   */\n      swap2\n      pop\n        /* \"#utility.yul\":21977:21997   */\n      tag_612\n        /* \"#utility.yul\":21995:21996   */\n      dup4\n        /* \"#utility.yul\":21977:21997   */\n      tag_363\n      jump\t// in\n    tag_612:\n        /* \"#utility.yul\":21972:21997   */\n      swap3\n      pop\n        /* \"#utility.yul\":22016:22017   */\n      dup3\n        /* \"#utility.yul\":22006:22041   */\n      tag_613\n      jumpi\n        /* \"#utility.yul\":22021:22039   */\n      tag_614\n      tag_405\n      jump\t// in\n    tag_614:\n        /* \"#utility.yul\":22006:22041   */\n    tag_613:\n        /* \"#utility.yul\":22063:22064   */\n      dup3\n        /* \"#utility.yul\":22060:22061   */\n      dup3\n        /* \"#utility.yul\":22056:22065   */\n      div\n        /* \"#utility.yul\":22051:22065   */\n      swap1\n      pop\n        /* \"#utility.yul\":21886:22071   */\n      swap3\n      swap2\n      pop\n      pop\n      jump\t// out\n        /* \"#utility.yul\":22077:22259   */\n    tag_406:\n        /* \"#utility.yul\":22217:22251   */\n      0x43616e6e6f7420636f6d706f756e6420646966666572656e7420746f6b656e73\n        /* \"#utility.yul\":22213:22214   */\n      0x00\n        /* \"#utility.yul\":22205:22211   */\n      dup3\n        /* \"#utility.yul\":22201:22215   */\n      add\n        /* \"#utility.yul\":22194:22252   */\n      mstore\n        /* \"#utility.yul\":22077:22259   */\n      pop\n      jump\t// out\n        /* \"#utility.yul\":22265:22631   */\n    tag_407:\n        /* \"#utility.yul\":22407:22410   */\n      0x00\n        /* \"#utility.yul\":22428:22495   */\n      tag_617\n        /* \"#utility.yul\":22492:22494   */\n      0x20\n        /* \"#utility.yul\":22487:22490   */\n      dup4\n        /* \"#utility.yul\":22428:22495   */\n      tag_381\n      jump\t// in\n    tag_617:\n        /* \"#utility.yul\":22421:22495   */\n      swap2\n      pop\n        /* \"#utility.yul\":22504:22597   */\n      tag_618\n        /* \"#utility.yul\":22593:22596   */\n      dup3\n        /* \"#utility.yul\":22504:22597   */\n      tag_406\n      jump\t// in\n    tag_618:\n        /* \"#utility.yul\":22622:22624   */\n      0x20\n        /* \"#utility.yul\":22617:22620   */\n      dup3\n        /* \"#utility.yul\":22613:22625   */\n      add\n        /* \"#utility.yul\":22606:22625   */\n      swap1\n      pop\n        /* \"#utility.yul\":22265:22631   */\n      swap2\n      swap1\n      pop\n      jump\t// out\n        /* \"#utility.yul\":22637:23056   */\n    tag_271:\n        /* \"#utility.yul\":22803:22807   */\n      0x00\n        /* \"#utility.yul\":22841:22843   */\n      0x20\n        /* \"#utility.yul\":22830:22839   */\n      dup3\n        /* \"#utility.yul\":22826:22844   */\n      add\n        /* \"#utility.yul\":22818:22844   */\n      swap1\n      pop\n        /* \"#utility.yul\":22890:22899   */\n      dup2\n        /* \"#utility.yul\":22884:22888   */\n      dup2\n        /* \"#utility.yul\":22880:22900   */\n      sub\n        /* \"#utility.yul\":22876:22877   */\n      0x00\n        /* \"#utility.yul\":22865:22874   */\n      dup4\n        /* \"#utility.yul\":22861:22878   */\n      add\n        /* \"#utility.yul\":22854:22901   */\n      mstore\n        /* \"#utility.yul\":22918:23049   */\n      tag_620\n        /* \"#utility.yul\":23044:23048   */\n      dup2\n        /* \"#utility.yul\":22918:23049   */\n      tag_407\n      jump\t// in\n    tag_620:\n        /* \"#utility.yul\":22910:23049   */\n      swap1\n      pop\n        /* \"#utility.yul\":22637:23056   */\n      swap2\n      swap1\n      pop\n      jump\t// out\n        /* \"#utility.yul\":23062:23243   */\n    tag_408:\n        /* \"#utility.yul\":23202:23235   */\n      0x5265656e7472616e637947756172643a207265656e7472616e742063616c6c00\n        /* \"#utility.yul\":23198:23199   */\n      0x00\n        /* \"#utility.yul\":23190:23196   */\n      dup3\n        /* \"#utility.yul\":23186:23200   */\n      add\n        /* \"#utility.yul\":23179:23236   */\n      mstore\n        /* \"#utility.yul\":23062:23243   */\n      pop\n      jump\t// out\n        /* \"#utility.yul\":23249:23615   */\n    tag_409:\n        /* \"#utility.yul\":23391:23394   */\n      0x00\n        /* \"#utility.yul\":23412:23479   */\n      tag_623\n        /* \"#utility.yul\":23476:23478   */\n      0x1f\n        /* \"#utility.yul\":23471:23474   */\n      dup4\n        /* \"#utility.yul\":23412:23479   */\n      tag_381\n      jump\t// in\n    tag_623:\n        /* \"#utility.yul\":23405:23479   */\n      swap2\n      pop\n        /* \"#utility.yul\":23488:23581   */\n      tag_624\n        /* \"#utility.yul\":23577:23580   */\n      dup3\n        /* \"#utility.yul\":23488:23581   */\n      tag_408\n      jump\t// in\n    tag_624:\n        /* \"#utility.yul\":23606:23608   */\n      0x20\n        /* \"#utility.yul\":23601:23604   */\n      dup3\n        /* \"#utility.yul\":23597:23609   */\n      add\n        /* \"#utility.yul\":23590:23609   */\n      swap1\n      pop\n        /* \"#utility.yul\":23249:23615   */\n      swap2\n      swap1\n      pop\n      jump\t// out\n        /* \"#utility.yul\":23621:24040   */\n    tag_313:\n        /* \"#utility.yul\":23787:23791   */\n      0x00\n        /* \"#utility.yul\":23825:23827   */\n      0x20\n        /* \"#utility.yul\":23814:23823   */\n      dup3\n        /* \"#utility.yul\":23810:23828   */\n      add\n        /* \"#utility.yul\":23802:23828   */\n      swap1\n      pop\n        /* \"#utility.yul\":23874:23883   */\n      dup2\n        /* \"#utility.yul\":23868:23872   */\n      dup2\n        /* \"#utility.yul\":23864:23884   */\n      sub\n        /* \"#utility.yul\":23860:23861   */\n      0x00\n        /* \"#utility.yul\":23849:23858   */\n      dup4\n        /* \"#utility.yul\":23845:23862   */\n      add\n        /* \"#utility.yul\":23838:23885   */\n      mstore\n        /* \"#utility.yul\":23902:24033   */\n      tag_626\n        /* \"#utility.yul\":24028:24032   */\n      dup2\n        /* \"#utility.yul\":23902:24033   */\n      tag_409\n      jump\t// in\n    tag_626:\n        /* \"#utility.yul\":23894:24033   */\n      swap1\n      pop\n        /* \"#utility.yul\":23621:24040   */\n      swap2\n      swap1\n      pop\n      jump\t// out\n        /* \"#utility.yul\":24046:24378   */\n    tag_317:\n        /* \"#utility.yul\":24167:24171   */\n      0x00\n        /* \"#utility.yul\":24205:24207   */\n      0x40\n        /* \"#utility.yul\":24194:24203   */\n      dup3\n        /* \"#utility.yul\":24190:24208   */\n      add\n        /* \"#utility.yul\":24182:24208   */\n      swap1\n      pop\n        /* \"#utility.yul\":24218:24289   */\n      tag_628\n        /* \"#utility.yul\":24286:24287   */\n      0x00\n        /* \"#utility.yul\":24275:24284   */\n      dup4\n        /* \"#utility.yul\":24271:24288   */\n      add\n        /* \"#utility.yul\":24262:24268   */\n      dup6\n        /* \"#utility.yul\":24218:24289   */\n      tag_371\n      jump\t// in\n    tag_628:\n        /* \"#utility.yul\":24299:24371   */\n      tag_629\n        /* \"#utility.yul\":24367:24369   */\n      0x20\n        /* \"#utility.yul\":24356:24365   */\n      dup4\n        /* \"#utility.yul\":24352:24370   */\n      add\n        /* \"#utility.yul\":24343:24349   */\n      dup5\n        /* \"#utility.yul\":24299:24371   */\n      tag_370\n      jump\t// in\n    tag_629:\n        /* \"#utility.yul\":24046:24378   */\n      swap4\n      swap3\n      pop\n      pop\n      pop\n      jump\t// out\n        /* \"#utility.yul\":24384:24550   */\n    tag_410:\n        /* \"#utility.yul\":24524:24542   */\n      0x5061757361626c653a2070617573656400000000000000000000000000000000\n        /* \"#utility.yul\":24520:24521   */\n      0x00\n        /* \"#utility.yul\":24512:24518   */\n      dup3\n        /* \"#utility.yul\":24508:24522   */\n      add\n        /* \"#utility.yul\":24501:24543   */\n      mstore\n        /* \"#utility.yul\":24384:24550   */\n      pop\n      jump\t// out\n        /* \"#utility.yul\":24556:24922   */\n    tag_411:\n        /* \"#utility.yul\":24698:24701   */\n      0x00\n        /* \"#utility.yul\":24719:24786   */\n      tag_632\n        /* \"#utility.yul\":24783:24785   */\n      0x10\n        /* \"#utility.yul\":24778:24781   */\n      dup4\n        /* \"#utility.yul\":24719:24786   */\n      tag_381\n      jump\t// in\n    tag_632:\n        /* \"#utility.yul\":24712:24786   */\n      swap2\n      pop\n        /* \"#utility.yul\":24795:24888   */\n      tag_633\n        /* \"#utility.yul\":24884:24887   */\n      dup3\n        /* \"#utility.yul\":24795:24888   */\n      tag_410\n      jump\t// in\n    tag_633:\n        /* \"#utility.yul\":24913:24915   */\n      0x20\n        /* \"#utility.yul\":24908:24911   */\n      dup3\n        /* \"#utility.yul\":24904:24916   */\n      add\n        /* \"#utility.yul\":24897:24916   */\n      swap1\n      pop\n        /* \"#utility.yul\":24556:24922   */\n      swap2\n      swap1\n      pop\n      jump\t// out\n        /* \"#utility.yul\":24928:25347   */\n    tag_338:\n        /* \"#utility.yul\":25094:25098   */\n      0x00\n        /* \"#utility.yul\":25132:25134   */\n      0x20\n        /* \"#utility.yul\":25121:25130   */\n      dup3\n        /* \"#utility.yul\":25117:25135   */\n      add\n        /* \"#utility.yul\":25109:25135   */\n      swap1\n      pop\n        /* \"#utility.yul\":25181:25190   */\n      dup2\n        /* \"#utility.yul\":25175:25179   */\n      dup2\n        /* \"#utility.yul\":25171:25191   */\n      sub\n        /* \"#utility.yul\":25167:25168   */\n      0x00\n        /* \"#utility.yul\":25156:25165   */\n      dup4\n        /* \"#utility.yul\":25152:25169   */\n      add\n        /* \"#utility.yul\":25145:25192   */\n      mstore\n        /* \"#utility.yul\":25209:25340   */\n      tag_635\n        /* \"#utility.yul\":25335:25339   */\n      dup2\n        /* \"#utility.yul\":25209:25340   */\n      tag_411\n      jump\t// in\n    tag_635:\n        /* \"#utility.yul\":25201:25340   */\n      swap1\n      pop\n        /* \"#utility.yul\":24928:25347   */\n      swap2\n      swap1\n      pop\n      jump\t// out\n        /* \"#utility.yul\":25353:25795   */\n    tag_342:\n        /* \"#utility.yul\":25502:25506   */\n      0x00\n        /* \"#utility.yul\":25540:25542   */\n      0x60\n        /* \"#utility.yul\":25529:25538   */\n      dup3\n        /* \"#utility.yul\":25525:25543   */\n      add\n        /* \"#utility.yul\":25517:25543   */\n      swap1\n      pop\n        /* \"#utility.yul\":25553:25624   */\n      tag_637\n        /* \"#utility.yul\":25621:25622   */\n      0x00\n        /* \"#utility.yul\":25610:25619   */\n      dup4\n        /* \"#utility.yul\":25606:25623   */\n      add\n        /* \"#utility.yul\":25597:25603   */\n      dup7\n        /* \"#utility.yul\":25553:25624   */\n      tag_371\n      jump\t// in\n    tag_637:\n        /* \"#utility.yul\":25634:25706   */\n      tag_638\n        /* \"#utility.yul\":25702:25704   */\n      0x20\n        /* \"#utility.yul\":25691:25700   */\n      dup4\n        /* \"#utility.yul\":25687:25705   */\n      add\n        /* \"#utility.yul\":25678:25684   */\n      dup6\n        /* \"#utility.yul\":25634:25706   */\n      tag_371\n      jump\t// in\n    tag_638:\n        /* \"#utility.yul\":25716:25788   */\n      tag_639\n        /* \"#utility.yul\":25784:25786   */\n      0x40\n        /* \"#utility.yul\":25773:25782   */\n      dup4\n        /* \"#utility.yul\":25769:25787   */\n      add\n        /* \"#utility.yul\":25760:25766   */\n      dup5\n        /* \"#utility.yul\":25716:25788   */\n      tag_370\n      jump\t// in\n    tag_639:\n        /* \"#utility.yul\":25353:25795   */\n      swap5\n      swap4\n      pop\n      pop\n      pop\n      pop\n      jump\t// out\n        /* \"#utility.yul\":25801:25971   */\n    tag_412:\n        /* \"#utility.yul\":25941:25963   */\n      0x5061757361626c653a206e6f7420706175736564000000000000000000000000\n        /* \"#utility.yul\":25937:25938   */\n      0x00\n        /* \"#utility.yul\":25929:25935   */\n      dup3\n        /* \"#utility.yul\":25925:25939   */\n      add\n        /* \"#utility.yul\":25918:25964   */\n      mstore\n        /* \"#utility.yul\":25801:25971   */\n      pop\n      jump\t// out\n        /* \"#utility.yul\":25977:26343   */\n    tag_413:\n        /* \"#utility.yul\":26119:26122   */\n      0x00\n        /* \"#utility.yul\":26140:26207   */\n      tag_642\n        /* \"#utility.yul\":26204:26206   */\n      0x14\n        /* \"#utility.yul\":26199:26202   */\n      dup4\n        /* \"#utility.yul\":26140:26207   */\n      tag_381\n      jump\t// in\n    tag_642:\n        /* \"#utility.yul\":26133:26207   */\n      swap2\n      pop\n        /* \"#utility.yul\":26216:26309   */\n      tag_643\n        /* \"#utility.yul\":26305:26308   */\n      dup3\n        /* \"#utility.yul\":26216:26309   */\n      tag_412\n      jump\t// in\n    tag_643:\n        /* \"#utility.yul\":26334:26336   */\n      0x20\n        /* \"#utility.yul\":26329:26332   */\n      dup3\n        /* \"#utility.yul\":26325:26337   */\n      add\n        /* \"#utility.yul\":26318:26337   */\n      swap1\n      pop\n        /* \"#utility.yul\":25977:26343   */\n      swap2\n      swap1\n      pop\n      jump\t// out\n        /* \"#utility.yul\":26349:26768   */\n    tag_359:\n        /* \"#utility.yul\":26515:26519   */\n      0x00\n        /* \"#utility.yul\":26553:26555   */\n      0x20\n        /* \"#utility.yul\":26542:26551   */\n      dup3\n        /* \"#utility.yul\":26538:26556   */\n      add\n        /* \"#utility.yul\":26530:26556   */\n      swap1\n      pop\n        /* \"#utility.yul\":26602:26611   */\n      dup2\n        /* \"#utility.yul\":26596:26600   */\n      dup2\n        /* \"#utility.yul\":26592:26612   */\n      sub\n        /* \"#utility.yul\":26588:26589   */\n      0x00\n        /* \"#utility.yul\":26577:26586   */\n      dup4\n        /* \"#utility.yul\":26573:26590   */\n      add\n        /* \"#utility.yul\":26566:26613   */\n      mstore\n        /* \"#utility.yul\":26630:26761   */\n      tag_645\n        /* \"#utility.yul\":26756:26760   */\n      dup2\n        /* \"#utility.yul\":26630:26761   */\n      tag_413\n      jump\t// in\n    tag_645:\n        /* \"#utility.yul\":26622:26761   */\n      swap1\n      pop\n        /* \"#utility.yul\":26349:26768   */\n      swap2\n      swap1\n      pop\n      jump\t// out\n\n    auxdata: 0xa264697066735822122048955b86420344f9d49ca0ace674696553f984e6b7be37c8ea7a1db289cbf68164736f6c634300081e0033\n}\n",
				"bytecode": {
					"linkReferences": {},
					"object": "608060405234801561000f575f5ffd5b503360015f819055505f73ffffffffffffffffffffffffffffffffffffffff168173ffffffffffffffffffffffffffffffffffffffff1603610088575f6040517f1e4fbdf700000000000000000000000000000000000000000000000000000000815260040161007f91906101b9565b60405180910390fd5b610097816100b760201b60201c565b505f600160146101000a81548160ff0219169083151502179055506101d2565b5f60015f9054906101000a900473ffffffffffffffffffffffffffffffffffffffff1690508160015f6101000a81548173ffffffffffffffffffffffffffffffffffffffff021916908373ffffffffffffffffffffffffffffffffffffffff1602179055508173ffffffffffffffffffffffffffffffffffffffff168173ffffffffffffffffffffffffffffffffffffffff167f8be0079c531659141344cd1fd0a4f28419497f9722a3daafe3b4186f6b6457e060405160405180910390a35050565b5f73ffffffffffffffffffffffffffffffffffffffff82169050919050565b5f6101a38261017a565b9050919050565b6101b381610199565b82525050565b5f6020820190506101cc5f8301846101aa565b92915050565b612edd806101df5f395ff3fe608060405234801561000f575f5ffd5b506004361061014b575f3560e01c80638456cb59116100c1578063ac4afa381161007a578063ac4afa3814610357578063b32534cf1461038f578063bbcaf3fe146103ab578063e39c08fc146103c7578063f2fde38b146103f7578063f525cb68146104135761014b565b80638456cb591461029457806385ac165a1461029e578063874c120b146102ba5780638da5cb5b146102ea57806393f1a40b14610308578063aa5f7e261461033b5761014b565b8063441a3e7011610113578063441a3e70146101fc5780635312ea8e146102185780635c975abb14610234578063715018a6146102525780637b0472f01461025c5780637f8661a1146102785761014b565b80631069f3b51461014f5780631c4b774b146101825780632f380b351461019e5780633d6aa5e1146101d45780633f4ba83a146101f2575b5f5ffd5b6101696004803603810190610164919061226a565b610431565b60405161017994939291906122b7565b60405180910390f35b61019c600480360381019061019791906122fa565b610513565b005b6101b860048036038101906101b391906122fa565b61075a565b6040516101cb979695949392919061234e565b60405180910390f35b6101dc610841565b6040516101e991906123bb565b60405180910390f35b6101fa61084d565b005b610216600480360381019061021191906123d4565b61085f565b005b610232600480360381019061022d91906122fa565b610ba1565b005b61023c610d7b565b6040516102499190612412565b60405180910390f35b61025a610d91565b005b610276600480360381019061027191906123d4565b610da4565b005b610292600480360381019061028d91906122fa565b611106565b005b61029c61116f565b005b6102b860048036038101906102b3919061242b565b611181565b005b6102d460048036038101906102cf91906122fa565b611472565b6040516102e191906123bb565b60405180910390f35b6102f26114f8565b6040516102ff91906124a2565b60405180910390f35b610322600480360381019061031d919061226a565b611520565b60405161033294939291906122b7565b60405180910390f35b610355600480360381019061035091906122fa565b611557565b005b610371600480360381019061036c91906122fa565b611910565b60405161038699989796959493929190612516565b60405180910390f35b6103a960048036038101906103a491906123d4565b6119a4565b005b6103c560048036038101906103c091906125cb565b611b5f565b005b6103e160048036038101906103dc919061226a565b611c14565b6040516103ee91906123bb565b60405180910390f35b610411600480360381019061040c9190612609565b611cb5565b005b61041b611d39565b60405161042891906123bb565b60405180910390f35b5f5f5f5f85600454811061047a576040517f08c379a00000000000000000000000000000000000000000000000000000000081526004016104719061268e565b60405180910390fd5b5f60035f8981526020019081526020015f205f8873ffffffffffffffffffffffffffffffffffffffff1673ffffffffffffffffffffffffffffffffffffffff1681526020019081526020015f209050805f01546104d78989611c14565b826003015460025f8c81526020019081526020015f2060070154846003015461050091906126d9565b9550955095509550505092959194509250565b61051b611d3f565b806004548110610560576040517f08c379a00000000000000000000000000000000000000000000000000000000081526004016105579061268e565b60405180910390fd5b81335f60025f8481526020019081526020015f20905061057f83611472565b81600401819055504281600301819055505f73ffffffffffffffffffffffffffffffffffffffff168273ffffffffffffffffffffffffffffffffffffffff1614610633575f60035f8581526020019081526020015f205f8473ffffffffffffffffffffffffffffffffffffffff1673ffffffffffffffffffffffffffffffffffffffff1681526020019081526020015f20905061061c8484611c14565b816002018190555081600401548160010181905550505b5f60035f8781526020019081526020015f205f3373ffffffffffffffffffffffffffffffffffffffff1673ffffffffffffffffffffffffffffffffffffffff1681526020019081526020015f2090505f816002015490505f811115610749575f82600201819055506106f9338260025f8b81526020019081526020015f206001015f9054906101000a900473ffffffffffffffffffffffffffffffffffffffff1673ffffffffffffffffffffffffffffffffffffffff16611d8c9092919063ffffffff16565b863373ffffffffffffffffffffffffffffffffffffffff167fd6f2c8500df5b44f11e9e48b91ff9f1b9d81bc496d55570c2b1b75bf65243f518360405161074091906123bb565b60405180910390a35b505050505050610757611e0b565b50565b5f5f5f5f5f5f5f8760045481106107a6576040517f08c379a000000000000000000000000000000000000000000000000000000000815260040161079d9061268e565b60405180910390fd5b5f60025f8b81526020019081526020015f209050805f015f9054906101000a900473ffffffffffffffffffffffffffffffffffffffff16816001015f9054906101000a900473ffffffffffffffffffffffffffffffffffffffff168260020154836005015484600601548560070154866008015f9054906101000a900460ff1698509850985098509850985098505050919395979092949650565b670de0b6b3a764000081565b610855611e14565b61085d611e9b565b565b610867611d3f565b8160045481106108ac576040517f08c379a00000000000000000000000000000000000000000000000000000000081526004016108a39061268e565b60405180910390fd5b82335f60025f8481526020019081526020015f2090506108cb83611472565b81600401819055504281600301819055505f73ffffffffffffffffffffffffffffffffffffffff168273ffffffffffffffffffffffffffffffffffffffff161461097f575f60035f8581526020019081526020015f205f8473ffffffffffffffffffffffffffffffffffffffff1673ffffffffffffffffffffffffffffffffffffffff1681526020019081526020015f2090506109688484611c14565b816002018190555081600401548160010181905550505b5f85116109c1576040517f08c379a00000000000000000000000000000000000000000000000000000000081526004016109b890612756565b60405180910390fd5b5f60025f8881526020019081526020015f2090505f60035f8981526020019081526020015f205f3373ffffffffffffffffffffffffffffffffffffffff1673ffffffffffffffffffffffffffffffffffffffff1681526020019081526020015f20905086815f01541015610a6a576040517f08c379a0000000000000000000000000000000000000000000000000000000008152600401610a61906127be565b60405180910390fd5b81600701548160030154610a7e91906126d9565b421015610ac0576040517f08c379a0000000000000000000000000000000000000000000000000000000008152600401610ab790612826565b60405180910390fd5b86826005015f828254610ad39190612844565b9250508190555086815f015f828254610aec9190612844565b92505081905550610b403388845f015f9054906101000a900473ffffffffffffffffffffffffffffffffffffffff1673ffffffffffffffffffffffffffffffffffffffff16611d8c9092919063ffffffff16565b873373ffffffffffffffffffffffffffffffffffffffff167f92ccf450a286a957af52509bc1c9939d1a6a481783e142e41e2499f0bb66ebc689604051610b8791906123bb565b60405180910390a3505050505050610b9d611e0b565b5050565b610ba9611d3f565b806004548110610bee576040517f08c379a0000000000000000000000000000000000000000000000000000000008152600401610be59061268e565b60405180910390fd5b5f60035f8481526020019081526020015f205f3373ffffffffffffffffffffffffffffffffffffffff1673ffffffffffffffffffffffffffffffffffffffff1681526020019081526020015f2090505f815f015490505f8111610c86576040517f08c379a0000000000000000000000000000000000000000000000000000000008152600401610c7d906128c1565b60405180910390fd5b8060025f8681526020019081526020015f206005015f828254610ca99190612844565b925050819055505f825f01819055505f8260020181905550610d1e338260025f8881526020019081526020015f205f015f9054906101000a900473ffffffffffffffffffffffffffffffffffffffff1673ffffffffffffffffffffffffffffffffffffffff16611d8c9092919063ffffffff16565b833373ffffffffffffffffffffffffffffffffffffffff167f92ccf450a286a957af52509bc1c9939d1a6a481783e142e41e2499f0bb66ebc683604051610d6591906123bb565b60405180910390a3505050610d78611e0b565b50565b5f600160149054906101000a900460ff16905090565b610d99611e14565b610da25f611efd565b565b610dac611d3f565b610db4611fc0565b816004548110610df9576040517f08c379a0000000000000000000000000000000000000000000000000000000008152600401610df09061268e565b60405180910390fd5b8260025f8281526020019081526020015f206008015f9054906101000a900460ff16610e5a576040517f08c379a0000000000000000000000000000000000000000000000000000000008152600401610e5190612929565b60405180910390fd5b83335f60025f8481526020019081526020015f209050610e7983611472565b81600401819055504281600301819055505f73ffffffffffffffffffffffffffffffffffffffff168273ffffffffffffffffffffffffffffffffffffffff1614610f2d575f60035f8581526020019081526020015f205f8473ffffffffffffffffffffffffffffffffffffffff1673ffffffffffffffffffffffffffffffffffffffff1681526020019081526020015f209050610f168484611c14565b816002018190555081600401548160010181905550505b5f8611610f6f576040517f08c379a0000000000000000000000000000000000000000000000000000000008152600401610f6690612991565b60405180910390fd5b5f60025f8981526020019081526020015f2090505f60035f8a81526020019081526020015f205f3373ffffffffffffffffffffffffffffffffffffffff1673ffffffffffffffffffffffffffffffffffffffff1681526020019081526020015f2090508160060154881015611019576040517f08c379a0000000000000000000000000000000000000000000000000000000008152600401611010906129f9565b60405180910390fd5b87826005015f82825461102c91906126d9565b9250508190555087815f015f82825461104591906126d9565b925050819055504281600301819055506110a433308a855f015f9054906101000a900473ffffffffffffffffffffffffffffffffffffffff1673ffffffffffffffffffffffffffffffffffffffff1661200a909392919063ffffffff16565b883373ffffffffffffffffffffffffffffffffffffffff167f1449c6dd7851abc30abf37f57715f492010519147cc2652fbc38202c18a6ee908a6040516110eb91906123bb565b60405180910390a350505050505050611102611e0b565b5050565b5f60035f8381526020019081526020015f205f3373ffffffffffffffffffffffffffffffffffffffff1673ffffffffffffffffffffffffffffffffffffffff1681526020019081526020015f20905061116282825f015461085f565b61116b82610513565b5050565b611177611e14565b61117f61208c565b565b611189611e14565b5f73ffffffffffffffffffffffffffffffffffffffff168573ffffffffffffffffffffffffffffffffffffffff16036111f7576040517f08c379a00000000000000000000000000000000000000000000000000000000081526004016111ee90612a61565b60405180910390fd5b5f73ffffffffffffffffffffffffffffffffffffffff168473ffffffffffffffffffffffffffffffffffffffff1603611265576040517f08c379a000000000000000000000000000000000000000000000000000000000815260040161125c90612ac9565b60405180910390fd5b5f83116112a7576040517f08c379a000000000000000000000000000000000000000000000000000000000815260040161129e90612b57565b60405180910390fd5b6040518061012001604052808673ffffffffffffffffffffffffffffffffffffffff1681526020018573ffffffffffffffffffffffffffffffffffffffff1681526020018481526020014281526020015f81526020015f81526020018381526020018281526020016001151581525060025f60045481526020019081526020015f205f820151815f015f6101000a81548173ffffffffffffffffffffffffffffffffffffffff021916908373ffffffffffffffffffffffffffffffffffffffff1602179055506020820151816001015f6101000a81548173ffffffffffffffffffffffffffffffffffffffff021916908373ffffffffffffffffffffffffffffffffffffffff16021790555060408201518160020155606082015181600301556080820151816004015560a0820151816005015560c0820151816006015560e08201518160070155610100820151816008015f6101000a81548160ff0219169083151502179055509050506004547fb203c0a4a9d84ddde23dba31a828c25525b2e0b5fe6a0e356d983aed95961ca1868686868660405161144c959493929190612b75565b60405180910390a260045f81548092919061146690612bc6565b91905055505050505050565b5f5f60025f8481526020019081526020015f2090505f81600501540361149f5780600401549150506114f3565b8060050154670de0b6b3a764000082600201548360030154426114c29190612844565b6114cc9190612c0d565b6114d69190612c0d565b6114e09190612c7b565b81600401546114ef91906126d9565b9150505b919050565b5f60015f9054906101000a900473ffffffffffffffffffffffffffffffffffffffff16905090565b6003602052815f5260405f20602052805f5260405f205f9150915050805f0154908060010154908060020154908060030154905084565b61155f611d3f565b8060045481106115a4576040517f08c379a000000000000000000000000000000000000000000000000000000000815260040161159b9061268e565b60405180910390fd5b8160025f8281526020019081526020015f206008015f9054906101000a900460ff16611605576040517f08c379a00000000000000000000000000000000000000000000000000000000081526004016115fc90612929565b60405180910390fd5b82335f60025f8481526020019081526020015f20905061162483611472565b81600401819055504281600301819055505f73ffffffffffffffffffffffffffffffffffffffff168273ffffffffffffffffffffffffffffffffffffffff16146116d8575f60035f8581526020019081526020015f205f8473ffffffffffffffffffffffffffffffffffffffff1673ffffffffffffffffffffffffffffffffffffffff1681526020019081526020015f2090506116c18484611c14565b816002018190555081600401548160010181905550505b60025f8781526020019081526020015f206001015f9054906101000a900473ffffffffffffffffffffffffffffffffffffffff1673ffffffffffffffffffffffffffffffffffffffff1660025f8881526020019081526020015f205f015f9054906101000a900473ffffffffffffffffffffffffffffffffffffffff1673ffffffffffffffffffffffffffffffffffffffff16146117ab576040517f08c379a00000000000000000000000000000000000000000000000000000000081526004016117a290612cf5565b60405180910390fd5b5f60035f8881526020019081526020015f205f3373ffffffffffffffffffffffffffffffffffffffff1673ffffffffffffffffffffffffffffffffffffffff1681526020019081526020015f2090505f816002015490505f8111156118fe575f82600201819055508060025f8a81526020019081526020015f206005015f82825461183691906126d9565b9250508190555080825f015f82825461184f91906126d9565b92505081905550428260030181905550873373ffffffffffffffffffffffffffffffffffffffff167fd6f2c8500df5b44f11e9e48b91ff9f1b9d81bc496d55570c2b1b75bf65243f51836040516118a691906123bb565b60405180910390a3873373ffffffffffffffffffffffffffffffffffffffff167f1449c6dd7851abc30abf37f57715f492010519147cc2652fbc38202c18a6ee90836040516118f591906123bb565b60405180910390a35b5050505050505061190d611e0b565b50565b6002602052805f5260405f205f91509050805f015f9054906101000a900473ffffffffffffffffffffffffffffffffffffffff1690806001015f9054906101000a900473ffffffffffffffffffffffffffffffffffffffff1690806002015490806003015490806004015490806005015490806006015490806007015490806008015f9054906101000a900460ff16905089565b6119ac611e14565b8160045481106119f1576040517f08c379a00000000000000000000000000000000000000000000000000000000081526004016119e89061268e565b60405180910390fd5b825f5f60025f8481526020019081526020015f209050611a1083611472565b81600401819055504281600301819055505f73ffffffffffffffffffffffffffffffffffffffff168273ffffffffffffffffffffffffffffffffffffffff1614611ac4575f60035f8581526020019081526020015f205f8473ffffffffffffffffffffffffffffffffffffffff1673ffffffffffffffffffffffffffffffffffffffff1681526020019081526020015f209050611aad8484611c14565b816002018190555081600401548160010181905550505b5f8511611b06576040517f08c379a0000000000000000000000000000000000000000000000000000000008152600401611afd90612b57565b60405180910390fd5b8460025f8881526020019081526020015f2060020181905550857fc390a98ace15a7bb6bab611eedfdbb2685043b241a869420043cdfb23ccfee5086604051611b4f91906123bb565b60405180910390a2505050505050565b611b67611e14565b816004548110611bac576040517f08c379a0000000000000000000000000000000000000000000000000000000008152600401611ba39061268e565b60405180910390fd5b8160025f8581526020019081526020015f206008015f6101000a81548160ff021916908315150217905550827fb3c3c605d1520cd5bf41301dd5c04929e0ff021b02a10ea259b5a5b2d521a29c83604051611c079190612412565b60405180910390a2505050565b5f5f60035f8581526020019081526020015f205f8473ffffffffffffffffffffffffffffffffffffffff1673ffffffffffffffffffffffffffffffffffffffff1681526020019081526020015f2090508060020154670de0b6b3a76400008260010154611c8087611472565b611c8a9190612844565b835f0154611c989190612c0d565b611ca29190612c7b565b611cac91906126d9565b91505092915050565b611cbd611e14565b5f73ffffffffffffffffffffffffffffffffffffffff168173ffffffffffffffffffffffffffffffffffffffff1603611d2d575f6040517f1e4fbdf7000000000000000000000000000000000000000000000000000000008152600401611d2491906124a2565b60405180910390fd5b611d3681611efd565b50565b60045481565b60025f5403611d83576040517f08c379a0000000000000000000000000000000000000000000000000000000008152600401611d7a90612d5d565b60405180910390fd5b60025f81905550565b611e06838473ffffffffffffffffffffffffffffffffffffffff1663a9059cbb8585604051602401611dbf929190612d7b565b604051602081830303815290604052915060e01b6020820180517bffffffffffffffffffffffffffffffffffffffffffffffffffffffff83818316178352505050506120ee565b505050565b60015f81905550565b611e1c612189565b73ffffffffffffffffffffffffffffffffffffffff16611e3a6114f8565b73ffffffffffffffffffffffffffffffffffffffff1614611e9957611e5d612189565b6040517f118cdaa7000000000000000000000000000000000000000000000000000000008152600401611e9091906124a2565b60405180910390fd5b565b611ea3612190565b5f600160146101000a81548160ff0219169083151502179055507f5db9ee0a495bf2e6ff9c91a7834c1ba4fdd244a5e8aa4e537bd38aeae4b073aa611ee6612189565b604051611ef391906124a2565b60405180910390a1565b5f60015f9054906101000a900473ffffffffffffffffffffffffffffffffffffffff1690508160015f6101000a81548173ffffffffffffffffffffffffffffffffffffffff021916908373ffffffffffffffffffffffffffffffffffffffff1602179055508173ffffffffffffffffffffffffffffffffffffffff168173ffffffffffffffffffffffffffffffffffffffff167f8be0079c531659141344cd1fd0a4f28419497f9722a3daafe3b4186f6b6457e060405160405180910390a35050565b611fc8610d7b565b15612008576040517f08c379a0000000000000000000000000000000000000000000000000000000008152600401611fff90612dec565b60405180910390fd5b565b612086848573ffffffffffffffffffffffffffffffffffffffff166323b872dd86868660405160240161203f93929190612e0a565b604051602081830303815290604052915060e01b6020820180517bffffffffffffffffffffffffffffffffffffffffffffffffffffffff83818316178352505050506120ee565b50505050565b612094611fc0565b60018060146101000a81548160ff0219169083151502179055507f62e78cea01bee320cd4e420270b5ea74000d11b0c9f74754ebdbfc544b05a2586120d7612189565b6040516120e491906124a2565b60405180910390a1565b5f5f60205f8451602086015f885af18061210d576040513d5f823e3d81fd5b3d92505f519150505f8214612126576001811415612141565b5f8473ffffffffffffffffffffffffffffffffffffffff163b145b1561218357836040517f5274afe700000000000000000000000000000000000000000000000000000000815260040161217a91906124a2565b60405180910390fd5b50505050565b5f33905090565b612198610d7b565b6121d7576040517f08c379a00000000000000000000000000000000000000000000000000000000081526004016121ce90612e89565b60405180910390fd5b565b5f5ffd5b5f819050919050565b6121ef816121dd565b81146121f9575f5ffd5b50565b5f8135905061220a816121e6565b92915050565b5f73ffffffffffffffffffffffffffffffffffffffff82169050919050565b5f61223982612210565b9050919050565b6122498161222f565b8114612253575f5ffd5b50565b5f8135905061226481612240565b92915050565b5f5f604083850312156122805761227f6121d9565b5b5f61228d858286016121fc565b925050602061229e85828601612256565b9150509250929050565b6122b1816121dd565b82525050565b5f6080820190506122ca5f8301876122a8565b6122d760208301866122a8565b6122e460408301856122a8565b6122f160608301846122a8565b95945050505050565b5f6020828403121561230f5761230e6121d9565b5b5f61231c848285016121fc565b91505092915050565b61232e8161222f565b82525050565b5f8115159050919050565b61234881612334565b82525050565b5f60e0820190506123615f83018a612325565b61236e6020830189612325565b61237b60408301886122a8565b61238860608301876122a8565b61239560808301866122a8565b6123a260a08301856122a8565b6123af60c083018461233f565b98975050505050505050565b5f6020820190506123ce5f8301846122a8565b92915050565b5f5f604083850312156123ea576123e96121d9565b5b5f6123f7858286016121fc565b9250506020612408858286016121fc565b9150509250929050565b5f6020820190506124255f83018461233f565b92915050565b5f5f5f5f5f60a08688031215612444576124436121d9565b5b5f61245188828901612256565b955050602061246288828901612256565b9450506040612473888289016121fc565b9350506060612484888289016121fc565b9250506080612495888289016121fc565b9150509295509295909350565b5f6020820190506124b55f830184612325565b92915050565b5f819050919050565b5f6124de6124d96124d484612210565b6124bb565b612210565b9050919050565b5f6124ef826124c4565b9050919050565b5f612500826124e5565b9050919050565b612510816124f6565b82525050565b5f6101208201905061252a5f83018c612507565b612537602083018b612507565b612544604083018a6122a8565b61255160608301896122a8565b61255e60808301886122a8565b61256b60a08301876122a8565b61257860c08301866122a8565b61258560e08301856122a8565b61259361010083018461233f565b9a9950505050505050505050565b6125aa81612334565b81146125b4575f5ffd5b50565b5f813590506125c5816125a1565b92915050565b5f5f604083850312156125e1576125e06121d9565b5b5f6125ee858286016121fc565b92505060206125ff858286016125b7565b9150509250929050565b5f6020828403121561261e5761261d6121d9565b5b5f61262b84828501612256565b91505092915050565b5f82825260208201905092915050565b7f506f6f6c20646f6573206e6f74206578697374000000000000000000000000005f82015250565b5f612678601383612634565b915061268382612644565b602082019050919050565b5f6020820190508181035f8301526126a58161266c565b9050919050565b7f4e487b71000000000000000000000000000000000000000000000000000000005f52601160045260245ffd5b5f6126e3826121dd565b91506126ee836121dd565b9250828201905080821115612706576127056126ac565b5b92915050565b7f43616e6e6f7420776974686472617720300000000000000000000000000000005f82015250565b5f612740601183612634565b915061274b8261270c565b602082019050919050565b5f6020820190508181035f83015261276d81612734565b9050919050565b7f496e73756666696369656e742062616c616e63650000000000000000000000005f82015250565b5f6127a8601483612634565b91506127b382612774565b602082019050919050565b5f6020820190508181035f8301526127d58161279c565b9050919050565b7f546f6b656e7320617265207374696c6c206c6f636b65640000000000000000005f82015250565b5f612810601783612634565b915061281b826127dc565b602082019050919050565b5f6020820190508181035f83015261283d81612804565b9050919050565b5f61284e826121dd565b9150612859836121dd565b9250828203905081811115612871576128706126ac565b5b92915050565b7f4e6f20746f6b656e7320746f20776974686472617700000000000000000000005f82015250565b5f6128ab601583612634565b91506128b682612877565b602082019050919050565b5f6020820190508181035f8301526128d88161289f565b9050919050565b7f506f6f6c206973206e6f742061637469766500000000000000000000000000005f82015250565b5f612913601283612634565b915061291e826128df565b602082019050919050565b5f6020820190508181035f83015261294081612907565b9050919050565b7f43616e6e6f74207374616b6520300000000000000000000000000000000000005f82015250565b5f61297b600e83612634565b915061298682612947565b602082019050919050565b5f6020820190508181035f8301526129a88161296f565b9050919050565b7f416d6f756e742062656c6f77206d696e696d756d207374616b650000000000005f82015250565b5f6129e3601a83612634565b91506129ee826129af565b602082019050919050565b5f6020820190508181035f830152612a10816129d7565b9050919050565b7f496e76616c6964207374616b696e6720746f6b656e00000000000000000000005f82015250565b5f612a4b601583612634565b9150612a5682612a17565b602082019050919050565b5f6020820190508181035f830152612a7881612a3f565b9050919050565b7f496e76616c69642072657761726420746f6b656e0000000000000000000000005f82015250565b5f612ab3601483612634565b9150612abe82612a7f565b602082019050919050565b5f6020820190508181035f830152612ae081612aa7565b9050919050565b7f5265776172642072617465206d7573742062652067726561746572207468616e5f8201527f2030000000000000000000000000000000000000000000000000000000000000602082015250565b5f612b41602283612634565b9150612b4c82612ae7565b604082019050919050565b5f6020820190508181035f830152612b6e81612b35565b9050919050565b5f60a082019050612b885f830188612325565b612b956020830187612325565b612ba260408301866122a8565b612baf60608301856122a8565b612bbc60808301846122a8565b9695505050505050565b5f612bd0826121dd565b91507fffffffffffffffffffffffffffffffffffffffffffffffffffffffffffffffff8203612c0257612c016126ac565b5b600182019050919050565b5f612c17826121dd565b9150612c22836121dd565b9250828202612c30816121dd565b91508282048414831517612c4757612c466126ac565b5b5092915050565b7f4e487b71000000000000000000000000000000000000000000000000000000005f52601260045260245ffd5b5f612c85826121dd565b9150612c90836121dd565b925082612ca057612c9f612c4e565b5b828204905092915050565b7f43616e6e6f7420636f6d706f756e6420646966666572656e7420746f6b656e735f82015250565b5f612cdf602083612634565b9150612cea82612cab565b602082019050919050565b5f6020820190508181035f830152612d0c81612cd3565b9050919050565b7f5265656e7472616e637947756172643a207265656e7472616e742063616c6c005f82015250565b5f612d47601f83612634565b9150612d5282612d13565b602082019050919050565b5f6020820190508181035f830152612d7481612d3b565b9050919050565b5f604082019050612d8e5f830185612325565b612d9b60208301846122a8565b9392505050565b7f5061757361626c653a20706175736564000000000000000000000000000000005f82015250565b5f612dd6601083612634565b9150612de182612da2565b602082019050919050565b5f6020820190508181035f830152612e0381612dca565b9050919050565b5f606082019050612e1d5f830186612325565b612e2a6020830185612325565b612e3760408301846122a8565b949350505050565b7f5061757361626c653a206e6f74207061757365640000000000000000000000005f82015250565b5f612e73601483612634565b9150612e7e82612e3f565b602082019050919050565b5f6020820190508181035f830152612ea081612e67565b905091905056fea264697066735822122048955b86420344f9d49ca0ace674696553f984e6b7be37c8ea7a1db289cbf68164736f6c634300081e0033",
					"opcodes": "PUSH1 0x80 PUSH1 0x40 MSTORE CALLVALUE DUP1 ISZERO PUSH2 0xF JUMPI PUSH0 PUSH0 REVERT JUMPDEST POP CALLER PUSH1 0x1 PUSH0 DUP2 SWAP1 SSTORE POP PUSH0 PUSH20 0xFFFFFFFFFFFFFFFFFFFFFFFFFFFFFFFFFFFFFFFF AND DUP2 PUSH20 0xFFFFFFFFFFFFFFFFFFFFFFFFFFFFFFFFFFFFFFFF AND SUB PUSH2 0x88 JUMPI PUSH0 PUSH1 0x40 MLOAD PUSH32 0x1E4FBDF700000000000000000000000000000000000000000000000000000000 DUP2 MSTORE PUSH1 0x4 ADD PUSH2 0x7F SWAP2 SWAP1 PUSH2 0x1B9 JUMP JUMPDEST PUSH1 0x40 MLOAD DUP1 SWAP2 SUB SWAP1 REVERT JUMPDEST PUSH2 0x97 DUP2 PUSH2 0xB7 PUSH1 0x20 SHL PUSH1 0x20 SHR JUMP JUMPDEST POP PUSH0 PUSH1 0x1 PUSH1 0x14 PUSH2 0x100 EXP DUP2 SLOAD DUP2 PUSH1 0xFF MUL NOT AND SWAP1 DUP4 ISZERO ISZERO MUL OR SWAP1 SSTORE POP PUSH2 0x1D2 JUMP JUMPDEST PUSH0 PUSH1 0x1 PUSH0 SWAP1 SLOAD SWAP1 PUSH2 0x100 EXP SWAP1 DIV PUSH20 0xFFFFFFFFFFFFFFFFFFFFFFFFFFFFFFFFFFFFFFFF AND SWAP1 POP DUP2 PUSH1 0x1 PUSH0 PUSH2 0x100 EXP DUP2 SLOAD DUP2 PUSH20 0xFFFFFFFFFFFFFFFFFFFFFFFFFFFFFFFFFFFFFFFF MUL NOT AND SWAP1 DUP4 PUSH20 0xFFFFFFFFFFFFFFFFFFFFFFFFFFFFFFFFFFFFFFFF AND MUL OR SWAP1 SSTORE POP DUP2 PUSH20 0xFFFFFFFFFFFFFFFFFFFFFFFFFFFFFFFFFFFFFFFF AND DUP2 PUSH20 0xFFFFFFFFFFFFFFFFFFFFFFFFFFFFFFFFFFFFFFFF AND PUSH32 0x8BE0079C531659141344CD1FD0A4F28419497F9722A3DAAFE3B4186F6B6457E0 PUSH1 0x40 MLOAD PUSH1 0x40 MLOAD DUP1 SWAP2 SUB SWAP1 LOG3 POP POP JUMP JUMPDEST PUSH0 PUSH20 0xFFFFFFFFFFFFFFFFFFFFFFFFFFFFFFFFFFFFFFFF DUP3 AND SWAP1 POP SWAP2 SWAP1 POP JUMP JUMPDEST PUSH0 PUSH2 0x1A3 DUP3 PUSH2 0x17A JUMP JUMPDEST SWAP1 POP SWAP2 SWAP1 POP JUMP JUMPDEST PUSH2 0x1B3 DUP2 PUSH2 0x199 JUMP JUMPDEST DUP3 MSTORE POP POP JUMP JUMPDEST PUSH0 PUSH1 0x20 DUP3 ADD SWAP1 POP PUSH2 0x1CC PUSH0 DUP4 ADD DUP5 PUSH2 0x1AA JUMP JUMPDEST SWAP3 SWAP2 POP POP JUMP JUMPDEST PUSH2 0x2EDD DUP1 PUSH2 0x1DF PUSH0 CODECOPY PUSH0 RETURN INVALID PUSH1 0x80 PUSH1 0x40 MSTORE CALLVALUE DUP1 ISZERO PUSH2 0xF JUMPI PUSH0 PUSH0 REVERT JUMPDEST POP PUSH1 0x4 CALLDATASIZE LT PUSH2 0x14B JUMPI PUSH0 CALLDATALOAD PUSH1 0xE0 SHR DUP1 PUSH4 0x8456CB59 GT PUSH2 0xC1 JUMPI DUP1 PUSH4 0xAC4AFA38 GT PUSH2 0x7A JUMPI DUP1 PUSH4 0xAC4AFA38 EQ PUSH2 0x357 JUMPI DUP1 PUSH4 0xB32534CF EQ PUSH2 0x38F JUMPI DUP1 PUSH4 0xBBCAF3FE EQ PUSH2 0x3AB JUMPI DUP1 PUSH4 0xE39C08FC EQ PUSH2 0x3C7 JUMPI DUP1 PUSH4 0xF2FDE38B EQ PUSH2 0x3F7 JUMPI DUP1 PUSH4 0xF525CB68 EQ PUSH2 0x413 JUMPI PUSH2 0x14B JUMP JUMPDEST DUP1 PUSH4 0x8456CB59 EQ PUSH2 0x294 JUMPI DUP1 PUSH4 0x85AC165A EQ PUSH2 0x29E JUMPI DUP1 PUSH4 0x874C120B EQ PUSH2 0x2BA JUMPI DUP1 PUSH4 0x8DA5CB5B EQ PUSH2 0x2EA JUMPI DUP1 PUSH4 0x93F1A40B EQ PUSH2 0x308 JUMPI DUP1 PUSH4 0xAA5F7E26 EQ PUSH2 0x33B JUMPI PUSH2 0x14B JUMP JUMPDEST DUP1 PUSH4 0x441A3E70 GT PUSH2 0x113 JUMPI DUP1 PUSH4 0x441A3E70 EQ PUSH2 0x1FC JUMPI DUP1 PUSH4 0x5312EA8E EQ PUSH2 0x218 JUMPI DUP1 PUSH4 0x5C975ABB EQ PUSH2 0x234 JUMPI DUP1 PUSH4 0x715018A6 EQ PUSH2 0x252 JUMPI DUP1 PUSH4 0x7B0472F0 EQ PUSH2 0x25C JUMPI DUP1 PUSH4 0x7F8661A1 EQ PUSH2 0x278 JUMPI PUSH2 0x14B JUMP JUMPDEST DUP1 PUSH4 0x1069F3B5 EQ PUSH2 0x14F JUMPI DUP1 PUSH4 0x1C4B774B EQ PUSH2 0x182 JUMPI DUP1 PUSH4 0x2F380B35 EQ PUSH2 0x19E JUMPI DUP1 PUSH4 0x3D6AA5E1 EQ PUSH2 0x1D4 JUMPI DUP1 PUSH4 0x3F4BA83A EQ PUSH2 0x1F2 JUMPI JUMPDEST PUSH0 PUSH0 REVERT JUMPDEST PUSH2 0x169 PUSH1 0x4 DUP1 CALLDATASIZE SUB DUP2 ADD SWAP1 PUSH2 0x164 SWAP2 SWAP1 PUSH2 0x226A JUMP JUMPDEST PUSH2 0x431 JUMP JUMPDEST PUSH1 0x40 MLOAD PUSH2 0x179 SWAP5 SWAP4 SWAP3 SWAP2 SWAP1 PUSH2 0x22B7 JUMP JUMPDEST PUSH1 0x40 MLOAD DUP1 SWAP2 SUB SWAP1 RETURN JUMPDEST PUSH2 0x19C PUSH1 0x4 DUP1 CALLDATASIZE SUB DUP2 ADD SWAP1 PUSH2 0x197 SWAP2 SWAP1 PUSH2 0x22FA JUMP JUMPDEST PUSH2 0x513 JUMP JUMPDEST STOP JUMPDEST PUSH2 0x1B8 PUSH1 0x4 DUP1 CALLDATASIZE SUB DUP2 ADD SWAP1 PUSH2 0x1B3 SWAP2 SWAP1 PUSH2 0x22FA JUMP JUMPDEST PUSH2 0x75A JUMP JUMPDEST PUSH1 0x40 MLOAD PUSH2 0x1CB SWAP8 SWAP7 SWAP6 SWAP5 SWAP4 SWAP3 SWAP2 SWAP1 PUSH2 0x234E JUMP JUMPDEST PUSH1 0x40 MLOAD DUP1 SWAP2 SUB SWAP1 RETURN JUMPDEST PUSH2 0x1DC PUSH2 0x841 JUMP JUMPDEST PUSH1 0x40 MLOAD PUSH2 0x1E9 SWAP2 SWAP1 PUSH2 0x23BB JUMP JUMPDEST PUSH1 0x40 MLOAD DUP1 SWAP2 SUB SWAP1 RETURN JUMPDEST PUSH2 0x1FA PUSH2 0x84D JUMP JUMPDEST STOP JUMPDEST PUSH2 0x216 PUSH1 0x4 DUP1 CALLDATASIZE SUB DUP2 ADD SWAP1 PUSH2 0x211 SWAP2 SWAP1 PUSH2 0x23D4 JUMP JUMPDEST PUSH2 0x85F JUMP JUMPDEST STOP JUMPDEST PUSH2 0x232 PUSH1 0x4 DUP1 CALLDATASIZE SUB DUP2 ADD SWAP1 PUSH2 0x22D SWAP2 SWAP1 PUSH2 0x22FA JUMP JUMPDEST PUSH2 0xBA1 JUMP JUMPDEST STOP JUMPDEST PUSH2 0x23C PUSH2 0xD7B JUMP JUMPDEST PUSH1 0x40 MLOAD PUSH2 0x249 SWAP2 SWAP1 PUSH2 0x2412 JUMP JUMPDEST PUSH1 0x40 MLOAD DUP1 SWAP2 SUB SWAP1 RETURN JUMPDEST PUSH2 0x25A PUSH2 0xD91 JUMP JUMPDEST STOP JUMPDEST PUSH2 0x276 PUSH1 0x4 DUP1 CALLDATASIZE SUB DUP2 ADD SWAP1 PUSH2 0x271 SWAP2 SWAP1 PUSH2 0x23D4 JUMP JUMPDEST PUSH2 0xDA4 JUMP JUMPDEST STOP JUMPDEST PUSH2 0x292 PUSH1 0x4 DUP1 CALLDATASIZE SUB DUP2 ADD SWAP1 PUSH2 0x28D SWAP2 SWAP1 PUSH2 0x22FA JUMP JUMPDEST PUSH2 0x1106 JUMP JUMPDEST STOP JUMPDEST PUSH2 0x29C PUSH2 0x116F JUMP JUMPDEST STOP JUMPDEST PUSH2 0x2B8 PUSH1 0x4 DUP1 CALLDATASIZE SUB DUP2 ADD SWAP1 PUSH2 0x2B3 SWAP2 SWAP1 PUSH2 0x242B JUMP JUMPDEST PUSH2 0x1181 JUMP JUMPDEST STOP JUMPDEST PUSH2 0x2D4 PUSH1 0x4 DUP1 CALLDATASIZE SUB DUP2 ADD SWAP1 PUSH2 0x2CF SWAP2 SWAP1 PUSH2 0x22FA JUMP JUMPDEST PUSH2 0x1472 JUMP JUMPDEST PUSH1 0x40 MLOAD PUSH2 0x2E1 SWAP2 SWAP1 PUSH2 0x23BB JUMP JUMPDEST PUSH1 0x40 MLOAD DUP1 SWAP2 SUB SWAP1 RETURN JUMPDEST PUSH2 0x2F2 PUSH2 0x14F8 JUMP JUMPDEST PUSH1 0x40 MLOAD PUSH2 0x2FF SWAP2 SWAP1 PUSH2 0x24A2 JUMP JUMPDEST PUSH1 0x40 MLOAD DUP1 SWAP2 SUB SWAP1 RETURN JUMPDEST PUSH2 0x322 PUSH1 0x4 DUP1 CALLDATASIZE SUB DUP2 ADD SWAP1 PUSH2 0x31D SWAP2 SWAP1 PUSH2 0x226A JUMP JUMPDEST PUSH2 0x1520 JUMP JUMPDEST PUSH1 0x40 MLOAD PUSH2 0x332 SWAP5 SWAP4 SWAP3 SWAP2 SWAP1 PUSH2 0x22B7 JUMP JUMPDEST PUSH1 0x40 MLOAD DUP1 SWAP2 SUB SWAP1 RETURN JUMPDEST PUSH2 0x355 PUSH1 0x4 DUP1 CALLDATASIZE SUB DUP2 ADD SWAP1 PUSH2 0x350 SWAP2 SWAP1 PUSH2 0x22FA JUMP JUMPDEST PUSH2 0x1557 JUMP JUMPDEST STOP JUMPDEST PUSH2 0x371 PUSH1 0x4 DUP1 CALLDATASIZE SUB DUP2 ADD SWAP1 PUSH2 0x36C SWAP2 SWAP1 PUSH2 0x22FA JUMP JUMPDEST PUSH2 0x1910 JUMP JUMPDEST PUSH1 0x40 MLOAD PUSH2 0x386 SWAP10 SWAP9 SWAP8 SWAP7 SWAP6 SWAP5 SWAP4 SWAP3 SWAP2 SWAP1 PUSH2 0x2516 JUMP JUMPDEST PUSH1 0x40 MLOAD DUP1 SWAP2 SUB SWAP1 RETURN JUMPDEST PUSH2 0x3A9 PUSH1 0x4 DUP1 CALLDATASIZE SUB DUP2 ADD SWAP1 PUSH2 0x3A4 SWAP2 SWAP1 PUSH2 0x23D4 JUMP JUMPDEST PUSH2 0x19A4 JUMP JUMPDEST STOP JUMPDEST PUSH2 0x3C5 PUSH1 0x4 DUP1 CALLDATASIZE SUB DUP2 ADD SWAP1 PUSH2 0x3C0 SWAP2 SWAP1 PUSH2 0x25CB JUMP JUMPDEST PUSH2 0x1B5F JUMP JUMPDEST STOP JUMPDEST PUSH2 0x3E1 PUSH1 0x4 DUP1 CALLDATASIZE SUB DUP2 ADD SWAP1 PUSH2 0x3DC SWAP2 SWAP1 PUSH2 0x226A JUMP JUMPDEST PUSH2 0x1C14 JUMP JUMPDEST PUSH1 0x40 MLOAD PUSH2 0x3EE SWAP2 SWAP1 PUSH2 0x23BB JUMP JUMPDEST PUSH1 0x40 MLOAD DUP1 SWAP2 SUB SWAP1 RETURN JUMPDEST PUSH2 0x411 PUSH1 0x4 DUP1 CALLDATASIZE SUB DUP2 ADD SWAP1 PUSH2 0x40C SWAP2 SWAP1 PUSH2 0x2609 JUMP JUMPDEST PUSH2 0x1CB5 JUMP JUMPDEST STOP JUMPDEST PUSH2 0x41B PUSH2 0x1D39 JUMP JUMPDEST PUSH1 0x40 MLOAD PUSH2 0x428 SWAP2 SWAP1 PUSH2 0x23BB JUMP JUMPDEST PUSH1 0x40 MLOAD DUP1 SWAP2 SUB SWAP1 RETURN JUMPDEST PUSH0 PUSH0 PUSH0 PUSH0 DUP6 PUSH1 0x4 SLOAD DUP2 LT PUSH2 0x47A JUMPI PUSH1 0x40 MLOAD PUSH32 0x8C379A000000000000000000000000000000000000000000000000000000000 DUP2 MSTORE PUSH1 0x4 ADD PUSH2 0x471 SWAP1 PUSH2 0x268E JUMP JUMPDEST PUSH1 0x40 MLOAD DUP1 SWAP2 SUB SWAP1 REVERT JUMPDEST PUSH0 PUSH1 0x3 PUSH0 DUP10 DUP2 MSTORE PUSH1 0x20 ADD SWAP1 DUP2 MSTORE PUSH1 0x20 ADD PUSH0 KECCAK256 PUSH0 DUP9 PUSH20 0xFFFFFFFFFFFFFFFFFFFFFFFFFFFFFFFFFFFFFFFF AND PUSH20 0xFFFFFFFFFFFFFFFFFFFFFFFFFFFFFFFFFFFFFFFF AND DUP2 MSTORE PUSH1 0x20 ADD SWAP1 DUP2 MSTORE PUSH1 0x20 ADD PUSH0 KECCAK256 SWAP1 POP DUP1 PUSH0 ADD SLOAD PUSH2 0x4D7 DUP10 DUP10 PUSH2 0x1C14 JUMP JUMPDEST DUP3 PUSH1 0x3 ADD SLOAD PUSH1 0x2 PUSH0 DUP13 DUP2 MSTORE PUSH1 0x20 ADD SWAP1 DUP2 MSTORE PUSH1 0x20 ADD PUSH0 KECCAK256 PUSH1 0x7 ADD SLOAD DUP5 PUSH1 0x3 ADD SLOAD PUSH2 0x500 SWAP2 SWAP1 PUSH2 0x26D9 JUMP JUMPDEST SWAP6 POP SWAP6 POP SWAP6 POP SWAP6 POP POP POP SWAP3 SWAP6 SWAP2 SWAP5 POP SWAP3 POP JUMP JUMPDEST PUSH2 0x51B PUSH2 0x1D3F JUMP JUMPDEST DUP1 PUSH1 0x4 SLOAD DUP2 LT PUSH2 0x560 JUMPI PUSH1 0x40 MLOAD PUSH32 0x8C379A000000000000000000000000000000000000000000000000000000000 DUP2 MSTORE PUSH1 0x4 ADD PUSH2 0x557 SWAP1 PUSH2 0x268E JUMP JUMPDEST PUSH1 0x40 MLOAD DUP1 SWAP2 SUB SWAP1 REVERT JUMPDEST DUP2 CALLER PUSH0 PUSH1 0x2 PUSH0 DUP5 DUP2 MSTORE PUSH1 0x20 ADD SWAP1 DUP2 MSTORE PUSH1 0x20 ADD PUSH0 KECCAK256 SWAP1 POP PUSH2 0x57F DUP4 PUSH2 0x1472 JUMP JUMPDEST DUP2 PUSH1 0x4 ADD DUP2 SWAP1 SSTORE POP TIMESTAMP DUP2 PUSH1 0x3 ADD DUP2 SWAP1 SSTORE POP PUSH0 PUSH20 0xFFFFFFFFFFFFFFFFFFFFFFFFFFFFFFFFFFFFFFFF AND DUP3 PUSH20 0xFFFFFFFFFFFFFFFFFFFFFFFFFFFFFFFFFFFFFFFF AND EQ PUSH2 0x633 JUMPI PUSH0 PUSH1 0x3 PUSH0 DUP6 DUP2 MSTORE PUSH1 0x20 ADD SWAP1 DUP2 MSTORE PUSH1 0x20 ADD PUSH0 KECCAK256 PUSH0 DUP5 PUSH20 0xFFFFFFFFFFFFFFFFFFFFFFFFFFFFFFFFFFFFFFFF AND PUSH20 0xFFFFFFFFFFFFFFFFFFFFFFFFFFFFFFFFFFFFFFFF AND DUP2 MSTORE PUSH1 0x20 ADD SWAP1 DUP2 MSTORE PUSH1 0x20 ADD PUSH0 KECCAK256 SWAP1 POP PUSH2 0x61C DUP5 DUP5 PUSH2 0x1C14 JUMP JUMPDEST DUP2 PUSH1 0x2 ADD DUP2 SWAP1 SSTORE POP DUP2 PUSH1 0x4 ADD SLOAD DUP2 PUSH1 0x1 ADD DUP2 SWAP1 SSTORE POP POP JUMPDEST PUSH0 PUSH1 0x3 PUSH0 DUP8 DUP2 MSTORE PUSH1 0x20 ADD SWAP1 DUP2 MSTORE PUSH1 0x20 ADD PUSH0 KECCAK256 PUSH0 CALLER PUSH20 0xFFFFFFFFFFFFFFFFFFFFFFFFFFFFFFFFFFFFFFFF AND PUSH20 0xFFFFFFFFFFFFFFFFFFFFFFFFFFFFFFFFFFFFFFFF AND DUP2 MSTORE PUSH1 0x20 ADD SWAP1 DUP2 MSTORE PUSH1 0x20 ADD PUSH0 KECCAK256 SWAP1 POP PUSH0 DUP2 PUSH1 0x2 ADD SLOAD SWAP1 POP PUSH0 DUP2 GT ISZERO PUSH2 0x749 JUMPI PUSH0 DUP3 PUSH1 0x2 ADD DUP2 SWAP1 SSTORE POP PUSH2 0x6F9 CALLER DUP3 PUSH1 0x2 PUSH0 DUP12 DUP2 MSTORE PUSH1 0x20 ADD SWAP1 DUP2 MSTORE PUSH1 0x20 ADD PUSH0 KECCAK256 PUSH1 0x1 ADD PUSH0 SWAP1 SLOAD SWAP1 PUSH2 0x100 EXP SWAP1 DIV PUSH20 0xFFFFFFFFFFFFFFFFFFFFFFFFFFFFFFFFFFFFFFFF AND PUSH20 0xFFFFFFFFFFFFFFFFFFFFFFFFFFFFFFFFFFFFFFFF AND PUSH2 0x1D8C SWAP1 SWAP3 SWAP2 SWAP1 PUSH4 0xFFFFFFFF AND JUMP JUMPDEST DUP7 CALLER PUSH20 0xFFFFFFFFFFFFFFFFFFFFFFFFFFFFFFFFFFFFFFFF AND PUSH32 0xD6F2C8500DF5B44F11E9E48B91FF9F1B9D81BC496D55570C2B1B75BF65243F51 DUP4 PUSH1 0x40 MLOAD PUSH2 0x740 SWAP2 SWAP1 PUSH2 0x23BB JUMP JUMPDEST PUSH1 0x40 MLOAD DUP1 SWAP2 SUB SWAP1 LOG3 JUMPDEST POP POP POP POP POP POP PUSH2 0x757 PUSH2 0x1E0B JUMP JUMPDEST POP JUMP JUMPDEST PUSH0 PUSH0 PUSH0 PUSH0 PUSH0 PUSH0 PUSH0 DUP8 PUSH1 0x4 SLOAD DUP2 LT PUSH2 0x7A6 JUMPI PUSH1 0x40 MLOAD PUSH32 0x8C379A000000000000000000000000000000000000000000000000000000000 DUP2 MSTORE PUSH1 0x4 ADD PUSH2 0x79D SWAP1 PUSH2 0x268E JUMP JUMPDEST PUSH1 0x40 MLOAD DUP1 SWAP2 SUB SWAP1 REVERT JUMPDEST PUSH0 PUSH1 0x2 PUSH0 DUP12 DUP2 MSTORE PUSH1 0x20 ADD SWAP1 DUP2 MSTORE PUSH1 0x20 ADD PUSH0 KECCAK256 SWAP1 POP DUP1 PUSH0 ADD PUSH0 SWAP1 SLOAD SWAP1 PUSH2 0x100 EXP SWAP1 DIV PUSH20 0xFFFFFFFFFFFFFFFFFFFFFFFFFFFFFFFFFFFFFFFF AND DUP2 PUSH1 0x1 ADD PUSH0 SWAP1 SLOAD SWAP1 PUSH2 0x100 EXP SWAP1 DIV PUSH20 0xFFFFFFFFFFFFFFFFFFFFFFFFFFFFFFFFFFFFFFFF AND DUP3 PUSH1 0x2 ADD SLOAD DUP4 PUSH1 0x5 ADD SLOAD DUP5 PUSH1 0x6 ADD SLOAD DUP6 PUSH1 0x7 ADD SLOAD DUP7 PUSH1 0x8 ADD PUSH0 SWAP1 SLOAD SWAP1 PUSH2 0x100 EXP SWAP1 DIV PUSH1 0xFF AND SWAP9 POP SWAP9 POP SWAP9 POP SWAP9 POP SWAP9 POP SWAP9 POP SWAP9 POP POP POP SWAP2 SWAP4 SWAP6 SWAP8 SWAP1 SWAP3 SWAP5 SWAP7 POP JUMP JUMPDEST PUSH8 0xDE0B6B3A7640000 DUP2 JUMP JUMPDEST PUSH2 0x855 PUSH2 0x1E14 JUMP JUMPDEST PUSH2 0x85D PUSH2 0x1E9B JUMP JUMPDEST JUMP JUMPDEST PUSH2 0x867 PUSH2 0x1D3F JUMP JUMPDEST DUP2 PUSH1 0x4 SLOAD DUP2 LT PUSH2 0x8AC JUMPI PUSH1 0x40 MLOAD PUSH32 0x8C379A000000000000000000000000000000000000000000000000000000000 DUP2 MSTORE PUSH1 0x4 ADD PUSH2 0x8A3 SWAP1 PUSH2 0x268E JUMP JUMPDEST PUSH1 0x40 MLOAD DUP1 SWAP2 SUB SWAP1 REVERT JUMPDEST DUP3 CALLER PUSH0 PUSH1 0x2 PUSH0 DUP5 DUP2 MSTORE PUSH1 0x20 ADD SWAP1 DUP2 MSTORE PUSH1 0x20 ADD PUSH0 KECCAK256 SWAP1 POP PUSH2 0x8CB DUP4 PUSH2 0x1472 JUMP JUMPDEST DUP2 PUSH1 0x4 ADD DUP2 SWAP1 SSTORE POP TIMESTAMP DUP2 PUSH1 0x3 ADD DUP2 SWAP1 SSTORE POP PUSH0 PUSH20 0xFFFFFFFFFFFFFFFFFFFFFFFFFFFFFFFFFFFFFFFF AND DUP3 PUSH20 0xFFFFFFFFFFFFFFFFFFFFFFFFFFFFFFFFFFFFFFFF AND EQ PUSH2 0x97F JUMPI PUSH0 PUSH1 0x3 PUSH0 DUP6 DUP2 MSTORE PUSH1 0x20 ADD SWAP1 DUP2 MSTORE PUSH1 0x20 ADD PUSH0 KECCAK256 PUSH0 DUP5 PUSH20 0xFFFFFFFFFFFFFFFFFFFFFFFFFFFFFFFFFFFFFFFF AND PUSH20 0xFFFFFFFFFFFFFFFFFFFFFFFFFFFFFFFFFFFFFFFF AND DUP2 MSTORE PUSH1 0x20 ADD SWAP1 DUP2 MSTORE PUSH1 0x20 ADD PUSH0 KECCAK256 SWAP1 POP PUSH2 0x968 DUP5 DUP5 PUSH2 0x1C14 JUMP JUMPDEST DUP2 PUSH1 0x2 ADD DUP2 SWAP1 SSTORE POP DUP2 PUSH1 0x4 ADD SLOAD DUP2 PUSH1 0x1 ADD DUP2 SWAP1 SSTORE POP POP JUMPDEST PUSH0 DUP6 GT PUSH2 0x9C1 JUMPI PUSH1 0x40 MLOAD PUSH32 0x8C379A000000000000000000000000000000000000000000000000000000000 DUP2 MSTORE PUSH1 0x4 ADD PUSH2 0x9B8 SWAP1 PUSH2 0x2756 JUMP JUMPDEST PUSH1 0x40 MLOAD DUP1 SWAP2 SUB SWAP1 REVERT JUMPDEST PUSH0 PUSH1 0x2 PUSH0 DUP9 DUP2 MSTORE PUSH1 0x20 ADD SWAP1 DUP2 MSTORE PUSH1 0x20 ADD PUSH0 KECCAK256 SWAP1 POP PUSH0 PUSH1 0x3 PUSH0 DUP10 DUP2 MSTORE PUSH1 0x20 ADD SWAP1 DUP2 MSTORE PUSH1 0x20 ADD PUSH0 KECCAK256 PUSH0 CALLER PUSH20 0xFFFFFFFFFFFFFFFFFFFFFFFFFFFFFFFFFFFFFFFF AND PUSH20 0xFFFFFFFFFFFFFFFFFFFFFFFFFFFFFFFFFFFFFFFF AND DUP2 MSTORE PUSH1 0x20 ADD SWAP1 DUP2 MSTORE PUSH1 0x20 ADD PUSH0 KECCAK256 SWAP1 POP DUP7 DUP2 PUSH0 ADD SLOAD LT ISZERO PUSH2 0xA6A JUMPI PUSH1 0x40 MLOAD PUSH32 0x8C379A000000000000000000000000000000000000000000000000000000000 DUP2 MSTORE PUSH1 0x4 ADD PUSH2 0xA61 SWAP1 PUSH2 0x27BE JUMP JUMPDEST PUSH1 0x40 MLOAD DUP1 SWAP2 SUB SWAP1 REVERT JUMPDEST DUP2 PUSH1 0x7 ADD SLOAD DUP2 PUSH1 0x3 ADD SLOAD PUSH2 0xA7E SWAP2 SWAP1 PUSH2 0x26D9 JUMP JUMPDEST TIMESTAMP LT ISZERO PUSH2 0xAC0 JUMPI PUSH1 0x40 MLOAD PUSH32 0x8C379A000000000000000000000000000000000000000000000000000000000 DUP2 MSTORE PUSH1 0x4 ADD PUSH2 0xAB7 SWAP1 PUSH2 0x2826 JUMP JUMPDEST PUSH1 0x40 MLOAD DUP1 SWAP2 SUB SWAP1 REVERT JUMPDEST DUP7 DUP3 PUSH1 0x5 ADD PUSH0 DUP3 DUP3 SLOAD PUSH2 0xAD3 SWAP2 SWAP1 PUSH2 0x2844 JUMP JUMPDEST SWAP3 POP POP DUP2 SWAP1 SSTORE POP DUP7 DUP2 PUSH0 ADD PUSH0 DUP3 DUP3 SLOAD PUSH2 0xAEC SWAP2 SWAP1 PUSH2 0x2844 JUMP JUMPDEST SWAP3 POP POP DUP2 SWAP1 SSTORE POP PUSH2 0xB40 CALLER DUP9 DUP5 PUSH0 ADD PUSH0 SWAP1 SLOAD SWAP1 PUSH2 0x100 EXP SWAP1 DIV PUSH20 0xFFFFFFFFFFFFFFFFFFFFFFFFFFFFFFFFFFFFFFFF AND PUSH20 0xFFFFFFFFFFFFFFFFFFFFFFFFFFFFFFFFFFFFFFFF AND PUSH2 0x1D8C SWAP1 SWAP3 SWAP2 SWAP1 PUSH4 0xFFFFFFFF AND JUMP JUMPDEST DUP8 CALLER PUSH20 0xFFFFFFFFFFFFFFFFFFFFFFFFFFFFFFFFFFFFFFFF AND PUSH32 0x92CCF450A286A957AF52509BC1C9939D1A6A481783E142E41E2499F0BB66EBC6 DUP10 PUSH1 0x40 MLOAD PUSH2 0xB87 SWAP2 SWAP1 PUSH2 0x23BB JUMP JUMPDEST PUSH1 0x40 MLOAD DUP1 SWAP2 SUB SWAP1 LOG3 POP POP POP POP POP POP PUSH2 0xB9D PUSH2 0x1E0B JUMP JUMPDEST POP POP JUMP JUMPDEST PUSH2 0xBA9 PUSH2 0x1D3F JUMP JUMPDEST DUP1 PUSH1 0x4 SLOAD DUP2 LT PUSH2 0xBEE JUMPI PUSH1 0x40 MLOAD PUSH32 0x8C379A000000000000000000000000000000000000000000000000000000000 DUP2 MSTORE PUSH1 0x4 ADD PUSH2 0xBE5 SWAP1 PUSH2 0x268E JUMP JUMPDEST PUSH1 0x40 MLOAD DUP1 SWAP2 SUB SWAP1 REVERT JUMPDEST PUSH0 PUSH1 0x3 PUSH0 DUP5 DUP2 MSTORE PUSH1 0x20 ADD SWAP1 DUP2 MSTORE PUSH1 0x20 ADD PUSH0 KECCAK256 PUSH0 CALLER PUSH20 0xFFFFFFFFFFFFFFFFFFFFFFFFFFFFFFFFFFFFFFFF AND PUSH20 0xFFFFFFFFFFFFFFFFFFFFFFFFFFFFFFFFFFFFFFFF AND DUP2 MSTORE PUSH1 0x20 ADD SWAP1 DUP2 MSTORE PUSH1 0x20 ADD PUSH0 KECCAK256 SWAP1 POP PUSH0 DUP2 PUSH0 ADD SLOAD SWAP1 POP PUSH0 DUP2 GT PUSH2 0xC86 JUMPI PUSH1 0x40 MLOAD PUSH32 0x8C379A000000000000000000000000000000000000000000000000000000000 DUP2 MSTORE PUSH1 0x4 ADD PUSH2 0xC7D SWAP1 PUSH2 0x28C1 JUMP JUMPDEST PUSH1 0x40 MLOAD DUP1 SWAP2 SUB SWAP1 REVERT JUMPDEST DUP1 PUSH1 0x2 PUSH0 DUP7 DUP2 MSTORE PUSH1 0x20 ADD SWAP1 DUP2 MSTORE PUSH1 0x20 ADD PUSH0 KECCAK256 PUSH1 0x5 ADD PUSH0 DUP3 DUP3 SLOAD PUSH2 0xCA9 SWAP2 SWAP1 PUSH2 0x2844 JUMP JUMPDEST SWAP3 POP POP DUP2 SWAP1 SSTORE POP PUSH0 DUP3 PUSH0 ADD DUP2 SWAP1 SSTORE POP PUSH0 DUP3 PUSH1 0x2 ADD DUP2 SWAP1 SSTORE POP PUSH2 0xD1E CALLER DUP3 PUSH1 0x2 PUSH0 DUP9 DUP2 MSTORE PUSH1 0x20 ADD SWAP1 DUP2 MSTORE PUSH1 0x20 ADD PUSH0 KECCAK256 PUSH0 ADD PUSH0 SWAP1 SLOAD SWAP1 PUSH2 0x100 EXP SWAP1 DIV PUSH20 0xFFFFFFFFFFFFFFFFFFFFFFFFFFFFFFFFFFFFFFFF AND PUSH20 0xFFFFFFFFFFFFFFFFFFFFFFFFFFFFFFFFFFFFFFFF AND PUSH2 0x1D8C SWAP1 SWAP3 SWAP2 SWAP1 PUSH4 0xFFFFFFFF AND JUMP JUMPDEST DUP4 CALLER PUSH20 0xFFFFFFFFFFFFFFFFFFFFFFFFFFFFFFFFFFFFFFFF AND PUSH32 0x92CCF450A286A957AF52509BC1C9939D1A6A481783E142E41E2499F0BB66EBC6 DUP4 PUSH1 0x40 MLOAD PUSH2 0xD65 SWAP2 SWAP1 PUSH2 0x23BB JUMP JUMPDEST PUSH1 0x40 MLOAD DUP1 SWAP2 SUB SWAP1 LOG3 POP POP POP PUSH2 0xD78 PUSH2 0x1E0B JUMP JUMPDEST POP JUMP JUMPDEST PUSH0 PUSH1 0x1 PUSH1 0x14 SWAP1 SLOAD SWAP1 PUSH2 0x100 EXP SWAP1 DIV PUSH1 0xFF AND SWAP1 POP SWAP1 JUMP JUMPDEST PUSH2 0xD99 PUSH2 0x1E14 JUMP JUMPDEST PUSH2 0xDA2 PUSH0 PUSH2 0x1EFD JUMP JUMPDEST JUMP JUMPDEST PUSH2 0xDAC PUSH2 0x1D3F JUMP JUMPDEST PUSH2 0xDB4 PUSH2 0x1FC0 JUMP JUMPDEST DUP2 PUSH1 0x4 SLOAD DUP2 LT PUSH2 0xDF9 JUMPI PUSH1 0x40 MLOAD PUSH32 0x8C379A000000000000000000000000000000000000000000000000000000000 DUP2 MSTORE PUSH1 0x4 ADD PUSH2 0xDF0 SWAP1 PUSH2 0x268E JUMP JUMPDEST PUSH1 0x40 MLOAD DUP1 SWAP2 SUB SWAP1 REVERT JUMPDEST DUP3 PUSH1 0x2 PUSH0 DUP3 DUP2 MSTORE PUSH1 0x20 ADD SWAP1 DUP2 MSTORE PUSH1 0x20 ADD PUSH0 KECCAK256 PUSH1 0x8 ADD PUSH0 SWAP1 SLOAD SWAP1 PUSH2 0x100 EXP SWAP1 DIV PUSH1 0xFF AND PUSH2 0xE5A JUMPI PUSH1 0x40 MLOAD PUSH32 0x8C379A000000000000000000000000000000000000000000000000000000000 DUP2 MSTORE PUSH1 0x4 ADD PUSH2 0xE51 SWAP1 PUSH2 0x2929 JUMP JUMPDEST PUSH1 0x40 MLOAD DUP1 SWAP2 SUB SWAP1 REVERT JUMPDEST DUP4 CALLER PUSH0 PUSH1 0x2 PUSH0 DUP5 DUP2 MSTORE PUSH1 0x20 ADD SWAP1 DUP2 MSTORE PUSH1 0x20 ADD PUSH0 KECCAK256 SWAP1 POP PUSH2 0xE79 DUP4 PUSH2 0x1472 JUMP JUMPDEST DUP2 PUSH1 0x4 ADD DUP2 SWAP1 SSTORE POP TIMESTAMP DUP2 PUSH1 0x3 ADD DUP2 SWAP1 SSTORE POP PUSH0 PUSH20 0xFFFFFFFFFFFFFFFFFFFFFFFFFFFFFFFFFFFFFFFF AND DUP3 PUSH20 0xFFFFFFFFFFFFFFFFFFFFFFFFFFFFFFFFFFFFFFFF AND EQ PUSH2 0xF2D JUMPI PUSH0 PUSH1 0x3 PUSH0 DUP6 DUP2 MSTORE PUSH1 0x20 ADD SWAP1 DUP2 MSTORE PUSH1 0x20 ADD PUSH0 KECCAK256 PUSH0 DUP5 PUSH20 0xFFFFFFFFFFFFFFFFFFFFFFFFFFFFFFFFFFFFFFFF AND PUSH20 0xFFFFFFFFFFFFFFFFFFFFFFFFFFFFFFFFFFFFFFFF AND DUP2 MSTORE PUSH1 0x20 ADD SWAP1 DUP2 MSTORE PUSH1 0x20 ADD PUSH0 KECCAK256 SWAP1 POP PUSH2 0xF16 DUP5 DUP5 PUSH2 0x1C14 JUMP JUMPDEST DUP2 PUSH1 0x2 ADD DUP2 SWAP1 SSTORE POP DUP2 PUSH1 0x4 ADD SLOAD DUP2 PUSH1 0x1 ADD DUP2 SWAP1 SSTORE POP POP JUMPDEST PUSH0 DUP7 GT PUSH2 0xF6F JUMPI PUSH1 0x40 MLOAD PUSH32 0x8C379A000000000000000000000000000000000000000000000000000000000 DUP2 MSTORE PUSH1 0x4 ADD PUSH2 0xF66 SWAP1 PUSH2 0x2991 JUMP JUMPDEST PUSH1 0x40 MLOAD DUP1 SWAP2 SUB SWAP1 REVERT JUMPDEST PUSH0 PUSH1 0x2 PUSH0 DUP10 DUP2 MSTORE PUSH1 0x20 ADD SWAP1 DUP2 MSTORE PUSH1 0x20 ADD PUSH0 KECCAK256 SWAP1 POP PUSH0 PUSH1 0x3 PUSH0 DUP11 DUP2 MSTORE PUSH1 0x20 ADD SWAP1 DUP2 MSTORE PUSH1 0x20 ADD PUSH0 KECCAK256 PUSH0 CALLER PUSH20 0xFFFFFFFFFFFFFFFFFFFFFFFFFFFFFFFFFFFFFFFF AND PUSH20 0xFFFFFFFFFFFFFFFFFFFFFFFFFFFFFFFFFFFFFFFF AND DUP2 MSTORE PUSH1 0x20 ADD SWAP1 DUP2 MSTORE PUSH1 0x20 ADD PUSH0 KECCAK256 SWAP1 POP DUP2 PUSH1 0x6 ADD SLOAD DUP9 LT ISZERO PUSH2 0x1019 JUMPI PUSH1 0x40 MLOAD PUSH32 0x8C379A000000000000000000000000000000000000000000000000000000000 DUP2 MSTORE PUSH1 0x4 ADD PUSH2 0x1010 SWAP1 PUSH2 0x29F9 JUMP JUMPDEST PUSH1 0x40 MLOAD DUP1 SWAP2 SUB SWAP1 REVERT JUMPDEST DUP8 DUP3 PUSH1 0x5 ADD PUSH0 DUP3 DUP3 SLOAD PUSH2 0x102C SWAP2 SWAP1 PUSH2 0x26D9 JUMP JUMPDEST SWAP3 POP POP DUP2 SWAP1 SSTORE POP DUP8 DUP2 PUSH0 ADD PUSH0 DUP3 DUP3 SLOAD PUSH2 0x1045 SWAP2 SWAP1 PUSH2 0x26D9 JUMP JUMPDEST SWAP3 POP POP DUP2 SWAP1 SSTORE POP TIMESTAMP DUP2 PUSH1 0x3 ADD DUP2 SWAP1 SSTORE POP PUSH2 0x10A4 CALLER ADDRESS DUP11 DUP6 PUSH0 ADD PUSH0 SWAP1 SLOAD SWAP1 PUSH2 0x100 EXP SWAP1 DIV PUSH20 0xFFFFFFFFFFFFFFFFFFFFFFFFFFFFFFFFFFFFFFFF AND PUSH20 0xFFFFFFFFFFFFFFFFFFFFFFFFFFFFFFFFFFFFFFFF AND PUSH2 0x200A SWAP1 SWAP4 SWAP3 SWAP2 SWAP1 PUSH4 0xFFFFFFFF AND JUMP JUMPDEST DUP9 CALLER PUSH20 0xFFFFFFFFFFFFFFFFFFFFFFFFFFFFFFFFFFFFFFFF AND PUSH32 0x1449C6DD7851ABC30ABF37F57715F492010519147CC2652FBC38202C18A6EE90 DUP11 PUSH1 0x40 MLOAD PUSH2 0x10EB SWAP2 SWAP1 PUSH2 0x23BB JUMP JUMPDEST PUSH1 0x40 MLOAD DUP1 SWAP2 SUB SWAP1 LOG3 POP POP POP POP POP POP POP PUSH2 0x1102 PUSH2 0x1E0B JUMP JUMPDEST POP POP JUMP JUMPDEST PUSH0 PUSH1 0x3 PUSH0 DUP4 DUP2 MSTORE PUSH1 0x20 ADD SWAP1 DUP2 MSTORE PUSH1 0x20 ADD PUSH0 KECCAK256 PUSH0 CALLER PUSH20 0xFFFFFFFFFFFFFFFFFFFFFFFFFFFFFFFFFFFFFFFF AND PUSH20 0xFFFFFFFFFFFFFFFFFFFFFFFFFFFFFFFFFFFFFFFF AND DUP2 MSTORE PUSH1 0x20 ADD SWAP1 DUP2 MSTORE PUSH1 0x20 ADD PUSH0 KECCAK256 SWAP1 POP PUSH2 0x1162 DUP3 DUP3 PUSH0 ADD SLOAD PUSH2 0x85F JUMP JUMPDEST PUSH2 0x116B DUP3 PUSH2 0x513 JUMP JUMPDEST POP POP JUMP JUMPDEST PUSH2 0x1177 PUSH2 0x1E14 JUMP JUMPDEST PUSH2 0x117F PUSH2 0x208C JUMP JUMPDEST JUMP JUMPDEST PUSH2 0x1189 PUSH2 0x1E14 JUMP JUMPDEST PUSH0 PUSH20 0xFFFFFFFFFFFFFFFFFFFFFFFFFFFFFFFFFFFFFFFF AND DUP6 PUSH20 0xFFFFFFFFFFFFFFFFFFFFFFFFFFFFFFFFFFFFFFFF AND SUB PUSH2 0x11F7 JUMPI PUSH1 0x40 MLOAD PUSH32 0x8C379A000000000000000000000000000000000000000000000000000000000 DUP2 MSTORE PUSH1 0x4 ADD PUSH2 0x11EE SWAP1 PUSH2 0x2A61 JUMP JUMPDEST PUSH1 0x40 MLOAD DUP1 SWAP2 SUB SWAP1 REVERT JUMPDEST PUSH0 PUSH20 0xFFFFFFFFFFFFFFFFFFFFFFFFFFFFFFFFFFFFFFFF AND DUP5 PUSH20 0xFFFFFFFFFFFFFFFFFFFFFFFFFFFFFFFFFFFFFFFF AND SUB PUSH2 0x1265 JUMPI PUSH1 0x40 MLOAD PUSH32 0x8C379A000000000000000000000000000000000000000000000000000000000 DUP2 MSTORE PUSH1 0x4 ADD PUSH2 0x125C SWAP1 PUSH2 0x2AC9 JUMP JUMPDEST PUSH1 0x40 MLOAD DUP1 SWAP2 SUB SWAP1 REVERT JUMPDEST PUSH0 DUP4 GT PUSH2 0x12A7 JUMPI PUSH1 0x40 MLOAD PUSH32 0x8C379A000000000000000000000000000000000000000000000000000000000 DUP2 MSTORE PUSH1 0x4 ADD PUSH2 0x129E SWAP1 PUSH2 0x2B57 JUMP JUMPDEST PUSH1 0x40 MLOAD DUP1 SWAP2 SUB SWAP1 REVERT JUMPDEST PUSH1 0x40 MLOAD DUP1 PUSH2 0x120 ADD PUSH1 0x40 MSTORE DUP1 DUP7 PUSH20 0xFFFFFFFFFFFFFFFFFFFFFFFFFFFFFFFFFFFFFFFF AND DUP2 MSTORE PUSH1 0x20 ADD DUP6 PUSH20 0xFFFFFFFFFFFFFFFFFFFFFFFFFFFFFFFFFFFFFFFF AND DUP2 MSTORE PUSH1 0x20 ADD DUP5 DUP2 MSTORE PUSH1 0x20 ADD TIMESTAMP DUP2 MSTORE PUSH1 0x20 ADD PUSH0 DUP2 MSTORE PUSH1 0x20 ADD PUSH0 DUP2 MSTORE PUSH1 0x20 ADD DUP4 DUP2 MSTORE PUSH1 0x20 ADD DUP3 DUP2 MSTORE PUSH1 0x20 ADD PUSH1 0x1 ISZERO ISZERO DUP2 MSTORE POP PUSH1 0x2 PUSH0 PUSH1 0x4 SLOAD DUP2 MSTORE PUSH1 0x20 ADD SWAP1 DUP2 MSTORE PUSH1 0x20 ADD PUSH0 KECCAK256 PUSH0 DUP3 ADD MLOAD DUP2 PUSH0 ADD PUSH0 PUSH2 0x100 EXP DUP2 SLOAD DUP2 PUSH20 0xFFFFFFFFFFFFFFFFFFFFFFFFFFFFFFFFFFFFFFFF MUL NOT AND SWAP1 DUP4 PUSH20 0xFFFFFFFFFFFFFFFFFFFFFFFFFFFFFFFFFFFFFFFF AND MUL OR SWAP1 SSTORE POP PUSH1 0x20 DUP3 ADD MLOAD DUP2 PUSH1 0x1 ADD PUSH0 PUSH2 0x100 EXP DUP2 SLOAD DUP2 PUSH20 0xFFFFFFFFFFFFFFFFFFFFFFFFFFFFFFFFFFFFFFFF MUL NOT AND SWAP1 DUP4 PUSH20 0xFFFFFFFFFFFFFFFFFFFFFFFFFFFFFFFFFFFFFFFF AND MUL OR SWAP1 SSTORE POP PUSH1 0x40 DUP3 ADD MLOAD DUP2 PUSH1 0x2 ADD SSTORE PUSH1 0x60 DUP3 ADD MLOAD DUP2 PUSH1 0x3 ADD SSTORE PUSH1 0x80 DUP3 ADD MLOAD DUP2 PUSH1 0x4 ADD SSTORE PUSH1 0xA0 DUP3 ADD MLOAD DUP2 PUSH1 0x5 ADD SSTORE PUSH1 0xC0 DUP3 ADD MLOAD DUP2 PUSH1 0x6 ADD SSTORE PUSH1 0xE0 DUP3 ADD MLOAD DUP2 PUSH1 0x7 ADD SSTORE PUSH2 0x100 DUP3 ADD MLOAD DUP2 PUSH1 0x8 ADD PUSH0 PUSH2 0x100 EXP DUP2 SLOAD DUP2 PUSH1 0xFF MUL NOT AND SWAP1 DUP4 ISZERO ISZERO MUL OR SWAP1 SSTORE POP SWAP1 POP POP PUSH1 0x4 SLOAD PUSH32 0xB203C0A4A9D84DDDE23DBA31A828C25525B2E0B5FE6A0E356D983AED95961CA1 DUP7 DUP7 DUP7 DUP7 DUP7 PUSH1 0x40 MLOAD PUSH2 0x144C SWAP6 SWAP5 SWAP4 SWAP3 SWAP2 SWAP1 PUSH2 0x2B75 JUMP JUMPDEST PUSH1 0x40 MLOAD DUP1 SWAP2 SUB SWAP1 LOG2 PUSH1 0x4 PUSH0 DUP2 SLOAD DUP1 SWAP3 SWAP2 SWAP1 PUSH2 0x1466 SWAP1 PUSH2 0x2BC6 JUMP JUMPDEST SWAP2 SWAP1 POP SSTORE POP POP POP POP POP POP JUMP JUMPDEST PUSH0 PUSH0 PUSH1 0x2 PUSH0 DUP5 DUP2 MSTORE PUSH1 0x20 ADD SWAP1 DUP2 MSTORE PUSH1 0x20 ADD PUSH0 KECCAK256 SWAP1 POP PUSH0 DUP2 PUSH1 0x5 ADD SLOAD SUB PUSH2 0x149F JUMPI DUP1 PUSH1 0x4 ADD SLOAD SWAP2 POP POP PUSH2 0x14F3 JUMP JUMPDEST DUP1 PUSH1 0x5 ADD SLOAD PUSH8 0xDE0B6B3A7640000 DUP3 PUSH1 0x2 ADD SLOAD DUP4 PUSH1 0x3 ADD SLOAD TIMESTAMP PUSH2 0x14C2 SWAP2 SWAP1 PUSH2 0x2844 JUMP JUMPDEST PUSH2 0x14CC SWAP2 SWAP1 PUSH2 0x2C0D JUMP JUMPDEST PUSH2 0x14D6 SWAP2 SWAP1 PUSH2 0x2C0D JUMP JUMPDEST PUSH2 0x14E0 SWAP2 SWAP1 PUSH2 0x2C7B JUMP JUMPDEST DUP2 PUSH1 0x4 ADD SLOAD PUSH2 0x14EF SWAP2 SWAP1 PUSH2 0x26D9 JUMP JUMPDEST SWAP2 POP POP JUMPDEST SWAP2 SWAP1 POP JUMP JUMPDEST PUSH0 PUSH1 0x1 PUSH0 SWAP1 SLOAD SWAP1 PUSH2 0x100 EXP SWAP1 DIV PUSH20 0xFFFFFFFFFFFFFFFFFFFFFFFFFFFFFFFFFFFFFFFF AND SWAP1 POP SWAP1 JUMP JUMPDEST PUSH1 0x3 PUSH1 0x20 MSTORE DUP2 PUSH0 MSTORE PUSH1 0x40 PUSH0 KECCAK256 PUSH1 0x20 MSTORE DUP1 PUSH0 MSTORE PUSH1 0x40 PUSH0 KECCAK256 PUSH0 SWAP2 POP SWAP2 POP POP DUP1 PUSH0 ADD SLOAD SWAP1 DUP1 PUSH1 0x1 ADD SLOAD SWAP1 DUP1 PUSH1 0x2 ADD SLOAD SWAP1 DUP1 PUSH1 0x3 ADD SLOAD SWAP1 POP DUP5 JUMP JUMPDEST PUSH2 0x155F PUSH2 0x1D3F JUMP JUMPDEST DUP1 PUSH1 0x4 SLOAD DUP2 LT PUSH2 0x15A4 JUMPI PUSH1 0x40 MLOAD PUSH32 0x8C379A000000000000000000000000000000000000000000000000000000000 DUP2 MSTORE PUSH1 0x4 ADD PUSH2 0x159B SWAP1 PUSH2 0x268E JUMP JUMPDEST PUSH1 0x40 MLOAD DUP1 SWAP2 SUB SWAP1 REVERT JUMPDEST DUP2 PUSH1 0x2 PUSH0 DUP3 DUP2 MSTORE PUSH1 0x20 ADD SWAP1 DUP2 MSTORE PUSH1 0x20 ADD PUSH0 KECCAK256 PUSH1 0x8 ADD PUSH0 SWAP1 SLOAD SWAP1 PUSH2 0x100 EXP SWAP1 DIV PUSH1 0xFF AND PUSH2 0x1605 JUMPI PUSH1 0x40 MLOAD PUSH32 0x8C379A000000000000000000000000000000000000000000000000000000000 DUP2 MSTORE PUSH1 0x4 ADD PUSH2 0x15FC SWAP1 PUSH2 0x2929 JUMP JUMPDEST PUSH1 0x40 MLOAD DUP1 SWAP2 SUB SWAP1 REVERT JUMPDEST DUP3 CALLER PUSH0 PUSH1 0x2 PUSH0 DUP5 DUP2 MSTORE PUSH1 0x20 ADD SWAP1 DUP2 MSTORE PUSH1 0x20 ADD PUSH0 KECCAK256 SWAP1 POP PUSH2 0x1624 DUP4 PUSH2 0x1472 JUMP JUMPDEST DUP2 PUSH1 0x4 ADD DUP2 SWAP1 SSTORE POP TIMESTAMP DUP2 PUSH1 0x3 ADD DUP2 SWAP1 SSTORE POP PUSH0 PUSH20 0xFFFFFFFFFFFFFFFFFFFFFFFFFFFFFFFFFFFFFFFF AND DUP3 PUSH20 0xFFFFFFFFFFFFFFFFFFFFFFFFFFFFFFFFFFFFFFFF AND EQ PUSH2 0x16D8 JUMPI PUSH0 PUSH1 0x3 PUSH0 DUP6 DUP2 MSTORE PUSH1 0x20 ADD SWAP1 DUP2 MSTORE PUSH1 0x20 ADD PUSH0 KECCAK256 PUSH0 DUP5 PUSH20 0xFFFFFFFFFFFFFFFFFFFFFFFFFFFFFFFFFFFFFFFF AND PUSH20 0xFFFFFFFFFFFFFFFFFFFFFFFFFFFFFFFFFFFFFFFF AND DUP2 MSTORE PUSH1 0x20 ADD SWAP1 DUP2 MSTORE PUSH1 0x20 ADD PUSH0 KECCAK256 SWAP1 POP PUSH2 0x16C1 DUP5 DUP5 PUSH2 0x1C14 JUMP JUMPDEST DUP2 PUSH1 0x2 ADD DUP2 SWAP1 SSTORE POP DUP2 PUSH1 0x4 ADD SLOAD DUP2 PUSH1 0x1 ADD DUP2 SWAP1 SSTORE POP POP JUMPDEST PUSH1 0x2 PUSH0 DUP8 DUP2 MSTORE PUSH1 0x20 ADD SWAP1 DUP2 MSTORE PUSH1 0x20 ADD PUSH0 KECCAK256 PUSH1 0x1 ADD PUSH0 SWAP1 SLOAD SWAP1 PUSH2 0x100 EXP SWAP1 DIV PUSH20 0xFFFFFFFFFFFFFFFFFFFFFFFFFFFFFFFFFFFFFFFF AND PUSH20 0xFFFFFFFFFFFFFFFFFFFFFFFFFFFFFFFFFFFFFFFF AND PUSH1 0x2 PUSH0 DUP9 DUP2 MSTORE PUSH1 0x20 ADD SWAP1 DUP2 MSTORE PUSH1 0x20 ADD PUSH0 KECCAK256 PUSH0 ADD PUSH0 SWAP1 SLOAD SWAP1 PUSH2 0x100 EXP SWAP1 DIV PUSH20 0xFFFFFFFFFFFFFFFFFFFFFFFFFFFFFFFFFFFFFFFF AND PUSH20 0xFFFFFFFFFFFFFFFFFFFFFFFFFFFFFFFFFFFFFFFF AND EQ PUSH2 0x17AB JUMPI PUSH1 0x40 MLOAD PUSH32 0x8C379A000000000000000000000000000000000000000000000000000000000 DUP2 MSTORE PUSH1 0x4 ADD PUSH2 0x17A2 SWAP1 PUSH2 0x2CF5 JUMP JUMPDEST PUSH1 0x40 MLOAD DUP1 SWAP2 SUB SWAP1 REVERT JUMPDEST PUSH0 PUSH1 0x3 PUSH0 DUP9 DUP2 MSTORE PUSH1 0x20 ADD SWAP1 DUP2 MSTORE PUSH1 0x20 ADD PUSH0 KECCAK256 PUSH0 CALLER PUSH20 0xFFFFFFFFFFFFFFFFFFFFFFFFFFFFFFFFFFFFFFFF AND PUSH20 0xFFFFFFFFFFFFFFFFFFFFFFFFFFFFFFFFFFFFFFFF AND DUP2 MSTORE PUSH1 0x20 ADD SWAP1 DUP2 MSTORE PUSH1 0x20 ADD PUSH0 KECCAK256 SWAP1 POP PUSH0 DUP2 PUSH1 0x2 ADD SLOAD SWAP1 POP PUSH0 DUP2 GT ISZERO PUSH2 0x18FE JUMPI PUSH0 DUP3 PUSH1 0x2 ADD DUP2 SWAP1 SSTORE POP DUP1 PUSH1 0x2 PUSH0 DUP11 DUP2 MSTORE PUSH1 0x20 ADD SWAP1 DUP2 MSTORE PUSH1 0x20 ADD PUSH0 KECCAK256 PUSH1 0x5 ADD PUSH0 DUP3 DUP3 SLOAD PUSH2 0x1836 SWAP2 SWAP1 PUSH2 0x26D9 JUMP JUMPDEST SWAP3 POP POP DUP2 SWAP1 SSTORE POP DUP1 DUP3 PUSH0 ADD PUSH0 DUP3 DUP3 SLOAD PUSH2 0x184F SWAP2 SWAP1 PUSH2 0x26D9 JUMP JUMPDEST SWAP3 POP POP DUP2 SWAP1 SSTORE POP TIMESTAMP DUP3 PUSH1 0x3 ADD DUP2 SWAP1 SSTORE POP DUP8 CALLER PUSH20 0xFFFFFFFFFFFFFFFFFFFFFFFFFFFFFFFFFFFFFFFF AND PUSH32 0xD6F2C8500DF5B44F11E9E48B91FF9F1B9D81BC496D55570C2B1B75BF65243F51 DUP4 PUSH1 0x40 MLOAD PUSH2 0x18A6 SWAP2 SWAP1 PUSH2 0x23BB JUMP JUMPDEST PUSH1 0x40 MLOAD DUP1 SWAP2 SUB SWAP1 LOG3 DUP8 CALLER PUSH20 0xFFFFFFFFFFFFFFFFFFFFFFFFFFFFFFFFFFFFFFFF AND PUSH32 0x1449C6DD7851ABC30ABF37F57715F492010519147CC2652FBC38202C18A6EE90 DUP4 PUSH1 0x40 MLOAD PUSH2 0x18F5 SWAP2 SWAP1 PUSH2 0x23BB JUMP JUMPDEST PUSH1 0x40 MLOAD DUP1 SWAP2 SUB SWAP1 LOG3 JUMPDEST POP POP POP POP POP POP POP PUSH2 0x190D PUSH2 0x1E0B JUMP JUMPDEST POP JUMP JUMPDEST PUSH1 0x2 PUSH1 0x20 MSTORE DUP1 PUSH0 MSTORE PUSH1 0x40 PUSH0 KECCAK256 PUSH0 SWAP2 POP SWAP1 POP DUP1 PUSH0 ADD PUSH0 SWAP1 SLOAD SWAP1 PUSH2 0x100 EXP SWAP1 DIV PUSH20 0xFFFFFFFFFFFFFFFFFFFFFFFFFFFFFFFFFFFFFFFF AND SWAP1 DUP1 PUSH1 0x1 ADD PUSH0 SWAP1 SLOAD SWAP1 PUSH2 0x100 EXP SWAP1 DIV PUSH20 0xFFFFFFFFFFFFFFFFFFFFFFFFFFFFFFFFFFFFFFFF AND SWAP1 DUP1 PUSH1 0x2 ADD SLOAD SWAP1 DUP1 PUSH1 0x3 ADD SLOAD SWAP1 DUP1 PUSH1 0x4 ADD SLOAD SWAP1 DUP1 PUSH1 0x5 ADD SLOAD SWAP1 DUP1 PUSH1 0x6 ADD SLOAD SWAP1 DUP1 PUSH1 0x7 ADD SLOAD SWAP1 DUP1 PUSH1 0x8 ADD PUSH0 SWAP1 SLOAD SWAP1 PUSH2 0x100 EXP SWAP1 DIV PUSH1 0xFF AND SWAP1 POP DUP10 JUMP JUMPDEST PUSH2 0x19AC PUSH2 0x1E14 JUMP JUMPDEST DUP2 PUSH1 0x4 SLOAD DUP2 LT PUSH2 0x19F1 JUMPI PUSH1 0x40 MLOAD PUSH32 0x8C379A000000000000000000000000000000000000000000000000000000000 DUP2 MSTORE PUSH1 0x4 ADD PUSH2 0x19E8 SWAP1 PUSH2 0x268E JUMP JUMPDEST PUSH1 0x40 MLOAD DUP1 SWAP2 SUB SWAP1 REVERT JUMPDEST DUP3 PUSH0 PUSH0 PUSH1 0x2 PUSH0 DUP5 DUP2 MSTORE PUSH1 0x20 ADD SWAP1 DUP2 MSTORE PUSH1 0x20 ADD PUSH0 KECCAK256 SWAP1 POP PUSH2 0x1A10 DUP4 PUSH2 0x1472 JUMP JUMPDEST DUP2 PUSH1 0x4 ADD DUP2 SWAP1 SSTORE POP TIMESTAMP DUP2 PUSH1 0x3 ADD DUP2 SWAP1 SSTORE POP PUSH0 PUSH20 0xFFFFFFFFFFFFFFFFFFFFFFFFFFFFFFFFFFFFFFFF AND DUP3 PUSH20 0xFFFFFFFFFFFFFFFFFFFFFFFFFFFFFFFFFFFFFFFF AND EQ PUSH2 0x1AC4 JUMPI PUSH0 PUSH1 0x3 PUSH0 DUP6 DUP2 MSTORE PUSH1 0x20 ADD SWAP1 DUP2 MSTORE PUSH1 0x20 ADD PUSH0 KECCAK256 PUSH0 DUP5 PUSH20 0xFFFFFFFFFFFFFFFFFFFFFFFFFFFFFFFFFFFFFFFF AND PUSH20 0xFFFFFFFFFFFFFFFFFFFFFFFFFFFFFFFFFFFFFFFF AND DUP2 MSTORE PUSH1 0x20 ADD SWAP1 DUP2 MSTORE PUSH1 0x20 ADD PUSH0 KECCAK256 SWAP1 POP PUSH2 0x1AAD DUP5 DUP5 PUSH2 0x1C14 JUMP JUMPDEST DUP2 PUSH1 0x2 ADD DUP2 SWAP1 SSTORE POP DUP2 PUSH1 0x4 ADD SLOAD DUP2 PUSH1 0x1 ADD DUP2 SWAP1 SSTORE POP POP JUMPDEST PUSH0 DUP6 GT PUSH2 0x1B06 JUMPI PUSH1 0x40 MLOAD PUSH32 0x8C379A000000000000000000000000000000000000000000000000000000000 DUP2 MSTORE PUSH1 0x4 ADD PUSH2 0x1AFD SWAP1 PUSH2 0x2B57 JUMP JUMPDEST PUSH1 0x40 MLOAD DUP1 SWAP2 SUB SWAP1 REVERT JUMPDEST DUP5 PUSH1 0x2 PUSH0 DUP9 DUP2 MSTORE PUSH1 0x20 ADD SWAP1 DUP2 MSTORE PUSH1 0x20 ADD PUSH0 KECCAK256 PUSH1 0x2 ADD DUP2 SWAP1 SSTORE POP DUP6 PUSH32 0xC390A98ACE15A7BB6BAB611EEDFDBB2685043B241A869420043CDFB23CCFEE50 DUP7 PUSH1 0x40 MLOAD PUSH2 0x1B4F SWAP2 SWAP1 PUSH2 0x23BB JUMP JUMPDEST PUSH1 0x40 MLOAD DUP1 SWAP2 SUB SWAP1 LOG2 POP POP POP POP POP POP JUMP JUMPDEST PUSH2 0x1B67 PUSH2 0x1E14 JUMP JUMPDEST DUP2 PUSH1 0x4 SLOAD DUP2 LT PUSH2 0x1BAC JUMPI PUSH1 0x40 MLOAD PUSH32 0x8C379A000000000000000000000000000000000000000000000000000000000 DUP2 MSTORE PUSH1 0x4 ADD PUSH2 0x1BA3 SWAP1 PUSH2 0x268E JUMP JUMPDEST PUSH1 0x40 MLOAD DUP1 SWAP2 SUB SWAP1 REVERT JUMPDEST DUP2 PUSH1 0x2 PUSH0 DUP6 DUP2 MSTORE PUSH1 0x20 ADD SWAP1 DUP2 MSTORE PUSH1 0x20 ADD PUSH0 KECCAK256 PUSH1 0x8 ADD PUSH0 PUSH2 0x100 EXP DUP2 SLOAD DUP2 PUSH1 0xFF MUL NOT AND SWAP1 DUP4 ISZERO ISZERO MUL OR SWAP1 SSTORE POP DUP3 PUSH32 0xB3C3C605D1520CD5BF41301DD5C04929E0FF021B02A10EA259B5A5B2D521A29C DUP4 PUSH1 0x40 MLOAD PUSH2 0x1C07 SWAP2 SWAP1 PUSH2 0x2412 JUMP JUMPDEST PUSH1 0x40 MLOAD DUP1 SWAP2 SUB SWAP1 LOG2 POP POP POP JUMP JUMPDEST PUSH0 PUSH0 PUSH1 0x3 PUSH0 DUP6 DUP2 MSTORE PUSH1 0x20 ADD SWAP1 DUP2 MSTORE PUSH1 0x20 ADD PUSH0 KECCAK256 PUSH0 DUP5 PUSH20 0xFFFFFFFFFFFFFFFFFFFFFFFFFFFFFFFFFFFFFFFF AND PUSH20 0xFFFFFFFFFFFFFFFFFFFFFFFFFFFFFFFFFFFFFFFF AND DUP2 MSTORE PUSH1 0x20 ADD SWAP1 DUP2 MSTORE PUSH1 0x20 ADD PUSH0 KECCAK256 SWAP1 POP DUP1 PUSH1 0x2 ADD SLOAD PUSH8 0xDE0B6B3A7640000 DUP3 PUSH1 0x1 ADD SLOAD PUSH2 0x1C80 DUP8 PUSH2 0x1472 JUMP JUMPDEST PUSH2 0x1C8A SWAP2 SWAP1 PUSH2 0x2844 JUMP JUMPDEST DUP4 PUSH0 ADD SLOAD PUSH2 0x1C98 SWAP2 SWAP1 PUSH2 0x2C0D JUMP JUMPDEST PUSH2 0x1CA2 SWAP2 SWAP1 PUSH2 0x2C7B JUMP JUMPDEST PUSH2 0x1CAC SWAP2 SWAP1 PUSH2 0x26D9 JUMP JUMPDEST SWAP2 POP POP SWAP3 SWAP2 POP POP JUMP JUMPDEST PUSH2 0x1CBD PUSH2 0x1E14 JUMP JUMPDEST PUSH0 PUSH20 0xFFFFFFFFFFFFFFFFFFFFFFFFFFFFFFFFFFFFFFFF AND DUP2 PUSH20 0xFFFFFFFFFFFFFFFFFFFFFFFFFFFFFFFFFFFFFFFF AND SUB PUSH2 0x1D2D JUMPI PUSH0 PUSH1 0x40 MLOAD PUSH32 0x1E4FBDF700000000000000000000000000000000000000000000000000000000 DUP2 MSTORE PUSH1 0x4 ADD PUSH2 0x1D24 SWAP2 SWAP1 PUSH2 0x24A2 JUMP JUMPDEST PUSH1 0x40 MLOAD DUP1 SWAP2 SUB SWAP1 REVERT JUMPDEST PUSH2 0x1D36 DUP2 PUSH2 0x1EFD JUMP JUMPDEST POP JUMP JUMPDEST PUSH1 0x4 SLOAD DUP2 JUMP JUMPDEST PUSH1 0x2 PUSH0 SLOAD SUB PUSH2 0x1D83 JUMPI PUSH1 0x40 MLOAD PUSH32 0x8C379A000000000000000000000000000000000000000000000000000000000 DUP2 MSTORE PUSH1 0x4 ADD PUSH2 0x1D7A SWAP1 PUSH2 0x2D5D JUMP JUMPDEST PUSH1 0x40 MLOAD DUP1 SWAP2 SUB SWAP1 REVERT JUMPDEST PUSH1 0x2 PUSH0 DUP2 SWAP1 SSTORE POP JUMP JUMPDEST PUSH2 0x1E06 DUP4 DUP5 PUSH20 0xFFFFFFFFFFFFFFFFFFFFFFFFFFFFFFFFFFFFFFFF AND PUSH4 0xA9059CBB DUP6 DUP6 PUSH1 0x40 MLOAD PUSH1 0x24 ADD PUSH2 0x1DBF SWAP3 SWAP2 SWAP1 PUSH2 0x2D7B JUMP JUMPDEST PUSH1 0x40 MLOAD PUSH1 0x20 DUP2 DUP4 SUB SUB DUP2 MSTORE SWAP1 PUSH1 0x40 MSTORE SWAP2 POP PUSH1 0xE0 SHL PUSH1 0x20 DUP3 ADD DUP1 MLOAD PUSH28 0xFFFFFFFFFFFFFFFFFFFFFFFFFFFFFFFFFFFFFFFFFFFFFFFFFFFFFFFF DUP4 DUP2 DUP4 AND OR DUP4 MSTORE POP POP POP POP PUSH2 0x20EE JUMP JUMPDEST POP POP POP JUMP JUMPDEST PUSH1 0x1 PUSH0 DUP2 SWAP1 SSTORE POP JUMP JUMPDEST PUSH2 0x1E1C PUSH2 0x2189 JUMP JUMPDEST PUSH20 0xFFFFFFFFFFFFFFFFFFFFFFFFFFFFFFFFFFFFFFFF AND PUSH2 0x1E3A PUSH2 0x14F8 JUMP JUMPDEST PUSH20 0xFFFFFFFFFFFFFFFFFFFFFFFFFFFFFFFFFFFFFFFF AND EQ PUSH2 0x1E99 JUMPI PUSH2 0x1E5D PUSH2 0x2189 JUMP JUMPDEST PUSH1 0x40 MLOAD PUSH32 0x118CDAA700000000000000000000000000000000000000000000000000000000 DUP2 MSTORE PUSH1 0x4 ADD PUSH2 0x1E90 SWAP2 SWAP1 PUSH2 0x24A2 JUMP JUMPDEST PUSH1 0x40 MLOAD DUP1 SWAP2 SUB SWAP1 REVERT JUMPDEST JUMP JUMPDEST PUSH2 0x1EA3 PUSH2 0x2190 JUMP JUMPDEST PUSH0 PUSH1 0x1 PUSH1 0x14 PUSH2 0x100 EXP DUP2 SLOAD DUP2 PUSH1 0xFF MUL NOT AND SWAP1 DUP4 ISZERO ISZERO MUL OR SWAP1 SSTORE POP PUSH32 0x5DB9EE0A495BF2E6FF9C91A7834C1BA4FDD244A5E8AA4E537BD38AEAE4B073AA PUSH2 0x1EE6 PUSH2 0x2189 JUMP JUMPDEST PUSH1 0x40 MLOAD PUSH2 0x1EF3 SWAP2 SWAP1 PUSH2 0x24A2 JUMP JUMPDEST PUSH1 0x40 MLOAD DUP1 SWAP2 SUB SWAP1 LOG1 JUMP JUMPDEST PUSH0 PUSH1 0x1 PUSH0 SWAP1 SLOAD SWAP1 PUSH2 0x100 EXP SWAP1 DIV PUSH20 0xFFFFFFFFFFFFFFFFFFFFFFFFFFFFFFFFFFFFFFFF AND SWAP1 POP DUP2 PUSH1 0x1 PUSH0 PUSH2 0x100 EXP DUP2 SLOAD DUP2 PUSH20 0xFFFFFFFFFFFFFFFFFFFFFFFFFFFFFFFFFFFFFFFF MUL NOT AND SWAP1 DUP4 PUSH20 0xFFFFFFFFFFFFFFFFFFFFFFFFFFFFFFFFFFFFFFFF AND MUL OR SWAP1 SSTORE POP DUP2 PUSH20 0xFFFFFFFFFFFFFFFFFFFFFFFFFFFFFFFFFFFFFFFF AND DUP2 PUSH20 0xFFFFFFFFFFFFFFFFFFFFFFFFFFFFFFFFFFFFFFFF AND PUSH32 0x8BE0079C531659141344CD1FD0A4F28419497F9722A3DAAFE3B4186F6B6457E0 PUSH1 0x40 MLOAD PUSH1 0x40 MLOAD DUP1 SWAP2 SUB SWAP1 LOG3 POP POP JUMP JUMPDEST PUSH2 0x1FC8 PUSH2 0xD7B JUMP JUMPDEST ISZERO PUSH2 0x2008 JUMPI PUSH1 0x40 MLOAD PUSH32 0x8C379A000000000000000000000000000000000000000000000000000000000 DUP2 MSTORE PUSH1 0x4 ADD PUSH2 0x1FFF SWAP1 PUSH2 0x2DEC JUMP JUMPDEST PUSH1 0x40 MLOAD DUP1 SWAP2 SUB SWAP1 REVERT JUMPDEST JUMP JUMPDEST PUSH2 0x2086 DUP5 DUP6 PUSH20 0xFFFFFFFFFFFFFFFFFFFFFFFFFFFFFFFFFFFFFFFF AND PUSH4 0x23B872DD DUP7 DUP7 DUP7 PUSH1 0x40 MLOAD PUSH1 0x24 ADD PUSH2 0x203F SWAP4 SWAP3 SWAP2 SWAP1 PUSH2 0x2E0A JUMP JUMPDEST PUSH1 0x40 MLOAD PUSH1 0x20 DUP2 DUP4 SUB SUB DUP2 MSTORE SWAP1 PUSH1 0x40 MSTORE SWAP2 POP PUSH1 0xE0 SHL PUSH1 0x20 DUP3 ADD DUP1 MLOAD PUSH28 0xFFFFFFFFFFFFFFFFFFFFFFFFFFFFFFFFFFFFFFFFFFFFFFFFFFFFFFFF DUP4 DUP2 DUP4 AND OR DUP4 MSTORE POP POP POP POP PUSH2 0x20EE JUMP JUMPDEST POP POP POP POP JUMP JUMPDEST PUSH2 0x2094 PUSH2 0x1FC0 JUMP JUMPDEST PUSH1 0x1 DUP1 PUSH1 0x14 PUSH2 0x100 EXP DUP2 SLOAD DUP2 PUSH1 0xFF MUL NOT AND SWAP1 DUP4 ISZERO ISZERO MUL OR SWAP1 SSTORE POP PUSH32 0x62E78CEA01BEE320CD4E420270B5EA74000D11B0C9F74754EBDBFC544B05A258 PUSH2 0x20D7 PUSH2 0x2189 JUMP JUMPDEST PUSH1 0x40 MLOAD PUSH2 0x20E4 SWAP2 SWAP1 PUSH2 0x24A2 JUMP JUMPDEST PUSH1 0x40 MLOAD DUP1 SWAP2 SUB SWAP1 LOG1 JUMP JUMPDEST PUSH0 PUSH0 PUSH1 0x20 PUSH0 DUP5 MLOAD PUSH1 0x20 DUP7 ADD PUSH0 DUP9 GAS CALL DUP1 PUSH2 0x210D JUMPI PUSH1 0x40 MLOAD RETURNDATASIZE PUSH0 DUP3 RETURNDATACOPY RETURNDATASIZE DUP2 REVERT JUMPDEST RETURNDATASIZE SWAP3 POP PUSH0 MLOAD SWAP2 POP POP PUSH0 DUP3 EQ PUSH2 0x2126 JUMPI PUSH1 0x1 DUP2 EQ ISZERO PUSH2 0x2141 JUMP JUMPDEST PUSH0 DUP5 PUSH20 0xFFFFFFFFFFFFFFFFFFFFFFFFFFFFFFFFFFFFFFFF AND EXTCODESIZE EQ JUMPDEST ISZERO PUSH2 0x2183 JUMPI DUP4 PUSH1 0x40 MLOAD PUSH32 0x5274AFE700000000000000000000000000000000000000000000000000000000 DUP2 MSTORE PUSH1 0x4 ADD PUSH2 0x217A SWAP2 SWAP1 PUSH2 0x24A2 JUMP JUMPDEST PUSH1 0x40 MLOAD DUP1 SWAP2 SUB SWAP1 REVERT JUMPDEST POP POP POP POP JUMP JUMPDEST PUSH0 CALLER SWAP1 POP SWAP1 JUMP JUMPDEST PUSH2 0x2198 PUSH2 0xD7B JUMP JUMPDEST PUSH2 0x21D7 JUMPI PUSH1 0x40 MLOAD PUSH32 0x8C379A000000000000000000000000000000000000000000000000000000000 DUP2 MSTORE PUSH1 0x4 ADD PUSH2 0x21CE SWAP1 PUSH2 0x2E89 JUMP JUMPDEST PUSH1 0x40 MLOAD DUP1 SWAP2 SUB SWAP1 REVERT JUMPDEST JUMP JUMPDEST PUSH0 PUSH0 REVERT JUMPDEST PUSH0 DUP2 SWAP1 POP SWAP2 SWAP1 POP JUMP JUMPDEST PUSH2 0x21EF DUP2 PUSH2 0x21DD JUMP JUMPDEST DUP2 EQ PUSH2 0x21F9 JUMPI PUSH0 PUSH0 REVERT JUMPDEST POP JUMP JUMPDEST PUSH0 DUP2 CALLDATALOAD SWAP1 POP PUSH2 0x220A DUP2 PUSH2 0x21E6 JUMP JUMPDEST SWAP3 SWAP2 POP POP JUMP JUMPDEST PUSH0 PUSH20 0xFFFFFFFFFFFFFFFFFFFFFFFFFFFFFFFFFFFFFFFF DUP3 AND SWAP1 POP SWAP2 SWAP1 POP JUMP JUMPDEST PUSH0 PUSH2 0x2239 DUP3 PUSH2 0x2210 JUMP JUMPDEST SWAP1 POP SWAP2 SWAP1 POP JUMP JUMPDEST PUSH2 0x2249 DUP2 PUSH2 0x222F JUMP JUMPDEST DUP2 EQ PUSH2 0x2253 JUMPI PUSH0 PUSH0 REVERT JUMPDEST POP JUMP JUMPDEST PUSH0 DUP2 CALLDATALOAD SWAP1 POP PUSH2 0x2264 DUP2 PUSH2 0x2240 JUMP JUMPDEST SWAP3 SWAP2 POP POP JUMP JUMPDEST PUSH0 PUSH0 PUSH1 0x40 DUP4 DUP6 SUB SLT ISZERO PUSH2 0x2280 JUMPI PUSH2 0x227F PUSH2 0x21D9 JUMP JUMPDEST JUMPDEST PUSH0 PUSH2 0x228D DUP6 DUP3 DUP7 ADD PUSH2 0x21FC JUMP JUMPDEST SWAP3 POP POP PUSH1 0x20 PUSH2 0x229E DUP6 DUP3 DUP7 ADD PUSH2 0x2256 JUMP JUMPDEST SWAP2 POP POP SWAP3 POP SWAP3 SWAP1 POP JUMP JUMPDEST PUSH2 0x22B1 DUP2 PUSH2 0x21DD JUMP JUMPDEST DUP3 MSTORE POP POP JUMP JUMPDEST PUSH0 PUSH1 0x80 DUP3 ADD SWAP1 POP PUSH2 0x22CA PUSH0 DUP4 ADD DUP8 PUSH2 0x22A8 JUMP JUMPDEST PUSH2 0x22D7 PUSH1 0x20 DUP4 ADD DUP7 PUSH2 0x22A8 JUMP JUMPDEST PUSH2 0x22E4 PUSH1 0x40 DUP4 ADD DUP6 PUSH2 0x22A8 JUMP JUMPDEST PUSH2 0x22F1 PUSH1 0x60 DUP4 ADD DUP5 PUSH2 0x22A8 JUMP JUMPDEST SWAP6 SWAP5 POP POP POP POP POP JUMP JUMPDEST PUSH0 PUSH1 0x20 DUP3 DUP5 SUB SLT ISZERO PUSH2 0x230F JUMPI PUSH2 0x230E PUSH2 0x21D9 JUMP JUMPDEST JUMPDEST PUSH0 PUSH2 0x231C DUP5 DUP3 DUP6 ADD PUSH2 0x21FC JUMP JUMPDEST SWAP2 POP POP SWAP3 SWAP2 POP POP JUMP JUMPDEST PUSH2 0x232E DUP2 PUSH2 0x222F JUMP JUMPDEST DUP3 MSTORE POP POP JUMP JUMPDEST PUSH0 DUP2 ISZERO ISZERO SWAP1 POP SWAP2 SWAP1 POP JUMP JUMPDEST PUSH2 0x2348 DUP2 PUSH2 0x2334 JUMP JUMPDEST DUP3 MSTORE POP POP JUMP JUMPDEST PUSH0 PUSH1 0xE0 DUP3 ADD SWAP1 POP PUSH2 0x2361 PUSH0 DUP4 ADD DUP11 PUSH2 0x2325 JUMP JUMPDEST PUSH2 0x236E PUSH1 0x20 DUP4 ADD DUP10 PUSH2 0x2325 JUMP JUMPDEST PUSH2 0x237B PUSH1 0x40 DUP4 ADD DUP9 PUSH2 0x22A8 JUMP JUMPDEST PUSH2 0x2388 PUSH1 0x60 DUP4 ADD DUP8 PUSH2 0x22A8 JUMP JUMPDEST PUSH2 0x2395 PUSH1 0x80 DUP4 ADD DUP7 PUSH2 0x22A8 JUMP JUMPDEST PUSH2 0x23A2 PUSH1 0xA0 DUP4 ADD DUP6 PUSH2 0x22A8 JUMP JUMPDEST PUSH2 0x23AF PUSH1 0xC0 DUP4 ADD DUP5 PUSH2 0x233F JUMP JUMPDEST SWAP9 SWAP8 POP POP POP POP POP POP POP POP JUMP JUMPDEST PUSH0 PUSH1 0x20 DUP3 ADD SWAP1 POP PUSH2 0x23CE PUSH0 DUP4 ADD DUP5 PUSH2 0x22A8 JUMP JUMPDEST SWAP3 SWAP2 POP POP JUMP JUMPDEST PUSH0 PUSH0 PUSH1 0x40 DUP4 DUP6 SUB SLT ISZERO PUSH2 0x23EA JUMPI PUSH2 0x23E9 PUSH2 0x21D9 JUMP JUMPDEST JUMPDEST PUSH0 PUSH2 0x23F7 DUP6 DUP3 DUP7 ADD PUSH2 0x21FC JUMP JUMPDEST SWAP3 POP POP PUSH1 0x20 PUSH2 0x2408 DUP6 DUP3 DUP7 ADD PUSH2 0x21FC JUMP JUMPDEST SWAP2 POP POP SWAP3 POP SWAP3 SWAP1 POP JUMP JUMPDEST PUSH0 PUSH1 0x20 DUP3 ADD SWAP1 POP PUSH2 0x2425 PUSH0 DUP4 ADD DUP5 PUSH2 0x233F JUMP JUMPDEST SWAP3 SWAP2 POP POP JUMP JUMPDEST PUSH0 PUSH0 PUSH0 PUSH0 PUSH0 PUSH1 0xA0 DUP7 DUP9 SUB SLT ISZERO PUSH2 0x2444 JUMPI PUSH2 0x2443 PUSH2 0x21D9 JUMP JUMPDEST JUMPDEST PUSH0 PUSH2 0x2451 DUP9 DUP3 DUP10 ADD PUSH2 0x2256 JUMP JUMPDEST SWAP6 POP POP PUSH1 0x20 PUSH2 0x2462 DUP9 DUP3 DUP10 ADD PUSH2 0x2256 JUMP JUMPDEST SWAP5 POP POP PUSH1 0x40 PUSH2 0x2473 DUP9 DUP3 DUP10 ADD PUSH2 0x21FC JUMP JUMPDEST SWAP4 POP POP PUSH1 0x60 PUSH2 0x2484 DUP9 DUP3 DUP10 ADD PUSH2 0x21FC JUMP JUMPDEST SWAP3 POP POP PUSH1 0x80 PUSH2 0x2495 DUP9 DUP3 DUP10 ADD PUSH2 0x21FC JUMP JUMPDEST SWAP2 POP POP SWAP3 SWAP6 POP SWAP3 SWAP6 SWAP1 SWAP4 POP JUMP JUMPDEST PUSH0 PUSH1 0x20 DUP3 ADD SWAP1 POP PUSH2 0x24B5 PUSH0 DUP4 ADD DUP5 PUSH2 0x2325 JUMP JUMPDEST SWAP3 SWAP2 POP POP JUMP JUMPDEST PUSH0 DUP2 SWAP1 POP SWAP2 SWAP1 POP JUMP JUMPDEST PUSH0 PUSH2 0x24DE PUSH2 0x24D9 PUSH2 0x24D4 DUP5 PUSH2 0x2210 JUMP JUMPDEST PUSH2 0x24BB JUMP JUMPDEST PUSH2 0x2210 JUMP JUMPDEST SWAP1 POP SWAP2 SWAP1 POP JUMP JUMPDEST PUSH0 PUSH2 0x24EF DUP3 PUSH2 0x24C4 JUMP JUMPDEST SWAP1 POP SWAP2 SWAP1 POP JUMP JUMPDEST PUSH0 PUSH2 0x2500 DUP3 PUSH2 0x24E5 JUMP JUMPDEST SWAP1 POP SWAP2 SWAP1 POP JUMP JUMPDEST PUSH2 0x2510 DUP2 PUSH2 0x24F6 JUMP JUMPDEST DUP3 MSTORE POP POP JUMP JUMPDEST PUSH0 PUSH2 0x120 DUP3 ADD SWAP1 POP PUSH2 0x252A PUSH0 DUP4 ADD DUP13 PUSH2 0x2507 JUMP JUMPDEST PUSH2 0x2537 PUSH1 0x20 DUP4 ADD DUP12 PUSH2 0x2507 JUMP JUMPDEST PUSH2 0x2544 PUSH1 0x40 DUP4 ADD DUP11 PUSH2 0x22A8 JUMP JUMPDEST PUSH2 0x2551 PUSH1 0x60 DUP4 ADD DUP10 PUSH2 0x22A8 JUMP JUMPDEST PUSH2 0x255E PUSH1 0x80 DUP4 ADD DUP9 PUSH2 0x22A8 JUMP JUMPDEST PUSH2 0x256B PUSH1 0xA0 DUP4 ADD DUP8 PUSH2 0x22A8 JUMP JUMPDEST PUSH2 0x2578 PUSH1 0xC0 DUP4 ADD DUP7 PUSH2 0x22A8 JUMP JUMPDEST PUSH2 0x2585 PUSH1 0xE0 DUP4 ADD DUP6 PUSH2 0x22A8 JUMP JUMPDEST PUSH2 0x2593 PUSH2 0x100 DUP4 ADD DUP5 PUSH2 0x233F JUMP JUMPDEST SWAP11 SWAP10 POP POP POP POP POP POP POP POP POP POP JUMP JUMPDEST PUSH2 0x25AA DUP2 PUSH2 0x2334 JUMP JUMPDEST DUP2 EQ PUSH2 0x25B4 JUMPI PUSH0 PUSH0 REVERT JUMPDEST POP JUMP JUMPDEST PUSH0 DUP2 CALLDATALOAD SWAP1 POP PUSH2 0x25C5 DUP2 PUSH2 0x25A1 JUMP JUMPDEST SWAP3 SWAP2 POP POP JUMP JUMPDEST PUSH0 PUSH0 PUSH1 0x40 DUP4 DUP6 SUB SLT ISZERO PUSH2 0x25E1 JUMPI PUSH2 0x25E0 PUSH2 0x21D9 JUMP JUMPDEST JUMPDEST PUSH0 PUSH2 0x25EE DUP6 DUP3 DUP7 ADD PUSH2 0x21FC JUMP JUMPDEST SWAP3 POP POP PUSH1 0x20 PUSH2 0x25FF DUP6 DUP3 DUP7 ADD PUSH2 0x25B7 JUMP JUMPDEST SWAP2 POP POP SWAP3 POP SWAP3 SWAP1 POP JUMP JUMPDEST PUSH0 PUSH1 0x20 DUP3 DUP5 SUB SLT ISZERO PUSH2 0x261E JUMPI PUSH2 0x261D PUSH2 0x21D9 JUMP JUMPDEST JUMPDEST PUSH0 PUSH2 0x262B DUP5 DUP3 DUP6 ADD PUSH2 0x2256 JUMP JUMPDEST SWAP2 POP POP SWAP3 SWAP2 POP POP JUMP JUMPDEST PUSH0 DUP3 DUP3 MSTORE PUSH1 0x20 DUP3 ADD SWAP1 POP SWAP3 SWAP2 POP POP JUMP JUMPDEST PUSH32 0x506F6F6C20646F6573206E6F7420657869737400000000000000000000000000 PUSH0 DUP3 ADD MSTORE POP JUMP JUMPDEST PUSH0 PUSH2 0x2678 PUSH1 0x13 DUP4 PUSH2 0x2634 JUMP JUMPDEST SWAP2 POP PUSH2 0x2683 DUP3 PUSH2 0x2644 JUMP JUMPDEST PUSH1 0x20 DUP3 ADD SWAP1 POP SWAP2 SWAP1 POP JUMP JUMPDEST PUSH0 PUSH1 0x20 DUP3 ADD SWAP1 POP DUP2 DUP2 SUB PUSH0 DUP4 ADD MSTORE PUSH2 0x26A5 DUP2 PUSH2 0x266C JUMP JUMPDEST SWAP1 POP SWAP2 SWAP1 POP JUMP JUMPDEST PUSH32 0x4E487B7100000000000000000000000000000000000000000000000000000000 PUSH0 MSTORE PUSH1 0x11 PUSH1 0x4 MSTORE PUSH1 0x24 PUSH0 REVERT JUMPDEST PUSH0 PUSH2 0x26E3 DUP3 PUSH2 0x21DD JUMP JUMPDEST SWAP2 POP PUSH2 0x26EE DUP4 PUSH2 0x21DD JUMP JUMPDEST SWAP3 POP DUP3 DUP3 ADD SWAP1 POP DUP1 DUP3 GT ISZERO PUSH2 0x2706 JUMPI PUSH2 0x2705 PUSH2 0x26AC JUMP JUMPDEST JUMPDEST SWAP3 SWAP2 POP POP JUMP JUMPDEST PUSH32 0x43616E6E6F742077697468647261772030000000000000000000000000000000 PUSH0 DUP3 ADD MSTORE POP JUMP JUMPDEST PUSH0 PUSH2 0x2740 PUSH1 0x11 DUP4 PUSH2 0x2634 JUMP JUMPDEST SWAP2 POP PUSH2 0x274B DUP3 PUSH2 0x270C JUMP JUMPDEST PUSH1 0x20 DUP3 ADD SWAP1 POP SWAP2 SWAP1 POP JUMP JUMPDEST PUSH0 PUSH1 0x20 DUP3 ADD SWAP1 POP DUP2 DUP2 SUB PUSH0 DUP4 ADD MSTORE PUSH2 0x276D DUP2 PUSH2 0x2734 JUMP JUMPDEST SWAP1 POP SWAP2 SWAP1 POP JUMP JUMPDEST PUSH32 0x496E73756666696369656E742062616C616E6365000000000000000000000000 PUSH0 DUP3 ADD MSTORE POP JUMP JUMPDEST PUSH0 PUSH2 0x27A8 PUSH1 0x14 DUP4 PUSH2 0x2634 JUMP JUMPDEST SWAP2 POP PUSH2 0x27B3 DUP3 PUSH2 0x2774 JUMP JUMPDEST PUSH1 0x20 DUP3 ADD SWAP1 POP SWAP2 SWAP1 POP JUMP JUMPDEST PUSH0 PUSH1 0x20 DUP3 ADD SWAP1 POP DUP2 DUP2 SUB PUSH0 DUP4 ADD MSTORE PUSH2 0x27D5 DUP2 PUSH2 0x279C JUMP JUMPDEST SWAP1 POP SWAP2 SWAP1 POP JUMP JUMPDEST PUSH32 0x546F6B656E7320617265207374696C6C206C6F636B6564000000000000000000 PUSH0 DUP3 ADD MSTORE POP JUMP JUMPDEST PUSH0 PUSH2 0x2810 PUSH1 0x17 DUP4 PUSH2 0x2634 JUMP JUMPDEST SWAP2 POP PUSH2 0x281B DUP3 PUSH2 0x27DC JUMP JUMPDEST PUSH1 0x20 DUP3 ADD SWAP1 POP SWAP2 SWAP1 POP JUMP JUMPDEST PUSH0 PUSH1 0x20 DUP3 ADD SWAP1 POP DUP2 DUP2 SUB PUSH0 DUP4 ADD MSTORE PUSH2 0x283D DUP2 PUSH2 0x2804 JUMP JUMPDEST SWAP1 POP SWAP2 SWAP1 POP JUMP JUMPDEST PUSH0 PUSH2 0x284E DUP3 PUSH2 0x21DD JUMP JUMPDEST SWAP2 POP PUSH2 0x2859 DUP4 PUSH2 0x21DD JUMP JUMPDEST SWAP3 POP DUP3 DUP3 SUB SWAP1 POP DUP2 DUP2 GT ISZERO PUSH2 0x2871 JUMPI PUSH2 0x2870 PUSH2 0x26AC JUMP JUMPDEST JUMPDEST SWAP3 SWAP2 POP POP JUMP JUMPDEST PUSH32 0x4E6F20746F6B656E7320746F2077697468647261770000000000000000000000 PUSH0 DUP3 ADD MSTORE POP JUMP JUMPDEST PUSH0 PUSH2 0x28AB PUSH1 0x15 DUP4 PUSH2 0x2634 JUMP JUMPDEST SWAP2 POP PUSH2 0x28B6 DUP3 PUSH2 0x2877 JUMP JUMPDEST PUSH1 0x20 DUP3 ADD SWAP1 POP SWAP2 SWAP1 POP JUMP JUMPDEST PUSH0 PUSH1 0x20 DUP3 ADD SWAP1 POP DUP2 DUP2 SUB PUSH0 DUP4 ADD MSTORE PUSH2 0x28D8 DUP2 PUSH2 0x289F JUMP JUMPDEST SWAP1 POP SWAP2 SWAP1 POP JUMP JUMPDEST PUSH32 0x506F6F6C206973206E6F74206163746976650000000000000000000000000000 PUSH0 DUP3 ADD MSTORE POP JUMP JUMPDEST PUSH0 PUSH2 0x2913 PUSH1 0x12 DUP4 PUSH2 0x2634 JUMP JUMPDEST SWAP2 POP PUSH2 0x291E DUP3 PUSH2 0x28DF JUMP JUMPDEST PUSH1 0x20 DUP3 ADD SWAP1 POP SWAP2 SWAP1 POP JUMP JUMPDEST PUSH0 PUSH1 0x20 DUP3 ADD SWAP1 POP DUP2 DUP2 SUB PUSH0 DUP4 ADD MSTORE PUSH2 0x2940 DUP2 PUSH2 0x2907 JUMP JUMPDEST SWAP1 POP SWAP2 SWAP1 POP JUMP JUMPDEST PUSH32 0x43616E6E6F74207374616B652030000000000000000000000000000000000000 PUSH0 DUP3 ADD MSTORE POP JUMP JUMPDEST PUSH0 PUSH2 0x297B PUSH1 0xE DUP4 PUSH2 0x2634 JUMP JUMPDEST SWAP2 POP PUSH2 0x2986 DUP3 PUSH2 0x2947 JUMP JUMPDEST PUSH1 0x20 DUP3 ADD SWAP1 POP SWAP2 SWAP1 POP JUMP JUMPDEST PUSH0 PUSH1 0x20 DUP3 ADD SWAP1 POP DUP2 DUP2 SUB PUSH0 DUP4 ADD MSTORE PUSH2 0x29A8 DUP2 PUSH2 0x296F JUMP JUMPDEST SWAP1 POP SWAP2 SWAP1 POP JUMP JUMPDEST PUSH32 0x416D6F756E742062656C6F77206D696E696D756D207374616B65000000000000 PUSH0 DUP3 ADD MSTORE POP JUMP JUMPDEST PUSH0 PUSH2 0x29E3 PUSH1 0x1A DUP4 PUSH2 0x2634 JUMP JUMPDEST SWAP2 POP PUSH2 0x29EE DUP3 PUSH2 0x29AF JUMP JUMPDEST PUSH1 0x20 DUP3 ADD SWAP1 POP SWAP2 SWAP1 POP JUMP JUMPDEST PUSH0 PUSH1 0x20 DUP3 ADD SWAP1 POP DUP2 DUP2 SUB PUSH0 DUP4 ADD MSTORE PUSH2 0x2A10 DUP2 PUSH2 0x29D7 JUMP JUMPDEST SWAP1 POP SWAP2 SWAP1 POP JUMP JUMPDEST PUSH32 0x496E76616C6964207374616B696E6720746F6B656E0000000000000000000000 PUSH0 DUP3 ADD MSTORE POP JUMP JUMPDEST PUSH0 PUSH2 0x2A4B PUSH1 0x15 DUP4 PUSH2 0x2634 JUMP JUMPDEST SWAP2 POP PUSH2 0x2A56 DUP3 PUSH2 0x2A17 JUMP JUMPDEST PUSH1 0x20 DUP3 ADD SWAP1 POP SWAP2 SWAP1 POP JUMP JUMPDEST PUSH0 PUSH1 0x20 DUP3 ADD SWAP1 POP DUP2 DUP2 SUB PUSH0 DUP4 ADD MSTORE PUSH2 0x2A78 DUP2 PUSH2 0x2A3F JUMP JUMPDEST SWAP1 POP SWAP2 SWAP1 POP JUMP JUMPDEST PUSH32 0x496E76616C69642072657761726420746F6B656E000000000000000000000000 PUSH0 DUP3 ADD MSTORE POP JUMP JUMPDEST PUSH0 PUSH2 0x2AB3 PUSH1 0x14 DUP4 PUSH2 0x2634 JUMP JUMPDEST SWAP2 POP PUSH2 0x2ABE DUP3 PUSH2 0x2A7F JUMP JUMPDEST PUSH1 0x20 DUP3 ADD SWAP1 POP SWAP2 SWAP1 POP JUMP JUMPDEST PUSH0 PUSH1 0x20 DUP3 ADD SWAP1 POP DUP2 DUP2 SUB PUSH0 DUP4 ADD MSTORE PUSH2 0x2AE0 DUP2 PUSH2 0x2AA7 JUMP JUMPDEST SWAP1 POP SWAP2 SWAP1 POP JUMP JUMPDEST PUSH32 0x5265776172642072617465206D7573742062652067726561746572207468616E PUSH0 DUP3 ADD MSTORE PUSH32 0x2030000000000000000000000000000000000000000000000000000000000000 PUSH1 0x20 DUP3 ADD MSTORE POP JUMP JUMPDEST PUSH0 PUSH2 0x2B41 PUSH1 0x22 DUP4 PUSH2 0x2634 JUMP JUMPDEST SWAP2 POP PUSH2 0x2B4C DUP3 PUSH2 0x2AE7 JUMP JUMPDEST PUSH1 0x40 DUP3 ADD SWAP1 POP SWAP2 SWAP1 POP JUMP JUMPDEST PUSH0 PUSH1 0x20 DUP3 ADD SWAP1 POP DUP2 DUP2 SUB PUSH0 DUP4 ADD MSTORE PUSH2 0x2B6E DUP2 PUSH2 0x2B35 JUMP JUMPDEST SWAP1 POP SWAP2 SWAP1 POP JUMP JUMPDEST PUSH0 PUSH1 0xA0 DUP3 ADD SWAP1 POP PUSH2 0x2B88 PUSH0 DUP4 ADD DUP9 PUSH2 0x2325 JUMP JUMPDEST PUSH2 0x2B95 PUSH1 0x20 DUP4 ADD DUP8 PUSH2 0x2325 JUMP JUMPDEST PUSH2 0x2BA2 PUSH1 0x40 DUP4 ADD DUP7 PUSH2 0x22A8 JUMP JUMPDEST PUSH2 0x2BAF PUSH1 0x60 DUP4 ADD DUP6 PUSH2 0x22A8 JUMP JUMPDEST PUSH2 0x2BBC PUSH1 0x80 DUP4 ADD DUP5 PUSH2 0x22A8 JUMP JUMPDEST SWAP7 SWAP6 POP POP POP POP POP POP JUMP JUMPDEST PUSH0 PUSH2 0x2BD0 DUP3 PUSH2 0x21DD JUMP JUMPDEST SWAP2 POP PUSH32 0xFFFFFFFFFFFFFFFFFFFFFFFFFFFFFFFFFFFFFFFFFFFFFFFFFFFFFFFFFFFFFFFF DUP3 SUB PUSH2 0x2C02 JUMPI PUSH2 0x2C01 PUSH2 0x26AC JUMP JUMPDEST JUMPDEST PUSH1 0x1 DUP3 ADD SWAP1 POP SWAP2 SWAP1 POP JUMP JUMPDEST PUSH0 PUSH2 0x2C17 DUP3 PUSH2 0x21DD JUMP JUMPDEST SWAP2 POP PUSH2 0x2C22 DUP4 PUSH2 0x21DD JUMP JUMPDEST SWAP3 POP DUP3 DUP3 MUL PUSH2 0x2C30 DUP2 PUSH2 0x21DD JUMP JUMPDEST SWAP2 POP DUP3 DUP3 DIV DUP5 EQ DUP4 ISZERO OR PUSH2 0x2C47 JUMPI PUSH2 0x2C46 PUSH2 0x26AC JUMP JUMPDEST JUMPDEST POP SWAP3 SWAP2 POP POP JUMP JUMPDEST PUSH32 0x4E487B7100000000000000000000000000000000000000000000000000000000 PUSH0 MSTORE PUSH1 0x12 PUSH1 0x4 MSTORE PUSH1 0x24 PUSH0 REVERT JUMPDEST PUSH0 PUSH2 0x2C85 DUP3 PUSH2 0x21DD JUMP JUMPDEST SWAP2 POP PUSH2 0x2C90 DUP4 PUSH2 0x21DD JUMP JUMPDEST SWAP3 POP DUP3 PUSH2 0x2CA0 JUMPI PUSH2 0x2C9F PUSH2 0x2C4E JUMP JUMPDEST JUMPDEST DUP3 DUP3 DIV SWAP1 POP SWAP3 SWAP2 POP POP JUMP JUMPDEST PUSH32 0x43616E6E6F7420636F6D706F756E6420646966666572656E7420746F6B656E73 PUSH0 DUP3 ADD MSTORE POP JUMP JUMPDEST PUSH0 PUSH2 0x2CDF PUSH1 0x20 DUP4 PUSH2 0x2634 JUMP JUMPDEST SWAP2 POP PUSH2 0x2CEA DUP3 PUSH2 0x2CAB JUMP JUMPDEST PUSH1 0x20 DUP3 ADD SWAP1 POP SWAP2 SWAP1 POP JUMP JUMPDEST PUSH0 PUSH1 0x20 DUP3 ADD SWAP1 POP DUP2 DUP2 SUB PUSH0 DUP4 ADD MSTORE PUSH2 0x2D0C DUP2 PUSH2 0x2CD3 JUMP JUMPDEST SWAP1 POP SWAP2 SWAP1 POP JUMP JUMPDEST PUSH32 0x5265656E7472616E637947756172643A207265656E7472616E742063616C6C00 PUSH0 DUP3 ADD MSTORE POP JUMP JUMPDEST PUSH0 PUSH2 0x2D47 PUSH1 0x1F DUP4 PUSH2 0x2634 JUMP JUMPDEST SWAP2 POP PUSH2 0x2D52 DUP3 PUSH2 0x2D13 JUMP JUMPDEST PUSH1 0x20 DUP3 ADD SWAP1 POP SWAP2 SWAP1 POP JUMP JUMPDEST PUSH0 PUSH1 0x20 DUP3 ADD SWAP1 POP DUP2 DUP2 SUB PUSH0 DUP4 ADD MSTORE PUSH2 0x2D74 DUP2 PUSH2 0x2D3B JUMP JUMPDEST SWAP1 POP SWAP2 SWAP1 POP JUMP JUMPDEST PUSH0 PUSH1 0x40 DUP3 ADD SWAP1 POP PUSH2 0x2D8E PUSH0 DUP4 ADD DUP6 PUSH2 0x2325 JUMP JUMPDEST PUSH2 0x2D9B PUSH1 0x20 DUP4 ADD DUP5 PUSH2 0x22A8 JUMP JUMPDEST SWAP4 SWAP3 POP POP POP JUMP JUMPDEST PUSH32 0x5061757361626C653A2070617573656400000000000000000000000000000000 PUSH0 DUP3 ADD MSTORE POP JUMP JUMPDEST PUSH0 PUSH2 0x2DD6 PUSH1 0x10 DUP4 PUSH2 0x2634 JUMP JUMPDEST SWAP2 POP PUSH2 0x2DE1 DUP3 PUSH2 0x2DA2 JUMP JUMPDEST PUSH1 0x20 DUP3 ADD SWAP1 POP SWAP2 SWAP1 POP JUMP JUMPDEST PUSH0 PUSH1 0x20 DUP3 ADD SWAP1 POP DUP2 DUP2 SUB PUSH0 DUP4 ADD MSTORE PUSH2 0x2E03 DUP2 PUSH2 0x2DCA JUMP JUMPDEST SWAP1 POP SWAP2 SWAP1 POP JUMP JUMPDEST PUSH0 PUSH1 0x60 DUP3 ADD SWAP1 POP PUSH2 0x2E1D PUSH0 DUP4 ADD DUP7 PUSH2 0x2325 JUMP JUMPDEST PUSH2 0x2E2A PUSH1 0x20 DUP4 ADD DUP6 PUSH2 0x2325 JUMP JUMPDEST PUSH2 0x2E37 PUSH1 0x40 DUP4 ADD DUP5 PUSH2 0x22A8 JUMP JUMPDEST SWAP5 SWAP4 POP POP POP POP JUMP JUMPDEST PUSH32 0x5061757361626C653A206E6F7420706175736564000000000000000000000000 PUSH0 DUP3 ADD MSTORE POP JUMP JUMPDEST PUSH0 PUSH2 0x2E73 PUSH1 0x14 DUP4 PUSH2 0x2634 JUMP JUMPDEST SWAP2 POP PUSH2 0x2E7E DUP3 PUSH2 0x2E3F JUMP JUMPDEST PUSH1 0x20 DUP3 ADD SWAP1 POP SWAP2 SWAP1 POP JUMP JUMPDEST PUSH0 PUSH1 0x20 DUP3 ADD SWAP1 POP DUP2 DUP2 SUB PUSH0 DUP4 ADD MSTORE PUSH2 0x2EA0 DUP2 PUSH2 0x2E67 JUMP JUMPDEST SWAP1 POP SWAP2 SWAP1 POP JUMP INVALID LOG2 PUSH5 0x6970667358 0x22 SLT KECCAK256 BASEFEE SWAP6 JUMPDEST DUP7 TIMESTAMP SUB PREVRANDAO EXTDELEGATECALL 0xD4 SWAP13 LOG0 0xAC DUPN 0x74 PUSH10 0x6553F984E6B7BE37C8EA PUSH27 0x1DB289CBF68164736F6C634300081E003300000000000000000000 "
				},
				"gasEstimates": {
					"creation": {
						"codeDepositCost": "2399400",
						"executionCost": "infinite",
						"totalCost": "infinite"
					},
					"external": {
						"REWARD_PRECISION()": "415",
						"compound(uint256)": "infinite",
						"createPool(address,address,uint256,uint256,uint256)": "infinite",
						"earned(uint256,address)": "infinite",
						"emergencyWithdraw(uint256)": "infinite",
						"exit(uint256)": "infinite",
						"getPoolInfo(uint256)": "infinite",
						"getReward(uint256)": "infinite",
						"getUserInfo(uint256,address)": "infinite",
						"owner()": "2604",
						"pause()": "infinite",
						"paused()": "2591",
						"poolCount()": "2557",
						"pools(uint256)": "infinite",
						"renounceOwnership()": "infinite",
						"rewardPerToken(uint256)": "infinite",
						"setPoolStatus(uint256,bool)": "infinite",
						"stake(uint256,uint256)": "infinite",
						"transferOwnership(address)": "infinite",
						"unpause()": "infinite",
						"updateRewardRate(uint256,uint256)": "infinite",
						"userInfo(uint256,address)": "infinite",
						"withdraw(uint256,uint256)": "infinite"
					}
				},
				"methodIdentifiers": {
					"REWARD_PRECISION()": "3d6aa5e1",
					"compound(uint256)": "aa5f7e26",
					"createPool(address,address,uint256,uint256,uint256)": "85ac165a",
					"earned(uint256,address)": "e39c08fc",
					"emergencyWithdraw(uint256)": "5312ea8e",
					"exit(uint256)": "7f8661a1",
					"getPoolInfo(uint256)": "2f380b35",
					"getReward(uint256)": "1c4b774b",
					"getUserInfo(uint256,address)": "1069f3b5",
					"owner()": "8da5cb5b",
					"pause()": "8456cb59",
					"paused()": "5c975abb",
					"poolCount()": "f525cb68",
					"pools(uint256)": "ac4afa38",
					"renounceOwnership()": "715018a6",
					"rewardPerToken(uint256)": "874c120b",
					"setPoolStatus(uint256,bool)": "bbcaf3fe",
					"stake(uint256,uint256)": "7b0472f0",
					"transferOwnership(address)": "f2fde38b",
					"unpause()": "3f4ba83a",
					"updateRewardRate(uint256,uint256)": "b32534cf",
					"userInfo(uint256,address)": "93f1a40b",
					"withdraw(uint256,uint256)": "441a3e70"
				}
			},
			"storageLayout": {
				"storage": [
					{
						"astId": 356,
						"contract": "contracts/DeFiStakingPlatform.sol:DeFiStaking",
						"label": "_status",
						"offset": 0,
						"slot": "0",
						"type": "t_uint256"
					},
					{
						"astId": 8,
						"contract": "contracts/DeFiStakingPlatform.sol:DeFiStaking",
						"label": "_owner",
						"offset": 0,
						"slot": "1",
						"type": "t_address"
					},
					{
						"astId": 255,
						"contract": "contracts/DeFiStakingPlatform.sol:DeFiStaking",
						"label": "_paused",
						"offset": 20,
						"slot": "1",
						"type": "t_bool"
					},
					{
						"astId": 1046,
						"contract": "contracts/DeFiStakingPlatform.sol:DeFiStaking",
						"label": "pools",
						"offset": 0,
						"slot": "2",
						"type": "t_mapping(t_uint256,t_struct(StakingPool)1032_storage)"
					},
					{
						"astId": 1053,
						"contract": "contracts/DeFiStakingPlatform.sol:DeFiStaking",
						"label": "userInfo",
						"offset": 0,
						"slot": "3",
						"type": "t_mapping(t_uint256,t_mapping(t_address,t_struct(UserInfo)1041_storage))"
					},
					{
						"astId": 1055,
						"contract": "contracts/DeFiStakingPlatform.sol:DeFiStaking",
						"label": "poolCount",
						"offset": 0,
						"slot": "4",
						"type": "t_uint256"
					}
				],
				"types": {
					"t_address": {
						"encoding": "inplace",
						"label": "address",
						"numberOfBytes": "20"
					},
					"t_bool": {
						"encoding": "inplace",
						"label": "bool",
						"numberOfBytes": "1"
					},
					"t_contract(IERC20)488": {
						"encoding": "inplace",
						"label": "contract IERC20",
						"numberOfBytes": "20"
					},
					"t_mapping(t_address,t_struct(UserInfo)1041_storage)": {
						"encoding": "mapping",
						"key": "t_address",
						"label": "mapping(address => struct DeFiStaking.UserInfo)",
						"numberOfBytes": "32",
						"value": "t_struct(UserInfo)1041_storage"
					},
					"t_mapping(t_uint256,t_mapping(t_address,t_struct(UserInfo)1041_storage))": {
						"encoding": "mapping",
						"key": "t_uint256",
						"label": "mapping(uint256 => mapping(address => struct DeFiStaking.UserInfo))",
						"numberOfBytes": "32",
						"value": "t_mapping(t_address,t_struct(UserInfo)1041_storage)"
					},
					"t_mapping(t_uint256,t_struct(StakingPool)1032_storage)": {
						"encoding": "mapping",
						"key": "t_uint256",
						"label": "mapping(uint256 => struct DeFiStaking.StakingPool)",
						"numberOfBytes": "32",
						"value": "t_struct(StakingPool)1032_storage"
					},
					"t_struct(StakingPool)1032_storage": {
						"encoding": "inplace",
						"label": "struct DeFiStaking.StakingPool",
						"members": [
							{
								"astId": 1014,
								"contract": "contracts/DeFiStakingPlatform.sol:DeFiStaking",
								"label": "stakingToken",
								"offset": 0,
								"slot": "0",
								"type": "t_contract(IERC20)488"
							},
							{
								"astId": 1017,
								"contract": "contracts/DeFiStakingPlatform.sol:DeFiStaking",
								"label": "rewardToken",
								"offset": 0,
								"slot": "1",
								"type": "t_contract(IERC20)488"
							},
							{
								"astId": 1019,
								"contract": "contracts/DeFiStakingPlatform.sol:DeFiStaking",
								"label": "rewardRate",
								"offset": 0,
								"slot": "2",
								"type": "t_uint256"
							},
							{
								"astId": 1021,
								"contract": "contracts/DeFiStakingPlatform.sol:DeFiStaking",
								"label": "lastUpdateTime",
								"offset": 0,
								"slot": "3",
								"type": "t_uint256"
							},
							{
								"astId": 1023,
								"contract": "contracts/DeFiStakingPlatform.sol:DeFiStaking",
								"label": "rewardPerTokenStored",
								"offset": 0,
								"slot": "4",
								"type": "t_uint256"
							},
							{
								"astId": 1025,
								"contract": "contracts/DeFiStakingPlatform.sol:DeFiStaking",
								"label": "totalSupply",
								"offset": 0,
								"slot": "5",
								"type": "t_uint256"
							},
							{
								"astId": 1027,
								"contract": "contracts/DeFiStakingPlatform.sol:DeFiStaking",
								"label": "minimumStake",
								"offset": 0,
								"slot": "6",
								"type": "t_uint256"
							},
							{
								"astId": 1029,
								"contract": "contracts/DeFiStakingPlatform.sol:DeFiStaking",
								"label": "lockPeriod",
								"offset": 0,
								"slot": "7",
								"type": "t_uint256"
							},
							{
								"astId": 1031,
								"contract": "contracts/DeFiStakingPlatform.sol:DeFiStaking",
								"label": "active",
								"offset": 0,
								"slot": "8",
								"type": "t_bool"
							}
						],
						"numberOfBytes": "288"
					},
					"t_struct(UserInfo)1041_storage": {
						"encoding": "inplace",
						"label": "struct DeFiStaking.UserInfo",
						"members": [
							{
								"astId": 1034,
								"contract": "contracts/DeFiStakingPlatform.sol:DeFiStaking",
								"label": "balance",
								"offset": 0,
								"slot": "0",
								"type": "t_uint256"
							},
							{
								"astId": 1036,
								"contract": "contracts/DeFiStakingPlatform.sol:DeFiStaking",
								"label": "userRewardPerTokenPaid",
								"offset": 0,
								"slot": "1",
								"type": "t_uint256"
							},
							{
								"astId": 1038,
								"contract": "contracts/DeFiStakingPlatform.sol:DeFiStaking",
								"label": "rewards",
								"offset": 0,
								"slot": "2",
								"type": "t_uint256"
							},
							{
								"astId": 1040,
								"contract": "contracts/DeFiStakingPlatform.sol:DeFiStaking",
								"label": "stakedTime",
								"offset": 0,
								"slot": "3",
								"type": "t_uint256"
							}
						],
						"numberOfBytes": "128"
					},
					"t_uint256": {
						"encoding": "inplace",
						"label": "uint256",
						"numberOfBytes": "32"
					}
				}
			},
			"userdoc": {
				"kind": "user",
				"methods": {},
				"version": 1
			}
		}
	}
}