{
	"contracts/MultiSignatureWallet.sol": {
		"MultiSigWallet": {
			"abi": [
				{
					"inputs": [
						{
							"internalType": "address[]",
							"name": "_owners",
							"type": "address[]"
						},
						{
							"internalType": "uint256",
							"name": "_required",
							"type": "uint256"
						}
					],
					"stateMutability": "nonpayable",
					"type": "constructor"
				},
				{
					"inputs": [
						{
							"internalType": "address",
							"name": "token",
							"type": "address"
						}
					],
					"name": "SafeERC20FailedOperation",
					"type": "error"
				},
				{
					"anonymous": false,
					"inputs": [
						{
							"indexed": true,
							"internalType": "address",
							"name": "owner",
							"type": "address"
						},
						{
							"indexed": true,
							"internalType": "uint256",
							"name": "txIndex",
							"type": "uint256"
						}
					],
					"name": "ConfirmTransaction",
					"type": "event"
				},
				{
					"anonymous": false,
					"inputs": [
						{
							"indexed": true,
							"internalType": "address",
							"name": "sender",
							"type": "address"
						},
						{
							"indexed": false,
							"internalType": "uint256",
							"name": "amount",
							"type": "uint256"
						},
						{
							"indexed": false,
							"internalType": "uint256",
							"name": "balance",
							"type": "uint256"
						}
					],
					"name": "Deposit",
					"type": "event"
				},
				{
					"anonymous": false,
					"inputs": [
						{
							"indexed": true,
							"internalType": "address",
							"name": "owner",
							"type": "address"
						},
						{
							"indexed": true,
							"internalType": "uint256",
							"name": "txIndex",
							"type": "uint256"
						}
					],
					"name": "ExecuteTransaction",
					"type": "event"
				},
				{
					"anonymous": false,
					"inputs": [
						{
							"indexed": true,
							"internalType": "address",
							"name": "owner",
							"type": "address"
						}
					],
					"name": "OwnerAddition",
					"type": "event"
				},
				{
					"anonymous": false,
					"inputs": [
						{
							"indexed": true,
							"internalType": "address",
							"name": "owner",
							"type": "address"
						}
					],
					"name": "OwnerRemoval",
					"type": "event"
				},
				{
					"anonymous": false,
					"inputs": [
						{
							"indexed": false,
							"internalType": "uint256",
							"name": "required",
							"type": "uint256"
						}
					],
					"name": "RequirementChange",
					"type": "event"
				},
				{
					"anonymous": false,
					"inputs": [
						{
							"indexed": true,
							"internalType": "address",
							"name": "owner",
							"type": "address"
						},
						{
							"indexed": true,
							"internalType": "uint256",
							"name": "txIndex",
							"type": "uint256"
						}
					],
					"name": "RevokeConfirmation",
					"type": "event"
				},
				{
					"anonymous": false,
					"inputs": [
						{
							"indexed": true,
							"internalType": "address",
							"name": "owner",
							"type": "address"
						},
						{
							"indexed": true,
							"internalType": "uint256",
							"name": "txIndex",
							"type": "uint256"
						},
						{
							"indexed": true,
							"internalType": "address",
							"name": "to",
							"type": "address"
						},
						{
							"indexed": false,
							"internalType": "uint256",
							"name": "value",
							"type": "uint256"
						},
						{
							"indexed": false,
							"internalType": "bytes",
							"name": "data",
							"type": "bytes"
						},
						{
							"indexed": false,
							"internalType": "address",
							"name": "token",
							"type": "address"
						}
					],
					"name": "SubmitTransaction",
					"type": "event"
				},
				{
					"anonymous": false,
					"inputs": [
						{
							"indexed": true,
							"internalType": "address",
							"name": "sender",
							"type": "address"
						},
						{
							"indexed": true,
							"internalType": "address",
							"name": "token",
							"type": "address"
						},
						{
							"indexed": false,
							"internalType": "uint256",
							"name": "amount",
							"type": "uint256"
						}
					],
					"name": "TokenDeposit",
					"type": "event"
				},
				{
					"inputs": [
						{
							"internalType": "address",
							"name": "owner",
							"type": "address"
						}
					],
					"name": "addOwner",
					"outputs": [],
					"stateMutability": "nonpayable",
					"type": "function"
				},
				{
					"inputs": [
						{
							"internalType": "uint256",
							"name": "_required",
							"type": "uint256"
						}
					],
					"name": "changeRequirement",
					"outputs": [],
					"stateMutability": "nonpayable",
					"type": "function"
				},
				{
					"inputs": [
						{
							"internalType": "uint256",
							"name": "txIndex",
							"type": "uint256"
						}
					],
					"name": "confirmTransaction",
					"outputs": [],
					"stateMutability": "nonpayable",
					"type": "function"
				},
				{
					"inputs": [
						{
							"internalType": "address",
							"name": "token",
							"type": "address"
						},
						{
							"internalType": "uint256",
							"name": "amount",
							"type": "uint256"
						}
					],
					"name": "depositToken",
					"outputs": [],
					"stateMutability": "nonpayable",
					"type": "function"
				},
				{
					"inputs": [
						{
							"internalType": "uint256",
							"name": "txIndex",
							"type": "uint256"
						}
					],
					"name": "executeTransaction",
					"outputs": [],
					"stateMutability": "nonpayable",
					"type": "function"
				},
				{
					"inputs": [],
					"name": "getBalance",
					"outputs": [
						{
							"internalType": "uint256",
							"name": "",
							"type": "uint256"
						}
					],
					"stateMutability": "view",
					"type": "function"
				},
				{
					"inputs": [
						{
							"internalType": "uint256",
							"name": "txIndex",
							"type": "uint256"
						}
					],
					"name": "getConfirmations",
					"outputs": [
						{
							"internalType": "address[]",
							"name": "_confirmations",
							"type": "address[]"
						}
					],
					"stateMutability": "view",
					"type": "function"
				},
				{
					"inputs": [],
					"name": "getOwners",
					"outputs": [
						{
							"internalType": "address[]",
							"name": "",
							"type": "address[]"
						}
					],
					"stateMutability": "view",
					"type": "function"
				},
				{
					"inputs": [
						{
							"internalType": "address",
							"name": "token",
							"type": "address"
						}
					],
					"name": "getTokenBalance",
					"outputs": [
						{
							"internalType": "uint256",
							"name": "",
							"type": "uint256"
						}
					],
					"stateMutability": "view",
					"type": "function"
				},
				{
					"inputs": [
						{
							"internalType": "uint256",
							"name": "txIndex",
							"type": "uint256"
						}
					],
					"name": "getTransaction",
					"outputs": [
						{
							"internalType": "address",
							"name": "to",
							"type": "address"
						},
						{
							"internalType": "uint256",
							"name": "value",
							"type": "uint256"
						},
						{
							"internalType": "bytes",
							"name": "data",
							"type": "bytes"
						},
						{
							"internalType": "bool",
							"name": "executed",
							"type": "bool"
						},
						{
							"internalType": "uint256",
							"name": "confirmations",
							"type": "uint256"
						},
						{
							"internalType": "uint256",
							"name": "timestamp",
							"type": "uint256"
						},
						{
							"internalType": "address",
							"name": "token",
							"type": "address"
						}
					],
					"stateMutability": "view",
					"type": "function"
				},
				{
					"inputs": [
						{
							"internalType": "bool",
							"name": "pending",
							"type": "bool"
						},
						{
							"internalType": "bool",
							"name": "executed",
							"type": "bool"
						}
					],
					"name": "getTransactionCount",
					"outputs": [
						{
							"internalType": "uint256",
							"name": "count",
							"type": "uint256"
						}
					],
					"stateMutability": "view",
					"type": "function"
				},
				{
					"inputs": [
						{
							"internalType": "uint256",
							"name": "from",
							"type": "uint256"
						},
						{
							"internalType": "uint256",
							"name": "to",
							"type": "uint256"
						},
						{
							"internalType": "bool",
							"name": "pending",
							"type": "bool"
						},
						{
							"internalType": "bool",
							"name": "executed",
							"type": "bool"
						}
					],
					"name": "getTransactionIds",
					"outputs": [
						{
							"internalType": "uint256[]",
							"name": "_transactionIds",
							"type": "uint256[]"
						}
					],
					"stateMutability": "view",
					"type": "function"
				},
				{
					"inputs": [
						{
							"internalType": "uint256",
							"name": "",
							"type": "uint256"
						},
						{
							"internalType": "address",
							"name": "",
							"type": "address"
						}
					],
					"name": "isConfirmed",
					"outputs": [
						{
							"internalType": "bool",
							"name": "",
							"type": "bool"
						}
					],
					"stateMutability": "view",
					"type": "function"
				},
				{
					"inputs": [
						{
							"internalType": "uint256",
							"name": "txIndex",
							"type": "uint256"
						},
						{
							"internalType": "address",
							"name": "owner",
							"type": "address"
						}
					],
					"name": "isConfirmedBy",
					"outputs": [
						{
							"internalType": "bool",
							"name": "",
							"type": "bool"
						}
					],
					"stateMutability": "view",
					"type": "function"
				},
				{
					"inputs": [
						{
							"internalType": "address",
							"name": "",
							"type": "address"
						}
					],
					"name": "isOwner",
					"outputs": [
						{
							"internalType": "bool",
							"name": "",
							"type": "bool"
						}
					],
					"stateMutability": "view",
					"type": "function"
				},
				{
					"inputs": [
						{
							"internalType": "uint256",
							"name": "",
							"type": "uint256"
						}
					],
					"name": "owners",
					"outputs": [
						{
							"internalType": "address",
							"name": "",
							"type": "address"
						}
					],
					"stateMutability": "view",
					"type": "function"
				},
				{
					"inputs": [
						{
							"internalType": "address",
							"name": "owner",
							"type": "address"
						}
					],
					"name": "removeOwner",
					"outputs": [],
					"stateMutability": "nonpayable",
					"type": "function"
				},
				{
					"inputs": [
						{
							"internalType": "address",
							"name": "owner",
							"type": "address"
						},
						{
							"internalType": "address",
							"name": "newOwner",
							"type": "address"
						}
					],
					"name": "replaceOwner",
					"outputs": [],
					"stateMutability": "nonpayable",
					"type": "function"
				},
				{
					"inputs": [],
					"name": "required",
					"outputs": [
						{
							"internalType": "uint256",
							"name": "",
							"type": "uint256"
						}
					],
					"stateMutability": "view",
					"type": "function"
				},
				{
					"inputs": [
						{
							"internalType": "uint256",
							"name": "txIndex",
							"type": "uint256"
						}
					],
					"name": "revokeConfirmation",
					"outputs": [],
					"stateMutability": "nonpayable",
					"type": "function"
				},
				{
					"inputs": [
						{
							"internalType": "address",
							"name": "to",
							"type": "address"
						},
						{
							"internalType": "uint256",
							"name": "value",
							"type": "uint256"
						},
						{
							"internalType": "bytes",
							"name": "data",
							"type": "bytes"
						},
						{
							"internalType": "address",
							"name": "token",
							"type": "address"
						}
					],
					"name": "submitTransaction",
					"outputs": [
						{
							"internalType": "uint256",
							"name": "txIndex",
							"type": "uint256"
						}
					],
					"stateMutability": "nonpayable",
					"type": "function"
				},
				{
					"inputs": [],
					"name": "transactionCount",
					"outputs": [
						{
							"internalType": "uint256",
							"name": "",
							"type": "uint256"
						}
					],
					"stateMutability": "view",
					"type": "function"
				},
				{
					"inputs": [
						{
							"internalType": "uint256",
							"name": "",
							"type": "uint256"
						}
					],
					"name": "transactions",
					"outputs": [
						{
							"internalType": "address",
							"name": "to",
							"type": "address"
						},
						{
							"internalType": "uint256",
							"name": "value",
							"type": "uint256"
						},
						{
							"internalType": "bytes",
							"name": "data",
							"type": "bytes"
						},
						{
							"internalType": "bool",
							"name": "executed",
							"type": "bool"
						},
						{
							"internalType": "uint256",
							"name": "confirmations",
							"type": "uint256"
						},
						{
							"internalType": "uint256",
							"name": "timestamp",
							"type": "uint256"
						},
						{
							"internalType": "address",
							"name": "token",
							"type": "address"
						}
					],
					"stateMutability": "view",
					"type": "function"
				},
				{
					"stateMutability": "payable",
					"type": "receive"
				}
			],
			"devdoc": {
				"errors": {
					"SafeERC20FailedOperation(address)": [
						{
							"details": "An operation with an ERC-20 token failed."
						}
					]
				},
				"kind": "dev",
				"methods": {},
				"version": 1
			},
			"evm": {
				"assembly": "    /* \"contracts/MultiSignatureWallet.sol\":252:11158  contract MultiSigWallet is ReentrancyGuard {... */\n  mstore(0x40, 0x80)\n    /* \"contracts/MultiSignatureWallet.sol\":2901:3289  constructor(address[] memory _owners, uint256 _required)... */\n  callvalue\n  dup1\n  iszero\n  tag_1\n  jumpi\n  revert(0x00, 0x00)\ntag_1:\n  pop\n  mload(0x40)\n  sub(codesize, bytecodeSize)\n  dup1\n  bytecodeSize\n  dup4\n  codecopy\n  dup2\n  dup2\n  add\n  0x40\n  mstore\n  dup2\n  add\n  swap1\n  tag_2\n  swap2\n  swap1\n  tag_3\n  jump\t// in\ntag_2:\n    /* \"@openzeppelin/contracts/security/ReentrancyGuard.sol\":1716:1717  1 */\n  0x01\n    /* \"@openzeppelin/contracts/security/ReentrancyGuard.sol\":1821:1828  _status */\n  0x00\n    /* \"@openzeppelin/contracts/security/ReentrancyGuard.sol\":1821:1843  _status = _NOT_ENTERED */\n  dup2\n  swap1\n  sstore\n  pop\n    /* \"contracts/MultiSignatureWallet.sol\":2984:2991  _owners */\n  dup2\n    /* \"contracts/MultiSignatureWallet.sol\":2984:2998  _owners.length */\n  mload\n    /* \"contracts/MultiSignatureWallet.sol\":3000:3009  _required */\n  dup2\n    /* \"contracts/MultiSignatureWallet.sol\":2756:2758  20 */\n  0x14\n    /* \"contracts/MultiSignatureWallet.sol\":2742:2752  ownerCount */\n  dup3\n    /* \"contracts/MultiSignatureWallet.sol\":2742:2758  ownerCount <= 20 */\n  gt\n  iszero\n    /* \"contracts/MultiSignatureWallet.sol\":2742:2785  ownerCount <= 20 && _required <= ownerCount */\n  dup1\n  iszero\n  tag_8\n  jumpi\n  pop\n    /* \"contracts/MultiSignatureWallet.sol\":2775:2785  ownerCount */\n  dup2\n    /* \"contracts/MultiSignatureWallet.sol\":2762:2771  _required */\n  dup2\n    /* \"contracts/MultiSignatureWallet.sol\":2762:2785  _required <= ownerCount */\n  gt\n  iszero\n    /* \"contracts/MultiSignatureWallet.sol\":2742:2785  ownerCount <= 20 && _required <= ownerCount */\ntag_8:\n    /* \"contracts/MultiSignatureWallet.sol\":2742:2803  ownerCount <= 20 && _required <= ownerCount && _required != 0 */\n  dup1\n  iszero\n  tag_9\n  jumpi\n  pop\n    /* \"contracts/MultiSignatureWallet.sol\":2802:2803  0 */\n  0x00\n    /* \"contracts/MultiSignatureWallet.sol\":2789:2798  _required */\n  dup2\n    /* \"contracts/MultiSignatureWallet.sol\":2789:2803  _required != 0 */\n  eq\n  iszero\n    /* \"contracts/MultiSignatureWallet.sol\":2742:2803  ownerCount <= 20 && _required <= ownerCount && _required != 0 */\ntag_9:\n    /* \"contracts/MultiSignatureWallet.sol\":2742:2822  ownerCount <= 20 && _required <= ownerCount && _required != 0 && ownerCount != 0 */\n  dup1\n  iszero\n  tag_10\n  jumpi\n  pop\n    /* \"contracts/MultiSignatureWallet.sol\":2821:2822  0 */\n  0x00\n    /* \"contracts/MultiSignatureWallet.sol\":2807:2817  ownerCount */\n  dup3\n    /* \"contracts/MultiSignatureWallet.sol\":2807:2822  ownerCount != 0 */\n  eq\n  iszero\n    /* \"contracts/MultiSignatureWallet.sol\":2742:2822  ownerCount <= 20 && _required <= ownerCount && _required != 0 && ownerCount != 0 */\ntag_10:\n    /* \"contracts/MultiSignatureWallet.sol\":2720:2869  require(... */\n  tag_11\n  jumpi\n  mload(0x40)\n  0x08c379a000000000000000000000000000000000000000000000000000000000\n  dup2\n  mstore\n  0x04\n  add\n  tag_12\n  swap1\n  tag_13\n  jump\t// in\ntag_12:\n  mload(0x40)\n  dup1\n  swap2\n  sub\n  swap1\n  revert\ntag_11:\n    /* \"contracts/MultiSignatureWallet.sol\":3032:3041  uint256 i */\n  0x00\n    /* \"contracts/MultiSignatureWallet.sol\":3044:3045  0 */\n  0x00\n    /* \"contracts/MultiSignatureWallet.sol\":3032:3045  uint256 i = 0 */\n  swap1\n  pop\n    /* \"contracts/MultiSignatureWallet.sol\":3027:3214  for (uint256 i = 0; i < _owners.length; i++) {... */\ntag_15:\n    /* \"contracts/MultiSignatureWallet.sol\":3051:3058  _owners */\n  dup5\n    /* \"contracts/MultiSignatureWallet.sol\":3051:3065  _owners.length */\n  mload\n    /* \"contracts/MultiSignatureWallet.sol\":3047:3048  i */\n  dup2\n    /* \"contracts/MultiSignatureWallet.sol\":3047:3065  i < _owners.length */\n  lt\n    /* \"contracts/MultiSignatureWallet.sol\":3027:3214  for (uint256 i = 0; i < _owners.length; i++) {... */\n  iszero\n  tag_16\n  jumpi\n    /* \"contracts/MultiSignatureWallet.sol\":3096:3103  isOwner */\n  0x03\n    /* \"contracts/MultiSignatureWallet.sol\":3096:3115  isOwner[_owners[i]] */\n  0x00\n    /* \"contracts/MultiSignatureWallet.sol\":3104:3111  _owners */\n  dup7\n    /* \"contracts/MultiSignatureWallet.sol\":3112:3113  i */\n  dup4\n    /* \"contracts/MultiSignatureWallet.sol\":3104:3114  _owners[i] */\n  dup2\n  mload\n  dup2\n  lt\n  tag_18\n  jumpi\n  tag_19\n  tag_20\n  jump\t// in\ntag_19:\ntag_18:\n  0x20\n  mul\n  0x20\n  add\n  add\n  mload\n    /* \"contracts/MultiSignatureWallet.sol\":3096:3115  isOwner[_owners[i]] */\n  0xffffffffffffffffffffffffffffffffffffffff\n  and\n  0xffffffffffffffffffffffffffffffffffffffff\n  and\n  dup2\n  mstore\n  0x20\n  add\n  swap1\n  dup2\n  mstore\n  0x20\n  add\n  0x00\n  keccak256\n  0x00\n  swap1\n  sload\n  swap1\n  0x0100\n  exp\n  swap1\n  div\n  0xff\n  and\n    /* \"contracts/MultiSignatureWallet.sol\":3095:3115  !isOwner[_owners[i]] */\n  iszero\n    /* \"contracts/MultiSignatureWallet.sol\":3095:3143  !isOwner[_owners[i]] && _owners[i] != address(0) */\n  dup1\n  iszero\n  tag_21\n  jumpi\n  pop\n    /* \"contracts/MultiSignatureWallet.sol\":3141:3142  0 */\n  0x00\n    /* \"contracts/MultiSignatureWallet.sol\":3119:3143  _owners[i] != address(0) */\n  0xffffffffffffffffffffffffffffffffffffffff\n  and\n    /* \"contracts/MultiSignatureWallet.sol\":3119:3126  _owners */\n  dup6\n    /* \"contracts/MultiSignatureWallet.sol\":3127:3128  i */\n  dup3\n    /* \"contracts/MultiSignatureWallet.sol\":3119:3129  _owners[i] */\n  dup2\n  mload\n  dup2\n  lt\n  tag_22\n  jumpi\n  tag_23\n  tag_20\n  jump\t// in\ntag_23:\ntag_22:\n  0x20\n  mul\n  0x20\n  add\n  add\n  mload\n    /* \"contracts/MultiSignatureWallet.sol\":3119:3143  _owners[i] != address(0) */\n  0xffffffffffffffffffffffffffffffffffffffff\n  and\n  eq\n  iszero\n    /* \"contracts/MultiSignatureWallet.sol\":3095:3143  !isOwner[_owners[i]] && _owners[i] != address(0) */\ntag_21:\n    /* \"contracts/MultiSignatureWallet.sol\":3087:3161  require(!isOwner[_owners[i]] && _owners[i] != address(0), \"Invalid owner\") */\n  tag_24\n  jumpi\n  mload(0x40)\n  0x08c379a000000000000000000000000000000000000000000000000000000000\n  dup2\n  mstore\n  0x04\n  add\n  tag_25\n  swap1\n  tag_26\n  jump\t// in\ntag_25:\n  mload(0x40)\n  dup1\n  swap2\n  sub\n  swap1\n  revert\ntag_24:\n    /* \"contracts/MultiSignatureWallet.sol\":3198:3202  true */\n  0x01\n    /* \"contracts/MultiSignatureWallet.sol\":3176:3183  isOwner */\n  0x03\n    /* \"contracts/MultiSignatureWallet.sol\":3176:3195  isOwner[_owners[i]] */\n  0x00\n    /* \"contracts/MultiSignatureWallet.sol\":3184:3191  _owners */\n  dup8\n    /* \"contracts/MultiSignatureWallet.sol\":3192:3193  i */\n  dup5\n    /* \"contracts/MultiSignatureWallet.sol\":3184:3194  _owners[i] */\n  dup2\n  mload\n  dup2\n  lt\n  tag_27\n  jumpi\n  tag_28\n  tag_20\n  jump\t// in\ntag_28:\ntag_27:\n  0x20\n  mul\n  0x20\n  add\n  add\n  mload\n    /* \"contracts/MultiSignatureWallet.sol\":3176:3195  isOwner[_owners[i]] */\n  0xffffffffffffffffffffffffffffffffffffffff\n  and\n  0xffffffffffffffffffffffffffffffffffffffff\n  and\n  dup2\n  mstore\n  0x20\n  add\n  swap1\n  dup2\n  mstore\n  0x20\n  add\n  0x00\n  keccak256\n  0x00\n    /* \"contracts/MultiSignatureWallet.sol\":3176:3202  isOwner[_owners[i]] = true */\n  0x0100\n  exp\n  dup2\n  sload\n  dup2\n  0xff\n  mul\n  not\n  and\n  swap1\n  dup4\n  iszero\n  iszero\n  mul\n  or\n  swap1\n  sstore\n  pop\n    /* \"contracts/MultiSignatureWallet.sol\":3067:3070  i++ */\n  dup1\n  dup1\n  0x01\n  add\n  swap2\n  pop\n  pop\n    /* \"contracts/MultiSignatureWallet.sol\":3027:3214  for (uint256 i = 0; i < _owners.length; i++) {... */\n  jump(tag_15)\ntag_16:\n  pop\n    /* \"contracts/MultiSignatureWallet.sol\":3243:3250  _owners */\n  dup4\n    /* \"contracts/MultiSignatureWallet.sol\":3234:3240  owners */\n  0x04\n    /* \"contracts/MultiSignatureWallet.sol\":3234:3250  owners = _owners */\n  swap1\n  dup1\n  mload\n  swap1\n  0x20\n  add\n  swap1\n  tag_29\n  swap3\n  swap2\n  swap1\n  tag_30\n  jump\t// in\ntag_29:\n  pop\n    /* \"contracts/MultiSignatureWallet.sol\":3272:3281  _required */\n  dup3\n    /* \"contracts/MultiSignatureWallet.sol\":3261:3269  required */\n  0x05\n    /* \"contracts/MultiSignatureWallet.sol\":3261:3281  required = _required */\n  dup2\n  swap1\n  sstore\n  pop\n    /* \"contracts/MultiSignatureWallet.sol\":2901:3289  constructor(address[] memory _owners, uint256 _required)... */\n  pop\n  pop\n  pop\n  pop\n    /* \"contracts/MultiSignatureWallet.sol\":252:11158  contract MultiSigWallet is ReentrancyGuard {... */\n  jump(tag_31)\ntag_30:\n  dup3\n  dup1\n  sload\n  dup3\n  dup3\n  sstore\n  swap1\n  0x00\n  mstore\n  keccak256(0x00, 0x20)\n  swap1\n  dup2\n  add\n  swap3\n  dup3\n  iszero\n  tag_32\n  jumpi\n  swap2\n  0x20\n  mul\n  dup3\n  add\ntag_33:\n  dup3\n  dup2\n  gt\n  iszero\n  tag_34\n  jumpi\n  dup3\n  mload\n  dup3\n  exp(0x0100, 0x00)\n  dup2\n  sload\n  dup2\n  0xffffffffffffffffffffffffffffffffffffffff\n  mul\n  not\n  and\n  swap1\n  dup4\n  0xffffffffffffffffffffffffffffffffffffffff\n  and\n  mul\n  or\n  swap1\n  sstore\n  pop\n  swap2\n  0x20\n  add\n  swap2\n  swap1\n  0x01\n  add\n  swap1\n  jump(tag_33)\ntag_34:\ntag_32:\n  pop\n  swap1\n  pop\n  tag_35\n  swap2\n  swap1\n  tag_36\n  jump\t// in\ntag_35:\n  pop\n  swap1\n  jump\t// out\ntag_36:\ntag_37:\n  dup1\n  dup3\n  gt\n  iszero\n  tag_38\n  jumpi\n  0x00\n  dup2\n  0x00\n  swap1\n  sstore\n  pop\n  0x01\n  add\n  jump(tag_37)\ntag_38:\n  pop\n  swap1\n  jump\t// out\n    /* \"#utility.yul\":7:82   */\ntag_39:\n    /* \"#utility.yul\":40:46   */\n  0x00\n    /* \"#utility.yul\":73:75   */\n  0x40\n    /* \"#utility.yul\":67:76   */\n  mload\n    /* \"#utility.yul\":57:76   */\n  swap1\n  pop\n    /* \"#utility.yul\":7:82   */\n  swap1\n  jump\t// out\n    /* \"#utility.yul\":88:205   */\ntag_40:\n    /* \"#utility.yul\":197:198   */\n  0x00\n    /* \"#utility.yul\":194:195   */\n  0x00\n    /* \"#utility.yul\":187:199   */\n  revert\n    /* \"#utility.yul\":211:328   */\ntag_41:\n    /* \"#utility.yul\":320:321   */\n  0x00\n    /* \"#utility.yul\":317:318   */\n  0x00\n    /* \"#utility.yul\":310:322   */\n  revert\n    /* \"#utility.yul\":334:451   */\ntag_42:\n    /* \"#utility.yul\":443:444   */\n  0x00\n    /* \"#utility.yul\":440:441   */\n  0x00\n    /* \"#utility.yul\":433:445   */\n  revert\n    /* \"#utility.yul\":457:559   */\ntag_43:\n    /* \"#utility.yul\":498:504   */\n  0x00\n    /* \"#utility.yul\":549:551   */\n  0x1f\n    /* \"#utility.yul\":545:552   */\n  not\n    /* \"#utility.yul\":540:542   */\n  0x1f\n    /* \"#utility.yul\":533:538   */\n  dup4\n    /* \"#utility.yul\":529:543   */\n  add\n    /* \"#utility.yul\":525:553   */\n  and\n    /* \"#utility.yul\":515:553   */\n  swap1\n  pop\n    /* \"#utility.yul\":457:559   */\n  swap2\n  swap1\n  pop\n  jump\t// out\n    /* \"#utility.yul\":565:745   */\ntag_44:\n    /* \"#utility.yul\":613:690   */\n  0x4e487b7100000000000000000000000000000000000000000000000000000000\n    /* \"#utility.yul\":610:611   */\n  0x00\n    /* \"#utility.yul\":603:691   */\n  mstore\n    /* \"#utility.yul\":710:714   */\n  0x41\n    /* \"#utility.yul\":707:708   */\n  0x04\n    /* \"#utility.yul\":700:715   */\n  mstore\n    /* \"#utility.yul\":734:738   */\n  0x24\n    /* \"#utility.yul\":731:732   */\n  0x00\n    /* \"#utility.yul\":724:739   */\n  revert\n    /* \"#utility.yul\":751:1032   */\ntag_45:\n    /* \"#utility.yul\":834:861   */\n  tag_71\n    /* \"#utility.yul\":856:860   */\n  dup3\n    /* \"#utility.yul\":834:861   */\n  tag_43\n  jump\t// in\ntag_71:\n    /* \"#utility.yul\":826:832   */\n  dup2\n    /* \"#utility.yul\":822:862   */\n  add\n    /* \"#utility.yul\":964:970   */\n  dup2\n    /* \"#utility.yul\":952:962   */\n  dup2\n    /* \"#utility.yul\":949:971   */\n  lt\n    /* \"#utility.yul\":928:946   */\n  0xffffffffffffffff\n    /* \"#utility.yul\":916:926   */\n  dup3\n    /* \"#utility.yul\":913:947   */\n  gt\n    /* \"#utility.yul\":910:972   */\n  or\n    /* \"#utility.yul\":907:995   */\n  iszero\n  tag_72\n  jumpi\n    /* \"#utility.yul\":975:993   */\n  tag_73\n  tag_44\n  jump\t// in\ntag_73:\n    /* \"#utility.yul\":907:995   */\ntag_72:\n    /* \"#utility.yul\":1015:1025   */\n  dup1\n    /* \"#utility.yul\":1011:1013   */\n  0x40\n    /* \"#utility.yul\":1004:1026   */\n  mstore\n    /* \"#utility.yul\":794:1032   */\n  pop\n    /* \"#utility.yul\":751:1032   */\n  pop\n  pop\n  jump\t// out\n    /* \"#utility.yul\":1038:1167   */\ntag_46:\n    /* \"#utility.yul\":1072:1078   */\n  0x00\n    /* \"#utility.yul\":1099:1119   */\n  tag_75\n  tag_39\n  jump\t// in\ntag_75:\n    /* \"#utility.yul\":1089:1119   */\n  swap1\n  pop\n    /* \"#utility.yul\":1128:1161   */\n  tag_76\n    /* \"#utility.yul\":1156:1160   */\n  dup3\n    /* \"#utility.yul\":1148:1154   */\n  dup3\n    /* \"#utility.yul\":1128:1161   */\n  tag_45\n  jump\t// in\ntag_76:\n    /* \"#utility.yul\":1038:1167   */\n  swap2\n  swap1\n  pop\n  jump\t// out\n    /* \"#utility.yul\":1173:1484   */\ntag_47:\n    /* \"#utility.yul\":1250:1254   */\n  0x00\n    /* \"#utility.yul\":1340:1358   */\n  0xffffffffffffffff\n    /* \"#utility.yul\":1332:1338   */\n  dup3\n    /* \"#utility.yul\":1329:1359   */\n  gt\n    /* \"#utility.yul\":1326:1382   */\n  iszero\n  tag_78\n  jumpi\n    /* \"#utility.yul\":1362:1380   */\n  tag_79\n  tag_44\n  jump\t// in\ntag_79:\n    /* \"#utility.yul\":1326:1382   */\ntag_78:\n    /* \"#utility.yul\":1412:1416   */\n  0x20\n    /* \"#utility.yul\":1404:1410   */\n  dup3\n    /* \"#utility.yul\":1400:1417   */\n  mul\n    /* \"#utility.yul\":1392:1417   */\n  swap1\n  pop\n    /* \"#utility.yul\":1472:1476   */\n  0x20\n    /* \"#utility.yul\":1466:1470   */\n  dup2\n    /* \"#utility.yul\":1462:1477   */\n  add\n    /* \"#utility.yul\":1454:1477   */\n  swap1\n  pop\n    /* \"#utility.yul\":1173:1484   */\n  swap2\n  swap1\n  pop\n  jump\t// out\n    /* \"#utility.yul\":1490:1607   */\ntag_48:\n    /* \"#utility.yul\":1599:1600   */\n  0x00\n    /* \"#utility.yul\":1596:1597   */\n  0x00\n    /* \"#utility.yul\":1589:1601   */\n  revert\n    /* \"#utility.yul\":1613:1739   */\ntag_49:\n    /* \"#utility.yul\":1650:1657   */\n  0x00\n    /* \"#utility.yul\":1690:1732   */\n  0xffffffffffffffffffffffffffffffffffffffff\n    /* \"#utility.yul\":1683:1688   */\n  dup3\n    /* \"#utility.yul\":1679:1733   */\n  and\n    /* \"#utility.yul\":1668:1733   */\n  swap1\n  pop\n    /* \"#utility.yul\":1613:1739   */\n  swap2\n  swap1\n  pop\n  jump\t// out\n    /* \"#utility.yul\":1745:1841   */\ntag_50:\n    /* \"#utility.yul\":1782:1789   */\n  0x00\n    /* \"#utility.yul\":1811:1835   */\n  tag_83\n    /* \"#utility.yul\":1829:1834   */\n  dup3\n    /* \"#utility.yul\":1811:1835   */\n  tag_49\n  jump\t// in\ntag_83:\n    /* \"#utility.yul\":1800:1835   */\n  swap1\n  pop\n    /* \"#utility.yul\":1745:1841   */\n  swap2\n  swap1\n  pop\n  jump\t// out\n    /* \"#utility.yul\":1847:1969   */\ntag_51:\n    /* \"#utility.yul\":1920:1944   */\n  tag_85\n    /* \"#utility.yul\":1938:1943   */\n  dup2\n    /* \"#utility.yul\":1920:1944   */\n  tag_50\n  jump\t// in\ntag_85:\n    /* \"#utility.yul\":1913:1918   */\n  dup2\n    /* \"#utility.yul\":1910:1945   */\n  eq\n    /* \"#utility.yul\":1900:1963   */\n  tag_86\n  jumpi\n    /* \"#utility.yul\":1959:1960   */\n  0x00\n    /* \"#utility.yul\":1956:1957   */\n  0x00\n    /* \"#utility.yul\":1949:1961   */\n  revert\n    /* \"#utility.yul\":1900:1963   */\ntag_86:\n    /* \"#utility.yul\":1847:1969   */\n  pop\n  jump\t// out\n    /* \"#utility.yul\":1975:2118   */\ntag_52:\n    /* \"#utility.yul\":2032:2037   */\n  0x00\n    /* \"#utility.yul\":2063:2069   */\n  dup2\n    /* \"#utility.yul\":2057:2070   */\n  mload\n    /* \"#utility.yul\":2048:2070   */\n  swap1\n  pop\n    /* \"#utility.yul\":2079:2112   */\n  tag_88\n    /* \"#utility.yul\":2106:2111   */\n  dup2\n    /* \"#utility.yul\":2079:2112   */\n  tag_51\n  jump\t// in\ntag_88:\n    /* \"#utility.yul\":1975:2118   */\n  swap3\n  swap2\n  pop\n  pop\n  jump\t// out\n    /* \"#utility.yul\":2141:2873   */\ntag_53:\n    /* \"#utility.yul\":2248:2253   */\n  0x00\n    /* \"#utility.yul\":2273:2354   */\n  tag_90\n    /* \"#utility.yul\":2289:2353   */\n  tag_91\n    /* \"#utility.yul\":2346:2352   */\n  dup5\n    /* \"#utility.yul\":2289:2353   */\n  tag_47\n  jump\t// in\ntag_91:\n    /* \"#utility.yul\":2273:2354   */\n  tag_46\n  jump\t// in\ntag_90:\n    /* \"#utility.yul\":2264:2354   */\n  swap1\n  pop\n    /* \"#utility.yul\":2374:2379   */\n  dup1\n    /* \"#utility.yul\":2403:2409   */\n  dup4\n    /* \"#utility.yul\":2396:2401   */\n  dup3\n    /* \"#utility.yul\":2389:2410   */\n  mstore\n    /* \"#utility.yul\":2437:2441   */\n  0x20\n    /* \"#utility.yul\":2430:2435   */\n  dup3\n    /* \"#utility.yul\":2426:2442   */\n  add\n    /* \"#utility.yul\":2419:2442   */\n  swap1\n  pop\n    /* \"#utility.yul\":2490:2494   */\n  0x20\n    /* \"#utility.yul\":2482:2488   */\n  dup5\n    /* \"#utility.yul\":2478:2495   */\n  mul\n    /* \"#utility.yul\":2470:2476   */\n  dup4\n    /* \"#utility.yul\":2466:2496   */\n  add\n    /* \"#utility.yul\":2519:2522   */\n  dup6\n    /* \"#utility.yul\":2511:2517   */\n  dup2\n    /* \"#utility.yul\":2508:2523   */\n  gt\n    /* \"#utility.yul\":2505:2627   */\n  iszero\n  tag_92\n  jumpi\n    /* \"#utility.yul\":2538:2617   */\n  tag_93\n  tag_48\n  jump\t// in\ntag_93:\n    /* \"#utility.yul\":2505:2627   */\ntag_92:\n    /* \"#utility.yul\":2653:2659   */\n  dup4\n    /* \"#utility.yul\":2636:2867   */\ntag_94:\n    /* \"#utility.yul\":2670:2676   */\n  dup2\n    /* \"#utility.yul\":2665:2668   */\n  dup2\n    /* \"#utility.yul\":2662:2677   */\n  lt\n    /* \"#utility.yul\":2636:2867   */\n  iszero\n  tag_96\n  jumpi\n    /* \"#utility.yul\":2745:2748   */\n  dup1\n    /* \"#utility.yul\":2774:2822   */\n  tag_97\n    /* \"#utility.yul\":2818:2821   */\n  dup9\n    /* \"#utility.yul\":2806:2816   */\n  dup3\n    /* \"#utility.yul\":2774:2822   */\n  tag_52\n  jump\t// in\ntag_97:\n    /* \"#utility.yul\":2769:2772   */\n  dup5\n    /* \"#utility.yul\":2762:2823   */\n  mstore\n    /* \"#utility.yul\":2852:2856   */\n  0x20\n    /* \"#utility.yul\":2847:2850   */\n  dup5\n    /* \"#utility.yul\":2843:2857   */\n  add\n    /* \"#utility.yul\":2836:2857   */\n  swap4\n  pop\n    /* \"#utility.yul\":2712:2867   */\n  pop\n    /* \"#utility.yul\":2696:2700   */\n  0x20\n    /* \"#utility.yul\":2691:2694   */\n  dup2\n    /* \"#utility.yul\":2687:2701   */\n  add\n    /* \"#utility.yul\":2680:2701   */\n  swap1\n  pop\n    /* \"#utility.yul\":2636:2867   */\n  jump(tag_94)\ntag_96:\n    /* \"#utility.yul\":2640:2661   */\n  pop\n    /* \"#utility.yul\":2254:2873   */\n  pop\n  pop\n    /* \"#utility.yul\":2141:2873   */\n  swap4\n  swap3\n  pop\n  pop\n  pop\n  jump\t// out\n    /* \"#utility.yul\":2896:3281   */\ntag_54:\n    /* \"#utility.yul\":2978:2983   */\n  0x00\n    /* \"#utility.yul\":3027:3030   */\n  dup3\n    /* \"#utility.yul\":3020:3024   */\n  0x1f\n    /* \"#utility.yul\":3012:3018   */\n  dup4\n    /* \"#utility.yul\":3008:3025   */\n  add\n    /* \"#utility.yul\":3004:3031   */\n  slt\n    /* \"#utility.yul\":2994:3116   */\n  tag_99\n  jumpi\n    /* \"#utility.yul\":3035:3114   */\n  tag_100\n  tag_42\n  jump\t// in\ntag_100:\n    /* \"#utility.yul\":2994:3116   */\ntag_99:\n    /* \"#utility.yul\":3145:3151   */\n  dup2\n    /* \"#utility.yul\":3139:3152   */\n  mload\n    /* \"#utility.yul\":3170:3275   */\n  tag_101\n    /* \"#utility.yul\":3271:3274   */\n  dup5\n    /* \"#utility.yul\":3263:3269   */\n  dup3\n    /* \"#utility.yul\":3256:3260   */\n  0x20\n    /* \"#utility.yul\":3248:3254   */\n  dup7\n    /* \"#utility.yul\":3244:3261   */\n  add\n    /* \"#utility.yul\":3170:3275   */\n  tag_53\n  jump\t// in\ntag_101:\n    /* \"#utility.yul\":3161:3275   */\n  swap2\n  pop\n    /* \"#utility.yul\":2984:3281   */\n  pop\n    /* \"#utility.yul\":2896:3281   */\n  swap3\n  swap2\n  pop\n  pop\n  jump\t// out\n    /* \"#utility.yul\":3287:3364   */\ntag_55:\n    /* \"#utility.yul\":3324:3331   */\n  0x00\n    /* \"#utility.yul\":3353:3358   */\n  dup2\n    /* \"#utility.yul\":3342:3358   */\n  swap1\n  pop\n    /* \"#utility.yul\":3287:3364   */\n  swap2\n  swap1\n  pop\n  jump\t// out\n    /* \"#utility.yul\":3370:3492   */\ntag_56:\n    /* \"#utility.yul\":3443:3467   */\n  tag_104\n    /* \"#utility.yul\":3461:3466   */\n  dup2\n    /* \"#utility.yul\":3443:3467   */\n  tag_55\n  jump\t// in\ntag_104:\n    /* \"#utility.yul\":3436:3441   */\n  dup2\n    /* \"#utility.yul\":3433:3468   */\n  eq\n    /* \"#utility.yul\":3423:3486   */\n  tag_105\n  jumpi\n    /* \"#utility.yul\":3482:3483   */\n  0x00\n    /* \"#utility.yul\":3479:3480   */\n  0x00\n    /* \"#utility.yul\":3472:3484   */\n  revert\n    /* \"#utility.yul\":3423:3486   */\ntag_105:\n    /* \"#utility.yul\":3370:3492   */\n  pop\n  jump\t// out\n    /* \"#utility.yul\":3498:3641   */\ntag_57:\n    /* \"#utility.yul\":3555:3560   */\n  0x00\n    /* \"#utility.yul\":3586:3592   */\n  dup2\n    /* \"#utility.yul\":3580:3593   */\n  mload\n    /* \"#utility.yul\":3571:3593   */\n  swap1\n  pop\n    /* \"#utility.yul\":3602:3635   */\n  tag_107\n    /* \"#utility.yul\":3629:3634   */\n  dup2\n    /* \"#utility.yul\":3602:3635   */\n  tag_56\n  jump\t// in\ntag_107:\n    /* \"#utility.yul\":3498:3641   */\n  swap3\n  swap2\n  pop\n  pop\n  jump\t// out\n    /* \"#utility.yul\":3647:4357   */\ntag_3:\n    /* \"#utility.yul\":3751:3757   */\n  0x00\n    /* \"#utility.yul\":3759:3765   */\n  0x00\n    /* \"#utility.yul\":3808:3810   */\n  0x40\n    /* \"#utility.yul\":3796:3805   */\n  dup4\n    /* \"#utility.yul\":3787:3794   */\n  dup6\n    /* \"#utility.yul\":3783:3806   */\n  sub\n    /* \"#utility.yul\":3779:3811   */\n  slt\n    /* \"#utility.yul\":3776:3895   */\n  iszero\n  tag_109\n  jumpi\n    /* \"#utility.yul\":3814:3893   */\n  tag_110\n  tag_40\n  jump\t// in\ntag_110:\n    /* \"#utility.yul\":3776:3895   */\ntag_109:\n    /* \"#utility.yul\":3955:3956   */\n  0x00\n    /* \"#utility.yul\":3944:3953   */\n  dup4\n    /* \"#utility.yul\":3940:3957   */\n  add\n    /* \"#utility.yul\":3934:3958   */\n  mload\n    /* \"#utility.yul\":3985:4003   */\n  0xffffffffffffffff\n    /* \"#utility.yul\":3977:3983   */\n  dup2\n    /* \"#utility.yul\":3974:4004   */\n  gt\n    /* \"#utility.yul\":3971:4088   */\n  iszero\n  tag_111\n  jumpi\n    /* \"#utility.yul\":4007:4086   */\n  tag_112\n  tag_41\n  jump\t// in\ntag_112:\n    /* \"#utility.yul\":3971:4088   */\ntag_111:\n    /* \"#utility.yul\":4112:4201   */\n  tag_113\n    /* \"#utility.yul\":4193:4200   */\n  dup6\n    /* \"#utility.yul\":4184:4190   */\n  dup3\n    /* \"#utility.yul\":4173:4182   */\n  dup7\n    /* \"#utility.yul\":4169:4191   */\n  add\n    /* \"#utility.yul\":4112:4201   */\n  tag_54\n  jump\t// in\ntag_113:\n    /* \"#utility.yul\":4102:4201   */\n  swap3\n  pop\n    /* \"#utility.yul\":3905:4211   */\n  pop\n    /* \"#utility.yul\":4250:4252   */\n  0x20\n    /* \"#utility.yul\":4276:4340   */\n  tag_114\n    /* \"#utility.yul\":4332:4339   */\n  dup6\n    /* \"#utility.yul\":4323:4329   */\n  dup3\n    /* \"#utility.yul\":4312:4321   */\n  dup7\n    /* \"#utility.yul\":4308:4330   */\n  add\n    /* \"#utility.yul\":4276:4340   */\n  tag_57\n  jump\t// in\ntag_114:\n    /* \"#utility.yul\":4266:4340   */\n  swap2\n  pop\n    /* \"#utility.yul\":4221:4350   */\n  pop\n    /* \"#utility.yul\":3647:4357   */\n  swap3\n  pop\n  swap3\n  swap1\n  pop\n  jump\t// out\n    /* \"#utility.yul\":4363:4532   */\ntag_58:\n    /* \"#utility.yul\":4447:4458   */\n  0x00\n    /* \"#utility.yul\":4481:4487   */\n  dup3\n    /* \"#utility.yul\":4476:4479   */\n  dup3\n    /* \"#utility.yul\":4469:4488   */\n  mstore\n    /* \"#utility.yul\":4521:4525   */\n  0x20\n    /* \"#utility.yul\":4516:4519   */\n  dup3\n    /* \"#utility.yul\":4512:4526   */\n  add\n    /* \"#utility.yul\":4497:4526   */\n  swap1\n  pop\n    /* \"#utility.yul\":4363:4532   */\n  swap3\n  swap2\n  pop\n  pop\n  jump\t// out\n    /* \"#utility.yul\":4538:4707   */\ntag_59:\n    /* \"#utility.yul\":4678:4699   */\n  0x496e76616c696420726571756972656d656e7400000000000000000000000000\n    /* \"#utility.yul\":4674:4675   */\n  0x00\n    /* \"#utility.yul\":4666:4672   */\n  dup3\n    /* \"#utility.yul\":4662:4676   */\n  add\n    /* \"#utility.yul\":4655:4700   */\n  mstore\n    /* \"#utility.yul\":4538:4707   */\n  pop\n  jump\t// out\n    /* \"#utility.yul\":4713:5079   */\ntag_60:\n    /* \"#utility.yul\":4855:4858   */\n  0x00\n    /* \"#utility.yul\":4876:4943   */\n  tag_118\n    /* \"#utility.yul\":4940:4942   */\n  0x13\n    /* \"#utility.yul\":4935:4938   */\n  dup4\n    /* \"#utility.yul\":4876:4943   */\n  tag_58\n  jump\t// in\ntag_118:\n    /* \"#utility.yul\":4869:4943   */\n  swap2\n  pop\n    /* \"#utility.yul\":4952:5045   */\n  tag_119\n    /* \"#utility.yul\":5041:5044   */\n  dup3\n    /* \"#utility.yul\":4952:5045   */\n  tag_59\n  jump\t// in\ntag_119:\n    /* \"#utility.yul\":5070:5072   */\n  0x20\n    /* \"#utility.yul\":5065:5068   */\n  dup3\n    /* \"#utility.yul\":5061:5073   */\n  add\n    /* \"#utility.yul\":5054:5073   */\n  swap1\n  pop\n    /* \"#utility.yul\":4713:5079   */\n  swap2\n  swap1\n  pop\n  jump\t// out\n    /* \"#utility.yul\":5085:5504   */\ntag_13:\n    /* \"#utility.yul\":5251:5255   */\n  0x00\n    /* \"#utility.yul\":5289:5291   */\n  0x20\n    /* \"#utility.yul\":5278:5287   */\n  dup3\n    /* \"#utility.yul\":5274:5292   */\n  add\n    /* \"#utility.yul\":5266:5292   */\n  swap1\n  pop\n    /* \"#utility.yul\":5338:5347   */\n  dup2\n    /* \"#utility.yul\":5332:5336   */\n  dup2\n    /* \"#utility.yul\":5328:5348   */\n  sub\n    /* \"#utility.yul\":5324:5325   */\n  0x00\n    /* \"#utility.yul\":5313:5322   */\n  dup4\n    /* \"#utility.yul\":5309:5326   */\n  add\n    /* \"#utility.yul\":5302:5349   */\n  mstore\n    /* \"#utility.yul\":5366:5497   */\n  tag_121\n    /* \"#utility.yul\":5492:5496   */\n  dup2\n    /* \"#utility.yul\":5366:5497   */\n  tag_60\n  jump\t// in\ntag_121:\n    /* \"#utility.yul\":5358:5497   */\n  swap1\n  pop\n    /* \"#utility.yul\":5085:5504   */\n  swap2\n  swap1\n  pop\n  jump\t// out\n    /* \"#utility.yul\":5510:5690   */\ntag_20:\n    /* \"#utility.yul\":5558:5635   */\n  0x4e487b7100000000000000000000000000000000000000000000000000000000\n    /* \"#utility.yul\":5555:5556   */\n  0x00\n    /* \"#utility.yul\":5548:5636   */\n  mstore\n    /* \"#utility.yul\":5655:5659   */\n  0x32\n    /* \"#utility.yul\":5652:5653   */\n  0x04\n    /* \"#utility.yul\":5645:5660   */\n  mstore\n    /* \"#utility.yul\":5679:5683   */\n  0x24\n    /* \"#utility.yul\":5676:5677   */\n  0x00\n    /* \"#utility.yul\":5669:5684   */\n  revert\n    /* \"#utility.yul\":5696:5859   */\ntag_61:\n    /* \"#utility.yul\":5836:5851   */\n  0x496e76616c6964206f776e657200000000000000000000000000000000000000\n    /* \"#utility.yul\":5832:5833   */\n  0x00\n    /* \"#utility.yul\":5824:5830   */\n  dup3\n    /* \"#utility.yul\":5820:5834   */\n  add\n    /* \"#utility.yul\":5813:5852   */\n  mstore\n    /* \"#utility.yul\":5696:5859   */\n  pop\n  jump\t// out\n    /* \"#utility.yul\":5865:6231   */\ntag_62:\n    /* \"#utility.yul\":6007:6010   */\n  0x00\n    /* \"#utility.yul\":6028:6095   */\n  tag_125\n    /* \"#utility.yul\":6092:6094   */\n  0x0d\n    /* \"#utility.yul\":6087:6090   */\n  dup4\n    /* \"#utility.yul\":6028:6095   */\n  tag_58\n  jump\t// in\ntag_125:\n    /* \"#utility.yul\":6021:6095   */\n  swap2\n  pop\n    /* \"#utility.yul\":6104:6197   */\n  tag_126\n    /* \"#utility.yul\":6193:6196   */\n  dup3\n    /* \"#utility.yul\":6104:6197   */\n  tag_61\n  jump\t// in\ntag_126:\n    /* \"#utility.yul\":6222:6224   */\n  0x20\n    /* \"#utility.yul\":6217:6220   */\n  dup3\n    /* \"#utility.yul\":6213:6225   */\n  add\n    /* \"#utility.yul\":6206:6225   */\n  swap1\n  pop\n    /* \"#utility.yul\":5865:6231   */\n  swap2\n  swap1\n  pop\n  jump\t// out\n    /* \"#utility.yul\":6237:6656   */\ntag_26:\n    /* \"#utility.yul\":6403:6407   */\n  0x00\n    /* \"#utility.yul\":6441:6443   */\n  0x20\n    /* \"#utility.yul\":6430:6439   */\n  dup3\n    /* \"#utility.yul\":6426:6444   */\n  add\n    /* \"#utility.yul\":6418:6444   */\n  swap1\n  pop\n    /* \"#utility.yul\":6490:6499   */\n  dup2\n    /* \"#utility.yul\":6484:6488   */\n  dup2\n    /* \"#utility.yul\":6480:6500   */\n  sub\n    /* \"#utility.yul\":6476:6477   */\n  0x00\n    /* \"#utility.yul\":6465:6474   */\n  dup4\n    /* \"#utility.yul\":6461:6478   */\n  add\n    /* \"#utility.yul\":6454:6501   */\n  mstore\n    /* \"#utility.yul\":6518:6649   */\n  tag_128\n    /* \"#utility.yul\":6644:6648   */\n  dup2\n    /* \"#utility.yul\":6518:6649   */\n  tag_62\n  jump\t// in\ntag_128:\n    /* \"#utility.yul\":6510:6649   */\n  swap1\n  pop\n    /* \"#utility.yul\":6237:6656   */\n  swap2\n  swap1\n  pop\n  jump\t// out\n    /* \"contracts/MultiSignatureWallet.sol\":252:11158  contract MultiSigWallet is ReentrancyGuard {... */\ntag_31:\n  dataSize(sub_0)\n  dup1\n  dataOffset(sub_0)\n  0x00\n  codecopy\n  0x00\n  return\nstop\n\nsub_0: assembly {\n        /* \"contracts/MultiSignatureWallet.sol\":252:11158  contract MultiSigWallet is ReentrancyGuard {... */\n      mstore(0x40, 0x80)\n      jumpi(tag_1, lt(calldatasize, 0x04))\n      shr(0xe0, calldataload(0x00))\n      dup1\n      0x80f59a65\n      gt\n      tag_26\n      jumpi\n      dup1\n      0xb77bf600\n      gt\n      tag_27\n      jumpi\n      dup1\n      0xb77bf600\n      eq\n      tag_20\n      jumpi\n      dup1\n      0xba51a6df\n      eq\n      tag_21\n      jumpi\n      dup1\n      0xc01a8c84\n      eq\n      tag_22\n      jumpi\n      dup1\n      0xdc8452cd\n      eq\n      tag_23\n      jumpi\n      dup1\n      0xe20056e6\n      eq\n      tag_24\n      jumpi\n      dup1\n      0xee22610b\n      eq\n      tag_25\n      jumpi\n      jump(tag_2)\n    tag_27:\n      dup1\n      0x80f59a65\n      eq\n      tag_14\n      jumpi\n      dup1\n      0x8a8e784c\n      eq\n      tag_15\n      jumpi\n      dup1\n      0x9ace38c2\n      eq\n      tag_16\n      jumpi\n      dup1\n      0xa0e67e2b\n      eq\n      tag_17\n      jumpi\n      dup1\n      0xa8abe69a\n      eq\n      tag_18\n      jumpi\n      dup1\n      0xb5dc40c3\n      eq\n      tag_19\n      jumpi\n      jump(tag_2)\n    tag_26:\n      dup1\n      0x338b5dea\n      gt\n      tag_28\n      jumpi\n      dup1\n      0x338b5dea\n      eq\n      tag_8\n      jumpi\n      dup1\n      0x33ea3dc8\n      eq\n      tag_9\n      jumpi\n      dup1\n      0x3aecd0e3\n      eq\n      tag_10\n      jumpi\n      dup1\n      0x54741525\n      eq\n      tag_11\n      jumpi\n      dup1\n      0x57544291\n      eq\n      tag_12\n      jumpi\n      dup1\n      0x7065cb48\n      eq\n      tag_13\n      jumpi\n      jump(tag_2)\n    tag_28:\n      dup1\n      0x025e7c27\n      eq\n      tag_3\n      jumpi\n      dup1\n      0x12065fe0\n      eq\n      tag_4\n      jumpi\n      dup1\n      0x173825d9\n      eq\n      tag_5\n      jumpi\n      dup1\n      0x20ea8d86\n      eq\n      tag_6\n      jumpi\n      dup1\n      0x2f54bf6e\n      eq\n      tag_7\n      jumpi\n      jump(tag_2)\n    tag_1:\n      jumpi(tag_2, calldatasize)\n        /* \"contracts/MultiSignatureWallet.sol\":3355:3356  0 */\n      0x00\n        /* \"contracts/MultiSignatureWallet.sol\":3343:3352  msg.value */\n      callvalue\n        /* \"contracts/MultiSignatureWallet.sol\":3343:3356  msg.value > 0 */\n      gt\n        /* \"contracts/MultiSignatureWallet.sol\":3339:3443  if (msg.value > 0) {... */\n      iszero\n      tag_31\n      jumpi\n        /* \"contracts/MultiSignatureWallet.sol\":3386:3396  msg.sender */\n      caller\n        /* \"contracts/MultiSignatureWallet.sol\":3378:3431  Deposit(msg.sender, msg.value, address(this).balance) */\n      0xffffffffffffffffffffffffffffffffffffffff\n      and\n      0x90890809c654f11d6e72a28fa60149770a0d11ec6c92319d6ceb2bb0a4ea1a15\n        /* \"contracts/MultiSignatureWallet.sol\":3398:3407  msg.value */\n      callvalue\n        /* \"contracts/MultiSignatureWallet.sol\":3409:3430  address(this).balance */\n      selfbalance\n        /* \"contracts/MultiSignatureWallet.sol\":3378:3431  Deposit(msg.sender, msg.value, address(this).balance) */\n      mload(0x40)\n      tag_32\n      swap3\n      swap2\n      swap1\n      tag_33\n      jump\t// in\n    tag_32:\n      mload(0x40)\n      dup1\n      swap2\n      sub\n      swap1\n      log2\n        /* \"contracts/MultiSignatureWallet.sol\":3339:3443  if (msg.value > 0) {... */\n    tag_31:\n        /* \"contracts/MultiSignatureWallet.sol\":252:11158  contract MultiSigWallet is ReentrancyGuard {... */\n      stop\n    tag_2:\n      revert(0x00, 0x00)\n        /* \"contracts/MultiSignatureWallet.sol\":781:804  address[] public owners */\n    tag_3:\n      callvalue\n      dup1\n      iszero\n      tag_34\n      jumpi\n      revert(0x00, 0x00)\n    tag_34:\n      pop\n      tag_35\n      0x04\n      dup1\n      calldatasize\n      sub\n      dup2\n      add\n      swap1\n      tag_36\n      swap2\n      swap1\n      tag_37\n      jump\t// in\n    tag_36:\n      tag_38\n      jump\t// in\n    tag_35:\n      mload(0x40)\n      tag_39\n      swap2\n      swap1\n      tag_40\n      jump\t// in\n    tag_39:\n      mload(0x40)\n      dup1\n      swap2\n      sub\n      swap1\n      return\n        /* \"contracts/MultiSignatureWallet.sol\":10727:10826  function getBalance() public view returns (uint256) {... */\n    tag_4:\n      callvalue\n      dup1\n      iszero\n      tag_41\n      jumpi\n      revert(0x00, 0x00)\n    tag_41:\n      pop\n      tag_42\n      tag_43\n      jump\t// in\n    tag_42:\n      mload(0x40)\n      tag_44\n      swap2\n      swap1\n      tag_45\n      jump\t// in\n    tag_44:\n      mload(0x40)\n      dup1\n      swap2\n      sub\n      swap1\n      return\n        /* \"contracts/MultiSignatureWallet.sol\":6807:7322  function removeOwner(address owner) public onlyWallet ownerExists(owner) {... */\n    tag_5:\n      callvalue\n      dup1\n      iszero\n      tag_46\n      jumpi\n      revert(0x00, 0x00)\n    tag_46:\n      pop\n      tag_47\n      0x04\n      dup1\n      calldatasize\n      sub\n      dup2\n      add\n      swap1\n      tag_48\n      swap2\n      swap1\n      tag_49\n      jump\t// in\n    tag_48:\n      tag_50\n      jump\t// in\n    tag_47:\n      stop\n        /* \"contracts/MultiSignatureWallet.sol\":5037:5521  function revokeConfirmation(uint256 txIndex)... */\n    tag_6:\n      callvalue\n      dup1\n      iszero\n      tag_51\n      jumpi\n      revert(0x00, 0x00)\n    tag_51:\n      pop\n      tag_52\n      0x04\n      dup1\n      calldatasize\n      sub\n      dup2\n      add\n      swap1\n      tag_53\n      swap2\n      swap1\n      tag_37\n      jump\t// in\n    tag_53:\n      tag_54\n      jump\t// in\n    tag_52:\n      stop\n        /* \"contracts/MultiSignatureWallet.sol\":729:768  mapping(address => bool) public isOwner */\n    tag_7:\n      callvalue\n      dup1\n      iszero\n      tag_55\n      jumpi\n      revert(0x00, 0x00)\n    tag_55:\n      pop\n      tag_56\n      0x04\n      dup1\n      calldatasize\n      sub\n      dup2\n      add\n      swap1\n      tag_57\n      swap2\n      swap1\n      tag_49\n      jump\t// in\n    tag_57:\n      tag_58\n      jump\t// in\n    tag_56:\n      mload(0x40)\n      tag_59\n      swap2\n      swap1\n      tag_60\n      jump\t// in\n    tag_59:\n      mload(0x40)\n      dup1\n      swap2\n      sub\n      swap1\n      return\n        /* \"contracts/MultiSignatureWallet.sol\":3462:3800  function depositToken(address token, uint256 amount) external {... */\n    tag_8:\n      callvalue\n      dup1\n      iszero\n      tag_61\n      jumpi\n      revert(0x00, 0x00)\n    tag_61:\n      pop\n      tag_62\n      0x04\n      dup1\n      calldatasize\n      sub\n      dup2\n      add\n      swap1\n      tag_63\n      swap2\n      swap1\n      tag_64\n      jump\t// in\n    tag_63:\n      tag_65\n      jump\t// in\n    tag_62:\n      stop\n        /* \"contracts/MultiSignatureWallet.sol\":8604:9256  function getTransaction(uint256 txIndex)... */\n    tag_9:\n      callvalue\n      dup1\n      iszero\n      tag_66\n      jumpi\n      revert(0x00, 0x00)\n    tag_66:\n      pop\n      tag_67\n      0x04\n      dup1\n      calldatasize\n      sub\n      dup2\n      add\n      swap1\n      tag_68\n      swap2\n      swap1\n      tag_37\n      jump\t// in\n    tag_68:\n      tag_69\n      jump\t// in\n    tag_67:\n      mload(0x40)\n      tag_70\n      swap8\n      swap7\n      swap6\n      swap5\n      swap4\n      swap3\n      swap2\n      swap1\n      tag_71\n      jump\t// in\n    tag_70:\n      mload(0x40)\n      dup1\n      swap2\n      sub\n      swap1\n      return\n        /* \"contracts/MultiSignatureWallet.sol\":10838:10972  function getTokenBalance(address token) public view returns (uint256) {... */\n    tag_10:\n      callvalue\n      dup1\n      iszero\n      tag_72\n      jumpi\n      revert(0x00, 0x00)\n    tag_72:\n      pop\n      tag_73\n      0x04\n      dup1\n      calldatasize\n      sub\n      dup2\n      add\n      swap1\n      tag_74\n      swap2\n      swap1\n      tag_49\n      jump\t// in\n    tag_74:\n      tag_75\n      jump\t// in\n    tag_73:\n      mload(0x40)\n      tag_76\n      swap2\n      swap1\n      tag_45\n      jump\t// in\n    tag_76:\n      mload(0x40)\n      dup1\n      swap2\n      sub\n      swap1\n      return\n        /* \"contracts/MultiSignatureWallet.sol\":8198:8592  function getTransactionCount(bool pending, bool executed)... */\n    tag_11:\n      callvalue\n      dup1\n      iszero\n      tag_77\n      jumpi\n      revert(0x00, 0x00)\n    tag_77:\n      pop\n      tag_78\n      0x04\n      dup1\n      calldatasize\n      sub\n      dup2\n      add\n      swap1\n      tag_79\n      swap2\n      swap1\n      tag_80\n      jump\t// in\n    tag_79:\n      tag_81\n      jump\t// in\n    tag_78:\n      mload(0x40)\n      tag_82\n      swap2\n      swap1\n      tag_45\n      jump\t// in\n    tag_82:\n      mload(0x40)\n      dup1\n      swap2\n      sub\n      swap1\n      return\n        /* \"contracts/MultiSignatureWallet.sol\":3812:4491  function submitTransaction(... */\n    tag_12:\n      callvalue\n      dup1\n      iszero\n      tag_83\n      jumpi\n      revert(0x00, 0x00)\n    tag_83:\n      pop\n      tag_84\n      0x04\n      dup1\n      calldatasize\n      sub\n      dup2\n      add\n      swap1\n      tag_85\n      swap2\n      swap1\n      tag_86\n      jump\t// in\n    tag_85:\n      tag_87\n      jump\t// in\n    tag_84:\n      mload(0x40)\n      tag_88\n      swap2\n      swap1\n      tag_45\n      jump\t// in\n    tag_88:\n      mload(0x40)\n      dup1\n      swap2\n      sub\n      swap1\n      return\n        /* \"contracts/MultiSignatureWallet.sol\":6503:6795  function addOwner(address owner)... */\n    tag_13:\n      callvalue\n      dup1\n      iszero\n      tag_89\n      jumpi\n      revert(0x00, 0x00)\n    tag_89:\n      pop\n      tag_90\n      0x04\n      dup1\n      calldatasize\n      sub\n      dup2\n      add\n      swap1\n      tag_91\n      swap2\n      swap1\n      tag_49\n      jump\t// in\n    tag_91:\n      tag_92\n      jump\t// in\n    tag_90:\n      stop\n        /* \"contracts/MultiSignatureWallet.sol\":659:722  mapping(uint256 => mapping(address => bool)) public isConfirmed */\n    tag_14:\n      callvalue\n      dup1\n      iszero\n      tag_93\n      jumpi\n      revert(0x00, 0x00)\n    tag_93:\n      pop\n      tag_94\n      0x04\n      dup1\n      calldatasize\n      sub\n      dup2\n      add\n      swap1\n      tag_95\n      swap2\n      swap1\n      tag_96\n      jump\t// in\n    tag_95:\n      tag_97\n      jump\t// in\n    tag_94:\n      mload(0x40)\n      tag_98\n      swap2\n      swap1\n      tag_60\n      jump\t// in\n    tag_98:\n      mload(0x40)\n      dup1\n      swap2\n      sub\n      swap1\n      return\n        /* \"contracts/MultiSignatureWallet.sol\":10984:11155  function isConfirmedBy(uint256 txIndex, address owner) ... */\n    tag_15:\n      callvalue\n      dup1\n      iszero\n      tag_99\n      jumpi\n      revert(0x00, 0x00)\n    tag_99:\n      pop\n      tag_100\n      0x04\n      dup1\n      calldatasize\n      sub\n      dup2\n      add\n      swap1\n      tag_101\n      swap2\n      swap1\n      tag_96\n      jump\t// in\n    tag_101:\n      tag_102\n      jump\t// in\n    tag_100:\n      mload(0x40)\n      tag_103\n      swap2\n      swap1\n      tag_60\n      jump\t// in\n    tag_103:\n      mload(0x40)\n      dup1\n      swap2\n      sub\n      swap1\n      return\n        /* \"contracts/MultiSignatureWallet.sol\":601:652  mapping(uint256 => Transaction) public transactions */\n    tag_16:\n      callvalue\n      dup1\n      iszero\n      tag_104\n      jumpi\n      revert(0x00, 0x00)\n    tag_104:\n      pop\n      tag_105\n      0x04\n      dup1\n      calldatasize\n      sub\n      dup2\n      add\n      swap1\n      tag_106\n      swap2\n      swap1\n      tag_37\n      jump\t// in\n    tag_106:\n      tag_107\n      jump\t// in\n    tag_105:\n      mload(0x40)\n      tag_108\n      swap8\n      swap7\n      swap6\n      swap5\n      swap4\n      swap3\n      swap2\n      swap1\n      tag_71\n      jump\t// in\n    tag_108:\n      mload(0x40)\n      dup1\n      swap2\n      sub\n      swap1\n      return\n        /* \"contracts/MultiSignatureWallet.sol\":8094:8186  function getOwners() public view returns (address[] memory) {... */\n    tag_17:\n      callvalue\n      dup1\n      iszero\n      tag_109\n      jumpi\n      revert(0x00, 0x00)\n    tag_109:\n      pop\n      tag_110\n      tag_111\n      jump\t// in\n    tag_110:\n      mload(0x40)\n      tag_112\n      swap2\n      swap1\n      tag_113\n      jump\t// in\n    tag_112:\n      mload(0x40)\n      dup1\n      swap2\n      sub\n      swap1\n      return\n        /* \"contracts/MultiSignatureWallet.sol\":9916:10715  function getTransactionIds(... */\n    tag_18:\n      callvalue\n      dup1\n      iszero\n      tag_114\n      jumpi\n      revert(0x00, 0x00)\n    tag_114:\n      pop\n      tag_115\n      0x04\n      dup1\n      calldatasize\n      sub\n      dup2\n      add\n      swap1\n      tag_116\n      swap2\n      swap1\n      tag_117\n      jump\t// in\n    tag_116:\n      tag_118\n      jump\t// in\n    tag_115:\n      mload(0x40)\n      tag_119\n      swap2\n      swap1\n      tag_120\n      jump\t// in\n    tag_119:\n      mload(0x40)\n      dup1\n      swap2\n      sub\n      swap1\n      return\n        /* \"contracts/MultiSignatureWallet.sol\":9268:9904  function getConfirmations(uint256 txIndex)... */\n    tag_19:\n      callvalue\n      dup1\n      iszero\n      tag_121\n      jumpi\n      revert(0x00, 0x00)\n    tag_121:\n      pop\n      tag_122\n      0x04\n      dup1\n      calldatasize\n      sub\n      dup2\n      add\n      swap1\n      tag_123\n      swap2\n      swap1\n      tag_37\n      jump\t// in\n    tag_123:\n      tag_124\n      jump\t// in\n    tag_122:\n      mload(0x40)\n      tag_125\n      swap2\n      swap1\n      tag_113\n      jump\t// in\n    tag_125:\n      mload(0x40)\n      dup1\n      swap2\n      sub\n      swap1\n      return\n        /* \"contracts/MultiSignatureWallet.sol\":841:872  uint256 public transactionCount */\n    tag_20:\n      callvalue\n      dup1\n      iszero\n      tag_126\n      jumpi\n      revert(0x00, 0x00)\n    tag_126:\n      pop\n      tag_127\n      tag_128\n      jump\t// in\n    tag_127:\n      mload(0x40)\n      tag_129\n      swap2\n      swap1\n      tag_45\n      jump\t// in\n    tag_129:\n      mload(0x40)\n      dup1\n      swap2\n      sub\n      swap1\n      return\n        /* \"contracts/MultiSignatureWallet.sol\":7860:8082  function changeRequirement(uint256 _required)... */\n    tag_21:\n      callvalue\n      dup1\n      iszero\n      tag_130\n      jumpi\n      revert(0x00, 0x00)\n    tag_130:\n      pop\n      tag_131\n      0x04\n      dup1\n      calldatasize\n      sub\n      dup2\n      add\n      swap1\n      tag_132\n      swap2\n      swap1\n      tag_37\n      jump\t// in\n    tag_132:\n      tag_133\n      jump\t// in\n    tag_131:\n      stop\n        /* \"contracts/MultiSignatureWallet.sol\":4503:5025  function confirmTransaction(uint256 txIndex)... */\n    tag_22:\n      callvalue\n      dup1\n      iszero\n      tag_134\n      jumpi\n      revert(0x00, 0x00)\n    tag_134:\n      pop\n      tag_135\n      0x04\n      dup1\n      calldatasize\n      sub\n      dup2\n      add\n      swap1\n      tag_136\n      swap2\n      swap1\n      tag_37\n      jump\t// in\n    tag_136:\n      tag_137\n      jump\t// in\n    tag_135:\n      stop\n        /* \"contracts/MultiSignatureWallet.sol\":811:834  uint256 public required */\n    tag_23:\n      callvalue\n      dup1\n      iszero\n      tag_138\n      jumpi\n      revert(0x00, 0x00)\n    tag_138:\n      pop\n      tag_139\n      tag_140\n      jump\t// in\n    tag_139:\n      mload(0x40)\n      tag_141\n      swap2\n      swap1\n      tag_45\n      jump\t// in\n    tag_141:\n      mload(0x40)\n      dup1\n      swap2\n      sub\n      swap1\n      return\n        /* \"contracts/MultiSignatureWallet.sol\":7334:7848  function replaceOwner(address owner, address newOwner)... */\n    tag_24:\n      callvalue\n      dup1\n      iszero\n      tag_142\n      jumpi\n      revert(0x00, 0x00)\n    tag_142:\n      pop\n      tag_143\n      0x04\n      dup1\n      calldatasize\n      sub\n      dup2\n      add\n      swap1\n      tag_144\n      swap2\n      swap1\n      tag_145\n      jump\t// in\n    tag_144:\n      tag_146\n      jump\t// in\n    tag_143:\n      stop\n        /* \"contracts/MultiSignatureWallet.sol\":5533:6491  function executeTransaction(uint256 txIndex)... */\n    tag_25:\n      callvalue\n      dup1\n      iszero\n      tag_147\n      jumpi\n      revert(0x00, 0x00)\n    tag_147:\n      pop\n      tag_148\n      0x04\n      dup1\n      calldatasize\n      sub\n      dup2\n      add\n      swap1\n      tag_149\n      swap2\n      swap1\n      tag_37\n      jump\t// in\n    tag_149:\n      tag_150\n      jump\t// in\n    tag_148:\n      stop\n        /* \"contracts/MultiSignatureWallet.sol\":781:804  address[] public owners */\n    tag_38:\n      0x04\n      dup2\n      dup2\n      sload\n      dup2\n      lt\n      tag_151\n      jumpi\n      0x00\n      dup1\n      revert\n    tag_151:\n      swap1\n      0x00\n      mstore\n      keccak256(0x00, 0x20)\n      add\n      0x00\n      swap2\n      pop\n      sload\n      swap1\n      0x0100\n      exp\n      swap1\n      div\n      0xffffffffffffffffffffffffffffffffffffffff\n      and\n      dup2\n      jump\t// out\n        /* \"contracts/MultiSignatureWallet.sol\":10727:10826  function getBalance() public view returns (uint256) {... */\n    tag_43:\n        /* \"contracts/MultiSignatureWallet.sol\":10770:10777  uint256 */\n      0x00\n        /* \"contracts/MultiSignatureWallet.sol\":10797:10818  address(this).balance */\n      selfbalance\n        /* \"contracts/MultiSignatureWallet.sol\":10790:10818  return address(this).balance */\n      swap1\n      pop\n        /* \"contracts/MultiSignatureWallet.sol\":10727:10826  function getBalance() public view returns (uint256) {... */\n      swap1\n      jump\t// out\n        /* \"contracts/MultiSignatureWallet.sol\":6807:7322  function removeOwner(address owner) public onlyWallet ownerExists(owner) {... */\n    tag_50:\n        /* \"contracts/MultiSignatureWallet.sol\":1702:1706  this */\n      address\n        /* \"contracts/MultiSignatureWallet.sol\":1680:1707  msg.sender == address(this) */\n      0xffffffffffffffffffffffffffffffffffffffff\n      and\n        /* \"contracts/MultiSignatureWallet.sol\":1680:1690  msg.sender */\n      caller\n        /* \"contracts/MultiSignatureWallet.sol\":1680:1707  msg.sender == address(this) */\n      0xffffffffffffffffffffffffffffffffffffffff\n      and\n      eq\n        /* \"contracts/MultiSignatureWallet.sol\":1672:1746  require(msg.sender == address(this), \"Only wallet can call this function\") */\n      tag_155\n      jumpi\n      mload(0x40)\n      0x08c379a000000000000000000000000000000000000000000000000000000000\n      dup2\n      mstore\n      0x04\n      add\n      tag_156\n      swap1\n      tag_157\n      jump\t// in\n    tag_156:\n      mload(0x40)\n      dup1\n      swap2\n      sub\n      swap1\n      revert\n    tag_155:\n        /* \"contracts/MultiSignatureWallet.sol\":6873:6878  owner */\n      dup1\n        /* \"contracts/MultiSignatureWallet.sol\":1966:1973  isOwner */\n      0x03\n        /* \"contracts/MultiSignatureWallet.sol\":1966:1980  isOwner[owner] */\n      0x00\n        /* \"contracts/MultiSignatureWallet.sol\":1974:1979  owner */\n      dup3\n        /* \"contracts/MultiSignatureWallet.sol\":1966:1980  isOwner[owner] */\n      0xffffffffffffffffffffffffffffffffffffffff\n      and\n      0xffffffffffffffffffffffffffffffffffffffff\n      and\n      dup2\n      mstore\n      0x20\n      add\n      swap1\n      dup2\n      mstore\n      0x20\n      add\n      0x00\n      keccak256\n      0x00\n      swap1\n      sload\n      swap1\n      0x0100\n      exp\n      swap1\n      div\n      0xff\n      and\n        /* \"contracts/MultiSignatureWallet.sol\":1958:2005  require(isOwner[owner], \"Owner does not exist\") */\n      tag_159\n      jumpi\n      mload(0x40)\n      0x08c379a000000000000000000000000000000000000000000000000000000000\n      dup2\n      mstore\n      0x04\n      add\n      tag_160\n      swap1\n      tag_161\n      jump\t// in\n    tag_160:\n      mload(0x40)\n      dup1\n      swap2\n      sub\n      swap1\n      revert\n    tag_159:\n        /* \"contracts/MultiSignatureWallet.sol\":6908:6913  false */\n      0x00\n        /* \"contracts/MultiSignatureWallet.sol\":6891:6898  isOwner */\n      0x03\n        /* \"contracts/MultiSignatureWallet.sol\":6891:6905  isOwner[owner] */\n      0x00\n        /* \"contracts/MultiSignatureWallet.sol\":6899:6904  owner */\n      dup5\n        /* \"contracts/MultiSignatureWallet.sol\":6891:6905  isOwner[owner] */\n      0xffffffffffffffffffffffffffffffffffffffff\n      and\n      0xffffffffffffffffffffffffffffffffffffffff\n      and\n      dup2\n      mstore\n      0x20\n      add\n      swap1\n      dup2\n      mstore\n      0x20\n      add\n      0x00\n      keccak256\n      0x00\n        /* \"contracts/MultiSignatureWallet.sol\":6891:6913  isOwner[owner] = false */\n      0x0100\n      exp\n      dup2\n      sload\n      dup2\n      0xff\n      mul\n      not\n      and\n      swap1\n      dup4\n      iszero\n      iszero\n      mul\n      or\n      swap1\n      sstore\n      pop\n        /* \"contracts/MultiSignatureWallet.sol\":6939:6948  uint256 i */\n      0x00\n        /* \"contracts/MultiSignatureWallet.sol\":6951:6952  0 */\n      0x00\n        /* \"contracts/MultiSignatureWallet.sol\":6939:6952  uint256 i = 0 */\n      swap1\n      pop\n        /* \"contracts/MultiSignatureWallet.sol\":6934:7128  for (uint256 i = 0; i < owners.length - 1; i++) {... */\n    tag_163:\n        /* \"contracts/MultiSignatureWallet.sol\":6974:6975  1 */\n      0x01\n        /* \"contracts/MultiSignatureWallet.sol\":6958:6964  owners */\n      0x04\n        /* \"contracts/MultiSignatureWallet.sol\":6958:6971  owners.length */\n      dup1\n      sload\n      swap1\n      pop\n        /* \"contracts/MultiSignatureWallet.sol\":6958:6975  owners.length - 1 */\n      tag_166\n      swap2\n      swap1\n      tag_167\n      jump\t// in\n    tag_166:\n        /* \"contracts/MultiSignatureWallet.sol\":6954:6955  i */\n      dup2\n        /* \"contracts/MultiSignatureWallet.sol\":6954:6975  i < owners.length - 1 */\n      lt\n        /* \"contracts/MultiSignatureWallet.sol\":6934:7128  for (uint256 i = 0; i < owners.length - 1; i++) {... */\n      iszero\n      tag_164\n      jumpi\n        /* \"contracts/MultiSignatureWallet.sol\":7014:7019  owner */\n      dup3\n        /* \"contracts/MultiSignatureWallet.sol\":7001:7019  owners[i] == owner */\n      0xffffffffffffffffffffffffffffffffffffffff\n      and\n        /* \"contracts/MultiSignatureWallet.sol\":7001:7007  owners */\n      0x04\n        /* \"contracts/MultiSignatureWallet.sol\":7008:7009  i */\n      dup3\n        /* \"contracts/MultiSignatureWallet.sol\":7001:7010  owners[i] */\n      dup2\n      sload\n      dup2\n      lt\n      tag_168\n      jumpi\n      tag_169\n      tag_170\n      jump\t// in\n    tag_169:\n    tag_168:\n      swap1\n      0x00\n      mstore\n      keccak256(0x00, 0x20)\n      add\n      0x00\n      swap1\n      sload\n      swap1\n      0x0100\n      exp\n      swap1\n      div\n      0xffffffffffffffffffffffffffffffffffffffff\n      and\n        /* \"contracts/MultiSignatureWallet.sol\":7001:7019  owners[i] == owner */\n      0xffffffffffffffffffffffffffffffffffffffff\n      and\n      sub\n        /* \"contracts/MultiSignatureWallet.sol\":6997:7117  if (owners[i] == owner) {... */\n      tag_172\n      jumpi\n        /* \"contracts/MultiSignatureWallet.sol\":7052:7058  owners */\n      0x04\n        /* \"contracts/MultiSignatureWallet.sol\":7075:7076  1 */\n      0x01\n        /* \"contracts/MultiSignatureWallet.sol\":7059:7065  owners */\n      0x04\n        /* \"contracts/MultiSignatureWallet.sol\":7059:7072  owners.length */\n      dup1\n      sload\n      swap1\n      pop\n        /* \"contracts/MultiSignatureWallet.sol\":7059:7076  owners.length - 1 */\n      tag_173\n      swap2\n      swap1\n      tag_167\n      jump\t// in\n    tag_173:\n        /* \"contracts/MultiSignatureWallet.sol\":7052:7077  owners[owners.length - 1] */\n      dup2\n      sload\n      dup2\n      lt\n      tag_174\n      jumpi\n      tag_175\n      tag_170\n      jump\t// in\n    tag_175:\n    tag_174:\n      swap1\n      0x00\n      mstore\n      keccak256(0x00, 0x20)\n      add\n      0x00\n      swap1\n      sload\n      swap1\n      0x0100\n      exp\n      swap1\n      div\n      0xffffffffffffffffffffffffffffffffffffffff\n      and\n        /* \"contracts/MultiSignatureWallet.sol\":7040:7046  owners */\n      0x04\n        /* \"contracts/MultiSignatureWallet.sol\":7047:7048  i */\n      dup3\n        /* \"contracts/MultiSignatureWallet.sol\":7040:7049  owners[i] */\n      dup2\n      sload\n      dup2\n      lt\n      tag_177\n      jumpi\n      tag_178\n      tag_170\n      jump\t// in\n    tag_178:\n    tag_177:\n      swap1\n      0x00\n      mstore\n      keccak256(0x00, 0x20)\n      add\n      0x00\n        /* \"contracts/MultiSignatureWallet.sol\":7040:7077  owners[i] = owners[owners.length - 1] */\n      0x0100\n      exp\n      dup2\n      sload\n      dup2\n      0xffffffffffffffffffffffffffffffffffffffff\n      mul\n      not\n      and\n      swap1\n      dup4\n      0xffffffffffffffffffffffffffffffffffffffff\n      and\n      mul\n      or\n      swap1\n      sstore\n      pop\n        /* \"contracts/MultiSignatureWallet.sol\":7096:7101  break */\n      jump(tag_164)\n        /* \"contracts/MultiSignatureWallet.sol\":6997:7117  if (owners[i] == owner) {... */\n    tag_172:\n        /* \"contracts/MultiSignatureWallet.sol\":6977:6980  i++ */\n      dup1\n      dup1\n      0x01\n      add\n      swap2\n      pop\n      pop\n        /* \"contracts/MultiSignatureWallet.sol\":6934:7128  for (uint256 i = 0; i < owners.length - 1; i++) {... */\n      jump(tag_163)\n    tag_164:\n      pop\n        /* \"contracts/MultiSignatureWallet.sol\":7148:7154  owners */\n      0x04\n        /* \"contracts/MultiSignatureWallet.sol\":7148:7160  owners.pop() */\n      dup1\n      sload\n      dup1\n      tag_180\n      jumpi\n      tag_181\n      tag_182\n      jump\t// in\n    tag_181:\n    tag_180:\n      0x01\n      swap1\n      sub\n      dup2\n      dup2\n      swap1\n      0x00\n      mstore\n      keccak256(0x00, 0x20)\n      add\n      exp(0x0100, 0x00)\n      dup2\n      sload\n      swap1\n      0xffffffffffffffffffffffffffffffffffffffff\n      mul\n      not\n      and\n      swap1\n      sstore\n      swap1\n      sstore\n        /* \"contracts/MultiSignatureWallet.sol\":7196:7202  owners */\n      0x04\n        /* \"contracts/MultiSignatureWallet.sol\":7196:7209  owners.length */\n      dup1\n      sload\n      swap1\n      pop\n        /* \"contracts/MultiSignatureWallet.sol\":7185:7193  required */\n      sload(0x05)\n        /* \"contracts/MultiSignatureWallet.sol\":7185:7209  required > owners.length */\n      gt\n        /* \"contracts/MultiSignatureWallet.sol\":7181:7270  if (required > owners.length) {... */\n      iszero\n      tag_184\n      jumpi\n        /* \"contracts/MultiSignatureWallet.sol\":7226:7258  changeRequirement(owners.length) */\n      tag_185\n        /* \"contracts/MultiSignatureWallet.sol\":7244:7250  owners */\n      0x04\n        /* \"contracts/MultiSignatureWallet.sol\":7244:7257  owners.length */\n      dup1\n      sload\n      swap1\n      pop\n        /* \"contracts/MultiSignatureWallet.sol\":7226:7243  changeRequirement */\n      tag_133\n        /* \"contracts/MultiSignatureWallet.sol\":7226:7258  changeRequirement(owners.length) */\n      jump\t// in\n    tag_185:\n        /* \"contracts/MultiSignatureWallet.sol\":7181:7270  if (required > owners.length) {... */\n    tag_184:\n        /* \"contracts/MultiSignatureWallet.sol\":7308:7313  owner */\n      dup2\n        /* \"contracts/MultiSignatureWallet.sol\":7295:7314  OwnerRemoval(owner) */\n      0xffffffffffffffffffffffffffffffffffffffff\n      and\n      0x8001553a916ef2f495d26a907cc54d96ed840d7bda71e73194bf5a9df7a76b90\n      mload(0x40)\n      mload(0x40)\n      dup1\n      swap2\n      sub\n      swap1\n      log2\n        /* \"contracts/MultiSignatureWallet.sol\":1757:1758  _ */\n      pop\n        /* \"contracts/MultiSignatureWallet.sol\":6807:7322  function removeOwner(address owner) public onlyWallet ownerExists(owner) {... */\n      pop\n      jump\t// out\n        /* \"contracts/MultiSignatureWallet.sol\":5037:5521  function revokeConfirmation(uint256 txIndex)... */\n    tag_54:\n        /* \"contracts/MultiSignatureWallet.sol\":5119:5129  msg.sender */\n      caller\n        /* \"contracts/MultiSignatureWallet.sol\":1966:1973  isOwner */\n      0x03\n        /* \"contracts/MultiSignatureWallet.sol\":1966:1980  isOwner[owner] */\n      0x00\n        /* \"contracts/MultiSignatureWallet.sol\":1974:1979  owner */\n      dup3\n        /* \"contracts/MultiSignatureWallet.sol\":1966:1980  isOwner[owner] */\n      0xffffffffffffffffffffffffffffffffffffffff\n      and\n      0xffffffffffffffffffffffffffffffffffffffff\n      and\n      dup2\n      mstore\n      0x20\n      add\n      swap1\n      dup2\n      mstore\n      0x20\n      add\n      0x00\n      keccak256\n      0x00\n      swap1\n      sload\n      swap1\n      0x0100\n      exp\n      swap1\n      div\n      0xff\n      and\n        /* \"contracts/MultiSignatureWallet.sol\":1958:2005  require(isOwner[owner], \"Owner does not exist\") */\n      tag_187\n      jumpi\n      mload(0x40)\n      0x08c379a000000000000000000000000000000000000000000000000000000000\n      dup2\n      mstore\n      0x04\n      add\n      tag_188\n      swap1\n      tag_161\n      jump\t// in\n    tag_188:\n      mload(0x40)\n      dup1\n      swap2\n      sub\n      swap1\n      revert\n    tag_187:\n        /* \"contracts/MultiSignatureWallet.sol\":5158:5165  txIndex */\n      dup2\n        /* \"contracts/MultiSignatureWallet.sol\":2110:2126  transactionCount */\n      sload(0x06)\n        /* \"contracts/MultiSignatureWallet.sol\":2100:2107  txIndex */\n      dup2\n        /* \"contracts/MultiSignatureWallet.sol\":2100:2126  txIndex < transactionCount */\n      lt\n        /* \"contracts/MultiSignatureWallet.sol\":2092:2157  require(txIndex < transactionCount, \"Transaction does not exist\") */\n      tag_190\n      jumpi\n      mload(0x40)\n      0x08c379a000000000000000000000000000000000000000000000000000000000\n      dup2\n      mstore\n      0x04\n      add\n      tag_191\n      swap1\n      tag_192\n      jump\t// in\n    tag_191:\n      mload(0x40)\n      dup1\n      swap2\n      sub\n      swap1\n      revert\n    tag_190:\n        /* \"contracts/MultiSignatureWallet.sol\":5188:5195  txIndex */\n      dup3\n        /* \"contracts/MultiSignatureWallet.sol\":2414:2426  transactions */\n      0x01\n        /* \"contracts/MultiSignatureWallet.sol\":2414:2435  transactions[txIndex] */\n      0x00\n        /* \"contracts/MultiSignatureWallet.sol\":2427:2434  txIndex */\n      dup3\n        /* \"contracts/MultiSignatureWallet.sol\":2414:2435  transactions[txIndex] */\n      dup2\n      mstore\n      0x20\n      add\n      swap1\n      dup2\n      mstore\n      0x20\n      add\n      0x00\n      keccak256\n        /* \"contracts/MultiSignatureWallet.sol\":2414:2444  transactions[txIndex].executed */\n      0x03\n      add\n      0x00\n      swap1\n      sload\n      swap1\n      0x0100\n      exp\n      swap1\n      div\n      0xff\n      and\n        /* \"contracts/MultiSignatureWallet.sol\":2413:2444  !transactions[txIndex].executed */\n      iszero\n        /* \"contracts/MultiSignatureWallet.sol\":2405:2477  require(!transactions[txIndex].executed, \"Transaction already executed\") */\n      tag_194\n      jumpi\n      mload(0x40)\n      0x08c379a000000000000000000000000000000000000000000000000000000000\n      dup2\n      mstore\n      0x04\n      add\n      tag_195\n      swap1\n      tag_196\n      jump\t// in\n    tag_195:\n      mload(0x40)\n      dup1\n      swap2\n      sub\n      swap1\n      revert\n    tag_194:\n        /* \"contracts/MultiSignatureWallet.sol\":5221:5232  isConfirmed */\n      0x02\n        /* \"contracts/MultiSignatureWallet.sol\":5221:5241  isConfirmed[txIndex] */\n      0x00\n        /* \"contracts/MultiSignatureWallet.sol\":5233:5240  txIndex */\n      dup6\n        /* \"contracts/MultiSignatureWallet.sol\":5221:5241  isConfirmed[txIndex] */\n      dup2\n      mstore\n      0x20\n      add\n      swap1\n      dup2\n      mstore\n      0x20\n      add\n      0x00\n      keccak256\n        /* \"contracts/MultiSignatureWallet.sol\":5221:5253  isConfirmed[txIndex][msg.sender] */\n      0x00\n        /* \"contracts/MultiSignatureWallet.sol\":5242:5252  msg.sender */\n      caller\n        /* \"contracts/MultiSignatureWallet.sol\":5221:5253  isConfirmed[txIndex][msg.sender] */\n      0xffffffffffffffffffffffffffffffffffffffff\n      and\n      0xffffffffffffffffffffffffffffffffffffffff\n      and\n      dup2\n      mstore\n      0x20\n      add\n      swap1\n      dup2\n      mstore\n      0x20\n      add\n      0x00\n      keccak256\n      0x00\n      swap1\n      sload\n      swap1\n      0x0100\n      exp\n      swap1\n      div\n      0xff\n      and\n        /* \"contracts/MultiSignatureWallet.sol\":5213:5283  require(isConfirmed[txIndex][msg.sender], \"Transaction not confirmed\") */\n      tag_198\n      jumpi\n      mload(0x40)\n      0x08c379a000000000000000000000000000000000000000000000000000000000\n      dup2\n      mstore\n      0x04\n      add\n      tag_199\n      swap1\n      tag_200\n      jump\t// in\n    tag_199:\n      mload(0x40)\n      dup1\n      swap2\n      sub\n      swap1\n      revert\n    tag_198:\n        /* \"contracts/MultiSignatureWallet.sol\":5304:5335  Transaction storage transaction */\n      0x00\n        /* \"contracts/MultiSignatureWallet.sol\":5338:5350  transactions */\n      0x01\n        /* \"contracts/MultiSignatureWallet.sol\":5338:5359  transactions[txIndex] */\n      0x00\n        /* \"contracts/MultiSignatureWallet.sol\":5351:5358  txIndex */\n      dup7\n        /* \"contracts/MultiSignatureWallet.sol\":5338:5359  transactions[txIndex] */\n      dup2\n      mstore\n      0x20\n      add\n      swap1\n      dup2\n      mstore\n      0x20\n      add\n      0x00\n      keccak256\n        /* \"contracts/MultiSignatureWallet.sol\":5304:5359  Transaction storage transaction = transactions[txIndex] */\n      swap1\n      pop\n        /* \"contracts/MultiSignatureWallet.sol\":5370:5381  transaction */\n      dup1\n        /* \"contracts/MultiSignatureWallet.sol\":5370:5395  transaction.confirmations */\n      0x04\n      add\n      0x00\n        /* \"contracts/MultiSignatureWallet.sol\":5370:5397  transaction.confirmations-- */\n      dup2\n      sload\n      dup1\n      swap3\n      swap2\n      swap1\n      tag_201\n      swap1\n      tag_202\n      jump\t// in\n    tag_201:\n      swap2\n      swap1\n      pop\n      sstore\n      pop\n        /* \"contracts/MultiSignatureWallet.sol\":5443:5448  false */\n      0x00\n        /* \"contracts/MultiSignatureWallet.sol\":5408:5419  isConfirmed */\n      0x02\n        /* \"contracts/MultiSignatureWallet.sol\":5408:5428  isConfirmed[txIndex] */\n      0x00\n        /* \"contracts/MultiSignatureWallet.sol\":5420:5427  txIndex */\n      dup8\n        /* \"contracts/MultiSignatureWallet.sol\":5408:5428  isConfirmed[txIndex] */\n      dup2\n      mstore\n      0x20\n      add\n      swap1\n      dup2\n      mstore\n      0x20\n      add\n      0x00\n      keccak256\n        /* \"contracts/MultiSignatureWallet.sol\":5408:5440  isConfirmed[txIndex][msg.sender] */\n      0x00\n        /* \"contracts/MultiSignatureWallet.sol\":5429:5439  msg.sender */\n      caller\n        /* \"contracts/MultiSignatureWallet.sol\":5408:5440  isConfirmed[txIndex][msg.sender] */\n      0xffffffffffffffffffffffffffffffffffffffff\n      and\n      0xffffffffffffffffffffffffffffffffffffffff\n      and\n      dup2\n      mstore\n      0x20\n      add\n      swap1\n      dup2\n      mstore\n      0x20\n      add\n      0x00\n      keccak256\n      0x00\n        /* \"contracts/MultiSignatureWallet.sol\":5408:5448  isConfirmed[txIndex][msg.sender] = false */\n      0x0100\n      exp\n      dup2\n      sload\n      dup2\n      0xff\n      mul\n      not\n      and\n      swap1\n      dup4\n      iszero\n      iszero\n      mul\n      or\n      swap1\n      sstore\n      pop\n        /* \"contracts/MultiSignatureWallet.sol\":5505:5512  txIndex */\n      dup5\n        /* \"contracts/MultiSignatureWallet.sol\":5493:5503  msg.sender */\n      caller\n        /* \"contracts/MultiSignatureWallet.sol\":5474:5513  RevokeConfirmation(msg.sender, txIndex) */\n      0xffffffffffffffffffffffffffffffffffffffff\n      and\n      0xf0dca620e2e81f7841d07bcc105e1704fb01475b278a9d4c236e1c62945edd55\n      mload(0x40)\n      mload(0x40)\n      dup1\n      swap2\n      sub\n      swap1\n      log3\n        /* \"contracts/MultiSignatureWallet.sol\":5202:5521  {... */\n      pop\n        /* \"contracts/MultiSignatureWallet.sol\":2168:2169  _ */\n      pop\n        /* \"contracts/MultiSignatureWallet.sol\":2016:2017  _ */\n      pop\n        /* \"contracts/MultiSignatureWallet.sol\":5037:5521  function revokeConfirmation(uint256 txIndex)... */\n      pop\n      pop\n      jump\t// out\n        /* \"contracts/MultiSignatureWallet.sol\":729:768  mapping(address => bool) public isOwner */\n    tag_58:\n      mstore(0x20, 0x03)\n      dup1\n      0x00\n      mstore\n      keccak256(0x00, 0x40)\n      0x00\n      swap2\n      pop\n      sload\n      swap1\n      0x0100\n      exp\n      swap1\n      div\n      0xff\n      and\n      dup2\n      jump\t// out\n        /* \"contracts/MultiSignatureWallet.sol\":3462:3800  function depositToken(address token, uint256 amount) external {... */\n    tag_65:\n        /* \"contracts/MultiSignatureWallet.sol\":3560:3561  0 */\n      0x00\n        /* \"contracts/MultiSignatureWallet.sol\":3543:3562  token != address(0) */\n      0xffffffffffffffffffffffffffffffffffffffff\n      and\n        /* \"contracts/MultiSignatureWallet.sol\":3543:3548  token */\n      dup3\n        /* \"contracts/MultiSignatureWallet.sol\":3543:3562  token != address(0) */\n      0xffffffffffffffffffffffffffffffffffffffff\n      and\n      sub\n        /* \"contracts/MultiSignatureWallet.sol\":3535:3588  require(token != address(0), \"Invalid token address\") */\n      tag_204\n      jumpi\n      mload(0x40)\n      0x08c379a000000000000000000000000000000000000000000000000000000000\n      dup2\n      mstore\n      0x04\n      add\n      tag_205\n      swap1\n      tag_206\n      jump\t// in\n    tag_205:\n      mload(0x40)\n      dup1\n      swap2\n      sub\n      swap1\n      revert\n    tag_204:\n        /* \"contracts/MultiSignatureWallet.sol\":3616:3617  0 */\n      0x00\n        /* \"contracts/MultiSignatureWallet.sol\":3607:3613  amount */\n      dup2\n        /* \"contracts/MultiSignatureWallet.sol\":3607:3617  amount > 0 */\n      gt\n        /* \"contracts/MultiSignatureWallet.sol\":3599:3651  require(amount > 0, \"Amount must be greater than 0\") */\n      tag_207\n      jumpi\n      mload(0x40)\n      0x08c379a000000000000000000000000000000000000000000000000000000000\n      dup2\n      mstore\n      0x04\n      add\n      tag_208\n      swap1\n      tag_209\n      jump\t// in\n    tag_208:\n      mload(0x40)\n      dup1\n      swap2\n      sub\n      swap1\n      revert\n    tag_207:\n        /* \"contracts/MultiSignatureWallet.sol\":3672:3737  IERC20(token).safeTransferFrom(msg.sender, address(this), amount) */\n      tag_210\n        /* \"contracts/MultiSignatureWallet.sol\":3703:3713  msg.sender */\n      caller\n        /* \"contracts/MultiSignatureWallet.sol\":3723:3727  this */\n      address\n        /* \"contracts/MultiSignatureWallet.sol\":3730:3736  amount */\n      dup4\n        /* \"contracts/MultiSignatureWallet.sol\":3679:3684  token */\n      dup6\n        /* \"contracts/MultiSignatureWallet.sol\":3672:3702  IERC20(token).safeTransferFrom */\n      0xffffffffffffffffffffffffffffffffffffffff\n      and\n      tag_211\n      swap1\n        /* \"contracts/MultiSignatureWallet.sol\":3672:3737  IERC20(token).safeTransferFrom(msg.sender, address(this), amount) */\n      swap4\n      swap3\n      swap2\n      swap1\n      0xffffffff\n      and\n      jump\t// in\n    tag_210:\n        /* \"contracts/MultiSignatureWallet.sol\":3778:3783  token */\n      dup2\n        /* \"contracts/MultiSignatureWallet.sol\":3753:3792  TokenDeposit(msg.sender, token, amount) */\n      0xffffffffffffffffffffffffffffffffffffffff\n      and\n        /* \"contracts/MultiSignatureWallet.sol\":3766:3776  msg.sender */\n      caller\n        /* \"contracts/MultiSignatureWallet.sol\":3753:3792  TokenDeposit(msg.sender, token, amount) */\n      0xffffffffffffffffffffffffffffffffffffffff\n      and\n      0x98c09d9949722bae4bd0d988d4050091c3ae7ec6d51d3c6bbfe4233593944e9e\n        /* \"contracts/MultiSignatureWallet.sol\":3785:3791  amount */\n      dup4\n        /* \"contracts/MultiSignatureWallet.sol\":3753:3792  TokenDeposit(msg.sender, token, amount) */\n      mload(0x40)\n      tag_212\n      swap2\n      swap1\n      tag_45\n      jump\t// in\n    tag_212:\n      mload(0x40)\n      dup1\n      swap2\n      sub\n      swap1\n      log3\n        /* \"contracts/MultiSignatureWallet.sol\":3462:3800  function depositToken(address token, uint256 amount) external {... */\n      pop\n      pop\n      jump\t// out\n        /* \"contracts/MultiSignatureWallet.sol\":8604:9256  function getTransaction(uint256 txIndex)... */\n    tag_69:\n        /* \"contracts/MultiSignatureWallet.sol\":8707:8717  address to */\n      0x00\n        /* \"contracts/MultiSignatureWallet.sol\":8732:8745  uint256 value */\n      0x00\n        /* \"contracts/MultiSignatureWallet.sol\":8760:8777  bytes memory data */\n      0x60\n        /* \"contracts/MultiSignatureWallet.sol\":8792:8805  bool executed */\n      0x00\n        /* \"contracts/MultiSignatureWallet.sol\":8820:8841  uint256 confirmations */\n      0x00\n        /* \"contracts/MultiSignatureWallet.sol\":8856:8873  uint256 timestamp */\n      0x00\n        /* \"contracts/MultiSignatureWallet.sol\":8888:8901  address token */\n      0x00\n        /* \"contracts/MultiSignatureWallet.sol\":8929:8960  Transaction storage transaction */\n      0x00\n        /* \"contracts/MultiSignatureWallet.sol\":8963:8975  transactions */\n      0x01\n        /* \"contracts/MultiSignatureWallet.sol\":8963:8984  transactions[txIndex] */\n      0x00\n        /* \"contracts/MultiSignatureWallet.sol\":8976:8983  txIndex */\n      dup11\n        /* \"contracts/MultiSignatureWallet.sol\":8963:8984  transactions[txIndex] */\n      dup2\n      mstore\n      0x20\n      add\n      swap1\n      dup2\n      mstore\n      0x20\n      add\n      0x00\n      keccak256\n        /* \"contracts/MultiSignatureWallet.sol\":8929:8984  Transaction storage transaction = transactions[txIndex] */\n      swap1\n      pop\n        /* \"contracts/MultiSignatureWallet.sol\":9017:9028  transaction */\n      dup1\n        /* \"contracts/MultiSignatureWallet.sol\":9017:9031  transaction.to */\n      0x00\n      add\n      0x00\n      swap1\n      sload\n      swap1\n      0x0100\n      exp\n      swap1\n      div\n      0xffffffffffffffffffffffffffffffffffffffff\n      and\n        /* \"contracts/MultiSignatureWallet.sol\":9046:9057  transaction */\n      dup2\n        /* \"contracts/MultiSignatureWallet.sol\":9046:9063  transaction.value */\n      0x01\n      add\n      sload\n        /* \"contracts/MultiSignatureWallet.sol\":9078:9089  transaction */\n      dup3\n        /* \"contracts/MultiSignatureWallet.sol\":9078:9094  transaction.data */\n      0x02\n      add\n        /* \"contracts/MultiSignatureWallet.sol\":9109:9120  transaction */\n      dup4\n        /* \"contracts/MultiSignatureWallet.sol\":9109:9129  transaction.executed */\n      0x03\n      add\n      0x00\n      swap1\n      sload\n      swap1\n      0x0100\n      exp\n      swap1\n      div\n      0xff\n      and\n        /* \"contracts/MultiSignatureWallet.sol\":9144:9155  transaction */\n      dup5\n        /* \"contracts/MultiSignatureWallet.sol\":9144:9169  transaction.confirmations */\n      0x04\n      add\n      sload\n        /* \"contracts/MultiSignatureWallet.sol\":9184:9195  transaction */\n      dup6\n        /* \"contracts/MultiSignatureWallet.sol\":9184:9205  transaction.timestamp */\n      0x05\n      add\n      sload\n        /* \"contracts/MultiSignatureWallet.sol\":9220:9231  transaction */\n      dup7\n        /* \"contracts/MultiSignatureWallet.sol\":9220:9237  transaction.token */\n      0x06\n      add\n      0x00\n      swap1\n      sload\n      swap1\n      0x0100\n      exp\n      swap1\n      div\n      0xffffffffffffffffffffffffffffffffffffffff\n      and\n        /* \"contracts/MultiSignatureWallet.sol\":8995:9248  return (... */\n      dup5\n      dup1\n      sload\n      tag_214\n      swap1\n      tag_215\n      jump\t// in\n    tag_214:\n      dup1\n      0x1f\n      add\n      0x20\n      dup1\n      swap2\n      div\n      mul\n      0x20\n      add\n      mload(0x40)\n      swap1\n      dup2\n      add\n      0x40\n      mstore\n      dup1\n      swap3\n      swap2\n      swap1\n      dup2\n      dup2\n      mstore\n      0x20\n      add\n      dup3\n      dup1\n      sload\n      tag_216\n      swap1\n      tag_215\n      jump\t// in\n    tag_216:\n      dup1\n      iszero\n      tag_217\n      jumpi\n      dup1\n      0x1f\n      lt\n      tag_218\n      jumpi\n      0x0100\n      dup1\n      dup4\n      sload\n      div\n      mul\n      dup4\n      mstore\n      swap2\n      0x20\n      add\n      swap2\n      jump(tag_217)\n    tag_218:\n      dup3\n      add\n      swap2\n      swap1\n      0x00\n      mstore\n      keccak256(0x00, 0x20)\n      swap1\n    tag_219:\n      dup2\n      sload\n      dup2\n      mstore\n      swap1\n      0x01\n      add\n      swap1\n      0x20\n      add\n      dup1\n      dup4\n      gt\n      tag_219\n      jumpi\n      dup3\n      swap1\n      sub\n      0x1f\n      and\n      dup3\n      add\n      swap2\n    tag_217:\n      pop\n      pop\n      pop\n      pop\n      pop\n      swap5\n      pop\n      swap8\n      pop\n      swap8\n      pop\n      swap8\n      pop\n      swap8\n      pop\n      swap8\n      pop\n      swap8\n      pop\n      swap8\n      pop\n      pop\n        /* \"contracts/MultiSignatureWallet.sol\":8604:9256  function getTransaction(uint256 txIndex)... */\n      swap2\n      swap4\n      swap6\n      swap8\n      swap1\n      swap3\n      swap5\n      swap7\n      pop\n      jump\t// out\n        /* \"contracts/MultiSignatureWallet.sol\":10838:10972  function getTokenBalance(address token) public view returns (uint256) {... */\n    tag_75:\n        /* \"contracts/MultiSignatureWallet.sol\":10899:10906  uint256 */\n      0x00\n        /* \"contracts/MultiSignatureWallet.sol\":10933:10938  token */\n      dup2\n        /* \"contracts/MultiSignatureWallet.sol\":10926:10949  IERC20(token).balanceOf */\n      0xffffffffffffffffffffffffffffffffffffffff\n      and\n      0x70a08231\n        /* \"contracts/MultiSignatureWallet.sol\":10958:10962  this */\n      address\n        /* \"contracts/MultiSignatureWallet.sol\":10926:10964  IERC20(token).balanceOf(address(this)) */\n      mload(0x40)\n      dup3\n      0xffffffff\n      and\n      0xe0\n      shl\n      dup2\n      mstore\n      0x04\n      add\n      tag_221\n      swap2\n      swap1\n      tag_40\n      jump\t// in\n    tag_221:\n      0x20\n      mload(0x40)\n      dup1\n      dup4\n      sub\n      dup2\n      dup7\n      gas\n      staticcall\n      iszero\n      dup1\n      iszero\n      tag_223\n      jumpi\n      returndatacopy(0x00, 0x00, returndatasize)\n      revert(0x00, returndatasize)\n    tag_223:\n      pop\n      pop\n      pop\n      pop\n      mload(0x40)\n      returndatasize\n      not(0x1f)\n      0x1f\n      dup3\n      add\n      and\n      dup3\n      add\n      dup1\n      0x40\n      mstore\n      pop\n      dup2\n      add\n      swap1\n      tag_224\n      swap2\n      swap1\n      tag_225\n      jump\t// in\n    tag_224:\n        /* \"contracts/MultiSignatureWallet.sol\":10919:10964  return IERC20(token).balanceOf(address(this)) */\n      swap1\n      pop\n        /* \"contracts/MultiSignatureWallet.sol\":10838:10972  function getTokenBalance(address token) public view returns (uint256) {... */\n      swap2\n      swap1\n      pop\n      jump\t// out\n        /* \"contracts/MultiSignatureWallet.sol\":8198:8592  function getTransactionCount(bool pending, bool executed)... */\n    tag_81:\n        /* \"contracts/MultiSignatureWallet.sol\":8304:8317  uint256 count */\n      0x00\n        /* \"contracts/MultiSignatureWallet.sol\":8340:8349  uint256 i */\n      0x00\n        /* \"contracts/MultiSignatureWallet.sol\":8352:8353  0 */\n      0x00\n        /* \"contracts/MultiSignatureWallet.sol\":8340:8353  uint256 i = 0 */\n      swap1\n      pop\n        /* \"contracts/MultiSignatureWallet.sol\":8335:8585  for (uint256 i = 0; i < transactionCount; i++) {... */\n    tag_227:\n        /* \"contracts/MultiSignatureWallet.sol\":8359:8375  transactionCount */\n      sload(0x06)\n        /* \"contracts/MultiSignatureWallet.sol\":8355:8356  i */\n      dup2\n        /* \"contracts/MultiSignatureWallet.sol\":8355:8375  i < transactionCount */\n      lt\n        /* \"contracts/MultiSignatureWallet.sol\":8335:8585  for (uint256 i = 0; i < transactionCount; i++) {... */\n      iszero\n      tag_228\n      jumpi\n        /* \"contracts/MultiSignatureWallet.sol\":8420:8427  pending */\n      dup4\n        /* \"contracts/MultiSignatureWallet.sol\":8420:8456  pending && !transactions[i].executed */\n      dup1\n      iszero\n      tag_230\n      jumpi\n      pop\n        /* \"contracts/MultiSignatureWallet.sol\":8432:8444  transactions */\n      0x01\n        /* \"contracts/MultiSignatureWallet.sol\":8432:8447  transactions[i] */\n      0x00\n        /* \"contracts/MultiSignatureWallet.sol\":8445:8446  i */\n      dup3\n        /* \"contracts/MultiSignatureWallet.sol\":8432:8447  transactions[i] */\n      dup2\n      mstore\n      0x20\n      add\n      swap1\n      dup2\n      mstore\n      0x20\n      add\n      0x00\n      keccak256\n        /* \"contracts/MultiSignatureWallet.sol\":8432:8456  transactions[i].executed */\n      0x03\n      add\n      0x00\n      swap1\n      sload\n      swap1\n      0x0100\n      exp\n      swap1\n      div\n      0xff\n      and\n        /* \"contracts/MultiSignatureWallet.sol\":8431:8456  !transactions[i].executed */\n      iszero\n        /* \"contracts/MultiSignatureWallet.sol\":8420:8456  pending && !transactions[i].executed */\n    tag_230:\n        /* \"contracts/MultiSignatureWallet.sol\":8419:8516  (pending && !transactions[i].executed) ||... */\n      dup1\n      tag_231\n      jumpi\n      pop\n        /* \"contracts/MultiSignatureWallet.sol\":8479:8487  executed */\n      dup3\n        /* \"contracts/MultiSignatureWallet.sol\":8479:8515  executed && transactions[i].executed */\n      dup1\n      iszero\n      tag_232\n      jumpi\n      pop\n        /* \"contracts/MultiSignatureWallet.sol\":8491:8503  transactions */\n      0x01\n        /* \"contracts/MultiSignatureWallet.sol\":8491:8506  transactions[i] */\n      0x00\n        /* \"contracts/MultiSignatureWallet.sol\":8504:8505  i */\n      dup3\n        /* \"contracts/MultiSignatureWallet.sol\":8491:8506  transactions[i] */\n      dup2\n      mstore\n      0x20\n      add\n      swap1\n      dup2\n      mstore\n      0x20\n      add\n      0x00\n      keccak256\n        /* \"contracts/MultiSignatureWallet.sol\":8491:8515  transactions[i].executed */\n      0x03\n      add\n      0x00\n      swap1\n      sload\n      swap1\n      0x0100\n      exp\n      swap1\n      div\n      0xff\n      and\n        /* \"contracts/MultiSignatureWallet.sol\":8479:8515  executed && transactions[i].executed */\n    tag_232:\n        /* \"contracts/MultiSignatureWallet.sol\":8419:8516  (pending && !transactions[i].executed) ||... */\n    tag_231:\n        /* \"contracts/MultiSignatureWallet.sol\":8397:8574  if (... */\n      iszero\n      tag_233\n      jumpi\n        /* \"contracts/MultiSignatureWallet.sol\":8551:8558  count++ */\n      dup2\n      dup1\n      tag_234\n      swap1\n      tag_235\n      jump\t// in\n    tag_234:\n      swap3\n      pop\n      pop\n        /* \"contracts/MultiSignatureWallet.sol\":8397:8574  if (... */\n    tag_233:\n        /* \"contracts/MultiSignatureWallet.sol\":8377:8380  i++ */\n      dup1\n      dup1\n      0x01\n      add\n      swap2\n      pop\n      pop\n        /* \"contracts/MultiSignatureWallet.sol\":8335:8585  for (uint256 i = 0; i < transactionCount; i++) {... */\n      jump(tag_227)\n    tag_228:\n      pop\n        /* \"contracts/MultiSignatureWallet.sol\":8198:8592  function getTransactionCount(bool pending, bool executed)... */\n      swap3\n      swap2\n      pop\n      pop\n      jump\t// out\n        /* \"contracts/MultiSignatureWallet.sol\":3812:4491  function submitTransaction(... */\n    tag_87:\n        /* \"contracts/MultiSignatureWallet.sol\":3983:3998  uint256 txIndex */\n      0x00\n        /* \"contracts/MultiSignatureWallet.sol\":3962:3972  msg.sender */\n      caller\n        /* \"contracts/MultiSignatureWallet.sol\":1966:1973  isOwner */\n      0x03\n        /* \"contracts/MultiSignatureWallet.sol\":1966:1980  isOwner[owner] */\n      0x00\n        /* \"contracts/MultiSignatureWallet.sol\":1974:1979  owner */\n      dup3\n        /* \"contracts/MultiSignatureWallet.sol\":1966:1980  isOwner[owner] */\n      0xffffffffffffffffffffffffffffffffffffffff\n      and\n      0xffffffffffffffffffffffffffffffffffffffff\n      and\n      dup2\n      mstore\n      0x20\n      add\n      swap1\n      dup2\n      mstore\n      0x20\n      add\n      0x00\n      keccak256\n      0x00\n      swap1\n      sload\n      swap1\n      0x0100\n      exp\n      swap1\n      div\n      0xff\n      and\n        /* \"contracts/MultiSignatureWallet.sol\":1958:2005  require(isOwner[owner], \"Owner does not exist\") */\n      tag_237\n      jumpi\n      mload(0x40)\n      0x08c379a000000000000000000000000000000000000000000000000000000000\n      dup2\n      mstore\n      0x04\n      add\n      tag_238\n      swap1\n      tag_161\n      jump\t// in\n    tag_238:\n      mload(0x40)\n      dup1\n      swap2\n      sub\n      swap1\n      revert\n    tag_237:\n        /* \"contracts/MultiSignatureWallet.sol\":4021:4037  transactionCount */\n      sload(0x06)\n        /* \"contracts/MultiSignatureWallet.sol\":4011:4037  txIndex = transactionCount */\n      swap2\n      pop\n        /* \"contracts/MultiSignatureWallet.sol\":4082:4308  Transaction({... */\n      mload(0x40)\n      dup1\n      0xe0\n      add\n      0x40\n      mstore\n      dup1\n        /* \"contracts/MultiSignatureWallet.sol\":4113:4115  to */\n      dup8\n        /* \"contracts/MultiSignatureWallet.sol\":4082:4308  Transaction({... */\n      0xffffffffffffffffffffffffffffffffffffffff\n      and\n      dup2\n      mstore\n      0x20\n      add\n        /* \"contracts/MultiSignatureWallet.sol\":4137:4142  value */\n      dup7\n        /* \"contracts/MultiSignatureWallet.sol\":4082:4308  Transaction({... */\n      dup2\n      mstore\n      0x20\n      add\n        /* \"contracts/MultiSignatureWallet.sol\":4163:4167  data */\n      dup6\n        /* \"contracts/MultiSignatureWallet.sol\":4082:4308  Transaction({... */\n      dup2\n      mstore\n      0x20\n      add\n        /* \"contracts/MultiSignatureWallet.sol\":4192:4197  false */\n      0x00\n        /* \"contracts/MultiSignatureWallet.sol\":4082:4308  Transaction({... */\n      iszero\n      iszero\n      dup2\n      mstore\n      0x20\n      add\n        /* \"contracts/MultiSignatureWallet.sol\":4227:4228  0 */\n      0x00\n        /* \"contracts/MultiSignatureWallet.sol\":4082:4308  Transaction({... */\n      dup2\n      mstore\n      0x20\n      add\n        /* \"contracts/MultiSignatureWallet.sol\":4254:4269  block.timestamp */\n      timestamp\n        /* \"contracts/MultiSignatureWallet.sol\":4082:4308  Transaction({... */\n      dup2\n      mstore\n      0x20\n      add\n        /* \"contracts/MultiSignatureWallet.sol\":4291:4296  token */\n      dup5\n        /* \"contracts/MultiSignatureWallet.sol\":4082:4308  Transaction({... */\n      0xffffffffffffffffffffffffffffffffffffffff\n      and\n      dup2\n      mstore\n      pop\n        /* \"contracts/MultiSignatureWallet.sol\":4058:4070  transactions */\n      0x01\n        /* \"contracts/MultiSignatureWallet.sol\":4058:4079  transactions[txIndex] */\n      0x00\n        /* \"contracts/MultiSignatureWallet.sol\":4071:4078  txIndex */\n      dup5\n        /* \"contracts/MultiSignatureWallet.sol\":4058:4079  transactions[txIndex] */\n      dup2\n      mstore\n      0x20\n      add\n      swap1\n      dup2\n      mstore\n      0x20\n      add\n      0x00\n      keccak256\n        /* \"contracts/MultiSignatureWallet.sol\":4058:4308  transactions[txIndex] = Transaction({... */\n      0x00\n      dup3\n      add\n      mload\n      dup2\n      0x00\n      add\n      exp(0x0100, 0x00)\n      dup2\n      sload\n      dup2\n      0xffffffffffffffffffffffffffffffffffffffff\n      mul\n      not\n      and\n      swap1\n      dup4\n      0xffffffffffffffffffffffffffffffffffffffff\n      and\n      mul\n      or\n      swap1\n      sstore\n      pop\n      0x20\n      dup3\n      add\n      mload\n      dup2\n      0x01\n      add\n      sstore\n      0x40\n      dup3\n      add\n      mload\n      dup2\n      0x02\n      add\n      swap1\n      dup2\n      tag_240\n      swap2\n      swap1\n      tag_241\n      jump\t// in\n    tag_240:\n      pop\n      0x60\n      dup3\n      add\n      mload\n      dup2\n      0x03\n      add\n      exp(0x0100, 0x00)\n      dup2\n      sload\n      dup2\n      0xff\n      mul\n      not\n      and\n      swap1\n      dup4\n      iszero\n      iszero\n      mul\n      or\n      swap1\n      sstore\n      pop\n      0x80\n      dup3\n      add\n      mload\n      dup2\n      0x04\n      add\n      sstore\n      0xa0\n      dup3\n      add\n      mload\n      dup2\n      0x05\n      add\n      sstore\n      0xc0\n      dup3\n      add\n      mload\n      dup2\n      0x06\n      add\n      exp(0x0100, 0x00)\n      dup2\n      sload\n      dup2\n      0xffffffffffffffffffffffffffffffffffffffff\n      mul\n      not\n      and\n      swap1\n      dup4\n      0xffffffffffffffffffffffffffffffffffffffff\n      and\n      mul\n      or\n      swap1\n      sstore\n      pop\n      swap1\n      pop\n      pop\n        /* \"contracts/MultiSignatureWallet.sol\":4329:4345  transactionCount */\n      0x06\n      0x00\n        /* \"contracts/MultiSignatureWallet.sol\":4329:4347  transactionCount++ */\n      dup2\n      sload\n      dup1\n      swap3\n      swap2\n      swap1\n      tag_242\n      swap1\n      tag_235\n      jump\t// in\n    tag_242:\n      swap2\n      swap1\n      pop\n      sstore\n      pop\n        /* \"contracts/MultiSignatureWallet.sol\":4412:4414  to */\n      dup6\n        /* \"contracts/MultiSignatureWallet.sol\":4373:4435  SubmitTransaction(msg.sender, txIndex, to, value, data, token) */\n      0xffffffffffffffffffffffffffffffffffffffff\n      and\n        /* \"contracts/MultiSignatureWallet.sol\":4403:4410  txIndex */\n      dup3\n        /* \"contracts/MultiSignatureWallet.sol\":4391:4401  msg.sender */\n      caller\n        /* \"contracts/MultiSignatureWallet.sol\":4373:4435  SubmitTransaction(msg.sender, txIndex, to, value, data, token) */\n      0xffffffffffffffffffffffffffffffffffffffff\n      and\n      0xa450e3866a6133bd39d88cce8897a51e823db7ba4e9c912cfc15e523dad9491f\n        /* \"contracts/MultiSignatureWallet.sol\":4416:4421  value */\n      dup9\n        /* \"contracts/MultiSignatureWallet.sol\":4423:4427  data */\n      dup9\n        /* \"contracts/MultiSignatureWallet.sol\":4429:4434  token */\n      dup9\n        /* \"contracts/MultiSignatureWallet.sol\":4373:4435  SubmitTransaction(msg.sender, txIndex, to, value, data, token) */\n      mload(0x40)\n      tag_243\n      swap4\n      swap3\n      swap2\n      swap1\n      tag_244\n      jump\t// in\n    tag_243:\n      mload(0x40)\n      dup1\n      swap2\n      sub\n      swap1\n      log4\n        /* \"contracts/MultiSignatureWallet.sol\":4456:4483  confirmTransaction(txIndex) */\n      tag_245\n        /* \"contracts/MultiSignatureWallet.sol\":4475:4482  txIndex */\n      dup3\n        /* \"contracts/MultiSignatureWallet.sol\":4456:4474  confirmTransaction */\n      tag_137\n        /* \"contracts/MultiSignatureWallet.sol\":4456:4483  confirmTransaction(txIndex) */\n      jump\t// in\n    tag_245:\n        /* \"contracts/MultiSignatureWallet.sol\":3812:4491  function submitTransaction(... */\n      pop\n      swap5\n      swap4\n      pop\n      pop\n      pop\n      pop\n      jump\t// out\n        /* \"contracts/MultiSignatureWallet.sol\":6503:6795  function addOwner(address owner)... */\n    tag_92:\n        /* \"contracts/MultiSignatureWallet.sol\":1702:1706  this */\n      address\n        /* \"contracts/MultiSignatureWallet.sol\":1680:1707  msg.sender == address(this) */\n      0xffffffffffffffffffffffffffffffffffffffff\n      and\n        /* \"contracts/MultiSignatureWallet.sol\":1680:1690  msg.sender */\n      caller\n        /* \"contracts/MultiSignatureWallet.sol\":1680:1707  msg.sender == address(this) */\n      0xffffffffffffffffffffffffffffffffffffffff\n      and\n      eq\n        /* \"contracts/MultiSignatureWallet.sol\":1672:1746  require(msg.sender == address(this), \"Only wallet can call this function\") */\n      tag_247\n      jumpi\n      mload(0x40)\n      0x08c379a000000000000000000000000000000000000000000000000000000000\n      dup2\n      mstore\n      0x04\n      add\n      tag_248\n      swap1\n      tag_157\n      jump\t// in\n    tag_248:\n      mload(0x40)\n      dup1\n      swap2\n      sub\n      swap1\n      revert\n    tag_247:\n        /* \"contracts/MultiSignatureWallet.sol\":6599:6604  owner */\n      dup1\n        /* \"contracts/MultiSignatureWallet.sol\":1840:1847  isOwner */\n      0x03\n        /* \"contracts/MultiSignatureWallet.sol\":1840:1854  isOwner[owner] */\n      0x00\n        /* \"contracts/MultiSignatureWallet.sol\":1848:1853  owner */\n      dup3\n        /* \"contracts/MultiSignatureWallet.sol\":1840:1854  isOwner[owner] */\n      0xffffffffffffffffffffffffffffffffffffffff\n      and\n      0xffffffffffffffffffffffffffffffffffffffff\n      and\n      dup2\n      mstore\n      0x20\n      add\n      swap1\n      dup2\n      mstore\n      0x20\n      add\n      0x00\n      keccak256\n      0x00\n      swap1\n      sload\n      swap1\n      0x0100\n      exp\n      swap1\n      div\n      0xff\n      and\n        /* \"contracts/MultiSignatureWallet.sol\":1839:1854  !isOwner[owner] */\n      iszero\n        /* \"contracts/MultiSignatureWallet.sol\":1831:1879  require(!isOwner[owner], \"Owner already exists\") */\n      tag_250\n      jumpi\n      mload(0x40)\n      0x08c379a000000000000000000000000000000000000000000000000000000000\n      dup2\n      mstore\n      0x04\n      add\n      tag_251\n      swap1\n      tag_252\n      jump\t// in\n    tag_251:\n      mload(0x40)\n      dup1\n      swap2\n      sub\n      swap1\n      revert\n    tag_250:\n        /* \"contracts/MultiSignatureWallet.sol\":6623:6628  owner */\n      dup2\n        /* \"contracts/MultiSignatureWallet.sol\":2583:2584  0 */\n      0x00\n        /* \"contracts/MultiSignatureWallet.sol\":2563:2585  _address != address(0) */\n      0xffffffffffffffffffffffffffffffffffffffff\n      and\n        /* \"contracts/MultiSignatureWallet.sol\":2563:2571  _address */\n      dup2\n        /* \"contracts/MultiSignatureWallet.sol\":2563:2585  _address != address(0) */\n      0xffffffffffffffffffffffffffffffffffffffff\n      and\n      sub\n        /* \"contracts/MultiSignatureWallet.sol\":2555:2612  require(_address != address(0), \"Address cannot be null\") */\n      tag_254\n      jumpi\n      mload(0x40)\n      0x08c379a000000000000000000000000000000000000000000000000000000000\n      dup2\n      mstore\n      0x04\n      add\n      tag_255\n      swap1\n      tag_256\n      jump\t// in\n    tag_255:\n      mload(0x40)\n      dup1\n      swap2\n      sub\n      swap1\n      revert\n    tag_254:\n        /* \"contracts/MultiSignatureWallet.sol\":6672:6673  1 */\n      0x01\n        /* \"contracts/MultiSignatureWallet.sol\":6656:6662  owners */\n      0x04\n        /* \"contracts/MultiSignatureWallet.sol\":6656:6669  owners.length */\n      dup1\n      sload\n      swap1\n      pop\n        /* \"contracts/MultiSignatureWallet.sol\":6656:6673  owners.length + 1 */\n      tag_257\n      swap2\n      swap1\n      tag_258\n      jump\t// in\n    tag_257:\n        /* \"contracts/MultiSignatureWallet.sol\":6675:6683  required */\n      sload(0x05)\n        /* \"contracts/MultiSignatureWallet.sol\":2756:2758  20 */\n      0x14\n        /* \"contracts/MultiSignatureWallet.sol\":2742:2752  ownerCount */\n      dup3\n        /* \"contracts/MultiSignatureWallet.sol\":2742:2758  ownerCount <= 20 */\n      gt\n      iszero\n        /* \"contracts/MultiSignatureWallet.sol\":2742:2785  ownerCount <= 20 && _required <= ownerCount */\n      dup1\n      iszero\n      tag_260\n      jumpi\n      pop\n        /* \"contracts/MultiSignatureWallet.sol\":2775:2785  ownerCount */\n      dup2\n        /* \"contracts/MultiSignatureWallet.sol\":2762:2771  _required */\n      dup2\n        /* \"contracts/MultiSignatureWallet.sol\":2762:2785  _required <= ownerCount */\n      gt\n      iszero\n        /* \"contracts/MultiSignatureWallet.sol\":2742:2785  ownerCount <= 20 && _required <= ownerCount */\n    tag_260:\n        /* \"contracts/MultiSignatureWallet.sol\":2742:2803  ownerCount <= 20 && _required <= ownerCount && _required != 0 */\n      dup1\n      iszero\n      tag_261\n      jumpi\n      pop\n        /* \"contracts/MultiSignatureWallet.sol\":2802:2803  0 */\n      0x00\n        /* \"contracts/MultiSignatureWallet.sol\":2789:2798  _required */\n      dup2\n        /* \"contracts/MultiSignatureWallet.sol\":2789:2803  _required != 0 */\n      eq\n      iszero\n        /* \"contracts/MultiSignatureWallet.sol\":2742:2803  ownerCount <= 20 && _required <= ownerCount && _required != 0 */\n    tag_261:\n        /* \"contracts/MultiSignatureWallet.sol\":2742:2822  ownerCount <= 20 && _required <= ownerCount && _required != 0 && ownerCount != 0 */\n      dup1\n      iszero\n      tag_262\n      jumpi\n      pop\n        /* \"contracts/MultiSignatureWallet.sol\":2821:2822  0 */\n      0x00\n        /* \"contracts/MultiSignatureWallet.sol\":2807:2817  ownerCount */\n      dup3\n        /* \"contracts/MultiSignatureWallet.sol\":2807:2822  ownerCount != 0 */\n      eq\n      iszero\n        /* \"contracts/MultiSignatureWallet.sol\":2742:2822  ownerCount <= 20 && _required <= ownerCount && _required != 0 && ownerCount != 0 */\n    tag_262:\n        /* \"contracts/MultiSignatureWallet.sol\":2720:2869  require(... */\n      tag_263\n      jumpi\n      mload(0x40)\n      0x08c379a000000000000000000000000000000000000000000000000000000000\n      dup2\n      mstore\n      0x04\n      add\n      tag_264\n      swap1\n      tag_265\n      jump\t// in\n    tag_264:\n      mload(0x40)\n      dup1\n      swap2\n      sub\n      swap1\n      revert\n    tag_263:\n        /* \"contracts/MultiSignatureWallet.sol\":6718:6722  true */\n      0x01\n        /* \"contracts/MultiSignatureWallet.sol\":6701:6708  isOwner */\n      0x03\n        /* \"contracts/MultiSignatureWallet.sol\":6701:6715  isOwner[owner] */\n      0x00\n        /* \"contracts/MultiSignatureWallet.sol\":6709:6714  owner */\n      dup8\n        /* \"contracts/MultiSignatureWallet.sol\":6701:6715  isOwner[owner] */\n      0xffffffffffffffffffffffffffffffffffffffff\n      and\n      0xffffffffffffffffffffffffffffffffffffffff\n      and\n      dup2\n      mstore\n      0x20\n      add\n      swap1\n      dup2\n      mstore\n      0x20\n      add\n      0x00\n      keccak256\n      0x00\n        /* \"contracts/MultiSignatureWallet.sol\":6701:6722  isOwner[owner] = true */\n      0x0100\n      exp\n      dup2\n      sload\n      dup2\n      0xff\n      mul\n      not\n      and\n      swap1\n      dup4\n      iszero\n      iszero\n      mul\n      or\n      swap1\n      sstore\n      pop\n        /* \"contracts/MultiSignatureWallet.sol\":6733:6739  owners */\n      0x04\n        /* \"contracts/MultiSignatureWallet.sol\":6745:6750  owner */\n      dup6\n        /* \"contracts/MultiSignatureWallet.sol\":6733:6751  owners.push(owner) */\n      swap1\n      dup1\n      0x01\n      dup2\n      sload\n      add\n      dup1\n      dup3\n      sstore\n      dup1\n      swap2\n      pop\n      pop\n      0x01\n      swap1\n      sub\n      swap1\n      0x00\n      mstore\n      keccak256(0x00, 0x20)\n      add\n      0x00\n      swap1\n      swap2\n      swap1\n      swap2\n      swap1\n      swap2\n      0x0100\n      exp\n      dup2\n      sload\n      dup2\n      0xffffffffffffffffffffffffffffffffffffffff\n      mul\n      not\n      and\n      swap1\n      dup4\n      0xffffffffffffffffffffffffffffffffffffffff\n      and\n      mul\n      or\n      swap1\n      sstore\n      pop\n        /* \"contracts/MultiSignatureWallet.sol\":6781:6786  owner */\n      dup5\n        /* \"contracts/MultiSignatureWallet.sol\":6767:6787  OwnerAddition(owner) */\n      0xffffffffffffffffffffffffffffffffffffffff\n      and\n      0xf39e6e1eb0edcf53c221607b54b00cd28f3196fed0a24994dc308b8f611b682d\n      mload(0x40)\n      mload(0x40)\n      dup1\n      swap2\n      sub\n      swap1\n      log2\n        /* \"contracts/MultiSignatureWallet.sol\":2623:2624  _ */\n      pop\n      pop\n        /* \"contracts/MultiSignatureWallet.sol\":1890:1891  _ */\n      pop\n        /* \"contracts/MultiSignatureWallet.sol\":1757:1758  _ */\n      pop\n        /* \"contracts/MultiSignatureWallet.sol\":6503:6795  function addOwner(address owner)... */\n      pop\n      jump\t// out\n        /* \"contracts/MultiSignatureWallet.sol\":659:722  mapping(uint256 => mapping(address => bool)) public isConfirmed */\n    tag_97:\n      mstore(0x20, 0x02)\n      dup2\n      0x00\n      mstore\n      mstore(0x20, keccak256(0x00, 0x40))\n      dup1\n      0x00\n      mstore\n      keccak256(0x00, 0x40)\n      0x00\n      swap2\n      pop\n      swap2\n      pop\n      swap1\n      sload\n      swap1\n      0x0100\n      exp\n      swap1\n      div\n      0xff\n      and\n      dup2\n      jump\t// out\n        /* \"contracts/MultiSignatureWallet.sol\":10984:11155  function isConfirmedBy(uint256 txIndex, address owner) ... */\n    tag_102:\n        /* \"contracts/MultiSignatureWallet.sol\":11090:11094  bool */\n      0x00\n        /* \"contracts/MultiSignatureWallet.sol\":11120:11131  isConfirmed */\n      0x02\n        /* \"contracts/MultiSignatureWallet.sol\":11120:11140  isConfirmed[txIndex] */\n      0x00\n        /* \"contracts/MultiSignatureWallet.sol\":11132:11139  txIndex */\n      dup5\n        /* \"contracts/MultiSignatureWallet.sol\":11120:11140  isConfirmed[txIndex] */\n      dup2\n      mstore\n      0x20\n      add\n      swap1\n      dup2\n      mstore\n      0x20\n      add\n      0x00\n      keccak256\n        /* \"contracts/MultiSignatureWallet.sol\":11120:11147  isConfirmed[txIndex][owner] */\n      0x00\n        /* \"contracts/MultiSignatureWallet.sol\":11141:11146  owner */\n      dup4\n        /* \"contracts/MultiSignatureWallet.sol\":11120:11147  isConfirmed[txIndex][owner] */\n      0xffffffffffffffffffffffffffffffffffffffff\n      and\n      0xffffffffffffffffffffffffffffffffffffffff\n      and\n      dup2\n      mstore\n      0x20\n      add\n      swap1\n      dup2\n      mstore\n      0x20\n      add\n      0x00\n      keccak256\n      0x00\n      swap1\n      sload\n      swap1\n      0x0100\n      exp\n      swap1\n      div\n      0xff\n      and\n        /* \"contracts/MultiSignatureWallet.sol\":11113:11147  return isConfirmed[txIndex][owner] */\n      swap1\n      pop\n        /* \"contracts/MultiSignatureWallet.sol\":10984:11155  function isConfirmedBy(uint256 txIndex, address owner) ... */\n      swap3\n      swap2\n      pop\n      pop\n      jump\t// out\n        /* \"contracts/MultiSignatureWallet.sol\":601:652  mapping(uint256 => Transaction) public transactions */\n    tag_107:\n      mstore(0x20, 0x01)\n      dup1\n      0x00\n      mstore\n      keccak256(0x00, 0x40)\n      0x00\n      swap2\n      pop\n      swap1\n      pop\n      dup1\n      0x00\n      add\n      0x00\n      swap1\n      sload\n      swap1\n      0x0100\n      exp\n      swap1\n      div\n      0xffffffffffffffffffffffffffffffffffffffff\n      and\n      swap1\n      dup1\n      0x01\n      add\n      sload\n      swap1\n      dup1\n      0x02\n      add\n      dup1\n      sload\n      tag_269\n      swap1\n      tag_215\n      jump\t// in\n    tag_269:\n      dup1\n      0x1f\n      add\n      0x20\n      dup1\n      swap2\n      div\n      mul\n      0x20\n      add\n      mload(0x40)\n      swap1\n      dup2\n      add\n      0x40\n      mstore\n      dup1\n      swap3\n      swap2\n      swap1\n      dup2\n      dup2\n      mstore\n      0x20\n      add\n      dup3\n      dup1\n      sload\n      tag_270\n      swap1\n      tag_215\n      jump\t// in\n    tag_270:\n      dup1\n      iszero\n      tag_271\n      jumpi\n      dup1\n      0x1f\n      lt\n      tag_272\n      jumpi\n      0x0100\n      dup1\n      dup4\n      sload\n      div\n      mul\n      dup4\n      mstore\n      swap2\n      0x20\n      add\n      swap2\n      jump(tag_271)\n    tag_272:\n      dup3\n      add\n      swap2\n      swap1\n      0x00\n      mstore\n      keccak256(0x00, 0x20)\n      swap1\n    tag_273:\n      dup2\n      sload\n      dup2\n      mstore\n      swap1\n      0x01\n      add\n      swap1\n      0x20\n      add\n      dup1\n      dup4\n      gt\n      tag_273\n      jumpi\n      dup3\n      swap1\n      sub\n      0x1f\n      and\n      dup3\n      add\n      swap2\n    tag_271:\n      pop\n      pop\n      pop\n      pop\n      pop\n      swap1\n      dup1\n      0x03\n      add\n      0x00\n      swap1\n      sload\n      swap1\n      0x0100\n      exp\n      swap1\n      div\n      0xff\n      and\n      swap1\n      dup1\n      0x04\n      add\n      sload\n      swap1\n      dup1\n      0x05\n      add\n      sload\n      swap1\n      dup1\n      0x06\n      add\n      0x00\n      swap1\n      sload\n      swap1\n      0x0100\n      exp\n      swap1\n      div\n      0xffffffffffffffffffffffffffffffffffffffff\n      and\n      swap1\n      pop\n      dup8\n      jump\t// out\n        /* \"contracts/MultiSignatureWallet.sol\":8094:8186  function getOwners() public view returns (address[] memory) {... */\n    tag_111:\n        /* \"contracts/MultiSignatureWallet.sol\":8136:8152  address[] memory */\n      0x60\n        /* \"contracts/MultiSignatureWallet.sol\":8172:8178  owners */\n      0x04\n        /* \"contracts/MultiSignatureWallet.sol\":8165:8178  return owners */\n      dup1\n      sload\n      dup1\n      0x20\n      mul\n      0x20\n      add\n      mload(0x40)\n      swap1\n      dup2\n      add\n      0x40\n      mstore\n      dup1\n      swap3\n      swap2\n      swap1\n      dup2\n      dup2\n      mstore\n      0x20\n      add\n      dup3\n      dup1\n      sload\n      dup1\n      iszero\n      tag_275\n      jumpi\n      0x20\n      mul\n      dup3\n      add\n      swap2\n      swap1\n      0x00\n      mstore\n      keccak256(0x00, 0x20)\n      swap1\n    tag_276:\n      dup2\n      0x00\n      swap1\n      sload\n      swap1\n      0x0100\n      exp\n      swap1\n      div\n      0xffffffffffffffffffffffffffffffffffffffff\n      and\n      0xffffffffffffffffffffffffffffffffffffffff\n      and\n      dup2\n      mstore\n      0x20\n      add\n      swap1\n      0x01\n      add\n      swap1\n      dup1\n      dup4\n      gt\n      tag_276\n      jumpi\n    tag_275:\n      pop\n      pop\n      pop\n      pop\n      pop\n      swap1\n      pop\n        /* \"contracts/MultiSignatureWallet.sol\":8094:8186  function getOwners() public view returns (address[] memory) {... */\n      swap1\n      jump\t// out\n        /* \"contracts/MultiSignatureWallet.sol\":9916:10715  function getTransactionIds(... */\n    tag_118:\n        /* \"contracts/MultiSignatureWallet.sol\":10062:10094  uint256[] memory _transactionIds */\n      0x60\n        /* \"contracts/MultiSignatureWallet.sol\":10107:10142  uint256[] memory transactionIdsTemp */\n      0x00\n        /* \"contracts/MultiSignatureWallet.sol\":10159:10175  transactionCount */\n      sload(0x06)\n        /* \"contracts/MultiSignatureWallet.sol\":10145:10176  new uint256[](transactionCount) */\n      0xffffffffffffffff\n      dup2\n      gt\n      iszero\n      tag_278\n      jumpi\n      tag_279\n      tag_280\n      jump\t// in\n    tag_279:\n    tag_278:\n      mload(0x40)\n      swap1\n      dup1\n      dup3\n      mstore\n      dup1\n      0x20\n      mul\n      0x20\n      add\n      dup3\n      add\n      0x40\n      mstore\n      dup1\n      iszero\n      tag_281\n      jumpi\n      dup2\n      0x20\n      add\n      0x20\n      dup3\n      mul\n      dup1\n      calldatasize\n      dup4\n      calldatacopy\n      dup1\n      dup3\n      add\n      swap2\n      pop\n      pop\n      swap1\n      pop\n    tag_281:\n      pop\n        /* \"contracts/MultiSignatureWallet.sol\":10107:10176  uint256[] memory transactionIdsTemp = new uint256[](transactionCount) */\n      swap1\n      pop\n        /* \"contracts/MultiSignatureWallet.sol\":10187:10200  uint256 count */\n      0x00\n        /* \"contracts/MultiSignatureWallet.sol\":10203:10204  0 */\n      0x00\n        /* \"contracts/MultiSignatureWallet.sol\":10187:10204  uint256 count = 0 */\n      swap1\n      pop\n        /* \"contracts/MultiSignatureWallet.sol\":10230:10239  uint256 i */\n      0x00\n        /* \"contracts/MultiSignatureWallet.sol\":10242:10243  0 */\n      0x00\n        /* \"contracts/MultiSignatureWallet.sol\":10230:10243  uint256 i = 0 */\n      swap1\n      pop\n        /* \"contracts/MultiSignatureWallet.sol\":10225:10523  for (uint256 i = 0; i < transactionCount; i++) {... */\n    tag_282:\n        /* \"contracts/MultiSignatureWallet.sol\":10249:10265  transactionCount */\n      sload(0x06)\n        /* \"contracts/MultiSignatureWallet.sol\":10245:10246  i */\n      dup2\n        /* \"contracts/MultiSignatureWallet.sol\":10245:10265  i < transactionCount */\n      lt\n        /* \"contracts/MultiSignatureWallet.sol\":10225:10523  for (uint256 i = 0; i < transactionCount; i++) {... */\n      iszero\n      tag_283\n      jumpi\n        /* \"contracts/MultiSignatureWallet.sol\":10310:10317  pending */\n      dup6\n        /* \"contracts/MultiSignatureWallet.sol\":10310:10346  pending && !transactions[i].executed */\n      dup1\n      iszero\n      tag_285\n      jumpi\n      pop\n        /* \"contracts/MultiSignatureWallet.sol\":10322:10334  transactions */\n      0x01\n        /* \"contracts/MultiSignatureWallet.sol\":10322:10337  transactions[i] */\n      0x00\n        /* \"contracts/MultiSignatureWallet.sol\":10335:10336  i */\n      dup3\n        /* \"contracts/MultiSignatureWallet.sol\":10322:10337  transactions[i] */\n      dup2\n      mstore\n      0x20\n      add\n      swap1\n      dup2\n      mstore\n      0x20\n      add\n      0x00\n      keccak256\n        /* \"contracts/MultiSignatureWallet.sol\":10322:10346  transactions[i].executed */\n      0x03\n      add\n      0x00\n      swap1\n      sload\n      swap1\n      0x0100\n      exp\n      swap1\n      div\n      0xff\n      and\n        /* \"contracts/MultiSignatureWallet.sol\":10321:10346  !transactions[i].executed */\n      iszero\n        /* \"contracts/MultiSignatureWallet.sol\":10310:10346  pending && !transactions[i].executed */\n    tag_285:\n        /* \"contracts/MultiSignatureWallet.sol\":10309:10406  (pending && !transactions[i].executed) ||... */\n      dup1\n      tag_286\n      jumpi\n      pop\n        /* \"contracts/MultiSignatureWallet.sol\":10369:10377  executed */\n      dup5\n        /* \"contracts/MultiSignatureWallet.sol\":10369:10405  executed && transactions[i].executed */\n      dup1\n      iszero\n      tag_287\n      jumpi\n      pop\n        /* \"contracts/MultiSignatureWallet.sol\":10381:10393  transactions */\n      0x01\n        /* \"contracts/MultiSignatureWallet.sol\":10381:10396  transactions[i] */\n      0x00\n        /* \"contracts/MultiSignatureWallet.sol\":10394:10395  i */\n      dup3\n        /* \"contracts/MultiSignatureWallet.sol\":10381:10396  transactions[i] */\n      dup2\n      mstore\n      0x20\n      add\n      swap1\n      dup2\n      mstore\n      0x20\n      add\n      0x00\n      keccak256\n        /* \"contracts/MultiSignatureWallet.sol\":10381:10405  transactions[i].executed */\n      0x03\n      add\n      0x00\n      swap1\n      sload\n      swap1\n      0x0100\n      exp\n      swap1\n      div\n      0xff\n      and\n        /* \"contracts/MultiSignatureWallet.sol\":10369:10405  executed && transactions[i].executed */\n    tag_287:\n        /* \"contracts/MultiSignatureWallet.sol\":10309:10406  (pending && !transactions[i].executed) ||... */\n    tag_286:\n        /* \"contracts/MultiSignatureWallet.sol\":10287:10512  if (... */\n      iszero\n      tag_288\n      jumpi\n        /* \"contracts/MultiSignatureWallet.sol\":10469:10470  i */\n      dup1\n        /* \"contracts/MultiSignatureWallet.sol\":10441:10459  transactionIdsTemp */\n      dup4\n        /* \"contracts/MultiSignatureWallet.sol\":10460:10465  count */\n      dup4\n        /* \"contracts/MultiSignatureWallet.sol\":10441:10466  transactionIdsTemp[count] */\n      dup2\n      mload\n      dup2\n      lt\n      tag_289\n      jumpi\n      tag_290\n      tag_170\n      jump\t// in\n    tag_290:\n    tag_289:\n      0x20\n      mul\n      0x20\n      add\n      add\n        /* \"contracts/MultiSignatureWallet.sol\":10441:10470  transactionIdsTemp[count] = i */\n      dup2\n      dup2\n      mstore\n      pop\n      pop\n        /* \"contracts/MultiSignatureWallet.sol\":10489:10496  count++ */\n      dup2\n      dup1\n      tag_291\n      swap1\n      tag_235\n      jump\t// in\n    tag_291:\n      swap3\n      pop\n      pop\n        /* \"contracts/MultiSignatureWallet.sol\":10287:10512  if (... */\n    tag_288:\n        /* \"contracts/MultiSignatureWallet.sol\":10267:10270  i++ */\n      dup1\n      dup1\n      0x01\n      add\n      swap2\n      pop\n      pop\n        /* \"contracts/MultiSignatureWallet.sol\":10225:10523  for (uint256 i = 0; i < transactionCount; i++) {... */\n      jump(tag_282)\n    tag_283:\n      pop\n        /* \"contracts/MultiSignatureWallet.sol\":10580:10584  from */\n      dup7\n        /* \"contracts/MultiSignatureWallet.sol\":10575:10577  to */\n      dup7\n        /* \"contracts/MultiSignatureWallet.sol\":10575:10584  to - from */\n      tag_292\n      swap2\n      swap1\n      tag_167\n      jump\t// in\n    tag_292:\n        /* \"contracts/MultiSignatureWallet.sol\":10561:10585  new uint256[](to - from) */\n      0xffffffffffffffff\n      dup2\n      gt\n      iszero\n      tag_293\n      jumpi\n      tag_294\n      tag_280\n      jump\t// in\n    tag_294:\n    tag_293:\n      mload(0x40)\n      swap1\n      dup1\n      dup3\n      mstore\n      dup1\n      0x20\n      mul\n      0x20\n      add\n      dup3\n      add\n      0x40\n      mstore\n      dup1\n      iszero\n      tag_295\n      jumpi\n      dup2\n      0x20\n      add\n      0x20\n      dup3\n      mul\n      dup1\n      calldatasize\n      dup4\n      calldatacopy\n      dup1\n      dup3\n      add\n      swap2\n      pop\n      pop\n      swap1\n      pop\n    tag_295:\n      pop\n        /* \"contracts/MultiSignatureWallet.sol\":10543:10585  _transactionIds = new uint256[](to - from) */\n      swap3\n      pop\n        /* \"contracts/MultiSignatureWallet.sol\":10601:10610  uint256 i */\n      0x00\n        /* \"contracts/MultiSignatureWallet.sol\":10613:10617  from */\n      dup8\n        /* \"contracts/MultiSignatureWallet.sol\":10601:10617  uint256 i = from */\n      swap1\n      pop\n        /* \"contracts/MultiSignatureWallet.sol\":10596:10708  for (uint256 i = from; i < to; i++) {... */\n    tag_296:\n        /* \"contracts/MultiSignatureWallet.sol\":10623:10625  to */\n      dup7\n        /* \"contracts/MultiSignatureWallet.sol\":10619:10620  i */\n      dup2\n        /* \"contracts/MultiSignatureWallet.sol\":10619:10625  i < to */\n      lt\n        /* \"contracts/MultiSignatureWallet.sol\":10596:10708  for (uint256 i = from; i < to; i++) {... */\n      iszero\n      tag_297\n      jumpi\n        /* \"contracts/MultiSignatureWallet.sol\":10675:10693  transactionIdsTemp */\n      dup3\n        /* \"contracts/MultiSignatureWallet.sol\":10694:10695  i */\n      dup2\n        /* \"contracts/MultiSignatureWallet.sol\":10675:10696  transactionIdsTemp[i] */\n      dup2\n      mload\n      dup2\n      lt\n      tag_299\n      jumpi\n      tag_300\n      tag_170\n      jump\t// in\n    tag_300:\n    tag_299:\n      0x20\n      mul\n      0x20\n      add\n      add\n      mload\n        /* \"contracts/MultiSignatureWallet.sol\":10647:10662  _transactionIds */\n      dup5\n        /* \"contracts/MultiSignatureWallet.sol\":10667:10671  from */\n      dup10\n        /* \"contracts/MultiSignatureWallet.sol\":10663:10664  i */\n      dup4\n        /* \"contracts/MultiSignatureWallet.sol\":10663:10671  i - from */\n      tag_301\n      swap2\n      swap1\n      tag_167\n      jump\t// in\n    tag_301:\n        /* \"contracts/MultiSignatureWallet.sol\":10647:10672  _transactionIds[i - from] */\n      dup2\n      mload\n      dup2\n      lt\n      tag_302\n      jumpi\n      tag_303\n      tag_170\n      jump\t// in\n    tag_303:\n    tag_302:\n      0x20\n      mul\n      0x20\n      add\n      add\n        /* \"contracts/MultiSignatureWallet.sol\":10647:10696  _transactionIds[i - from] = transactionIdsTemp[i] */\n      dup2\n      dup2\n      mstore\n      pop\n      pop\n        /* \"contracts/MultiSignatureWallet.sol\":10627:10630  i++ */\n      dup1\n      dup1\n      0x01\n      add\n      swap2\n      pop\n      pop\n        /* \"contracts/MultiSignatureWallet.sol\":10596:10708  for (uint256 i = from; i < to; i++) {... */\n      jump(tag_296)\n    tag_297:\n      pop\n        /* \"contracts/MultiSignatureWallet.sol\":10096:10715  {... */\n      pop\n      pop\n        /* \"contracts/MultiSignatureWallet.sol\":9916:10715  function getTransactionIds(... */\n      swap5\n      swap4\n      pop\n      pop\n      pop\n      pop\n      jump\t// out\n        /* \"contracts/MultiSignatureWallet.sol\":9268:9904  function getConfirmations(uint256 txIndex)... */\n    tag_124:\n        /* \"contracts/MultiSignatureWallet.sol\":9359:9390  address[] memory _confirmations */\n      0x60\n        /* \"contracts/MultiSignatureWallet.sol\":9408:9442  address[] memory confirmationsTemp */\n      0x00\n        /* \"contracts/MultiSignatureWallet.sol\":9459:9465  owners */\n      0x04\n        /* \"contracts/MultiSignatureWallet.sol\":9459:9472  owners.length */\n      dup1\n      sload\n      swap1\n      pop\n        /* \"contracts/MultiSignatureWallet.sol\":9445:9473  new address[](owners.length) */\n      0xffffffffffffffff\n      dup2\n      gt\n      iszero\n      tag_305\n      jumpi\n      tag_306\n      tag_280\n      jump\t// in\n    tag_306:\n    tag_305:\n      mload(0x40)\n      swap1\n      dup1\n      dup3\n      mstore\n      dup1\n      0x20\n      mul\n      0x20\n      add\n      dup3\n      add\n      0x40\n      mstore\n      dup1\n      iszero\n      tag_307\n      jumpi\n      dup2\n      0x20\n      add\n      0x20\n      dup3\n      mul\n      dup1\n      calldatasize\n      dup4\n      calldatacopy\n      dup1\n      dup3\n      add\n      swap2\n      pop\n      pop\n      swap1\n      pop\n    tag_307:\n      pop\n        /* \"contracts/MultiSignatureWallet.sol\":9408:9473  address[] memory confirmationsTemp = new address[](owners.length) */\n      swap1\n      pop\n        /* \"contracts/MultiSignatureWallet.sol\":9484:9497  uint256 count */\n      0x00\n        /* \"contracts/MultiSignatureWallet.sol\":9500:9501  0 */\n      0x00\n        /* \"contracts/MultiSignatureWallet.sol\":9484:9501  uint256 count = 0 */\n      swap1\n      pop\n        /* \"contracts/MultiSignatureWallet.sol\":9527:9536  uint256 i */\n      0x00\n        /* \"contracts/MultiSignatureWallet.sol\":9539:9540  0 */\n      0x00\n        /* \"contracts/MultiSignatureWallet.sol\":9527:9540  uint256 i = 0 */\n      swap1\n      pop\n        /* \"contracts/MultiSignatureWallet.sol\":9522:9726  for (uint256 i = 0; i < owners.length; i++) {... */\n    tag_308:\n        /* \"contracts/MultiSignatureWallet.sol\":9546:9552  owners */\n      0x04\n        /* \"contracts/MultiSignatureWallet.sol\":9546:9559  owners.length */\n      dup1\n      sload\n      swap1\n      pop\n        /* \"contracts/MultiSignatureWallet.sol\":9542:9543  i */\n      dup2\n        /* \"contracts/MultiSignatureWallet.sol\":9542:9559  i < owners.length */\n      lt\n        /* \"contracts/MultiSignatureWallet.sol\":9522:9726  for (uint256 i = 0; i < owners.length; i++) {... */\n      iszero\n      tag_309\n      jumpi\n        /* \"contracts/MultiSignatureWallet.sol\":9585:9596  isConfirmed */\n      0x02\n        /* \"contracts/MultiSignatureWallet.sol\":9585:9605  isConfirmed[txIndex] */\n      0x00\n        /* \"contracts/MultiSignatureWallet.sol\":9597:9604  txIndex */\n      dup7\n        /* \"contracts/MultiSignatureWallet.sol\":9585:9605  isConfirmed[txIndex] */\n      dup2\n      mstore\n      0x20\n      add\n      swap1\n      dup2\n      mstore\n      0x20\n      add\n      0x00\n      keccak256\n        /* \"contracts/MultiSignatureWallet.sol\":9585:9616  isConfirmed[txIndex][owners[i]] */\n      0x00\n        /* \"contracts/MultiSignatureWallet.sol\":9606:9612  owners */\n      0x04\n        /* \"contracts/MultiSignatureWallet.sol\":9613:9614  i */\n      dup4\n        /* \"contracts/MultiSignatureWallet.sol\":9606:9615  owners[i] */\n      dup2\n      sload\n      dup2\n      lt\n      tag_311\n      jumpi\n      tag_312\n      tag_170\n      jump\t// in\n    tag_312:\n    tag_311:\n      swap1\n      0x00\n      mstore\n      keccak256(0x00, 0x20)\n      add\n      0x00\n      swap1\n      sload\n      swap1\n      0x0100\n      exp\n      swap1\n      div\n      0xffffffffffffffffffffffffffffffffffffffff\n      and\n        /* \"contracts/MultiSignatureWallet.sol\":9585:9616  isConfirmed[txIndex][owners[i]] */\n      0xffffffffffffffffffffffffffffffffffffffff\n      and\n      0xffffffffffffffffffffffffffffffffffffffff\n      and\n      dup2\n      mstore\n      0x20\n      add\n      swap1\n      dup2\n      mstore\n      0x20\n      add\n      0x00\n      keccak256\n      0x00\n      swap1\n      sload\n      swap1\n      0x0100\n      exp\n      swap1\n      div\n      0xff\n      and\n        /* \"contracts/MultiSignatureWallet.sol\":9581:9715  if (isConfirmed[txIndex][owners[i]]) {... */\n      iszero\n      tag_314\n      jumpi\n        /* \"contracts/MultiSignatureWallet.sol\":9664:9670  owners */\n      0x04\n        /* \"contracts/MultiSignatureWallet.sol\":9671:9672  i */\n      dup2\n        /* \"contracts/MultiSignatureWallet.sol\":9664:9673  owners[i] */\n      dup2\n      sload\n      dup2\n      lt\n      tag_315\n      jumpi\n      tag_316\n      tag_170\n      jump\t// in\n    tag_316:\n    tag_315:\n      swap1\n      0x00\n      mstore\n      keccak256(0x00, 0x20)\n      add\n      0x00\n      swap1\n      sload\n      swap1\n      0x0100\n      exp\n      swap1\n      div\n      0xffffffffffffffffffffffffffffffffffffffff\n      and\n        /* \"contracts/MultiSignatureWallet.sol\":9637:9654  confirmationsTemp */\n      dup4\n        /* \"contracts/MultiSignatureWallet.sol\":9655:9660  count */\n      dup4\n        /* \"contracts/MultiSignatureWallet.sol\":9637:9661  confirmationsTemp[count] */\n      dup2\n      mload\n      dup2\n      lt\n      tag_318\n      jumpi\n      tag_319\n      tag_170\n      jump\t// in\n    tag_319:\n    tag_318:\n      0x20\n      mul\n      0x20\n      add\n      add\n        /* \"contracts/MultiSignatureWallet.sol\":9637:9673  confirmationsTemp[count] = owners[i] */\n      swap1\n      0xffffffffffffffffffffffffffffffffffffffff\n      and\n      swap1\n      dup2\n      0xffffffffffffffffffffffffffffffffffffffff\n      and\n      dup2\n      mstore\n      pop\n      pop\n        /* \"contracts/MultiSignatureWallet.sol\":9692:9699  count++ */\n      dup2\n      dup1\n      tag_320\n      swap1\n      tag_235\n      jump\t// in\n    tag_320:\n      swap3\n      pop\n      pop\n        /* \"contracts/MultiSignatureWallet.sol\":9581:9715  if (isConfirmed[txIndex][owners[i]]) {... */\n    tag_314:\n        /* \"contracts/MultiSignatureWallet.sol\":9561:9564  i++ */\n      dup1\n      dup1\n      0x01\n      add\n      swap2\n      pop\n      pop\n        /* \"contracts/MultiSignatureWallet.sol\":9522:9726  for (uint256 i = 0; i < owners.length; i++) {... */\n      jump(tag_308)\n    tag_309:\n      pop\n        /* \"contracts/MultiSignatureWallet.sol\":9777:9782  count */\n      dup1\n        /* \"contracts/MultiSignatureWallet.sol\":9763:9783  new address[](count) */\n      0xffffffffffffffff\n      dup2\n      gt\n      iszero\n      tag_321\n      jumpi\n      tag_322\n      tag_280\n      jump\t// in\n    tag_322:\n    tag_321:\n      mload(0x40)\n      swap1\n      dup1\n      dup3\n      mstore\n      dup1\n      0x20\n      mul\n      0x20\n      add\n      dup3\n      add\n      0x40\n      mstore\n      dup1\n      iszero\n      tag_323\n      jumpi\n      dup2\n      0x20\n      add\n      0x20\n      dup3\n      mul\n      dup1\n      calldatasize\n      dup4\n      calldatacopy\n      dup1\n      dup3\n      add\n      swap2\n      pop\n      pop\n      swap1\n      pop\n    tag_323:\n      pop\n        /* \"contracts/MultiSignatureWallet.sol\":9746:9783  _confirmations = new address[](count) */\n      swap3\n      pop\n        /* \"contracts/MultiSignatureWallet.sol\":9799:9808  uint256 i */\n      0x00\n        /* \"contracts/MultiSignatureWallet.sol\":9811:9812  0 */\n      0x00\n        /* \"contracts/MultiSignatureWallet.sol\":9799:9812  uint256 i = 0 */\n      swap1\n      pop\n        /* \"contracts/MultiSignatureWallet.sol\":9794:9897  for (uint256 i = 0; i < count; i++) {... */\n    tag_324:\n        /* \"contracts/MultiSignatureWallet.sol\":9818:9823  count */\n      dup2\n        /* \"contracts/MultiSignatureWallet.sol\":9814:9815  i */\n      dup2\n        /* \"contracts/MultiSignatureWallet.sol\":9814:9823  i < count */\n      lt\n        /* \"contracts/MultiSignatureWallet.sol\":9794:9897  for (uint256 i = 0; i < count; i++) {... */\n      iszero\n      tag_325\n      jumpi\n        /* \"contracts/MultiSignatureWallet.sol\":9865:9882  confirmationsTemp */\n      dup3\n        /* \"contracts/MultiSignatureWallet.sol\":9883:9884  i */\n      dup2\n        /* \"contracts/MultiSignatureWallet.sol\":9865:9885  confirmationsTemp[i] */\n      dup2\n      mload\n      dup2\n      lt\n      tag_327\n      jumpi\n      tag_328\n      tag_170\n      jump\t// in\n    tag_328:\n    tag_327:\n      0x20\n      mul\n      0x20\n      add\n      add\n      mload\n        /* \"contracts/MultiSignatureWallet.sol\":9845:9859  _confirmations */\n      dup5\n        /* \"contracts/MultiSignatureWallet.sol\":9860:9861  i */\n      dup3\n        /* \"contracts/MultiSignatureWallet.sol\":9845:9862  _confirmations[i] */\n      dup2\n      mload\n      dup2\n      lt\n      tag_329\n      jumpi\n      tag_330\n      tag_170\n      jump\t// in\n    tag_330:\n    tag_329:\n      0x20\n      mul\n      0x20\n      add\n      add\n        /* \"contracts/MultiSignatureWallet.sol\":9845:9885  _confirmations[i] = confirmationsTemp[i] */\n      swap1\n      0xffffffffffffffffffffffffffffffffffffffff\n      and\n      swap1\n      dup2\n      0xffffffffffffffffffffffffffffffffffffffff\n      and\n      dup2\n      mstore\n      pop\n      pop\n        /* \"contracts/MultiSignatureWallet.sol\":9825:9828  i++ */\n      dup1\n      dup1\n      0x01\n      add\n      swap2\n      pop\n      pop\n        /* \"contracts/MultiSignatureWallet.sol\":9794:9897  for (uint256 i = 0; i < count; i++) {... */\n      jump(tag_324)\n    tag_325:\n      pop\n        /* \"contracts/MultiSignatureWallet.sol\":9397:9904  {... */\n      pop\n      pop\n        /* \"contracts/MultiSignatureWallet.sol\":9268:9904  function getConfirmations(uint256 txIndex)... */\n      swap2\n      swap1\n      pop\n      jump\t// out\n        /* \"contracts/MultiSignatureWallet.sol\":841:872  uint256 public transactionCount */\n    tag_128:\n      sload(0x06)\n      dup2\n      jump\t// out\n        /* \"contracts/MultiSignatureWallet.sol\":7860:8082  function changeRequirement(uint256 _required)... */\n    tag_133:\n        /* \"contracts/MultiSignatureWallet.sol\":1702:1706  this */\n      address\n        /* \"contracts/MultiSignatureWallet.sol\":1680:1707  msg.sender == address(this) */\n      0xffffffffffffffffffffffffffffffffffffffff\n      and\n        /* \"contracts/MultiSignatureWallet.sol\":1680:1690  msg.sender */\n      caller\n        /* \"contracts/MultiSignatureWallet.sol\":1680:1707  msg.sender == address(this) */\n      0xffffffffffffffffffffffffffffffffffffffff\n      and\n      eq\n        /* \"contracts/MultiSignatureWallet.sol\":1672:1746  require(msg.sender == address(this), \"Only wallet can call this function\") */\n      tag_332\n      jumpi\n      mload(0x40)\n      0x08c379a000000000000000000000000000000000000000000000000000000000\n      dup2\n      mstore\n      0x04\n      add\n      tag_333\n      swap1\n      tag_157\n      jump\t// in\n    tag_333:\n      mload(0x40)\n      dup1\n      swap2\n      sub\n      swap1\n      revert\n    tag_332:\n        /* \"contracts/MultiSignatureWallet.sol\":7968:7974  owners */\n      0x04\n        /* \"contracts/MultiSignatureWallet.sol\":7968:7981  owners.length */\n      dup1\n      sload\n      swap1\n      pop\n        /* \"contracts/MultiSignatureWallet.sol\":7983:7992  _required */\n      dup2\n        /* \"contracts/MultiSignatureWallet.sol\":2756:2758  20 */\n      0x14\n        /* \"contracts/MultiSignatureWallet.sol\":2742:2752  ownerCount */\n      dup3\n        /* \"contracts/MultiSignatureWallet.sol\":2742:2758  ownerCount <= 20 */\n      gt\n      iszero\n        /* \"contracts/MultiSignatureWallet.sol\":2742:2785  ownerCount <= 20 && _required <= ownerCount */\n      dup1\n      iszero\n      tag_335\n      jumpi\n      pop\n        /* \"contracts/MultiSignatureWallet.sol\":2775:2785  ownerCount */\n      dup2\n        /* \"contracts/MultiSignatureWallet.sol\":2762:2771  _required */\n      dup2\n        /* \"contracts/MultiSignatureWallet.sol\":2762:2785  _required <= ownerCount */\n      gt\n      iszero\n        /* \"contracts/MultiSignatureWallet.sol\":2742:2785  ownerCount <= 20 && _required <= ownerCount */\n    tag_335:\n        /* \"contracts/MultiSignatureWallet.sol\":2742:2803  ownerCount <= 20 && _required <= ownerCount && _required != 0 */\n      dup1\n      iszero\n      tag_336\n      jumpi\n      pop\n        /* \"contracts/MultiSignatureWallet.sol\":2802:2803  0 */\n      0x00\n        /* \"contracts/MultiSignatureWallet.sol\":2789:2798  _required */\n      dup2\n        /* \"contracts/MultiSignatureWallet.sol\":2789:2803  _required != 0 */\n      eq\n      iszero\n        /* \"contracts/MultiSignatureWallet.sol\":2742:2803  ownerCount <= 20 && _required <= ownerCount && _required != 0 */\n    tag_336:\n        /* \"contracts/MultiSignatureWallet.sol\":2742:2822  ownerCount <= 20 && _required <= ownerCount && _required != 0 && ownerCount != 0 */\n      dup1\n      iszero\n      tag_337\n      jumpi\n      pop\n        /* \"contracts/MultiSignatureWallet.sol\":2821:2822  0 */\n      0x00\n        /* \"contracts/MultiSignatureWallet.sol\":2807:2817  ownerCount */\n      dup3\n        /* \"contracts/MultiSignatureWallet.sol\":2807:2822  ownerCount != 0 */\n      eq\n      iszero\n        /* \"contracts/MultiSignatureWallet.sol\":2742:2822  ownerCount <= 20 && _required <= ownerCount && _required != 0 && ownerCount != 0 */\n    tag_337:\n        /* \"contracts/MultiSignatureWallet.sol\":2720:2869  require(... */\n      tag_338\n      jumpi\n      mload(0x40)\n      0x08c379a000000000000000000000000000000000000000000000000000000000\n      dup2\n      mstore\n      0x04\n      add\n      tag_339\n      swap1\n      tag_265\n      jump\t// in\n    tag_339:\n      mload(0x40)\n      dup1\n      swap2\n      sub\n      swap1\n      revert\n    tag_338:\n        /* \"contracts/MultiSignatureWallet.sol\":8021:8030  _required */\n      dup3\n        /* \"contracts/MultiSignatureWallet.sol\":8010:8018  required */\n      0x05\n        /* \"contracts/MultiSignatureWallet.sol\":8010:8030  required = _required */\n      dup2\n      swap1\n      sstore\n      pop\n        /* \"contracts/MultiSignatureWallet.sol\":8046:8074  RequirementChange(_required) */\n      0xa3f1ee9126a074d9326c682f561767f710e927faa811f7a99829d49dc421797a\n        /* \"contracts/MultiSignatureWallet.sol\":8064:8073  _required */\n      dup4\n        /* \"contracts/MultiSignatureWallet.sol\":8046:8074  RequirementChange(_required) */\n      mload(0x40)\n      tag_341\n      swap2\n      swap1\n      tag_45\n      jump\t// in\n    tag_341:\n      mload(0x40)\n      dup1\n      swap2\n      sub\n      swap1\n      log1\n        /* \"contracts/MultiSignatureWallet.sol\":1757:1758  _ */\n      pop\n      pop\n        /* \"contracts/MultiSignatureWallet.sol\":7860:8082  function changeRequirement(uint256 _required)... */\n      pop\n      jump\t// out\n        /* \"contracts/MultiSignatureWallet.sol\":4503:5025  function confirmTransaction(uint256 txIndex)... */\n    tag_137:\n        /* \"contracts/MultiSignatureWallet.sol\":4585:4595  msg.sender */\n      caller\n        /* \"contracts/MultiSignatureWallet.sol\":1966:1973  isOwner */\n      0x03\n        /* \"contracts/MultiSignatureWallet.sol\":1966:1980  isOwner[owner] */\n      0x00\n        /* \"contracts/MultiSignatureWallet.sol\":1974:1979  owner */\n      dup3\n        /* \"contracts/MultiSignatureWallet.sol\":1966:1980  isOwner[owner] */\n      0xffffffffffffffffffffffffffffffffffffffff\n      and\n      0xffffffffffffffffffffffffffffffffffffffff\n      and\n      dup2\n      mstore\n      0x20\n      add\n      swap1\n      dup2\n      mstore\n      0x20\n      add\n      0x00\n      keccak256\n      0x00\n      swap1\n      sload\n      swap1\n      0x0100\n      exp\n      swap1\n      div\n      0xff\n      and\n        /* \"contracts/MultiSignatureWallet.sol\":1958:2005  require(isOwner[owner], \"Owner does not exist\") */\n      tag_343\n      jumpi\n      mload(0x40)\n      0x08c379a000000000000000000000000000000000000000000000000000000000\n      dup2\n      mstore\n      0x04\n      add\n      tag_344\n      swap1\n      tag_161\n      jump\t// in\n    tag_344:\n      mload(0x40)\n      dup1\n      swap2\n      sub\n      swap1\n      revert\n    tag_343:\n        /* \"contracts/MultiSignatureWallet.sol\":4624:4631  txIndex */\n      dup2\n        /* \"contracts/MultiSignatureWallet.sol\":2110:2126  transactionCount */\n      sload(0x06)\n        /* \"contracts/MultiSignatureWallet.sol\":2100:2107  txIndex */\n      dup2\n        /* \"contracts/MultiSignatureWallet.sol\":2100:2126  txIndex < transactionCount */\n      lt\n        /* \"contracts/MultiSignatureWallet.sol\":2092:2157  require(txIndex < transactionCount, \"Transaction does not exist\") */\n      tag_346\n      jumpi\n      mload(0x40)\n      0x08c379a000000000000000000000000000000000000000000000000000000000\n      dup2\n      mstore\n      0x04\n      add\n      tag_347\n      swap1\n      tag_192\n      jump\t// in\n    tag_347:\n      mload(0x40)\n      dup1\n      swap2\n      sub\n      swap1\n      revert\n    tag_346:\n        /* \"contracts/MultiSignatureWallet.sol\":4655:4662  txIndex */\n      dup3\n        /* \"contracts/MultiSignatureWallet.sol\":4664:4674  msg.sender */\n      caller\n        /* \"contracts/MultiSignatureWallet.sol\":2263:2274  isConfirmed */\n      0x02\n        /* \"contracts/MultiSignatureWallet.sol\":2263:2283  isConfirmed[txIndex] */\n      0x00\n        /* \"contracts/MultiSignatureWallet.sol\":2275:2282  txIndex */\n      dup4\n        /* \"contracts/MultiSignatureWallet.sol\":2263:2283  isConfirmed[txIndex] */\n      dup2\n      mstore\n      0x20\n      add\n      swap1\n      dup2\n      mstore\n      0x20\n      add\n      0x00\n      keccak256\n        /* \"contracts/MultiSignatureWallet.sol\":2263:2290  isConfirmed[txIndex][owner] */\n      0x00\n        /* \"contracts/MultiSignatureWallet.sol\":2284:2289  owner */\n      dup3\n        /* \"contracts/MultiSignatureWallet.sol\":2263:2290  isConfirmed[txIndex][owner] */\n      0xffffffffffffffffffffffffffffffffffffffff\n      and\n      0xffffffffffffffffffffffffffffffffffffffff\n      and\n      dup2\n      mstore\n      0x20\n      add\n      swap1\n      dup2\n      mstore\n      0x20\n      add\n      0x00\n      keccak256\n      0x00\n      swap1\n      sload\n      swap1\n      0x0100\n      exp\n      swap1\n      div\n      0xff\n      and\n        /* \"contracts/MultiSignatureWallet.sol\":2262:2290  !isConfirmed[txIndex][owner] */\n      iszero\n        /* \"contracts/MultiSignatureWallet.sol\":2254:2324  require(!isConfirmed[txIndex][owner], \"Transaction already confirmed\") */\n      tag_349\n      jumpi\n      mload(0x40)\n      0x08c379a000000000000000000000000000000000000000000000000000000000\n      dup2\n      mstore\n      0x04\n      add\n      tag_350\n      swap1\n      tag_351\n      jump\t// in\n    tag_350:\n      mload(0x40)\n      dup1\n      swap2\n      sub\n      swap1\n      revert\n    tag_349:\n        /* \"contracts/MultiSignatureWallet.sol\":4692:4723  Transaction storage transaction */\n      0x00\n        /* \"contracts/MultiSignatureWallet.sol\":4726:4738  transactions */\n      0x01\n        /* \"contracts/MultiSignatureWallet.sol\":4726:4747  transactions[txIndex] */\n      0x00\n        /* \"contracts/MultiSignatureWallet.sol\":4739:4746  txIndex */\n      dup8\n        /* \"contracts/MultiSignatureWallet.sol\":4726:4747  transactions[txIndex] */\n      dup2\n      mstore\n      0x20\n      add\n      swap1\n      dup2\n      mstore\n      0x20\n      add\n      0x00\n      keccak256\n        /* \"contracts/MultiSignatureWallet.sol\":4692:4747  Transaction storage transaction = transactions[txIndex] */\n      swap1\n      pop\n        /* \"contracts/MultiSignatureWallet.sol\":4758:4769  transaction */\n      dup1\n        /* \"contracts/MultiSignatureWallet.sol\":4758:4783  transaction.confirmations */\n      0x04\n      add\n      0x00\n        /* \"contracts/MultiSignatureWallet.sol\":4758:4785  transaction.confirmations++ */\n      dup2\n      sload\n      dup1\n      swap3\n      swap2\n      swap1\n      tag_353\n      swap1\n      tag_235\n      jump\t// in\n    tag_353:\n      swap2\n      swap1\n      pop\n      sstore\n      pop\n        /* \"contracts/MultiSignatureWallet.sol\":4831:4835  true */\n      0x01\n        /* \"contracts/MultiSignatureWallet.sol\":4796:4807  isConfirmed */\n      0x02\n        /* \"contracts/MultiSignatureWallet.sol\":4796:4816  isConfirmed[txIndex] */\n      0x00\n        /* \"contracts/MultiSignatureWallet.sol\":4808:4815  txIndex */\n      dup9\n        /* \"contracts/MultiSignatureWallet.sol\":4796:4816  isConfirmed[txIndex] */\n      dup2\n      mstore\n      0x20\n      add\n      swap1\n      dup2\n      mstore\n      0x20\n      add\n      0x00\n      keccak256\n        /* \"contracts/MultiSignatureWallet.sol\":4796:4828  isConfirmed[txIndex][msg.sender] */\n      0x00\n        /* \"contracts/MultiSignatureWallet.sol\":4817:4827  msg.sender */\n      caller\n        /* \"contracts/MultiSignatureWallet.sol\":4796:4828  isConfirmed[txIndex][msg.sender] */\n      0xffffffffffffffffffffffffffffffffffffffff\n      and\n      0xffffffffffffffffffffffffffffffffffffffff\n      and\n      dup2\n      mstore\n      0x20\n      add\n      swap1\n      dup2\n      mstore\n      0x20\n      add\n      0x00\n      keccak256\n      0x00\n        /* \"contracts/MultiSignatureWallet.sol\":4796:4835  isConfirmed[txIndex][msg.sender] = true */\n      0x0100\n      exp\n      dup2\n      sload\n      dup2\n      0xff\n      mul\n      not\n      and\n      swap1\n      dup4\n      iszero\n      iszero\n      mul\n      or\n      swap1\n      sstore\n      pop\n        /* \"contracts/MultiSignatureWallet.sol\":4892:4899  txIndex */\n      dup6\n        /* \"contracts/MultiSignatureWallet.sol\":4880:4890  msg.sender */\n      caller\n        /* \"contracts/MultiSignatureWallet.sol\":4861:4900  ConfirmTransaction(msg.sender, txIndex) */\n      0xffffffffffffffffffffffffffffffffffffffff\n      and\n      0x5cbe105e36805f7820e291f799d5794ff948af2a5f664e580382defb63390041\n      mload(0x40)\n      mload(0x40)\n      dup1\n      swap2\n      sub\n      swap1\n      log3\n        /* \"contracts/MultiSignatureWallet.sol\":4954:4962  required */\n      sload(0x05)\n        /* \"contracts/MultiSignatureWallet.sol\":4925:4936  transaction */\n      dup2\n        /* \"contracts/MultiSignatureWallet.sol\":4925:4950  transaction.confirmations */\n      0x04\n      add\n      sload\n        /* \"contracts/MultiSignatureWallet.sol\":4925:4962  transaction.confirmations >= required */\n      lt\n        /* \"contracts/MultiSignatureWallet.sol\":4921:5018  if (transaction.confirmations >= required) {... */\n      tag_354\n      jumpi\n        /* \"contracts/MultiSignatureWallet.sol\":4979:5006  executeTransaction(txIndex) */\n      tag_355\n        /* \"contracts/MultiSignatureWallet.sol\":4998:5005  txIndex */\n      dup7\n        /* \"contracts/MultiSignatureWallet.sol\":4979:4997  executeTransaction */\n      tag_150\n        /* \"contracts/MultiSignatureWallet.sol\":4979:5006  executeTransaction(txIndex) */\n      jump\t// in\n    tag_355:\n        /* \"contracts/MultiSignatureWallet.sol\":4921:5018  if (transaction.confirmations >= required) {... */\n    tag_354:\n        /* \"contracts/MultiSignatureWallet.sol\":4681:5025  {... */\n      pop\n        /* \"contracts/MultiSignatureWallet.sol\":2168:2169  _ */\n      pop\n      pop\n        /* \"contracts/MultiSignatureWallet.sol\":2016:2017  _ */\n      pop\n        /* \"contracts/MultiSignatureWallet.sol\":4503:5025  function confirmTransaction(uint256 txIndex)... */\n      pop\n      pop\n      jump\t// out\n        /* \"contracts/MultiSignatureWallet.sol\":811:834  uint256 public required */\n    tag_140:\n      sload(0x05)\n      dup2\n      jump\t// out\n        /* \"contracts/MultiSignatureWallet.sol\":7334:7848  function replaceOwner(address owner, address newOwner)... */\n    tag_146:\n        /* \"contracts/MultiSignatureWallet.sol\":1702:1706  this */\n      address\n        /* \"contracts/MultiSignatureWallet.sol\":1680:1707  msg.sender == address(this) */\n      0xffffffffffffffffffffffffffffffffffffffff\n      and\n        /* \"contracts/MultiSignatureWallet.sol\":1680:1690  msg.sender */\n      caller\n        /* \"contracts/MultiSignatureWallet.sol\":1680:1707  msg.sender == address(this) */\n      0xffffffffffffffffffffffffffffffffffffffff\n      and\n      eq\n        /* \"contracts/MultiSignatureWallet.sol\":1672:1746  require(msg.sender == address(this), \"Only wallet can call this function\") */\n      tag_357\n      jumpi\n      mload(0x40)\n      0x08c379a000000000000000000000000000000000000000000000000000000000\n      dup2\n      mstore\n      0x04\n      add\n      tag_358\n      swap1\n      tag_157\n      jump\t// in\n    tag_358:\n      mload(0x40)\n      dup1\n      swap2\n      sub\n      swap1\n      revert\n    tag_357:\n        /* \"contracts/MultiSignatureWallet.sol\":7446:7451  owner */\n      dup2\n        /* \"contracts/MultiSignatureWallet.sol\":1966:1973  isOwner */\n      0x03\n        /* \"contracts/MultiSignatureWallet.sol\":1966:1980  isOwner[owner] */\n      0x00\n        /* \"contracts/MultiSignatureWallet.sol\":1974:1979  owner */\n      dup3\n        /* \"contracts/MultiSignatureWallet.sol\":1966:1980  isOwner[owner] */\n      0xffffffffffffffffffffffffffffffffffffffff\n      and\n      0xffffffffffffffffffffffffffffffffffffffff\n      and\n      dup2\n      mstore\n      0x20\n      add\n      swap1\n      dup2\n      mstore\n      0x20\n      add\n      0x00\n      keccak256\n      0x00\n      swap1\n      sload\n      swap1\n      0x0100\n      exp\n      swap1\n      div\n      0xff\n      and\n        /* \"contracts/MultiSignatureWallet.sol\":1958:2005  require(isOwner[owner], \"Owner does not exist\") */\n      tag_360\n      jumpi\n      mload(0x40)\n      0x08c379a000000000000000000000000000000000000000000000000000000000\n      dup2\n      mstore\n      0x04\n      add\n      tag_361\n      swap1\n      tag_161\n      jump\t// in\n    tag_361:\n      mload(0x40)\n      dup1\n      swap2\n      sub\n      swap1\n      revert\n    tag_360:\n        /* \"contracts/MultiSignatureWallet.sol\":7480:7488  newOwner */\n      dup2\n        /* \"contracts/MultiSignatureWallet.sol\":1840:1847  isOwner */\n      0x03\n        /* \"contracts/MultiSignatureWallet.sol\":1840:1854  isOwner[owner] */\n      0x00\n        /* \"contracts/MultiSignatureWallet.sol\":1848:1853  owner */\n      dup3\n        /* \"contracts/MultiSignatureWallet.sol\":1840:1854  isOwner[owner] */\n      0xffffffffffffffffffffffffffffffffffffffff\n      and\n      0xffffffffffffffffffffffffffffffffffffffff\n      and\n      dup2\n      mstore\n      0x20\n      add\n      swap1\n      dup2\n      mstore\n      0x20\n      add\n      0x00\n      keccak256\n      0x00\n      swap1\n      sload\n      swap1\n      0x0100\n      exp\n      swap1\n      div\n      0xff\n      and\n        /* \"contracts/MultiSignatureWallet.sol\":1839:1854  !isOwner[owner] */\n      iszero\n        /* \"contracts/MultiSignatureWallet.sol\":1831:1879  require(!isOwner[owner], \"Owner already exists\") */\n      tag_363\n      jumpi\n      mload(0x40)\n      0x08c379a000000000000000000000000000000000000000000000000000000000\n      dup2\n      mstore\n      0x04\n      add\n      tag_364\n      swap1\n      tag_252\n      jump\t// in\n    tag_364:\n      mload(0x40)\n      dup1\n      swap2\n      sub\n      swap1\n      revert\n    tag_363:\n        /* \"contracts/MultiSignatureWallet.sol\":7511:7520  uint256 i */\n      0x00\n        /* \"contracts/MultiSignatureWallet.sol\":7523:7524  0 */\n      0x00\n        /* \"contracts/MultiSignatureWallet.sol\":7511:7524  uint256 i = 0 */\n      swap1\n      pop\n        /* \"contracts/MultiSignatureWallet.sol\":7506:7679  for (uint256 i = 0; i < owners.length; i++) {... */\n    tag_366:\n        /* \"contracts/MultiSignatureWallet.sol\":7530:7536  owners */\n      0x04\n        /* \"contracts/MultiSignatureWallet.sol\":7530:7543  owners.length */\n      dup1\n      sload\n      swap1\n      pop\n        /* \"contracts/MultiSignatureWallet.sol\":7526:7527  i */\n      dup2\n        /* \"contracts/MultiSignatureWallet.sol\":7526:7543  i < owners.length */\n      lt\n        /* \"contracts/MultiSignatureWallet.sol\":7506:7679  for (uint256 i = 0; i < owners.length; i++) {... */\n      iszero\n      tag_367\n      jumpi\n        /* \"contracts/MultiSignatureWallet.sol\":7582:7587  owner */\n      dup5\n        /* \"contracts/MultiSignatureWallet.sol\":7569:7587  owners[i] == owner */\n      0xffffffffffffffffffffffffffffffffffffffff\n      and\n        /* \"contracts/MultiSignatureWallet.sol\":7569:7575  owners */\n      0x04\n        /* \"contracts/MultiSignatureWallet.sol\":7576:7577  i */\n      dup3\n        /* \"contracts/MultiSignatureWallet.sol\":7569:7578  owners[i] */\n      dup2\n      sload\n      dup2\n      lt\n      tag_369\n      jumpi\n      tag_370\n      tag_170\n      jump\t// in\n    tag_370:\n    tag_369:\n      swap1\n      0x00\n      mstore\n      keccak256(0x00, 0x20)\n      add\n      0x00\n      swap1\n      sload\n      swap1\n      0x0100\n      exp\n      swap1\n      div\n      0xffffffffffffffffffffffffffffffffffffffff\n      and\n        /* \"contracts/MultiSignatureWallet.sol\":7569:7587  owners[i] == owner */\n      0xffffffffffffffffffffffffffffffffffffffff\n      and\n      sub\n        /* \"contracts/MultiSignatureWallet.sol\":7565:7668  if (owners[i] == owner) {... */\n      tag_372\n      jumpi\n        /* \"contracts/MultiSignatureWallet.sol\":7620:7628  newOwner */\n      dup4\n        /* \"contracts/MultiSignatureWallet.sol\":7608:7614  owners */\n      0x04\n        /* \"contracts/MultiSignatureWallet.sol\":7615:7616  i */\n      dup3\n        /* \"contracts/MultiSignatureWallet.sol\":7608:7617  owners[i] */\n      dup2\n      sload\n      dup2\n      lt\n      tag_373\n      jumpi\n      tag_374\n      tag_170\n      jump\t// in\n    tag_374:\n    tag_373:\n      swap1\n      0x00\n      mstore\n      keccak256(0x00, 0x20)\n      add\n      0x00\n        /* \"contracts/MultiSignatureWallet.sol\":7608:7628  owners[i] = newOwner */\n      0x0100\n      exp\n      dup2\n      sload\n      dup2\n      0xffffffffffffffffffffffffffffffffffffffff\n      mul\n      not\n      and\n      swap1\n      dup4\n      0xffffffffffffffffffffffffffffffffffffffff\n      and\n      mul\n      or\n      swap1\n      sstore\n      pop\n        /* \"contracts/MultiSignatureWallet.sol\":7647:7652  break */\n      jump(tag_367)\n        /* \"contracts/MultiSignatureWallet.sol\":7565:7668  if (owners[i] == owner) {... */\n    tag_372:\n        /* \"contracts/MultiSignatureWallet.sol\":7545:7548  i++ */\n      dup1\n      dup1\n      0x01\n      add\n      swap2\n      pop\n      pop\n        /* \"contracts/MultiSignatureWallet.sol\":7506:7679  for (uint256 i = 0; i < owners.length; i++) {... */\n      jump(tag_366)\n    tag_367:\n      pop\n        /* \"contracts/MultiSignatureWallet.sol\":7716:7721  false */\n      0x00\n        /* \"contracts/MultiSignatureWallet.sol\":7699:7706  isOwner */\n      0x03\n        /* \"contracts/MultiSignatureWallet.sol\":7699:7713  isOwner[owner] */\n      0x00\n        /* \"contracts/MultiSignatureWallet.sol\":7707:7712  owner */\n      dup7\n        /* \"contracts/MultiSignatureWallet.sol\":7699:7713  isOwner[owner] */\n      0xffffffffffffffffffffffffffffffffffffffff\n      and\n      0xffffffffffffffffffffffffffffffffffffffff\n      and\n      dup2\n      mstore\n      0x20\n      add\n      swap1\n      dup2\n      mstore\n      0x20\n      add\n      0x00\n      keccak256\n      0x00\n        /* \"contracts/MultiSignatureWallet.sol\":7699:7721  isOwner[owner] = false */\n      0x0100\n      exp\n      dup2\n      sload\n      dup2\n      0xff\n      mul\n      not\n      and\n      swap1\n      dup4\n      iszero\n      iszero\n      mul\n      or\n      swap1\n      sstore\n      pop\n        /* \"contracts/MultiSignatureWallet.sol\":7752:7756  true */\n      0x01\n        /* \"contracts/MultiSignatureWallet.sol\":7732:7739  isOwner */\n      0x03\n        /* \"contracts/MultiSignatureWallet.sol\":7732:7749  isOwner[newOwner] */\n      0x00\n        /* \"contracts/MultiSignatureWallet.sol\":7740:7748  newOwner */\n      dup6\n        /* \"contracts/MultiSignatureWallet.sol\":7732:7749  isOwner[newOwner] */\n      0xffffffffffffffffffffffffffffffffffffffff\n      and\n      0xffffffffffffffffffffffffffffffffffffffff\n      and\n      dup2\n      mstore\n      0x20\n      add\n      swap1\n      dup2\n      mstore\n      0x20\n      add\n      0x00\n      keccak256\n      0x00\n        /* \"contracts/MultiSignatureWallet.sol\":7732:7756  isOwner[newOwner] = true */\n      0x0100\n      exp\n      dup2\n      sload\n      dup2\n      0xff\n      mul\n      not\n      and\n      swap1\n      dup4\n      iszero\n      iszero\n      mul\n      or\n      swap1\n      sstore\n      pop\n        /* \"contracts/MultiSignatureWallet.sol\":7795:7800  owner */\n      dup4\n        /* \"contracts/MultiSignatureWallet.sol\":7782:7801  OwnerRemoval(owner) */\n      0xffffffffffffffffffffffffffffffffffffffff\n      and\n      0x8001553a916ef2f495d26a907cc54d96ed840d7bda71e73194bf5a9df7a76b90\n      mload(0x40)\n      mload(0x40)\n      dup1\n      swap2\n      sub\n      swap1\n      log2\n        /* \"contracts/MultiSignatureWallet.sol\":7831:7839  newOwner */\n      dup3\n        /* \"contracts/MultiSignatureWallet.sol\":7817:7840  OwnerAddition(newOwner) */\n      0xffffffffffffffffffffffffffffffffffffffff\n      and\n      0xf39e6e1eb0edcf53c221607b54b00cd28f3196fed0a24994dc308b8f611b682d\n      mload(0x40)\n      mload(0x40)\n      dup1\n      swap2\n      sub\n      swap1\n      log2\n        /* \"contracts/MultiSignatureWallet.sol\":2016:2017  _ */\n      pop\n        /* \"contracts/MultiSignatureWallet.sol\":1757:1758  _ */\n      pop\n        /* \"contracts/MultiSignatureWallet.sol\":7334:7848  function replaceOwner(address owner, address newOwner)... */\n      pop\n      pop\n      jump\t// out\n        /* \"contracts/MultiSignatureWallet.sol\":5533:6491  function executeTransaction(uint256 txIndex)... */\n    tag_150:\n        /* \"contracts/MultiSignatureWallet.sol\":5615:5625  msg.sender */\n      caller\n        /* \"contracts/MultiSignatureWallet.sol\":1966:1973  isOwner */\n      0x03\n        /* \"contracts/MultiSignatureWallet.sol\":1966:1980  isOwner[owner] */\n      0x00\n        /* \"contracts/MultiSignatureWallet.sol\":1974:1979  owner */\n      dup3\n        /* \"contracts/MultiSignatureWallet.sol\":1966:1980  isOwner[owner] */\n      0xffffffffffffffffffffffffffffffffffffffff\n      and\n      0xffffffffffffffffffffffffffffffffffffffff\n      and\n      dup2\n      mstore\n      0x20\n      add\n      swap1\n      dup2\n      mstore\n      0x20\n      add\n      0x00\n      keccak256\n      0x00\n      swap1\n      sload\n      swap1\n      0x0100\n      exp\n      swap1\n      div\n      0xff\n      and\n        /* \"contracts/MultiSignatureWallet.sol\":1958:2005  require(isOwner[owner], \"Owner does not exist\") */\n      tag_377\n      jumpi\n      mload(0x40)\n      0x08c379a000000000000000000000000000000000000000000000000000000000\n      dup2\n      mstore\n      0x04\n      add\n      tag_378\n      swap1\n      tag_161\n      jump\t// in\n    tag_378:\n      mload(0x40)\n      dup1\n      swap2\n      sub\n      swap1\n      revert\n    tag_377:\n        /* \"contracts/MultiSignatureWallet.sol\":5654:5661  txIndex */\n      dup2\n        /* \"contracts/MultiSignatureWallet.sol\":2110:2126  transactionCount */\n      sload(0x06)\n        /* \"contracts/MultiSignatureWallet.sol\":2100:2107  txIndex */\n      dup2\n        /* \"contracts/MultiSignatureWallet.sol\":2100:2126  txIndex < transactionCount */\n      lt\n        /* \"contracts/MultiSignatureWallet.sol\":2092:2157  require(txIndex < transactionCount, \"Transaction does not exist\") */\n      tag_380\n      jumpi\n      mload(0x40)\n      0x08c379a000000000000000000000000000000000000000000000000000000000\n      dup2\n      mstore\n      0x04\n      add\n      tag_381\n      swap1\n      tag_192\n      jump\t// in\n    tag_381:\n      mload(0x40)\n      dup1\n      swap2\n      sub\n      swap1\n      revert\n    tag_380:\n        /* \"contracts/MultiSignatureWallet.sol\":5684:5691  txIndex */\n      dup3\n        /* \"contracts/MultiSignatureWallet.sol\":2414:2426  transactions */\n      0x01\n        /* \"contracts/MultiSignatureWallet.sol\":2414:2435  transactions[txIndex] */\n      0x00\n        /* \"contracts/MultiSignatureWallet.sol\":2427:2434  txIndex */\n      dup3\n        /* \"contracts/MultiSignatureWallet.sol\":2414:2435  transactions[txIndex] */\n      dup2\n      mstore\n      0x20\n      add\n      swap1\n      dup2\n      mstore\n      0x20\n      add\n      0x00\n      keccak256\n        /* \"contracts/MultiSignatureWallet.sol\":2414:2444  transactions[txIndex].executed */\n      0x03\n      add\n      0x00\n      swap1\n      sload\n      swap1\n      0x0100\n      exp\n      swap1\n      div\n      0xff\n      and\n        /* \"contracts/MultiSignatureWallet.sol\":2413:2444  !transactions[txIndex].executed */\n      iszero\n        /* \"contracts/MultiSignatureWallet.sol\":2405:2477  require(!transactions[txIndex].executed, \"Transaction already executed\") */\n      tag_383\n      jumpi\n      mload(0x40)\n      0x08c379a000000000000000000000000000000000000000000000000000000000\n      dup2\n      mstore\n      0x04\n      add\n      tag_384\n      swap1\n      tag_196\n      jump\t// in\n    tag_384:\n      mload(0x40)\n      dup1\n      swap2\n      sub\n      swap1\n      revert\n    tag_383:\n        /* \"@openzeppelin/contracts/security/ReentrancyGuard.sol\":2261:2282  _nonReentrantBefore() */\n      tag_386\n        /* \"@openzeppelin/contracts/security/ReentrancyGuard.sol\":2261:2280  _nonReentrantBefore */\n      tag_387\n        /* \"@openzeppelin/contracts/security/ReentrancyGuard.sol\":2261:2282  _nonReentrantBefore() */\n      jump\t// in\n    tag_386:\n        /* \"contracts/MultiSignatureWallet.sol\":5731:5762  Transaction storage transaction */\n      0x00\n        /* \"contracts/MultiSignatureWallet.sol\":5765:5777  transactions */\n      0x01\n        /* \"contracts/MultiSignatureWallet.sol\":5765:5786  transactions[txIndex] */\n      0x00\n        /* \"contracts/MultiSignatureWallet.sol\":5778:5785  txIndex */\n      dup7\n        /* \"contracts/MultiSignatureWallet.sol\":5765:5786  transactions[txIndex] */\n      dup2\n      mstore\n      0x20\n      add\n      swap1\n      dup2\n      mstore\n      0x20\n      add\n      0x00\n      keccak256\n        /* \"contracts/MultiSignatureWallet.sol\":5731:5786  Transaction storage transaction = transactions[txIndex] */\n      swap1\n      pop\n        /* \"contracts/MultiSignatureWallet.sol\":5858:5866  required */\n      sload(0x05)\n        /* \"contracts/MultiSignatureWallet.sol\":5829:5840  transaction */\n      dup2\n        /* \"contracts/MultiSignatureWallet.sol\":5829:5854  transaction.confirmations */\n      0x04\n      add\n      sload\n        /* \"contracts/MultiSignatureWallet.sol\":5829:5866  transaction.confirmations >= required */\n      lt\n      iszero\n        /* \"contracts/MultiSignatureWallet.sol\":5807:5920  require(... */\n      tag_389\n      jumpi\n      mload(0x40)\n      0x08c379a000000000000000000000000000000000000000000000000000000000\n      dup2\n      mstore\n      0x04\n      add\n      tag_390\n      swap1\n      tag_391\n      jump\t// in\n    tag_390:\n      mload(0x40)\n      dup1\n      swap2\n      sub\n      swap1\n      revert\n    tag_389:\n        /* \"contracts/MultiSignatureWallet.sol\":5964:5968  true */\n      0x01\n        /* \"contracts/MultiSignatureWallet.sol\":5941:5952  transaction */\n      dup2\n        /* \"contracts/MultiSignatureWallet.sol\":5941:5961  transaction.executed */\n      0x03\n      add\n      0x00\n        /* \"contracts/MultiSignatureWallet.sol\":5941:5968  transaction.executed = true */\n      0x0100\n      exp\n      dup2\n      sload\n      dup2\n      0xff\n      mul\n      not\n      and\n      swap1\n      dup4\n      iszero\n      iszero\n      mul\n      or\n      swap1\n      sstore\n      pop\n        /* \"contracts/MultiSignatureWallet.sol\":5989:6001  bool success */\n      0x00\n        /* \"contracts/MultiSignatureWallet.sol\":6045:6046  0 */\n      0x00\n        /* \"contracts/MultiSignatureWallet.sol\":6016:6047  transaction.token == address(0) */\n      0xffffffffffffffffffffffffffffffffffffffff\n      and\n        /* \"contracts/MultiSignatureWallet.sol\":6016:6027  transaction */\n      dup3\n        /* \"contracts/MultiSignatureWallet.sol\":6016:6033  transaction.token */\n      0x06\n      add\n      0x00\n      swap1\n      sload\n      swap1\n      0x0100\n      exp\n      swap1\n      div\n      0xffffffffffffffffffffffffffffffffffffffff\n      and\n        /* \"contracts/MultiSignatureWallet.sol\":6016:6047  transaction.token == address(0) */\n      0xffffffffffffffffffffffffffffffffffffffff\n      and\n      sub\n        /* \"contracts/MultiSignatureWallet.sol\":6012:6360  if (transaction.token == address(0)) {... */\n      tag_392\n      jumpi\n        /* \"contracts/MultiSignatureWallet.sol\":6110:6121  transaction */\n      dup2\n        /* \"contracts/MultiSignatureWallet.sol\":6110:6124  transaction.to */\n      0x00\n      add\n      0x00\n      swap1\n      sload\n      swap1\n      0x0100\n      exp\n      swap1\n      div\n      0xffffffffffffffffffffffffffffffffffffffff\n      and\n        /* \"contracts/MultiSignatureWallet.sol\":6110:6129  transaction.to.call */\n      0xffffffffffffffffffffffffffffffffffffffff\n      and\n        /* \"contracts/MultiSignatureWallet.sol\":6137:6148  transaction */\n      dup3\n        /* \"contracts/MultiSignatureWallet.sol\":6137:6154  transaction.value */\n      0x01\n      add\n      sload\n        /* \"contracts/MultiSignatureWallet.sol\":6156:6167  transaction */\n      dup4\n        /* \"contracts/MultiSignatureWallet.sol\":6156:6172  transaction.data */\n      0x02\n      add\n        /* \"contracts/MultiSignatureWallet.sol\":6110:6173  transaction.to.call{value: transaction.value}(transaction.data) */\n      mload(0x40)\n      tag_393\n      swap2\n      swap1\n      tag_394\n      jump\t// in\n    tag_393:\n      0x00\n      mload(0x40)\n      dup1\n      dup4\n      sub\n      dup2\n      dup6\n      dup8\n      gas\n      call\n      swap3\n      pop\n      pop\n      pop\n      returndatasize\n      dup1\n      0x00\n      dup2\n      eq\n      tag_397\n      jumpi\n      mload(0x40)\n      swap2\n      pop\n      and(add(returndatasize, 0x3f), not(0x1f))\n      dup3\n      add\n      0x40\n      mstore\n      returndatasize\n      dup3\n      mstore\n      returndatasize\n      0x00\n      0x20\n      dup5\n      add\n      returndatacopy\n      jump(tag_396)\n    tag_397:\n      0x60\n      swap2\n      pop\n    tag_396:\n      pop\n        /* \"contracts/MultiSignatureWallet.sol\":6096:6173  (success, ) = transaction.to.call{value: transaction.value}(transaction.data) */\n      pop\n      dup1\n      swap2\n      pop\n      pop\n        /* \"contracts/MultiSignatureWallet.sol\":6012:6360  if (transaction.token == address(0)) {... */\n      jump(tag_398)\n    tag_392:\n        /* \"contracts/MultiSignatureWallet.sol\":6246:6319  IERC20(transaction.token).safeTransfer(transaction.to, transaction.value) */\n      tag_399\n        /* \"contracts/MultiSignatureWallet.sol\":6285:6296  transaction */\n      dup3\n        /* \"contracts/MultiSignatureWallet.sol\":6285:6299  transaction.to */\n      0x00\n      add\n      0x00\n      swap1\n      sload\n      swap1\n      0x0100\n      exp\n      swap1\n      div\n      0xffffffffffffffffffffffffffffffffffffffff\n      and\n        /* \"contracts/MultiSignatureWallet.sol\":6301:6312  transaction */\n      dup4\n        /* \"contracts/MultiSignatureWallet.sol\":6301:6318  transaction.value */\n      0x01\n      add\n      sload\n        /* \"contracts/MultiSignatureWallet.sol\":6253:6264  transaction */\n      dup5\n        /* \"contracts/MultiSignatureWallet.sol\":6253:6270  transaction.token */\n      0x06\n      add\n      0x00\n      swap1\n      sload\n      swap1\n      0x0100\n      exp\n      swap1\n      div\n      0xffffffffffffffffffffffffffffffffffffffff\n      and\n        /* \"contracts/MultiSignatureWallet.sol\":6246:6284  IERC20(transaction.token).safeTransfer */\n      0xffffffffffffffffffffffffffffffffffffffff\n      and\n      tag_400\n      swap1\n        /* \"contracts/MultiSignatureWallet.sol\":6246:6319  IERC20(transaction.token).safeTransfer(transaction.to, transaction.value) */\n      swap3\n      swap2\n      swap1\n      0xffffffff\n      and\n      jump\t// in\n    tag_399:\n        /* \"contracts/MultiSignatureWallet.sol\":6344:6348  true */\n      0x01\n        /* \"contracts/MultiSignatureWallet.sol\":6334:6348  success = true */\n      swap1\n      pop\n        /* \"contracts/MultiSignatureWallet.sol\":6012:6360  if (transaction.token == address(0)) {... */\n    tag_398:\n        /* \"contracts/MultiSignatureWallet.sol\":6388:6395  success */\n      dup1\n        /* \"contracts/MultiSignatureWallet.sol\":6380:6418  require(success, \"Transaction failed\") */\n      tag_401\n      jumpi\n      mload(0x40)\n      0x08c379a000000000000000000000000000000000000000000000000000000000\n      dup2\n      mstore\n      0x04\n      add\n      tag_402\n      swap1\n      tag_403\n      jump\t// in\n    tag_402:\n      mload(0x40)\n      dup1\n      swap2\n      sub\n      swap1\n      revert\n    tag_401:\n        /* \"contracts/MultiSignatureWallet.sol\":6475:6482  txIndex */\n      dup6\n        /* \"contracts/MultiSignatureWallet.sol\":6463:6473  msg.sender */\n      caller\n        /* \"contracts/MultiSignatureWallet.sol\":6444:6483  ExecuteTransaction(msg.sender, txIndex) */\n      0xffffffffffffffffffffffffffffffffffffffff\n      and\n      0x5445f318f4f5fcfb66592e68e0cc5822aa15664039bd5f0ffde24c5a8142b1ac\n      mload(0x40)\n      mload(0x40)\n      dup1\n      swap2\n      sub\n      swap1\n      log3\n        /* \"contracts/MultiSignatureWallet.sol\":5720:6491  {... */\n      pop\n      pop\n        /* \"@openzeppelin/contracts/security/ReentrancyGuard.sol\":2303:2323  _nonReentrantAfter() */\n      tag_404\n        /* \"@openzeppelin/contracts/security/ReentrancyGuard.sol\":2303:2321  _nonReentrantAfter */\n      tag_405\n        /* \"@openzeppelin/contracts/security/ReentrancyGuard.sol\":2303:2323  _nonReentrantAfter() */\n      jump\t// in\n    tag_404:\n        /* \"contracts/MultiSignatureWallet.sol\":2168:2169  _ */\n      pop\n        /* \"contracts/MultiSignatureWallet.sol\":2016:2017  _ */\n      pop\n        /* \"contracts/MultiSignatureWallet.sol\":5533:6491  function executeTransaction(uint256 txIndex)... */\n      pop\n      pop\n      jump\t// out\n        /* \"@openzeppelin/contracts/token/ERC20/utils/SafeERC20.sol\":1618:1806  function safeTransferFrom(IERC20 token, address from, address to, uint256 value) internal {... */\n    tag_211:\n        /* \"@openzeppelin/contracts/token/ERC20/utils/SafeERC20.sol\":1718:1799  _callOptionalReturn(token, abi.encodeCall(token.transferFrom, (from, to, value))) */\n      tag_407\n        /* \"@openzeppelin/contracts/token/ERC20/utils/SafeERC20.sol\":1738:1743  token */\n      dup5\n        /* \"@openzeppelin/contracts/token/ERC20/utils/SafeERC20.sol\":1760:1765  token */\n      dup6\n        /* \"@openzeppelin/contracts/token/ERC20/utils/SafeERC20.sol\":1760:1778  token.transferFrom */\n      0xffffffffffffffffffffffffffffffffffffffff\n      and\n      0x23b872dd\n        /* \"@openzeppelin/contracts/token/ERC20/utils/SafeERC20.sol\":1781:1785  from */\n      dup7\n        /* \"@openzeppelin/contracts/token/ERC20/utils/SafeERC20.sol\":1787:1789  to */\n      dup7\n        /* \"@openzeppelin/contracts/token/ERC20/utils/SafeERC20.sol\":1791:1796  value */\n      dup7\n        /* \"@openzeppelin/contracts/token/ERC20/utils/SafeERC20.sol\":1745:1798  abi.encodeCall(token.transferFrom, (from, to, value)) */\n      add(0x24, mload(0x40))\n      tag_408\n      swap4\n      swap3\n      swap2\n      swap1\n      tag_409\n      jump\t// in\n    tag_408:\n      mload(0x40)\n      0x20\n      dup2\n      dup4\n      sub\n      sub\n      dup2\n      mstore\n      swap1\n      0x40\n      mstore\n      swap2\n      pop\n      0xe0\n      shl\n      0x20\n      dup3\n      add\n      dup1\n      mload\n      0xffffffffffffffffffffffffffffffffffffffffffffffffffffffff\n      dup4\n      dup2\n      dup4\n      and\n      or\n      dup4\n      mstore\n      pop\n      pop\n      pop\n      pop\n        /* \"@openzeppelin/contracts/token/ERC20/utils/SafeERC20.sol\":1718:1737  _callOptionalReturn */\n      tag_410\n        /* \"@openzeppelin/contracts/token/ERC20/utils/SafeERC20.sol\":1718:1799  _callOptionalReturn(token, abi.encodeCall(token.transferFrom, (from, to, value))) */\n      jump\t// in\n    tag_407:\n        /* \"@openzeppelin/contracts/token/ERC20/utils/SafeERC20.sol\":1618:1806  function safeTransferFrom(IERC20 token, address from, address to, uint256 value) internal {... */\n      pop\n      pop\n      pop\n      pop\n      jump\t// out\n        /* \"@openzeppelin/contracts/security/ReentrancyGuard.sol\":2336:2623  function _nonReentrantBefore() private {... */\n    tag_387:\n        /* \"@openzeppelin/contracts/security/ReentrancyGuard.sol\":1759:1760  2 */\n      0x02\n        /* \"@openzeppelin/contracts/security/ReentrancyGuard.sol\":2468:2475  _status */\n      sload(0x00)\n        /* \"@openzeppelin/contracts/security/ReentrancyGuard.sol\":2468:2487  _status != _ENTERED */\n      sub\n        /* \"@openzeppelin/contracts/security/ReentrancyGuard.sol\":2460:2523  require(_status != _ENTERED, \"ReentrancyGuard: reentrant call\") */\n      tag_412\n      jumpi\n      mload(0x40)\n      0x08c379a000000000000000000000000000000000000000000000000000000000\n      dup2\n      mstore\n      0x04\n      add\n      tag_413\n      swap1\n      tag_414\n      jump\t// in\n    tag_413:\n      mload(0x40)\n      dup1\n      swap2\n      sub\n      swap1\n      revert\n    tag_412:\n        /* \"@openzeppelin/contracts/security/ReentrancyGuard.sol\":1759:1760  2 */\n      0x02\n        /* \"@openzeppelin/contracts/security/ReentrancyGuard.sol\":2598:2605  _status */\n      0x00\n        /* \"@openzeppelin/contracts/security/ReentrancyGuard.sol\":2598:2616  _status = _ENTERED */\n      dup2\n      swap1\n      sstore\n      pop\n        /* \"@openzeppelin/contracts/security/ReentrancyGuard.sol\":2336:2623  function _nonReentrantBefore() private {... */\n      jump\t// out\n        /* \"@openzeppelin/contracts/token/ERC20/utils/SafeERC20.sol\":1219:1379  function safeTransfer(IERC20 token, address to, uint256 value) internal {... */\n    tag_400:\n        /* \"@openzeppelin/contracts/token/ERC20/utils/SafeERC20.sol\":1301:1372  _callOptionalReturn(token, abi.encodeCall(token.transfer, (to, value))) */\n      tag_416\n        /* \"@openzeppelin/contracts/token/ERC20/utils/SafeERC20.sol\":1321:1326  token */\n      dup4\n        /* \"@openzeppelin/contracts/token/ERC20/utils/SafeERC20.sol\":1343:1348  token */\n      dup5\n        /* \"@openzeppelin/contracts/token/ERC20/utils/SafeERC20.sol\":1343:1357  token.transfer */\n      0xffffffffffffffffffffffffffffffffffffffff\n      and\n      0xa9059cbb\n        /* \"@openzeppelin/contracts/token/ERC20/utils/SafeERC20.sol\":1360:1362  to */\n      dup6\n        /* \"@openzeppelin/contracts/token/ERC20/utils/SafeERC20.sol\":1364:1369  value */\n      dup6\n        /* \"@openzeppelin/contracts/token/ERC20/utils/SafeERC20.sol\":1328:1371  abi.encodeCall(token.transfer, (to, value)) */\n      add(0x24, mload(0x40))\n      tag_417\n      swap3\n      swap2\n      swap1\n      tag_418\n      jump\t// in\n    tag_417:\n      mload(0x40)\n      0x20\n      dup2\n      dup4\n      sub\n      sub\n      dup2\n      mstore\n      swap1\n      0x40\n      mstore\n      swap2\n      pop\n      0xe0\n      shl\n      0x20\n      dup3\n      add\n      dup1\n      mload\n      0xffffffffffffffffffffffffffffffffffffffffffffffffffffffff\n      dup4\n      dup2\n      dup4\n      and\n      or\n      dup4\n      mstore\n      pop\n      pop\n      pop\n      pop\n        /* \"@openzeppelin/contracts/token/ERC20/utils/SafeERC20.sol\":1301:1320  _callOptionalReturn */\n      tag_410\n        /* \"@openzeppelin/contracts/token/ERC20/utils/SafeERC20.sol\":1301:1372  _callOptionalReturn(token, abi.encodeCall(token.transfer, (to, value))) */\n      jump\t// in\n    tag_416:\n        /* \"@openzeppelin/contracts/token/ERC20/utils/SafeERC20.sol\":1219:1379  function safeTransfer(IERC20 token, address to, uint256 value) internal {... */\n      pop\n      pop\n      pop\n      jump\t// out\n        /* \"@openzeppelin/contracts/security/ReentrancyGuard.sol\":2629:2838  function _nonReentrantAfter() private {... */\n    tag_405:\n        /* \"@openzeppelin/contracts/security/ReentrancyGuard.sol\":1716:1717  1 */\n      0x01\n        /* \"@openzeppelin/contracts/security/ReentrancyGuard.sol\":2809:2816  _status */\n      0x00\n        /* \"@openzeppelin/contracts/security/ReentrancyGuard.sol\":2809:2831  _status = _NOT_ENTERED */\n      dup2\n      swap1\n      sstore\n      pop\n        /* \"@openzeppelin/contracts/security/ReentrancyGuard.sol\":2629:2838  function _nonReentrantAfter() private {... */\n      jump\t// out\n        /* \"@openzeppelin/contracts/token/ERC20/utils/SafeERC20.sol\":8370:9090  function _callOptionalReturn(IERC20 token, bytes memory data) private {... */\n    tag_410:\n        /* \"@openzeppelin/contracts/token/ERC20/utils/SafeERC20.sol\":8450:8468  uint256 returnSize */\n      0x00\n        /* \"@openzeppelin/contracts/token/ERC20/utils/SafeERC20.sol\":8478:8497  uint256 returnValue */\n      0x00\n        /* \"@openzeppelin/contracts/token/ERC20/utils/SafeERC20.sol\":8616:8620  0x20 */\n      0x20\n        /* \"@openzeppelin/contracts/token/ERC20/utils/SafeERC20.sol\":8613:8614  0 */\n      0x00\n        /* \"@openzeppelin/contracts/token/ERC20/utils/SafeERC20.sol\":8606:8610  data */\n      dup5\n        /* \"@openzeppelin/contracts/token/ERC20/utils/SafeERC20.sol\":8600:8611  mload(data) */\n      mload\n        /* \"@openzeppelin/contracts/token/ERC20/utils/SafeERC20.sol\":8593:8597  0x20 */\n      0x20\n        /* \"@openzeppelin/contracts/token/ERC20/utils/SafeERC20.sol\":8587:8591  data */\n      dup7\n        /* \"@openzeppelin/contracts/token/ERC20/utils/SafeERC20.sol\":8583:8598  add(data, 0x20) */\n      add\n        /* \"@openzeppelin/contracts/token/ERC20/utils/SafeERC20.sol\":8580:8581  0 */\n      0x00\n        /* \"@openzeppelin/contracts/token/ERC20/utils/SafeERC20.sol\":8573:8578  token */\n      dup9\n        /* \"@openzeppelin/contracts/token/ERC20/utils/SafeERC20.sol\":8566:8571  gas() */\n      gas\n        /* \"@openzeppelin/contracts/token/ERC20/utils/SafeERC20.sol\":8561:8621  call(gas(), token, 0, add(data, 0x20), mload(data), 0, 0x20) */\n      call\n        /* \"@openzeppelin/contracts/token/ERC20/utils/SafeERC20.sol\":8673:8680  success */\n      dup1\n        /* \"@openzeppelin/contracts/token/ERC20/utils/SafeERC20.sol\":8663:8839  if iszero(success) {... */\n      tag_421\n      jumpi\n        /* \"@openzeppelin/contracts/token/ERC20/utils/SafeERC20.sol\":8717:8721  0x40 */\n      0x40\n        /* \"@openzeppelin/contracts/token/ERC20/utils/SafeERC20.sol\":8711:8722  mload(0x40) */\n      mload\n        /* \"@openzeppelin/contracts/token/ERC20/utils/SafeERC20.sol\":8762:8778  returndatasize() */\n      returndatasize\n        /* \"@openzeppelin/contracts/token/ERC20/utils/SafeERC20.sol\":8759:8760  0 */\n      0x00\n        /* \"@openzeppelin/contracts/token/ERC20/utils/SafeERC20.sol\":8754:8757  ptr */\n      dup3\n        /* \"@openzeppelin/contracts/token/ERC20/utils/SafeERC20.sol\":8739:8779  returndatacopy(ptr, 0, returndatasize()) */\n      returndatacopy\n        /* \"@openzeppelin/contracts/token/ERC20/utils/SafeERC20.sol\":8808:8824  returndatasize() */\n      returndatasize\n        /* \"@openzeppelin/contracts/token/ERC20/utils/SafeERC20.sol\":8803:8806  ptr */\n      dup2\n        /* \"@openzeppelin/contracts/token/ERC20/utils/SafeERC20.sol\":8796:8825  revert(ptr, returndatasize()) */\n      revert\n        /* \"@openzeppelin/contracts/token/ERC20/utils/SafeERC20.sol\":8663:8839  if iszero(success) {... */\n    tag_421:\n        /* \"@openzeppelin/contracts/token/ERC20/utils/SafeERC20.sol\":8866:8882  returndatasize() */\n      returndatasize\n        /* \"@openzeppelin/contracts/token/ERC20/utils/SafeERC20.sol\":8852:8882  returnSize := returndatasize() */\n      swap3\n      pop\n        /* \"@openzeppelin/contracts/token/ERC20/utils/SafeERC20.sol\":8916:8917  0 */\n      0x00\n        /* \"@openzeppelin/contracts/token/ERC20/utils/SafeERC20.sol\":8910:8918  mload(0) */\n      mload\n        /* \"@openzeppelin/contracts/token/ERC20/utils/SafeERC20.sol\":8895:8918  returnValue := mload(0) */\n      swap2\n      pop\n        /* \"@openzeppelin/contracts/token/ERC20/utils/SafeERC20.sol\":8532:8928  {... */\n      pop\n        /* \"@openzeppelin/contracts/token/ERC20/utils/SafeERC20.sol\":8956:8957  0 */\n      0x00\n        /* \"@openzeppelin/contracts/token/ERC20/utils/SafeERC20.sol\":8942:8952  returnSize */\n      dup3\n        /* \"@openzeppelin/contracts/token/ERC20/utils/SafeERC20.sol\":8942:8957  returnSize == 0 */\n      eq\n        /* \"@openzeppelin/contracts/token/ERC20/utils/SafeERC20.sol\":8942:9010  returnSize == 0 ? address(token).code.length == 0 : returnValue != 1 */\n      tag_422\n      jumpi\n        /* \"@openzeppelin/contracts/token/ERC20/utils/SafeERC20.sol\":9009:9010  1 */\n      0x01\n        /* \"@openzeppelin/contracts/token/ERC20/utils/SafeERC20.sol\":8994:9005  returnValue */\n      dup2\n        /* \"@openzeppelin/contracts/token/ERC20/utils/SafeERC20.sol\":8994:9010  returnValue != 1 */\n      eq\n      iszero\n        /* \"@openzeppelin/contracts/token/ERC20/utils/SafeERC20.sol\":8942:9010  returnSize == 0 ? address(token).code.length == 0 : returnValue != 1 */\n      jump(tag_423)\n    tag_422:\n        /* \"@openzeppelin/contracts/token/ERC20/utils/SafeERC20.sol\":8990:8991  0 */\n      0x00\n        /* \"@openzeppelin/contracts/token/ERC20/utils/SafeERC20.sol\":8968:8973  token */\n      dup5\n        /* \"@openzeppelin/contracts/token/ERC20/utils/SafeERC20.sol\":8960:8986  address(token).code.length */\n      0xffffffffffffffffffffffffffffffffffffffff\n      and\n      extcodesize\n        /* \"@openzeppelin/contracts/token/ERC20/utils/SafeERC20.sol\":8960:8991  address(token).code.length == 0 */\n      eq\n        /* \"@openzeppelin/contracts/token/ERC20/utils/SafeERC20.sol\":8942:9010  returnSize == 0 ? address(token).code.length == 0 : returnValue != 1 */\n    tag_423:\n        /* \"@openzeppelin/contracts/token/ERC20/utils/SafeERC20.sol\":8938:9084  if (returnSize == 0 ? address(token).code.length == 0 : returnValue != 1) {... */\n      iszero\n      tag_424\n      jumpi\n        /* \"@openzeppelin/contracts/token/ERC20/utils/SafeERC20.sol\":9066:9071  token */\n      dup4\n        /* \"@openzeppelin/contracts/token/ERC20/utils/SafeERC20.sol\":9033:9073  SafeERC20FailedOperation(address(token)) */\n      mload(0x40)\n      0x5274afe700000000000000000000000000000000000000000000000000000000\n      dup2\n      mstore\n      0x04\n      add\n      tag_425\n      swap2\n      swap1\n      tag_40\n      jump\t// in\n    tag_425:\n      mload(0x40)\n      dup1\n      swap2\n      sub\n      swap1\n      revert\n        /* \"@openzeppelin/contracts/token/ERC20/utils/SafeERC20.sol\":8938:9084  if (returnSize == 0 ? address(token).code.length == 0 : returnValue != 1) {... */\n    tag_424:\n        /* \"@openzeppelin/contracts/token/ERC20/utils/SafeERC20.sol\":8440:9090  {... */\n      pop\n      pop\n        /* \"@openzeppelin/contracts/token/ERC20/utils/SafeERC20.sol\":8370:9090  function _callOptionalReturn(IERC20 token, bytes memory data) private {... */\n      pop\n      pop\n      jump\t// out\n        /* \"#utility.yul\":7:84   */\n    tag_426:\n        /* \"#utility.yul\":44:51   */\n      0x00\n        /* \"#utility.yul\":73:78   */\n      dup2\n        /* \"#utility.yul\":62:78   */\n      swap1\n      pop\n        /* \"#utility.yul\":7:84   */\n      swap2\n      swap1\n      pop\n      jump\t// out\n        /* \"#utility.yul\":90:208   */\n    tag_427:\n        /* \"#utility.yul\":177:201   */\n      tag_521\n        /* \"#utility.yul\":195:200   */\n      dup2\n        /* \"#utility.yul\":177:201   */\n      tag_426\n      jump\t// in\n    tag_521:\n        /* \"#utility.yul\":172:175   */\n      dup3\n        /* \"#utility.yul\":165:202   */\n      mstore\n        /* \"#utility.yul\":90:208   */\n      pop\n      pop\n      jump\t// out\n        /* \"#utility.yul\":214:546   */\n    tag_33:\n        /* \"#utility.yul\":335:339   */\n      0x00\n        /* \"#utility.yul\":373:375   */\n      0x40\n        /* \"#utility.yul\":362:371   */\n      dup3\n        /* \"#utility.yul\":358:376   */\n      add\n        /* \"#utility.yul\":350:376   */\n      swap1\n      pop\n        /* \"#utility.yul\":386:457   */\n      tag_523\n        /* \"#utility.yul\":454:455   */\n      0x00\n        /* \"#utility.yul\":443:452   */\n      dup4\n        /* \"#utility.yul\":439:456   */\n      add\n        /* \"#utility.yul\":430:436   */\n      dup6\n        /* \"#utility.yul\":386:457   */\n      tag_427\n      jump\t// in\n    tag_523:\n        /* \"#utility.yul\":467:539   */\n      tag_524\n        /* \"#utility.yul\":535:537   */\n      0x20\n        /* \"#utility.yul\":524:533   */\n      dup4\n        /* \"#utility.yul\":520:538   */\n      add\n        /* \"#utility.yul\":511:517   */\n      dup5\n        /* \"#utility.yul\":467:539   */\n      tag_427\n      jump\t// in\n    tag_524:\n        /* \"#utility.yul\":214:546   */\n      swap4\n      swap3\n      pop\n      pop\n      pop\n      jump\t// out\n        /* \"#utility.yul\":552:627   */\n    tag_428:\n        /* \"#utility.yul\":585:591   */\n      0x00\n        /* \"#utility.yul\":618:620   */\n      0x40\n        /* \"#utility.yul\":612:621   */\n      mload\n        /* \"#utility.yul\":602:621   */\n      swap1\n      pop\n        /* \"#utility.yul\":552:627   */\n      swap1\n      jump\t// out\n        /* \"#utility.yul\":633:750   */\n    tag_429:\n        /* \"#utility.yul\":742:743   */\n      0x00\n        /* \"#utility.yul\":739:740   */\n      0x00\n        /* \"#utility.yul\":732:744   */\n      revert\n        /* \"#utility.yul\":756:873   */\n    tag_430:\n        /* \"#utility.yul\":865:866   */\n      0x00\n        /* \"#utility.yul\":862:863   */\n      0x00\n        /* \"#utility.yul\":855:867   */\n      revert\n        /* \"#utility.yul\":879:1001   */\n    tag_431:\n        /* \"#utility.yul\":952:976   */\n      tag_529\n        /* \"#utility.yul\":970:975   */\n      dup2\n        /* \"#utility.yul\":952:976   */\n      tag_426\n      jump\t// in\n    tag_529:\n        /* \"#utility.yul\":945:950   */\n      dup2\n        /* \"#utility.yul\":942:977   */\n      eq\n        /* \"#utility.yul\":932:995   */\n      tag_530\n      jumpi\n        /* \"#utility.yul\":991:992   */\n      0x00\n        /* \"#utility.yul\":988:989   */\n      0x00\n        /* \"#utility.yul\":981:993   */\n      revert\n        /* \"#utility.yul\":932:995   */\n    tag_530:\n        /* \"#utility.yul\":879:1001   */\n      pop\n      jump\t// out\n        /* \"#utility.yul\":1007:1146   */\n    tag_432:\n        /* \"#utility.yul\":1053:1058   */\n      0x00\n        /* \"#utility.yul\":1091:1097   */\n      dup2\n        /* \"#utility.yul\":1078:1098   */\n      calldataload\n        /* \"#utility.yul\":1069:1098   */\n      swap1\n      pop\n        /* \"#utility.yul\":1107:1140   */\n      tag_532\n        /* \"#utility.yul\":1134:1139   */\n      dup2\n        /* \"#utility.yul\":1107:1140   */\n      tag_431\n      jump\t// in\n    tag_532:\n        /* \"#utility.yul\":1007:1146   */\n      swap3\n      swap2\n      pop\n      pop\n      jump\t// out\n        /* \"#utility.yul\":1152:1481   */\n    tag_37:\n        /* \"#utility.yul\":1211:1217   */\n      0x00\n        /* \"#utility.yul\":1260:1262   */\n      0x20\n        /* \"#utility.yul\":1248:1257   */\n      dup3\n        /* \"#utility.yul\":1239:1246   */\n      dup5\n        /* \"#utility.yul\":1235:1258   */\n      sub\n        /* \"#utility.yul\":1231:1263   */\n      slt\n        /* \"#utility.yul\":1228:1347   */\n      iszero\n      tag_534\n      jumpi\n        /* \"#utility.yul\":1266:1345   */\n      tag_535\n      tag_429\n      jump\t// in\n    tag_535:\n        /* \"#utility.yul\":1228:1347   */\n    tag_534:\n        /* \"#utility.yul\":1386:1387   */\n      0x00\n        /* \"#utility.yul\":1411:1464   */\n      tag_536\n        /* \"#utility.yul\":1456:1463   */\n      dup5\n        /* \"#utility.yul\":1447:1453   */\n      dup3\n        /* \"#utility.yul\":1436:1445   */\n      dup6\n        /* \"#utility.yul\":1432:1454   */\n      add\n        /* \"#utility.yul\":1411:1464   */\n      tag_432\n      jump\t// in\n    tag_536:\n        /* \"#utility.yul\":1401:1464   */\n      swap2\n      pop\n        /* \"#utility.yul\":1357:1474   */\n      pop\n        /* \"#utility.yul\":1152:1481   */\n      swap3\n      swap2\n      pop\n      pop\n      jump\t// out\n        /* \"#utility.yul\":1487:1613   */\n    tag_433:\n        /* \"#utility.yul\":1524:1531   */\n      0x00\n        /* \"#utility.yul\":1564:1606   */\n      0xffffffffffffffffffffffffffffffffffffffff\n        /* \"#utility.yul\":1557:1562   */\n      dup3\n        /* \"#utility.yul\":1553:1607   */\n      and\n        /* \"#utility.yul\":1542:1607   */\n      swap1\n      pop\n        /* \"#utility.yul\":1487:1613   */\n      swap2\n      swap1\n      pop\n      jump\t// out\n        /* \"#utility.yul\":1619:1715   */\n    tag_434:\n        /* \"#utility.yul\":1656:1663   */\n      0x00\n        /* \"#utility.yul\":1685:1709   */\n      tag_539\n        /* \"#utility.yul\":1703:1708   */\n      dup3\n        /* \"#utility.yul\":1685:1709   */\n      tag_433\n      jump\t// in\n    tag_539:\n        /* \"#utility.yul\":1674:1709   */\n      swap1\n      pop\n        /* \"#utility.yul\":1619:1715   */\n      swap2\n      swap1\n      pop\n      jump\t// out\n        /* \"#utility.yul\":1721:1839   */\n    tag_435:\n        /* \"#utility.yul\":1808:1832   */\n      tag_541\n        /* \"#utility.yul\":1826:1831   */\n      dup2\n        /* \"#utility.yul\":1808:1832   */\n      tag_434\n      jump\t// in\n    tag_541:\n        /* \"#utility.yul\":1803:1806   */\n      dup3\n        /* \"#utility.yul\":1796:1833   */\n      mstore\n        /* \"#utility.yul\":1721:1839   */\n      pop\n      pop\n      jump\t// out\n        /* \"#utility.yul\":1845:2067   */\n    tag_40:\n        /* \"#utility.yul\":1938:1942   */\n      0x00\n        /* \"#utility.yul\":1976:1978   */\n      0x20\n        /* \"#utility.yul\":1965:1974   */\n      dup3\n        /* \"#utility.yul\":1961:1979   */\n      add\n        /* \"#utility.yul\":1953:1979   */\n      swap1\n      pop\n        /* \"#utility.yul\":1989:2060   */\n      tag_543\n        /* \"#utility.yul\":2057:2058   */\n      0x00\n        /* \"#utility.yul\":2046:2055   */\n      dup4\n        /* \"#utility.yul\":2042:2059   */\n      add\n        /* \"#utility.yul\":2033:2039   */\n      dup5\n        /* \"#utility.yul\":1989:2060   */\n      tag_435\n      jump\t// in\n    tag_543:\n        /* \"#utility.yul\":1845:2067   */\n      swap3\n      swap2\n      pop\n      pop\n      jump\t// out\n        /* \"#utility.yul\":2073:2295   */\n    tag_45:\n        /* \"#utility.yul\":2166:2170   */\n      0x00\n        /* \"#utility.yul\":2204:2206   */\n      0x20\n        /* \"#utility.yul\":2193:2202   */\n      dup3\n        /* \"#utility.yul\":2189:2207   */\n      add\n        /* \"#utility.yul\":2181:2207   */\n      swap1\n      pop\n        /* \"#utility.yul\":2217:2288   */\n      tag_545\n        /* \"#utility.yul\":2285:2286   */\n      0x00\n        /* \"#utility.yul\":2274:2283   */\n      dup4\n        /* \"#utility.yul\":2270:2287   */\n      add\n        /* \"#utility.yul\":2261:2267   */\n      dup5\n        /* \"#utility.yul\":2217:2288   */\n      tag_427\n      jump\t// in\n    tag_545:\n        /* \"#utility.yul\":2073:2295   */\n      swap3\n      swap2\n      pop\n      pop\n      jump\t// out\n        /* \"#utility.yul\":2301:2423   */\n    tag_436:\n        /* \"#utility.yul\":2374:2398   */\n      tag_547\n        /* \"#utility.yul\":2392:2397   */\n      dup2\n        /* \"#utility.yul\":2374:2398   */\n      tag_434\n      jump\t// in\n    tag_547:\n        /* \"#utility.yul\":2367:2372   */\n      dup2\n        /* \"#utility.yul\":2364:2399   */\n      eq\n        /* \"#utility.yul\":2354:2417   */\n      tag_548\n      jumpi\n        /* \"#utility.yul\":2413:2414   */\n      0x00\n        /* \"#utility.yul\":2410:2411   */\n      0x00\n        /* \"#utility.yul\":2403:2415   */\n      revert\n        /* \"#utility.yul\":2354:2417   */\n    tag_548:\n        /* \"#utility.yul\":2301:2423   */\n      pop\n      jump\t// out\n        /* \"#utility.yul\":2429:2568   */\n    tag_437:\n        /* \"#utility.yul\":2475:2480   */\n      0x00\n        /* \"#utility.yul\":2513:2519   */\n      dup2\n        /* \"#utility.yul\":2500:2520   */\n      calldataload\n        /* \"#utility.yul\":2491:2520   */\n      swap1\n      pop\n        /* \"#utility.yul\":2529:2562   */\n      tag_550\n        /* \"#utility.yul\":2556:2561   */\n      dup2\n        /* \"#utility.yul\":2529:2562   */\n      tag_436\n      jump\t// in\n    tag_550:\n        /* \"#utility.yul\":2429:2568   */\n      swap3\n      swap2\n      pop\n      pop\n      jump\t// out\n        /* \"#utility.yul\":2574:2903   */\n    tag_49:\n        /* \"#utility.yul\":2633:2639   */\n      0x00\n        /* \"#utility.yul\":2682:2684   */\n      0x20\n        /* \"#utility.yul\":2670:2679   */\n      dup3\n        /* \"#utility.yul\":2661:2668   */\n      dup5\n        /* \"#utility.yul\":2657:2680   */\n      sub\n        /* \"#utility.yul\":2653:2685   */\n      slt\n        /* \"#utility.yul\":2650:2769   */\n      iszero\n      tag_552\n      jumpi\n        /* \"#utility.yul\":2688:2767   */\n      tag_553\n      tag_429\n      jump\t// in\n    tag_553:\n        /* \"#utility.yul\":2650:2769   */\n    tag_552:\n        /* \"#utility.yul\":2808:2809   */\n      0x00\n        /* \"#utility.yul\":2833:2886   */\n      tag_554\n        /* \"#utility.yul\":2878:2885   */\n      dup5\n        /* \"#utility.yul\":2869:2875   */\n      dup3\n        /* \"#utility.yul\":2858:2867   */\n      dup6\n        /* \"#utility.yul\":2854:2876   */\n      add\n        /* \"#utility.yul\":2833:2886   */\n      tag_437\n      jump\t// in\n    tag_554:\n        /* \"#utility.yul\":2823:2886   */\n      swap2\n      pop\n        /* \"#utility.yul\":2779:2896   */\n      pop\n        /* \"#utility.yul\":2574:2903   */\n      swap3\n      swap2\n      pop\n      pop\n      jump\t// out\n        /* \"#utility.yul\":2909:2999   */\n    tag_438:\n        /* \"#utility.yul\":2943:2950   */\n      0x00\n        /* \"#utility.yul\":2986:2991   */\n      dup2\n        /* \"#utility.yul\":2979:2992   */\n      iszero\n        /* \"#utility.yul\":2972:2993   */\n      iszero\n        /* \"#utility.yul\":2961:2993   */\n      swap1\n      pop\n        /* \"#utility.yul\":2909:2999   */\n      swap2\n      swap1\n      pop\n      jump\t// out\n        /* \"#utility.yul\":3005:3114   */\n    tag_439:\n        /* \"#utility.yul\":3086:3107   */\n      tag_557\n        /* \"#utility.yul\":3101:3106   */\n      dup2\n        /* \"#utility.yul\":3086:3107   */\n      tag_438\n      jump\t// in\n    tag_557:\n        /* \"#utility.yul\":3081:3084   */\n      dup3\n        /* \"#utility.yul\":3074:3108   */\n      mstore\n        /* \"#utility.yul\":3005:3114   */\n      pop\n      pop\n      jump\t// out\n        /* \"#utility.yul\":3120:3330   */\n    tag_60:\n        /* \"#utility.yul\":3207:3211   */\n      0x00\n        /* \"#utility.yul\":3245:3247   */\n      0x20\n        /* \"#utility.yul\":3234:3243   */\n      dup3\n        /* \"#utility.yul\":3230:3248   */\n      add\n        /* \"#utility.yul\":3222:3248   */\n      swap1\n      pop\n        /* \"#utility.yul\":3258:3323   */\n      tag_559\n        /* \"#utility.yul\":3320:3321   */\n      0x00\n        /* \"#utility.yul\":3309:3318   */\n      dup4\n        /* \"#utility.yul\":3305:3322   */\n      add\n        /* \"#utility.yul\":3296:3302   */\n      dup5\n        /* \"#utility.yul\":3258:3323   */\n      tag_439\n      jump\t// in\n    tag_559:\n        /* \"#utility.yul\":3120:3330   */\n      swap3\n      swap2\n      pop\n      pop\n      jump\t// out\n        /* \"#utility.yul\":3336:3810   */\n    tag_64:\n        /* \"#utility.yul\":3404:3410   */\n      0x00\n        /* \"#utility.yul\":3412:3418   */\n      0x00\n        /* \"#utility.yul\":3461:3463   */\n      0x40\n        /* \"#utility.yul\":3449:3458   */\n      dup4\n        /* \"#utility.yul\":3440:3447   */\n      dup6\n        /* \"#utility.yul\":3436:3459   */\n      sub\n        /* \"#utility.yul\":3432:3464   */\n      slt\n        /* \"#utility.yul\":3429:3548   */\n      iszero\n      tag_561\n      jumpi\n        /* \"#utility.yul\":3467:3546   */\n      tag_562\n      tag_429\n      jump\t// in\n    tag_562:\n        /* \"#utility.yul\":3429:3548   */\n    tag_561:\n        /* \"#utility.yul\":3587:3588   */\n      0x00\n        /* \"#utility.yul\":3612:3665   */\n      tag_563\n        /* \"#utility.yul\":3657:3664   */\n      dup6\n        /* \"#utility.yul\":3648:3654   */\n      dup3\n        /* \"#utility.yul\":3637:3646   */\n      dup7\n        /* \"#utility.yul\":3633:3655   */\n      add\n        /* \"#utility.yul\":3612:3665   */\n      tag_437\n      jump\t// in\n    tag_563:\n        /* \"#utility.yul\":3602:3665   */\n      swap3\n      pop\n        /* \"#utility.yul\":3558:3675   */\n      pop\n        /* \"#utility.yul\":3714:3716   */\n      0x20\n        /* \"#utility.yul\":3740:3793   */\n      tag_564\n        /* \"#utility.yul\":3785:3792   */\n      dup6\n        /* \"#utility.yul\":3776:3782   */\n      dup3\n        /* \"#utility.yul\":3765:3774   */\n      dup7\n        /* \"#utility.yul\":3761:3783   */\n      add\n        /* \"#utility.yul\":3740:3793   */\n      tag_432\n      jump\t// in\n    tag_564:\n        /* \"#utility.yul\":3730:3793   */\n      swap2\n      pop\n        /* \"#utility.yul\":3685:3803   */\n      pop\n        /* \"#utility.yul\":3336:3810   */\n      swap3\n      pop\n      swap3\n      swap1\n      pop\n      jump\t// out\n        /* \"#utility.yul\":3816:3914   */\n    tag_440:\n        /* \"#utility.yul\":3867:3873   */\n      0x00\n        /* \"#utility.yul\":3901:3906   */\n      dup2\n        /* \"#utility.yul\":3895:3907   */\n      mload\n        /* \"#utility.yul\":3885:3907   */\n      swap1\n      pop\n        /* \"#utility.yul\":3816:3914   */\n      swap2\n      swap1\n      pop\n      jump\t// out\n        /* \"#utility.yul\":3920:4088   */\n    tag_441:\n        /* \"#utility.yul\":4003:4014   */\n      0x00\n        /* \"#utility.yul\":4037:4043   */\n      dup3\n        /* \"#utility.yul\":4032:4035   */\n      dup3\n        /* \"#utility.yul\":4025:4044   */\n      mstore\n        /* \"#utility.yul\":4077:4081   */\n      0x20\n        /* \"#utility.yul\":4072:4075   */\n      dup3\n        /* \"#utility.yul\":4068:4082   */\n      add\n        /* \"#utility.yul\":4053:4082   */\n      swap1\n      pop\n        /* \"#utility.yul\":3920:4088   */\n      swap3\n      swap2\n      pop\n      pop\n      jump\t// out\n        /* \"#utility.yul\":4094:4233   */\n    tag_442:\n        /* \"#utility.yul\":4183:4189   */\n      dup3\n        /* \"#utility.yul\":4178:4181   */\n      dup2\n        /* \"#utility.yul\":4173:4176   */\n      dup4\n        /* \"#utility.yul\":4167:4190   */\n      mcopy\n        /* \"#utility.yul\":4224:4225   */\n      0x00\n        /* \"#utility.yul\":4215:4221   */\n      dup4\n        /* \"#utility.yul\":4210:4213   */\n      dup4\n        /* \"#utility.yul\":4206:4222   */\n      add\n        /* \"#utility.yul\":4199:4226   */\n      mstore\n        /* \"#utility.yul\":4094:4233   */\n      pop\n      pop\n      pop\n      jump\t// out\n        /* \"#utility.yul\":4239:4341   */\n    tag_443:\n        /* \"#utility.yul\":4280:4286   */\n      0x00\n        /* \"#utility.yul\":4331:4333   */\n      0x1f\n        /* \"#utility.yul\":4327:4334   */\n      not\n        /* \"#utility.yul\":4322:4324   */\n      0x1f\n        /* \"#utility.yul\":4315:4320   */\n      dup4\n        /* \"#utility.yul\":4311:4325   */\n      add\n        /* \"#utility.yul\":4307:4335   */\n      and\n        /* \"#utility.yul\":4297:4335   */\n      swap1\n      pop\n        /* \"#utility.yul\":4239:4341   */\n      swap2\n      swap1\n      pop\n      jump\t// out\n        /* \"#utility.yul\":4347:4720   */\n    tag_444:\n        /* \"#utility.yul\":4433:4436   */\n      0x00\n        /* \"#utility.yul\":4461:4499   */\n      tag_570\n        /* \"#utility.yul\":4493:4498   */\n      dup3\n        /* \"#utility.yul\":4461:4499   */\n      tag_440\n      jump\t// in\n    tag_570:\n        /* \"#utility.yul\":4515:4585   */\n      tag_571\n        /* \"#utility.yul\":4578:4584   */\n      dup2\n        /* \"#utility.yul\":4573:4576   */\n      dup6\n        /* \"#utility.yul\":4515:4585   */\n      tag_441\n      jump\t// in\n    tag_571:\n        /* \"#utility.yul\":4508:4585   */\n      swap4\n      pop\n        /* \"#utility.yul\":4594:4659   */\n      tag_572\n        /* \"#utility.yul\":4652:4658   */\n      dup2\n        /* \"#utility.yul\":4647:4650   */\n      dup6\n        /* \"#utility.yul\":4640:4644   */\n      0x20\n        /* \"#utility.yul\":4633:4638   */\n      dup7\n        /* \"#utility.yul\":4629:4645   */\n      add\n        /* \"#utility.yul\":4594:4659   */\n      tag_442\n      jump\t// in\n    tag_572:\n        /* \"#utility.yul\":4684:4713   */\n      tag_573\n        /* \"#utility.yul\":4706:4712   */\n      dup2\n        /* \"#utility.yul\":4684:4713   */\n      tag_443\n      jump\t// in\n    tag_573:\n        /* \"#utility.yul\":4679:4682   */\n      dup5\n        /* \"#utility.yul\":4675:4714   */\n      add\n        /* \"#utility.yul\":4668:4714   */\n      swap2\n      pop\n        /* \"#utility.yul\":4437:4720   */\n      pop\n        /* \"#utility.yul\":4347:4720   */\n      swap3\n      swap2\n      pop\n      pop\n      jump\t// out\n        /* \"#utility.yul\":4726:5687   */\n    tag_71:\n        /* \"#utility.yul\":4999:5003   */\n      0x00\n        /* \"#utility.yul\":5037:5040   */\n      0xe0\n        /* \"#utility.yul\":5026:5035   */\n      dup3\n        /* \"#utility.yul\":5022:5041   */\n      add\n        /* \"#utility.yul\":5014:5041   */\n      swap1\n      pop\n        /* \"#utility.yul\":5051:5122   */\n      tag_575\n        /* \"#utility.yul\":5119:5120   */\n      0x00\n        /* \"#utility.yul\":5108:5117   */\n      dup4\n        /* \"#utility.yul\":5104:5121   */\n      add\n        /* \"#utility.yul\":5095:5101   */\n      dup11\n        /* \"#utility.yul\":5051:5122   */\n      tag_435\n      jump\t// in\n    tag_575:\n        /* \"#utility.yul\":5132:5204   */\n      tag_576\n        /* \"#utility.yul\":5200:5202   */\n      0x20\n        /* \"#utility.yul\":5189:5198   */\n      dup4\n        /* \"#utility.yul\":5185:5203   */\n      add\n        /* \"#utility.yul\":5176:5182   */\n      dup10\n        /* \"#utility.yul\":5132:5204   */\n      tag_427\n      jump\t// in\n    tag_576:\n        /* \"#utility.yul\":5251:5260   */\n      dup2\n        /* \"#utility.yul\":5245:5249   */\n      dup2\n        /* \"#utility.yul\":5241:5261   */\n      sub\n        /* \"#utility.yul\":5236:5238   */\n      0x40\n        /* \"#utility.yul\":5225:5234   */\n      dup4\n        /* \"#utility.yul\":5221:5239   */\n      add\n        /* \"#utility.yul\":5214:5262   */\n      mstore\n        /* \"#utility.yul\":5279:5355   */\n      tag_577\n        /* \"#utility.yul\":5350:5354   */\n      dup2\n        /* \"#utility.yul\":5341:5347   */\n      dup9\n        /* \"#utility.yul\":5279:5355   */\n      tag_444\n      jump\t// in\n    tag_577:\n        /* \"#utility.yul\":5271:5355   */\n      swap1\n      pop\n        /* \"#utility.yul\":5365:5431   */\n      tag_578\n        /* \"#utility.yul\":5427:5429   */\n      0x60\n        /* \"#utility.yul\":5416:5425   */\n      dup4\n        /* \"#utility.yul\":5412:5430   */\n      add\n        /* \"#utility.yul\":5403:5409   */\n      dup8\n        /* \"#utility.yul\":5365:5431   */\n      tag_439\n      jump\t// in\n    tag_578:\n        /* \"#utility.yul\":5441:5514   */\n      tag_579\n        /* \"#utility.yul\":5509:5512   */\n      0x80\n        /* \"#utility.yul\":5498:5507   */\n      dup4\n        /* \"#utility.yul\":5494:5513   */\n      add\n        /* \"#utility.yul\":5485:5491   */\n      dup7\n        /* \"#utility.yul\":5441:5514   */\n      tag_427\n      jump\t// in\n    tag_579:\n        /* \"#utility.yul\":5524:5597   */\n      tag_580\n        /* \"#utility.yul\":5592:5595   */\n      0xa0\n        /* \"#utility.yul\":5581:5590   */\n      dup4\n        /* \"#utility.yul\":5577:5596   */\n      add\n        /* \"#utility.yul\":5568:5574   */\n      dup6\n        /* \"#utility.yul\":5524:5597   */\n      tag_427\n      jump\t// in\n    tag_580:\n        /* \"#utility.yul\":5607:5680   */\n      tag_581\n        /* \"#utility.yul\":5675:5678   */\n      0xc0\n        /* \"#utility.yul\":5664:5673   */\n      dup4\n        /* \"#utility.yul\":5660:5679   */\n      add\n        /* \"#utility.yul\":5651:5657   */\n      dup5\n        /* \"#utility.yul\":5607:5680   */\n      tag_435\n      jump\t// in\n    tag_581:\n        /* \"#utility.yul\":4726:5687   */\n      swap9\n      swap8\n      pop\n      pop\n      pop\n      pop\n      pop\n      pop\n      pop\n      pop\n      jump\t// out\n        /* \"#utility.yul\":5693:5809   */\n    tag_445:\n        /* \"#utility.yul\":5763:5784   */\n      tag_583\n        /* \"#utility.yul\":5778:5783   */\n      dup2\n        /* \"#utility.yul\":5763:5784   */\n      tag_438\n      jump\t// in\n    tag_583:\n        /* \"#utility.yul\":5756:5761   */\n      dup2\n        /* \"#utility.yul\":5753:5785   */\n      eq\n        /* \"#utility.yul\":5743:5803   */\n      tag_584\n      jumpi\n        /* \"#utility.yul\":5799:5800   */\n      0x00\n        /* \"#utility.yul\":5796:5797   */\n      0x00\n        /* \"#utility.yul\":5789:5801   */\n      revert\n        /* \"#utility.yul\":5743:5803   */\n    tag_584:\n        /* \"#utility.yul\":5693:5809   */\n      pop\n      jump\t// out\n        /* \"#utility.yul\":5815:5948   */\n    tag_446:\n        /* \"#utility.yul\":5858:5863   */\n      0x00\n        /* \"#utility.yul\":5896:5902   */\n      dup2\n        /* \"#utility.yul\":5883:5903   */\n      calldataload\n        /* \"#utility.yul\":5874:5903   */\n      swap1\n      pop\n        /* \"#utility.yul\":5912:5942   */\n      tag_586\n        /* \"#utility.yul\":5936:5941   */\n      dup2\n        /* \"#utility.yul\":5912:5942   */\n      tag_445\n      jump\t// in\n    tag_586:\n        /* \"#utility.yul\":5815:5948   */\n      swap3\n      swap2\n      pop\n      pop\n      jump\t// out\n        /* \"#utility.yul\":5954:6416   */\n    tag_80:\n        /* \"#utility.yul\":6016:6022   */\n      0x00\n        /* \"#utility.yul\":6024:6030   */\n      0x00\n        /* \"#utility.yul\":6073:6075   */\n      0x40\n        /* \"#utility.yul\":6061:6070   */\n      dup4\n        /* \"#utility.yul\":6052:6059   */\n      dup6\n        /* \"#utility.yul\":6048:6071   */\n      sub\n        /* \"#utility.yul\":6044:6076   */\n      slt\n        /* \"#utility.yul\":6041:6160   */\n      iszero\n      tag_588\n      jumpi\n        /* \"#utility.yul\":6079:6158   */\n      tag_589\n      tag_429\n      jump\t// in\n    tag_589:\n        /* \"#utility.yul\":6041:6160   */\n    tag_588:\n        /* \"#utility.yul\":6199:6200   */\n      0x00\n        /* \"#utility.yul\":6224:6274   */\n      tag_590\n        /* \"#utility.yul\":6266:6273   */\n      dup6\n        /* \"#utility.yul\":6257:6263   */\n      dup3\n        /* \"#utility.yul\":6246:6255   */\n      dup7\n        /* \"#utility.yul\":6242:6264   */\n      add\n        /* \"#utility.yul\":6224:6274   */\n      tag_446\n      jump\t// in\n    tag_590:\n        /* \"#utility.yul\":6214:6274   */\n      swap3\n      pop\n        /* \"#utility.yul\":6170:6284   */\n      pop\n        /* \"#utility.yul\":6323:6325   */\n      0x20\n        /* \"#utility.yul\":6349:6399   */\n      tag_591\n        /* \"#utility.yul\":6391:6398   */\n      dup6\n        /* \"#utility.yul\":6382:6388   */\n      dup3\n        /* \"#utility.yul\":6371:6380   */\n      dup7\n        /* \"#utility.yul\":6367:6389   */\n      add\n        /* \"#utility.yul\":6349:6399   */\n      tag_446\n      jump\t// in\n    tag_591:\n        /* \"#utility.yul\":6339:6399   */\n      swap2\n      pop\n        /* \"#utility.yul\":6294:6409   */\n      pop\n        /* \"#utility.yul\":5954:6416   */\n      swap3\n      pop\n      swap3\n      swap1\n      pop\n      jump\t// out\n        /* \"#utility.yul\":6422:6539   */\n    tag_447:\n        /* \"#utility.yul\":6531:6532   */\n      0x00\n        /* \"#utility.yul\":6528:6529   */\n      0x00\n        /* \"#utility.yul\":6521:6533   */\n      revert\n        /* \"#utility.yul\":6545:6662   */\n    tag_448:\n        /* \"#utility.yul\":6654:6655   */\n      0x00\n        /* \"#utility.yul\":6651:6652   */\n      0x00\n        /* \"#utility.yul\":6644:6656   */\n      revert\n        /* \"#utility.yul\":6668:6848   */\n    tag_280:\n        /* \"#utility.yul\":6716:6793   */\n      0x4e487b7100000000000000000000000000000000000000000000000000000000\n        /* \"#utility.yul\":6713:6714   */\n      0x00\n        /* \"#utility.yul\":6706:6794   */\n      mstore\n        /* \"#utility.yul\":6813:6817   */\n      0x41\n        /* \"#utility.yul\":6810:6811   */\n      0x04\n        /* \"#utility.yul\":6803:6818   */\n      mstore\n        /* \"#utility.yul\":6837:6841   */\n      0x24\n        /* \"#utility.yul\":6834:6835   */\n      0x00\n        /* \"#utility.yul\":6827:6842   */\n      revert\n        /* \"#utility.yul\":6854:7135   */\n    tag_449:\n        /* \"#utility.yul\":6937:6964   */\n      tag_596\n        /* \"#utility.yul\":6959:6963   */\n      dup3\n        /* \"#utility.yul\":6937:6964   */\n      tag_443\n      jump\t// in\n    tag_596:\n        /* \"#utility.yul\":6929:6935   */\n      dup2\n        /* \"#utility.yul\":6925:6965   */\n      add\n        /* \"#utility.yul\":7067:7073   */\n      dup2\n        /* \"#utility.yul\":7055:7065   */\n      dup2\n        /* \"#utility.yul\":7052:7074   */\n      lt\n        /* \"#utility.yul\":7031:7049   */\n      0xffffffffffffffff\n        /* \"#utility.yul\":7019:7029   */\n      dup3\n        /* \"#utility.yul\":7016:7050   */\n      gt\n        /* \"#utility.yul\":7013:7075   */\n      or\n        /* \"#utility.yul\":7010:7098   */\n      iszero\n      tag_597\n      jumpi\n        /* \"#utility.yul\":7078:7096   */\n      tag_598\n      tag_280\n      jump\t// in\n    tag_598:\n        /* \"#utility.yul\":7010:7098   */\n    tag_597:\n        /* \"#utility.yul\":7118:7128   */\n      dup1\n        /* \"#utility.yul\":7114:7116   */\n      0x40\n        /* \"#utility.yul\":7107:7129   */\n      mstore\n        /* \"#utility.yul\":6897:7135   */\n      pop\n        /* \"#utility.yul\":6854:7135   */\n      pop\n      pop\n      jump\t// out\n        /* \"#utility.yul\":7141:7270   */\n    tag_450:\n        /* \"#utility.yul\":7175:7181   */\n      0x00\n        /* \"#utility.yul\":7202:7222   */\n      tag_600\n      tag_428\n      jump\t// in\n    tag_600:\n        /* \"#utility.yul\":7192:7222   */\n      swap1\n      pop\n        /* \"#utility.yul\":7231:7264   */\n      tag_601\n        /* \"#utility.yul\":7259:7263   */\n      dup3\n        /* \"#utility.yul\":7251:7257   */\n      dup3\n        /* \"#utility.yul\":7231:7264   */\n      tag_449\n      jump\t// in\n    tag_601:\n        /* \"#utility.yul\":7141:7270   */\n      swap2\n      swap1\n      pop\n      jump\t// out\n        /* \"#utility.yul\":7276:7583   */\n    tag_451:\n        /* \"#utility.yul\":7337:7341   */\n      0x00\n        /* \"#utility.yul\":7427:7445   */\n      0xffffffffffffffff\n        /* \"#utility.yul\":7419:7425   */\n      dup3\n        /* \"#utility.yul\":7416:7446   */\n      gt\n        /* \"#utility.yul\":7413:7469   */\n      iszero\n      tag_603\n      jumpi\n        /* \"#utility.yul\":7449:7467   */\n      tag_604\n      tag_280\n      jump\t// in\n    tag_604:\n        /* \"#utility.yul\":7413:7469   */\n    tag_603:\n        /* \"#utility.yul\":7487:7516   */\n      tag_605\n        /* \"#utility.yul\":7509:7515   */\n      dup3\n        /* \"#utility.yul\":7487:7516   */\n      tag_443\n      jump\t// in\n    tag_605:\n        /* \"#utility.yul\":7479:7516   */\n      swap1\n      pop\n        /* \"#utility.yul\":7571:7575   */\n      0x20\n        /* \"#utility.yul\":7565:7569   */\n      dup2\n        /* \"#utility.yul\":7561:7576   */\n      add\n        /* \"#utility.yul\":7553:7576   */\n      swap1\n      pop\n        /* \"#utility.yul\":7276:7583   */\n      swap2\n      swap1\n      pop\n      jump\t// out\n        /* \"#utility.yul\":7589:7737   */\n    tag_452:\n        /* \"#utility.yul\":7687:7693   */\n      dup3\n        /* \"#utility.yul\":7682:7685   */\n      dup2\n        /* \"#utility.yul\":7677:7680   */\n      dup4\n        /* \"#utility.yul\":7664:7694   */\n      calldatacopy\n        /* \"#utility.yul\":7728:7729   */\n      0x00\n        /* \"#utility.yul\":7719:7725   */\n      dup4\n        /* \"#utility.yul\":7714:7717   */\n      dup4\n        /* \"#utility.yul\":7710:7726   */\n      add\n        /* \"#utility.yul\":7703:7730   */\n      mstore\n        /* \"#utility.yul\":7589:7737   */\n      pop\n      pop\n      pop\n      jump\t// out\n        /* \"#utility.yul\":7743:8166   */\n    tag_453:\n        /* \"#utility.yul\":7820:7825   */\n      0x00\n        /* \"#utility.yul\":7845:7910   */\n      tag_608\n        /* \"#utility.yul\":7861:7909   */\n      tag_609\n        /* \"#utility.yul\":7902:7908   */\n      dup5\n        /* \"#utility.yul\":7861:7909   */\n      tag_451\n      jump\t// in\n    tag_609:\n        /* \"#utility.yul\":7845:7910   */\n      tag_450\n      jump\t// in\n    tag_608:\n        /* \"#utility.yul\":7836:7910   */\n      swap1\n      pop\n        /* \"#utility.yul\":7933:7939   */\n      dup3\n        /* \"#utility.yul\":7926:7931   */\n      dup2\n        /* \"#utility.yul\":7919:7940   */\n      mstore\n        /* \"#utility.yul\":7971:7975   */\n      0x20\n        /* \"#utility.yul\":7964:7969   */\n      dup2\n        /* \"#utility.yul\":7960:7976   */\n      add\n        /* \"#utility.yul\":8009:8012   */\n      dup5\n        /* \"#utility.yul\":8000:8006   */\n      dup5\n        /* \"#utility.yul\":7995:7998   */\n      dup5\n        /* \"#utility.yul\":7991:8007   */\n      add\n        /* \"#utility.yul\":7988:8013   */\n      gt\n        /* \"#utility.yul\":7985:8097   */\n      iszero\n      tag_610\n      jumpi\n        /* \"#utility.yul\":8016:8095   */\n      tag_611\n      tag_448\n      jump\t// in\n    tag_611:\n        /* \"#utility.yul\":7985:8097   */\n    tag_610:\n        /* \"#utility.yul\":8106:8160   */\n      tag_612\n        /* \"#utility.yul\":8153:8159   */\n      dup5\n        /* \"#utility.yul\":8148:8151   */\n      dup3\n        /* \"#utility.yul\":8143:8146   */\n      dup6\n        /* \"#utility.yul\":8106:8160   */\n      tag_452\n      jump\t// in\n    tag_612:\n        /* \"#utility.yul\":7826:8166   */\n      pop\n        /* \"#utility.yul\":7743:8166   */\n      swap4\n      swap3\n      pop\n      pop\n      pop\n      jump\t// out\n        /* \"#utility.yul\":8185:8523   */\n    tag_454:\n        /* \"#utility.yul\":8240:8245   */\n      0x00\n        /* \"#utility.yul\":8289:8292   */\n      dup3\n        /* \"#utility.yul\":8282:8286   */\n      0x1f\n        /* \"#utility.yul\":8274:8280   */\n      dup4\n        /* \"#utility.yul\":8270:8287   */\n      add\n        /* \"#utility.yul\":8266:8293   */\n      slt\n        /* \"#utility.yul\":8256:8378   */\n      tag_614\n      jumpi\n        /* \"#utility.yul\":8297:8376   */\n      tag_615\n      tag_447\n      jump\t// in\n    tag_615:\n        /* \"#utility.yul\":8256:8378   */\n    tag_614:\n        /* \"#utility.yul\":8414:8420   */\n      dup2\n        /* \"#utility.yul\":8401:8421   */\n      calldataload\n        /* \"#utility.yul\":8439:8517   */\n      tag_616\n        /* \"#utility.yul\":8513:8516   */\n      dup5\n        /* \"#utility.yul\":8505:8511   */\n      dup3\n        /* \"#utility.yul\":8498:8502   */\n      0x20\n        /* \"#utility.yul\":8490:8496   */\n      dup7\n        /* \"#utility.yul\":8486:8503   */\n      add\n        /* \"#utility.yul\":8439:8517   */\n      tag_453\n      jump\t// in\n    tag_616:\n        /* \"#utility.yul\":8430:8517   */\n      swap2\n      pop\n        /* \"#utility.yul\":8246:8523   */\n      pop\n        /* \"#utility.yul\":8185:8523   */\n      swap3\n      swap2\n      pop\n      pop\n      jump\t// out\n        /* \"#utility.yul\":8529:9472   */\n    tag_86:\n        /* \"#utility.yul\":8624:8630   */\n      0x00\n        /* \"#utility.yul\":8632:8638   */\n      0x00\n        /* \"#utility.yul\":8640:8646   */\n      0x00\n        /* \"#utility.yul\":8648:8654   */\n      0x00\n        /* \"#utility.yul\":8697:8700   */\n      0x80\n        /* \"#utility.yul\":8685:8694   */\n      dup6\n        /* \"#utility.yul\":8676:8683   */\n      dup8\n        /* \"#utility.yul\":8672:8695   */\n      sub\n        /* \"#utility.yul\":8668:8701   */\n      slt\n        /* \"#utility.yul\":8665:8785   */\n      iszero\n      tag_618\n      jumpi\n        /* \"#utility.yul\":8704:8783   */\n      tag_619\n      tag_429\n      jump\t// in\n    tag_619:\n        /* \"#utility.yul\":8665:8785   */\n    tag_618:\n        /* \"#utility.yul\":8824:8825   */\n      0x00\n        /* \"#utility.yul\":8849:8902   */\n      tag_620\n        /* \"#utility.yul\":8894:8901   */\n      dup8\n        /* \"#utility.yul\":8885:8891   */\n      dup3\n        /* \"#utility.yul\":8874:8883   */\n      dup9\n        /* \"#utility.yul\":8870:8892   */\n      add\n        /* \"#utility.yul\":8849:8902   */\n      tag_437\n      jump\t// in\n    tag_620:\n        /* \"#utility.yul\":8839:8902   */\n      swap5\n      pop\n        /* \"#utility.yul\":8795:8912   */\n      pop\n        /* \"#utility.yul\":8951:8953   */\n      0x20\n        /* \"#utility.yul\":8977:9030   */\n      tag_621\n        /* \"#utility.yul\":9022:9029   */\n      dup8\n        /* \"#utility.yul\":9013:9019   */\n      dup3\n        /* \"#utility.yul\":9002:9011   */\n      dup9\n        /* \"#utility.yul\":8998:9020   */\n      add\n        /* \"#utility.yul\":8977:9030   */\n      tag_432\n      jump\t// in\n    tag_621:\n        /* \"#utility.yul\":8967:9030   */\n      swap4\n      pop\n        /* \"#utility.yul\":8922:9040   */\n      pop\n        /* \"#utility.yul\":9107:9109   */\n      0x40\n        /* \"#utility.yul\":9096:9105   */\n      dup6\n        /* \"#utility.yul\":9092:9110   */\n      add\n        /* \"#utility.yul\":9079:9111   */\n      calldataload\n        /* \"#utility.yul\":9138:9156   */\n      0xffffffffffffffff\n        /* \"#utility.yul\":9130:9136   */\n      dup2\n        /* \"#utility.yul\":9127:9157   */\n      gt\n        /* \"#utility.yul\":9124:9241   */\n      iszero\n      tag_622\n      jumpi\n        /* \"#utility.yul\":9160:9239   */\n      tag_623\n      tag_430\n      jump\t// in\n    tag_623:\n        /* \"#utility.yul\":9124:9241   */\n    tag_622:\n        /* \"#utility.yul\":9265:9327   */\n      tag_624\n        /* \"#utility.yul\":9319:9326   */\n      dup8\n        /* \"#utility.yul\":9310:9316   */\n      dup3\n        /* \"#utility.yul\":9299:9308   */\n      dup9\n        /* \"#utility.yul\":9295:9317   */\n      add\n        /* \"#utility.yul\":9265:9327   */\n      tag_454\n      jump\t// in\n    tag_624:\n        /* \"#utility.yul\":9255:9327   */\n      swap3\n      pop\n        /* \"#utility.yul\":9050:9337   */\n      pop\n        /* \"#utility.yul\":9376:9378   */\n      0x60\n        /* \"#utility.yul\":9402:9455   */\n      tag_625\n        /* \"#utility.yul\":9447:9454   */\n      dup8\n        /* \"#utility.yul\":9438:9444   */\n      dup3\n        /* \"#utility.yul\":9427:9436   */\n      dup9\n        /* \"#utility.yul\":9423:9445   */\n      add\n        /* \"#utility.yul\":9402:9455   */\n      tag_437\n      jump\t// in\n    tag_625:\n        /* \"#utility.yul\":9392:9455   */\n      swap2\n      pop\n        /* \"#utility.yul\":9347:9465   */\n      pop\n        /* \"#utility.yul\":8529:9472   */\n      swap3\n      swap6\n      swap2\n      swap5\n      pop\n      swap3\n      pop\n      jump\t// out\n        /* \"#utility.yul\":9478:9952   */\n    tag_96:\n        /* \"#utility.yul\":9546:9552   */\n      0x00\n        /* \"#utility.yul\":9554:9560   */\n      0x00\n        /* \"#utility.yul\":9603:9605   */\n      0x40\n        /* \"#utility.yul\":9591:9600   */\n      dup4\n        /* \"#utility.yul\":9582:9589   */\n      dup6\n        /* \"#utility.yul\":9578:9601   */\n      sub\n        /* \"#utility.yul\":9574:9606   */\n      slt\n        /* \"#utility.yul\":9571:9690   */\n      iszero\n      tag_627\n      jumpi\n        /* \"#utility.yul\":9609:9688   */\n      tag_628\n      tag_429\n      jump\t// in\n    tag_628:\n        /* \"#utility.yul\":9571:9690   */\n    tag_627:\n        /* \"#utility.yul\":9729:9730   */\n      0x00\n        /* \"#utility.yul\":9754:9807   */\n      tag_629\n        /* \"#utility.yul\":9799:9806   */\n      dup6\n        /* \"#utility.yul\":9790:9796   */\n      dup3\n        /* \"#utility.yul\":9779:9788   */\n      dup7\n        /* \"#utility.yul\":9775:9797   */\n      add\n        /* \"#utility.yul\":9754:9807   */\n      tag_432\n      jump\t// in\n    tag_629:\n        /* \"#utility.yul\":9744:9807   */\n      swap3\n      pop\n        /* \"#utility.yul\":9700:9817   */\n      pop\n        /* \"#utility.yul\":9856:9858   */\n      0x20\n        /* \"#utility.yul\":9882:9935   */\n      tag_630\n        /* \"#utility.yul\":9927:9934   */\n      dup6\n        /* \"#utility.yul\":9918:9924   */\n      dup3\n        /* \"#utility.yul\":9907:9916   */\n      dup7\n        /* \"#utility.yul\":9903:9925   */\n      add\n        /* \"#utility.yul\":9882:9935   */\n      tag_437\n      jump\t// in\n    tag_630:\n        /* \"#utility.yul\":9872:9935   */\n      swap2\n      pop\n        /* \"#utility.yul\":9827:9945   */\n      pop\n        /* \"#utility.yul\":9478:9952   */\n      swap3\n      pop\n      swap3\n      swap1\n      pop\n      jump\t// out\n        /* \"#utility.yul\":9958:10072   */\n    tag_455:\n        /* \"#utility.yul\":10025:10031   */\n      0x00\n        /* \"#utility.yul\":10059:10064   */\n      dup2\n        /* \"#utility.yul\":10053:10065   */\n      mload\n        /* \"#utility.yul\":10043:10065   */\n      swap1\n      pop\n        /* \"#utility.yul\":9958:10072   */\n      swap2\n      swap1\n      pop\n      jump\t// out\n        /* \"#utility.yul\":10078:10262   */\n    tag_456:\n        /* \"#utility.yul\":10177:10188   */\n      0x00\n        /* \"#utility.yul\":10211:10217   */\n      dup3\n        /* \"#utility.yul\":10206:10209   */\n      dup3\n        /* \"#utility.yul\":10199:10218   */\n      mstore\n        /* \"#utility.yul\":10251:10255   */\n      0x20\n        /* \"#utility.yul\":10246:10249   */\n      dup3\n        /* \"#utility.yul\":10242:10256   */\n      add\n        /* \"#utility.yul\":10227:10256   */\n      swap1\n      pop\n        /* \"#utility.yul\":10078:10262   */\n      swap3\n      swap2\n      pop\n      pop\n      jump\t// out\n        /* \"#utility.yul\":10268:10400   */\n    tag_457:\n        /* \"#utility.yul\":10335:10339   */\n      0x00\n        /* \"#utility.yul\":10358:10361   */\n      dup2\n        /* \"#utility.yul\":10350:10361   */\n      swap1\n      pop\n        /* \"#utility.yul\":10388:10392   */\n      0x20\n        /* \"#utility.yul\":10383:10386   */\n      dup3\n        /* \"#utility.yul\":10379:10393   */\n      add\n        /* \"#utility.yul\":10371:10393   */\n      swap1\n      pop\n        /* \"#utility.yul\":10268:10400   */\n      swap2\n      swap1\n      pop\n      jump\t// out\n        /* \"#utility.yul\":10406:10514   */\n    tag_458:\n        /* \"#utility.yul\":10483:10507   */\n      tag_635\n        /* \"#utility.yul\":10501:10506   */\n      dup2\n        /* \"#utility.yul\":10483:10507   */\n      tag_434\n      jump\t// in\n    tag_635:\n        /* \"#utility.yul\":10478:10481   */\n      dup3\n        /* \"#utility.yul\":10471:10508   */\n      mstore\n        /* \"#utility.yul\":10406:10514   */\n      pop\n      pop\n      jump\t// out\n        /* \"#utility.yul\":10520:10699   */\n    tag_459:\n        /* \"#utility.yul\":10589:10599   */\n      0x00\n        /* \"#utility.yul\":10610:10656   */\n      tag_637\n        /* \"#utility.yul\":10652:10655   */\n      dup4\n        /* \"#utility.yul\":10644:10650   */\n      dup4\n        /* \"#utility.yul\":10610:10656   */\n      tag_458\n      jump\t// in\n    tag_637:\n        /* \"#utility.yul\":10688:10692   */\n      0x20\n        /* \"#utility.yul\":10683:10686   */\n      dup4\n        /* \"#utility.yul\":10679:10693   */\n      add\n        /* \"#utility.yul\":10665:10693   */\n      swap1\n      pop\n        /* \"#utility.yul\":10520:10699   */\n      swap3\n      swap2\n      pop\n      pop\n      jump\t// out\n        /* \"#utility.yul\":10705:10818   */\n    tag_460:\n        /* \"#utility.yul\":10775:10779   */\n      0x00\n        /* \"#utility.yul\":10807:10811   */\n      0x20\n        /* \"#utility.yul\":10802:10805   */\n      dup3\n        /* \"#utility.yul\":10798:10812   */\n      add\n        /* \"#utility.yul\":10790:10812   */\n      swap1\n      pop\n        /* \"#utility.yul\":10705:10818   */\n      swap2\n      swap1\n      pop\n      jump\t// out\n        /* \"#utility.yul\":10854:11586   */\n    tag_461:\n        /* \"#utility.yul\":10973:10976   */\n      0x00\n        /* \"#utility.yul\":11002:11056   */\n      tag_640\n        /* \"#utility.yul\":11050:11055   */\n      dup3\n        /* \"#utility.yul\":11002:11056   */\n      tag_455\n      jump\t// in\n    tag_640:\n        /* \"#utility.yul\":11072:11158   */\n      tag_641\n        /* \"#utility.yul\":11151:11157   */\n      dup2\n        /* \"#utility.yul\":11146:11149   */\n      dup6\n        /* \"#utility.yul\":11072:11158   */\n      tag_456\n      jump\t// in\n    tag_641:\n        /* \"#utility.yul\":11065:11158   */\n      swap4\n      pop\n        /* \"#utility.yul\":11182:11238   */\n      tag_642\n        /* \"#utility.yul\":11232:11237   */\n      dup4\n        /* \"#utility.yul\":11182:11238   */\n      tag_457\n      jump\t// in\n    tag_642:\n        /* \"#utility.yul\":11261:11268   */\n      dup1\n        /* \"#utility.yul\":11292:11293   */\n      0x00\n        /* \"#utility.yul\":11277:11561   */\n    tag_643:\n        /* \"#utility.yul\":11302:11308   */\n      dup4\n        /* \"#utility.yul\":11299:11300   */\n      dup2\n        /* \"#utility.yul\":11296:11309   */\n      lt\n        /* \"#utility.yul\":11277:11561   */\n      iszero\n      tag_645\n      jumpi\n        /* \"#utility.yul\":11378:11384   */\n      dup2\n        /* \"#utility.yul\":11372:11385   */\n      mload\n        /* \"#utility.yul\":11405:11468   */\n      tag_646\n        /* \"#utility.yul\":11464:11467   */\n      dup9\n        /* \"#utility.yul\":11449:11462   */\n      dup3\n        /* \"#utility.yul\":11405:11468   */\n      tag_459\n      jump\t// in\n    tag_646:\n        /* \"#utility.yul\":11398:11468   */\n      swap8\n      pop\n        /* \"#utility.yul\":11491:11551   */\n      tag_647\n        /* \"#utility.yul\":11544:11550   */\n      dup4\n        /* \"#utility.yul\":11491:11551   */\n      tag_460\n      jump\t// in\n    tag_647:\n        /* \"#utility.yul\":11481:11551   */\n      swap3\n      pop\n        /* \"#utility.yul\":11337:11561   */\n      pop\n        /* \"#utility.yul\":11324:11325   */\n      0x01\n        /* \"#utility.yul\":11321:11322   */\n      dup2\n        /* \"#utility.yul\":11317:11326   */\n      add\n        /* \"#utility.yul\":11312:11326   */\n      swap1\n      pop\n        /* \"#utility.yul\":11277:11561   */\n      jump(tag_643)\n    tag_645:\n        /* \"#utility.yul\":11281:11295   */\n      pop\n        /* \"#utility.yul\":11577:11580   */\n      dup6\n        /* \"#utility.yul\":11570:11580   */\n      swap4\n      pop\n        /* \"#utility.yul\":10978:11586   */\n      pop\n      pop\n      pop\n        /* \"#utility.yul\":10854:11586   */\n      swap3\n      swap2\n      pop\n      pop\n      jump\t// out\n        /* \"#utility.yul\":11592:11965   */\n    tag_113:\n        /* \"#utility.yul\":11735:11739   */\n      0x00\n        /* \"#utility.yul\":11773:11775   */\n      0x20\n        /* \"#utility.yul\":11762:11771   */\n      dup3\n        /* \"#utility.yul\":11758:11776   */\n      add\n        /* \"#utility.yul\":11750:11776   */\n      swap1\n      pop\n        /* \"#utility.yul\":11822:11831   */\n      dup2\n        /* \"#utility.yul\":11816:11820   */\n      dup2\n        /* \"#utility.yul\":11812:11832   */\n      sub\n        /* \"#utility.yul\":11808:11809   */\n      0x00\n        /* \"#utility.yul\":11797:11806   */\n      dup4\n        /* \"#utility.yul\":11793:11810   */\n      add\n        /* \"#utility.yul\":11786:11833   */\n      mstore\n        /* \"#utility.yul\":11850:11958   */\n      tag_649\n        /* \"#utility.yul\":11953:11957   */\n      dup2\n        /* \"#utility.yul\":11944:11950   */\n      dup5\n        /* \"#utility.yul\":11850:11958   */\n      tag_461\n      jump\t// in\n    tag_649:\n        /* \"#utility.yul\":11842:11958   */\n      swap1\n      pop\n        /* \"#utility.yul\":11592:11965   */\n      swap3\n      swap2\n      pop\n      pop\n      jump\t// out\n        /* \"#utility.yul\":11971:12724   */\n    tag_117:\n        /* \"#utility.yul\":12051:12057   */\n      0x00\n        /* \"#utility.yul\":12059:12065   */\n      0x00\n        /* \"#utility.yul\":12067:12073   */\n      0x00\n        /* \"#utility.yul\":12075:12081   */\n      0x00\n        /* \"#utility.yul\":12124:12127   */\n      0x80\n        /* \"#utility.yul\":12112:12121   */\n      dup6\n        /* \"#utility.yul\":12103:12110   */\n      dup8\n        /* \"#utility.yul\":12099:12122   */\n      sub\n        /* \"#utility.yul\":12095:12128   */\n      slt\n        /* \"#utility.yul\":12092:12212   */\n      iszero\n      tag_651\n      jumpi\n        /* \"#utility.yul\":12131:12210   */\n      tag_652\n      tag_429\n      jump\t// in\n    tag_652:\n        /* \"#utility.yul\":12092:12212   */\n    tag_651:\n        /* \"#utility.yul\":12251:12252   */\n      0x00\n        /* \"#utility.yul\":12276:12329   */\n      tag_653\n        /* \"#utility.yul\":12321:12328   */\n      dup8\n        /* \"#utility.yul\":12312:12318   */\n      dup3\n        /* \"#utility.yul\":12301:12310   */\n      dup9\n        /* \"#utility.yul\":12297:12319   */\n      add\n        /* \"#utility.yul\":12276:12329   */\n      tag_432\n      jump\t// in\n    tag_653:\n        /* \"#utility.yul\":12266:12329   */\n      swap5\n      pop\n        /* \"#utility.yul\":12222:12339   */\n      pop\n        /* \"#utility.yul\":12378:12380   */\n      0x20\n        /* \"#utility.yul\":12404:12457   */\n      tag_654\n        /* \"#utility.yul\":12449:12456   */\n      dup8\n        /* \"#utility.yul\":12440:12446   */\n      dup3\n        /* \"#utility.yul\":12429:12438   */\n      dup9\n        /* \"#utility.yul\":12425:12447   */\n      add\n        /* \"#utility.yul\":12404:12457   */\n      tag_432\n      jump\t// in\n    tag_654:\n        /* \"#utility.yul\":12394:12457   */\n      swap4\n      pop\n        /* \"#utility.yul\":12349:12467   */\n      pop\n        /* \"#utility.yul\":12506:12508   */\n      0x40\n        /* \"#utility.yul\":12532:12582   */\n      tag_655\n        /* \"#utility.yul\":12574:12581   */\n      dup8\n        /* \"#utility.yul\":12565:12571   */\n      dup3\n        /* \"#utility.yul\":12554:12563   */\n      dup9\n        /* \"#utility.yul\":12550:12572   */\n      add\n        /* \"#utility.yul\":12532:12582   */\n      tag_446\n      jump\t// in\n    tag_655:\n        /* \"#utility.yul\":12522:12582   */\n      swap3\n      pop\n        /* \"#utility.yul\":12477:12592   */\n      pop\n        /* \"#utility.yul\":12631:12633   */\n      0x60\n        /* \"#utility.yul\":12657:12707   */\n      tag_656\n        /* \"#utility.yul\":12699:12706   */\n      dup8\n        /* \"#utility.yul\":12690:12696   */\n      dup3\n        /* \"#utility.yul\":12679:12688   */\n      dup9\n        /* \"#utility.yul\":12675:12697   */\n      add\n        /* \"#utility.yul\":12657:12707   */\n      tag_446\n      jump\t// in\n    tag_656:\n        /* \"#utility.yul\":12647:12707   */\n      swap2\n      pop\n        /* \"#utility.yul\":12602:12717   */\n      pop\n        /* \"#utility.yul\":11971:12724   */\n      swap3\n      swap6\n      swap2\n      swap5\n      pop\n      swap3\n      pop\n      jump\t// out\n        /* \"#utility.yul\":12730:12844   */\n    tag_462:\n        /* \"#utility.yul\":12797:12803   */\n      0x00\n        /* \"#utility.yul\":12831:12836   */\n      dup2\n        /* \"#utility.yul\":12825:12837   */\n      mload\n        /* \"#utility.yul\":12815:12837   */\n      swap1\n      pop\n        /* \"#utility.yul\":12730:12844   */\n      swap2\n      swap1\n      pop\n      jump\t// out\n        /* \"#utility.yul\":12850:13034   */\n    tag_463:\n        /* \"#utility.yul\":12949:12960   */\n      0x00\n        /* \"#utility.yul\":12983:12989   */\n      dup3\n        /* \"#utility.yul\":12978:12981   */\n      dup3\n        /* \"#utility.yul\":12971:12990   */\n      mstore\n        /* \"#utility.yul\":13023:13027   */\n      0x20\n        /* \"#utility.yul\":13018:13021   */\n      dup3\n        /* \"#utility.yul\":13014:13028   */\n      add\n        /* \"#utility.yul\":12999:13028   */\n      swap1\n      pop\n        /* \"#utility.yul\":12850:13034   */\n      swap3\n      swap2\n      pop\n      pop\n      jump\t// out\n        /* \"#utility.yul\":13040:13172   */\n    tag_464:\n        /* \"#utility.yul\":13107:13111   */\n      0x00\n        /* \"#utility.yul\":13130:13133   */\n      dup2\n        /* \"#utility.yul\":13122:13133   */\n      swap1\n      pop\n        /* \"#utility.yul\":13160:13164   */\n      0x20\n        /* \"#utility.yul\":13155:13158   */\n      dup3\n        /* \"#utility.yul\":13151:13165   */\n      add\n        /* \"#utility.yul\":13143:13165   */\n      swap1\n      pop\n        /* \"#utility.yul\":13040:13172   */\n      swap2\n      swap1\n      pop\n      jump\t// out\n        /* \"#utility.yul\":13178:13286   */\n    tag_465:\n        /* \"#utility.yul\":13255:13279   */\n      tag_661\n        /* \"#utility.yul\":13273:13278   */\n      dup2\n        /* \"#utility.yul\":13255:13279   */\n      tag_426\n      jump\t// in\n    tag_661:\n        /* \"#utility.yul\":13250:13253   */\n      dup3\n        /* \"#utility.yul\":13243:13280   */\n      mstore\n        /* \"#utility.yul\":13178:13286   */\n      pop\n      pop\n      jump\t// out\n        /* \"#utility.yul\":13292:13471   */\n    tag_466:\n        /* \"#utility.yul\":13361:13371   */\n      0x00\n        /* \"#utility.yul\":13382:13428   */\n      tag_663\n        /* \"#utility.yul\":13424:13427   */\n      dup4\n        /* \"#utility.yul\":13416:13422   */\n      dup4\n        /* \"#utility.yul\":13382:13428   */\n      tag_465\n      jump\t// in\n    tag_663:\n        /* \"#utility.yul\":13460:13464   */\n      0x20\n        /* \"#utility.yul\":13455:13458   */\n      dup4\n        /* \"#utility.yul\":13451:13465   */\n      add\n        /* \"#utility.yul\":13437:13465   */\n      swap1\n      pop\n        /* \"#utility.yul\":13292:13471   */\n      swap3\n      swap2\n      pop\n      pop\n      jump\t// out\n        /* \"#utility.yul\":13477:13590   */\n    tag_467:\n        /* \"#utility.yul\":13547:13551   */\n      0x00\n        /* \"#utility.yul\":13579:13583   */\n      0x20\n        /* \"#utility.yul\":13574:13577   */\n      dup3\n        /* \"#utility.yul\":13570:13584   */\n      add\n        /* \"#utility.yul\":13562:13584   */\n      swap1\n      pop\n        /* \"#utility.yul\":13477:13590   */\n      swap2\n      swap1\n      pop\n      jump\t// out\n        /* \"#utility.yul\":13626:14358   */\n    tag_468:\n        /* \"#utility.yul\":13745:13748   */\n      0x00\n        /* \"#utility.yul\":13774:13828   */\n      tag_666\n        /* \"#utility.yul\":13822:13827   */\n      dup3\n        /* \"#utility.yul\":13774:13828   */\n      tag_462\n      jump\t// in\n    tag_666:\n        /* \"#utility.yul\":13844:13930   */\n      tag_667\n        /* \"#utility.yul\":13923:13929   */\n      dup2\n        /* \"#utility.yul\":13918:13921   */\n      dup6\n        /* \"#utility.yul\":13844:13930   */\n      tag_463\n      jump\t// in\n    tag_667:\n        /* \"#utility.yul\":13837:13930   */\n      swap4\n      pop\n        /* \"#utility.yul\":13954:14010   */\n      tag_668\n        /* \"#utility.yul\":14004:14009   */\n      dup4\n        /* \"#utility.yul\":13954:14010   */\n      tag_464\n      jump\t// in\n    tag_668:\n        /* \"#utility.yul\":14033:14040   */\n      dup1\n        /* \"#utility.yul\":14064:14065   */\n      0x00\n        /* \"#utility.yul\":14049:14333   */\n    tag_669:\n        /* \"#utility.yul\":14074:14080   */\n      dup4\n        /* \"#utility.yul\":14071:14072   */\n      dup2\n        /* \"#utility.yul\":14068:14081   */\n      lt\n        /* \"#utility.yul\":14049:14333   */\n      iszero\n      tag_671\n      jumpi\n        /* \"#utility.yul\":14150:14156   */\n      dup2\n        /* \"#utility.yul\":14144:14157   */\n      mload\n        /* \"#utility.yul\":14177:14240   */\n      tag_672\n        /* \"#utility.yul\":14236:14239   */\n      dup9\n        /* \"#utility.yul\":14221:14234   */\n      dup3\n        /* \"#utility.yul\":14177:14240   */\n      tag_466\n      jump\t// in\n    tag_672:\n        /* \"#utility.yul\":14170:14240   */\n      swap8\n      pop\n        /* \"#utility.yul\":14263:14323   */\n      tag_673\n        /* \"#utility.yul\":14316:14322   */\n      dup4\n        /* \"#utility.yul\":14263:14323   */\n      tag_467\n      jump\t// in\n    tag_673:\n        /* \"#utility.yul\":14253:14323   */\n      swap3\n      pop\n        /* \"#utility.yul\":14109:14333   */\n      pop\n        /* \"#utility.yul\":14096:14097   */\n      0x01\n        /* \"#utility.yul\":14093:14094   */\n      dup2\n        /* \"#utility.yul\":14089:14098   */\n      add\n        /* \"#utility.yul\":14084:14098   */\n      swap1\n      pop\n        /* \"#utility.yul\":14049:14333   */\n      jump(tag_669)\n    tag_671:\n        /* \"#utility.yul\":14053:14067   */\n      pop\n        /* \"#utility.yul\":14349:14352   */\n      dup6\n        /* \"#utility.yul\":14342:14352   */\n      swap4\n      pop\n        /* \"#utility.yul\":13750:14358   */\n      pop\n      pop\n      pop\n        /* \"#utility.yul\":13626:14358   */\n      swap3\n      swap2\n      pop\n      pop\n      jump\t// out\n        /* \"#utility.yul\":14364:14737   */\n    tag_120:\n        /* \"#utility.yul\":14507:14511   */\n      0x00\n        /* \"#utility.yul\":14545:14547   */\n      0x20\n        /* \"#utility.yul\":14534:14543   */\n      dup3\n        /* \"#utility.yul\":14530:14548   */\n      add\n        /* \"#utility.yul\":14522:14548   */\n      swap1\n      pop\n        /* \"#utility.yul\":14594:14603   */\n      dup2\n        /* \"#utility.yul\":14588:14592   */\n      dup2\n        /* \"#utility.yul\":14584:14604   */\n      sub\n        /* \"#utility.yul\":14580:14581   */\n      0x00\n        /* \"#utility.yul\":14569:14578   */\n      dup4\n        /* \"#utility.yul\":14565:14582   */\n      add\n        /* \"#utility.yul\":14558:14605   */\n      mstore\n        /* \"#utility.yul\":14622:14730   */\n      tag_675\n        /* \"#utility.yul\":14725:14729   */\n      dup2\n        /* \"#utility.yul\":14716:14722   */\n      dup5\n        /* \"#utility.yul\":14622:14730   */\n      tag_468\n      jump\t// in\n    tag_675:\n        /* \"#utility.yul\":14614:14730   */\n      swap1\n      pop\n        /* \"#utility.yul\":14364:14737   */\n      swap3\n      swap2\n      pop\n      pop\n      jump\t// out\n        /* \"#utility.yul\":14743:15217   */\n    tag_145:\n        /* \"#utility.yul\":14811:14817   */\n      0x00\n        /* \"#utility.yul\":14819:14825   */\n      0x00\n        /* \"#utility.yul\":14868:14870   */\n      0x40\n        /* \"#utility.yul\":14856:14865   */\n      dup4\n        /* \"#utility.yul\":14847:14854   */\n      dup6\n        /* \"#utility.yul\":14843:14866   */\n      sub\n        /* \"#utility.yul\":14839:14871   */\n      slt\n        /* \"#utility.yul\":14836:14955   */\n      iszero\n      tag_677\n      jumpi\n        /* \"#utility.yul\":14874:14953   */\n      tag_678\n      tag_429\n      jump\t// in\n    tag_678:\n        /* \"#utility.yul\":14836:14955   */\n    tag_677:\n        /* \"#utility.yul\":14994:14995   */\n      0x00\n        /* \"#utility.yul\":15019:15072   */\n      tag_679\n        /* \"#utility.yul\":15064:15071   */\n      dup6\n        /* \"#utility.yul\":15055:15061   */\n      dup3\n        /* \"#utility.yul\":15044:15053   */\n      dup7\n        /* \"#utility.yul\":15040:15062   */\n      add\n        /* \"#utility.yul\":15019:15072   */\n      tag_437\n      jump\t// in\n    tag_679:\n        /* \"#utility.yul\":15009:15072   */\n      swap3\n      pop\n        /* \"#utility.yul\":14965:15082   */\n      pop\n        /* \"#utility.yul\":15121:15123   */\n      0x20\n        /* \"#utility.yul\":15147:15200   */\n      tag_680\n        /* \"#utility.yul\":15192:15199   */\n      dup6\n        /* \"#utility.yul\":15183:15189   */\n      dup3\n        /* \"#utility.yul\":15172:15181   */\n      dup7\n        /* \"#utility.yul\":15168:15190   */\n      add\n        /* \"#utility.yul\":15147:15200   */\n      tag_437\n      jump\t// in\n    tag_680:\n        /* \"#utility.yul\":15137:15200   */\n      swap2\n      pop\n        /* \"#utility.yul\":15092:15210   */\n      pop\n        /* \"#utility.yul\":14743:15217   */\n      swap3\n      pop\n      swap3\n      swap1\n      pop\n      jump\t// out\n        /* \"#utility.yul\":15223:15392   */\n    tag_469:\n        /* \"#utility.yul\":15307:15318   */\n      0x00\n        /* \"#utility.yul\":15341:15347   */\n      dup3\n        /* \"#utility.yul\":15336:15339   */\n      dup3\n        /* \"#utility.yul\":15329:15348   */\n      mstore\n        /* \"#utility.yul\":15381:15385   */\n      0x20\n        /* \"#utility.yul\":15376:15379   */\n      dup3\n        /* \"#utility.yul\":15372:15386   */\n      add\n        /* \"#utility.yul\":15357:15386   */\n      swap1\n      pop\n        /* \"#utility.yul\":15223:15392   */\n      swap3\n      swap2\n      pop\n      pop\n      jump\t// out\n        /* \"#utility.yul\":15398:15619   */\n    tag_470:\n        /* \"#utility.yul\":15538:15572   */\n      0x4f6e6c792077616c6c65742063616e2063616c6c20746869732066756e637469\n        /* \"#utility.yul\":15534:15535   */\n      0x00\n        /* \"#utility.yul\":15526:15532   */\n      dup3\n        /* \"#utility.yul\":15522:15536   */\n      add\n        /* \"#utility.yul\":15515:15573   */\n      mstore\n        /* \"#utility.yul\":15607:15611   */\n      0x6f6e000000000000000000000000000000000000000000000000000000000000\n        /* \"#utility.yul\":15602:15604   */\n      0x20\n        /* \"#utility.yul\":15594:15600   */\n      dup3\n        /* \"#utility.yul\":15590:15605   */\n      add\n        /* \"#utility.yul\":15583:15612   */\n      mstore\n        /* \"#utility.yul\":15398:15619   */\n      pop\n      jump\t// out\n        /* \"#utility.yul\":15625:15991   */\n    tag_471:\n        /* \"#utility.yul\":15767:15770   */\n      0x00\n        /* \"#utility.yul\":15788:15855   */\n      tag_684\n        /* \"#utility.yul\":15852:15854   */\n      0x22\n        /* \"#utility.yul\":15847:15850   */\n      dup4\n        /* \"#utility.yul\":15788:15855   */\n      tag_469\n      jump\t// in\n    tag_684:\n        /* \"#utility.yul\":15781:15855   */\n      swap2\n      pop\n        /* \"#utility.yul\":15864:15957   */\n      tag_685\n        /* \"#utility.yul\":15953:15956   */\n      dup3\n        /* \"#utility.yul\":15864:15957   */\n      tag_470\n      jump\t// in\n    tag_685:\n        /* \"#utility.yul\":15982:15984   */\n      0x40\n        /* \"#utility.yul\":15977:15980   */\n      dup3\n        /* \"#utility.yul\":15973:15985   */\n      add\n        /* \"#utility.yul\":15966:15985   */\n      swap1\n      pop\n        /* \"#utility.yul\":15625:15991   */\n      swap2\n      swap1\n      pop\n      jump\t// out\n        /* \"#utility.yul\":15997:16416   */\n    tag_157:\n        /* \"#utility.yul\":16163:16167   */\n      0x00\n        /* \"#utility.yul\":16201:16203   */\n      0x20\n        /* \"#utility.yul\":16190:16199   */\n      dup3\n        /* \"#utility.yul\":16186:16204   */\n      add\n        /* \"#utility.yul\":16178:16204   */\n      swap1\n      pop\n        /* \"#utility.yul\":16250:16259   */\n      dup2\n        /* \"#utility.yul\":16244:16248   */\n      dup2\n        /* \"#utility.yul\":16240:16260   */\n      sub\n        /* \"#utility.yul\":16236:16237   */\n      0x00\n        /* \"#utility.yul\":16225:16234   */\n      dup4\n        /* \"#utility.yul\":16221:16238   */\n      add\n        /* \"#utility.yul\":16214:16261   */\n      mstore\n        /* \"#utility.yul\":16278:16409   */\n      tag_687\n        /* \"#utility.yul\":16404:16408   */\n      dup2\n        /* \"#utility.yul\":16278:16409   */\n      tag_471\n      jump\t// in\n    tag_687:\n        /* \"#utility.yul\":16270:16409   */\n      swap1\n      pop\n        /* \"#utility.yul\":15997:16416   */\n      swap2\n      swap1\n      pop\n      jump\t// out\n        /* \"#utility.yul\":16422:16592   */\n    tag_472:\n        /* \"#utility.yul\":16562:16584   */\n      0x4f776e657220646f6573206e6f74206578697374000000000000000000000000\n        /* \"#utility.yul\":16558:16559   */\n      0x00\n        /* \"#utility.yul\":16550:16556   */\n      dup3\n        /* \"#utility.yul\":16546:16560   */\n      add\n        /* \"#utility.yul\":16539:16585   */\n      mstore\n        /* \"#utility.yul\":16422:16592   */\n      pop\n      jump\t// out\n        /* \"#utility.yul\":16598:16964   */\n    tag_473:\n        /* \"#utility.yul\":16740:16743   */\n      0x00\n        /* \"#utility.yul\":16761:16828   */\n      tag_690\n        /* \"#utility.yul\":16825:16827   */\n      0x14\n        /* \"#utility.yul\":16820:16823   */\n      dup4\n        /* \"#utility.yul\":16761:16828   */\n      tag_469\n      jump\t// in\n    tag_690:\n        /* \"#utility.yul\":16754:16828   */\n      swap2\n      pop\n        /* \"#utility.yul\":16837:16930   */\n      tag_691\n        /* \"#utility.yul\":16926:16929   */\n      dup3\n        /* \"#utility.yul\":16837:16930   */\n      tag_472\n      jump\t// in\n    tag_691:\n        /* \"#utility.yul\":16955:16957   */\n      0x20\n        /* \"#utility.yul\":16950:16953   */\n      dup3\n        /* \"#utility.yul\":16946:16958   */\n      add\n        /* \"#utility.yul\":16939:16958   */\n      swap1\n      pop\n        /* \"#utility.yul\":16598:16964   */\n      swap2\n      swap1\n      pop\n      jump\t// out\n        /* \"#utility.yul\":16970:17389   */\n    tag_161:\n        /* \"#utility.yul\":17136:17140   */\n      0x00\n        /* \"#utility.yul\":17174:17176   */\n      0x20\n        /* \"#utility.yul\":17163:17172   */\n      dup3\n        /* \"#utility.yul\":17159:17177   */\n      add\n        /* \"#utility.yul\":17151:17177   */\n      swap1\n      pop\n        /* \"#utility.yul\":17223:17232   */\n      dup2\n        /* \"#utility.yul\":17217:17221   */\n      dup2\n        /* \"#utility.yul\":17213:17233   */\n      sub\n        /* \"#utility.yul\":17209:17210   */\n      0x00\n        /* \"#utility.yul\":17198:17207   */\n      dup4\n        /* \"#utility.yul\":17194:17211   */\n      add\n        /* \"#utility.yul\":17187:17234   */\n      mstore\n        /* \"#utility.yul\":17251:17382   */\n      tag_693\n        /* \"#utility.yul\":17377:17381   */\n      dup2\n        /* \"#utility.yul\":17251:17382   */\n      tag_473\n      jump\t// in\n    tag_693:\n        /* \"#utility.yul\":17243:17382   */\n      swap1\n      pop\n        /* \"#utility.yul\":16970:17389   */\n      swap2\n      swap1\n      pop\n      jump\t// out\n        /* \"#utility.yul\":17395:17575   */\n    tag_474:\n        /* \"#utility.yul\":17443:17520   */\n      0x4e487b7100000000000000000000000000000000000000000000000000000000\n        /* \"#utility.yul\":17440:17441   */\n      0x00\n        /* \"#utility.yul\":17433:17521   */\n      mstore\n        /* \"#utility.yul\":17540:17544   */\n      0x11\n        /* \"#utility.yul\":17537:17538   */\n      0x04\n        /* \"#utility.yul\":17530:17545   */\n      mstore\n        /* \"#utility.yul\":17564:17568   */\n      0x24\n        /* \"#utility.yul\":17561:17562   */\n      0x00\n        /* \"#utility.yul\":17554:17569   */\n      revert\n        /* \"#utility.yul\":17581:17775   */\n    tag_167:\n        /* \"#utility.yul\":17621:17625   */\n      0x00\n        /* \"#utility.yul\":17641:17661   */\n      tag_696\n        /* \"#utility.yul\":17659:17660   */\n      dup3\n        /* \"#utility.yul\":17641:17661   */\n      tag_426\n      jump\t// in\n    tag_696:\n        /* \"#utility.yul\":17636:17661   */\n      swap2\n      pop\n        /* \"#utility.yul\":17675:17695   */\n      tag_697\n        /* \"#utility.yul\":17693:17694   */\n      dup4\n        /* \"#utility.yul\":17675:17695   */\n      tag_426\n      jump\t// in\n    tag_697:\n        /* \"#utility.yul\":17670:17695   */\n      swap3\n      pop\n        /* \"#utility.yul\":17719:17720   */\n      dup3\n        /* \"#utility.yul\":17716:17717   */\n      dup3\n        /* \"#utility.yul\":17712:17721   */\n      sub\n        /* \"#utility.yul\":17704:17721   */\n      swap1\n      pop\n        /* \"#utility.yul\":17743:17744   */\n      dup2\n        /* \"#utility.yul\":17737:17741   */\n      dup2\n        /* \"#utility.yul\":17734:17745   */\n      gt\n        /* \"#utility.yul\":17731:17768   */\n      iszero\n      tag_698\n      jumpi\n        /* \"#utility.yul\":17748:17766   */\n      tag_699\n      tag_474\n      jump\t// in\n    tag_699:\n        /* \"#utility.yul\":17731:17768   */\n    tag_698:\n        /* \"#utility.yul\":17581:17775   */\n      swap3\n      swap2\n      pop\n      pop\n      jump\t// out\n        /* \"#utility.yul\":17781:17961   */\n    tag_170:\n        /* \"#utility.yul\":17829:17906   */\n      0x4e487b7100000000000000000000000000000000000000000000000000000000\n        /* \"#utility.yul\":17826:17827   */\n      0x00\n        /* \"#utility.yul\":17819:17907   */\n      mstore\n        /* \"#utility.yul\":17926:17930   */\n      0x32\n        /* \"#utility.yul\":17923:17924   */\n      0x04\n        /* \"#utility.yul\":17916:17931   */\n      mstore\n        /* \"#utility.yul\":17950:17954   */\n      0x24\n        /* \"#utility.yul\":17947:17948   */\n      0x00\n        /* \"#utility.yul\":17940:17955   */\n      revert\n        /* \"#utility.yul\":17967:18147   */\n    tag_182:\n        /* \"#utility.yul\":18015:18092   */\n      0x4e487b7100000000000000000000000000000000000000000000000000000000\n        /* \"#utility.yul\":18012:18013   */\n      0x00\n        /* \"#utility.yul\":18005:18093   */\n      mstore\n        /* \"#utility.yul\":18112:18116   */\n      0x31\n        /* \"#utility.yul\":18109:18110   */\n      0x04\n        /* \"#utility.yul\":18102:18117   */\n      mstore\n        /* \"#utility.yul\":18136:18140   */\n      0x24\n        /* \"#utility.yul\":18133:18134   */\n      0x00\n        /* \"#utility.yul\":18126:18141   */\n      revert\n        /* \"#utility.yul\":18153:18329   */\n    tag_475:\n        /* \"#utility.yul\":18293:18321   */\n      0x5472616e73616374696f6e20646f6573206e6f74206578697374000000000000\n        /* \"#utility.yul\":18289:18290   */\n      0x00\n        /* \"#utility.yul\":18281:18287   */\n      dup3\n        /* \"#utility.yul\":18277:18291   */\n      add\n        /* \"#utility.yul\":18270:18322   */\n      mstore\n        /* \"#utility.yul\":18153:18329   */\n      pop\n      jump\t// out\n        /* \"#utility.yul\":18335:18701   */\n    tag_476:\n        /* \"#utility.yul\":18477:18480   */\n      0x00\n        /* \"#utility.yul\":18498:18565   */\n      tag_704\n        /* \"#utility.yul\":18562:18564   */\n      0x1a\n        /* \"#utility.yul\":18557:18560   */\n      dup4\n        /* \"#utility.yul\":18498:18565   */\n      tag_469\n      jump\t// in\n    tag_704:\n        /* \"#utility.yul\":18491:18565   */\n      swap2\n      pop\n        /* \"#utility.yul\":18574:18667   */\n      tag_705\n        /* \"#utility.yul\":18663:18666   */\n      dup3\n        /* \"#utility.yul\":18574:18667   */\n      tag_475\n      jump\t// in\n    tag_705:\n        /* \"#utility.yul\":18692:18694   */\n      0x20\n        /* \"#utility.yul\":18687:18690   */\n      dup3\n        /* \"#utility.yul\":18683:18695   */\n      add\n        /* \"#utility.yul\":18676:18695   */\n      swap1\n      pop\n        /* \"#utility.yul\":18335:18701   */\n      swap2\n      swap1\n      pop\n      jump\t// out\n        /* \"#utility.yul\":18707:19126   */\n    tag_192:\n        /* \"#utility.yul\":18873:18877   */\n      0x00\n        /* \"#utility.yul\":18911:18913   */\n      0x20\n        /* \"#utility.yul\":18900:18909   */\n      dup3\n        /* \"#utility.yul\":18896:18914   */\n      add\n        /* \"#utility.yul\":18888:18914   */\n      swap1\n      pop\n        /* \"#utility.yul\":18960:18969   */\n      dup2\n        /* \"#utility.yul\":18954:18958   */\n      dup2\n        /* \"#utility.yul\":18950:18970   */\n      sub\n        /* \"#utility.yul\":18946:18947   */\n      0x00\n        /* \"#utility.yul\":18935:18944   */\n      dup4\n        /* \"#utility.yul\":18931:18948   */\n      add\n        /* \"#utility.yul\":18924:18971   */\n      mstore\n        /* \"#utility.yul\":18988:19119   */\n      tag_707\n        /* \"#utility.yul\":19114:19118   */\n      dup2\n        /* \"#utility.yul\":18988:19119   */\n      tag_476\n      jump\t// in\n    tag_707:\n        /* \"#utility.yul\":18980:19119   */\n      swap1\n      pop\n        /* \"#utility.yul\":18707:19126   */\n      swap2\n      swap1\n      pop\n      jump\t// out\n        /* \"#utility.yul\":19132:19310   */\n    tag_477:\n        /* \"#utility.yul\":19272:19302   */\n      0x5472616e73616374696f6e20616c726561647920657865637574656400000000\n        /* \"#utility.yul\":19268:19269   */\n      0x00\n        /* \"#utility.yul\":19260:19266   */\n      dup3\n        /* \"#utility.yul\":19256:19270   */\n      add\n        /* \"#utility.yul\":19249:19303   */\n      mstore\n        /* \"#utility.yul\":19132:19310   */\n      pop\n      jump\t// out\n        /* \"#utility.yul\":19316:19682   */\n    tag_478:\n        /* \"#utility.yul\":19458:19461   */\n      0x00\n        /* \"#utility.yul\":19479:19546   */\n      tag_710\n        /* \"#utility.yul\":19543:19545   */\n      0x1c\n        /* \"#utility.yul\":19538:19541   */\n      dup4\n        /* \"#utility.yul\":19479:19546   */\n      tag_469\n      jump\t// in\n    tag_710:\n        /* \"#utility.yul\":19472:19546   */\n      swap2\n      pop\n        /* \"#utility.yul\":19555:19648   */\n      tag_711\n        /* \"#utility.yul\":19644:19647   */\n      dup3\n        /* \"#utility.yul\":19555:19648   */\n      tag_477\n      jump\t// in\n    tag_711:\n        /* \"#utility.yul\":19673:19675   */\n      0x20\n        /* \"#utility.yul\":19668:19671   */\n      dup3\n        /* \"#utility.yul\":19664:19676   */\n      add\n        /* \"#utility.yul\":19657:19676   */\n      swap1\n      pop\n        /* \"#utility.yul\":19316:19682   */\n      swap2\n      swap1\n      pop\n      jump\t// out\n        /* \"#utility.yul\":19688:20107   */\n    tag_196:\n        /* \"#utility.yul\":19854:19858   */\n      0x00\n        /* \"#utility.yul\":19892:19894   */\n      0x20\n        /* \"#utility.yul\":19881:19890   */\n      dup3\n        /* \"#utility.yul\":19877:19895   */\n      add\n        /* \"#utility.yul\":19869:19895   */\n      swap1\n      pop\n        /* \"#utility.yul\":19941:19950   */\n      dup2\n        /* \"#utility.yul\":19935:19939   */\n      dup2\n        /* \"#utility.yul\":19931:19951   */\n      sub\n        /* \"#utility.yul\":19927:19928   */\n      0x00\n        /* \"#utility.yul\":19916:19925   */\n      dup4\n        /* \"#utility.yul\":19912:19929   */\n      add\n        /* \"#utility.yul\":19905:19952   */\n      mstore\n        /* \"#utility.yul\":19969:20100   */\n      tag_713\n        /* \"#utility.yul\":20095:20099   */\n      dup2\n        /* \"#utility.yul\":19969:20100   */\n      tag_478\n      jump\t// in\n    tag_713:\n        /* \"#utility.yul\":19961:20100   */\n      swap1\n      pop\n        /* \"#utility.yul\":19688:20107   */\n      swap2\n      swap1\n      pop\n      jump\t// out\n        /* \"#utility.yul\":20113:20288   */\n    tag_479:\n        /* \"#utility.yul\":20253:20280   */\n      0x5472616e73616374696f6e206e6f7420636f6e6669726d656400000000000000\n        /* \"#utility.yul\":20249:20250   */\n      0x00\n        /* \"#utility.yul\":20241:20247   */\n      dup3\n        /* \"#utility.yul\":20237:20251   */\n      add\n        /* \"#utility.yul\":20230:20281   */\n      mstore\n        /* \"#utility.yul\":20113:20288   */\n      pop\n      jump\t// out\n        /* \"#utility.yul\":20294:20660   */\n    tag_480:\n        /* \"#utility.yul\":20436:20439   */\n      0x00\n        /* \"#utility.yul\":20457:20524   */\n      tag_716\n        /* \"#utility.yul\":20521:20523   */\n      0x19\n        /* \"#utility.yul\":20516:20519   */\n      dup4\n        /* \"#utility.yul\":20457:20524   */\n      tag_469\n      jump\t// in\n    tag_716:\n        /* \"#utility.yul\":20450:20524   */\n      swap2\n      pop\n        /* \"#utility.yul\":20533:20626   */\n      tag_717\n        /* \"#utility.yul\":20622:20625   */\n      dup3\n        /* \"#utility.yul\":20533:20626   */\n      tag_479\n      jump\t// in\n    tag_717:\n        /* \"#utility.yul\":20651:20653   */\n      0x20\n        /* \"#utility.yul\":20646:20649   */\n      dup3\n        /* \"#utility.yul\":20642:20654   */\n      add\n        /* \"#utility.yul\":20635:20654   */\n      swap1\n      pop\n        /* \"#utility.yul\":20294:20660   */\n      swap2\n      swap1\n      pop\n      jump\t// out\n        /* \"#utility.yul\":20666:21085   */\n    tag_200:\n        /* \"#utility.yul\":20832:20836   */\n      0x00\n        /* \"#utility.yul\":20870:20872   */\n      0x20\n        /* \"#utility.yul\":20859:20868   */\n      dup3\n        /* \"#utility.yul\":20855:20873   */\n      add\n        /* \"#utility.yul\":20847:20873   */\n      swap1\n      pop\n        /* \"#utility.yul\":20919:20928   */\n      dup2\n        /* \"#utility.yul\":20913:20917   */\n      dup2\n        /* \"#utility.yul\":20909:20929   */\n      sub\n        /* \"#utility.yul\":20905:20906   */\n      0x00\n        /* \"#utility.yul\":20894:20903   */\n      dup4\n        /* \"#utility.yul\":20890:20907   */\n      add\n        /* \"#utility.yul\":20883:20930   */\n      mstore\n        /* \"#utility.yul\":20947:21078   */\n      tag_719\n        /* \"#utility.yul\":21073:21077   */\n      dup2\n        /* \"#utility.yul\":20947:21078   */\n      tag_480\n      jump\t// in\n    tag_719:\n        /* \"#utility.yul\":20939:21078   */\n      swap1\n      pop\n        /* \"#utility.yul\":20666:21085   */\n      swap2\n      swap1\n      pop\n      jump\t// out\n        /* \"#utility.yul\":21091:21262   */\n    tag_202:\n        /* \"#utility.yul\":21130:21133   */\n      0x00\n        /* \"#utility.yul\":21153:21177   */\n      tag_721\n        /* \"#utility.yul\":21171:21176   */\n      dup3\n        /* \"#utility.yul\":21153:21177   */\n      tag_426\n      jump\t// in\n    tag_721:\n        /* \"#utility.yul\":21144:21177   */\n      swap2\n      pop\n        /* \"#utility.yul\":21199:21203   */\n      0x00\n        /* \"#utility.yul\":21192:21197   */\n      dup3\n        /* \"#utility.yul\":21189:21204   */\n      sub\n        /* \"#utility.yul\":21186:21227   */\n      tag_722\n      jumpi\n        /* \"#utility.yul\":21207:21225   */\n      tag_723\n      tag_474\n      jump\t// in\n    tag_723:\n        /* \"#utility.yul\":21186:21227   */\n    tag_722:\n        /* \"#utility.yul\":21254:21255   */\n      0x01\n        /* \"#utility.yul\":21247:21252   */\n      dup3\n        /* \"#utility.yul\":21243:21256   */\n      sub\n        /* \"#utility.yul\":21236:21256   */\n      swap1\n      pop\n        /* \"#utility.yul\":21091:21262   */\n      swap2\n      swap1\n      pop\n      jump\t// out\n        /* \"#utility.yul\":21268:21439   */\n    tag_481:\n        /* \"#utility.yul\":21408:21431   */\n      0x496e76616c696420746f6b656e20616464726573730000000000000000000000\n        /* \"#utility.yul\":21404:21405   */\n      0x00\n        /* \"#utility.yul\":21396:21402   */\n      dup3\n        /* \"#utility.yul\":21392:21406   */\n      add\n        /* \"#utility.yul\":21385:21432   */\n      mstore\n        /* \"#utility.yul\":21268:21439   */\n      pop\n      jump\t// out\n        /* \"#utility.yul\":21445:21811   */\n    tag_482:\n        /* \"#utility.yul\":21587:21590   */\n      0x00\n        /* \"#utility.yul\":21608:21675   */\n      tag_726\n        /* \"#utility.yul\":21672:21674   */\n      0x15\n        /* \"#utility.yul\":21667:21670   */\n      dup4\n        /* \"#utility.yul\":21608:21675   */\n      tag_469\n      jump\t// in\n    tag_726:\n        /* \"#utility.yul\":21601:21675   */\n      swap2\n      pop\n        /* \"#utility.yul\":21684:21777   */\n      tag_727\n        /* \"#utility.yul\":21773:21776   */\n      dup3\n        /* \"#utility.yul\":21684:21777   */\n      tag_481\n      jump\t// in\n    tag_727:\n        /* \"#utility.yul\":21802:21804   */\n      0x20\n        /* \"#utility.yul\":21797:21800   */\n      dup3\n        /* \"#utility.yul\":21793:21805   */\n      add\n        /* \"#utility.yul\":21786:21805   */\n      swap1\n      pop\n        /* \"#utility.yul\":21445:21811   */\n      swap2\n      swap1\n      pop\n      jump\t// out\n        /* \"#utility.yul\":21817:22236   */\n    tag_206:\n        /* \"#utility.yul\":21983:21987   */\n      0x00\n        /* \"#utility.yul\":22021:22023   */\n      0x20\n        /* \"#utility.yul\":22010:22019   */\n      dup3\n        /* \"#utility.yul\":22006:22024   */\n      add\n        /* \"#utility.yul\":21998:22024   */\n      swap1\n      pop\n        /* \"#utility.yul\":22070:22079   */\n      dup2\n        /* \"#utility.yul\":22064:22068   */\n      dup2\n        /* \"#utility.yul\":22060:22080   */\n      sub\n        /* \"#utility.yul\":22056:22057   */\n      0x00\n        /* \"#utility.yul\":22045:22054   */\n      dup4\n        /* \"#utility.yul\":22041:22058   */\n      add\n        /* \"#utility.yul\":22034:22081   */\n      mstore\n        /* \"#utility.yul\":22098:22229   */\n      tag_729\n        /* \"#utility.yul\":22224:22228   */\n      dup2\n        /* \"#utility.yul\":22098:22229   */\n      tag_482\n      jump\t// in\n    tag_729:\n        /* \"#utility.yul\":22090:22229   */\n      swap1\n      pop\n        /* \"#utility.yul\":21817:22236   */\n      swap2\n      swap1\n      pop\n      jump\t// out\n        /* \"#utility.yul\":22242:22421   */\n    tag_483:\n        /* \"#utility.yul\":22382:22413   */\n      0x416d6f756e74206d7573742062652067726561746572207468616e2030000000\n        /* \"#utility.yul\":22378:22379   */\n      0x00\n        /* \"#utility.yul\":22370:22376   */\n      dup3\n        /* \"#utility.yul\":22366:22380   */\n      add\n        /* \"#utility.yul\":22359:22414   */\n      mstore\n        /* \"#utility.yul\":22242:22421   */\n      pop\n      jump\t// out\n        /* \"#utility.yul\":22427:22793   */\n    tag_484:\n        /* \"#utility.yul\":22569:22572   */\n      0x00\n        /* \"#utility.yul\":22590:22657   */\n      tag_732\n        /* \"#utility.yul\":22654:22656   */\n      0x1d\n        /* \"#utility.yul\":22649:22652   */\n      dup4\n        /* \"#utility.yul\":22590:22657   */\n      tag_469\n      jump\t// in\n    tag_732:\n        /* \"#utility.yul\":22583:22657   */\n      swap2\n      pop\n        /* \"#utility.yul\":22666:22759   */\n      tag_733\n        /* \"#utility.yul\":22755:22758   */\n      dup3\n        /* \"#utility.yul\":22666:22759   */\n      tag_483\n      jump\t// in\n    tag_733:\n        /* \"#utility.yul\":22784:22786   */\n      0x20\n        /* \"#utility.yul\":22779:22782   */\n      dup3\n        /* \"#utility.yul\":22775:22787   */\n      add\n        /* \"#utility.yul\":22768:22787   */\n      swap1\n      pop\n        /* \"#utility.yul\":22427:22793   */\n      swap2\n      swap1\n      pop\n      jump\t// out\n        /* \"#utility.yul\":22799:23218   */\n    tag_209:\n        /* \"#utility.yul\":22965:22969   */\n      0x00\n        /* \"#utility.yul\":23003:23005   */\n      0x20\n        /* \"#utility.yul\":22992:23001   */\n      dup3\n        /* \"#utility.yul\":22988:23006   */\n      add\n        /* \"#utility.yul\":22980:23006   */\n      swap1\n      pop\n        /* \"#utility.yul\":23052:23061   */\n      dup2\n        /* \"#utility.yul\":23046:23050   */\n      dup2\n        /* \"#utility.yul\":23042:23062   */\n      sub\n        /* \"#utility.yul\":23038:23039   */\n      0x00\n        /* \"#utility.yul\":23027:23036   */\n      dup4\n        /* \"#utility.yul\":23023:23040   */\n      add\n        /* \"#utility.yul\":23016:23063   */\n      mstore\n        /* \"#utility.yul\":23080:23211   */\n      tag_735\n        /* \"#utility.yul\":23206:23210   */\n      dup2\n        /* \"#utility.yul\":23080:23211   */\n      tag_484\n      jump\t// in\n    tag_735:\n        /* \"#utility.yul\":23072:23211   */\n      swap1\n      pop\n        /* \"#utility.yul\":22799:23218   */\n      swap2\n      swap1\n      pop\n      jump\t// out\n        /* \"#utility.yul\":23224:23404   */\n    tag_485:\n        /* \"#utility.yul\":23272:23349   */\n      0x4e487b7100000000000000000000000000000000000000000000000000000000\n        /* \"#utility.yul\":23269:23270   */\n      0x00\n        /* \"#utility.yul\":23262:23350   */\n      mstore\n        /* \"#utility.yul\":23369:23373   */\n      0x22\n        /* \"#utility.yul\":23366:23367   */\n      0x04\n        /* \"#utility.yul\":23359:23374   */\n      mstore\n        /* \"#utility.yul\":23393:23397   */\n      0x24\n        /* \"#utility.yul\":23390:23391   */\n      0x00\n        /* \"#utility.yul\":23383:23398   */\n      revert\n        /* \"#utility.yul\":23410:23730   */\n    tag_215:\n        /* \"#utility.yul\":23454:23460   */\n      0x00\n        /* \"#utility.yul\":23491:23492   */\n      0x02\n        /* \"#utility.yul\":23485:23489   */\n      dup3\n        /* \"#utility.yul\":23481:23493   */\n      div\n        /* \"#utility.yul\":23471:23493   */\n      swap1\n      pop\n        /* \"#utility.yul\":23538:23539   */\n      0x01\n        /* \"#utility.yul\":23532:23536   */\n      dup3\n        /* \"#utility.yul\":23528:23540   */\n      and\n        /* \"#utility.yul\":23559:23577   */\n      dup1\n        /* \"#utility.yul\":23549:23630   */\n      tag_738\n      jumpi\n        /* \"#utility.yul\":23615:23619   */\n      0x7f\n        /* \"#utility.yul\":23607:23613   */\n      dup3\n        /* \"#utility.yul\":23603:23620   */\n      and\n        /* \"#utility.yul\":23593:23620   */\n      swap2\n      pop\n        /* \"#utility.yul\":23549:23630   */\n    tag_738:\n        /* \"#utility.yul\":23677:23679   */\n      0x20\n        /* \"#utility.yul\":23669:23675   */\n      dup3\n        /* \"#utility.yul\":23666:23680   */\n      lt\n        /* \"#utility.yul\":23646:23664   */\n      dup2\n        /* \"#utility.yul\":23643:23681   */\n      sub\n        /* \"#utility.yul\":23640:23724   */\n      tag_739\n      jumpi\n        /* \"#utility.yul\":23696:23714   */\n      tag_740\n      tag_485\n      jump\t// in\n    tag_740:\n        /* \"#utility.yul\":23640:23724   */\n    tag_739:\n        /* \"#utility.yul\":23461:23730   */\n      pop\n        /* \"#utility.yul\":23410:23730   */\n      swap2\n      swap1\n      pop\n      jump\t// out\n        /* \"#utility.yul\":23736:23879   */\n    tag_486:\n        /* \"#utility.yul\":23793:23798   */\n      0x00\n        /* \"#utility.yul\":23824:23830   */\n      dup2\n        /* \"#utility.yul\":23818:23831   */\n      mload\n        /* \"#utility.yul\":23809:23831   */\n      swap1\n      pop\n        /* \"#utility.yul\":23840:23873   */\n      tag_742\n        /* \"#utility.yul\":23867:23872   */\n      dup2\n        /* \"#utility.yul\":23840:23873   */\n      tag_431\n      jump\t// in\n    tag_742:\n        /* \"#utility.yul\":23736:23879   */\n      swap3\n      swap2\n      pop\n      pop\n      jump\t// out\n        /* \"#utility.yul\":23885:24236   */\n    tag_225:\n        /* \"#utility.yul\":23955:23961   */\n      0x00\n        /* \"#utility.yul\":24004:24006   */\n      0x20\n        /* \"#utility.yul\":23992:24001   */\n      dup3\n        /* \"#utility.yul\":23983:23990   */\n      dup5\n        /* \"#utility.yul\":23979:24002   */\n      sub\n        /* \"#utility.yul\":23975:24007   */\n      slt\n        /* \"#utility.yul\":23972:24091   */\n      iszero\n      tag_744\n      jumpi\n        /* \"#utility.yul\":24010:24089   */\n      tag_745\n      tag_429\n      jump\t// in\n    tag_745:\n        /* \"#utility.yul\":23972:24091   */\n    tag_744:\n        /* \"#utility.yul\":24130:24131   */\n      0x00\n        /* \"#utility.yul\":24155:24219   */\n      tag_746\n        /* \"#utility.yul\":24211:24218   */\n      dup5\n        /* \"#utility.yul\":24202:24208   */\n      dup3\n        /* \"#utility.yul\":24191:24200   */\n      dup6\n        /* \"#utility.yul\":24187:24209   */\n      add\n        /* \"#utility.yul\":24155:24219   */\n      tag_486\n      jump\t// in\n    tag_746:\n        /* \"#utility.yul\":24145:24219   */\n      swap2\n      pop\n        /* \"#utility.yul\":24101:24229   */\n      pop\n        /* \"#utility.yul\":23885:24236   */\n      swap3\n      swap2\n      pop\n      pop\n      jump\t// out\n        /* \"#utility.yul\":24242:24475   */\n    tag_235:\n        /* \"#utility.yul\":24281:24284   */\n      0x00\n        /* \"#utility.yul\":24304:24328   */\n      tag_748\n        /* \"#utility.yul\":24322:24327   */\n      dup3\n        /* \"#utility.yul\":24304:24328   */\n      tag_426\n      jump\t// in\n    tag_748:\n        /* \"#utility.yul\":24295:24328   */\n      swap2\n      pop\n        /* \"#utility.yul\":24350:24416   */\n      0xffffffffffffffffffffffffffffffffffffffffffffffffffffffffffffffff\n        /* \"#utility.yul\":24343:24348   */\n      dup3\n        /* \"#utility.yul\":24340:24417   */\n      sub\n        /* \"#utility.yul\":24337:24440   */\n      tag_749\n      jumpi\n        /* \"#utility.yul\":24420:24438   */\n      tag_750\n      tag_474\n      jump\t// in\n    tag_750:\n        /* \"#utility.yul\":24337:24440   */\n    tag_749:\n        /* \"#utility.yul\":24467:24468   */\n      0x01\n        /* \"#utility.yul\":24460:24465   */\n      dup3\n        /* \"#utility.yul\":24456:24469   */\n      add\n        /* \"#utility.yul\":24449:24469   */\n      swap1\n      pop\n        /* \"#utility.yul\":24242:24475   */\n      swap2\n      swap1\n      pop\n      jump\t// out\n        /* \"#utility.yul\":24481:24621   */\n    tag_487:\n        /* \"#utility.yul\":24529:24533   */\n      0x00\n        /* \"#utility.yul\":24552:24555   */\n      dup2\n        /* \"#utility.yul\":24544:24555   */\n      swap1\n      pop\n        /* \"#utility.yul\":24575:24578   */\n      dup2\n        /* \"#utility.yul\":24572:24573   */\n      0x00\n        /* \"#utility.yul\":24565:24579   */\n      mstore\n        /* \"#utility.yul\":24609:24613   */\n      0x20\n        /* \"#utility.yul\":24606:24607   */\n      0x00\n        /* \"#utility.yul\":24596:24614   */\n      keccak256\n        /* \"#utility.yul\":24588:24614   */\n      swap1\n      pop\n        /* \"#utility.yul\":24481:24621   */\n      swap2\n      swap1\n      pop\n      jump\t// out\n        /* \"#utility.yul\":24627:24720   */\n    tag_488:\n        /* \"#utility.yul\":24664:24670   */\n      0x00\n        /* \"#utility.yul\":24711:24713   */\n      0x20\n        /* \"#utility.yul\":24706:24708   */\n      0x1f\n        /* \"#utility.yul\":24699:24704   */\n      dup4\n        /* \"#utility.yul\":24695:24709   */\n      add\n        /* \"#utility.yul\":24691:24714   */\n      div\n        /* \"#utility.yul\":24681:24714   */\n      swap1\n      pop\n        /* \"#utility.yul\":24627:24720   */\n      swap2\n      swap1\n      pop\n      jump\t// out\n        /* \"#utility.yul\":24726:24833   */\n    tag_489:\n        /* \"#utility.yul\":24770:24778   */\n      0x00\n        /* \"#utility.yul\":24820:24825   */\n      dup3\n        /* \"#utility.yul\":24814:24818   */\n      dup3\n        /* \"#utility.yul\":24810:24826   */\n      shl\n        /* \"#utility.yul\":24789:24826   */\n      swap1\n      pop\n        /* \"#utility.yul\":24726:24833   */\n      swap3\n      swap2\n      pop\n      pop\n      jump\t// out\n        /* \"#utility.yul\":24839:25232   */\n    tag_490:\n        /* \"#utility.yul\":24908:24914   */\n      0x00\n        /* \"#utility.yul\":24958:24959   */\n      0x08\n        /* \"#utility.yul\":24946:24956   */\n      dup4\n        /* \"#utility.yul\":24942:24960   */\n      mul\n        /* \"#utility.yul\":24981:25078   */\n      tag_755\n        /* \"#utility.yul\":25011:25077   */\n      0xffffffffffffffffffffffffffffffffffffffffffffffffffffffffffffffff\n        /* \"#utility.yul\":25000:25009   */\n      dup3\n        /* \"#utility.yul\":24981:25078   */\n      tag_489\n      jump\t// in\n    tag_755:\n        /* \"#utility.yul\":25099:25138   */\n      tag_756\n        /* \"#utility.yul\":25129:25137   */\n      dup7\n        /* \"#utility.yul\":25118:25127   */\n      dup4\n        /* \"#utility.yul\":25099:25138   */\n      tag_489\n      jump\t// in\n    tag_756:\n        /* \"#utility.yul\":25087:25138   */\n      swap6\n      pop\n        /* \"#utility.yul\":25171:25175   */\n      dup1\n        /* \"#utility.yul\":25167:25176   */\n      not\n        /* \"#utility.yul\":25160:25165   */\n      dup5\n        /* \"#utility.yul\":25156:25177   */\n      and\n        /* \"#utility.yul\":25147:25177   */\n      swap4\n      pop\n        /* \"#utility.yul\":25220:25224   */\n      dup1\n        /* \"#utility.yul\":25210:25218   */\n      dup7\n        /* \"#utility.yul\":25206:25225   */\n      and\n        /* \"#utility.yul\":25199:25204   */\n      dup5\n        /* \"#utility.yul\":25196:25226   */\n      or\n        /* \"#utility.yul\":25186:25226   */\n      swap3\n      pop\n        /* \"#utility.yul\":24915:25232   */\n      pop\n      pop\n        /* \"#utility.yul\":24839:25232   */\n      swap4\n      swap3\n      pop\n      pop\n      pop\n      jump\t// out\n        /* \"#utility.yul\":25238:25298   */\n    tag_491:\n        /* \"#utility.yul\":25266:25269   */\n      0x00\n        /* \"#utility.yul\":25287:25292   */\n      dup2\n        /* \"#utility.yul\":25280:25292   */\n      swap1\n      pop\n        /* \"#utility.yul\":25238:25298   */\n      swap2\n      swap1\n      pop\n      jump\t// out\n        /* \"#utility.yul\":25304:25446   */\n    tag_492:\n        /* \"#utility.yul\":25354:25363   */\n      0x00\n        /* \"#utility.yul\":25387:25440   */\n      tag_759\n        /* \"#utility.yul\":25405:25439   */\n      tag_760\n        /* \"#utility.yul\":25414:25438   */\n      tag_761\n        /* \"#utility.yul\":25432:25437   */\n      dup5\n        /* \"#utility.yul\":25414:25438   */\n      tag_426\n      jump\t// in\n    tag_761:\n        /* \"#utility.yul\":25405:25439   */\n      tag_491\n      jump\t// in\n    tag_760:\n        /* \"#utility.yul\":25387:25440   */\n      tag_426\n      jump\t// in\n    tag_759:\n        /* \"#utility.yul\":25374:25440   */\n      swap1\n      pop\n        /* \"#utility.yul\":25304:25446   */\n      swap2\n      swap1\n      pop\n      jump\t// out\n        /* \"#utility.yul\":25452:25527   */\n    tag_493:\n        /* \"#utility.yul\":25495:25498   */\n      0x00\n        /* \"#utility.yul\":25516:25521   */\n      dup2\n        /* \"#utility.yul\":25509:25521   */\n      swap1\n      pop\n        /* \"#utility.yul\":25452:25527   */\n      swap2\n      swap1\n      pop\n      jump\t// out\n        /* \"#utility.yul\":25533:25802   */\n    tag_494:\n        /* \"#utility.yul\":25643:25682   */\n      tag_764\n        /* \"#utility.yul\":25674:25681   */\n      dup4\n        /* \"#utility.yul\":25643:25682   */\n      tag_492\n      jump\t// in\n    tag_764:\n        /* \"#utility.yul\":25704:25795   */\n      tag_765\n        /* \"#utility.yul\":25753:25794   */\n      tag_766\n        /* \"#utility.yul\":25777:25793   */\n      dup3\n        /* \"#utility.yul\":25753:25794   */\n      tag_493\n      jump\t// in\n    tag_766:\n        /* \"#utility.yul\":25745:25751   */\n      dup5\n        /* \"#utility.yul\":25738:25742   */\n      dup5\n        /* \"#utility.yul\":25732:25743   */\n      sload\n        /* \"#utility.yul\":25704:25795   */\n      tag_490\n      jump\t// in\n    tag_765:\n        /* \"#utility.yul\":25698:25702   */\n      dup3\n        /* \"#utility.yul\":25691:25796   */\n      sstore\n        /* \"#utility.yul\":25609:25802   */\n      pop\n        /* \"#utility.yul\":25533:25802   */\n      pop\n      pop\n      pop\n      jump\t// out\n        /* \"#utility.yul\":25808:25881   */\n    tag_495:\n        /* \"#utility.yul\":25853:25856   */\n      0x00\n        /* \"#utility.yul\":25874:25875   */\n      0x00\n        /* \"#utility.yul\":25867:25875   */\n      swap1\n      pop\n        /* \"#utility.yul\":25808:25881   */\n      swap1\n      jump\t// out\n        /* \"#utility.yul\":25887:26076   */\n    tag_496:\n        /* \"#utility.yul\":25964:25996   */\n      tag_769\n      tag_495\n      jump\t// in\n    tag_769:\n        /* \"#utility.yul\":26005:26070   */\n      tag_770\n        /* \"#utility.yul\":26063:26069   */\n      dup2\n        /* \"#utility.yul\":26055:26061   */\n      dup5\n        /* \"#utility.yul\":26049:26053   */\n      dup5\n        /* \"#utility.yul\":26005:26070   */\n      tag_494\n      jump\t// in\n    tag_770:\n        /* \"#utility.yul\":25940:26076   */\n      pop\n        /* \"#utility.yul\":25887:26076   */\n      pop\n      pop\n      jump\t// out\n        /* \"#utility.yul\":26082:26268   */\n    tag_497:\n        /* \"#utility.yul\":26142:26262   */\n    tag_772:\n        /* \"#utility.yul\":26159:26162   */\n      dup2\n        /* \"#utility.yul\":26152:26157   */\n      dup2\n        /* \"#utility.yul\":26149:26163   */\n      lt\n        /* \"#utility.yul\":26142:26262   */\n      iszero\n      tag_774\n      jumpi\n        /* \"#utility.yul\":26213:26252   */\n      tag_775\n        /* \"#utility.yul\":26250:26251   */\n      0x00\n        /* \"#utility.yul\":26243:26248   */\n      dup3\n        /* \"#utility.yul\":26213:26252   */\n      tag_496\n      jump\t// in\n    tag_775:\n        /* \"#utility.yul\":26186:26187   */\n      0x01\n        /* \"#utility.yul\":26179:26184   */\n      dup2\n        /* \"#utility.yul\":26175:26188   */\n      add\n        /* \"#utility.yul\":26166:26188   */\n      swap1\n      pop\n        /* \"#utility.yul\":26142:26262   */\n      jump(tag_772)\n    tag_774:\n        /* \"#utility.yul\":26082:26268   */\n      pop\n      pop\n      jump\t// out\n        /* \"#utility.yul\":26274:26815   */\n    tag_498:\n        /* \"#utility.yul\":26374:26376   */\n      0x1f\n        /* \"#utility.yul\":26369:26372   */\n      dup3\n        /* \"#utility.yul\":26366:26377   */\n      gt\n        /* \"#utility.yul\":26363:26808   */\n      iszero\n      tag_777\n      jumpi\n        /* \"#utility.yul\":26408:26445   */\n      tag_778\n        /* \"#utility.yul\":26439:26444   */\n      dup2\n        /* \"#utility.yul\":26408:26445   */\n      tag_487\n      jump\t// in\n    tag_778:\n        /* \"#utility.yul\":26491:26520   */\n      tag_779\n        /* \"#utility.yul\":26509:26519   */\n      dup5\n        /* \"#utility.yul\":26491:26520   */\n      tag_488\n      jump\t// in\n    tag_779:\n        /* \"#utility.yul\":26481:26489   */\n      dup2\n        /* \"#utility.yul\":26477:26521   */\n      add\n        /* \"#utility.yul\":26674:26676   */\n      0x20\n        /* \"#utility.yul\":26662:26672   */\n      dup6\n        /* \"#utility.yul\":26659:26677   */\n      lt\n        /* \"#utility.yul\":26656:26705   */\n      iszero\n      tag_780\n      jumpi\n        /* \"#utility.yul\":26695:26703   */\n      dup2\n        /* \"#utility.yul\":26680:26703   */\n      swap1\n      pop\n        /* \"#utility.yul\":26656:26705   */\n    tag_780:\n        /* \"#utility.yul\":26718:26798   */\n      tag_781\n        /* \"#utility.yul\":26774:26796   */\n      tag_782\n        /* \"#utility.yul\":26792:26795   */\n      dup6\n        /* \"#utility.yul\":26774:26796   */\n      tag_488\n      jump\t// in\n    tag_782:\n        /* \"#utility.yul\":26764:26772   */\n      dup4\n        /* \"#utility.yul\":26760:26797   */\n      add\n        /* \"#utility.yul\":26747:26758   */\n      dup3\n        /* \"#utility.yul\":26718:26798   */\n      tag_497\n      jump\t// in\n    tag_781:\n        /* \"#utility.yul\":26378:26808   */\n      pop\n      pop\n        /* \"#utility.yul\":26363:26808   */\n    tag_777:\n        /* \"#utility.yul\":26274:26815   */\n      pop\n      pop\n      pop\n      jump\t// out\n        /* \"#utility.yul\":26821:26938   */\n    tag_499:\n        /* \"#utility.yul\":26875:26883   */\n      0x00\n        /* \"#utility.yul\":26925:26930   */\n      dup3\n        /* \"#utility.yul\":26919:26923   */\n      dup3\n        /* \"#utility.yul\":26915:26931   */\n      shr\n        /* \"#utility.yul\":26894:26931   */\n      swap1\n      pop\n        /* \"#utility.yul\":26821:26938   */\n      swap3\n      swap2\n      pop\n      pop\n      jump\t// out\n        /* \"#utility.yul\":26944:27113   */\n    tag_500:\n        /* \"#utility.yul\":26988:26994   */\n      0x00\n        /* \"#utility.yul\":27021:27072   */\n      tag_785\n        /* \"#utility.yul\":27069:27070   */\n      0x00\n        /* \"#utility.yul\":27065:27071   */\n      not\n        /* \"#utility.yul\":27057:27062   */\n      dup5\n        /* \"#utility.yul\":27054:27055   */\n      0x08\n        /* \"#utility.yul\":27050:27063   */\n      mul\n        /* \"#utility.yul\":27021:27072   */\n      tag_499\n      jump\t// in\n    tag_785:\n        /* \"#utility.yul\":27017:27073   */\n      not\n        /* \"#utility.yul\":27102:27106   */\n      dup1\n        /* \"#utility.yul\":27096:27100   */\n      dup4\n        /* \"#utility.yul\":27092:27107   */\n      and\n        /* \"#utility.yul\":27082:27107   */\n      swap2\n      pop\n        /* \"#utility.yul\":26995:27113   */\n      pop\n        /* \"#utility.yul\":26944:27113   */\n      swap3\n      swap2\n      pop\n      pop\n      jump\t// out\n        /* \"#utility.yul\":27118:27413   */\n    tag_501:\n        /* \"#utility.yul\":27194:27198   */\n      0x00\n        /* \"#utility.yul\":27340:27369   */\n      tag_787\n        /* \"#utility.yul\":27365:27368   */\n      dup4\n        /* \"#utility.yul\":27359:27363   */\n      dup4\n        /* \"#utility.yul\":27340:27369   */\n      tag_500\n      jump\t// in\n    tag_787:\n        /* \"#utility.yul\":27332:27369   */\n      swap2\n      pop\n        /* \"#utility.yul\":27402:27405   */\n      dup3\n        /* \"#utility.yul\":27399:27400   */\n      0x02\n        /* \"#utility.yul\":27395:27406   */\n      mul\n        /* \"#utility.yul\":27389:27393   */\n      dup3\n        /* \"#utility.yul\":27386:27407   */\n      or\n        /* \"#utility.yul\":27378:27407   */\n      swap1\n      pop\n        /* \"#utility.yul\":27118:27413   */\n      swap3\n      swap2\n      pop\n      pop\n      jump\t// out\n        /* \"#utility.yul\":27418:28808   */\n    tag_241:\n        /* \"#utility.yul\":27533:27569   */\n      tag_789\n        /* \"#utility.yul\":27565:27568   */\n      dup3\n        /* \"#utility.yul\":27533:27569   */\n      tag_440\n      jump\t// in\n    tag_789:\n        /* \"#utility.yul\":27634:27652   */\n      0xffffffffffffffff\n        /* \"#utility.yul\":27626:27632   */\n      dup2\n        /* \"#utility.yul\":27623:27653   */\n      gt\n        /* \"#utility.yul\":27620:27676   */\n      iszero\n      tag_790\n      jumpi\n        /* \"#utility.yul\":27656:27674   */\n      tag_791\n      tag_280\n      jump\t// in\n    tag_791:\n        /* \"#utility.yul\":27620:27676   */\n    tag_790:\n        /* \"#utility.yul\":27700:27738   */\n      tag_792\n        /* \"#utility.yul\":27732:27736   */\n      dup3\n        /* \"#utility.yul\":27726:27737   */\n      sload\n        /* \"#utility.yul\":27700:27738   */\n      tag_215\n      jump\t// in\n    tag_792:\n        /* \"#utility.yul\":27785:27851   */\n      tag_793\n        /* \"#utility.yul\":27844:27850   */\n      dup3\n        /* \"#utility.yul\":27836:27842   */\n      dup3\n        /* \"#utility.yul\":27830:27834   */\n      dup6\n        /* \"#utility.yul\":27785:27851   */\n      tag_498\n      jump\t// in\n    tag_793:\n        /* \"#utility.yul\":27878:27879   */\n      0x00\n        /* \"#utility.yul\":27902:27906   */\n      0x20\n        /* \"#utility.yul\":27889:27906   */\n      swap1\n      pop\n        /* \"#utility.yul\":27934:27936   */\n      0x1f\n        /* \"#utility.yul\":27926:27932   */\n      dup4\n        /* \"#utility.yul\":27923:27937   */\n      gt\n        /* \"#utility.yul\":27951:27952   */\n      0x01\n        /* \"#utility.yul\":27946:28563   */\n      dup2\n      eq\n      tag_795\n      jumpi\n        /* \"#utility.yul\":28607:28608   */\n      0x00\n        /* \"#utility.yul\":28624:28630   */\n      dup5\n        /* \"#utility.yul\":28621:28698   */\n      iszero\n      tag_796\n      jumpi\n        /* \"#utility.yul\":28673:28682   */\n      dup3\n        /* \"#utility.yul\":28668:28671   */\n      dup8\n        /* \"#utility.yul\":28664:28683   */\n      add\n        /* \"#utility.yul\":28658:28684   */\n      mload\n        /* \"#utility.yul\":28649:28684   */\n      swap1\n      pop\n        /* \"#utility.yul\":28621:28698   */\n    tag_796:\n        /* \"#utility.yul\":28724:28791   */\n      tag_797\n        /* \"#utility.yul\":28784:28790   */\n      dup6\n        /* \"#utility.yul\":28777:28782   */\n      dup3\n        /* \"#utility.yul\":28724:28791   */\n      tag_501\n      jump\t// in\n    tag_797:\n        /* \"#utility.yul\":28718:28722   */\n      dup7\n        /* \"#utility.yul\":28711:28792   */\n      sstore\n        /* \"#utility.yul\":28580:28802   */\n      pop\n        /* \"#utility.yul\":27916:28802   */\n      jump(tag_794)\n        /* \"#utility.yul\":27946:28563   */\n    tag_795:\n        /* \"#utility.yul\":27998:28002   */\n      0x1f\n        /* \"#utility.yul\":27994:28003   */\n      not\n        /* \"#utility.yul\":27986:27992   */\n      dup5\n        /* \"#utility.yul\":27982:28004   */\n      and\n        /* \"#utility.yul\":28032:28068   */\n      tag_798\n        /* \"#utility.yul\":28063:28067   */\n      dup7\n        /* \"#utility.yul\":28032:28068   */\n      tag_487\n      jump\t// in\n    tag_798:\n        /* \"#utility.yul\":28090:28091   */\n      0x00\n        /* \"#utility.yul\":28104:28312   */\n    tag_799:\n        /* \"#utility.yul\":28118:28125   */\n      dup3\n        /* \"#utility.yul\":28115:28116   */\n      dup2\n        /* \"#utility.yul\":28112:28126   */\n      lt\n        /* \"#utility.yul\":28104:28312   */\n      iszero\n      tag_801\n      jumpi\n        /* \"#utility.yul\":28197:28206   */\n      dup5\n        /* \"#utility.yul\":28192:28195   */\n      dup10\n        /* \"#utility.yul\":28188:28207   */\n      add\n        /* \"#utility.yul\":28182:28208   */\n      mload\n        /* \"#utility.yul\":28174:28180   */\n      dup3\n        /* \"#utility.yul\":28167:28209   */\n      sstore\n        /* \"#utility.yul\":28248:28249   */\n      0x01\n        /* \"#utility.yul\":28240:28246   */\n      dup3\n        /* \"#utility.yul\":28236:28250   */\n      add\n        /* \"#utility.yul\":28226:28250   */\n      swap2\n      pop\n        /* \"#utility.yul\":28295:28297   */\n      0x20\n        /* \"#utility.yul\":28284:28293   */\n      dup6\n        /* \"#utility.yul\":28280:28298   */\n      add\n        /* \"#utility.yul\":28267:28298   */\n      swap5\n      pop\n        /* \"#utility.yul\":28141:28145   */\n      0x20\n        /* \"#utility.yul\":28138:28139   */\n      dup2\n        /* \"#utility.yul\":28134:28146   */\n      add\n        /* \"#utility.yul\":28129:28146   */\n      swap1\n      pop\n        /* \"#utility.yul\":28104:28312   */\n      jump(tag_799)\n    tag_801:\n        /* \"#utility.yul\":28340:28346   */\n      dup7\n        /* \"#utility.yul\":28331:28338   */\n      dup4\n        /* \"#utility.yul\":28328:28347   */\n      lt\n        /* \"#utility.yul\":28325:28504   */\n      iszero\n      tag_802\n      jumpi\n        /* \"#utility.yul\":28398:28407   */\n      dup5\n        /* \"#utility.yul\":28393:28396   */\n      dup10\n        /* \"#utility.yul\":28389:28408   */\n      add\n        /* \"#utility.yul\":28383:28409   */\n      mload\n        /* \"#utility.yul\":28441:28489   */\n      tag_803\n        /* \"#utility.yul\":28483:28487   */\n      0x1f\n        /* \"#utility.yul\":28475:28481   */\n      dup10\n        /* \"#utility.yul\":28471:28488   */\n      and\n        /* \"#utility.yul\":28460:28469   */\n      dup3\n        /* \"#utility.yul\":28441:28489   */\n      tag_500\n      jump\t// in\n    tag_803:\n        /* \"#utility.yul\":28433:28439   */\n      dup4\n        /* \"#utility.yul\":28426:28490   */\n      sstore\n        /* \"#utility.yul\":28348:28504   */\n      pop\n        /* \"#utility.yul\":28325:28504   */\n    tag_802:\n        /* \"#utility.yul\":28550:28551   */\n      0x01\n        /* \"#utility.yul\":28546:28547   */\n      0x02\n        /* \"#utility.yul\":28538:28544   */\n      dup9\n        /* \"#utility.yul\":28534:28548   */\n      mul\n        /* \"#utility.yul\":28530:28552   */\n      add\n        /* \"#utility.yul\":28524:28528   */\n      dup9\n        /* \"#utility.yul\":28517:28553   */\n      sstore\n        /* \"#utility.yul\":27953:28563   */\n      pop\n      pop\n      pop\n        /* \"#utility.yul\":27916:28802   */\n    tag_794:\n      pop\n        /* \"#utility.yul\":27508:28808   */\n      pop\n      pop\n      pop\n        /* \"#utility.yul\":27418:28808   */\n      pop\n      pop\n      jump\t// out\n        /* \"#utility.yul\":28814:29343   */\n    tag_244:\n        /* \"#utility.yul\":28981:28985   */\n      0x00\n        /* \"#utility.yul\":29019:29021   */\n      0x60\n        /* \"#utility.yul\":29008:29017   */\n      dup3\n        /* \"#utility.yul\":29004:29022   */\n      add\n        /* \"#utility.yul\":28996:29022   */\n      swap1\n      pop\n        /* \"#utility.yul\":29032:29103   */\n      tag_805\n        /* \"#utility.yul\":29100:29101   */\n      0x00\n        /* \"#utility.yul\":29089:29098   */\n      dup4\n        /* \"#utility.yul\":29085:29102   */\n      add\n        /* \"#utility.yul\":29076:29082   */\n      dup7\n        /* \"#utility.yul\":29032:29103   */\n      tag_427\n      jump\t// in\n    tag_805:\n        /* \"#utility.yul\":29150:29159   */\n      dup2\n        /* \"#utility.yul\":29144:29148   */\n      dup2\n        /* \"#utility.yul\":29140:29160   */\n      sub\n        /* \"#utility.yul\":29135:29137   */\n      0x20\n        /* \"#utility.yul\":29124:29133   */\n      dup4\n        /* \"#utility.yul\":29120:29138   */\n      add\n        /* \"#utility.yul\":29113:29161   */\n      mstore\n        /* \"#utility.yul\":29178:29254   */\n      tag_806\n        /* \"#utility.yul\":29249:29253   */\n      dup2\n        /* \"#utility.yul\":29240:29246   */\n      dup6\n        /* \"#utility.yul\":29178:29254   */\n      tag_444\n      jump\t// in\n    tag_806:\n        /* \"#utility.yul\":29170:29254   */\n      swap1\n      pop\n        /* \"#utility.yul\":29264:29336   */\n      tag_807\n        /* \"#utility.yul\":29332:29334   */\n      0x40\n        /* \"#utility.yul\":29321:29330   */\n      dup4\n        /* \"#utility.yul\":29317:29335   */\n      add\n        /* \"#utility.yul\":29308:29314   */\n      dup5\n        /* \"#utility.yul\":29264:29336   */\n      tag_435\n      jump\t// in\n    tag_807:\n        /* \"#utility.yul\":28814:29343   */\n      swap5\n      swap4\n      pop\n      pop\n      pop\n      pop\n      jump\t// out\n        /* \"#utility.yul\":29349:29519   */\n    tag_502:\n        /* \"#utility.yul\":29489:29511   */\n      0x4f776e657220616c726561647920657869737473000000000000000000000000\n        /* \"#utility.yul\":29485:29486   */\n      0x00\n        /* \"#utility.yul\":29477:29483   */\n      dup3\n        /* \"#utility.yul\":29473:29487   */\n      add\n        /* \"#utility.yul\":29466:29512   */\n      mstore\n        /* \"#utility.yul\":29349:29519   */\n      pop\n      jump\t// out\n        /* \"#utility.yul\":29525:29891   */\n    tag_503:\n        /* \"#utility.yul\":29667:29670   */\n      0x00\n        /* \"#utility.yul\":29688:29755   */\n      tag_810\n        /* \"#utility.yul\":29752:29754   */\n      0x14\n        /* \"#utility.yul\":29747:29750   */\n      dup4\n        /* \"#utility.yul\":29688:29755   */\n      tag_469\n      jump\t// in\n    tag_810:\n        /* \"#utility.yul\":29681:29755   */\n      swap2\n      pop\n        /* \"#utility.yul\":29764:29857   */\n      tag_811\n        /* \"#utility.yul\":29853:29856   */\n      dup3\n        /* \"#utility.yul\":29764:29857   */\n      tag_502\n      jump\t// in\n    tag_811:\n        /* \"#utility.yul\":29882:29884   */\n      0x20\n        /* \"#utility.yul\":29877:29880   */\n      dup3\n        /* \"#utility.yul\":29873:29885   */\n      add\n        /* \"#utility.yul\":29866:29885   */\n      swap1\n      pop\n        /* \"#utility.yul\":29525:29891   */\n      swap2\n      swap1\n      pop\n      jump\t// out\n        /* \"#utility.yul\":29897:30316   */\n    tag_252:\n        /* \"#utility.yul\":30063:30067   */\n      0x00\n        /* \"#utility.yul\":30101:30103   */\n      0x20\n        /* \"#utility.yul\":30090:30099   */\n      dup3\n        /* \"#utility.yul\":30086:30104   */\n      add\n        /* \"#utility.yul\":30078:30104   */\n      swap1\n      pop\n        /* \"#utility.yul\":30150:30159   */\n      dup2\n        /* \"#utility.yul\":30144:30148   */\n      dup2\n        /* \"#utility.yul\":30140:30160   */\n      sub\n        /* \"#utility.yul\":30136:30137   */\n      0x00\n        /* \"#utility.yul\":30125:30134   */\n      dup4\n        /* \"#utility.yul\":30121:30138   */\n      add\n        /* \"#utility.yul\":30114:30161   */\n      mstore\n        /* \"#utility.yul\":30178:30309   */\n      tag_813\n        /* \"#utility.yul\":30304:30308   */\n      dup2\n        /* \"#utility.yul\":30178:30309   */\n      tag_503\n      jump\t// in\n    tag_813:\n        /* \"#utility.yul\":30170:30309   */\n      swap1\n      pop\n        /* \"#utility.yul\":29897:30316   */\n      swap2\n      swap1\n      pop\n      jump\t// out\n        /* \"#utility.yul\":30322:30494   */\n    tag_504:\n        /* \"#utility.yul\":30462:30486   */\n      0x416464726573732063616e6e6f74206265206e756c6c00000000000000000000\n        /* \"#utility.yul\":30458:30459   */\n      0x00\n        /* \"#utility.yul\":30450:30456   */\n      dup3\n        /* \"#utility.yul\":30446:30460   */\n      add\n        /* \"#utility.yul\":30439:30487   */\n      mstore\n        /* \"#utility.yul\":30322:30494   */\n      pop\n      jump\t// out\n        /* \"#utility.yul\":30500:30866   */\n    tag_505:\n        /* \"#utility.yul\":30642:30645   */\n      0x00\n        /* \"#utility.yul\":30663:30730   */\n      tag_816\n        /* \"#utility.yul\":30727:30729   */\n      0x16\n        /* \"#utility.yul\":30722:30725   */\n      dup4\n        /* \"#utility.yul\":30663:30730   */\n      tag_469\n      jump\t// in\n    tag_816:\n        /* \"#utility.yul\":30656:30730   */\n      swap2\n      pop\n        /* \"#utility.yul\":30739:30832   */\n      tag_817\n        /* \"#utility.yul\":30828:30831   */\n      dup3\n        /* \"#utility.yul\":30739:30832   */\n      tag_504\n      jump\t// in\n    tag_817:\n        /* \"#utility.yul\":30857:30859   */\n      0x20\n        /* \"#utility.yul\":30852:30855   */\n      dup3\n        /* \"#utility.yul\":30848:30860   */\n      add\n        /* \"#utility.yul\":30841:30860   */\n      swap1\n      pop\n        /* \"#utility.yul\":30500:30866   */\n      swap2\n      swap1\n      pop\n      jump\t// out\n        /* \"#utility.yul\":30872:31291   */\n    tag_256:\n        /* \"#utility.yul\":31038:31042   */\n      0x00\n        /* \"#utility.yul\":31076:31078   */\n      0x20\n        /* \"#utility.yul\":31065:31074   */\n      dup3\n        /* \"#utility.yul\":31061:31079   */\n      add\n        /* \"#utility.yul\":31053:31079   */\n      swap1\n      pop\n        /* \"#utility.yul\":31125:31134   */\n      dup2\n        /* \"#utility.yul\":31119:31123   */\n      dup2\n        /* \"#utility.yul\":31115:31135   */\n      sub\n        /* \"#utility.yul\":31111:31112   */\n      0x00\n        /* \"#utility.yul\":31100:31109   */\n      dup4\n        /* \"#utility.yul\":31096:31113   */\n      add\n        /* \"#utility.yul\":31089:31136   */\n      mstore\n        /* \"#utility.yul\":31153:31284   */\n      tag_819\n        /* \"#utility.yul\":31279:31283   */\n      dup2\n        /* \"#utility.yul\":31153:31284   */\n      tag_505\n      jump\t// in\n    tag_819:\n        /* \"#utility.yul\":31145:31284   */\n      swap1\n      pop\n        /* \"#utility.yul\":30872:31291   */\n      swap2\n      swap1\n      pop\n      jump\t// out\n        /* \"#utility.yul\":31297:31488   */\n    tag_258:\n        /* \"#utility.yul\":31337:31340   */\n      0x00\n        /* \"#utility.yul\":31356:31376   */\n      tag_821\n        /* \"#utility.yul\":31374:31375   */\n      dup3\n        /* \"#utility.yul\":31356:31376   */\n      tag_426\n      jump\t// in\n    tag_821:\n        /* \"#utility.yul\":31351:31376   */\n      swap2\n      pop\n        /* \"#utility.yul\":31390:31410   */\n      tag_822\n        /* \"#utility.yul\":31408:31409   */\n      dup4\n        /* \"#utility.yul\":31390:31410   */\n      tag_426\n      jump\t// in\n    tag_822:\n        /* \"#utility.yul\":31385:31410   */\n      swap3\n      pop\n        /* \"#utility.yul\":31433:31434   */\n      dup3\n        /* \"#utility.yul\":31430:31431   */\n      dup3\n        /* \"#utility.yul\":31426:31435   */\n      add\n        /* \"#utility.yul\":31419:31435   */\n      swap1\n      pop\n        /* \"#utility.yul\":31454:31457   */\n      dup1\n        /* \"#utility.yul\":31451:31452   */\n      dup3\n        /* \"#utility.yul\":31448:31458   */\n      gt\n        /* \"#utility.yul\":31445:31481   */\n      iszero\n      tag_823\n      jumpi\n        /* \"#utility.yul\":31461:31479   */\n      tag_824\n      tag_474\n      jump\t// in\n    tag_824:\n        /* \"#utility.yul\":31445:31481   */\n    tag_823:\n        /* \"#utility.yul\":31297:31488   */\n      swap3\n      swap2\n      pop\n      pop\n      jump\t// out\n        /* \"#utility.yul\":31494:31663   */\n    tag_506:\n        /* \"#utility.yul\":31634:31655   */\n      0x496e76616c696420726571756972656d656e7400000000000000000000000000\n        /* \"#utility.yul\":31630:31631   */\n      0x00\n        /* \"#utility.yul\":31622:31628   */\n      dup3\n        /* \"#utility.yul\":31618:31632   */\n      add\n        /* \"#utility.yul\":31611:31656   */\n      mstore\n        /* \"#utility.yul\":31494:31663   */\n      pop\n      jump\t// out\n        /* \"#utility.yul\":31669:32035   */\n    tag_507:\n        /* \"#utility.yul\":31811:31814   */\n      0x00\n        /* \"#utility.yul\":31832:31899   */\n      tag_827\n        /* \"#utility.yul\":31896:31898   */\n      0x13\n        /* \"#utility.yul\":31891:31894   */\n      dup4\n        /* \"#utility.yul\":31832:31899   */\n      tag_469\n      jump\t// in\n    tag_827:\n        /* \"#utility.yul\":31825:31899   */\n      swap2\n      pop\n        /* \"#utility.yul\":31908:32001   */\n      tag_828\n        /* \"#utility.yul\":31997:32000   */\n      dup3\n        /* \"#utility.yul\":31908:32001   */\n      tag_506\n      jump\t// in\n    tag_828:\n        /* \"#utility.yul\":32026:32028   */\n      0x20\n        /* \"#utility.yul\":32021:32024   */\n      dup3\n        /* \"#utility.yul\":32017:32029   */\n      add\n        /* \"#utility.yul\":32010:32029   */\n      swap1\n      pop\n        /* \"#utility.yul\":31669:32035   */\n      swap2\n      swap1\n      pop\n      jump\t// out\n        /* \"#utility.yul\":32041:32460   */\n    tag_265:\n        /* \"#utility.yul\":32207:32211   */\n      0x00\n        /* \"#utility.yul\":32245:32247   */\n      0x20\n        /* \"#utility.yul\":32234:32243   */\n      dup3\n        /* \"#utility.yul\":32230:32248   */\n      add\n        /* \"#utility.yul\":32222:32248   */\n      swap1\n      pop\n        /* \"#utility.yul\":32294:32303   */\n      dup2\n        /* \"#utility.yul\":32288:32292   */\n      dup2\n        /* \"#utility.yul\":32284:32304   */\n      sub\n        /* \"#utility.yul\":32280:32281   */\n      0x00\n        /* \"#utility.yul\":32269:32278   */\n      dup4\n        /* \"#utility.yul\":32265:32282   */\n      add\n        /* \"#utility.yul\":32258:32305   */\n      mstore\n        /* \"#utility.yul\":32322:32453   */\n      tag_830\n        /* \"#utility.yul\":32448:32452   */\n      dup2\n        /* \"#utility.yul\":32322:32453   */\n      tag_507\n      jump\t// in\n    tag_830:\n        /* \"#utility.yul\":32314:32453   */\n      swap1\n      pop\n        /* \"#utility.yul\":32041:32460   */\n      swap2\n      swap1\n      pop\n      jump\t// out\n        /* \"#utility.yul\":32466:32645   */\n    tag_508:\n        /* \"#utility.yul\":32606:32637   */\n      0x5472616e73616374696f6e20616c726561647920636f6e6669726d6564000000\n        /* \"#utility.yul\":32602:32603   */\n      0x00\n        /* \"#utility.yul\":32594:32600   */\n      dup3\n        /* \"#utility.yul\":32590:32604   */\n      add\n        /* \"#utility.yul\":32583:32638   */\n      mstore\n        /* \"#utility.yul\":32466:32645   */\n      pop\n      jump\t// out\n        /* \"#utility.yul\":32651:33017   */\n    tag_509:\n        /* \"#utility.yul\":32793:32796   */\n      0x00\n        /* \"#utility.yul\":32814:32881   */\n      tag_833\n        /* \"#utility.yul\":32878:32880   */\n      0x1d\n        /* \"#utility.yul\":32873:32876   */\n      dup4\n        /* \"#utility.yul\":32814:32881   */\n      tag_469\n      jump\t// in\n    tag_833:\n        /* \"#utility.yul\":32807:32881   */\n      swap2\n      pop\n        /* \"#utility.yul\":32890:32983   */\n      tag_834\n        /* \"#utility.yul\":32979:32982   */\n      dup3\n        /* \"#utility.yul\":32890:32983   */\n      tag_508\n      jump\t// in\n    tag_834:\n        /* \"#utility.yul\":33008:33010   */\n      0x20\n        /* \"#utility.yul\":33003:33006   */\n      dup3\n        /* \"#utility.yul\":32999:33011   */\n      add\n        /* \"#utility.yul\":32992:33011   */\n      swap1\n      pop\n        /* \"#utility.yul\":32651:33017   */\n      swap2\n      swap1\n      pop\n      jump\t// out\n        /* \"#utility.yul\":33023:33442   */\n    tag_351:\n        /* \"#utility.yul\":33189:33193   */\n      0x00\n        /* \"#utility.yul\":33227:33229   */\n      0x20\n        /* \"#utility.yul\":33216:33225   */\n      dup3\n        /* \"#utility.yul\":33212:33230   */\n      add\n        /* \"#utility.yul\":33204:33230   */\n      swap1\n      pop\n        /* \"#utility.yul\":33276:33285   */\n      dup2\n        /* \"#utility.yul\":33270:33274   */\n      dup2\n        /* \"#utility.yul\":33266:33286   */\n      sub\n        /* \"#utility.yul\":33262:33263   */\n      0x00\n        /* \"#utility.yul\":33251:33260   */\n      dup4\n        /* \"#utility.yul\":33247:33264   */\n      add\n        /* \"#utility.yul\":33240:33287   */\n      mstore\n        /* \"#utility.yul\":33304:33435   */\n      tag_836\n        /* \"#utility.yul\":33430:33434   */\n      dup2\n        /* \"#utility.yul\":33304:33435   */\n      tag_509\n      jump\t// in\n    tag_836:\n        /* \"#utility.yul\":33296:33435   */\n      swap1\n      pop\n        /* \"#utility.yul\":33023:33442   */\n      swap2\n      swap1\n      pop\n      jump\t// out\n        /* \"#utility.yul\":33448:33624   */\n    tag_510:\n        /* \"#utility.yul\":33588:33616   */\n      0x43616e6e6f742065786563757465207472616e73616374696f6e000000000000\n        /* \"#utility.yul\":33584:33585   */\n      0x00\n        /* \"#utility.yul\":33576:33582   */\n      dup3\n        /* \"#utility.yul\":33572:33586   */\n      add\n        /* \"#utility.yul\":33565:33617   */\n      mstore\n        /* \"#utility.yul\":33448:33624   */\n      pop\n      jump\t// out\n        /* \"#utility.yul\":33630:33996   */\n    tag_511:\n        /* \"#utility.yul\":33772:33775   */\n      0x00\n        /* \"#utility.yul\":33793:33860   */\n      tag_839\n        /* \"#utility.yul\":33857:33859   */\n      0x1a\n        /* \"#utility.yul\":33852:33855   */\n      dup4\n        /* \"#utility.yul\":33793:33860   */\n      tag_469\n      jump\t// in\n    tag_839:\n        /* \"#utility.yul\":33786:33860   */\n      swap2\n      pop\n        /* \"#utility.yul\":33869:33962   */\n      tag_840\n        /* \"#utility.yul\":33958:33961   */\n      dup3\n        /* \"#utility.yul\":33869:33962   */\n      tag_510\n      jump\t// in\n    tag_840:\n        /* \"#utility.yul\":33987:33989   */\n      0x20\n        /* \"#utility.yul\":33982:33985   */\n      dup3\n        /* \"#utility.yul\":33978:33990   */\n      add\n        /* \"#utility.yul\":33971:33990   */\n      swap1\n      pop\n        /* \"#utility.yul\":33630:33996   */\n      swap2\n      swap1\n      pop\n      jump\t// out\n        /* \"#utility.yul\":34002:34421   */\n    tag_391:\n        /* \"#utility.yul\":34168:34172   */\n      0x00\n        /* \"#utility.yul\":34206:34208   */\n      0x20\n        /* \"#utility.yul\":34195:34204   */\n      dup3\n        /* \"#utility.yul\":34191:34209   */\n      add\n        /* \"#utility.yul\":34183:34209   */\n      swap1\n      pop\n        /* \"#utility.yul\":34255:34264   */\n      dup2\n        /* \"#utility.yul\":34249:34253   */\n      dup2\n        /* \"#utility.yul\":34245:34265   */\n      sub\n        /* \"#utility.yul\":34241:34242   */\n      0x00\n        /* \"#utility.yul\":34230:34239   */\n      dup4\n        /* \"#utility.yul\":34226:34243   */\n      add\n        /* \"#utility.yul\":34219:34266   */\n      mstore\n        /* \"#utility.yul\":34283:34414   */\n      tag_842\n        /* \"#utility.yul\":34409:34413   */\n      dup2\n        /* \"#utility.yul\":34283:34414   */\n      tag_511\n      jump\t// in\n    tag_842:\n        /* \"#utility.yul\":34275:34414   */\n      swap1\n      pop\n        /* \"#utility.yul\":34002:34421   */\n      swap2\n      swap1\n      pop\n      jump\t// out\n        /* \"#utility.yul\":34427:34574   */\n    tag_512:\n        /* \"#utility.yul\":34528:34539   */\n      0x00\n        /* \"#utility.yul\":34565:34568   */\n      dup2\n        /* \"#utility.yul\":34550:34568   */\n      swap1\n      pop\n        /* \"#utility.yul\":34427:34574   */\n      swap3\n      swap2\n      pop\n      pop\n      jump\t// out\n        /* \"#utility.yul\":34602:35472   */\n    tag_513:\n        /* \"#utility.yul\":34703:34706   */\n      0x00\n        /* \"#utility.yul\":34740:34745   */\n      dup2\n        /* \"#utility.yul\":34734:34746   */\n      sload\n        /* \"#utility.yul\":34769:34805   */\n      tag_845\n        /* \"#utility.yul\":34795:34804   */\n      dup2\n        /* \"#utility.yul\":34769:34805   */\n      tag_215\n      jump\t// in\n    tag_845:\n        /* \"#utility.yul\":34821:34909   */\n      tag_846\n        /* \"#utility.yul\":34902:34908   */\n      dup2\n        /* \"#utility.yul\":34897:34900   */\n      dup7\n        /* \"#utility.yul\":34821:34909   */\n      tag_512\n      jump\t// in\n    tag_846:\n        /* \"#utility.yul\":34814:34909   */\n      swap5\n      pop\n        /* \"#utility.yul\":34940:34941   */\n      0x01\n        /* \"#utility.yul\":34929:34938   */\n      dup3\n        /* \"#utility.yul\":34925:34942   */\n      and\n        /* \"#utility.yul\":34956:34957   */\n      0x00\n        /* \"#utility.yul\":34951:35117   */\n      dup2\n      eq\n      tag_848\n      jumpi\n        /* \"#utility.yul\":35131:35132   */\n      0x01\n        /* \"#utility.yul\":35126:35466   */\n      dup2\n      eq\n      tag_849\n      jumpi\n        /* \"#utility.yul\":34918:35466   */\n      jump(tag_847)\n        /* \"#utility.yul\":34951:35117   */\n    tag_848:\n        /* \"#utility.yul\":35035:35039   */\n      0xff\n        /* \"#utility.yul\":35031:35040   */\n      not\n        /* \"#utility.yul\":35020:35029   */\n      dup4\n        /* \"#utility.yul\":35016:35041   */\n      and\n        /* \"#utility.yul\":35011:35014   */\n      dup7\n        /* \"#utility.yul\":35004:35042   */\n      mstore\n        /* \"#utility.yul\":35097:35103   */\n      dup2\n        /* \"#utility.yul\":35090:35104   */\n      iszero\n        /* \"#utility.yul\":35083:35105   */\n      iszero\n        /* \"#utility.yul\":35075:35081   */\n      dup3\n        /* \"#utility.yul\":35071:35106   */\n      mul\n        /* \"#utility.yul\":35066:35069   */\n      dup7\n        /* \"#utility.yul\":35062:35107   */\n      add\n        /* \"#utility.yul\":35055:35107   */\n      swap4\n      pop\n        /* \"#utility.yul\":34951:35117   */\n      jump(tag_847)\n        /* \"#utility.yul\":35126:35466   */\n    tag_849:\n        /* \"#utility.yul\":35193:35230   */\n      tag_850\n        /* \"#utility.yul\":35224:35229   */\n      dup6\n        /* \"#utility.yul\":35193:35230   */\n      tag_487\n      jump\t// in\n    tag_850:\n        /* \"#utility.yul\":35252:35253   */\n      0x00\n        /* \"#utility.yul\":35266:35420   */\n    tag_851:\n        /* \"#utility.yul\":35280:35286   */\n      dup4\n        /* \"#utility.yul\":35277:35278   */\n      dup2\n        /* \"#utility.yul\":35274:35287   */\n      lt\n        /* \"#utility.yul\":35266:35420   */\n      iszero\n      tag_853\n      jumpi\n        /* \"#utility.yul\":35354:35361   */\n      dup2\n        /* \"#utility.yul\":35348:35362   */\n      sload\n        /* \"#utility.yul\":35344:35345   */\n      dup2\n        /* \"#utility.yul\":35339:35342   */\n      dup10\n        /* \"#utility.yul\":35335:35346   */\n      add\n        /* \"#utility.yul\":35328:35363   */\n      mstore\n        /* \"#utility.yul\":35404:35405   */\n      0x01\n        /* \"#utility.yul\":35395:35402   */\n      dup3\n        /* \"#utility.yul\":35391:35406   */\n      add\n        /* \"#utility.yul\":35380:35406   */\n      swap2\n      pop\n        /* \"#utility.yul\":35302:35306   */\n      0x20\n        /* \"#utility.yul\":35299:35300   */\n      dup2\n        /* \"#utility.yul\":35295:35307   */\n      add\n        /* \"#utility.yul\":35290:35307   */\n      swap1\n      pop\n        /* \"#utility.yul\":35266:35420   */\n      jump(tag_851)\n    tag_853:\n        /* \"#utility.yul\":35449:35455   */\n      dup4\n        /* \"#utility.yul\":35444:35447   */\n      dup9\n        /* \"#utility.yul\":35440:35456   */\n      add\n        /* \"#utility.yul\":35433:35456   */\n      swap6\n      pop\n        /* \"#utility.yul\":35133:35466   */\n      pop\n      pop\n        /* \"#utility.yul\":34918:35466   */\n    tag_847:\n      pop\n        /* \"#utility.yul\":34707:35472   */\n      pop\n      pop\n        /* \"#utility.yul\":34602:35472   */\n      swap3\n      swap2\n      pop\n      pop\n      jump\t// out\n        /* \"#utility.yul\":35478:35743   */\n    tag_394:\n        /* \"#utility.yul\":35605:35608   */\n      0x00\n        /* \"#utility.yul\":35627:35717   */\n      tag_855\n        /* \"#utility.yul\":35713:35716   */\n      dup3\n        /* \"#utility.yul\":35704:35710   */\n      dup5\n        /* \"#utility.yul\":35627:35717   */\n      tag_513\n      jump\t// in\n    tag_855:\n        /* \"#utility.yul\":35620:35717   */\n      swap2\n      pop\n        /* \"#utility.yul\":35734:35737   */\n      dup2\n        /* \"#utility.yul\":35727:35737   */\n      swap1\n      pop\n        /* \"#utility.yul\":35478:35743   */\n      swap3\n      swap2\n      pop\n      pop\n      jump\t// out\n        /* \"#utility.yul\":35749:35917   */\n    tag_514:\n        /* \"#utility.yul\":35889:35909   */\n      0x5472616e73616374696f6e206661696c65640000000000000000000000000000\n        /* \"#utility.yul\":35885:35886   */\n      0x00\n        /* \"#utility.yul\":35877:35883   */\n      dup3\n        /* \"#utility.yul\":35873:35887   */\n      add\n        /* \"#utility.yul\":35866:35910   */\n      mstore\n        /* \"#utility.yul\":35749:35917   */\n      pop\n      jump\t// out\n        /* \"#utility.yul\":35923:36289   */\n    tag_515:\n        /* \"#utility.yul\":36065:36068   */\n      0x00\n        /* \"#utility.yul\":36086:36153   */\n      tag_858\n        /* \"#utility.yul\":36150:36152   */\n      0x12\n        /* \"#utility.yul\":36145:36148   */\n      dup4\n        /* \"#utility.yul\":36086:36153   */\n      tag_469\n      jump\t// in\n    tag_858:\n        /* \"#utility.yul\":36079:36153   */\n      swap2\n      pop\n        /* \"#utility.yul\":36162:36255   */\n      tag_859\n        /* \"#utility.yul\":36251:36254   */\n      dup3\n        /* \"#utility.yul\":36162:36255   */\n      tag_514\n      jump\t// in\n    tag_859:\n        /* \"#utility.yul\":36280:36282   */\n      0x20\n        /* \"#utility.yul\":36275:36278   */\n      dup3\n        /* \"#utility.yul\":36271:36283   */\n      add\n        /* \"#utility.yul\":36264:36283   */\n      swap1\n      pop\n        /* \"#utility.yul\":35923:36289   */\n      swap2\n      swap1\n      pop\n      jump\t// out\n        /* \"#utility.yul\":36295:36714   */\n    tag_403:\n        /* \"#utility.yul\":36461:36465   */\n      0x00\n        /* \"#utility.yul\":36499:36501   */\n      0x20\n        /* \"#utility.yul\":36488:36497   */\n      dup3\n        /* \"#utility.yul\":36484:36502   */\n      add\n        /* \"#utility.yul\":36476:36502   */\n      swap1\n      pop\n        /* \"#utility.yul\":36548:36557   */\n      dup2\n        /* \"#utility.yul\":36542:36546   */\n      dup2\n        /* \"#utility.yul\":36538:36558   */\n      sub\n        /* \"#utility.yul\":36534:36535   */\n      0x00\n        /* \"#utility.yul\":36523:36532   */\n      dup4\n        /* \"#utility.yul\":36519:36536   */\n      add\n        /* \"#utility.yul\":36512:36559   */\n      mstore\n        /* \"#utility.yul\":36576:36707   */\n      tag_861\n        /* \"#utility.yul\":36702:36706   */\n      dup2\n        /* \"#utility.yul\":36576:36707   */\n      tag_515\n      jump\t// in\n    tag_861:\n        /* \"#utility.yul\":36568:36707   */\n      swap1\n      pop\n        /* \"#utility.yul\":36295:36714   */\n      swap2\n      swap1\n      pop\n      jump\t// out\n        /* \"#utility.yul\":36720:37162   */\n    tag_409:\n        /* \"#utility.yul\":36869:36873   */\n      0x00\n        /* \"#utility.yul\":36907:36909   */\n      0x60\n        /* \"#utility.yul\":36896:36905   */\n      dup3\n        /* \"#utility.yul\":36892:36910   */\n      add\n        /* \"#utility.yul\":36884:36910   */\n      swap1\n      pop\n        /* \"#utility.yul\":36920:36991   */\n      tag_863\n        /* \"#utility.yul\":36988:36989   */\n      0x00\n        /* \"#utility.yul\":36977:36986   */\n      dup4\n        /* \"#utility.yul\":36973:36990   */\n      add\n        /* \"#utility.yul\":36964:36970   */\n      dup7\n        /* \"#utility.yul\":36920:36991   */\n      tag_435\n      jump\t// in\n    tag_863:\n        /* \"#utility.yul\":37001:37073   */\n      tag_864\n        /* \"#utility.yul\":37069:37071   */\n      0x20\n        /* \"#utility.yul\":37058:37067   */\n      dup4\n        /* \"#utility.yul\":37054:37072   */\n      add\n        /* \"#utility.yul\":37045:37051   */\n      dup6\n        /* \"#utility.yul\":37001:37073   */\n      tag_435\n      jump\t// in\n    tag_864:\n        /* \"#utility.yul\":37083:37155   */\n      tag_865\n        /* \"#utility.yul\":37151:37153   */\n      0x40\n        /* \"#utility.yul\":37140:37149   */\n      dup4\n        /* \"#utility.yul\":37136:37154   */\n      add\n        /* \"#utility.yul\":37127:37133   */\n      dup5\n        /* \"#utility.yul\":37083:37155   */\n      tag_427\n      jump\t// in\n    tag_865:\n        /* \"#utility.yul\":36720:37162   */\n      swap5\n      swap4\n      pop\n      pop\n      pop\n      pop\n      jump\t// out\n        /* \"#utility.yul\":37168:37349   */\n    tag_516:\n        /* \"#utility.yul\":37308:37341   */\n      0x5265656e7472616e637947756172643a207265656e7472616e742063616c6c00\n        /* \"#utility.yul\":37304:37305   */\n      0x00\n        /* \"#utility.yul\":37296:37302   */\n      dup3\n        /* \"#utility.yul\":37292:37306   */\n      add\n        /* \"#utility.yul\":37285:37342   */\n      mstore\n        /* \"#utility.yul\":37168:37349   */\n      pop\n      jump\t// out\n        /* \"#utility.yul\":37355:37721   */\n    tag_517:\n        /* \"#utility.yul\":37497:37500   */\n      0x00\n        /* \"#utility.yul\":37518:37585   */\n      tag_868\n        /* \"#utility.yul\":37582:37584   */\n      0x1f\n        /* \"#utility.yul\":37577:37580   */\n      dup4\n        /* \"#utility.yul\":37518:37585   */\n      tag_469\n      jump\t// in\n    tag_868:\n        /* \"#utility.yul\":37511:37585   */\n      swap2\n      pop\n        /* \"#utility.yul\":37594:37687   */\n      tag_869\n        /* \"#utility.yul\":37683:37686   */\n      dup3\n        /* \"#utility.yul\":37594:37687   */\n      tag_516\n      jump\t// in\n    tag_869:\n        /* \"#utility.yul\":37712:37714   */\n      0x20\n        /* \"#utility.yul\":37707:37710   */\n      dup3\n        /* \"#utility.yul\":37703:37715   */\n      add\n        /* \"#utility.yul\":37696:37715   */\n      swap1\n      pop\n        /* \"#utility.yul\":37355:37721   */\n      swap2\n      swap1\n      pop\n      jump\t// out\n        /* \"#utility.yul\":37727:38146   */\n    tag_414:\n        /* \"#utility.yul\":37893:37897   */\n      0x00\n        /* \"#utility.yul\":37931:37933   */\n      0x20\n        /* \"#utility.yul\":37920:37929   */\n      dup3\n        /* \"#utility.yul\":37916:37934   */\n      add\n        /* \"#utility.yul\":37908:37934   */\n      swap1\n      pop\n        /* \"#utility.yul\":37980:37989   */\n      dup2\n        /* \"#utility.yul\":37974:37978   */\n      dup2\n        /* \"#utility.yul\":37970:37990   */\n      sub\n        /* \"#utility.yul\":37966:37967   */\n      0x00\n        /* \"#utility.yul\":37955:37964   */\n      dup4\n        /* \"#utility.yul\":37951:37968   */\n      add\n        /* \"#utility.yul\":37944:37991   */\n      mstore\n        /* \"#utility.yul\":38008:38139   */\n      tag_871\n        /* \"#utility.yul\":38134:38138   */\n      dup2\n        /* \"#utility.yul\":38008:38139   */\n      tag_517\n      jump\t// in\n    tag_871:\n        /* \"#utility.yul\":38000:38139   */\n      swap1\n      pop\n        /* \"#utility.yul\":37727:38146   */\n      swap2\n      swap1\n      pop\n      jump\t// out\n        /* \"#utility.yul\":38152:38484   */\n    tag_418:\n        /* \"#utility.yul\":38273:38277   */\n      0x00\n        /* \"#utility.yul\":38311:38313   */\n      0x40\n        /* \"#utility.yul\":38300:38309   */\n      dup3\n        /* \"#utility.yul\":38296:38314   */\n      add\n        /* \"#utility.yul\":38288:38314   */\n      swap1\n      pop\n        /* \"#utility.yul\":38324:38395   */\n      tag_873\n        /* \"#utility.yul\":38392:38393   */\n      0x00\n        /* \"#utility.yul\":38381:38390   */\n      dup4\n        /* \"#utility.yul\":38377:38394   */\n      add\n        /* \"#utility.yul\":38368:38374   */\n      dup6\n        /* \"#utility.yul\":38324:38395   */\n      tag_435\n      jump\t// in\n    tag_873:\n        /* \"#utility.yul\":38405:38477   */\n      tag_874\n        /* \"#utility.yul\":38473:38475   */\n      0x20\n        /* \"#utility.yul\":38462:38471   */\n      dup4\n        /* \"#utility.yul\":38458:38476   */\n      add\n        /* \"#utility.yul\":38449:38455   */\n      dup5\n        /* \"#utility.yul\":38405:38477   */\n      tag_427\n      jump\t// in\n    tag_874:\n        /* \"#utility.yul\":38152:38484   */\n      swap4\n      swap3\n      pop\n      pop\n      pop\n      jump\t// out\n\n    auxdata: 0xa2646970667358221220158a3f553722d6a1c2338d77b159dadaba3e4e58469cf1ab8953a584f44575bb64736f6c634300081e0033\n}\n",
				"bytecode": {
					"linkReferences": {},
					"object": "608060405234801561000f575f5ffd5b506040516141e83803806141e8833981810160405281019061003191906104db565b60015f819055508151816014821115801561004c5750818111155b801561005857505f8114155b801561006457505f8214155b6100a3576040517f08c379a000000000000000000000000000000000000000000000000000000000815260040161009a9061058f565b60405180910390fd5b5f5f90505b84518110156102235760035f8683815181106100c7576100c66105ad565b5b602002602001015173ffffffffffffffffffffffffffffffffffffffff1673ffffffffffffffffffffffffffffffffffffffff1681526020019081526020015f205f9054906101000a900460ff1615801561016857505f73ffffffffffffffffffffffffffffffffffffffff16858281518110610147576101466105ad565b5b602002602001015173ffffffffffffffffffffffffffffffffffffffff1614155b6101a7576040517f08c379a000000000000000000000000000000000000000000000000000000000815260040161019e90610624565b60405180910390fd5b600160035f8784815181106101bf576101be6105ad565b5b602002602001015173ffffffffffffffffffffffffffffffffffffffff1673ffffffffffffffffffffffffffffffffffffffff1681526020019081526020015f205f6101000a81548160ff02191690831515021790555080806001019150506100a8565b50836004908051906020019061023a92919061024b565b508260058190555050505050610642565b828054828255905f5260205f209081019282156102c1579160200282015b828111156102c0578251825f6101000a81548173ffffffffffffffffffffffffffffffffffffffff021916908373ffffffffffffffffffffffffffffffffffffffff16021790555091602001919060010190610269565b5b5090506102ce91906102d2565b5090565b5b808211156102e9575f815f9055506001016102d3565b5090565b5f604051905090565b5f5ffd5b5f5ffd5b5f5ffd5b5f601f19601f8301169050919050565b7f4e487b71000000000000000000000000000000000000000000000000000000005f52604160045260245ffd5b61034882610302565b810181811067ffffffffffffffff8211171561036757610366610312565b5b80604052505050565b5f6103796102ed565b9050610385828261033f565b919050565b5f67ffffffffffffffff8211156103a4576103a3610312565b5b602082029050602081019050919050565b5f5ffd5b5f73ffffffffffffffffffffffffffffffffffffffff82169050919050565b5f6103e2826103b9565b9050919050565b6103f2816103d8565b81146103fc575f5ffd5b50565b5f8151905061040d816103e9565b92915050565b5f6104256104208461038a565b610370565b90508083825260208201905060208402830185811115610448576104476103b5565b5b835b81811015610471578061045d88826103ff565b84526020840193505060208101905061044a565b5050509392505050565b5f82601f83011261048f5761048e6102fe565b5b815161049f848260208601610413565b91505092915050565b5f819050919050565b6104ba816104a8565b81146104c4575f5ffd5b50565b5f815190506104d5816104b1565b92915050565b5f5f604083850312156104f1576104f06102f6565b5b5f83015167ffffffffffffffff81111561050e5761050d6102fa565b5b61051a8582860161047b565b925050602061052b858286016104c7565b9150509250929050565b5f82825260208201905092915050565b7f496e76616c696420726571756972656d656e74000000000000000000000000005f82015250565b5f610579601383610535565b915061058482610545565b602082019050919050565b5f6020820190508181035f8301526105a68161056d565b9050919050565b7f4e487b71000000000000000000000000000000000000000000000000000000005f52603260045260245ffd5b7f496e76616c6964206f776e6572000000000000000000000000000000000000005f82015250565b5f61060e600d83610535565b9150610619826105da565b602082019050919050565b5f6020820190508181035f83015261063b81610602565b9050919050565b613b998061064f5f395ff3fe608060405260043610610143575f3560e01c806380f59a65116100b5578063b77bf6001161006e578063b77bf6001461053b578063ba51a6df14610565578063c01a8c841461058d578063dc8452cd146105b5578063e20056e6146105df578063ee22610b14610607576101a3565b806380f59a65146103df5780638a8e784c1461041b5780639ace38c214610457578063a0e67e2b14610499578063a8abe69a146104c3578063b5dc40c3146104ff576101a3565b8063338b5dea11610107578063338b5dea1461029957806333ea3dc8146102c15780633aecd0e314610303578063547415251461033f578063575442911461037b5780637065cb48146103b7576101a3565b8063025e7c27146101a757806312065fe0146101e3578063173825d91461020d57806320ea8d86146102355780632f54bf6e1461025d576101a3565b366101a3575f3411156101a1573373ffffffffffffffffffffffffffffffffffffffff167f90890809c654f11d6e72a28fa60149770a0d11ec6c92319d6ceb2bb0a4ea1a153447604051610198929190612895565b60405180910390a25b005b5f5ffd5b3480156101b2575f5ffd5b506101cd60048036038101906101c891906128f7565b61062f565b6040516101da9190612961565b60405180910390f35b3480156101ee575f5ffd5b506101f761066a565b604051610204919061297a565b60405180910390f35b348015610218575f5ffd5b50610233600480360381019061022e91906129bd565b610671565b005b348015610240575f5ffd5b5061025b600480360381019061025691906128f7565b6109ab565b005b348015610268575f5ffd5b50610283600480360381019061027e91906129bd565b610c4f565b6040516102909190612a02565b60405180910390f35b3480156102a4575f5ffd5b506102bf60048036038101906102ba9190612a1b565b610c6c565b005b3480156102cc575f5ffd5b506102e760048036038101906102e291906128f7565b610db2565b6040516102fa9796959493929190612ac9565b60405180910390f35b34801561030e575f5ffd5b50610329600480360381019061032491906129bd565b610edd565b604051610336919061297a565b60405180910390f35b34801561034a575f5ffd5b5061036560048036038101906103609190612b67565b610f5d565b604051610372919061297a565b60405180910390f35b348015610386575f5ffd5b506103a1600480360381019061039c9190612cd1565b610ff1565b6040516103ae919061297a565b60405180910390f35b3480156103c2575f5ffd5b506103dd60048036038101906103d891906129bd565b611266565b005b3480156103ea575f5ffd5b5061040560048036038101906104009190612d51565b61154a565b6040516104129190612a02565b60405180910390f35b348015610426575f5ffd5b50610441600480360381019061043c9190612d51565b611574565b60405161044e9190612a02565b60405180910390f35b348015610462575f5ffd5b5061047d600480360381019061047891906128f7565b6115d6565b6040516104909796959493929190612ac9565b60405180910390f35b3480156104a4575f5ffd5b506104ad6116e4565b6040516104ba9190612e46565b60405180910390f35b3480156104ce575f5ffd5b506104e960048036038101906104e49190612e66565b61176f565b6040516104f69190612f81565b60405180910390f35b34801561050a575f5ffd5b50610525600480360381019061052091906128f7565b611930565b6040516105329190612e46565b60405180910390f35b348015610546575f5ffd5b5061054f611bad565b60405161055c919061297a565b60405180910390f35b348015610570575f5ffd5b5061058b600480360381019061058691906128f7565b611bb3565b005b348015610598575f5ffd5b506105b360048036038101906105ae91906128f7565b611cd3565b005b3480156105c0575f5ffd5b506105c9611f31565b6040516105d6919061297a565b60405180910390f35b3480156105ea575f5ffd5b5061060560048036038101906106009190612fa1565b611f37565b005b348015610612575f5ffd5b5061062d600480360381019061062891906128f7565b6122dc565b005b6004818154811061063e575f80fd5b905f5260205f20015f915054906101000a900473ffffffffffffffffffffffffffffffffffffffff1681565b5f47905090565b3073ffffffffffffffffffffffffffffffffffffffff163373ffffffffffffffffffffffffffffffffffffffff16146106df576040517f08c379a00000000000000000000000000000000000000000000000000000000081526004016106d69061305f565b60405180910390fd5b8060035f8273ffffffffffffffffffffffffffffffffffffffff1673ffffffffffffffffffffffffffffffffffffffff1681526020019081526020015f205f9054906101000a900460ff16610769576040517f08c379a0000000000000000000000000000000000000000000000000000000008152600401610760906130c7565b60405180910390fd5b5f60035f8473ffffffffffffffffffffffffffffffffffffffff1673ffffffffffffffffffffffffffffffffffffffff1681526020019081526020015f205f6101000a81548160ff0219169083151502179055505f5f90505b60016004805490506107d49190613112565b811015610901578273ffffffffffffffffffffffffffffffffffffffff166004828154811061080657610805613145565b5b905f5260205f20015f9054906101000a900473ffffffffffffffffffffffffffffffffffffffff1673ffffffffffffffffffffffffffffffffffffffff16036108f4576004600160048054905061085d9190613112565b8154811061086e5761086d613145565b5b905f5260205f20015f9054906101000a900473ffffffffffffffffffffffffffffffffffffffff16600482815481106108aa576108a9613145565b5b905f5260205f20015f6101000a81548173ffffffffffffffffffffffffffffffffffffffff021916908373ffffffffffffffffffffffffffffffffffffffff160217905550610901565b80806001019150506107c2565b50600480548061091457610913613172565b5b600190038181905f5260205f20015f6101000a81549073ffffffffffffffffffffffffffffffffffffffff02191690559055600480549050600554111561096457610963600480549050611bb3565b5b8173ffffffffffffffffffffffffffffffffffffffff167f8001553a916ef2f495d26a907cc54d96ed840d7bda71e73194bf5a9df7a76b9060405160405180910390a25050565b3360035f8273ffffffffffffffffffffffffffffffffffffffff1673ffffffffffffffffffffffffffffffffffffffff1681526020019081526020015f205f9054906101000a900460ff16610a35576040517f08c379a0000000000000000000000000000000000000000000000000000000008152600401610a2c906130c7565b60405180910390fd5b816006548110610a7a576040517f08c379a0000000000000000000000000000000000000000000000000000000008152600401610a71906131e9565b60405180910390fd5b8260015f8281526020019081526020015f206003015f9054906101000a900460ff1615610adc576040517f08c379a0000000000000000000000000000000000000000000000000000000008152600401610ad390613251565b60405180910390fd5b60025f8581526020019081526020015f205f3373ffffffffffffffffffffffffffffffffffffffff1673ffffffffffffffffffffffffffffffffffffffff1681526020019081526020015f205f9054906101000a900460ff16610b74576040517f08c379a0000000000000000000000000000000000000000000000000000000008152600401610b6b906132b9565b60405180910390fd5b5f60015f8681526020019081526020015f209050806004015f815480929190610b9c906132d7565b91905055505f60025f8781526020019081526020015f205f3373ffffffffffffffffffffffffffffffffffffffff1673ffffffffffffffffffffffffffffffffffffffff1681526020019081526020015f205f6101000a81548160ff021916908315150217905550843373ffffffffffffffffffffffffffffffffffffffff167ff0dca620e2e81f7841d07bcc105e1704fb01475b278a9d4c236e1c62945edd5560405160405180910390a35050505050565b6003602052805f5260405f205f915054906101000a900460ff1681565b5f73ffffffffffffffffffffffffffffffffffffffff168273ffffffffffffffffffffffffffffffffffffffff1603610cda576040517f08c379a0000000000000000000000000000000000000000000000000000000008152600401610cd190613348565b60405180910390fd5b5f8111610d1c576040517f08c379a0000000000000000000000000000000000000000000000000000000008152600401610d13906133b0565b60405180910390fd5b610d493330838573ffffffffffffffffffffffffffffffffffffffff1661268b909392919063ffffffff16565b8173ffffffffffffffffffffffffffffffffffffffff163373ffffffffffffffffffffffffffffffffffffffff167f98c09d9949722bae4bd0d988d4050091c3ae7ec6d51d3c6bbfe4233593944e9e83604051610da6919061297a565b60405180910390a35050565b5f5f60605f5f5f5f5f60015f8a81526020019081526020015f209050805f015f9054906101000a900473ffffffffffffffffffffffffffffffffffffffff16816001015482600201836003015f9054906101000a900460ff1684600401548560050154866006015f9054906101000a900473ffffffffffffffffffffffffffffffffffffffff16848054610e45906133fb565b80601f0160208091040260200160405190810160405280929190818152602001828054610e71906133fb565b8015610ebc5780601f10610e9357610100808354040283529160200191610ebc565b820191905f5260205f20905b815481529060010190602001808311610e9f57829003601f168201915b50505050509450975097509750975097509750975050919395979092949650565b5f8173ffffffffffffffffffffffffffffffffffffffff166370a08231306040518263ffffffff1660e01b8152600401610f179190612961565b602060405180830381865afa158015610f32573d5f5f3e3d5ffd5b505050506040513d601f19601f82011682018060405250810190610f56919061343f565b9050919050565b5f5f5f90505b600654811015610fea57838015610f98575060015f8281526020019081526020015f206003015f9054906101000a900460ff16155b80610fc95750828015610fc8575060015f8281526020019081526020015f206003015f9054906101000a900460ff165b5b15610fdd578180610fd99061346a565b9250505b8080600101915050610f63565b5092915050565b5f3360035f8273ffffffffffffffffffffffffffffffffffffffff1673ffffffffffffffffffffffffffffffffffffffff1681526020019081526020015f205f9054906101000a900460ff1661107c576040517f08c379a0000000000000000000000000000000000000000000000000000000008152600401611073906130c7565b60405180910390fd5b60065491506040518060e001604052808773ffffffffffffffffffffffffffffffffffffffff1681526020018681526020018581526020015f151581526020015f81526020014281526020018473ffffffffffffffffffffffffffffffffffffffff1681525060015f8481526020019081526020015f205f820151815f015f6101000a81548173ffffffffffffffffffffffffffffffffffffffff021916908373ffffffffffffffffffffffffffffffffffffffff1602179055506020820151816001015560408201518160020190816111569190613651565b506060820151816003015f6101000a81548160ff0219169083151502179055506080820151816004015560a0820151816005015560c0820151816006015f6101000a81548173ffffffffffffffffffffffffffffffffffffffff021916908373ffffffffffffffffffffffffffffffffffffffff16021790555090505060065f8154809291906111e59061346a565b91905055508573ffffffffffffffffffffffffffffffffffffffff16823373ffffffffffffffffffffffffffffffffffffffff167fa450e3866a6133bd39d88cce8897a51e823db7ba4e9c912cfc15e523dad9491f88888860405161124c93929190613720565b60405180910390a461125d82611cd3565b50949350505050565b3073ffffffffffffffffffffffffffffffffffffffff163373ffffffffffffffffffffffffffffffffffffffff16146112d4576040517f08c379a00000000000000000000000000000000000000000000000000000000081526004016112cb9061305f565b60405180910390fd5b8060035f8273ffffffffffffffffffffffffffffffffffffffff1673ffffffffffffffffffffffffffffffffffffffff1681526020019081526020015f205f9054906101000a900460ff161561135f576040517f08c379a0000000000000000000000000000000000000000000000000000000008152600401611356906137a6565b60405180910390fd5b815f73ffffffffffffffffffffffffffffffffffffffff168173ffffffffffffffffffffffffffffffffffffffff16036113ce576040517f08c379a00000000000000000000000000000000000000000000000000000000081526004016113c59061380e565b60405180910390fd5b60016004805490506113e0919061382c565b600554601482111580156113f45750818111155b801561140057505f8114155b801561140c57505f8214155b61144b576040517f08c379a0000000000000000000000000000000000000000000000000000000008152600401611442906138a9565b60405180910390fd5b600160035f8773ffffffffffffffffffffffffffffffffffffffff1673ffffffffffffffffffffffffffffffffffffffff1681526020019081526020015f205f6101000a81548160ff021916908315150217905550600485908060018154018082558091505060019003905f5260205f20015f9091909190916101000a81548173ffffffffffffffffffffffffffffffffffffffff021916908373ffffffffffffffffffffffffffffffffffffffff1602179055508473ffffffffffffffffffffffffffffffffffffffff167ff39e6e1eb0edcf53c221607b54b00cd28f3196fed0a24994dc308b8f611b682d60405160405180910390a25050505050565b6002602052815f5260405f20602052805f5260405f205f915091509054906101000a900460ff1681565b5f60025f8481526020019081526020015f205f8373ffffffffffffffffffffffffffffffffffffffff1673ffffffffffffffffffffffffffffffffffffffff1681526020019081526020015f205f9054906101000a900460ff16905092915050565b6001602052805f5260405f205f91509050805f015f9054906101000a900473ffffffffffffffffffffffffffffffffffffffff1690806001015490806002018054611620906133fb565b80601f016020809104026020016040519081016040528092919081815260200182805461164c906133fb565b80156116975780601f1061166e57610100808354040283529160200191611697565b820191905f5260205f20905b81548152906001019060200180831161167a57829003601f168201915b505050505090806003015f9054906101000a900460ff1690806004015490806005015490806006015f9054906101000a900473ffffffffffffffffffffffffffffffffffffffff16905087565b6060600480548060200260200160405190810160405280929190818152602001828054801561176557602002820191905f5260205f20905b815f9054906101000a900473ffffffffffffffffffffffffffffffffffffffff1673ffffffffffffffffffffffffffffffffffffffff168152602001906001019080831161171c575b5050505050905090565b60605f60065467ffffffffffffffff81111561178e5761178d612bad565b5b6040519080825280602002602001820160405280156117bc5781602001602082028036833780820191505090505b5090505f5f90505f5f90505b60065481101561186f578580156117fd575060015f8281526020019081526020015f206003015f9054906101000a900460ff16155b8061182e575084801561182d575060015f8281526020019081526020015f206003015f9054906101000a900460ff165b5b15611862578083838151811061184757611846613145565b5b602002602001018181525050818061185e9061346a565b9250505b80806001019150506117c8565b50868661187c9190613112565b67ffffffffffffffff81111561189557611894612bad565b5b6040519080825280602002602001820160405280156118c35781602001602082028036833780820191505090505b5092505f8790505b86811015611925578281815181106118e6576118e5613145565b5b60200260200101518489836118fb9190613112565b8151811061190c5761190b613145565b5b60200260200101818152505080806001019150506118cb565b505050949350505050565b60605f60048054905067ffffffffffffffff81111561195257611951612bad565b5b6040519080825280602002602001820160405280156119805781602001602082028036833780820191505090505b5090505f5f90505f5f90505b600480549050811015611ad75760025f8681526020019081526020015f205f600483815481106119bf576119be613145565b5b905f5260205f20015f9054906101000a900473ffffffffffffffffffffffffffffffffffffffff1673ffffffffffffffffffffffffffffffffffffffff1673ffffffffffffffffffffffffffffffffffffffff1681526020019081526020015f205f9054906101000a900460ff1615611aca5760048181548110611a4657611a45613145565b5b905f5260205f20015f9054906101000a900473ffffffffffffffffffffffffffffffffffffffff16838381518110611a8157611a80613145565b5b602002602001019073ffffffffffffffffffffffffffffffffffffffff16908173ffffffffffffffffffffffffffffffffffffffff16815250508180611ac69061346a565b9250505b808060010191505061198c565b508067ffffffffffffffff811115611af257611af1612bad565b5b604051908082528060200260200182016040528015611b205781602001602082028036833780820191505090505b5092505f5f90505b81811015611ba557828181518110611b4357611b42613145565b5b6020026020010151848281518110611b5e57611b5d613145565b5b602002602001019073ffffffffffffffffffffffffffffffffffffffff16908173ffffffffffffffffffffffffffffffffffffffff16815250508080600101915050611b28565b505050919050565b60065481565b3073ffffffffffffffffffffffffffffffffffffffff163373ffffffffffffffffffffffffffffffffffffffff1614611c21576040517f08c379a0000000000000000000000000000000000000000000000000000000008152600401611c189061305f565b60405180910390fd5b6004805490508160148211158015611c395750818111155b8015611c4557505f8114155b8015611c5157505f8214155b611c90576040517f08c379a0000000000000000000000000000000000000000000000000000000008152600401611c87906138a9565b60405180910390fd5b826005819055507fa3f1ee9126a074d9326c682f561767f710e927faa811f7a99829d49dc421797a83604051611cc6919061297a565b60405180910390a1505050565b3360035f8273ffffffffffffffffffffffffffffffffffffffff1673ffffffffffffffffffffffffffffffffffffffff1681526020019081526020015f205f9054906101000a900460ff16611d5d576040517f08c379a0000000000000000000000000000000000000000000000000000000008152600401611d54906130c7565b60405180910390fd5b816006548110611da2576040517f08c379a0000000000000000000000000000000000000000000000000000000008152600401611d99906131e9565b60405180910390fd5b823360025f8381526020019081526020015f205f8273ffffffffffffffffffffffffffffffffffffffff1673ffffffffffffffffffffffffffffffffffffffff1681526020019081526020015f205f9054906101000a900460ff1615611e3d576040517f08c379a0000000000000000000000000000000000000000000000000000000008152600401611e3490613911565b60405180910390fd5b5f60015f8781526020019081526020015f209050806004015f815480929190611e659061346a565b9190505550600160025f8881526020019081526020015f205f3373ffffffffffffffffffffffffffffffffffffffff1673ffffffffffffffffffffffffffffffffffffffff1681526020019081526020015f205f6101000a81548160ff021916908315150217905550853373ffffffffffffffffffffffffffffffffffffffff167f5cbe105e36805f7820e291f799d5794ff948af2a5f664e580382defb6339004160405160405180910390a3600554816004015410611f2957611f28866122dc565b5b505050505050565b60055481565b3073ffffffffffffffffffffffffffffffffffffffff163373ffffffffffffffffffffffffffffffffffffffff1614611fa5576040517f08c379a0000000000000000000000000000000000000000000000000000000008152600401611f9c9061305f565b60405180910390fd5b8160035f8273ffffffffffffffffffffffffffffffffffffffff1673ffffffffffffffffffffffffffffffffffffffff1681526020019081526020015f205f9054906101000a900460ff1661202f576040517f08c379a0000000000000000000000000000000000000000000000000000000008152600401612026906130c7565b60405180910390fd5b8160035f8273ffffffffffffffffffffffffffffffffffffffff1673ffffffffffffffffffffffffffffffffffffffff1681526020019081526020015f205f9054906101000a900460ff16156120ba576040517f08c379a00000000000000000000000000000000000000000000000000000000081526004016120b1906137a6565b60405180910390fd5b5f5f90505b6004805490508110156121a6578473ffffffffffffffffffffffffffffffffffffffff16600482815481106120f7576120f6613145565b5b905f5260205f20015f9054906101000a900473ffffffffffffffffffffffffffffffffffffffff1673ffffffffffffffffffffffffffffffffffffffff160361219957836004828154811061214f5761214e613145565b5b905f5260205f20015f6101000a81548173ffffffffffffffffffffffffffffffffffffffff021916908373ffffffffffffffffffffffffffffffffffffffff1602179055506121a6565b80806001019150506120bf565b505f60035f8673ffffffffffffffffffffffffffffffffffffffff1673ffffffffffffffffffffffffffffffffffffffff1681526020019081526020015f205f6101000a81548160ff021916908315150217905550600160035f8573ffffffffffffffffffffffffffffffffffffffff1673ffffffffffffffffffffffffffffffffffffffff1681526020019081526020015f205f6101000a81548160ff0219169083151502179055508373ffffffffffffffffffffffffffffffffffffffff167f8001553a916ef2f495d26a907cc54d96ed840d7bda71e73194bf5a9df7a76b9060405160405180910390a28273ffffffffffffffffffffffffffffffffffffffff167ff39e6e1eb0edcf53c221607b54b00cd28f3196fed0a24994dc308b8f611b682d60405160405180910390a250505050565b3360035f8273ffffffffffffffffffffffffffffffffffffffff1673ffffffffffffffffffffffffffffffffffffffff1681526020019081526020015f205f9054906101000a900460ff16612366576040517f08c379a000000000000000000000000000000000000000000000000000000000815260040161235d906130c7565b60405180910390fd5b8160065481106123ab576040517f08c379a00000000000000000000000000000000000000000000000000000000081526004016123a2906131e9565b60405180910390fd5b8260015f8281526020019081526020015f206003015f9054906101000a900460ff161561240d576040517f08c379a000000000000000000000000000000000000000000000000000000000815260040161240490613251565b60405180910390fd5b61241561270d565b5f60015f8681526020019081526020015f20905060055481600401541015612472576040517f08c379a000000000000000000000000000000000000000000000000000000000815260040161246990613979565b60405180910390fd5b6001816003015f6101000a81548160ff0219169083151502179055505f5f73ffffffffffffffffffffffffffffffffffffffff16826006015f9054906101000a900473ffffffffffffffffffffffffffffffffffffffff1673ffffffffffffffffffffffffffffffffffffffff160361257e57815f015f9054906101000a900473ffffffffffffffffffffffffffffffffffffffff1673ffffffffffffffffffffffffffffffffffffffff168260010154836002016040516125349190613a21565b5f6040518083038185875af1925050503d805f811461256e576040519150601f19603f3d011682016040523d82523d5f602084013e612573565b606091505b5050809150506125f7565b6125f2825f015f9054906101000a900473ffffffffffffffffffffffffffffffffffffffff168360010154846006015f9054906101000a900473ffffffffffffffffffffffffffffffffffffffff1673ffffffffffffffffffffffffffffffffffffffff1661275a9092919063ffffffff16565b600190505b80612637576040517f08c379a000000000000000000000000000000000000000000000000000000000815260040161262e90613a81565b60405180910390fd5b853373ffffffffffffffffffffffffffffffffffffffff167f5445f318f4f5fcfb66592e68e0cc5822aa15664039bd5f0ffde24c5a8142b1ac60405160405180910390a350506126856127d9565b50505050565b612707848573ffffffffffffffffffffffffffffffffffffffff166323b872dd8686866040516024016126c093929190613a9f565b604051602081830303815290604052915060e01b6020820180517bffffffffffffffffffffffffffffffffffffffffffffffffffffffff83818316178352505050506127e2565b50505050565b60025f5403612751576040517f08c379a000000000000000000000000000000000000000000000000000000000815260040161274890613b1e565b60405180910390fd5b60025f81905550565b6127d4838473ffffffffffffffffffffffffffffffffffffffff1663a9059cbb858560405160240161278d929190613b3c565b604051602081830303815290604052915060e01b6020820180517bffffffffffffffffffffffffffffffffffffffffffffffffffffffff83818316178352505050506127e2565b505050565b60015f81905550565b5f5f60205f8451602086015f885af180612801576040513d5f823e3d81fd5b3d92505f519150505f821461281a576001811415612835565b5f8473ffffffffffffffffffffffffffffffffffffffff163b145b1561287757836040517f5274afe700000000000000000000000000000000000000000000000000000000815260040161286e9190612961565b60405180910390fd5b50505050565b5f819050919050565b61288f8161287d565b82525050565b5f6040820190506128a85f830185612886565b6128b56020830184612886565b9392505050565b5f604051905090565b5f5ffd5b5f5ffd5b6128d68161287d565b81146128e0575f5ffd5b50565b5f813590506128f1816128cd565b92915050565b5f6020828403121561290c5761290b6128c5565b5b5f612919848285016128e3565b91505092915050565b5f73ffffffffffffffffffffffffffffffffffffffff82169050919050565b5f61294b82612922565b9050919050565b61295b81612941565b82525050565b5f6020820190506129745f830184612952565b92915050565b5f60208201905061298d5f830184612886565b92915050565b61299c81612941565b81146129a6575f5ffd5b50565b5f813590506129b781612993565b92915050565b5f602082840312156129d2576129d16128c5565b5b5f6129df848285016129a9565b91505092915050565b5f8115159050919050565b6129fc816129e8565b82525050565b5f602082019050612a155f8301846129f3565b92915050565b5f5f60408385031215612a3157612a306128c5565b5b5f612a3e858286016129a9565b9250506020612a4f858286016128e3565b9150509250929050565b5f81519050919050565b5f82825260208201905092915050565b8281835e5f83830152505050565b5f601f19601f8301169050919050565b5f612a9b82612a59565b612aa58185612a63565b9350612ab5818560208601612a73565b612abe81612a81565b840191505092915050565b5f60e082019050612adc5f83018a612952565b612ae96020830189612886565b8181036040830152612afb8188612a91565b9050612b0a60608301876129f3565b612b176080830186612886565b612b2460a0830185612886565b612b3160c0830184612952565b98975050505050505050565b612b46816129e8565b8114612b50575f5ffd5b50565b5f81359050612b6181612b3d565b92915050565b5f5f60408385031215612b7d57612b7c6128c5565b5b5f612b8a85828601612b53565b9250506020612b9b85828601612b53565b9150509250929050565b5f5ffd5b5f5ffd5b7f4e487b71000000000000000000000000000000000000000000000000000000005f52604160045260245ffd5b612be382612a81565b810181811067ffffffffffffffff82111715612c0257612c01612bad565b5b80604052505050565b5f612c146128bc565b9050612c208282612bda565b919050565b5f67ffffffffffffffff821115612c3f57612c3e612bad565b5b612c4882612a81565b9050602081019050919050565b828183375f83830152505050565b5f612c75612c7084612c25565b612c0b565b905082815260208101848484011115612c9157612c90612ba9565b5b612c9c848285612c55565b509392505050565b5f82601f830112612cb857612cb7612ba5565b5b8135612cc8848260208601612c63565b91505092915050565b5f5f5f5f60808587031215612ce957612ce86128c5565b5b5f612cf6878288016129a9565b9450506020612d07878288016128e3565b935050604085013567ffffffffffffffff811115612d2857612d276128c9565b5b612d3487828801612ca4565b9250506060612d45878288016129a9565b91505092959194509250565b5f5f60408385031215612d6757612d666128c5565b5b5f612d74858286016128e3565b9250506020612d85858286016129a9565b9150509250929050565b5f81519050919050565b5f82825260208201905092915050565b5f819050602082019050919050565b612dc181612941565b82525050565b5f612dd28383612db8565b60208301905092915050565b5f602082019050919050565b5f612df482612d8f565b612dfe8185612d99565b9350612e0983612da9565b805f5b83811015612e39578151612e208882612dc7565b9750612e2b83612dde565b925050600181019050612e0c565b5085935050505092915050565b5f6020820190508181035f830152612e5e8184612dea565b905092915050565b5f5f5f5f60808587031215612e7e57612e7d6128c5565b5b5f612e8b878288016128e3565b9450506020612e9c878288016128e3565b9350506040612ead87828801612b53565b9250506060612ebe87828801612b53565b91505092959194509250565b5f81519050919050565b5f82825260208201905092915050565b5f819050602082019050919050565b612efc8161287d565b82525050565b5f612f0d8383612ef3565b60208301905092915050565b5f602082019050919050565b5f612f2f82612eca565b612f398185612ed4565b9350612f4483612ee4565b805f5b83811015612f74578151612f5b8882612f02565b9750612f6683612f19565b925050600181019050612f47565b5085935050505092915050565b5f6020820190508181035f830152612f998184612f25565b905092915050565b5f5f60408385031215612fb757612fb66128c5565b5b5f612fc4858286016129a9565b9250506020612fd5858286016129a9565b9150509250929050565b5f82825260208201905092915050565b7f4f6e6c792077616c6c65742063616e2063616c6c20746869732066756e6374695f8201527f6f6e000000000000000000000000000000000000000000000000000000000000602082015250565b5f613049602283612fdf565b915061305482612fef565b604082019050919050565b5f6020820190508181035f8301526130768161303d565b9050919050565b7f4f776e657220646f6573206e6f742065786973740000000000000000000000005f82015250565b5f6130b1601483612fdf565b91506130bc8261307d565b602082019050919050565b5f6020820190508181035f8301526130de816130a5565b9050919050565b7f4e487b71000000000000000000000000000000000000000000000000000000005f52601160045260245ffd5b5f61311c8261287d565b91506131278361287d565b925082820390508181111561313f5761313e6130e5565b5b92915050565b7f4e487b71000000000000000000000000000000000000000000000000000000005f52603260045260245ffd5b7f4e487b71000000000000000000000000000000000000000000000000000000005f52603160045260245ffd5b7f5472616e73616374696f6e20646f6573206e6f742065786973740000000000005f82015250565b5f6131d3601a83612fdf565b91506131de8261319f565b602082019050919050565b5f6020820190508181035f830152613200816131c7565b9050919050565b7f5472616e73616374696f6e20616c7265616479206578656375746564000000005f82015250565b5f61323b601c83612fdf565b915061324682613207565b602082019050919050565b5f6020820190508181035f8301526132688161322f565b9050919050565b7f5472616e73616374696f6e206e6f7420636f6e6669726d6564000000000000005f82015250565b5f6132a3601983612fdf565b91506132ae8261326f565b602082019050919050565b5f6020820190508181035f8301526132d081613297565b9050919050565b5f6132e18261287d565b91505f82036132f3576132f26130e5565b5b600182039050919050565b7f496e76616c696420746f6b656e206164647265737300000000000000000000005f82015250565b5f613332601583612fdf565b915061333d826132fe565b602082019050919050565b5f6020820190508181035f83015261335f81613326565b9050919050565b7f416d6f756e74206d7573742062652067726561746572207468616e20300000005f82015250565b5f61339a601d83612fdf565b91506133a582613366565b602082019050919050565b5f6020820190508181035f8301526133c78161338e565b9050919050565b7f4e487b71000000000000000000000000000000000000000000000000000000005f52602260045260245ffd5b5f600282049050600182168061341257607f821691505b602082108103613425576134246133ce565b5b50919050565b5f81519050613439816128cd565b92915050565b5f60208284031215613454576134536128c5565b5b5f6134618482850161342b565b91505092915050565b5f6134748261287d565b91507fffffffffffffffffffffffffffffffffffffffffffffffffffffffffffffffff82036134a6576134a56130e5565b5b600182019050919050565b5f819050815f5260205f209050919050565b5f6020601f8301049050919050565b5f82821b905092915050565b5f6008830261350d7fffffffffffffffffffffffffffffffffffffffffffffffffffffffffffffffff826134d2565b61351786836134d2565b95508019841693508086168417925050509392505050565b5f819050919050565b5f61355261354d6135488461287d565b61352f565b61287d565b9050919050565b5f819050919050565b61356b83613538565b61357f61357782613559565b8484546134de565b825550505050565b5f5f905090565b613596613587565b6135a1818484613562565b505050565b5b818110156135c4576135b95f8261358e565b6001810190506135a7565b5050565b601f821115613609576135da816134b1565b6135e3846134c3565b810160208510156135f2578190505b6136066135fe856134c3565b8301826135a6565b50505b505050565b5f82821c905092915050565b5f6136295f198460080261360e565b1980831691505092915050565b5f613641838361361a565b9150826002028217905092915050565b61365a82612a59565b67ffffffffffffffff81111561367357613672612bad565b5b61367d82546133fb565b6136888282856135c8565b5f60209050601f8311600181146136b9575f84156136a7578287015190505b6136b18582613636565b865550613718565b601f1984166136c7866134b1565b5f5b828110156136ee578489015182556001820191506020850194506020810190506136c9565b8683101561370b5784890151613707601f89168261361a565b8355505b6001600288020188555050505b505050505050565b5f6060820190506137335f830186612886565b81810360208301526137458185612a91565b90506137546040830184612952565b949350505050565b7f4f776e657220616c7265616479206578697374730000000000000000000000005f82015250565b5f613790601483612fdf565b915061379b8261375c565b602082019050919050565b5f6020820190508181035f8301526137bd81613784565b9050919050565b7f416464726573732063616e6e6f74206265206e756c6c000000000000000000005f82015250565b5f6137f8601683612fdf565b9150613803826137c4565b602082019050919050565b5f6020820190508181035f830152613825816137ec565b9050919050565b5f6138368261287d565b91506138418361287d565b9250828201905080821115613859576138586130e5565b5b92915050565b7f496e76616c696420726571756972656d656e74000000000000000000000000005f82015250565b5f613893601383612fdf565b915061389e8261385f565b602082019050919050565b5f6020820190508181035f8301526138c081613887565b9050919050565b7f5472616e73616374696f6e20616c726561647920636f6e6669726d65640000005f82015250565b5f6138fb601d83612fdf565b9150613906826138c7565b602082019050919050565b5f6020820190508181035f830152613928816138ef565b9050919050565b7f43616e6e6f742065786563757465207472616e73616374696f6e0000000000005f82015250565b5f613963601a83612fdf565b915061396e8261392f565b602082019050919050565b5f6020820190508181035f83015261399081613957565b9050919050565b5f81905092915050565b5f81546139ad816133fb565b6139b78186613997565b9450600182165f81146139d157600181146139e657613a18565b60ff1983168652811515820286019350613a18565b6139ef856134b1565b5f5b83811015613a10578154818901526001820191506020810190506139f1565b838801955050505b50505092915050565b5f613a2c82846139a1565b915081905092915050565b7f5472616e73616374696f6e206661696c656400000000000000000000000000005f82015250565b5f613a6b601283612fdf565b9150613a7682613a37565b602082019050919050565b5f6020820190508181035f830152613a9881613a5f565b9050919050565b5f606082019050613ab25f830186612952565b613abf6020830185612952565b613acc6040830184612886565b949350505050565b7f5265656e7472616e637947756172643a207265656e7472616e742063616c6c005f82015250565b5f613b08601f83612fdf565b9150613b1382613ad4565b602082019050919050565b5f6020820190508181035f830152613b3581613afc565b9050919050565b5f604082019050613b4f5f830185612952565b613b5c6020830184612886565b939250505056fea2646970667358221220158a3f553722d6a1c2338d77b159dadaba3e4e58469cf1ab8953a584f44575bb64736f6c634300081e0033",
					"opcodes": "PUSH1 0x80 PUSH1 0x40 MSTORE CALLVALUE DUP1 ISZERO PUSH2 0xF JUMPI PUSH0 PUSH0 REVERT JUMPDEST POP PUSH1 0x40 MLOAD PUSH2 0x41E8 CODESIZE SUB DUP1 PUSH2 0x41E8 DUP4 CODECOPY DUP2 DUP2 ADD PUSH1 0x40 MSTORE DUP2 ADD SWAP1 PUSH2 0x31 SWAP2 SWAP1 PUSH2 0x4DB JUMP JUMPDEST PUSH1 0x1 PUSH0 DUP2 SWAP1 SSTORE POP DUP2 MLOAD DUP2 PUSH1 0x14 DUP3 GT ISZERO DUP1 ISZERO PUSH2 0x4C JUMPI POP DUP2 DUP2 GT ISZERO JUMPDEST DUP1 ISZERO PUSH2 0x58 JUMPI POP PUSH0 DUP2 EQ ISZERO JUMPDEST DUP1 ISZERO PUSH2 0x64 JUMPI POP PUSH0 DUP3 EQ ISZERO JUMPDEST PUSH2 0xA3 JUMPI PUSH1 0x40 MLOAD PUSH32 0x8C379A000000000000000000000000000000000000000000000000000000000 DUP2 MSTORE PUSH1 0x4 ADD PUSH2 0x9A SWAP1 PUSH2 0x58F JUMP JUMPDEST PUSH1 0x40 MLOAD DUP1 SWAP2 SUB SWAP1 REVERT JUMPDEST PUSH0 PUSH0 SWAP1 POP JUMPDEST DUP5 MLOAD DUP2 LT ISZERO PUSH2 0x223 JUMPI PUSH1 0x3 PUSH0 DUP7 DUP4 DUP2 MLOAD DUP2 LT PUSH2 0xC7 JUMPI PUSH2 0xC6 PUSH2 0x5AD JUMP JUMPDEST JUMPDEST PUSH1 0x20 MUL PUSH1 0x20 ADD ADD MLOAD PUSH20 0xFFFFFFFFFFFFFFFFFFFFFFFFFFFFFFFFFFFFFFFF AND PUSH20 0xFFFFFFFFFFFFFFFFFFFFFFFFFFFFFFFFFFFFFFFF AND DUP2 MSTORE PUSH1 0x20 ADD SWAP1 DUP2 MSTORE PUSH1 0x20 ADD PUSH0 KECCAK256 PUSH0 SWAP1 SLOAD SWAP1 PUSH2 0x100 EXP SWAP1 DIV PUSH1 0xFF AND ISZERO DUP1 ISZERO PUSH2 0x168 JUMPI POP PUSH0 PUSH20 0xFFFFFFFFFFFFFFFFFFFFFFFFFFFFFFFFFFFFFFFF AND DUP6 DUP3 DUP2 MLOAD DUP2 LT PUSH2 0x147 JUMPI PUSH2 0x146 PUSH2 0x5AD JUMP JUMPDEST JUMPDEST PUSH1 0x20 MUL PUSH1 0x20 ADD ADD MLOAD PUSH20 0xFFFFFFFFFFFFFFFFFFFFFFFFFFFFFFFFFFFFFFFF AND EQ ISZERO JUMPDEST PUSH2 0x1A7 JUMPI PUSH1 0x40 MLOAD PUSH32 0x8C379A000000000000000000000000000000000000000000000000000000000 DUP2 MSTORE PUSH1 0x4 ADD PUSH2 0x19E SWAP1 PUSH2 0x624 JUMP JUMPDEST PUSH1 0x40 MLOAD DUP1 SWAP2 SUB SWAP1 REVERT JUMPDEST PUSH1 0x1 PUSH1 0x3 PUSH0 DUP8 DUP5 DUP2 MLOAD DUP2 LT PUSH2 0x1BF JUMPI PUSH2 0x1BE PUSH2 0x5AD JUMP JUMPDEST JUMPDEST PUSH1 0x20 MUL PUSH1 0x20 ADD ADD MLOAD PUSH20 0xFFFFFFFFFFFFFFFFFFFFFFFFFFFFFFFFFFFFFFFF AND PUSH20 0xFFFFFFFFFFFFFFFFFFFFFFFFFFFFFFFFFFFFFFFF AND DUP2 MSTORE PUSH1 0x20 ADD SWAP1 DUP2 MSTORE PUSH1 0x20 ADD PUSH0 KECCAK256 PUSH0 PUSH2 0x100 EXP DUP2 SLOAD DUP2 PUSH1 0xFF MUL NOT AND SWAP1 DUP4 ISZERO ISZERO MUL OR SWAP1 SSTORE POP DUP1 DUP1 PUSH1 0x1 ADD SWAP2 POP POP PUSH2 0xA8 JUMP JUMPDEST POP DUP4 PUSH1 0x4 SWAP1 DUP1 MLOAD SWAP1 PUSH1 0x20 ADD SWAP1 PUSH2 0x23A SWAP3 SWAP2 SWAP1 PUSH2 0x24B JUMP JUMPDEST POP DUP3 PUSH1 0x5 DUP2 SWAP1 SSTORE POP POP POP POP POP PUSH2 0x642 JUMP JUMPDEST DUP3 DUP1 SLOAD DUP3 DUP3 SSTORE SWAP1 PUSH0 MSTORE PUSH1 0x20 PUSH0 KECCAK256 SWAP1 DUP2 ADD SWAP3 DUP3 ISZERO PUSH2 0x2C1 JUMPI SWAP2 PUSH1 0x20 MUL DUP3 ADD JUMPDEST DUP3 DUP2 GT ISZERO PUSH2 0x2C0 JUMPI DUP3 MLOAD DUP3 PUSH0 PUSH2 0x100 EXP DUP2 SLOAD DUP2 PUSH20 0xFFFFFFFFFFFFFFFFFFFFFFFFFFFFFFFFFFFFFFFF MUL NOT AND SWAP1 DUP4 PUSH20 0xFFFFFFFFFFFFFFFFFFFFFFFFFFFFFFFFFFFFFFFF AND MUL OR SWAP1 SSTORE POP SWAP2 PUSH1 0x20 ADD SWAP2 SWAP1 PUSH1 0x1 ADD SWAP1 PUSH2 0x269 JUMP JUMPDEST JUMPDEST POP SWAP1 POP PUSH2 0x2CE SWAP2 SWAP1 PUSH2 0x2D2 JUMP JUMPDEST POP SWAP1 JUMP JUMPDEST JUMPDEST DUP1 DUP3 GT ISZERO PUSH2 0x2E9 JUMPI PUSH0 DUP2 PUSH0 SWAP1 SSTORE POP PUSH1 0x1 ADD PUSH2 0x2D3 JUMP JUMPDEST POP SWAP1 JUMP JUMPDEST PUSH0 PUSH1 0x40 MLOAD SWAP1 POP SWAP1 JUMP JUMPDEST PUSH0 PUSH0 REVERT JUMPDEST PUSH0 PUSH0 REVERT JUMPDEST PUSH0 PUSH0 REVERT JUMPDEST PUSH0 PUSH1 0x1F NOT PUSH1 0x1F DUP4 ADD AND SWAP1 POP SWAP2 SWAP1 POP JUMP JUMPDEST PUSH32 0x4E487B7100000000000000000000000000000000000000000000000000000000 PUSH0 MSTORE PUSH1 0x41 PUSH1 0x4 MSTORE PUSH1 0x24 PUSH0 REVERT JUMPDEST PUSH2 0x348 DUP3 PUSH2 0x302 JUMP JUMPDEST DUP2 ADD DUP2 DUP2 LT PUSH8 0xFFFFFFFFFFFFFFFF DUP3 GT OR ISZERO PUSH2 0x367 JUMPI PUSH2 0x366 PUSH2 0x312 JUMP JUMPDEST JUMPDEST DUP1 PUSH1 0x40 MSTORE POP POP POP JUMP JUMPDEST PUSH0 PUSH2 0x379 PUSH2 0x2ED JUMP JUMPDEST SWAP1 POP PUSH2 0x385 DUP3 DUP3 PUSH2 0x33F JUMP JUMPDEST SWAP2 SWAP1 POP JUMP JUMPDEST PUSH0 PUSH8 0xFFFFFFFFFFFFFFFF DUP3 GT ISZERO PUSH2 0x3A4 JUMPI PUSH2 0x3A3 PUSH2 0x312 JUMP JUMPDEST JUMPDEST PUSH1 0x20 DUP3 MUL SWAP1 POP PUSH1 0x20 DUP2 ADD SWAP1 POP SWAP2 SWAP1 POP JUMP JUMPDEST PUSH0 PUSH0 REVERT JUMPDEST PUSH0 PUSH20 0xFFFFFFFFFFFFFFFFFFFFFFFFFFFFFFFFFFFFFFFF DUP3 AND SWAP1 POP SWAP2 SWAP1 POP JUMP JUMPDEST PUSH0 PUSH2 0x3E2 DUP3 PUSH2 0x3B9 JUMP JUMPDEST SWAP1 POP SWAP2 SWAP1 POP JUMP JUMPDEST PUSH2 0x3F2 DUP2 PUSH2 0x3D8 JUMP JUMPDEST DUP2 EQ PUSH2 0x3FC JUMPI PUSH0 PUSH0 REVERT JUMPDEST POP JUMP JUMPDEST PUSH0 DUP2 MLOAD SWAP1 POP PUSH2 0x40D DUP2 PUSH2 0x3E9 JUMP JUMPDEST SWAP3 SWAP2 POP POP JUMP JUMPDEST PUSH0 PUSH2 0x425 PUSH2 0x420 DUP5 PUSH2 0x38A JUMP JUMPDEST PUSH2 0x370 JUMP JUMPDEST SWAP1 POP DUP1 DUP4 DUP3 MSTORE PUSH1 0x20 DUP3 ADD SWAP1 POP PUSH1 0x20 DUP5 MUL DUP4 ADD DUP6 DUP2 GT ISZERO PUSH2 0x448 JUMPI PUSH2 0x447 PUSH2 0x3B5 JUMP JUMPDEST JUMPDEST DUP4 JUMPDEST DUP2 DUP2 LT ISZERO PUSH2 0x471 JUMPI DUP1 PUSH2 0x45D DUP9 DUP3 PUSH2 0x3FF JUMP JUMPDEST DUP5 MSTORE PUSH1 0x20 DUP5 ADD SWAP4 POP POP PUSH1 0x20 DUP2 ADD SWAP1 POP PUSH2 0x44A JUMP JUMPDEST POP POP POP SWAP4 SWAP3 POP POP POP JUMP JUMPDEST PUSH0 DUP3 PUSH1 0x1F DUP4 ADD SLT PUSH2 0x48F JUMPI PUSH2 0x48E PUSH2 0x2FE JUMP JUMPDEST JUMPDEST DUP2 MLOAD PUSH2 0x49F DUP5 DUP3 PUSH1 0x20 DUP7 ADD PUSH2 0x413 JUMP JUMPDEST SWAP2 POP POP SWAP3 SWAP2 POP POP JUMP JUMPDEST PUSH0 DUP2 SWAP1 POP SWAP2 SWAP1 POP JUMP JUMPDEST PUSH2 0x4BA DUP2 PUSH2 0x4A8 JUMP JUMPDEST DUP2 EQ PUSH2 0x4C4 JUMPI PUSH0 PUSH0 REVERT JUMPDEST POP JUMP JUMPDEST PUSH0 DUP2 MLOAD SWAP1 POP PUSH2 0x4D5 DUP2 PUSH2 0x4B1 JUMP JUMPDEST SWAP3 SWAP2 POP POP JUMP JUMPDEST PUSH0 PUSH0 PUSH1 0x40 DUP4 DUP6 SUB SLT ISZERO PUSH2 0x4F1 JUMPI PUSH2 0x4F0 PUSH2 0x2F6 JUMP JUMPDEST JUMPDEST PUSH0 DUP4 ADD MLOAD PUSH8 0xFFFFFFFFFFFFFFFF DUP2 GT ISZERO PUSH2 0x50E JUMPI PUSH2 0x50D PUSH2 0x2FA JUMP JUMPDEST JUMPDEST PUSH2 0x51A DUP6 DUP3 DUP7 ADD PUSH2 0x47B JUMP JUMPDEST SWAP3 POP POP PUSH1 0x20 PUSH2 0x52B DUP6 DUP3 DUP7 ADD PUSH2 0x4C7 JUMP JUMPDEST SWAP2 POP POP SWAP3 POP SWAP3 SWAP1 POP JUMP JUMPDEST PUSH0 DUP3 DUP3 MSTORE PUSH1 0x20 DUP3 ADD SWAP1 POP SWAP3 SWAP2 POP POP JUMP JUMPDEST PUSH32 0x496E76616C696420726571756972656D656E7400000000000000000000000000 PUSH0 DUP3 ADD MSTORE POP JUMP JUMPDEST PUSH0 PUSH2 0x579 PUSH1 0x13 DUP4 PUSH2 0x535 JUMP JUMPDEST SWAP2 POP PUSH2 0x584 DUP3 PUSH2 0x545 JUMP JUMPDEST PUSH1 0x20 DUP3 ADD SWAP1 POP SWAP2 SWAP1 POP JUMP JUMPDEST PUSH0 PUSH1 0x20 DUP3 ADD SWAP1 POP DUP2 DUP2 SUB PUSH0 DUP4 ADD MSTORE PUSH2 0x5A6 DUP2 PUSH2 0x56D JUMP JUMPDEST SWAP1 POP SWAP2 SWAP1 POP JUMP JUMPDEST PUSH32 0x4E487B7100000000000000000000000000000000000000000000000000000000 PUSH0 MSTORE PUSH1 0x32 PUSH1 0x4 MSTORE PUSH1 0x24 PUSH0 REVERT JUMPDEST PUSH32 0x496E76616C6964206F776E657200000000000000000000000000000000000000 PUSH0 DUP3 ADD MSTORE POP JUMP JUMPDEST PUSH0 PUSH2 0x60E PUSH1 0xD DUP4 PUSH2 0x535 JUMP JUMPDEST SWAP2 POP PUSH2 0x619 DUP3 PUSH2 0x5DA JUMP JUMPDEST PUSH1 0x20 DUP3 ADD SWAP1 POP SWAP2 SWAP1 POP JUMP JUMPDEST PUSH0 PUSH1 0x20 DUP3 ADD SWAP1 POP DUP2 DUP2 SUB PUSH0 DUP4 ADD MSTORE PUSH2 0x63B DUP2 PUSH2 0x602 JUMP JUMPDEST SWAP1 POP SWAP2 SWAP1 POP JUMP JUMPDEST PUSH2 0x3B99 DUP1 PUSH2 0x64F PUSH0 CODECOPY PUSH0 RETURN INVALID PUSH1 0x80 PUSH1 0x40 MSTORE PUSH1 0x4 CALLDATASIZE LT PUSH2 0x143 JUMPI PUSH0 CALLDATALOAD PUSH1 0xE0 SHR DUP1 PUSH4 0x80F59A65 GT PUSH2 0xB5 JUMPI DUP1 PUSH4 0xB77BF600 GT PUSH2 0x6E JUMPI DUP1 PUSH4 0xB77BF600 EQ PUSH2 0x53B JUMPI DUP1 PUSH4 0xBA51A6DF EQ PUSH2 0x565 JUMPI DUP1 PUSH4 0xC01A8C84 EQ PUSH2 0x58D JUMPI DUP1 PUSH4 0xDC8452CD EQ PUSH2 0x5B5 JUMPI DUP1 PUSH4 0xE20056E6 EQ PUSH2 0x5DF JUMPI DUP1 PUSH4 0xEE22610B EQ PUSH2 0x607 JUMPI PUSH2 0x1A3 JUMP JUMPDEST DUP1 PUSH4 0x80F59A65 EQ PUSH2 0x3DF JUMPI DUP1 PUSH4 0x8A8E784C EQ PUSH2 0x41B JUMPI DUP1 PUSH4 0x9ACE38C2 EQ PUSH2 0x457 JUMPI DUP1 PUSH4 0xA0E67E2B EQ PUSH2 0x499 JUMPI DUP1 PUSH4 0xA8ABE69A EQ PUSH2 0x4C3 JUMPI DUP1 PUSH4 0xB5DC40C3 EQ PUSH2 0x4FF JUMPI PUSH2 0x1A3 JUMP JUMPDEST DUP1 PUSH4 0x338B5DEA GT PUSH2 0x107 JUMPI DUP1 PUSH4 0x338B5DEA EQ PUSH2 0x299 JUMPI DUP1 PUSH4 0x33EA3DC8 EQ PUSH2 0x2C1 JUMPI DUP1 PUSH4 0x3AECD0E3 EQ PUSH2 0x303 JUMPI DUP1 PUSH4 0x54741525 EQ PUSH2 0x33F JUMPI DUP1 PUSH4 0x57544291 EQ PUSH2 0x37B JUMPI DUP1 PUSH4 0x7065CB48 EQ PUSH2 0x3B7 JUMPI PUSH2 0x1A3 JUMP JUMPDEST DUP1 PUSH4 0x25E7C27 EQ PUSH2 0x1A7 JUMPI DUP1 PUSH4 0x12065FE0 EQ PUSH2 0x1E3 JUMPI DUP1 PUSH4 0x173825D9 EQ PUSH2 0x20D JUMPI DUP1 PUSH4 0x20EA8D86 EQ PUSH2 0x235 JUMPI DUP1 PUSH4 0x2F54BF6E EQ PUSH2 0x25D JUMPI PUSH2 0x1A3 JUMP JUMPDEST CALLDATASIZE PUSH2 0x1A3 JUMPI PUSH0 CALLVALUE GT ISZERO PUSH2 0x1A1 JUMPI CALLER PUSH20 0xFFFFFFFFFFFFFFFFFFFFFFFFFFFFFFFFFFFFFFFF AND PUSH32 0x90890809C654F11D6E72A28FA60149770A0D11EC6C92319D6CEB2BB0A4EA1A15 CALLVALUE SELFBALANCE PUSH1 0x40 MLOAD PUSH2 0x198 SWAP3 SWAP2 SWAP1 PUSH2 0x2895 JUMP JUMPDEST PUSH1 0x40 MLOAD DUP1 SWAP2 SUB SWAP1 LOG2 JUMPDEST STOP JUMPDEST PUSH0 PUSH0 REVERT JUMPDEST CALLVALUE DUP1 ISZERO PUSH2 0x1B2 JUMPI PUSH0 PUSH0 REVERT JUMPDEST POP PUSH2 0x1CD PUSH1 0x4 DUP1 CALLDATASIZE SUB DUP2 ADD SWAP1 PUSH2 0x1C8 SWAP2 SWAP1 PUSH2 0x28F7 JUMP JUMPDEST PUSH2 0x62F JUMP JUMPDEST PUSH1 0x40 MLOAD PUSH2 0x1DA SWAP2 SWAP1 PUSH2 0x2961 JUMP JUMPDEST PUSH1 0x40 MLOAD DUP1 SWAP2 SUB SWAP1 RETURN JUMPDEST CALLVALUE DUP1 ISZERO PUSH2 0x1EE JUMPI PUSH0 PUSH0 REVERT JUMPDEST POP PUSH2 0x1F7 PUSH2 0x66A JUMP JUMPDEST PUSH1 0x40 MLOAD PUSH2 0x204 SWAP2 SWAP1 PUSH2 0x297A JUMP JUMPDEST PUSH1 0x40 MLOAD DUP1 SWAP2 SUB SWAP1 RETURN JUMPDEST CALLVALUE DUP1 ISZERO PUSH2 0x218 JUMPI PUSH0 PUSH0 REVERT JUMPDEST POP PUSH2 0x233 PUSH1 0x4 DUP1 CALLDATASIZE SUB DUP2 ADD SWAP1 PUSH2 0x22E SWAP2 SWAP1 PUSH2 0x29BD JUMP JUMPDEST PUSH2 0x671 JUMP JUMPDEST STOP JUMPDEST CALLVALUE DUP1 ISZERO PUSH2 0x240 JUMPI PUSH0 PUSH0 REVERT JUMPDEST POP PUSH2 0x25B PUSH1 0x4 DUP1 CALLDATASIZE SUB DUP2 ADD SWAP1 PUSH2 0x256 SWAP2 SWAP1 PUSH2 0x28F7 JUMP JUMPDEST PUSH2 0x9AB JUMP JUMPDEST STOP JUMPDEST CALLVALUE DUP1 ISZERO PUSH2 0x268 JUMPI PUSH0 PUSH0 REVERT JUMPDEST POP PUSH2 0x283 PUSH1 0x4 DUP1 CALLDATASIZE SUB DUP2 ADD SWAP1 PUSH2 0x27E SWAP2 SWAP1 PUSH2 0x29BD JUMP JUMPDEST PUSH2 0xC4F JUMP JUMPDEST PUSH1 0x40 MLOAD PUSH2 0x290 SWAP2 SWAP1 PUSH2 0x2A02 JUMP JUMPDEST PUSH1 0x40 MLOAD DUP1 SWAP2 SUB SWAP1 RETURN JUMPDEST CALLVALUE DUP1 ISZERO PUSH2 0x2A4 JUMPI PUSH0 PUSH0 REVERT JUMPDEST POP PUSH2 0x2BF PUSH1 0x4 DUP1 CALLDATASIZE SUB DUP2 ADD SWAP1 PUSH2 0x2BA SWAP2 SWAP1 PUSH2 0x2A1B JUMP JUMPDEST PUSH2 0xC6C JUMP JUMPDEST STOP JUMPDEST CALLVALUE DUP1 ISZERO PUSH2 0x2CC JUMPI PUSH0 PUSH0 REVERT JUMPDEST POP PUSH2 0x2E7 PUSH1 0x4 DUP1 CALLDATASIZE SUB DUP2 ADD SWAP1 PUSH2 0x2E2 SWAP2 SWAP1 PUSH2 0x28F7 JUMP JUMPDEST PUSH2 0xDB2 JUMP JUMPDEST PUSH1 0x40 MLOAD PUSH2 0x2FA SWAP8 SWAP7 SWAP6 SWAP5 SWAP4 SWAP3 SWAP2 SWAP1 PUSH2 0x2AC9 JUMP JUMPDEST PUSH1 0x40 MLOAD DUP1 SWAP2 SUB SWAP1 RETURN JUMPDEST CALLVALUE DUP1 ISZERO PUSH2 0x30E JUMPI PUSH0 PUSH0 REVERT JUMPDEST POP PUSH2 0x329 PUSH1 0x4 DUP1 CALLDATASIZE SUB DUP2 ADD SWAP1 PUSH2 0x324 SWAP2 SWAP1 PUSH2 0x29BD JUMP JUMPDEST PUSH2 0xEDD JUMP JUMPDEST PUSH1 0x40 MLOAD PUSH2 0x336 SWAP2 SWAP1 PUSH2 0x297A JUMP JUMPDEST PUSH1 0x40 MLOAD DUP1 SWAP2 SUB SWAP1 RETURN JUMPDEST CALLVALUE DUP1 ISZERO PUSH2 0x34A JUMPI PUSH0 PUSH0 REVERT JUMPDEST POP PUSH2 0x365 PUSH1 0x4 DUP1 CALLDATASIZE SUB DUP2 ADD SWAP1 PUSH2 0x360 SWAP2 SWAP1 PUSH2 0x2B67 JUMP JUMPDEST PUSH2 0xF5D JUMP JUMPDEST PUSH1 0x40 MLOAD PUSH2 0x372 SWAP2 SWAP1 PUSH2 0x297A JUMP JUMPDEST PUSH1 0x40 MLOAD DUP1 SWAP2 SUB SWAP1 RETURN JUMPDEST CALLVALUE DUP1 ISZERO PUSH2 0x386 JUMPI PUSH0 PUSH0 REVERT JUMPDEST POP PUSH2 0x3A1 PUSH1 0x4 DUP1 CALLDATASIZE SUB DUP2 ADD SWAP1 PUSH2 0x39C SWAP2 SWAP1 PUSH2 0x2CD1 JUMP JUMPDEST PUSH2 0xFF1 JUMP JUMPDEST PUSH1 0x40 MLOAD PUSH2 0x3AE SWAP2 SWAP1 PUSH2 0x297A JUMP JUMPDEST PUSH1 0x40 MLOAD DUP1 SWAP2 SUB SWAP1 RETURN JUMPDEST CALLVALUE DUP1 ISZERO PUSH2 0x3C2 JUMPI PUSH0 PUSH0 REVERT JUMPDEST POP PUSH2 0x3DD PUSH1 0x4 DUP1 CALLDATASIZE SUB DUP2 ADD SWAP1 PUSH2 0x3D8 SWAP2 SWAP1 PUSH2 0x29BD JUMP JUMPDEST PUSH2 0x1266 JUMP JUMPDEST STOP JUMPDEST CALLVALUE DUP1 ISZERO PUSH2 0x3EA JUMPI PUSH0 PUSH0 REVERT JUMPDEST POP PUSH2 0x405 PUSH1 0x4 DUP1 CALLDATASIZE SUB DUP2 ADD SWAP1 PUSH2 0x400 SWAP2 SWAP1 PUSH2 0x2D51 JUMP JUMPDEST PUSH2 0x154A JUMP JUMPDEST PUSH1 0x40 MLOAD PUSH2 0x412 SWAP2 SWAP1 PUSH2 0x2A02 JUMP JUMPDEST PUSH1 0x40 MLOAD DUP1 SWAP2 SUB SWAP1 RETURN JUMPDEST CALLVALUE DUP1 ISZERO PUSH2 0x426 JUMPI PUSH0 PUSH0 REVERT JUMPDEST POP PUSH2 0x441 PUSH1 0x4 DUP1 CALLDATASIZE SUB DUP2 ADD SWAP1 PUSH2 0x43C SWAP2 SWAP1 PUSH2 0x2D51 JUMP JUMPDEST PUSH2 0x1574 JUMP JUMPDEST PUSH1 0x40 MLOAD PUSH2 0x44E SWAP2 SWAP1 PUSH2 0x2A02 JUMP JUMPDEST PUSH1 0x40 MLOAD DUP1 SWAP2 SUB SWAP1 RETURN JUMPDEST CALLVALUE DUP1 ISZERO PUSH2 0x462 JUMPI PUSH0 PUSH0 REVERT JUMPDEST POP PUSH2 0x47D PUSH1 0x4 DUP1 CALLDATASIZE SUB DUP2 ADD SWAP1 PUSH2 0x478 SWAP2 SWAP1 PUSH2 0x28F7 JUMP JUMPDEST PUSH2 0x15D6 JUMP JUMPDEST PUSH1 0x40 MLOAD PUSH2 0x490 SWAP8 SWAP7 SWAP6 SWAP5 SWAP4 SWAP3 SWAP2 SWAP1 PUSH2 0x2AC9 JUMP JUMPDEST PUSH1 0x40 MLOAD DUP1 SWAP2 SUB SWAP1 RETURN JUMPDEST CALLVALUE DUP1 ISZERO PUSH2 0x4A4 JUMPI PUSH0 PUSH0 REVERT JUMPDEST POP PUSH2 0x4AD PUSH2 0x16E4 JUMP JUMPDEST PUSH1 0x40 MLOAD PUSH2 0x4BA SWAP2 SWAP1 PUSH2 0x2E46 JUMP JUMPDEST PUSH1 0x40 MLOAD DUP1 SWAP2 SUB SWAP1 RETURN JUMPDEST CALLVALUE DUP1 ISZERO PUSH2 0x4CE JUMPI PUSH0 PUSH0 REVERT JUMPDEST POP PUSH2 0x4E9 PUSH1 0x4 DUP1 CALLDATASIZE SUB DUP2 ADD SWAP1 PUSH2 0x4E4 SWAP2 SWAP1 PUSH2 0x2E66 JUMP JUMPDEST PUSH2 0x176F JUMP JUMPDEST PUSH1 0x40 MLOAD PUSH2 0x4F6 SWAP2 SWAP1 PUSH2 0x2F81 JUMP JUMPDEST PUSH1 0x40 MLOAD DUP1 SWAP2 SUB SWAP1 RETURN JUMPDEST CALLVALUE DUP1 ISZERO PUSH2 0x50A JUMPI PUSH0 PUSH0 REVERT JUMPDEST POP PUSH2 0x525 PUSH1 0x4 DUP1 CALLDATASIZE SUB DUP2 ADD SWAP1 PUSH2 0x520 SWAP2 SWAP1 PUSH2 0x28F7 JUMP JUMPDEST PUSH2 0x1930 JUMP JUMPDEST PUSH1 0x40 MLOAD PUSH2 0x532 SWAP2 SWAP1 PUSH2 0x2E46 JUMP JUMPDEST PUSH1 0x40 MLOAD DUP1 SWAP2 SUB SWAP1 RETURN JUMPDEST CALLVALUE DUP1 ISZERO PUSH2 0x546 JUMPI PUSH0 PUSH0 REVERT JUMPDEST POP PUSH2 0x54F PUSH2 0x1BAD JUMP JUMPDEST PUSH1 0x40 MLOAD PUSH2 0x55C SWAP2 SWAP1 PUSH2 0x297A JUMP JUMPDEST PUSH1 0x40 MLOAD DUP1 SWAP2 SUB SWAP1 RETURN JUMPDEST CALLVALUE DUP1 ISZERO PUSH2 0x570 JUMPI PUSH0 PUSH0 REVERT JUMPDEST POP PUSH2 0x58B PUSH1 0x4 DUP1 CALLDATASIZE SUB DUP2 ADD SWAP1 PUSH2 0x586 SWAP2 SWAP1 PUSH2 0x28F7 JUMP JUMPDEST PUSH2 0x1BB3 JUMP JUMPDEST STOP JUMPDEST CALLVALUE DUP1 ISZERO PUSH2 0x598 JUMPI PUSH0 PUSH0 REVERT JUMPDEST POP PUSH2 0x5B3 PUSH1 0x4 DUP1 CALLDATASIZE SUB DUP2 ADD SWAP1 PUSH2 0x5AE SWAP2 SWAP1 PUSH2 0x28F7 JUMP JUMPDEST PUSH2 0x1CD3 JUMP JUMPDEST STOP JUMPDEST CALLVALUE DUP1 ISZERO PUSH2 0x5C0 JUMPI PUSH0 PUSH0 REVERT JUMPDEST POP PUSH2 0x5C9 PUSH2 0x1F31 JUMP JUMPDEST PUSH1 0x40 MLOAD PUSH2 0x5D6 SWAP2 SWAP1 PUSH2 0x297A JUMP JUMPDEST PUSH1 0x40 MLOAD DUP1 SWAP2 SUB SWAP1 RETURN JUMPDEST CALLVALUE DUP1 ISZERO PUSH2 0x5EA JUMPI PUSH0 PUSH0 REVERT JUMPDEST POP PUSH2 0x605 PUSH1 0x4 DUP1 CALLDATASIZE SUB DUP2 ADD SWAP1 PUSH2 0x600 SWAP2 SWAP1 PUSH2 0x2FA1 JUMP JUMPDEST PUSH2 0x1F37 JUMP JUMPDEST STOP JUMPDEST CALLVALUE DUP1 ISZERO PUSH2 0x612 JUMPI PUSH0 PUSH0 REVERT JUMPDEST POP PUSH2 0x62D PUSH1 0x4 DUP1 CALLDATASIZE SUB DUP2 ADD SWAP1 PUSH2 0x628 SWAP2 SWAP1 PUSH2 0x28F7 JUMP JUMPDEST PUSH2 0x22DC JUMP JUMPDEST STOP JUMPDEST PUSH1 0x4 DUP2 DUP2 SLOAD DUP2 LT PUSH2 0x63E JUMPI PUSH0 DUP1 REVERT JUMPDEST SWAP1 PUSH0 MSTORE PUSH1 0x20 PUSH0 KECCAK256 ADD PUSH0 SWAP2 POP SLOAD SWAP1 PUSH2 0x100 EXP SWAP1 DIV PUSH20 0xFFFFFFFFFFFFFFFFFFFFFFFFFFFFFFFFFFFFFFFF AND DUP2 JUMP JUMPDEST PUSH0 SELFBALANCE SWAP1 POP SWAP1 JUMP JUMPDEST ADDRESS PUSH20 0xFFFFFFFFFFFFFFFFFFFFFFFFFFFFFFFFFFFFFFFF AND CALLER PUSH20 0xFFFFFFFFFFFFFFFFFFFFFFFFFFFFFFFFFFFFFFFF AND EQ PUSH2 0x6DF JUMPI PUSH1 0x40 MLOAD PUSH32 0x8C379A000000000000000000000000000000000000000000000000000000000 DUP2 MSTORE PUSH1 0x4 ADD PUSH2 0x6D6 SWAP1 PUSH2 0x305F JUMP JUMPDEST PUSH1 0x40 MLOAD DUP1 SWAP2 SUB SWAP1 REVERT JUMPDEST DUP1 PUSH1 0x3 PUSH0 DUP3 PUSH20 0xFFFFFFFFFFFFFFFFFFFFFFFFFFFFFFFFFFFFFFFF AND PUSH20 0xFFFFFFFFFFFFFFFFFFFFFFFFFFFFFFFFFFFFFFFF AND DUP2 MSTORE PUSH1 0x20 ADD SWAP1 DUP2 MSTORE PUSH1 0x20 ADD PUSH0 KECCAK256 PUSH0 SWAP1 SLOAD SWAP1 PUSH2 0x100 EXP SWAP1 DIV PUSH1 0xFF AND PUSH2 0x769 JUMPI PUSH1 0x40 MLOAD PUSH32 0x8C379A000000000000000000000000000000000000000000000000000000000 DUP2 MSTORE PUSH1 0x4 ADD PUSH2 0x760 SWAP1 PUSH2 0x30C7 JUMP JUMPDEST PUSH1 0x40 MLOAD DUP1 SWAP2 SUB SWAP1 REVERT JUMPDEST PUSH0 PUSH1 0x3 PUSH0 DUP5 PUSH20 0xFFFFFFFFFFFFFFFFFFFFFFFFFFFFFFFFFFFFFFFF AND PUSH20 0xFFFFFFFFFFFFFFFFFFFFFFFFFFFFFFFFFFFFFFFF AND DUP2 MSTORE PUSH1 0x20 ADD SWAP1 DUP2 MSTORE PUSH1 0x20 ADD PUSH0 KECCAK256 PUSH0 PUSH2 0x100 EXP DUP2 SLOAD DUP2 PUSH1 0xFF MUL NOT AND SWAP1 DUP4 ISZERO ISZERO MUL OR SWAP1 SSTORE POP PUSH0 PUSH0 SWAP1 POP JUMPDEST PUSH1 0x1 PUSH1 0x4 DUP1 SLOAD SWAP1 POP PUSH2 0x7D4 SWAP2 SWAP1 PUSH2 0x3112 JUMP JUMPDEST DUP2 LT ISZERO PUSH2 0x901 JUMPI DUP3 PUSH20 0xFFFFFFFFFFFFFFFFFFFFFFFFFFFFFFFFFFFFFFFF AND PUSH1 0x4 DUP3 DUP2 SLOAD DUP2 LT PUSH2 0x806 JUMPI PUSH2 0x805 PUSH2 0x3145 JUMP JUMPDEST JUMPDEST SWAP1 PUSH0 MSTORE PUSH1 0x20 PUSH0 KECCAK256 ADD PUSH0 SWAP1 SLOAD SWAP1 PUSH2 0x100 EXP SWAP1 DIV PUSH20 0xFFFFFFFFFFFFFFFFFFFFFFFFFFFFFFFFFFFFFFFF AND PUSH20 0xFFFFFFFFFFFFFFFFFFFFFFFFFFFFFFFFFFFFFFFF AND SUB PUSH2 0x8F4 JUMPI PUSH1 0x4 PUSH1 0x1 PUSH1 0x4 DUP1 SLOAD SWAP1 POP PUSH2 0x85D SWAP2 SWAP1 PUSH2 0x3112 JUMP JUMPDEST DUP2 SLOAD DUP2 LT PUSH2 0x86E JUMPI PUSH2 0x86D PUSH2 0x3145 JUMP JUMPDEST JUMPDEST SWAP1 PUSH0 MSTORE PUSH1 0x20 PUSH0 KECCAK256 ADD PUSH0 SWAP1 SLOAD SWAP1 PUSH2 0x100 EXP SWAP1 DIV PUSH20 0xFFFFFFFFFFFFFFFFFFFFFFFFFFFFFFFFFFFFFFFF AND PUSH1 0x4 DUP3 DUP2 SLOAD DUP2 LT PUSH2 0x8AA JUMPI PUSH2 0x8A9 PUSH2 0x3145 JUMP JUMPDEST JUMPDEST SWAP1 PUSH0 MSTORE PUSH1 0x20 PUSH0 KECCAK256 ADD PUSH0 PUSH2 0x100 EXP DUP2 SLOAD DUP2 PUSH20 0xFFFFFFFFFFFFFFFFFFFFFFFFFFFFFFFFFFFFFFFF MUL NOT AND SWAP1 DUP4 PUSH20 0xFFFFFFFFFFFFFFFFFFFFFFFFFFFFFFFFFFFFFFFF AND MUL OR SWAP1 SSTORE POP PUSH2 0x901 JUMP JUMPDEST DUP1 DUP1 PUSH1 0x1 ADD SWAP2 POP POP PUSH2 0x7C2 JUMP JUMPDEST POP PUSH1 0x4 DUP1 SLOAD DUP1 PUSH2 0x914 JUMPI PUSH2 0x913 PUSH2 0x3172 JUMP JUMPDEST JUMPDEST PUSH1 0x1 SWAP1 SUB DUP2 DUP2 SWAP1 PUSH0 MSTORE PUSH1 0x20 PUSH0 KECCAK256 ADD PUSH0 PUSH2 0x100 EXP DUP2 SLOAD SWAP1 PUSH20 0xFFFFFFFFFFFFFFFFFFFFFFFFFFFFFFFFFFFFFFFF MUL NOT AND SWAP1 SSTORE SWAP1 SSTORE PUSH1 0x4 DUP1 SLOAD SWAP1 POP PUSH1 0x5 SLOAD GT ISZERO PUSH2 0x964 JUMPI PUSH2 0x963 PUSH1 0x4 DUP1 SLOAD SWAP1 POP PUSH2 0x1BB3 JUMP JUMPDEST JUMPDEST DUP2 PUSH20 0xFFFFFFFFFFFFFFFFFFFFFFFFFFFFFFFFFFFFFFFF AND PUSH32 0x8001553A916EF2F495D26A907CC54D96ED840D7BDA71E73194BF5A9DF7A76B90 PUSH1 0x40 MLOAD PUSH1 0x40 MLOAD DUP1 SWAP2 SUB SWAP1 LOG2 POP POP JUMP JUMPDEST CALLER PUSH1 0x3 PUSH0 DUP3 PUSH20 0xFFFFFFFFFFFFFFFFFFFFFFFFFFFFFFFFFFFFFFFF AND PUSH20 0xFFFFFFFFFFFFFFFFFFFFFFFFFFFFFFFFFFFFFFFF AND DUP2 MSTORE PUSH1 0x20 ADD SWAP1 DUP2 MSTORE PUSH1 0x20 ADD PUSH0 KECCAK256 PUSH0 SWAP1 SLOAD SWAP1 PUSH2 0x100 EXP SWAP1 DIV PUSH1 0xFF AND PUSH2 0xA35 JUMPI PUSH1 0x40 MLOAD PUSH32 0x8C379A000000000000000000000000000000000000000000000000000000000 DUP2 MSTORE PUSH1 0x4 ADD PUSH2 0xA2C SWAP1 PUSH2 0x30C7 JUMP JUMPDEST PUSH1 0x40 MLOAD DUP1 SWAP2 SUB SWAP1 REVERT JUMPDEST DUP2 PUSH1 0x6 SLOAD DUP2 LT PUSH2 0xA7A JUMPI PUSH1 0x40 MLOAD PUSH32 0x8C379A000000000000000000000000000000000000000000000000000000000 DUP2 MSTORE PUSH1 0x4 ADD PUSH2 0xA71 SWAP1 PUSH2 0x31E9 JUMP JUMPDEST PUSH1 0x40 MLOAD DUP1 SWAP2 SUB SWAP1 REVERT JUMPDEST DUP3 PUSH1 0x1 PUSH0 DUP3 DUP2 MSTORE PUSH1 0x20 ADD SWAP1 DUP2 MSTORE PUSH1 0x20 ADD PUSH0 KECCAK256 PUSH1 0x3 ADD PUSH0 SWAP1 SLOAD SWAP1 PUSH2 0x100 EXP SWAP1 DIV PUSH1 0xFF AND ISZERO PUSH2 0xADC JUMPI PUSH1 0x40 MLOAD PUSH32 0x8C379A000000000000000000000000000000000000000000000000000000000 DUP2 MSTORE PUSH1 0x4 ADD PUSH2 0xAD3 SWAP1 PUSH2 0x3251 JUMP JUMPDEST PUSH1 0x40 MLOAD DUP1 SWAP2 SUB SWAP1 REVERT JUMPDEST PUSH1 0x2 PUSH0 DUP6 DUP2 MSTORE PUSH1 0x20 ADD SWAP1 DUP2 MSTORE PUSH1 0x20 ADD PUSH0 KECCAK256 PUSH0 CALLER PUSH20 0xFFFFFFFFFFFFFFFFFFFFFFFFFFFFFFFFFFFFFFFF AND PUSH20 0xFFFFFFFFFFFFFFFFFFFFFFFFFFFFFFFFFFFFFFFF AND DUP2 MSTORE PUSH1 0x20 ADD SWAP1 DUP2 MSTORE PUSH1 0x20 ADD PUSH0 KECCAK256 PUSH0 SWAP1 SLOAD SWAP1 PUSH2 0x100 EXP SWAP1 DIV PUSH1 0xFF AND PUSH2 0xB74 JUMPI PUSH1 0x40 MLOAD PUSH32 0x8C379A000000000000000000000000000000000000000000000000000000000 DUP2 MSTORE PUSH1 0x4 ADD PUSH2 0xB6B SWAP1 PUSH2 0x32B9 JUMP JUMPDEST PUSH1 0x40 MLOAD DUP1 SWAP2 SUB SWAP1 REVERT JUMPDEST PUSH0 PUSH1 0x1 PUSH0 DUP7 DUP2 MSTORE PUSH1 0x20 ADD SWAP1 DUP2 MSTORE PUSH1 0x20 ADD PUSH0 KECCAK256 SWAP1 POP DUP1 PUSH1 0x4 ADD PUSH0 DUP2 SLOAD DUP1 SWAP3 SWAP2 SWAP1 PUSH2 0xB9C SWAP1 PUSH2 0x32D7 JUMP JUMPDEST SWAP2 SWAP1 POP SSTORE POP PUSH0 PUSH1 0x2 PUSH0 DUP8 DUP2 MSTORE PUSH1 0x20 ADD SWAP1 DUP2 MSTORE PUSH1 0x20 ADD PUSH0 KECCAK256 PUSH0 CALLER PUSH20 0xFFFFFFFFFFFFFFFFFFFFFFFFFFFFFFFFFFFFFFFF AND PUSH20 0xFFFFFFFFFFFFFFFFFFFFFFFFFFFFFFFFFFFFFFFF AND DUP2 MSTORE PUSH1 0x20 ADD SWAP1 DUP2 MSTORE PUSH1 0x20 ADD PUSH0 KECCAK256 PUSH0 PUSH2 0x100 EXP DUP2 SLOAD DUP2 PUSH1 0xFF MUL NOT AND SWAP1 DUP4 ISZERO ISZERO MUL OR SWAP1 SSTORE POP DUP5 CALLER PUSH20 0xFFFFFFFFFFFFFFFFFFFFFFFFFFFFFFFFFFFFFFFF AND PUSH32 0xF0DCA620E2E81F7841D07BCC105E1704FB01475B278A9D4C236E1C62945EDD55 PUSH1 0x40 MLOAD PUSH1 0x40 MLOAD DUP1 SWAP2 SUB SWAP1 LOG3 POP POP POP POP POP JUMP JUMPDEST PUSH1 0x3 PUSH1 0x20 MSTORE DUP1 PUSH0 MSTORE PUSH1 0x40 PUSH0 KECCAK256 PUSH0 SWAP2 POP SLOAD SWAP1 PUSH2 0x100 EXP SWAP1 DIV PUSH1 0xFF AND DUP2 JUMP JUMPDEST PUSH0 PUSH20 0xFFFFFFFFFFFFFFFFFFFFFFFFFFFFFFFFFFFFFFFF AND DUP3 PUSH20 0xFFFFFFFFFFFFFFFFFFFFFFFFFFFFFFFFFFFFFFFF AND SUB PUSH2 0xCDA JUMPI PUSH1 0x40 MLOAD PUSH32 0x8C379A000000000000000000000000000000000000000000000000000000000 DUP2 MSTORE PUSH1 0x4 ADD PUSH2 0xCD1 SWAP1 PUSH2 0x3348 JUMP JUMPDEST PUSH1 0x40 MLOAD DUP1 SWAP2 SUB SWAP1 REVERT JUMPDEST PUSH0 DUP2 GT PUSH2 0xD1C JUMPI PUSH1 0x40 MLOAD PUSH32 0x8C379A000000000000000000000000000000000000000000000000000000000 DUP2 MSTORE PUSH1 0x4 ADD PUSH2 0xD13 SWAP1 PUSH2 0x33B0 JUMP JUMPDEST PUSH1 0x40 MLOAD DUP1 SWAP2 SUB SWAP1 REVERT JUMPDEST PUSH2 0xD49 CALLER ADDRESS DUP4 DUP6 PUSH20 0xFFFFFFFFFFFFFFFFFFFFFFFFFFFFFFFFFFFFFFFF AND PUSH2 0x268B SWAP1 SWAP4 SWAP3 SWAP2 SWAP1 PUSH4 0xFFFFFFFF AND JUMP JUMPDEST DUP2 PUSH20 0xFFFFFFFFFFFFFFFFFFFFFFFFFFFFFFFFFFFFFFFF AND CALLER PUSH20 0xFFFFFFFFFFFFFFFFFFFFFFFFFFFFFFFFFFFFFFFF AND PUSH32 0x98C09D9949722BAE4BD0D988D4050091C3AE7EC6D51D3C6BBFE4233593944E9E DUP4 PUSH1 0x40 MLOAD PUSH2 0xDA6 SWAP2 SWAP1 PUSH2 0x297A JUMP JUMPDEST PUSH1 0x40 MLOAD DUP1 SWAP2 SUB SWAP1 LOG3 POP POP JUMP JUMPDEST PUSH0 PUSH0 PUSH1 0x60 PUSH0 PUSH0 PUSH0 PUSH0 PUSH0 PUSH1 0x1 PUSH0 DUP11 DUP2 MSTORE PUSH1 0x20 ADD SWAP1 DUP2 MSTORE PUSH1 0x20 ADD PUSH0 KECCAK256 SWAP1 POP DUP1 PUSH0 ADD PUSH0 SWAP1 SLOAD SWAP1 PUSH2 0x100 EXP SWAP1 DIV PUSH20 0xFFFFFFFFFFFFFFFFFFFFFFFFFFFFFFFFFFFFFFFF AND DUP2 PUSH1 0x1 ADD SLOAD DUP3 PUSH1 0x2 ADD DUP4 PUSH1 0x3 ADD PUSH0 SWAP1 SLOAD SWAP1 PUSH2 0x100 EXP SWAP1 DIV PUSH1 0xFF AND DUP5 PUSH1 0x4 ADD SLOAD DUP6 PUSH1 0x5 ADD SLOAD DUP7 PUSH1 0x6 ADD PUSH0 SWAP1 SLOAD SWAP1 PUSH2 0x100 EXP SWAP1 DIV PUSH20 0xFFFFFFFFFFFFFFFFFFFFFFFFFFFFFFFFFFFFFFFF AND DUP5 DUP1 SLOAD PUSH2 0xE45 SWAP1 PUSH2 0x33FB JUMP JUMPDEST DUP1 PUSH1 0x1F ADD PUSH1 0x20 DUP1 SWAP2 DIV MUL PUSH1 0x20 ADD PUSH1 0x40 MLOAD SWAP1 DUP2 ADD PUSH1 0x40 MSTORE DUP1 SWAP3 SWAP2 SWAP1 DUP2 DUP2 MSTORE PUSH1 0x20 ADD DUP3 DUP1 SLOAD PUSH2 0xE71 SWAP1 PUSH2 0x33FB JUMP JUMPDEST DUP1 ISZERO PUSH2 0xEBC JUMPI DUP1 PUSH1 0x1F LT PUSH2 0xE93 JUMPI PUSH2 0x100 DUP1 DUP4 SLOAD DIV MUL DUP4 MSTORE SWAP2 PUSH1 0x20 ADD SWAP2 PUSH2 0xEBC JUMP JUMPDEST DUP3 ADD SWAP2 SWAP1 PUSH0 MSTORE PUSH1 0x20 PUSH0 KECCAK256 SWAP1 JUMPDEST DUP2 SLOAD DUP2 MSTORE SWAP1 PUSH1 0x1 ADD SWAP1 PUSH1 0x20 ADD DUP1 DUP4 GT PUSH2 0xE9F JUMPI DUP3 SWAP1 SUB PUSH1 0x1F AND DUP3 ADD SWAP2 JUMPDEST POP POP POP POP POP SWAP5 POP SWAP8 POP SWAP8 POP SWAP8 POP SWAP8 POP SWAP8 POP SWAP8 POP SWAP8 POP POP SWAP2 SWAP4 SWAP6 SWAP8 SWAP1 SWAP3 SWAP5 SWAP7 POP JUMP JUMPDEST PUSH0 DUP2 PUSH20 0xFFFFFFFFFFFFFFFFFFFFFFFFFFFFFFFFFFFFFFFF AND PUSH4 0x70A08231 ADDRESS PUSH1 0x40 MLOAD DUP3 PUSH4 0xFFFFFFFF AND PUSH1 0xE0 SHL DUP2 MSTORE PUSH1 0x4 ADD PUSH2 0xF17 SWAP2 SWAP1 PUSH2 0x2961 JUMP JUMPDEST PUSH1 0x20 PUSH1 0x40 MLOAD DUP1 DUP4 SUB DUP2 DUP7 GAS STATICCALL ISZERO DUP1 ISZERO PUSH2 0xF32 JUMPI RETURNDATASIZE PUSH0 PUSH0 RETURNDATACOPY RETURNDATASIZE PUSH0 REVERT JUMPDEST POP POP POP POP PUSH1 0x40 MLOAD RETURNDATASIZE PUSH1 0x1F NOT PUSH1 0x1F DUP3 ADD AND DUP3 ADD DUP1 PUSH1 0x40 MSTORE POP DUP2 ADD SWAP1 PUSH2 0xF56 SWAP2 SWAP1 PUSH2 0x343F JUMP JUMPDEST SWAP1 POP SWAP2 SWAP1 POP JUMP JUMPDEST PUSH0 PUSH0 PUSH0 SWAP1 POP JUMPDEST PUSH1 0x6 SLOAD DUP2 LT ISZERO PUSH2 0xFEA JUMPI DUP4 DUP1 ISZERO PUSH2 0xF98 JUMPI POP PUSH1 0x1 PUSH0 DUP3 DUP2 MSTORE PUSH1 0x20 ADD SWAP1 DUP2 MSTORE PUSH1 0x20 ADD PUSH0 KECCAK256 PUSH1 0x3 ADD PUSH0 SWAP1 SLOAD SWAP1 PUSH2 0x100 EXP SWAP1 DIV PUSH1 0xFF AND ISZERO JUMPDEST DUP1 PUSH2 0xFC9 JUMPI POP DUP3 DUP1 ISZERO PUSH2 0xFC8 JUMPI POP PUSH1 0x1 PUSH0 DUP3 DUP2 MSTORE PUSH1 0x20 ADD SWAP1 DUP2 MSTORE PUSH1 0x20 ADD PUSH0 KECCAK256 PUSH1 0x3 ADD PUSH0 SWAP1 SLOAD SWAP1 PUSH2 0x100 EXP SWAP1 DIV PUSH1 0xFF AND JUMPDEST JUMPDEST ISZERO PUSH2 0xFDD JUMPI DUP2 DUP1 PUSH2 0xFD9 SWAP1 PUSH2 0x346A JUMP JUMPDEST SWAP3 POP POP JUMPDEST DUP1 DUP1 PUSH1 0x1 ADD SWAP2 POP POP PUSH2 0xF63 JUMP JUMPDEST POP SWAP3 SWAP2 POP POP JUMP JUMPDEST PUSH0 CALLER PUSH1 0x3 PUSH0 DUP3 PUSH20 0xFFFFFFFFFFFFFFFFFFFFFFFFFFFFFFFFFFFFFFFF AND PUSH20 0xFFFFFFFFFFFFFFFFFFFFFFFFFFFFFFFFFFFFFFFF AND DUP2 MSTORE PUSH1 0x20 ADD SWAP1 DUP2 MSTORE PUSH1 0x20 ADD PUSH0 KECCAK256 PUSH0 SWAP1 SLOAD SWAP1 PUSH2 0x100 EXP SWAP1 DIV PUSH1 0xFF AND PUSH2 0x107C JUMPI PUSH1 0x40 MLOAD PUSH32 0x8C379A000000000000000000000000000000000000000000000000000000000 DUP2 MSTORE PUSH1 0x4 ADD PUSH2 0x1073 SWAP1 PUSH2 0x30C7 JUMP JUMPDEST PUSH1 0x40 MLOAD DUP1 SWAP2 SUB SWAP1 REVERT JUMPDEST PUSH1 0x6 SLOAD SWAP2 POP PUSH1 0x40 MLOAD DUP1 PUSH1 0xE0 ADD PUSH1 0x40 MSTORE DUP1 DUP8 PUSH20 0xFFFFFFFFFFFFFFFFFFFFFFFFFFFFFFFFFFFFFFFF AND DUP2 MSTORE PUSH1 0x20 ADD DUP7 DUP2 MSTORE PUSH1 0x20 ADD DUP6 DUP2 MSTORE PUSH1 0x20 ADD PUSH0 ISZERO ISZERO DUP2 MSTORE PUSH1 0x20 ADD PUSH0 DUP2 MSTORE PUSH1 0x20 ADD TIMESTAMP DUP2 MSTORE PUSH1 0x20 ADD DUP5 PUSH20 0xFFFFFFFFFFFFFFFFFFFFFFFFFFFFFFFFFFFFFFFF AND DUP2 MSTORE POP PUSH1 0x1 PUSH0 DUP5 DUP2 MSTORE PUSH1 0x20 ADD SWAP1 DUP2 MSTORE PUSH1 0x20 ADD PUSH0 KECCAK256 PUSH0 DUP3 ADD MLOAD DUP2 PUSH0 ADD PUSH0 PUSH2 0x100 EXP DUP2 SLOAD DUP2 PUSH20 0xFFFFFFFFFFFFFFFFFFFFFFFFFFFFFFFFFFFFFFFF MUL NOT AND SWAP1 DUP4 PUSH20 0xFFFFFFFFFFFFFFFFFFFFFFFFFFFFFFFFFFFFFFFF AND MUL OR SWAP1 SSTORE POP PUSH1 0x20 DUP3 ADD MLOAD DUP2 PUSH1 0x1 ADD SSTORE PUSH1 0x40 DUP3 ADD MLOAD DUP2 PUSH1 0x2 ADD SWAP1 DUP2 PUSH2 0x1156 SWAP2 SWAP1 PUSH2 0x3651 JUMP JUMPDEST POP PUSH1 0x60 DUP3 ADD MLOAD DUP2 PUSH1 0x3 ADD PUSH0 PUSH2 0x100 EXP DUP2 SLOAD DUP2 PUSH1 0xFF MUL NOT AND SWAP1 DUP4 ISZERO ISZERO MUL OR SWAP1 SSTORE POP PUSH1 0x80 DUP3 ADD MLOAD DUP2 PUSH1 0x4 ADD SSTORE PUSH1 0xA0 DUP3 ADD MLOAD DUP2 PUSH1 0x5 ADD SSTORE PUSH1 0xC0 DUP3 ADD MLOAD DUP2 PUSH1 0x6 ADD PUSH0 PUSH2 0x100 EXP DUP2 SLOAD DUP2 PUSH20 0xFFFFFFFFFFFFFFFFFFFFFFFFFFFFFFFFFFFFFFFF MUL NOT AND SWAP1 DUP4 PUSH20 0xFFFFFFFFFFFFFFFFFFFFFFFFFFFFFFFFFFFFFFFF AND MUL OR SWAP1 SSTORE POP SWAP1 POP POP PUSH1 0x6 PUSH0 DUP2 SLOAD DUP1 SWAP3 SWAP2 SWAP1 PUSH2 0x11E5 SWAP1 PUSH2 0x346A JUMP JUMPDEST SWAP2 SWAP1 POP SSTORE POP DUP6 PUSH20 0xFFFFFFFFFFFFFFFFFFFFFFFFFFFFFFFFFFFFFFFF AND DUP3 CALLER PUSH20 0xFFFFFFFFFFFFFFFFFFFFFFFFFFFFFFFFFFFFFFFF AND PUSH32 0xA450E3866A6133BD39D88CCE8897A51E823DB7BA4E9C912CFC15E523DAD9491F DUP9 DUP9 DUP9 PUSH1 0x40 MLOAD PUSH2 0x124C SWAP4 SWAP3 SWAP2 SWAP1 PUSH2 0x3720 JUMP JUMPDEST PUSH1 0x40 MLOAD DUP1 SWAP2 SUB SWAP1 LOG4 PUSH2 0x125D DUP3 PUSH2 0x1CD3 JUMP JUMPDEST POP SWAP5 SWAP4 POP POP POP POP JUMP JUMPDEST ADDRESS PUSH20 0xFFFFFFFFFFFFFFFFFFFFFFFFFFFFFFFFFFFFFFFF AND CALLER PUSH20 0xFFFFFFFFFFFFFFFFFFFFFFFFFFFFFFFFFFFFFFFF AND EQ PUSH2 0x12D4 JUMPI PUSH1 0x40 MLOAD PUSH32 0x8C379A000000000000000000000000000000000000000000000000000000000 DUP2 MSTORE PUSH1 0x4 ADD PUSH2 0x12CB SWAP1 PUSH2 0x305F JUMP JUMPDEST PUSH1 0x40 MLOAD DUP1 SWAP2 SUB SWAP1 REVERT JUMPDEST DUP1 PUSH1 0x3 PUSH0 DUP3 PUSH20 0xFFFFFFFFFFFFFFFFFFFFFFFFFFFFFFFFFFFFFFFF AND PUSH20 0xFFFFFFFFFFFFFFFFFFFFFFFFFFFFFFFFFFFFFFFF AND DUP2 MSTORE PUSH1 0x20 ADD SWAP1 DUP2 MSTORE PUSH1 0x20 ADD PUSH0 KECCAK256 PUSH0 SWAP1 SLOAD SWAP1 PUSH2 0x100 EXP SWAP1 DIV PUSH1 0xFF AND ISZERO PUSH2 0x135F JUMPI PUSH1 0x40 MLOAD PUSH32 0x8C379A000000000000000000000000000000000000000000000000000000000 DUP2 MSTORE PUSH1 0x4 ADD PUSH2 0x1356 SWAP1 PUSH2 0x37A6 JUMP JUMPDEST PUSH1 0x40 MLOAD DUP1 SWAP2 SUB SWAP1 REVERT JUMPDEST DUP2 PUSH0 PUSH20 0xFFFFFFFFFFFFFFFFFFFFFFFFFFFFFFFFFFFFFFFF AND DUP2 PUSH20 0xFFFFFFFFFFFFFFFFFFFFFFFFFFFFFFFFFFFFFFFF AND SUB PUSH2 0x13CE JUMPI PUSH1 0x40 MLOAD PUSH32 0x8C379A000000000000000000000000000000000000000000000000000000000 DUP2 MSTORE PUSH1 0x4 ADD PUSH2 0x13C5 SWAP1 PUSH2 0x380E JUMP JUMPDEST PUSH1 0x40 MLOAD DUP1 SWAP2 SUB SWAP1 REVERT JUMPDEST PUSH1 0x1 PUSH1 0x4 DUP1 SLOAD SWAP1 POP PUSH2 0x13E0 SWAP2 SWAP1 PUSH2 0x382C JUMP JUMPDEST PUSH1 0x5 SLOAD PUSH1 0x14 DUP3 GT ISZERO DUP1 ISZERO PUSH2 0x13F4 JUMPI POP DUP2 DUP2 GT ISZERO JUMPDEST DUP1 ISZERO PUSH2 0x1400 JUMPI POP PUSH0 DUP2 EQ ISZERO JUMPDEST DUP1 ISZERO PUSH2 0x140C JUMPI POP PUSH0 DUP3 EQ ISZERO JUMPDEST PUSH2 0x144B JUMPI PUSH1 0x40 MLOAD PUSH32 0x8C379A000000000000000000000000000000000000000000000000000000000 DUP2 MSTORE PUSH1 0x4 ADD PUSH2 0x1442 SWAP1 PUSH2 0x38A9 JUMP JUMPDEST PUSH1 0x40 MLOAD DUP1 SWAP2 SUB SWAP1 REVERT JUMPDEST PUSH1 0x1 PUSH1 0x3 PUSH0 DUP8 PUSH20 0xFFFFFFFFFFFFFFFFFFFFFFFFFFFFFFFFFFFFFFFF AND PUSH20 0xFFFFFFFFFFFFFFFFFFFFFFFFFFFFFFFFFFFFFFFF AND DUP2 MSTORE PUSH1 0x20 ADD SWAP1 DUP2 MSTORE PUSH1 0x20 ADD PUSH0 KECCAK256 PUSH0 PUSH2 0x100 EXP DUP2 SLOAD DUP2 PUSH1 0xFF MUL NOT AND SWAP1 DUP4 ISZERO ISZERO MUL OR SWAP1 SSTORE POP PUSH1 0x4 DUP6 SWAP1 DUP1 PUSH1 0x1 DUP2 SLOAD ADD DUP1 DUP3 SSTORE DUP1 SWAP2 POP POP PUSH1 0x1 SWAP1 SUB SWAP1 PUSH0 MSTORE PUSH1 0x20 PUSH0 KECCAK256 ADD PUSH0 SWAP1 SWAP2 SWAP1 SWAP2 SWAP1 SWAP2 PUSH2 0x100 EXP DUP2 SLOAD DUP2 PUSH20 0xFFFFFFFFFFFFFFFFFFFFFFFFFFFFFFFFFFFFFFFF MUL NOT AND SWAP1 DUP4 PUSH20 0xFFFFFFFFFFFFFFFFFFFFFFFFFFFFFFFFFFFFFFFF AND MUL OR SWAP1 SSTORE POP DUP5 PUSH20 0xFFFFFFFFFFFFFFFFFFFFFFFFFFFFFFFFFFFFFFFF AND PUSH32 0xF39E6E1EB0EDCF53C221607B54B00CD28F3196FED0A24994DC308B8F611B682D PUSH1 0x40 MLOAD PUSH1 0x40 MLOAD DUP1 SWAP2 SUB SWAP1 LOG2 POP POP POP POP POP JUMP JUMPDEST PUSH1 0x2 PUSH1 0x20 MSTORE DUP2 PUSH0 MSTORE PUSH1 0x40 PUSH0 KECCAK256 PUSH1 0x20 MSTORE DUP1 PUSH0 MSTORE PUSH1 0x40 PUSH0 KECCAK256 PUSH0 SWAP2 POP SWAP2 POP SWAP1 SLOAD SWAP1 PUSH2 0x100 EXP SWAP1 DIV PUSH1 0xFF AND DUP2 JUMP JUMPDEST PUSH0 PUSH1 0x2 PUSH0 DUP5 DUP2 MSTORE PUSH1 0x20 ADD SWAP1 DUP2 MSTORE PUSH1 0x20 ADD PUSH0 KECCAK256 PUSH0 DUP4 PUSH20 0xFFFFFFFFFFFFFFFFFFFFFFFFFFFFFFFFFFFFFFFF AND PUSH20 0xFFFFFFFFFFFFFFFFFFFFFFFFFFFFFFFFFFFFFFFF AND DUP2 MSTORE PUSH1 0x20 ADD SWAP1 DUP2 MSTORE PUSH1 0x20 ADD PUSH0 KECCAK256 PUSH0 SWAP1 SLOAD SWAP1 PUSH2 0x100 EXP SWAP1 DIV PUSH1 0xFF AND SWAP1 POP SWAP3 SWAP2 POP POP JUMP JUMPDEST PUSH1 0x1 PUSH1 0x20 MSTORE DUP1 PUSH0 MSTORE PUSH1 0x40 PUSH0 KECCAK256 PUSH0 SWAP2 POP SWAP1 POP DUP1 PUSH0 ADD PUSH0 SWAP1 SLOAD SWAP1 PUSH2 0x100 EXP SWAP1 DIV PUSH20 0xFFFFFFFFFFFFFFFFFFFFFFFFFFFFFFFFFFFFFFFF AND SWAP1 DUP1 PUSH1 0x1 ADD SLOAD SWAP1 DUP1 PUSH1 0x2 ADD DUP1 SLOAD PUSH2 0x1620 SWAP1 PUSH2 0x33FB JUMP JUMPDEST DUP1 PUSH1 0x1F ADD PUSH1 0x20 DUP1 SWAP2 DIV MUL PUSH1 0x20 ADD PUSH1 0x40 MLOAD SWAP1 DUP2 ADD PUSH1 0x40 MSTORE DUP1 SWAP3 SWAP2 SWAP1 DUP2 DUP2 MSTORE PUSH1 0x20 ADD DUP3 DUP1 SLOAD PUSH2 0x164C SWAP1 PUSH2 0x33FB JUMP JUMPDEST DUP1 ISZERO PUSH2 0x1697 JUMPI DUP1 PUSH1 0x1F LT PUSH2 0x166E JUMPI PUSH2 0x100 DUP1 DUP4 SLOAD DIV MUL DUP4 MSTORE SWAP2 PUSH1 0x20 ADD SWAP2 PUSH2 0x1697 JUMP JUMPDEST DUP3 ADD SWAP2 SWAP1 PUSH0 MSTORE PUSH1 0x20 PUSH0 KECCAK256 SWAP1 JUMPDEST DUP2 SLOAD DUP2 MSTORE SWAP1 PUSH1 0x1 ADD SWAP1 PUSH1 0x20 ADD DUP1 DUP4 GT PUSH2 0x167A JUMPI DUP3 SWAP1 SUB PUSH1 0x1F AND DUP3 ADD SWAP2 JUMPDEST POP POP POP POP POP SWAP1 DUP1 PUSH1 0x3 ADD PUSH0 SWAP1 SLOAD SWAP1 PUSH2 0x100 EXP SWAP1 DIV PUSH1 0xFF AND SWAP1 DUP1 PUSH1 0x4 ADD SLOAD SWAP1 DUP1 PUSH1 0x5 ADD SLOAD SWAP1 DUP1 PUSH1 0x6 ADD PUSH0 SWAP1 SLOAD SWAP1 PUSH2 0x100 EXP SWAP1 DIV PUSH20 0xFFFFFFFFFFFFFFFFFFFFFFFFFFFFFFFFFFFFFFFF AND SWAP1 POP DUP8 JUMP JUMPDEST PUSH1 0x60 PUSH1 0x4 DUP1 SLOAD DUP1 PUSH1 0x20 MUL PUSH1 0x20 ADD PUSH1 0x40 MLOAD SWAP1 DUP2 ADD PUSH1 0x40 MSTORE DUP1 SWAP3 SWAP2 SWAP1 DUP2 DUP2 MSTORE PUSH1 0x20 ADD DUP3 DUP1 SLOAD DUP1 ISZERO PUSH2 0x1765 JUMPI PUSH1 0x20 MUL DUP3 ADD SWAP2 SWAP1 PUSH0 MSTORE PUSH1 0x20 PUSH0 KECCAK256 SWAP1 JUMPDEST DUP2 PUSH0 SWAP1 SLOAD SWAP1 PUSH2 0x100 EXP SWAP1 DIV PUSH20 0xFFFFFFFFFFFFFFFFFFFFFFFFFFFFFFFFFFFFFFFF AND PUSH20 0xFFFFFFFFFFFFFFFFFFFFFFFFFFFFFFFFFFFFFFFF AND DUP2 MSTORE PUSH1 0x20 ADD SWAP1 PUSH1 0x1 ADD SWAP1 DUP1 DUP4 GT PUSH2 0x171C JUMPI JUMPDEST POP POP POP POP POP SWAP1 POP SWAP1 JUMP JUMPDEST PUSH1 0x60 PUSH0 PUSH1 0x6 SLOAD PUSH8 0xFFFFFFFFFFFFFFFF DUP2 GT ISZERO PUSH2 0x178E JUMPI PUSH2 0x178D PUSH2 0x2BAD JUMP JUMPDEST JUMPDEST PUSH1 0x40 MLOAD SWAP1 DUP1 DUP3 MSTORE DUP1 PUSH1 0x20 MUL PUSH1 0x20 ADD DUP3 ADD PUSH1 0x40 MSTORE DUP1 ISZERO PUSH2 0x17BC JUMPI DUP2 PUSH1 0x20 ADD PUSH1 0x20 DUP3 MUL DUP1 CALLDATASIZE DUP4 CALLDATACOPY DUP1 DUP3 ADD SWAP2 POP POP SWAP1 POP JUMPDEST POP SWAP1 POP PUSH0 PUSH0 SWAP1 POP PUSH0 PUSH0 SWAP1 POP JUMPDEST PUSH1 0x6 SLOAD DUP2 LT ISZERO PUSH2 0x186F JUMPI DUP6 DUP1 ISZERO PUSH2 0x17FD JUMPI POP PUSH1 0x1 PUSH0 DUP3 DUP2 MSTORE PUSH1 0x20 ADD SWAP1 DUP2 MSTORE PUSH1 0x20 ADD PUSH0 KECCAK256 PUSH1 0x3 ADD PUSH0 SWAP1 SLOAD SWAP1 PUSH2 0x100 EXP SWAP1 DIV PUSH1 0xFF AND ISZERO JUMPDEST DUP1 PUSH2 0x182E JUMPI POP DUP5 DUP1 ISZERO PUSH2 0x182D JUMPI POP PUSH1 0x1 PUSH0 DUP3 DUP2 MSTORE PUSH1 0x20 ADD SWAP1 DUP2 MSTORE PUSH1 0x20 ADD PUSH0 KECCAK256 PUSH1 0x3 ADD PUSH0 SWAP1 SLOAD SWAP1 PUSH2 0x100 EXP SWAP1 DIV PUSH1 0xFF AND JUMPDEST JUMPDEST ISZERO PUSH2 0x1862 JUMPI DUP1 DUP4 DUP4 DUP2 MLOAD DUP2 LT PUSH2 0x1847 JUMPI PUSH2 0x1846 PUSH2 0x3145 JUMP JUMPDEST JUMPDEST PUSH1 0x20 MUL PUSH1 0x20 ADD ADD DUP2 DUP2 MSTORE POP POP DUP2 DUP1 PUSH2 0x185E SWAP1 PUSH2 0x346A JUMP JUMPDEST SWAP3 POP POP JUMPDEST DUP1 DUP1 PUSH1 0x1 ADD SWAP2 POP POP PUSH2 0x17C8 JUMP JUMPDEST POP DUP7 DUP7 PUSH2 0x187C SWAP2 SWAP1 PUSH2 0x3112 JUMP JUMPDEST PUSH8 0xFFFFFFFFFFFFFFFF DUP2 GT ISZERO PUSH2 0x1895 JUMPI PUSH2 0x1894 PUSH2 0x2BAD JUMP JUMPDEST JUMPDEST PUSH1 0x40 MLOAD SWAP1 DUP1 DUP3 MSTORE DUP1 PUSH1 0x20 MUL PUSH1 0x20 ADD DUP3 ADD PUSH1 0x40 MSTORE DUP1 ISZERO PUSH2 0x18C3 JUMPI DUP2 PUSH1 0x20 ADD PUSH1 0x20 DUP3 MUL DUP1 CALLDATASIZE DUP4 CALLDATACOPY DUP1 DUP3 ADD SWAP2 POP POP SWAP1 POP JUMPDEST POP SWAP3 POP PUSH0 DUP8 SWAP1 POP JUMPDEST DUP7 DUP2 LT ISZERO PUSH2 0x1925 JUMPI DUP3 DUP2 DUP2 MLOAD DUP2 LT PUSH2 0x18E6 JUMPI PUSH2 0x18E5 PUSH2 0x3145 JUMP JUMPDEST JUMPDEST PUSH1 0x20 MUL PUSH1 0x20 ADD ADD MLOAD DUP5 DUP10 DUP4 PUSH2 0x18FB SWAP2 SWAP1 PUSH2 0x3112 JUMP JUMPDEST DUP2 MLOAD DUP2 LT PUSH2 0x190C JUMPI PUSH2 0x190B PUSH2 0x3145 JUMP JUMPDEST JUMPDEST PUSH1 0x20 MUL PUSH1 0x20 ADD ADD DUP2 DUP2 MSTORE POP POP DUP1 DUP1 PUSH1 0x1 ADD SWAP2 POP POP PUSH2 0x18CB JUMP JUMPDEST POP POP POP SWAP5 SWAP4 POP POP POP POP JUMP JUMPDEST PUSH1 0x60 PUSH0 PUSH1 0x4 DUP1 SLOAD SWAP1 POP PUSH8 0xFFFFFFFFFFFFFFFF DUP2 GT ISZERO PUSH2 0x1952 JUMPI PUSH2 0x1951 PUSH2 0x2BAD JUMP JUMPDEST JUMPDEST PUSH1 0x40 MLOAD SWAP1 DUP1 DUP3 MSTORE DUP1 PUSH1 0x20 MUL PUSH1 0x20 ADD DUP3 ADD PUSH1 0x40 MSTORE DUP1 ISZERO PUSH2 0x1980 JUMPI DUP2 PUSH1 0x20 ADD PUSH1 0x20 DUP3 MUL DUP1 CALLDATASIZE DUP4 CALLDATACOPY DUP1 DUP3 ADD SWAP2 POP POP SWAP1 POP JUMPDEST POP SWAP1 POP PUSH0 PUSH0 SWAP1 POP PUSH0 PUSH0 SWAP1 POP JUMPDEST PUSH1 0x4 DUP1 SLOAD SWAP1 POP DUP2 LT ISZERO PUSH2 0x1AD7 JUMPI PUSH1 0x2 PUSH0 DUP7 DUP2 MSTORE PUSH1 0x20 ADD SWAP1 DUP2 MSTORE PUSH1 0x20 ADD PUSH0 KECCAK256 PUSH0 PUSH1 0x4 DUP4 DUP2 SLOAD DUP2 LT PUSH2 0x19BF JUMPI PUSH2 0x19BE PUSH2 0x3145 JUMP JUMPDEST JUMPDEST SWAP1 PUSH0 MSTORE PUSH1 0x20 PUSH0 KECCAK256 ADD PUSH0 SWAP1 SLOAD SWAP1 PUSH2 0x100 EXP SWAP1 DIV PUSH20 0xFFFFFFFFFFFFFFFFFFFFFFFFFFFFFFFFFFFFFFFF AND PUSH20 0xFFFFFFFFFFFFFFFFFFFFFFFFFFFFFFFFFFFFFFFF AND PUSH20 0xFFFFFFFFFFFFFFFFFFFFFFFFFFFFFFFFFFFFFFFF AND DUP2 MSTORE PUSH1 0x20 ADD SWAP1 DUP2 MSTORE PUSH1 0x20 ADD PUSH0 KECCAK256 PUSH0 SWAP1 SLOAD SWAP1 PUSH2 0x100 EXP SWAP1 DIV PUSH1 0xFF AND ISZERO PUSH2 0x1ACA JUMPI PUSH1 0x4 DUP2 DUP2 SLOAD DUP2 LT PUSH2 0x1A46 JUMPI PUSH2 0x1A45 PUSH2 0x3145 JUMP JUMPDEST JUMPDEST SWAP1 PUSH0 MSTORE PUSH1 0x20 PUSH0 KECCAK256 ADD PUSH0 SWAP1 SLOAD SWAP1 PUSH2 0x100 EXP SWAP1 DIV PUSH20 0xFFFFFFFFFFFFFFFFFFFFFFFFFFFFFFFFFFFFFFFF AND DUP4 DUP4 DUP2 MLOAD DUP2 LT PUSH2 0x1A81 JUMPI PUSH2 0x1A80 PUSH2 0x3145 JUMP JUMPDEST JUMPDEST PUSH1 0x20 MUL PUSH1 0x20 ADD ADD SWAP1 PUSH20 0xFFFFFFFFFFFFFFFFFFFFFFFFFFFFFFFFFFFFFFFF AND SWAP1 DUP2 PUSH20 0xFFFFFFFFFFFFFFFFFFFFFFFFFFFFFFFFFFFFFFFF AND DUP2 MSTORE POP POP DUP2 DUP1 PUSH2 0x1AC6 SWAP1 PUSH2 0x346A JUMP JUMPDEST SWAP3 POP POP JUMPDEST DUP1 DUP1 PUSH1 0x1 ADD SWAP2 POP POP PUSH2 0x198C JUMP JUMPDEST POP DUP1 PUSH8 0xFFFFFFFFFFFFFFFF DUP2 GT ISZERO PUSH2 0x1AF2 JUMPI PUSH2 0x1AF1 PUSH2 0x2BAD JUMP JUMPDEST JUMPDEST PUSH1 0x40 MLOAD SWAP1 DUP1 DUP3 MSTORE DUP1 PUSH1 0x20 MUL PUSH1 0x20 ADD DUP3 ADD PUSH1 0x40 MSTORE DUP1 ISZERO PUSH2 0x1B20 JUMPI DUP2 PUSH1 0x20 ADD PUSH1 0x20 DUP3 MUL DUP1 CALLDATASIZE DUP4 CALLDATACOPY DUP1 DUP3 ADD SWAP2 POP POP SWAP1 POP JUMPDEST POP SWAP3 POP PUSH0 PUSH0 SWAP1 POP JUMPDEST DUP2 DUP2 LT ISZERO PUSH2 0x1BA5 JUMPI DUP3 DUP2 DUP2 MLOAD DUP2 LT PUSH2 0x1B43 JUMPI PUSH2 0x1B42 PUSH2 0x3145 JUMP JUMPDEST JUMPDEST PUSH1 0x20 MUL PUSH1 0x20 ADD ADD MLOAD DUP5 DUP3 DUP2 MLOAD DUP2 LT PUSH2 0x1B5E JUMPI PUSH2 0x1B5D PUSH2 0x3145 JUMP JUMPDEST JUMPDEST PUSH1 0x20 MUL PUSH1 0x20 ADD ADD SWAP1 PUSH20 0xFFFFFFFFFFFFFFFFFFFFFFFFFFFFFFFFFFFFFFFF AND SWAP1 DUP2 PUSH20 0xFFFFFFFFFFFFFFFFFFFFFFFFFFFFFFFFFFFFFFFF AND DUP2 MSTORE POP POP DUP1 DUP1 PUSH1 0x1 ADD SWAP2 POP POP PUSH2 0x1B28 JUMP JUMPDEST POP POP POP SWAP2 SWAP1 POP JUMP JUMPDEST PUSH1 0x6 SLOAD DUP2 JUMP JUMPDEST ADDRESS PUSH20 0xFFFFFFFFFFFFFFFFFFFFFFFFFFFFFFFFFFFFFFFF AND CALLER PUSH20 0xFFFFFFFFFFFFFFFFFFFFFFFFFFFFFFFFFFFFFFFF AND EQ PUSH2 0x1C21 JUMPI PUSH1 0x40 MLOAD PUSH32 0x8C379A000000000000000000000000000000000000000000000000000000000 DUP2 MSTORE PUSH1 0x4 ADD PUSH2 0x1C18 SWAP1 PUSH2 0x305F JUMP JUMPDEST PUSH1 0x40 MLOAD DUP1 SWAP2 SUB SWAP1 REVERT JUMPDEST PUSH1 0x4 DUP1 SLOAD SWAP1 POP DUP2 PUSH1 0x14 DUP3 GT ISZERO DUP1 ISZERO PUSH2 0x1C39 JUMPI POP DUP2 DUP2 GT ISZERO JUMPDEST DUP1 ISZERO PUSH2 0x1C45 JUMPI POP PUSH0 DUP2 EQ ISZERO JUMPDEST DUP1 ISZERO PUSH2 0x1C51 JUMPI POP PUSH0 DUP3 EQ ISZERO JUMPDEST PUSH2 0x1C90 JUMPI PUSH1 0x40 MLOAD PUSH32 0x8C379A000000000000000000000000000000000000000000000000000000000 DUP2 MSTORE PUSH1 0x4 ADD PUSH2 0x1C87 SWAP1 PUSH2 0x38A9 JUMP JUMPDEST PUSH1 0x40 MLOAD DUP1 SWAP2 SUB SWAP1 REVERT JUMPDEST DUP3 PUSH1 0x5 DUP2 SWAP1 SSTORE POP PUSH32 0xA3F1EE9126A074D9326C682F561767F710E927FAA811F7A99829D49DC421797A DUP4 PUSH1 0x40 MLOAD PUSH2 0x1CC6 SWAP2 SWAP1 PUSH2 0x297A JUMP JUMPDEST PUSH1 0x40 MLOAD DUP1 SWAP2 SUB SWAP1 LOG1 POP POP POP JUMP JUMPDEST CALLER PUSH1 0x3 PUSH0 DUP3 PUSH20 0xFFFFFFFFFFFFFFFFFFFFFFFFFFFFFFFFFFFFFFFF AND PUSH20 0xFFFFFFFFFFFFFFFFFFFFFFFFFFFFFFFFFFFFFFFF AND DUP2 MSTORE PUSH1 0x20 ADD SWAP1 DUP2 MSTORE PUSH1 0x20 ADD PUSH0 KECCAK256 PUSH0 SWAP1 SLOAD SWAP1 PUSH2 0x100 EXP SWAP1 DIV PUSH1 0xFF AND PUSH2 0x1D5D JUMPI PUSH1 0x40 MLOAD PUSH32 0x8C379A000000000000000000000000000000000000000000000000000000000 DUP2 MSTORE PUSH1 0x4 ADD PUSH2 0x1D54 SWAP1 PUSH2 0x30C7 JUMP JUMPDEST PUSH1 0x40 MLOAD DUP1 SWAP2 SUB SWAP1 REVERT JUMPDEST DUP2 PUSH1 0x6 SLOAD DUP2 LT PUSH2 0x1DA2 JUMPI PUSH1 0x40 MLOAD PUSH32 0x8C379A000000000000000000000000000000000000000000000000000000000 DUP2 MSTORE PUSH1 0x4 ADD PUSH2 0x1D99 SWAP1 PUSH2 0x31E9 JUMP JUMPDEST PUSH1 0x40 MLOAD DUP1 SWAP2 SUB SWAP1 REVERT JUMPDEST DUP3 CALLER PUSH1 0x2 PUSH0 DUP4 DUP2 MSTORE PUSH1 0x20 ADD SWAP1 DUP2 MSTORE PUSH1 0x20 ADD PUSH0 KECCAK256 PUSH0 DUP3 PUSH20 0xFFFFFFFFFFFFFFFFFFFFFFFFFFFFFFFFFFFFFFFF AND PUSH20 0xFFFFFFFFFFFFFFFFFFFFFFFFFFFFFFFFFFFFFFFF AND DUP2 MSTORE PUSH1 0x20 ADD SWAP1 DUP2 MSTORE PUSH1 0x20 ADD PUSH0 KECCAK256 PUSH0 SWAP1 SLOAD SWAP1 PUSH2 0x100 EXP SWAP1 DIV PUSH1 0xFF AND ISZERO PUSH2 0x1E3D JUMPI PUSH1 0x40 MLOAD PUSH32 0x8C379A000000000000000000000000000000000000000000000000000000000 DUP2 MSTORE PUSH1 0x4 ADD PUSH2 0x1E34 SWAP1 PUSH2 0x3911 JUMP JUMPDEST PUSH1 0x40 MLOAD DUP1 SWAP2 SUB SWAP1 REVERT JUMPDEST PUSH0 PUSH1 0x1 PUSH0 DUP8 DUP2 MSTORE PUSH1 0x20 ADD SWAP1 DUP2 MSTORE PUSH1 0x20 ADD PUSH0 KECCAK256 SWAP1 POP DUP1 PUSH1 0x4 ADD PUSH0 DUP2 SLOAD DUP1 SWAP3 SWAP2 SWAP1 PUSH2 0x1E65 SWAP1 PUSH2 0x346A JUMP JUMPDEST SWAP2 SWAP1 POP SSTORE POP PUSH1 0x1 PUSH1 0x2 PUSH0 DUP9 DUP2 MSTORE PUSH1 0x20 ADD SWAP1 DUP2 MSTORE PUSH1 0x20 ADD PUSH0 KECCAK256 PUSH0 CALLER PUSH20 0xFFFFFFFFFFFFFFFFFFFFFFFFFFFFFFFFFFFFFFFF AND PUSH20 0xFFFFFFFFFFFFFFFFFFFFFFFFFFFFFFFFFFFFFFFF AND DUP2 MSTORE PUSH1 0x20 ADD SWAP1 DUP2 MSTORE PUSH1 0x20 ADD PUSH0 KECCAK256 PUSH0 PUSH2 0x100 EXP DUP2 SLOAD DUP2 PUSH1 0xFF MUL NOT AND SWAP1 DUP4 ISZERO ISZERO MUL OR SWAP1 SSTORE POP DUP6 CALLER PUSH20 0xFFFFFFFFFFFFFFFFFFFFFFFFFFFFFFFFFFFFFFFF AND PUSH32 0x5CBE105E36805F7820E291F799D5794FF948AF2A5F664E580382DEFB63390041 PUSH1 0x40 MLOAD PUSH1 0x40 MLOAD DUP1 SWAP2 SUB SWAP1 LOG3 PUSH1 0x5 SLOAD DUP2 PUSH1 0x4 ADD SLOAD LT PUSH2 0x1F29 JUMPI PUSH2 0x1F28 DUP7 PUSH2 0x22DC JUMP JUMPDEST JUMPDEST POP POP POP POP POP POP JUMP JUMPDEST PUSH1 0x5 SLOAD DUP2 JUMP JUMPDEST ADDRESS PUSH20 0xFFFFFFFFFFFFFFFFFFFFFFFFFFFFFFFFFFFFFFFF AND CALLER PUSH20 0xFFFFFFFFFFFFFFFFFFFFFFFFFFFFFFFFFFFFFFFF AND EQ PUSH2 0x1FA5 JUMPI PUSH1 0x40 MLOAD PUSH32 0x8C379A000000000000000000000000000000000000000000000000000000000 DUP2 MSTORE PUSH1 0x4 ADD PUSH2 0x1F9C SWAP1 PUSH2 0x305F JUMP JUMPDEST PUSH1 0x40 MLOAD DUP1 SWAP2 SUB SWAP1 REVERT JUMPDEST DUP2 PUSH1 0x3 PUSH0 DUP3 PUSH20 0xFFFFFFFFFFFFFFFFFFFFFFFFFFFFFFFFFFFFFFFF AND PUSH20 0xFFFFFFFFFFFFFFFFFFFFFFFFFFFFFFFFFFFFFFFF AND DUP2 MSTORE PUSH1 0x20 ADD SWAP1 DUP2 MSTORE PUSH1 0x20 ADD PUSH0 KECCAK256 PUSH0 SWAP1 SLOAD SWAP1 PUSH2 0x100 EXP SWAP1 DIV PUSH1 0xFF AND PUSH2 0x202F JUMPI PUSH1 0x40 MLOAD PUSH32 0x8C379A000000000000000000000000000000000000000000000000000000000 DUP2 MSTORE PUSH1 0x4 ADD PUSH2 0x2026 SWAP1 PUSH2 0x30C7 JUMP JUMPDEST PUSH1 0x40 MLOAD DUP1 SWAP2 SUB SWAP1 REVERT JUMPDEST DUP2 PUSH1 0x3 PUSH0 DUP3 PUSH20 0xFFFFFFFFFFFFFFFFFFFFFFFFFFFFFFFFFFFFFFFF AND PUSH20 0xFFFFFFFFFFFFFFFFFFFFFFFFFFFFFFFFFFFFFFFF AND DUP2 MSTORE PUSH1 0x20 ADD SWAP1 DUP2 MSTORE PUSH1 0x20 ADD PUSH0 KECCAK256 PUSH0 SWAP1 SLOAD SWAP1 PUSH2 0x100 EXP SWAP1 DIV PUSH1 0xFF AND ISZERO PUSH2 0x20BA JUMPI PUSH1 0x40 MLOAD PUSH32 0x8C379A000000000000000000000000000000000000000000000000000000000 DUP2 MSTORE PUSH1 0x4 ADD PUSH2 0x20B1 SWAP1 PUSH2 0x37A6 JUMP JUMPDEST PUSH1 0x40 MLOAD DUP1 SWAP2 SUB SWAP1 REVERT JUMPDEST PUSH0 PUSH0 SWAP1 POP JUMPDEST PUSH1 0x4 DUP1 SLOAD SWAP1 POP DUP2 LT ISZERO PUSH2 0x21A6 JUMPI DUP5 PUSH20 0xFFFFFFFFFFFFFFFFFFFFFFFFFFFFFFFFFFFFFFFF AND PUSH1 0x4 DUP3 DUP2 SLOAD DUP2 LT PUSH2 0x20F7 JUMPI PUSH2 0x20F6 PUSH2 0x3145 JUMP JUMPDEST JUMPDEST SWAP1 PUSH0 MSTORE PUSH1 0x20 PUSH0 KECCAK256 ADD PUSH0 SWAP1 SLOAD SWAP1 PUSH2 0x100 EXP SWAP1 DIV PUSH20 0xFFFFFFFFFFFFFFFFFFFFFFFFFFFFFFFFFFFFFFFF AND PUSH20 0xFFFFFFFFFFFFFFFFFFFFFFFFFFFFFFFFFFFFFFFF AND SUB PUSH2 0x2199 JUMPI DUP4 PUSH1 0x4 DUP3 DUP2 SLOAD DUP2 LT PUSH2 0x214F JUMPI PUSH2 0x214E PUSH2 0x3145 JUMP JUMPDEST JUMPDEST SWAP1 PUSH0 MSTORE PUSH1 0x20 PUSH0 KECCAK256 ADD PUSH0 PUSH2 0x100 EXP DUP2 SLOAD DUP2 PUSH20 0xFFFFFFFFFFFFFFFFFFFFFFFFFFFFFFFFFFFFFFFF MUL NOT AND SWAP1 DUP4 PUSH20 0xFFFFFFFFFFFFFFFFFFFFFFFFFFFFFFFFFFFFFFFF AND MUL OR SWAP1 SSTORE POP PUSH2 0x21A6 JUMP JUMPDEST DUP1 DUP1 PUSH1 0x1 ADD SWAP2 POP POP PUSH2 0x20BF JUMP JUMPDEST POP PUSH0 PUSH1 0x3 PUSH0 DUP7 PUSH20 0xFFFFFFFFFFFFFFFFFFFFFFFFFFFFFFFFFFFFFFFF AND PUSH20 0xFFFFFFFFFFFFFFFFFFFFFFFFFFFFFFFFFFFFFFFF AND DUP2 MSTORE PUSH1 0x20 ADD SWAP1 DUP2 MSTORE PUSH1 0x20 ADD PUSH0 KECCAK256 PUSH0 PUSH2 0x100 EXP DUP2 SLOAD DUP2 PUSH1 0xFF MUL NOT AND SWAP1 DUP4 ISZERO ISZERO MUL OR SWAP1 SSTORE POP PUSH1 0x1 PUSH1 0x3 PUSH0 DUP6 PUSH20 0xFFFFFFFFFFFFFFFFFFFFFFFFFFFFFFFFFFFFFFFF AND PUSH20 0xFFFFFFFFFFFFFFFFFFFFFFFFFFFFFFFFFFFFFFFF AND DUP2 MSTORE PUSH1 0x20 ADD SWAP1 DUP2 MSTORE PUSH1 0x20 ADD PUSH0 KECCAK256 PUSH0 PUSH2 0x100 EXP DUP2 SLOAD DUP2 PUSH1 0xFF MUL NOT AND SWAP1 DUP4 ISZERO ISZERO MUL OR SWAP1 SSTORE POP DUP4 PUSH20 0xFFFFFFFFFFFFFFFFFFFFFFFFFFFFFFFFFFFFFFFF AND PUSH32 0x8001553A916EF2F495D26A907CC54D96ED840D7BDA71E73194BF5A9DF7A76B90 PUSH1 0x40 MLOAD PUSH1 0x40 MLOAD DUP1 SWAP2 SUB SWAP1 LOG2 DUP3 PUSH20 0xFFFFFFFFFFFFFFFFFFFFFFFFFFFFFFFFFFFFFFFF AND PUSH32 0xF39E6E1EB0EDCF53C221607B54B00CD28F3196FED0A24994DC308B8F611B682D PUSH1 0x40 MLOAD PUSH1 0x40 MLOAD DUP1 SWAP2 SUB SWAP1 LOG2 POP POP POP POP JUMP JUMPDEST CALLER PUSH1 0x3 PUSH0 DUP3 PUSH20 0xFFFFFFFFFFFFFFFFFFFFFFFFFFFFFFFFFFFFFFFF AND PUSH20 0xFFFFFFFFFFFFFFFFFFFFFFFFFFFFFFFFFFFFFFFF AND DUP2 MSTORE PUSH1 0x20 ADD SWAP1 DUP2 MSTORE PUSH1 0x20 ADD PUSH0 KECCAK256 PUSH0 SWAP1 SLOAD SWAP1 PUSH2 0x100 EXP SWAP1 DIV PUSH1 0xFF AND PUSH2 0x2366 JUMPI PUSH1 0x40 MLOAD PUSH32 0x8C379A000000000000000000000000000000000000000000000000000000000 DUP2 MSTORE PUSH1 0x4 ADD PUSH2 0x235D SWAP1 PUSH2 0x30C7 JUMP JUMPDEST PUSH1 0x40 MLOAD DUP1 SWAP2 SUB SWAP1 REVERT JUMPDEST DUP2 PUSH1 0x6 SLOAD DUP2 LT PUSH2 0x23AB JUMPI PUSH1 0x40 MLOAD PUSH32 0x8C379A000000000000000000000000000000000000000000000000000000000 DUP2 MSTORE PUSH1 0x4 ADD PUSH2 0x23A2 SWAP1 PUSH2 0x31E9 JUMP JUMPDEST PUSH1 0x40 MLOAD DUP1 SWAP2 SUB SWAP1 REVERT JUMPDEST DUP3 PUSH1 0x1 PUSH0 DUP3 DUP2 MSTORE PUSH1 0x20 ADD SWAP1 DUP2 MSTORE PUSH1 0x20 ADD PUSH0 KECCAK256 PUSH1 0x3 ADD PUSH0 SWAP1 SLOAD SWAP1 PUSH2 0x100 EXP SWAP1 DIV PUSH1 0xFF AND ISZERO PUSH2 0x240D JUMPI PUSH1 0x40 MLOAD PUSH32 0x8C379A000000000000000000000000000000000000000000000000000000000 DUP2 MSTORE PUSH1 0x4 ADD PUSH2 0x2404 SWAP1 PUSH2 0x3251 JUMP JUMPDEST PUSH1 0x40 MLOAD DUP1 SWAP2 SUB SWAP1 REVERT JUMPDEST PUSH2 0x2415 PUSH2 0x270D JUMP JUMPDEST PUSH0 PUSH1 0x1 PUSH0 DUP7 DUP2 MSTORE PUSH1 0x20 ADD SWAP1 DUP2 MSTORE PUSH1 0x20 ADD PUSH0 KECCAK256 SWAP1 POP PUSH1 0x5 SLOAD DUP2 PUSH1 0x4 ADD SLOAD LT ISZERO PUSH2 0x2472 JUMPI PUSH1 0x40 MLOAD PUSH32 0x8C379A000000000000000000000000000000000000000000000000000000000 DUP2 MSTORE PUSH1 0x4 ADD PUSH2 0x2469 SWAP1 PUSH2 0x3979 JUMP JUMPDEST PUSH1 0x40 MLOAD DUP1 SWAP2 SUB SWAP1 REVERT JUMPDEST PUSH1 0x1 DUP2 PUSH1 0x3 ADD PUSH0 PUSH2 0x100 EXP DUP2 SLOAD DUP2 PUSH1 0xFF MUL NOT AND SWAP1 DUP4 ISZERO ISZERO MUL OR SWAP1 SSTORE POP PUSH0 PUSH0 PUSH20 0xFFFFFFFFFFFFFFFFFFFFFFFFFFFFFFFFFFFFFFFF AND DUP3 PUSH1 0x6 ADD PUSH0 SWAP1 SLOAD SWAP1 PUSH2 0x100 EXP SWAP1 DIV PUSH20 0xFFFFFFFFFFFFFFFFFFFFFFFFFFFFFFFFFFFFFFFF AND PUSH20 0xFFFFFFFFFFFFFFFFFFFFFFFFFFFFFFFFFFFFFFFF AND SUB PUSH2 0x257E JUMPI DUP2 PUSH0 ADD PUSH0 SWAP1 SLOAD SWAP1 PUSH2 0x100 EXP SWAP1 DIV PUSH20 0xFFFFFFFFFFFFFFFFFFFFFFFFFFFFFFFFFFFFFFFF AND PUSH20 0xFFFFFFFFFFFFFFFFFFFFFFFFFFFFFFFFFFFFFFFF AND DUP3 PUSH1 0x1 ADD SLOAD DUP4 PUSH1 0x2 ADD PUSH1 0x40 MLOAD PUSH2 0x2534 SWAP2 SWAP1 PUSH2 0x3A21 JUMP JUMPDEST PUSH0 PUSH1 0x40 MLOAD DUP1 DUP4 SUB DUP2 DUP6 DUP8 GAS CALL SWAP3 POP POP POP RETURNDATASIZE DUP1 PUSH0 DUP2 EQ PUSH2 0x256E JUMPI PUSH1 0x40 MLOAD SWAP2 POP PUSH1 0x1F NOT PUSH1 0x3F RETURNDATASIZE ADD AND DUP3 ADD PUSH1 0x40 MSTORE RETURNDATASIZE DUP3 MSTORE RETURNDATASIZE PUSH0 PUSH1 0x20 DUP5 ADD RETURNDATACOPY PUSH2 0x2573 JUMP JUMPDEST PUSH1 0x60 SWAP2 POP JUMPDEST POP POP DUP1 SWAP2 POP POP PUSH2 0x25F7 JUMP JUMPDEST PUSH2 0x25F2 DUP3 PUSH0 ADD PUSH0 SWAP1 SLOAD SWAP1 PUSH2 0x100 EXP SWAP1 DIV PUSH20 0xFFFFFFFFFFFFFFFFFFFFFFFFFFFFFFFFFFFFFFFF AND DUP4 PUSH1 0x1 ADD SLOAD DUP5 PUSH1 0x6 ADD PUSH0 SWAP1 SLOAD SWAP1 PUSH2 0x100 EXP SWAP1 DIV PUSH20 0xFFFFFFFFFFFFFFFFFFFFFFFFFFFFFFFFFFFFFFFF AND PUSH20 0xFFFFFFFFFFFFFFFFFFFFFFFFFFFFFFFFFFFFFFFF AND PUSH2 0x275A SWAP1 SWAP3 SWAP2 SWAP1 PUSH4 0xFFFFFFFF AND JUMP JUMPDEST PUSH1 0x1 SWAP1 POP JUMPDEST DUP1 PUSH2 0x2637 JUMPI PUSH1 0x40 MLOAD PUSH32 0x8C379A000000000000000000000000000000000000000000000000000000000 DUP2 MSTORE PUSH1 0x4 ADD PUSH2 0x262E SWAP1 PUSH2 0x3A81 JUMP JUMPDEST PUSH1 0x40 MLOAD DUP1 SWAP2 SUB SWAP1 REVERT JUMPDEST DUP6 CALLER PUSH20 0xFFFFFFFFFFFFFFFFFFFFFFFFFFFFFFFFFFFFFFFF AND PUSH32 0x5445F318F4F5FCFB66592E68E0CC5822AA15664039BD5F0FFDE24C5A8142B1AC PUSH1 0x40 MLOAD PUSH1 0x40 MLOAD DUP1 SWAP2 SUB SWAP1 LOG3 POP POP PUSH2 0x2685 PUSH2 0x27D9 JUMP JUMPDEST POP POP POP POP JUMP JUMPDEST PUSH2 0x2707 DUP5 DUP6 PUSH20 0xFFFFFFFFFFFFFFFFFFFFFFFFFFFFFFFFFFFFFFFF AND PUSH4 0x23B872DD DUP7 DUP7 DUP7 PUSH1 0x40 MLOAD PUSH1 0x24 ADD PUSH2 0x26C0 SWAP4 SWAP3 SWAP2 SWAP1 PUSH2 0x3A9F JUMP JUMPDEST PUSH1 0x40 MLOAD PUSH1 0x20 DUP2 DUP4 SUB SUB DUP2 MSTORE SWAP1 PUSH1 0x40 MSTORE SWAP2 POP PUSH1 0xE0 SHL PUSH1 0x20 DUP3 ADD DUP1 MLOAD PUSH28 0xFFFFFFFFFFFFFFFFFFFFFFFFFFFFFFFFFFFFFFFFFFFFFFFFFFFFFFFF DUP4 DUP2 DUP4 AND OR DUP4 MSTORE POP POP POP POP PUSH2 0x27E2 JUMP JUMPDEST POP POP POP POP JUMP JUMPDEST PUSH1 0x2 PUSH0 SLOAD SUB PUSH2 0x2751 JUMPI PUSH1 0x40 MLOAD PUSH32 0x8C379A000000000000000000000000000000000000000000000000000000000 DUP2 MSTORE PUSH1 0x4 ADD PUSH2 0x2748 SWAP1 PUSH2 0x3B1E JUMP JUMPDEST PUSH1 0x40 MLOAD DUP1 SWAP2 SUB SWAP1 REVERT JUMPDEST PUSH1 0x2 PUSH0 DUP2 SWAP1 SSTORE POP JUMP JUMPDEST PUSH2 0x27D4 DUP4 DUP5 PUSH20 0xFFFFFFFFFFFFFFFFFFFFFFFFFFFFFFFFFFFFFFFF AND PUSH4 0xA9059CBB DUP6 DUP6 PUSH1 0x40 MLOAD PUSH1 0x24 ADD PUSH2 0x278D SWAP3 SWAP2 SWAP1 PUSH2 0x3B3C JUMP JUMPDEST PUSH1 0x40 MLOAD PUSH1 0x20 DUP2 DUP4 SUB SUB DUP2 MSTORE SWAP1 PUSH1 0x40 MSTORE SWAP2 POP PUSH1 0xE0 SHL PUSH1 0x20 DUP3 ADD DUP1 MLOAD PUSH28 0xFFFFFFFFFFFFFFFFFFFFFFFFFFFFFFFFFFFFFFFFFFFFFFFFFFFFFFFF DUP4 DUP2 DUP4 AND OR DUP4 MSTORE POP POP POP POP PUSH2 0x27E2 JUMP JUMPDEST POP POP POP JUMP JUMPDEST PUSH1 0x1 PUSH0 DUP2 SWAP1 SSTORE POP JUMP JUMPDEST PUSH0 PUSH0 PUSH1 0x20 PUSH0 DUP5 MLOAD PUSH1 0x20 DUP7 ADD PUSH0 DUP9 GAS CALL DUP1 PUSH2 0x2801 JUMPI PUSH1 0x40 MLOAD RETURNDATASIZE PUSH0 DUP3 RETURNDATACOPY RETURNDATASIZE DUP2 REVERT JUMPDEST RETURNDATASIZE SWAP3 POP PUSH0 MLOAD SWAP2 POP POP PUSH0 DUP3 EQ PUSH2 0x281A JUMPI PUSH1 0x1 DUP2 EQ ISZERO PUSH2 0x2835 JUMP JUMPDEST PUSH0 DUP5 PUSH20 0xFFFFFFFFFFFFFFFFFFFFFFFFFFFFFFFFFFFFFFFF AND EXTCODESIZE EQ JUMPDEST ISZERO PUSH2 0x2877 JUMPI DUP4 PUSH1 0x40 MLOAD PUSH32 0x5274AFE700000000000000000000000000000000000000000000000000000000 DUP2 MSTORE PUSH1 0x4 ADD PUSH2 0x286E SWAP2 SWAP1 PUSH2 0x2961 JUMP JUMPDEST PUSH1 0x40 MLOAD DUP1 SWAP2 SUB SWAP1 REVERT JUMPDEST POP POP POP POP JUMP JUMPDEST PUSH0 DUP2 SWAP1 POP SWAP2 SWAP1 POP JUMP JUMPDEST PUSH2 0x288F DUP2 PUSH2 0x287D JUMP JUMPDEST DUP3 MSTORE POP POP JUMP JUMPDEST PUSH0 PUSH1 0x40 DUP3 ADD SWAP1 POP PUSH2 0x28A8 PUSH0 DUP4 ADD DUP6 PUSH2 0x2886 JUMP JUMPDEST PUSH2 0x28B5 PUSH1 0x20 DUP4 ADD DUP5 PUSH2 0x2886 JUMP JUMPDEST SWAP4 SWAP3 POP POP POP JUMP JUMPDEST PUSH0 PUSH1 0x40 MLOAD SWAP1 POP SWAP1 JUMP JUMPDEST PUSH0 PUSH0 REVERT JUMPDEST PUSH0 PUSH0 REVERT JUMPDEST PUSH2 0x28D6 DUP2 PUSH2 0x287D JUMP JUMPDEST DUP2 EQ PUSH2 0x28E0 JUMPI PUSH0 PUSH0 REVERT JUMPDEST POP JUMP JUMPDEST PUSH0 DUP2 CALLDATALOAD SWAP1 POP PUSH2 0x28F1 DUP2 PUSH2 0x28CD JUMP JUMPDEST SWAP3 SWAP2 POP POP JUMP JUMPDEST PUSH0 PUSH1 0x20 DUP3 DUP5 SUB SLT ISZERO PUSH2 0x290C JUMPI PUSH2 0x290B PUSH2 0x28C5 JUMP JUMPDEST JUMPDEST PUSH0 PUSH2 0x2919 DUP5 DUP3 DUP6 ADD PUSH2 0x28E3 JUMP JUMPDEST SWAP2 POP POP SWAP3 SWAP2 POP POP JUMP JUMPDEST PUSH0 PUSH20 0xFFFFFFFFFFFFFFFFFFFFFFFFFFFFFFFFFFFFFFFF DUP3 AND SWAP1 POP SWAP2 SWAP1 POP JUMP JUMPDEST PUSH0 PUSH2 0x294B DUP3 PUSH2 0x2922 JUMP JUMPDEST SWAP1 POP SWAP2 SWAP1 POP JUMP JUMPDEST PUSH2 0x295B DUP2 PUSH2 0x2941 JUMP JUMPDEST DUP3 MSTORE POP POP JUMP JUMPDEST PUSH0 PUSH1 0x20 DUP3 ADD SWAP1 POP PUSH2 0x2974 PUSH0 DUP4 ADD DUP5 PUSH2 0x2952 JUMP JUMPDEST SWAP3 SWAP2 POP POP JUMP JUMPDEST PUSH0 PUSH1 0x20 DUP3 ADD SWAP1 POP PUSH2 0x298D PUSH0 DUP4 ADD DUP5 PUSH2 0x2886 JUMP JUMPDEST SWAP3 SWAP2 POP POP JUMP JUMPDEST PUSH2 0x299C DUP2 PUSH2 0x2941 JUMP JUMPDEST DUP2 EQ PUSH2 0x29A6 JUMPI PUSH0 PUSH0 REVERT JUMPDEST POP JUMP JUMPDEST PUSH0 DUP2 CALLDATALOAD SWAP1 POP PUSH2 0x29B7 DUP2 PUSH2 0x2993 JUMP JUMPDEST SWAP3 SWAP2 POP POP JUMP JUMPDEST PUSH0 PUSH1 0x20 DUP3 DUP5 SUB SLT ISZERO PUSH2 0x29D2 JUMPI PUSH2 0x29D1 PUSH2 0x28C5 JUMP JUMPDEST JUMPDEST PUSH0 PUSH2 0x29DF DUP5 DUP3 DUP6 ADD PUSH2 0x29A9 JUMP JUMPDEST SWAP2 POP POP SWAP3 SWAP2 POP POP JUMP JUMPDEST PUSH0 DUP2 ISZERO ISZERO SWAP1 POP SWAP2 SWAP1 POP JUMP JUMPDEST PUSH2 0x29FC DUP2 PUSH2 0x29E8 JUMP JUMPDEST DUP3 MSTORE POP POP JUMP JUMPDEST PUSH0 PUSH1 0x20 DUP3 ADD SWAP1 POP PUSH2 0x2A15 PUSH0 DUP4 ADD DUP5 PUSH2 0x29F3 JUMP JUMPDEST SWAP3 SWAP2 POP POP JUMP JUMPDEST PUSH0 PUSH0 PUSH1 0x40 DUP4 DUP6 SUB SLT ISZERO PUSH2 0x2A31 JUMPI PUSH2 0x2A30 PUSH2 0x28C5 JUMP JUMPDEST JUMPDEST PUSH0 PUSH2 0x2A3E DUP6 DUP3 DUP7 ADD PUSH2 0x29A9 JUMP JUMPDEST SWAP3 POP POP PUSH1 0x20 PUSH2 0x2A4F DUP6 DUP3 DUP7 ADD PUSH2 0x28E3 JUMP JUMPDEST SWAP2 POP POP SWAP3 POP SWAP3 SWAP1 POP JUMP JUMPDEST PUSH0 DUP2 MLOAD SWAP1 POP SWAP2 SWAP1 POP JUMP JUMPDEST PUSH0 DUP3 DUP3 MSTORE PUSH1 0x20 DUP3 ADD SWAP1 POP SWAP3 SWAP2 POP POP JUMP JUMPDEST DUP3 DUP2 DUP4 MCOPY PUSH0 DUP4 DUP4 ADD MSTORE POP POP POP JUMP JUMPDEST PUSH0 PUSH1 0x1F NOT PUSH1 0x1F DUP4 ADD AND SWAP1 POP SWAP2 SWAP1 POP JUMP JUMPDEST PUSH0 PUSH2 0x2A9B DUP3 PUSH2 0x2A59 JUMP JUMPDEST PUSH2 0x2AA5 DUP2 DUP6 PUSH2 0x2A63 JUMP JUMPDEST SWAP4 POP PUSH2 0x2AB5 DUP2 DUP6 PUSH1 0x20 DUP7 ADD PUSH2 0x2A73 JUMP JUMPDEST PUSH2 0x2ABE DUP2 PUSH2 0x2A81 JUMP JUMPDEST DUP5 ADD SWAP2 POP POP SWAP3 SWAP2 POP POP JUMP JUMPDEST PUSH0 PUSH1 0xE0 DUP3 ADD SWAP1 POP PUSH2 0x2ADC PUSH0 DUP4 ADD DUP11 PUSH2 0x2952 JUMP JUMPDEST PUSH2 0x2AE9 PUSH1 0x20 DUP4 ADD DUP10 PUSH2 0x2886 JUMP JUMPDEST DUP2 DUP2 SUB PUSH1 0x40 DUP4 ADD MSTORE PUSH2 0x2AFB DUP2 DUP9 PUSH2 0x2A91 JUMP JUMPDEST SWAP1 POP PUSH2 0x2B0A PUSH1 0x60 DUP4 ADD DUP8 PUSH2 0x29F3 JUMP JUMPDEST PUSH2 0x2B17 PUSH1 0x80 DUP4 ADD DUP7 PUSH2 0x2886 JUMP JUMPDEST PUSH2 0x2B24 PUSH1 0xA0 DUP4 ADD DUP6 PUSH2 0x2886 JUMP JUMPDEST PUSH2 0x2B31 PUSH1 0xC0 DUP4 ADD DUP5 PUSH2 0x2952 JUMP JUMPDEST SWAP9 SWAP8 POP POP POP POP POP POP POP POP JUMP JUMPDEST PUSH2 0x2B46 DUP2 PUSH2 0x29E8 JUMP JUMPDEST DUP2 EQ PUSH2 0x2B50 JUMPI PUSH0 PUSH0 REVERT JUMPDEST POP JUMP JUMPDEST PUSH0 DUP2 CALLDATALOAD SWAP1 POP PUSH2 0x2B61 DUP2 PUSH2 0x2B3D JUMP JUMPDEST SWAP3 SWAP2 POP POP JUMP JUMPDEST PUSH0 PUSH0 PUSH1 0x40 DUP4 DUP6 SUB SLT ISZERO PUSH2 0x2B7D JUMPI PUSH2 0x2B7C PUSH2 0x28C5 JUMP JUMPDEST JUMPDEST PUSH0 PUSH2 0x2B8A DUP6 DUP3 DUP7 ADD PUSH2 0x2B53 JUMP JUMPDEST SWAP3 POP POP PUSH1 0x20 PUSH2 0x2B9B DUP6 DUP3 DUP7 ADD PUSH2 0x2B53 JUMP JUMPDEST SWAP2 POP POP SWAP3 POP SWAP3 SWAP1 POP JUMP JUMPDEST PUSH0 PUSH0 REVERT JUMPDEST PUSH0 PUSH0 REVERT JUMPDEST PUSH32 0x4E487B7100000000000000000000000000000000000000000000000000000000 PUSH0 MSTORE PUSH1 0x41 PUSH1 0x4 MSTORE PUSH1 0x24 PUSH0 REVERT JUMPDEST PUSH2 0x2BE3 DUP3 PUSH2 0x2A81 JUMP JUMPDEST DUP2 ADD DUP2 DUP2 LT PUSH8 0xFFFFFFFFFFFFFFFF DUP3 GT OR ISZERO PUSH2 0x2C02 JUMPI PUSH2 0x2C01 PUSH2 0x2BAD JUMP JUMPDEST JUMPDEST DUP1 PUSH1 0x40 MSTORE POP POP POP JUMP JUMPDEST PUSH0 PUSH2 0x2C14 PUSH2 0x28BC JUMP JUMPDEST SWAP1 POP PUSH2 0x2C20 DUP3 DUP3 PUSH2 0x2BDA JUMP JUMPDEST SWAP2 SWAP1 POP JUMP JUMPDEST PUSH0 PUSH8 0xFFFFFFFFFFFFFFFF DUP3 GT ISZERO PUSH2 0x2C3F JUMPI PUSH2 0x2C3E PUSH2 0x2BAD JUMP JUMPDEST JUMPDEST PUSH2 0x2C48 DUP3 PUSH2 0x2A81 JUMP JUMPDEST SWAP1 POP PUSH1 0x20 DUP2 ADD SWAP1 POP SWAP2 SWAP1 POP JUMP JUMPDEST DUP3 DUP2 DUP4 CALLDATACOPY PUSH0 DUP4 DUP4 ADD MSTORE POP POP POP JUMP JUMPDEST PUSH0 PUSH2 0x2C75 PUSH2 0x2C70 DUP5 PUSH2 0x2C25 JUMP JUMPDEST PUSH2 0x2C0B JUMP JUMPDEST SWAP1 POP DUP3 DUP2 MSTORE PUSH1 0x20 DUP2 ADD DUP5 DUP5 DUP5 ADD GT ISZERO PUSH2 0x2C91 JUMPI PUSH2 0x2C90 PUSH2 0x2BA9 JUMP JUMPDEST JUMPDEST PUSH2 0x2C9C DUP5 DUP3 DUP6 PUSH2 0x2C55 JUMP JUMPDEST POP SWAP4 SWAP3 POP POP POP JUMP JUMPDEST PUSH0 DUP3 PUSH1 0x1F DUP4 ADD SLT PUSH2 0x2CB8 JUMPI PUSH2 0x2CB7 PUSH2 0x2BA5 JUMP JUMPDEST JUMPDEST DUP2 CALLDATALOAD PUSH2 0x2CC8 DUP5 DUP3 PUSH1 0x20 DUP7 ADD PUSH2 0x2C63 JUMP JUMPDEST SWAP2 POP POP SWAP3 SWAP2 POP POP JUMP JUMPDEST PUSH0 PUSH0 PUSH0 PUSH0 PUSH1 0x80 DUP6 DUP8 SUB SLT ISZERO PUSH2 0x2CE9 JUMPI PUSH2 0x2CE8 PUSH2 0x28C5 JUMP JUMPDEST JUMPDEST PUSH0 PUSH2 0x2CF6 DUP8 DUP3 DUP9 ADD PUSH2 0x29A9 JUMP JUMPDEST SWAP5 POP POP PUSH1 0x20 PUSH2 0x2D07 DUP8 DUP3 DUP9 ADD PUSH2 0x28E3 JUMP JUMPDEST SWAP4 POP POP PUSH1 0x40 DUP6 ADD CALLDATALOAD PUSH8 0xFFFFFFFFFFFFFFFF DUP2 GT ISZERO PUSH2 0x2D28 JUMPI PUSH2 0x2D27 PUSH2 0x28C9 JUMP JUMPDEST JUMPDEST PUSH2 0x2D34 DUP8 DUP3 DUP9 ADD PUSH2 0x2CA4 JUMP JUMPDEST SWAP3 POP POP PUSH1 0x60 PUSH2 0x2D45 DUP8 DUP3 DUP9 ADD PUSH2 0x29A9 JUMP JUMPDEST SWAP2 POP POP SWAP3 SWAP6 SWAP2 SWAP5 POP SWAP3 POP JUMP JUMPDEST PUSH0 PUSH0 PUSH1 0x40 DUP4 DUP6 SUB SLT ISZERO PUSH2 0x2D67 JUMPI PUSH2 0x2D66 PUSH2 0x28C5 JUMP JUMPDEST JUMPDEST PUSH0 PUSH2 0x2D74 DUP6 DUP3 DUP7 ADD PUSH2 0x28E3 JUMP JUMPDEST SWAP3 POP POP PUSH1 0x20 PUSH2 0x2D85 DUP6 DUP3 DUP7 ADD PUSH2 0x29A9 JUMP JUMPDEST SWAP2 POP POP SWAP3 POP SWAP3 SWAP1 POP JUMP JUMPDEST PUSH0 DUP2 MLOAD SWAP1 POP SWAP2 SWAP1 POP JUMP JUMPDEST PUSH0 DUP3 DUP3 MSTORE PUSH1 0x20 DUP3 ADD SWAP1 POP SWAP3 SWAP2 POP POP JUMP JUMPDEST PUSH0 DUP2 SWAP1 POP PUSH1 0x20 DUP3 ADD SWAP1 POP SWAP2 SWAP1 POP JUMP JUMPDEST PUSH2 0x2DC1 DUP2 PUSH2 0x2941 JUMP JUMPDEST DUP3 MSTORE POP POP JUMP JUMPDEST PUSH0 PUSH2 0x2DD2 DUP4 DUP4 PUSH2 0x2DB8 JUMP JUMPDEST PUSH1 0x20 DUP4 ADD SWAP1 POP SWAP3 SWAP2 POP POP JUMP JUMPDEST PUSH0 PUSH1 0x20 DUP3 ADD SWAP1 POP SWAP2 SWAP1 POP JUMP JUMPDEST PUSH0 PUSH2 0x2DF4 DUP3 PUSH2 0x2D8F JUMP JUMPDEST PUSH2 0x2DFE DUP2 DUP6 PUSH2 0x2D99 JUMP JUMPDEST SWAP4 POP PUSH2 0x2E09 DUP4 PUSH2 0x2DA9 JUMP JUMPDEST DUP1 PUSH0 JUMPDEST DUP4 DUP2 LT ISZERO PUSH2 0x2E39 JUMPI DUP2 MLOAD PUSH2 0x2E20 DUP9 DUP3 PUSH2 0x2DC7 JUMP JUMPDEST SWAP8 POP PUSH2 0x2E2B DUP4 PUSH2 0x2DDE JUMP JUMPDEST SWAP3 POP POP PUSH1 0x1 DUP2 ADD SWAP1 POP PUSH2 0x2E0C JUMP JUMPDEST POP DUP6 SWAP4 POP POP POP POP SWAP3 SWAP2 POP POP JUMP JUMPDEST PUSH0 PUSH1 0x20 DUP3 ADD SWAP1 POP DUP2 DUP2 SUB PUSH0 DUP4 ADD MSTORE PUSH2 0x2E5E DUP2 DUP5 PUSH2 0x2DEA JUMP JUMPDEST SWAP1 POP SWAP3 SWAP2 POP POP JUMP JUMPDEST PUSH0 PUSH0 PUSH0 PUSH0 PUSH1 0x80 DUP6 DUP8 SUB SLT ISZERO PUSH2 0x2E7E JUMPI PUSH2 0x2E7D PUSH2 0x28C5 JUMP JUMPDEST JUMPDEST PUSH0 PUSH2 0x2E8B DUP8 DUP3 DUP9 ADD PUSH2 0x28E3 JUMP JUMPDEST SWAP5 POP POP PUSH1 0x20 PUSH2 0x2E9C DUP8 DUP3 DUP9 ADD PUSH2 0x28E3 JUMP JUMPDEST SWAP4 POP POP PUSH1 0x40 PUSH2 0x2EAD DUP8 DUP3 DUP9 ADD PUSH2 0x2B53 JUMP JUMPDEST SWAP3 POP POP PUSH1 0x60 PUSH2 0x2EBE DUP8 DUP3 DUP9 ADD PUSH2 0x2B53 JUMP JUMPDEST SWAP2 POP POP SWAP3 SWAP6 SWAP2 SWAP5 POP SWAP3 POP JUMP JUMPDEST PUSH0 DUP2 MLOAD SWAP1 POP SWAP2 SWAP1 POP JUMP JUMPDEST PUSH0 DUP3 DUP3 MSTORE PUSH1 0x20 DUP3 ADD SWAP1 POP SWAP3 SWAP2 POP POP JUMP JUMPDEST PUSH0 DUP2 SWAP1 POP PUSH1 0x20 DUP3 ADD SWAP1 POP SWAP2 SWAP1 POP JUMP JUMPDEST PUSH2 0x2EFC DUP2 PUSH2 0x287D JUMP JUMPDEST DUP3 MSTORE POP POP JUMP JUMPDEST PUSH0 PUSH2 0x2F0D DUP4 DUP4 PUSH2 0x2EF3 JUMP JUMPDEST PUSH1 0x20 DUP4 ADD SWAP1 POP SWAP3 SWAP2 POP POP JUMP JUMPDEST PUSH0 PUSH1 0x20 DUP3 ADD SWAP1 POP SWAP2 SWAP1 POP JUMP JUMPDEST PUSH0 PUSH2 0x2F2F DUP3 PUSH2 0x2ECA JUMP JUMPDEST PUSH2 0x2F39 DUP2 DUP6 PUSH2 0x2ED4 JUMP JUMPDEST SWAP4 POP PUSH2 0x2F44 DUP4 PUSH2 0x2EE4 JUMP JUMPDEST DUP1 PUSH0 JUMPDEST DUP4 DUP2 LT ISZERO PUSH2 0x2F74 JUMPI DUP2 MLOAD PUSH2 0x2F5B DUP9 DUP3 PUSH2 0x2F02 JUMP JUMPDEST SWAP8 POP PUSH2 0x2F66 DUP4 PUSH2 0x2F19 JUMP JUMPDEST SWAP3 POP POP PUSH1 0x1 DUP2 ADD SWAP1 POP PUSH2 0x2F47 JUMP JUMPDEST POP DUP6 SWAP4 POP POP POP POP SWAP3 SWAP2 POP POP JUMP JUMPDEST PUSH0 PUSH1 0x20 DUP3 ADD SWAP1 POP DUP2 DUP2 SUB PUSH0 DUP4 ADD MSTORE PUSH2 0x2F99 DUP2 DUP5 PUSH2 0x2F25 JUMP JUMPDEST SWAP1 POP SWAP3 SWAP2 POP POP JUMP JUMPDEST PUSH0 PUSH0 PUSH1 0x40 DUP4 DUP6 SUB SLT ISZERO PUSH2 0x2FB7 JUMPI PUSH2 0x2FB6 PUSH2 0x28C5 JUMP JUMPDEST JUMPDEST PUSH0 PUSH2 0x2FC4 DUP6 DUP3 DUP7 ADD PUSH2 0x29A9 JUMP JUMPDEST SWAP3 POP POP PUSH1 0x20 PUSH2 0x2FD5 DUP6 DUP3 DUP7 ADD PUSH2 0x29A9 JUMP JUMPDEST SWAP2 POP POP SWAP3 POP SWAP3 SWAP1 POP JUMP JUMPDEST PUSH0 DUP3 DUP3 MSTORE PUSH1 0x20 DUP3 ADD SWAP1 POP SWAP3 SWAP2 POP POP JUMP JUMPDEST PUSH32 0x4F6E6C792077616C6C65742063616E2063616C6C20746869732066756E637469 PUSH0 DUP3 ADD MSTORE PUSH32 0x6F6E000000000000000000000000000000000000000000000000000000000000 PUSH1 0x20 DUP3 ADD MSTORE POP JUMP JUMPDEST PUSH0 PUSH2 0x3049 PUSH1 0x22 DUP4 PUSH2 0x2FDF JUMP JUMPDEST SWAP2 POP PUSH2 0x3054 DUP3 PUSH2 0x2FEF JUMP JUMPDEST PUSH1 0x40 DUP3 ADD SWAP1 POP SWAP2 SWAP1 POP JUMP JUMPDEST PUSH0 PUSH1 0x20 DUP3 ADD SWAP1 POP DUP2 DUP2 SUB PUSH0 DUP4 ADD MSTORE PUSH2 0x3076 DUP2 PUSH2 0x303D JUMP JUMPDEST SWAP1 POP SWAP2 SWAP1 POP JUMP JUMPDEST PUSH32 0x4F776E657220646F6573206E6F74206578697374000000000000000000000000 PUSH0 DUP3 ADD MSTORE POP JUMP JUMPDEST PUSH0 PUSH2 0x30B1 PUSH1 0x14 DUP4 PUSH2 0x2FDF JUMP JUMPDEST SWAP2 POP PUSH2 0x30BC DUP3 PUSH2 0x307D JUMP JUMPDEST PUSH1 0x20 DUP3 ADD SWAP1 POP SWAP2 SWAP1 POP JUMP JUMPDEST PUSH0 PUSH1 0x20 DUP3 ADD SWAP1 POP DUP2 DUP2 SUB PUSH0 DUP4 ADD MSTORE PUSH2 0x30DE DUP2 PUSH2 0x30A5 JUMP JUMPDEST SWAP1 POP SWAP2 SWAP1 POP JUMP JUMPDEST PUSH32 0x4E487B7100000000000000000000000000000000000000000000000000000000 PUSH0 MSTORE PUSH1 0x11 PUSH1 0x4 MSTORE PUSH1 0x24 PUSH0 REVERT JUMPDEST PUSH0 PUSH2 0x311C DUP3 PUSH2 0x287D JUMP JUMPDEST SWAP2 POP PUSH2 0x3127 DUP4 PUSH2 0x287D JUMP JUMPDEST SWAP3 POP DUP3 DUP3 SUB SWAP1 POP DUP2 DUP2 GT ISZERO PUSH2 0x313F JUMPI PUSH2 0x313E PUSH2 0x30E5 JUMP JUMPDEST JUMPDEST SWAP3 SWAP2 POP POP JUMP JUMPDEST PUSH32 0x4E487B7100000000000000000000000000000000000000000000000000000000 PUSH0 MSTORE PUSH1 0x32 PUSH1 0x4 MSTORE PUSH1 0x24 PUSH0 REVERT JUMPDEST PUSH32 0x4E487B7100000000000000000000000000000000000000000000000000000000 PUSH0 MSTORE PUSH1 0x31 PUSH1 0x4 MSTORE PUSH1 0x24 PUSH0 REVERT JUMPDEST PUSH32 0x5472616E73616374696F6E20646F6573206E6F74206578697374000000000000 PUSH0 DUP3 ADD MSTORE POP JUMP JUMPDEST PUSH0 PUSH2 0x31D3 PUSH1 0x1A DUP4 PUSH2 0x2FDF JUMP JUMPDEST SWAP2 POP PUSH2 0x31DE DUP3 PUSH2 0x319F JUMP JUMPDEST PUSH1 0x20 DUP3 ADD SWAP1 POP SWAP2 SWAP1 POP JUMP JUMPDEST PUSH0 PUSH1 0x20 DUP3 ADD SWAP1 POP DUP2 DUP2 SUB PUSH0 DUP4 ADD MSTORE PUSH2 0x3200 DUP2 PUSH2 0x31C7 JUMP JUMPDEST SWAP1 POP SWAP2 SWAP1 POP JUMP JUMPDEST PUSH32 0x5472616E73616374696F6E20616C726561647920657865637574656400000000 PUSH0 DUP3 ADD MSTORE POP JUMP JUMPDEST PUSH0 PUSH2 0x323B PUSH1 0x1C DUP4 PUSH2 0x2FDF JUMP JUMPDEST SWAP2 POP PUSH2 0x3246 DUP3 PUSH2 0x3207 JUMP JUMPDEST PUSH1 0x20 DUP3 ADD SWAP1 POP SWAP2 SWAP1 POP JUMP JUMPDEST PUSH0 PUSH1 0x20 DUP3 ADD SWAP1 POP DUP2 DUP2 SUB PUSH0 DUP4 ADD MSTORE PUSH2 0x3268 DUP2 PUSH2 0x322F JUMP JUMPDEST SWAP1 POP SWAP2 SWAP1 POP JUMP JUMPDEST PUSH32 0x5472616E73616374696F6E206E6F7420636F6E6669726D656400000000000000 PUSH0 DUP3 ADD MSTORE POP JUMP JUMPDEST PUSH0 PUSH2 0x32A3 PUSH1 0x19 DUP4 PUSH2 0x2FDF JUMP JUMPDEST SWAP2 POP PUSH2 0x32AE DUP3 PUSH2 0x326F JUMP JUMPDEST PUSH1 0x20 DUP3 ADD SWAP1 POP SWAP2 SWAP1 POP JUMP JUMPDEST PUSH0 PUSH1 0x20 DUP3 ADD SWAP1 POP DUP2 DUP2 SUB PUSH0 DUP4 ADD MSTORE PUSH2 0x32D0 DUP2 PUSH2 0x3297 JUMP JUMPDEST SWAP1 POP SWAP2 SWAP1 POP JUMP JUMPDEST PUSH0 PUSH2 0x32E1 DUP3 PUSH2 0x287D JUMP JUMPDEST SWAP2 POP PUSH0 DUP3 SUB PUSH2 0x32F3 JUMPI PUSH2 0x32F2 PUSH2 0x30E5 JUMP JUMPDEST JUMPDEST PUSH1 0x1 DUP3 SUB SWAP1 POP SWAP2 SWAP1 POP JUMP JUMPDEST PUSH32 0x496E76616C696420746F6B656E20616464726573730000000000000000000000 PUSH0 DUP3 ADD MSTORE POP JUMP JUMPDEST PUSH0 PUSH2 0x3332 PUSH1 0x15 DUP4 PUSH2 0x2FDF JUMP JUMPDEST SWAP2 POP PUSH2 0x333D DUP3 PUSH2 0x32FE JUMP JUMPDEST PUSH1 0x20 DUP3 ADD SWAP1 POP SWAP2 SWAP1 POP JUMP JUMPDEST PUSH0 PUSH1 0x20 DUP3 ADD SWAP1 POP DUP2 DUP2 SUB PUSH0 DUP4 ADD MSTORE PUSH2 0x335F DUP2 PUSH2 0x3326 JUMP JUMPDEST SWAP1 POP SWAP2 SWAP1 POP JUMP JUMPDEST PUSH32 0x416D6F756E74206D7573742062652067726561746572207468616E2030000000 PUSH0 DUP3 ADD MSTORE POP JUMP JUMPDEST PUSH0 PUSH2 0x339A PUSH1 0x1D DUP4 PUSH2 0x2FDF JUMP JUMPDEST SWAP2 POP PUSH2 0x33A5 DUP3 PUSH2 0x3366 JUMP JUMPDEST PUSH1 0x20 DUP3 ADD SWAP1 POP SWAP2 SWAP1 POP JUMP JUMPDEST PUSH0 PUSH1 0x20 DUP3 ADD SWAP1 POP DUP2 DUP2 SUB PUSH0 DUP4 ADD MSTORE PUSH2 0x33C7 DUP2 PUSH2 0x338E JUMP JUMPDEST SWAP1 POP SWAP2 SWAP1 POP JUMP JUMPDEST PUSH32 0x4E487B7100000000000000000000000000000000000000000000000000000000 PUSH0 MSTORE PUSH1 0x22 PUSH1 0x4 MSTORE PUSH1 0x24 PUSH0 REVERT JUMPDEST PUSH0 PUSH1 0x2 DUP3 DIV SWAP1 POP PUSH1 0x1 DUP3 AND DUP1 PUSH2 0x3412 JUMPI PUSH1 0x7F DUP3 AND SWAP2 POP JUMPDEST PUSH1 0x20 DUP3 LT DUP2 SUB PUSH2 0x3425 JUMPI PUSH2 0x3424 PUSH2 0x33CE JUMP JUMPDEST JUMPDEST POP SWAP2 SWAP1 POP JUMP JUMPDEST PUSH0 DUP2 MLOAD SWAP1 POP PUSH2 0x3439 DUP2 PUSH2 0x28CD JUMP JUMPDEST SWAP3 SWAP2 POP POP JUMP JUMPDEST PUSH0 PUSH1 0x20 DUP3 DUP5 SUB SLT ISZERO PUSH2 0x3454 JUMPI PUSH2 0x3453 PUSH2 0x28C5 JUMP JUMPDEST JUMPDEST PUSH0 PUSH2 0x3461 DUP5 DUP3 DUP6 ADD PUSH2 0x342B JUMP JUMPDEST SWAP2 POP POP SWAP3 SWAP2 POP POP JUMP JUMPDEST PUSH0 PUSH2 0x3474 DUP3 PUSH2 0x287D JUMP JUMPDEST SWAP2 POP PUSH32 0xFFFFFFFFFFFFFFFFFFFFFFFFFFFFFFFFFFFFFFFFFFFFFFFFFFFFFFFFFFFFFFFF DUP3 SUB PUSH2 0x34A6 JUMPI PUSH2 0x34A5 PUSH2 0x30E5 JUMP JUMPDEST JUMPDEST PUSH1 0x1 DUP3 ADD SWAP1 POP SWAP2 SWAP1 POP JUMP JUMPDEST PUSH0 DUP2 SWAP1 POP DUP2 PUSH0 MSTORE PUSH1 0x20 PUSH0 KECCAK256 SWAP1 POP SWAP2 SWAP1 POP JUMP JUMPDEST PUSH0 PUSH1 0x20 PUSH1 0x1F DUP4 ADD DIV SWAP1 POP SWAP2 SWAP1 POP JUMP JUMPDEST PUSH0 DUP3 DUP3 SHL SWAP1 POP SWAP3 SWAP2 POP POP JUMP JUMPDEST PUSH0 PUSH1 0x8 DUP4 MUL PUSH2 0x350D PUSH32 0xFFFFFFFFFFFFFFFFFFFFFFFFFFFFFFFFFFFFFFFFFFFFFFFFFFFFFFFFFFFFFFFF DUP3 PUSH2 0x34D2 JUMP JUMPDEST PUSH2 0x3517 DUP7 DUP4 PUSH2 0x34D2 JUMP JUMPDEST SWAP6 POP DUP1 NOT DUP5 AND SWAP4 POP DUP1 DUP7 AND DUP5 OR SWAP3 POP POP POP SWAP4 SWAP3 POP POP POP JUMP JUMPDEST PUSH0 DUP2 SWAP1 POP SWAP2 SWAP1 POP JUMP JUMPDEST PUSH0 PUSH2 0x3552 PUSH2 0x354D PUSH2 0x3548 DUP5 PUSH2 0x287D JUMP JUMPDEST PUSH2 0x352F JUMP JUMPDEST PUSH2 0x287D JUMP JUMPDEST SWAP1 POP SWAP2 SWAP1 POP JUMP JUMPDEST PUSH0 DUP2 SWAP1 POP SWAP2 SWAP1 POP JUMP JUMPDEST PUSH2 0x356B DUP4 PUSH2 0x3538 JUMP JUMPDEST PUSH2 0x357F PUSH2 0x3577 DUP3 PUSH2 0x3559 JUMP JUMPDEST DUP5 DUP5 SLOAD PUSH2 0x34DE JUMP JUMPDEST DUP3 SSTORE POP POP POP POP JUMP JUMPDEST PUSH0 PUSH0 SWAP1 POP SWAP1 JUMP JUMPDEST PUSH2 0x3596 PUSH2 0x3587 JUMP JUMPDEST PUSH2 0x35A1 DUP2 DUP5 DUP5 PUSH2 0x3562 JUMP JUMPDEST POP POP POP JUMP JUMPDEST JUMPDEST DUP2 DUP2 LT ISZERO PUSH2 0x35C4 JUMPI PUSH2 0x35B9 PUSH0 DUP3 PUSH2 0x358E JUMP JUMPDEST PUSH1 0x1 DUP2 ADD SWAP1 POP PUSH2 0x35A7 JUMP JUMPDEST POP POP JUMP JUMPDEST PUSH1 0x1F DUP3 GT ISZERO PUSH2 0x3609 JUMPI PUSH2 0x35DA DUP2 PUSH2 0x34B1 JUMP JUMPDEST PUSH2 0x35E3 DUP5 PUSH2 0x34C3 JUMP JUMPDEST DUP2 ADD PUSH1 0x20 DUP6 LT ISZERO PUSH2 0x35F2 JUMPI DUP2 SWAP1 POP JUMPDEST PUSH2 0x3606 PUSH2 0x35FE DUP6 PUSH2 0x34C3 JUMP JUMPDEST DUP4 ADD DUP3 PUSH2 0x35A6 JUMP JUMPDEST POP POP JUMPDEST POP POP POP JUMP JUMPDEST PUSH0 DUP3 DUP3 SHR SWAP1 POP SWAP3 SWAP2 POP POP JUMP JUMPDEST PUSH0 PUSH2 0x3629 PUSH0 NOT DUP5 PUSH1 0x8 MUL PUSH2 0x360E JUMP JUMPDEST NOT DUP1 DUP4 AND SWAP2 POP POP SWAP3 SWAP2 POP POP JUMP JUMPDEST PUSH0 PUSH2 0x3641 DUP4 DUP4 PUSH2 0x361A JUMP JUMPDEST SWAP2 POP DUP3 PUSH1 0x2 MUL DUP3 OR SWAP1 POP SWAP3 SWAP2 POP POP JUMP JUMPDEST PUSH2 0x365A DUP3 PUSH2 0x2A59 JUMP JUMPDEST PUSH8 0xFFFFFFFFFFFFFFFF DUP2 GT ISZERO PUSH2 0x3673 JUMPI PUSH2 0x3672 PUSH2 0x2BAD JUMP JUMPDEST JUMPDEST PUSH2 0x367D DUP3 SLOAD PUSH2 0x33FB JUMP JUMPDEST PUSH2 0x3688 DUP3 DUP3 DUP6 PUSH2 0x35C8 JUMP JUMPDEST PUSH0 PUSH1 0x20 SWAP1 POP PUSH1 0x1F DUP4 GT PUSH1 0x1 DUP2 EQ PUSH2 0x36B9 JUMPI PUSH0 DUP5 ISZERO PUSH2 0x36A7 JUMPI DUP3 DUP8 ADD MLOAD SWAP1 POP JUMPDEST PUSH2 0x36B1 DUP6 DUP3 PUSH2 0x3636 JUMP JUMPDEST DUP7 SSTORE POP PUSH2 0x3718 JUMP JUMPDEST PUSH1 0x1F NOT DUP5 AND PUSH2 0x36C7 DUP7 PUSH2 0x34B1 JUMP JUMPDEST PUSH0 JUMPDEST DUP3 DUP2 LT ISZERO PUSH2 0x36EE JUMPI DUP5 DUP10 ADD MLOAD DUP3 SSTORE PUSH1 0x1 DUP3 ADD SWAP2 POP PUSH1 0x20 DUP6 ADD SWAP5 POP PUSH1 0x20 DUP2 ADD SWAP1 POP PUSH2 0x36C9 JUMP JUMPDEST DUP7 DUP4 LT ISZERO PUSH2 0x370B JUMPI DUP5 DUP10 ADD MLOAD PUSH2 0x3707 PUSH1 0x1F DUP10 AND DUP3 PUSH2 0x361A JUMP JUMPDEST DUP4 SSTORE POP JUMPDEST PUSH1 0x1 PUSH1 0x2 DUP9 MUL ADD DUP9 SSTORE POP POP POP JUMPDEST POP POP POP POP POP POP JUMP JUMPDEST PUSH0 PUSH1 0x60 DUP3 ADD SWAP1 POP PUSH2 0x3733 PUSH0 DUP4 ADD DUP7 PUSH2 0x2886 JUMP JUMPDEST DUP2 DUP2 SUB PUSH1 0x20 DUP4 ADD MSTORE PUSH2 0x3745 DUP2 DUP6 PUSH2 0x2A91 JUMP JUMPDEST SWAP1 POP PUSH2 0x3754 PUSH1 0x40 DUP4 ADD DUP5 PUSH2 0x2952 JUMP JUMPDEST SWAP5 SWAP4 POP POP POP POP JUMP JUMPDEST PUSH32 0x4F776E657220616C726561647920657869737473000000000000000000000000 PUSH0 DUP3 ADD MSTORE POP JUMP JUMPDEST PUSH0 PUSH2 0x3790 PUSH1 0x14 DUP4 PUSH2 0x2FDF JUMP JUMPDEST SWAP2 POP PUSH2 0x379B DUP3 PUSH2 0x375C JUMP JUMPDEST PUSH1 0x20 DUP3 ADD SWAP1 POP SWAP2 SWAP1 POP JUMP JUMPDEST PUSH0 PUSH1 0x20 DUP3 ADD SWAP1 POP DUP2 DUP2 SUB PUSH0 DUP4 ADD MSTORE PUSH2 0x37BD DUP2 PUSH2 0x3784 JUMP JUMPDEST SWAP1 POP SWAP2 SWAP1 POP JUMP JUMPDEST PUSH32 0x416464726573732063616E6E6F74206265206E756C6C00000000000000000000 PUSH0 DUP3 ADD MSTORE POP JUMP JUMPDEST PUSH0 PUSH2 0x37F8 PUSH1 0x16 DUP4 PUSH2 0x2FDF JUMP JUMPDEST SWAP2 POP PUSH2 0x3803 DUP3 PUSH2 0x37C4 JUMP JUMPDEST PUSH1 0x20 DUP3 ADD SWAP1 POP SWAP2 SWAP1 POP JUMP JUMPDEST PUSH0 PUSH1 0x20 DUP3 ADD SWAP1 POP DUP2 DUP2 SUB PUSH0 DUP4 ADD MSTORE PUSH2 0x3825 DUP2 PUSH2 0x37EC JUMP JUMPDEST SWAP1 POP SWAP2 SWAP1 POP JUMP JUMPDEST PUSH0 PUSH2 0x3836 DUP3 PUSH2 0x287D JUMP JUMPDEST SWAP2 POP PUSH2 0x3841 DUP4 PUSH2 0x287D JUMP JUMPDEST SWAP3 POP DUP3 DUP3 ADD SWAP1 POP DUP1 DUP3 GT ISZERO PUSH2 0x3859 JUMPI PUSH2 0x3858 PUSH2 0x30E5 JUMP JUMPDEST JUMPDEST SWAP3 SWAP2 POP POP JUMP JUMPDEST PUSH32 0x496E76616C696420726571756972656D656E7400000000000000000000000000 PUSH0 DUP3 ADD MSTORE POP JUMP JUMPDEST PUSH0 PUSH2 0x3893 PUSH1 0x13 DUP4 PUSH2 0x2FDF JUMP JUMPDEST SWAP2 POP PUSH2 0x389E DUP3 PUSH2 0x385F JUMP JUMPDEST PUSH1 0x20 DUP3 ADD SWAP1 POP SWAP2 SWAP1 POP JUMP JUMPDEST PUSH0 PUSH1 0x20 DUP3 ADD SWAP1 POP DUP2 DUP2 SUB PUSH0 DUP4 ADD MSTORE PUSH2 0x38C0 DUP2 PUSH2 0x3887 JUMP JUMPDEST SWAP1 POP SWAP2 SWAP1 POP JUMP JUMPDEST PUSH32 0x5472616E73616374696F6E20616C726561647920636F6E6669726D6564000000 PUSH0 DUP3 ADD MSTORE POP JUMP JUMPDEST PUSH0 PUSH2 0x38FB PUSH1 0x1D DUP4 PUSH2 0x2FDF JUMP JUMPDEST SWAP2 POP PUSH2 0x3906 DUP3 PUSH2 0x38C7 JUMP JUMPDEST PUSH1 0x20 DUP3 ADD SWAP1 POP SWAP2 SWAP1 POP JUMP JUMPDEST PUSH0 PUSH1 0x20 DUP3 ADD SWAP1 POP DUP2 DUP2 SUB PUSH0 DUP4 ADD MSTORE PUSH2 0x3928 DUP2 PUSH2 0x38EF JUMP JUMPDEST SWAP1 POP SWAP2 SWAP1 POP JUMP JUMPDEST PUSH32 0x43616E6E6F742065786563757465207472616E73616374696F6E000000000000 PUSH0 DUP3 ADD MSTORE POP JUMP JUMPDEST PUSH0 PUSH2 0x3963 PUSH1 0x1A DUP4 PUSH2 0x2FDF JUMP JUMPDEST SWAP2 POP PUSH2 0x396E DUP3 PUSH2 0x392F JUMP JUMPDEST PUSH1 0x20 DUP3 ADD SWAP1 POP SWAP2 SWAP1 POP JUMP JUMPDEST PUSH0 PUSH1 0x20 DUP3 ADD SWAP1 POP DUP2 DUP2 SUB PUSH0 DUP4 ADD MSTORE PUSH2 0x3990 DUP2 PUSH2 0x3957 JUMP JUMPDEST SWAP1 POP SWAP2 SWAP1 POP JUMP JUMPDEST PUSH0 DUP2 SWAP1 POP SWAP3 SWAP2 POP POP JUMP JUMPDEST PUSH0 DUP2 SLOAD PUSH2 0x39AD DUP2 PUSH2 0x33FB JUMP JUMPDEST PUSH2 0x39B7 DUP2 DUP7 PUSH2 0x3997 JUMP JUMPDEST SWAP5 POP PUSH1 0x1 DUP3 AND PUSH0 DUP2 EQ PUSH2 0x39D1 JUMPI PUSH1 0x1 DUP2 EQ PUSH2 0x39E6 JUMPI PUSH2 0x3A18 JUMP JUMPDEST PUSH1 0xFF NOT DUP4 AND DUP7 MSTORE DUP2 ISZERO ISZERO DUP3 MUL DUP7 ADD SWAP4 POP PUSH2 0x3A18 JUMP JUMPDEST PUSH2 0x39EF DUP6 PUSH2 0x34B1 JUMP JUMPDEST PUSH0 JUMPDEST DUP4 DUP2 LT ISZERO PUSH2 0x3A10 JUMPI DUP2 SLOAD DUP2 DUP10 ADD MSTORE PUSH1 0x1 DUP3 ADD SWAP2 POP PUSH1 0x20 DUP2 ADD SWAP1 POP PUSH2 0x39F1 JUMP JUMPDEST DUP4 DUP9 ADD SWAP6 POP POP POP JUMPDEST POP POP POP SWAP3 SWAP2 POP POP JUMP JUMPDEST PUSH0 PUSH2 0x3A2C DUP3 DUP5 PUSH2 0x39A1 JUMP JUMPDEST SWAP2 POP DUP2 SWAP1 POP SWAP3 SWAP2 POP POP JUMP JUMPDEST PUSH32 0x5472616E73616374696F6E206661696C65640000000000000000000000000000 PUSH0 DUP3 ADD MSTORE POP JUMP JUMPDEST PUSH0 PUSH2 0x3A6B PUSH1 0x12 DUP4 PUSH2 0x2FDF JUMP JUMPDEST SWAP2 POP PUSH2 0x3A76 DUP3 PUSH2 0x3A37 JUMP JUMPDEST PUSH1 0x20 DUP3 ADD SWAP1 POP SWAP2 SWAP1 POP JUMP JUMPDEST PUSH0 PUSH1 0x20 DUP3 ADD SWAP1 POP DUP2 DUP2 SUB PUSH0 DUP4 ADD MSTORE PUSH2 0x3A98 DUP2 PUSH2 0x3A5F JUMP JUMPDEST SWAP1 POP SWAP2 SWAP1 POP JUMP JUMPDEST PUSH0 PUSH1 0x60 DUP3 ADD SWAP1 POP PUSH2 0x3AB2 PUSH0 DUP4 ADD DUP7 PUSH2 0x2952 JUMP JUMPDEST PUSH2 0x3ABF PUSH1 0x20 DUP4 ADD DUP6 PUSH2 0x2952 JUMP JUMPDEST PUSH2 0x3ACC PUSH1 0x40 DUP4 ADD DUP5 PUSH2 0x2886 JUMP JUMPDEST SWAP5 SWAP4 POP POP POP POP JUMP JUMPDEST PUSH32 0x5265656E7472616E637947756172643A207265656E7472616E742063616C6C00 PUSH0 DUP3 ADD MSTORE POP JUMP JUMPDEST PUSH0 PUSH2 0x3B08 PUSH1 0x1F DUP4 PUSH2 0x2FDF JUMP JUMPDEST SWAP2 POP PUSH2 0x3B13 DUP3 PUSH2 0x3AD4 JUMP JUMPDEST PUSH1 0x20 DUP3 ADD SWAP1 POP SWAP2 SWAP1 POP JUMP JUMPDEST PUSH0 PUSH1 0x20 DUP3 ADD SWAP1 POP DUP2 DUP2 SUB PUSH0 DUP4 ADD MSTORE PUSH2 0x3B35 DUP2 PUSH2 0x3AFC JUMP JUMPDEST SWAP1 POP SWAP2 SWAP1 POP JUMP JUMPDEST PUSH0 PUSH1 0x40 DUP3 ADD SWAP1 POP PUSH2 0x3B4F PUSH0 DUP4 ADD DUP6 PUSH2 0x2952 JUMP JUMPDEST PUSH2 0x3B5C PUSH1 0x20 DUP4 ADD DUP5 PUSH2 0x2886 JUMP JUMPDEST SWAP4 SWAP3 POP POP POP JUMP INVALID LOG2 PUSH5 0x6970667358 0x22 SLT KECCAK256 ISZERO DUP11 EXTCODEHASH SSTORE CALLDATACOPY 0x22 0xD6 LOG1 0xC2 CALLER DUP14 PUSH24 0xB159DADABA3E4E58469CF1AB8953A584F44575BB64736F6C PUSH4 0x4300081E STOP CALLER "
				},
				"gasEstimates": {
					"creation": {
						"codeDepositCost": "3051400",
						"executionCost": "infinite",
						"totalCost": "infinite"
					},
					"external": {
						"addOwner(address)": "infinite",
						"changeRequirement(uint256)": "infinite",
						"confirmTransaction(uint256)": "infinite",
						"depositToken(address,uint256)": "infinite",
						"executeTransaction(uint256)": "infinite",
						"getBalance()": "380",
						"getConfirmations(uint256)": "infinite",
						"getOwners()": "infinite",
						"getTokenBalance(address)": "infinite",
						"getTransaction(uint256)": "infinite",
						"getTransactionCount(bool,bool)": "infinite",
						"getTransactionIds(uint256,uint256,bool,bool)": "infinite",
						"isConfirmed(uint256,address)": "3093",
						"isConfirmedBy(uint256,address)": "3161",
						"isOwner(address)": "2945",
						"owners(uint256)": "4968",
						"removeOwner(address)": "infinite",
						"replaceOwner(address,address)": "infinite",
						"required()": "2513",
						"revokeConfirmation(uint256)": "infinite",
						"submitTransaction(address,uint256,bytes,address)": "infinite",
						"transactionCount()": "2447",
						"transactions(uint256)": "infinite"
					}
				},
				"methodIdentifiers": {
					"addOwner(address)": "7065cb48",
					"changeRequirement(uint256)": "ba51a6df",
					"confirmTransaction(uint256)": "c01a8c84",
					"depositToken(address,uint256)": "338b5dea",
					"executeTransaction(uint256)": "ee22610b",
					"getBalance()": "12065fe0",
					"getConfirmations(uint256)": "b5dc40c3",
					"getOwners()": "a0e67e2b",
					"getTokenBalance(address)": "3aecd0e3",
					"getTransaction(uint256)": "33ea3dc8",
					"getTransactionCount(bool,bool)": "54741525",
					"getTransactionIds(uint256,uint256,bool,bool)": "a8abe69a",
					"isConfirmed(uint256,address)": "80f59a65",
					"isConfirmedBy(uint256,address)": "8a8e784c",
					"isOwner(address)": "2f54bf6e",
					"owners(uint256)": "025e7c27",
					"removeOwner(address)": "173825d9",
					"replaceOwner(address,address)": "e20056e6",
					"required()": "dc8452cd",
					"revokeConfirmation(uint256)": "20ea8d86",
					"submitTransaction(address,uint256,bytes,address)": "57544291",
					"transactionCount()": "b77bf600",
					"transactions(uint256)": "9ace38c2"
				}
			},
			"storageLayout": {
				"storage": [
					{
						"astId": 100,
						"contract": "contracts/MultiSignatureWallet.sol:MultiSigWallet",
						"label": "_status",
						"offset": 0,
						"slot": "0",
						"type": "t_uint256"
					},
					{
						"astId": 739,
						"contract": "contracts/MultiSignatureWallet.sol:MultiSigWallet",
						"label": "transactions",
						"offset": 0,
						"slot": "1",
						"type": "t_mapping(t_uint256,t_struct(Transaction)734_storage)"
					},
					{
						"astId": 745,
						"contract": "contracts/MultiSignatureWallet.sol:MultiSigWallet",
						"label": "isConfirmed",
						"offset": 0,
						"slot": "2",
						"type": "t_mapping(t_uint256,t_mapping(t_address,t_bool))"
					},
					{
						"astId": 749,
						"contract": "contracts/MultiSignatureWallet.sol:MultiSigWallet",
						"label": "isOwner",
						"offset": 0,
						"slot": "3",
						"type": "t_mapping(t_address,t_bool)"
					},
					{
						"astId": 752,
						"contract": "contracts/MultiSignatureWallet.sol:MultiSigWallet",
						"label": "owners",
						"offset": 0,
						"slot": "4",
						"type": "t_array(t_address)dyn_storage"
					},
					{
						"astId": 754,
						"contract": "contracts/MultiSignatureWallet.sol:MultiSigWallet",
						"label": "required",
						"offset": 0,
						"slot": "5",
						"type": "t_uint256"
					},
					{
						"astId": 756,
						"contract": "contracts/MultiSignatureWallet.sol:MultiSigWallet",
						"label": "transactionCount",
						"offset": 0,
						"slot": "6",
						"type": "t_uint256"
					}
				],
				"types": {
					"t_address": {
						"encoding": "inplace",
						"label": "address",
						"numberOfBytes": "20"
					},
					"t_array(t_address)dyn_storage": {
						"base": "t_address",
						"encoding": "dynamic_array",
						"label": "address[]",
						"numberOfBytes": "32"
					},
					"t_bool": {
						"encoding": "inplace",
						"label": "bool",
						"numberOfBytes": "1"
					},
					"t_bytes_storage": {
						"encoding": "bytes",
						"label": "bytes",
						"numberOfBytes": "32"
					},
					"t_mapping(t_address,t_bool)": {
						"encoding": "mapping",
						"key": "t_address",
						"label": "mapping(address => bool)",
						"numberOfBytes": "32",
						"value": "t_bool"
					},
					"t_mapping(t_uint256,t_mapping(t_address,t_bool))": {
						"encoding": "mapping",
						"key": "t_uint256",
						"label": "mapping(uint256 => mapping(address => bool))",
						"numberOfBytes": "32",
						"value": "t_mapping(t_address,t_bool)"
					},
					"t_mapping(t_uint256,t_struct(Transaction)734_storage)": {
						"encoding": "mapping",
						"key": "t_uint256",
						"label": "mapping(uint256 => struct MultiSigWallet.Transaction)",
						"numberOfBytes": "32",
						"value": "t_struct(Transaction)734_storage"
					},
					"t_struct(Transaction)734_storage": {
						"encoding": "inplace",
						"label": "struct MultiSigWallet.Transaction",
						"members": [
							{
								"astId": 721,
								"contract": "contracts/MultiSignatureWallet.sol:MultiSigWallet",
								"label": "to",
								"offset": 0,
								"slot": "0",
								"type": "t_address"
							},
							{
								"astId": 723,
								"contract": "contracts/MultiSignatureWallet.sol:MultiSigWallet",
								"label": "value",
								"offset": 0,
								"slot": "1",
								"type": "t_uint256"
							},
							{
								"astId": 725,
								"contract": "contracts/MultiSignatureWallet.sol:MultiSigWallet",
								"label": "data",
								"offset": 0,
								"slot": "2",
								"type": "t_bytes_storage"
							},
							{
								"astId": 727,
								"contract": "contracts/MultiSignatureWallet.sol:MultiSigWallet",
								"label": "executed",
								"offset": 0,
								"slot": "3",
								"type": "t_bool"
							},
							{
								"astId": 729,
								"contract": "contracts/MultiSignatureWallet.sol:MultiSigWallet",
								"label": "confirmations",
								"offset": 0,
								"slot": "4",
								"type": "t_uint256"
							},
							{
								"astId": 731,
								"contract": "contracts/MultiSignatureWallet.sol:MultiSigWallet",
								"label": "timestamp",
								"offset": 0,
								"slot": "5",
								"type": "t_uint256"
							},
							{
								"astId": 733,
								"contract": "contracts/MultiSignatureWallet.sol:MultiSigWallet",
								"label": "token",
								"offset": 0,
								"slot": "6",
								"type": "t_address"
							}
						],
						"numberOfBytes": "224"
					},
					"t_uint256": {
						"encoding": "inplace",
						"label": "uint256",
						"numberOfBytes": "32"
					}
				}
			},
			"userdoc": {
				"kind": "user",
				"methods": {},
				"version": 1
			}
		}
	}
}