{
	"contracts/DecentralizedVoting.sol": {
		"DecentralizedVoting": {
			"abi": [
				{
					"inputs": [
						{
							"internalType": "string",
							"name": "_electionName",
							"type": "string"
						}
					],
					"stateMutability": "nonpayable",
					"type": "constructor"
				},
				{
					"anonymous": false,
					"inputs": [
						{
							"indexed": false,
							"internalType": "uint256",
							"name": "candidateId",
							"type": "uint256"
						},
						{
							"indexed": false,
							"internalType": "string",
							"name": "name",
							"type": "string"
						}
					],
					"name": "CandidateAdded",
					"type": "event"
				},
				{
					"anonymous": false,
					"inputs": [
						{
							"indexed": false,
							"internalType": "address",
							"name": "voter",
							"type": "address"
						},
						{
							"indexed": false,
							"internalType": "uint256",
							"name": "candidateId",
							"type": "uint256"
						}
					],
					"name": "VoteCast",
					"type": "event"
				},
				{
					"anonymous": false,
					"inputs": [
						{
							"indexed": false,
							"internalType": "address",
							"name": "voter",
							"type": "address"
						}
					],
					"name": "VoterRegistered",
					"type": "event"
				},
				{
					"anonymous": false,
					"inputs": [
						{
							"indexed": false,
							"internalType": "bool",
							"name": "isOpen",
							"type": "bool"
						}
					],
					"name": "VotingStatusChanged",
					"type": "event"
				},
				{
					"inputs": [
						{
							"internalType": "string",
							"name": "_name",
							"type": "string"
						}
					],
					"name": "addCandidate",
					"outputs": [],
					"stateMutability": "nonpayable",
					"type": "function"
				},
				{
					"inputs": [
						{
							"internalType": "uint256",
							"name": "",
							"type": "uint256"
						}
					],
					"name": "candidates",
					"outputs": [
						{
							"internalType": "uint256",
							"name": "id",
							"type": "uint256"
						},
						{
							"internalType": "string",
							"name": "name",
							"type": "string"
						},
						{
							"internalType": "uint256",
							"name": "voteCount",
							"type": "uint256"
						}
					],
					"stateMutability": "view",
					"type": "function"
				},
				{
					"inputs": [],
					"name": "candidatesCount",
					"outputs": [
						{
							"internalType": "uint256",
							"name": "",
							"type": "uint256"
						}
					],
					"stateMutability": "view",
					"type": "function"
				},
				{
					"inputs": [],
					"name": "closeVoting",
					"outputs": [],
					"stateMutability": "nonpayable",
					"type": "function"
				},
				{
					"inputs": [],
					"name": "electionName",
					"outputs": [
						{
							"internalType": "string",
							"name": "",
							"type": "string"
						}
					],
					"stateMutability": "view",
					"type": "function"
				},
				{
					"inputs": [],
					"name": "getResults",
					"outputs": [
						{
							"components": [
								{
									"internalType": "uint256",
									"name": "id",
									"type": "uint256"
								},
								{
									"internalType": "string",
									"name": "name",
									"type": "string"
								},
								{
									"internalType": "uint256",
									"name": "voteCount",
									"type": "uint256"
								}
							],
							"internalType": "struct DecentralizedVoting.Candidate[]",
							"name": "",
							"type": "tuple[]"
						}
					],
					"stateMutability": "view",
					"type": "function"
				},
				{
					"inputs": [],
					"name": "getWinner",
					"outputs": [
						{
							"internalType": "string",
							"name": "winnerName",
							"type": "string"
						},
						{
							"internalType": "uint256",
							"name": "winnerVotes",
							"type": "uint256"
						}
					],
					"stateMutability": "view",
					"type": "function"
				},
				{
					"inputs": [],
					"name": "openVoting",
					"outputs": [],
					"stateMutability": "nonpayable",
					"type": "function"
				},
				{
					"inputs": [],
					"name": "owner",
					"outputs": [
						{
							"internalType": "address",
							"name": "",
							"type": "address"
						}
					],
					"stateMutability": "view",
					"type": "function"
				},
				{
					"inputs": [
						{
							"internalType": "address",
							"name": "_voter",
							"type": "address"
						}
					],
					"name": "registerVoter",
					"outputs": [],
					"stateMutability": "nonpayable",
					"type": "function"
				},
				{
					"inputs": [],
					"name": "totalVotes",
					"outputs": [
						{
							"internalType": "uint256",
							"name": "",
							"type": "uint256"
						}
					],
					"stateMutability": "view",
					"type": "function"
				},
				{
					"inputs": [
						{
							"internalType": "uint256",
							"name": "_candidateId",
							"type": "uint256"
						}
					],
					"name": "vote",
					"outputs": [],
					"stateMutability": "nonpayable",
					"type": "function"
				},
				{
					"inputs": [
						{
							"internalType": "address",
							"name": "",
							"type": "address"
						}
					],
					"name": "voters",
					"outputs": [
						{
							"internalType": "bool",
							"name": "hasVoted",
							"type": "bool"
						},
						{
							"internalType": "uint256",
							"name": "votedCandidateId",
							"type": "uint256"
						},
						{
							"internalType": "bool",
							"name": "isRegistered",
							"type": "bool"
						}
					],
					"stateMutability": "view",
					"type": "function"
				},
				{
					"inputs": [],
					"name": "votingOpen",
					"outputs": [
						{
							"internalType": "bool",
							"name": "",
							"type": "bool"
						}
					],
					"stateMutability": "view",
					"type": "function"
				}
			],
			"devdoc": {
				"kind": "dev",
				"methods": {},
				"version": 1
			},
			"evm": {
				"assembly": "    /* \"contracts/DecentralizedVoting.sol\":61:3582  contract DecentralizedVoting {... */\n  mstore(0x40, 0x80)\n    /* \"contracts/DecentralizedVoting.sol\":1173:1319  constructor(string memory _electionName) {... */\n  callvalue\n  dup1\n  iszero\n  tag_1\n  jumpi\n  revert(0x00, 0x00)\ntag_1:\n  pop\n  mload(0x40)\n  sub(codesize, bytecodeSize)\n  dup1\n  bytecodeSize\n  dup4\n  codecopy\n  dup2\n  dup2\n  add\n  0x40\n  mstore\n  dup2\n  add\n  swap1\n  tag_2\n  swap2\n  swap1\n  tag_3\n  jump\t// in\ntag_2:\n    /* \"contracts/DecentralizedVoting.sol\":1233:1243  msg.sender */\n  caller\n    /* \"contracts/DecentralizedVoting.sol\":1225:1230  owner */\n  0x00\n  0x00\n    /* \"contracts/DecentralizedVoting.sol\":1225:1243  owner = msg.sender */\n  0x0100\n  exp\n  dup2\n  sload\n  dup2\n  0xffffffffffffffffffffffffffffffffffffffff\n  mul\n  not\n  and\n  swap1\n  dup4\n  0xffffffffffffffffffffffffffffffffffffffff\n  and\n  mul\n  or\n  swap1\n  sstore\n  pop\n    /* \"contracts/DecentralizedVoting.sol\":1269:1282  _electionName */\n  dup1\n    /* \"contracts/DecentralizedVoting.sol\":1254:1266  electionName */\n  0x01\n    /* \"contracts/DecentralizedVoting.sol\":1254:1282  electionName = _electionName */\n  swap1\n  dup2\n  tag_6\n  swap2\n  swap1\n  tag_7\n  jump\t// in\ntag_6:\n  pop\n    /* \"contracts/DecentralizedVoting.sol\":1306:1311  false */\n  0x00\n    /* \"contracts/DecentralizedVoting.sol\":1293:1303  votingOpen */\n  0x02\n  0x00\n    /* \"contracts/DecentralizedVoting.sol\":1293:1311  votingOpen = false */\n  0x0100\n  exp\n  dup2\n  sload\n  dup2\n  0xff\n  mul\n  not\n  and\n  swap1\n  dup4\n  iszero\n  iszero\n  mul\n  or\n  swap1\n  sstore\n  pop\n    /* \"contracts/DecentralizedVoting.sol\":1173:1319  constructor(string memory _electionName) {... */\n  pop\n    /* \"contracts/DecentralizedVoting.sol\":61:3582  contract DecentralizedVoting {... */\n  jump(tag_8)\n    /* \"#utility.yul\":7:82   */\ntag_9:\n    /* \"#utility.yul\":40:46   */\n  0x00\n    /* \"#utility.yul\":73:75   */\n  0x40\n    /* \"#utility.yul\":67:76   */\n  mload\n    /* \"#utility.yul\":57:76   */\n  swap1\n  pop\n    /* \"#utility.yul\":7:82   */\n  swap1\n  jump\t// out\n    /* \"#utility.yul\":88:205   */\ntag_10:\n    /* \"#utility.yul\":197:198   */\n  0x00\n    /* \"#utility.yul\":194:195   */\n  0x00\n    /* \"#utility.yul\":187:199   */\n  revert\n    /* \"#utility.yul\":211:328   */\ntag_11:\n    /* \"#utility.yul\":320:321   */\n  0x00\n    /* \"#utility.yul\":317:318   */\n  0x00\n    /* \"#utility.yul\":310:322   */\n  revert\n    /* \"#utility.yul\":334:451   */\ntag_12:\n    /* \"#utility.yul\":443:444   */\n  0x00\n    /* \"#utility.yul\":440:441   */\n  0x00\n    /* \"#utility.yul\":433:445   */\n  revert\n    /* \"#utility.yul\":457:574   */\ntag_13:\n    /* \"#utility.yul\":566:567   */\n  0x00\n    /* \"#utility.yul\":563:564   */\n  0x00\n    /* \"#utility.yul\":556:568   */\n  revert\n    /* \"#utility.yul\":580:682   */\ntag_14:\n    /* \"#utility.yul\":621:627   */\n  0x00\n    /* \"#utility.yul\":672:674   */\n  0x1f\n    /* \"#utility.yul\":668:675   */\n  not\n    /* \"#utility.yul\":663:665   */\n  0x1f\n    /* \"#utility.yul\":656:661   */\n  dup4\n    /* \"#utility.yul\":652:666   */\n  add\n    /* \"#utility.yul\":648:676   */\n  and\n    /* \"#utility.yul\":638:676   */\n  swap1\n  pop\n    /* \"#utility.yul\":580:682   */\n  swap2\n  swap1\n  pop\n  jump\t// out\n    /* \"#utility.yul\":688:868   */\ntag_15:\n    /* \"#utility.yul\":736:813   */\n  0x4e487b7100000000000000000000000000000000000000000000000000000000\n    /* \"#utility.yul\":733:734   */\n  0x00\n    /* \"#utility.yul\":726:814   */\n  mstore\n    /* \"#utility.yul\":833:837   */\n  0x41\n    /* \"#utility.yul\":830:831   */\n  0x04\n    /* \"#utility.yul\":823:838   */\n  mstore\n    /* \"#utility.yul\":857:861   */\n  0x24\n    /* \"#utility.yul\":854:855   */\n  0x00\n    /* \"#utility.yul\":847:862   */\n  revert\n    /* \"#utility.yul\":874:1155   */\ntag_16:\n    /* \"#utility.yul\":957:984   */\n  tag_50\n    /* \"#utility.yul\":979:983   */\n  dup3\n    /* \"#utility.yul\":957:984   */\n  tag_14\n  jump\t// in\ntag_50:\n    /* \"#utility.yul\":949:955   */\n  dup2\n    /* \"#utility.yul\":945:985   */\n  add\n    /* \"#utility.yul\":1087:1093   */\n  dup2\n    /* \"#utility.yul\":1075:1085   */\n  dup2\n    /* \"#utility.yul\":1072:1094   */\n  lt\n    /* \"#utility.yul\":1051:1069   */\n  0xffffffffffffffff\n    /* \"#utility.yul\":1039:1049   */\n  dup3\n    /* \"#utility.yul\":1036:1070   */\n  gt\n    /* \"#utility.yul\":1033:1095   */\n  or\n    /* \"#utility.yul\":1030:1118   */\n  iszero\n  tag_51\n  jumpi\n    /* \"#utility.yul\":1098:1116   */\n  tag_52\n  tag_15\n  jump\t// in\ntag_52:\n    /* \"#utility.yul\":1030:1118   */\ntag_51:\n    /* \"#utility.yul\":1138:1148   */\n  dup1\n    /* \"#utility.yul\":1134:1136   */\n  0x40\n    /* \"#utility.yul\":1127:1149   */\n  mstore\n    /* \"#utility.yul\":917:1155   */\n  pop\n    /* \"#utility.yul\":874:1155   */\n  pop\n  pop\n  jump\t// out\n    /* \"#utility.yul\":1161:1290   */\ntag_17:\n    /* \"#utility.yul\":1195:1201   */\n  0x00\n    /* \"#utility.yul\":1222:1242   */\n  tag_54\n  tag_9\n  jump\t// in\ntag_54:\n    /* \"#utility.yul\":1212:1242   */\n  swap1\n  pop\n    /* \"#utility.yul\":1251:1284   */\n  tag_55\n    /* \"#utility.yul\":1279:1283   */\n  dup3\n    /* \"#utility.yul\":1271:1277   */\n  dup3\n    /* \"#utility.yul\":1251:1284   */\n  tag_16\n  jump\t// in\ntag_55:\n    /* \"#utility.yul\":1161:1290   */\n  swap2\n  swap1\n  pop\n  jump\t// out\n    /* \"#utility.yul\":1296:1604   */\ntag_18:\n    /* \"#utility.yul\":1358:1362   */\n  0x00\n    /* \"#utility.yul\":1448:1466   */\n  0xffffffffffffffff\n    /* \"#utility.yul\":1440:1446   */\n  dup3\n    /* \"#utility.yul\":1437:1467   */\n  gt\n    /* \"#utility.yul\":1434:1490   */\n  iszero\n  tag_57\n  jumpi\n    /* \"#utility.yul\":1470:1488   */\n  tag_58\n  tag_15\n  jump\t// in\ntag_58:\n    /* \"#utility.yul\":1434:1490   */\ntag_57:\n    /* \"#utility.yul\":1508:1537   */\n  tag_59\n    /* \"#utility.yul\":1530:1536   */\n  dup3\n    /* \"#utility.yul\":1508:1537   */\n  tag_14\n  jump\t// in\ntag_59:\n    /* \"#utility.yul\":1500:1537   */\n  swap1\n  pop\n    /* \"#utility.yul\":1592:1596   */\n  0x20\n    /* \"#utility.yul\":1586:1590   */\n  dup2\n    /* \"#utility.yul\":1582:1597   */\n  add\n    /* \"#utility.yul\":1574:1597   */\n  swap1\n  pop\n    /* \"#utility.yul\":1296:1604   */\n  swap2\n  swap1\n  pop\n  jump\t// out\n    /* \"#utility.yul\":1610:1749   */\ntag_19:\n    /* \"#utility.yul\":1699:1705   */\n  dup3\n    /* \"#utility.yul\":1694:1697   */\n  dup2\n    /* \"#utility.yul\":1689:1692   */\n  dup4\n    /* \"#utility.yul\":1683:1706   */\n  mcopy\n    /* \"#utility.yul\":1740:1741   */\n  0x00\n    /* \"#utility.yul\":1731:1737   */\n  dup4\n    /* \"#utility.yul\":1726:1729   */\n  dup4\n    /* \"#utility.yul\":1722:1738   */\n  add\n    /* \"#utility.yul\":1715:1742   */\n  mstore\n    /* \"#utility.yul\":1610:1749   */\n  pop\n  pop\n  pop\n  jump\t// out\n    /* \"#utility.yul\":1755:2189   */\ntag_20:\n    /* \"#utility.yul\":1844:1849   */\n  0x00\n    /* \"#utility.yul\":1869:1935   */\n  tag_62\n    /* \"#utility.yul\":1885:1934   */\n  tag_63\n    /* \"#utility.yul\":1927:1933   */\n  dup5\n    /* \"#utility.yul\":1885:1934   */\n  tag_18\n  jump\t// in\ntag_63:\n    /* \"#utility.yul\":1869:1935   */\n  tag_17\n  jump\t// in\ntag_62:\n    /* \"#utility.yul\":1860:1935   */\n  swap1\n  pop\n    /* \"#utility.yul\":1958:1964   */\n  dup3\n    /* \"#utility.yul\":1951:1956   */\n  dup2\n    /* \"#utility.yul\":1944:1965   */\n  mstore\n    /* \"#utility.yul\":1996:2000   */\n  0x20\n    /* \"#utility.yul\":1989:1994   */\n  dup2\n    /* \"#utility.yul\":1985:2001   */\n  add\n    /* \"#utility.yul\":2034:2037   */\n  dup5\n    /* \"#utility.yul\":2025:2031   */\n  dup5\n    /* \"#utility.yul\":2020:2023   */\n  dup5\n    /* \"#utility.yul\":2016:2032   */\n  add\n    /* \"#utility.yul\":2013:2038   */\n  gt\n    /* \"#utility.yul\":2010:2122   */\n  iszero\n  tag_64\n  jumpi\n    /* \"#utility.yul\":2041:2120   */\n  tag_65\n  tag_13\n  jump\t// in\ntag_65:\n    /* \"#utility.yul\":2010:2122   */\ntag_64:\n    /* \"#utility.yul\":2131:2183   */\n  tag_66\n    /* \"#utility.yul\":2176:2182   */\n  dup5\n    /* \"#utility.yul\":2171:2174   */\n  dup3\n    /* \"#utility.yul\":2166:2169   */\n  dup6\n    /* \"#utility.yul\":2131:2183   */\n  tag_19\n  jump\t// in\ntag_66:\n    /* \"#utility.yul\":1850:2189   */\n  pop\n    /* \"#utility.yul\":1755:2189   */\n  swap4\n  swap3\n  pop\n  pop\n  pop\n  jump\t// out\n    /* \"#utility.yul\":2209:2564   */\ntag_21:\n    /* \"#utility.yul\":2276:2281   */\n  0x00\n    /* \"#utility.yul\":2325:2328   */\n  dup3\n    /* \"#utility.yul\":2318:2322   */\n  0x1f\n    /* \"#utility.yul\":2310:2316   */\n  dup4\n    /* \"#utility.yul\":2306:2323   */\n  add\n    /* \"#utility.yul\":2302:2329   */\n  slt\n    /* \"#utility.yul\":2292:2414   */\n  tag_68\n  jumpi\n    /* \"#utility.yul\":2333:2412   */\n  tag_69\n  tag_12\n  jump\t// in\ntag_69:\n    /* \"#utility.yul\":2292:2414   */\ntag_68:\n    /* \"#utility.yul\":2443:2449   */\n  dup2\n    /* \"#utility.yul\":2437:2450   */\n  mload\n    /* \"#utility.yul\":2468:2558   */\n  tag_70\n    /* \"#utility.yul\":2554:2557   */\n  dup5\n    /* \"#utility.yul\":2546:2552   */\n  dup3\n    /* \"#utility.yul\":2539:2543   */\n  0x20\n    /* \"#utility.yul\":2531:2537   */\n  dup7\n    /* \"#utility.yul\":2527:2544   */\n  add\n    /* \"#utility.yul\":2468:2558   */\n  tag_20\n  jump\t// in\ntag_70:\n    /* \"#utility.yul\":2459:2558   */\n  swap2\n  pop\n    /* \"#utility.yul\":2282:2564   */\n  pop\n    /* \"#utility.yul\":2209:2564   */\n  swap3\n  swap2\n  pop\n  pop\n  jump\t// out\n    /* \"#utility.yul\":2570:3094   */\ntag_3:\n    /* \"#utility.yul\":2650:2656   */\n  0x00\n    /* \"#utility.yul\":2699:2701   */\n  0x20\n    /* \"#utility.yul\":2687:2696   */\n  dup3\n    /* \"#utility.yul\":2678:2685   */\n  dup5\n    /* \"#utility.yul\":2674:2697   */\n  sub\n    /* \"#utility.yul\":2670:2702   */\n  slt\n    /* \"#utility.yul\":2667:2786   */\n  iszero\n  tag_72\n  jumpi\n    /* \"#utility.yul\":2705:2784   */\n  tag_73\n  tag_10\n  jump\t// in\ntag_73:\n    /* \"#utility.yul\":2667:2786   */\ntag_72:\n    /* \"#utility.yul\":2846:2847   */\n  0x00\n    /* \"#utility.yul\":2835:2844   */\n  dup3\n    /* \"#utility.yul\":2831:2848   */\n  add\n    /* \"#utility.yul\":2825:2849   */\n  mload\n    /* \"#utility.yul\":2876:2894   */\n  0xffffffffffffffff\n    /* \"#utility.yul\":2868:2874   */\n  dup2\n    /* \"#utility.yul\":2865:2895   */\n  gt\n    /* \"#utility.yul\":2862:2979   */\n  iszero\n  tag_74\n  jumpi\n    /* \"#utility.yul\":2898:2977   */\n  tag_75\n  tag_11\n  jump\t// in\ntag_75:\n    /* \"#utility.yul\":2862:2979   */\ntag_74:\n    /* \"#utility.yul\":3003:3077   */\n  tag_76\n    /* \"#utility.yul\":3069:3076   */\n  dup5\n    /* \"#utility.yul\":3060:3066   */\n  dup3\n    /* \"#utility.yul\":3049:3058   */\n  dup6\n    /* \"#utility.yul\":3045:3067   */\n  add\n    /* \"#utility.yul\":3003:3077   */\n  tag_21\n  jump\t// in\ntag_76:\n    /* \"#utility.yul\":2993:3077   */\n  swap2\n  pop\n    /* \"#utility.yul\":2796:3087   */\n  pop\n    /* \"#utility.yul\":2570:3094   */\n  swap3\n  swap2\n  pop\n  pop\n  jump\t// out\n    /* \"#utility.yul\":3100:3199   */\ntag_22:\n    /* \"#utility.yul\":3152:3158   */\n  0x00\n    /* \"#utility.yul\":3186:3191   */\n  dup2\n    /* \"#utility.yul\":3180:3192   */\n  mload\n    /* \"#utility.yul\":3170:3192   */\n  swap1\n  pop\n    /* \"#utility.yul\":3100:3199   */\n  swap2\n  swap1\n  pop\n  jump\t// out\n    /* \"#utility.yul\":3205:3385   */\ntag_23:\n    /* \"#utility.yul\":3253:3330   */\n  0x4e487b7100000000000000000000000000000000000000000000000000000000\n    /* \"#utility.yul\":3250:3251   */\n  0x00\n    /* \"#utility.yul\":3243:3331   */\n  mstore\n    /* \"#utility.yul\":3350:3354   */\n  0x22\n    /* \"#utility.yul\":3347:3348   */\n  0x04\n    /* \"#utility.yul\":3340:3355   */\n  mstore\n    /* \"#utility.yul\":3374:3378   */\n  0x24\n    /* \"#utility.yul\":3371:3372   */\n  0x00\n    /* \"#utility.yul\":3364:3379   */\n  revert\n    /* \"#utility.yul\":3391:3711   */\ntag_24:\n    /* \"#utility.yul\":3435:3441   */\n  0x00\n    /* \"#utility.yul\":3472:3473   */\n  0x02\n    /* \"#utility.yul\":3466:3470   */\n  dup3\n    /* \"#utility.yul\":3462:3474   */\n  div\n    /* \"#utility.yul\":3452:3474   */\n  swap1\n  pop\n    /* \"#utility.yul\":3519:3520   */\n  0x01\n    /* \"#utility.yul\":3513:3517   */\n  dup3\n    /* \"#utility.yul\":3509:3521   */\n  and\n    /* \"#utility.yul\":3540:3558   */\n  dup1\n    /* \"#utility.yul\":3530:3611   */\n  tag_80\n  jumpi\n    /* \"#utility.yul\":3596:3600   */\n  0x7f\n    /* \"#utility.yul\":3588:3594   */\n  dup3\n    /* \"#utility.yul\":3584:3601   */\n  and\n    /* \"#utility.yul\":3574:3601   */\n  swap2\n  pop\n    /* \"#utility.yul\":3530:3611   */\ntag_80:\n    /* \"#utility.yul\":3658:3660   */\n  0x20\n    /* \"#utility.yul\":3650:3656   */\n  dup3\n    /* \"#utility.yul\":3647:3661   */\n  lt\n    /* \"#utility.yul\":3627:3645   */\n  dup2\n    /* \"#utility.yul\":3624:3662   */\n  sub\n    /* \"#utility.yul\":3621:3705   */\n  tag_81\n  jumpi\n    /* \"#utility.yul\":3677:3695   */\n  tag_82\n  tag_23\n  jump\t// in\ntag_82:\n    /* \"#utility.yul\":3621:3705   */\ntag_81:\n    /* \"#utility.yul\":3442:3711   */\n  pop\n    /* \"#utility.yul\":3391:3711   */\n  swap2\n  swap1\n  pop\n  jump\t// out\n    /* \"#utility.yul\":3717:3858   */\ntag_25:\n    /* \"#utility.yul\":3766:3770   */\n  0x00\n    /* \"#utility.yul\":3789:3792   */\n  dup2\n    /* \"#utility.yul\":3781:3792   */\n  swap1\n  pop\n    /* \"#utility.yul\":3812:3815   */\n  dup2\n    /* \"#utility.yul\":3809:3810   */\n  0x00\n    /* \"#utility.yul\":3802:3816   */\n  mstore\n    /* \"#utility.yul\":3846:3850   */\n  0x20\n    /* \"#utility.yul\":3843:3844   */\n  0x00\n    /* \"#utility.yul\":3833:3851   */\n  keccak256\n    /* \"#utility.yul\":3825:3851   */\n  swap1\n  pop\n    /* \"#utility.yul\":3717:3858   */\n  swap2\n  swap1\n  pop\n  jump\t// out\n    /* \"#utility.yul\":3864:3957   */\ntag_26:\n    /* \"#utility.yul\":3901:3907   */\n  0x00\n    /* \"#utility.yul\":3948:3950   */\n  0x20\n    /* \"#utility.yul\":3943:3945   */\n  0x1f\n    /* \"#utility.yul\":3936:3941   */\n  dup4\n    /* \"#utility.yul\":3932:3946   */\n  add\n    /* \"#utility.yul\":3928:3951   */\n  div\n    /* \"#utility.yul\":3918:3951   */\n  swap1\n  pop\n    /* \"#utility.yul\":3864:3957   */\n  swap2\n  swap1\n  pop\n  jump\t// out\n    /* \"#utility.yul\":3963:4070   */\ntag_27:\n    /* \"#utility.yul\":4007:4015   */\n  0x00\n    /* \"#utility.yul\":4057:4062   */\n  dup3\n    /* \"#utility.yul\":4051:4055   */\n  dup3\n    /* \"#utility.yul\":4047:4063   */\n  shl\n    /* \"#utility.yul\":4026:4063   */\n  swap1\n  pop\n    /* \"#utility.yul\":3963:4070   */\n  swap3\n  swap2\n  pop\n  pop\n  jump\t// out\n    /* \"#utility.yul\":4076:4469   */\ntag_28:\n    /* \"#utility.yul\":4145:4151   */\n  0x00\n    /* \"#utility.yul\":4195:4196   */\n  0x08\n    /* \"#utility.yul\":4183:4193   */\n  dup4\n    /* \"#utility.yul\":4179:4197   */\n  mul\n    /* \"#utility.yul\":4218:4315   */\n  tag_87\n    /* \"#utility.yul\":4248:4314   */\n  0xffffffffffffffffffffffffffffffffffffffffffffffffffffffffffffffff\n    /* \"#utility.yul\":4237:4246   */\n  dup3\n    /* \"#utility.yul\":4218:4315   */\n  tag_27\n  jump\t// in\ntag_87:\n    /* \"#utility.yul\":4336:4375   */\n  tag_88\n    /* \"#utility.yul\":4366:4374   */\n  dup7\n    /* \"#utility.yul\":4355:4364   */\n  dup4\n    /* \"#utility.yul\":4336:4375   */\n  tag_27\n  jump\t// in\ntag_88:\n    /* \"#utility.yul\":4324:4375   */\n  swap6\n  pop\n    /* \"#utility.yul\":4408:4412   */\n  dup1\n    /* \"#utility.yul\":4404:4413   */\n  not\n    /* \"#utility.yul\":4397:4402   */\n  dup5\n    /* \"#utility.yul\":4393:4414   */\n  and\n    /* \"#utility.yul\":4384:4414   */\n  swap4\n  pop\n    /* \"#utility.yul\":4457:4461   */\n  dup1\n    /* \"#utility.yul\":4447:4455   */\n  dup7\n    /* \"#utility.yul\":4443:4462   */\n  and\n    /* \"#utility.yul\":4436:4441   */\n  dup5\n    /* \"#utility.yul\":4433:4463   */\n  or\n    /* \"#utility.yul\":4423:4463   */\n  swap3\n  pop\n    /* \"#utility.yul\":4152:4469   */\n  pop\n  pop\n    /* \"#utility.yul\":4076:4469   */\n  swap4\n  swap3\n  pop\n  pop\n  pop\n  jump\t// out\n    /* \"#utility.yul\":4475:4552   */\ntag_29:\n    /* \"#utility.yul\":4512:4519   */\n  0x00\n    /* \"#utility.yul\":4541:4546   */\n  dup2\n    /* \"#utility.yul\":4530:4546   */\n  swap1\n  pop\n    /* \"#utility.yul\":4475:4552   */\n  swap2\n  swap1\n  pop\n  jump\t// out\n    /* \"#utility.yul\":4558:4618   */\ntag_30:\n    /* \"#utility.yul\":4586:4589   */\n  0x00\n    /* \"#utility.yul\":4607:4612   */\n  dup2\n    /* \"#utility.yul\":4600:4612   */\n  swap1\n  pop\n    /* \"#utility.yul\":4558:4618   */\n  swap2\n  swap1\n  pop\n  jump\t// out\n    /* \"#utility.yul\":4624:4766   */\ntag_31:\n    /* \"#utility.yul\":4674:4683   */\n  0x00\n    /* \"#utility.yul\":4707:4760   */\n  tag_92\n    /* \"#utility.yul\":4725:4759   */\n  tag_93\n    /* \"#utility.yul\":4734:4758   */\n  tag_94\n    /* \"#utility.yul\":4752:4757   */\n  dup5\n    /* \"#utility.yul\":4734:4758   */\n  tag_29\n  jump\t// in\ntag_94:\n    /* \"#utility.yul\":4725:4759   */\n  tag_30\n  jump\t// in\ntag_93:\n    /* \"#utility.yul\":4707:4760   */\n  tag_29\n  jump\t// in\ntag_92:\n    /* \"#utility.yul\":4694:4760   */\n  swap1\n  pop\n    /* \"#utility.yul\":4624:4766   */\n  swap2\n  swap1\n  pop\n  jump\t// out\n    /* \"#utility.yul\":4772:4847   */\ntag_32:\n    /* \"#utility.yul\":4815:4818   */\n  0x00\n    /* \"#utility.yul\":4836:4841   */\n  dup2\n    /* \"#utility.yul\":4829:4841   */\n  swap1\n  pop\n    /* \"#utility.yul\":4772:4847   */\n  swap2\n  swap1\n  pop\n  jump\t// out\n    /* \"#utility.yul\":4853:5122   */\ntag_33:\n    /* \"#utility.yul\":4963:5002   */\n  tag_97\n    /* \"#utility.yul\":4994:5001   */\n  dup4\n    /* \"#utility.yul\":4963:5002   */\n  tag_31\n  jump\t// in\ntag_97:\n    /* \"#utility.yul\":5024:5115   */\n  tag_98\n    /* \"#utility.yul\":5073:5114   */\n  tag_99\n    /* \"#utility.yul\":5097:5113   */\n  dup3\n    /* \"#utility.yul\":5073:5114   */\n  tag_32\n  jump\t// in\ntag_99:\n    /* \"#utility.yul\":5065:5071   */\n  dup5\n    /* \"#utility.yul\":5058:5062   */\n  dup5\n    /* \"#utility.yul\":5052:5063   */\n  sload\n    /* \"#utility.yul\":5024:5115   */\n  tag_28\n  jump\t// in\ntag_98:\n    /* \"#utility.yul\":5018:5022   */\n  dup3\n    /* \"#utility.yul\":5011:5116   */\n  sstore\n    /* \"#utility.yul\":4929:5122   */\n  pop\n    /* \"#utility.yul\":4853:5122   */\n  pop\n  pop\n  pop\n  jump\t// out\n    /* \"#utility.yul\":5128:5201   */\ntag_34:\n    /* \"#utility.yul\":5173:5176   */\n  0x00\n    /* \"#utility.yul\":5194:5195   */\n  0x00\n    /* \"#utility.yul\":5187:5195   */\n  swap1\n  pop\n    /* \"#utility.yul\":5128:5201   */\n  swap1\n  jump\t// out\n    /* \"#utility.yul\":5207:5396   */\ntag_35:\n    /* \"#utility.yul\":5284:5316   */\n  tag_102\n  tag_34\n  jump\t// in\ntag_102:\n    /* \"#utility.yul\":5325:5390   */\n  tag_103\n    /* \"#utility.yul\":5383:5389   */\n  dup2\n    /* \"#utility.yul\":5375:5381   */\n  dup5\n    /* \"#utility.yul\":5369:5373   */\n  dup5\n    /* \"#utility.yul\":5325:5390   */\n  tag_33\n  jump\t// in\ntag_103:\n    /* \"#utility.yul\":5260:5396   */\n  pop\n    /* \"#utility.yul\":5207:5396   */\n  pop\n  pop\n  jump\t// out\n    /* \"#utility.yul\":5402:5588   */\ntag_36:\n    /* \"#utility.yul\":5462:5582   */\ntag_105:\n    /* \"#utility.yul\":5479:5482   */\n  dup2\n    /* \"#utility.yul\":5472:5477   */\n  dup2\n    /* \"#utility.yul\":5469:5483   */\n  lt\n    /* \"#utility.yul\":5462:5582   */\n  iszero\n  tag_107\n  jumpi\n    /* \"#utility.yul\":5533:5572   */\n  tag_108\n    /* \"#utility.yul\":5570:5571   */\n  0x00\n    /* \"#utility.yul\":5563:5568   */\n  dup3\n    /* \"#utility.yul\":5533:5572   */\n  tag_35\n  jump\t// in\ntag_108:\n    /* \"#utility.yul\":5506:5507   */\n  0x01\n    /* \"#utility.yul\":5499:5504   */\n  dup2\n    /* \"#utility.yul\":5495:5508   */\n  add\n    /* \"#utility.yul\":5486:5508   */\n  swap1\n  pop\n    /* \"#utility.yul\":5462:5582   */\n  jump(tag_105)\ntag_107:\n    /* \"#utility.yul\":5402:5588   */\n  pop\n  pop\n  jump\t// out\n    /* \"#utility.yul\":5594:6137   */\ntag_37:\n    /* \"#utility.yul\":5695:5697   */\n  0x1f\n    /* \"#utility.yul\":5690:5693   */\n  dup3\n    /* \"#utility.yul\":5687:5698   */\n  gt\n    /* \"#utility.yul\":5684:6130   */\n  iszero\n  tag_110\n  jumpi\n    /* \"#utility.yul\":5729:5767   */\n  tag_111\n    /* \"#utility.yul\":5761:5766   */\n  dup2\n    /* \"#utility.yul\":5729:5767   */\n  tag_25\n  jump\t// in\ntag_111:\n    /* \"#utility.yul\":5813:5842   */\n  tag_112\n    /* \"#utility.yul\":5831:5841   */\n  dup5\n    /* \"#utility.yul\":5813:5842   */\n  tag_26\n  jump\t// in\ntag_112:\n    /* \"#utility.yul\":5803:5811   */\n  dup2\n    /* \"#utility.yul\":5799:5843   */\n  add\n    /* \"#utility.yul\":5996:5998   */\n  0x20\n    /* \"#utility.yul\":5984:5994   */\n  dup6\n    /* \"#utility.yul\":5981:5999   */\n  lt\n    /* \"#utility.yul\":5978:6027   */\n  iszero\n  tag_113\n  jumpi\n    /* \"#utility.yul\":6017:6025   */\n  dup2\n    /* \"#utility.yul\":6002:6025   */\n  swap1\n  pop\n    /* \"#utility.yul\":5978:6027   */\ntag_113:\n    /* \"#utility.yul\":6040:6120   */\n  tag_114\n    /* \"#utility.yul\":6096:6118   */\n  tag_115\n    /* \"#utility.yul\":6114:6117   */\n  dup6\n    /* \"#utility.yul\":6096:6118   */\n  tag_26\n  jump\t// in\ntag_115:\n    /* \"#utility.yul\":6086:6094   */\n  dup4\n    /* \"#utility.yul\":6082:6119   */\n  add\n    /* \"#utility.yul\":6069:6080   */\n  dup3\n    /* \"#utility.yul\":6040:6120   */\n  tag_36\n  jump\t// in\ntag_114:\n    /* \"#utility.yul\":5699:6130   */\n  pop\n  pop\n    /* \"#utility.yul\":5684:6130   */\ntag_110:\n    /* \"#utility.yul\":5594:6137   */\n  pop\n  pop\n  pop\n  jump\t// out\n    /* \"#utility.yul\":6143:6260   */\ntag_38:\n    /* \"#utility.yul\":6197:6205   */\n  0x00\n    /* \"#utility.yul\":6247:6252   */\n  dup3\n    /* \"#utility.yul\":6241:6245   */\n  dup3\n    /* \"#utility.yul\":6237:6253   */\n  shr\n    /* \"#utility.yul\":6216:6253   */\n  swap1\n  pop\n    /* \"#utility.yul\":6143:6260   */\n  swap3\n  swap2\n  pop\n  pop\n  jump\t// out\n    /* \"#utility.yul\":6266:6435   */\ntag_39:\n    /* \"#utility.yul\":6310:6316   */\n  0x00\n    /* \"#utility.yul\":6343:6394   */\n  tag_118\n    /* \"#utility.yul\":6391:6392   */\n  0x00\n    /* \"#utility.yul\":6387:6393   */\n  not\n    /* \"#utility.yul\":6379:6384   */\n  dup5\n    /* \"#utility.yul\":6376:6377   */\n  0x08\n    /* \"#utility.yul\":6372:6385   */\n  mul\n    /* \"#utility.yul\":6343:6394   */\n  tag_38\n  jump\t// in\ntag_118:\n    /* \"#utility.yul\":6339:6395   */\n  not\n    /* \"#utility.yul\":6424:6428   */\n  dup1\n    /* \"#utility.yul\":6418:6422   */\n  dup4\n    /* \"#utility.yul\":6414:6429   */\n  and\n    /* \"#utility.yul\":6404:6429   */\n  swap2\n  pop\n    /* \"#utility.yul\":6317:6435   */\n  pop\n    /* \"#utility.yul\":6266:6435   */\n  swap3\n  swap2\n  pop\n  pop\n  jump\t// out\n    /* \"#utility.yul\":6440:6735   */\ntag_40:\n    /* \"#utility.yul\":6516:6520   */\n  0x00\n    /* \"#utility.yul\":6662:6691   */\n  tag_120\n    /* \"#utility.yul\":6687:6690   */\n  dup4\n    /* \"#utility.yul\":6681:6685   */\n  dup4\n    /* \"#utility.yul\":6662:6691   */\n  tag_39\n  jump\t// in\ntag_120:\n    /* \"#utility.yul\":6654:6691   */\n  swap2\n  pop\n    /* \"#utility.yul\":6724:6727   */\n  dup3\n    /* \"#utility.yul\":6721:6722   */\n  0x02\n    /* \"#utility.yul\":6717:6728   */\n  mul\n    /* \"#utility.yul\":6711:6715   */\n  dup3\n    /* \"#utility.yul\":6708:6729   */\n  or\n    /* \"#utility.yul\":6700:6729   */\n  swap1\n  pop\n    /* \"#utility.yul\":6440:6735   */\n  swap3\n  swap2\n  pop\n  pop\n  jump\t// out\n    /* \"#utility.yul\":6740:8135   */\ntag_7:\n    /* \"#utility.yul\":6857:6894   */\n  tag_122\n    /* \"#utility.yul\":6890:6893   */\n  dup3\n    /* \"#utility.yul\":6857:6894   */\n  tag_22\n  jump\t// in\ntag_122:\n    /* \"#utility.yul\":6959:6977   */\n  0xffffffffffffffff\n    /* \"#utility.yul\":6951:6957   */\n  dup2\n    /* \"#utility.yul\":6948:6978   */\n  gt\n    /* \"#utility.yul\":6945:7001   */\n  iszero\n  tag_123\n  jumpi\n    /* \"#utility.yul\":6981:6999   */\n  tag_124\n  tag_15\n  jump\t// in\ntag_124:\n    /* \"#utility.yul\":6945:7001   */\ntag_123:\n    /* \"#utility.yul\":7025:7063   */\n  tag_125\n    /* \"#utility.yul\":7057:7061   */\n  dup3\n    /* \"#utility.yul\":7051:7062   */\n  sload\n    /* \"#utility.yul\":7025:7063   */\n  tag_24\n  jump\t// in\ntag_125:\n    /* \"#utility.yul\":7110:7177   */\n  tag_126\n    /* \"#utility.yul\":7170:7176   */\n  dup3\n    /* \"#utility.yul\":7162:7168   */\n  dup3\n    /* \"#utility.yul\":7156:7160   */\n  dup6\n    /* \"#utility.yul\":7110:7177   */\n  tag_37\n  jump\t// in\ntag_126:\n    /* \"#utility.yul\":7204:7205   */\n  0x00\n    /* \"#utility.yul\":7228:7232   */\n  0x20\n    /* \"#utility.yul\":7215:7232   */\n  swap1\n  pop\n    /* \"#utility.yul\":7260:7262   */\n  0x1f\n    /* \"#utility.yul\":7252:7258   */\n  dup4\n    /* \"#utility.yul\":7249:7263   */\n  gt\n    /* \"#utility.yul\":7277:7278   */\n  0x01\n    /* \"#utility.yul\":7272:7890   */\n  dup2\n  eq\n  tag_128\n  jumpi\n    /* \"#utility.yul\":7934:7935   */\n  0x00\n    /* \"#utility.yul\":7951:7957   */\n  dup5\n    /* \"#utility.yul\":7948:8025   */\n  iszero\n  tag_129\n  jumpi\n    /* \"#utility.yul\":8000:8009   */\n  dup3\n    /* \"#utility.yul\":7995:7998   */\n  dup8\n    /* \"#utility.yul\":7991:8010   */\n  add\n    /* \"#utility.yul\":7985:8011   */\n  mload\n    /* \"#utility.yul\":7976:8011   */\n  swap1\n  pop\n    /* \"#utility.yul\":7948:8025   */\ntag_129:\n    /* \"#utility.yul\":8051:8118   */\n  tag_130\n    /* \"#utility.yul\":8111:8117   */\n  dup6\n    /* \"#utility.yul\":8104:8109   */\n  dup3\n    /* \"#utility.yul\":8051:8118   */\n  tag_40\n  jump\t// in\ntag_130:\n    /* \"#utility.yul\":8045:8049   */\n  dup7\n    /* \"#utility.yul\":8038:8119   */\n  sstore\n    /* \"#utility.yul\":7907:8129   */\n  pop\n    /* \"#utility.yul\":7242:8129   */\n  jump(tag_127)\n    /* \"#utility.yul\":7272:7890   */\ntag_128:\n    /* \"#utility.yul\":7324:7328   */\n  0x1f\n    /* \"#utility.yul\":7320:7329   */\n  not\n    /* \"#utility.yul\":7312:7318   */\n  dup5\n    /* \"#utility.yul\":7308:7330   */\n  and\n    /* \"#utility.yul\":7358:7395   */\n  tag_131\n    /* \"#utility.yul\":7390:7394   */\n  dup7\n    /* \"#utility.yul\":7358:7395   */\n  tag_25\n  jump\t// in\ntag_131:\n    /* \"#utility.yul\":7417:7418   */\n  0x00\n    /* \"#utility.yul\":7431:7639   */\ntag_132:\n    /* \"#utility.yul\":7445:7452   */\n  dup3\n    /* \"#utility.yul\":7442:7443   */\n  dup2\n    /* \"#utility.yul\":7439:7453   */\n  lt\n    /* \"#utility.yul\":7431:7639   */\n  iszero\n  tag_134\n  jumpi\n    /* \"#utility.yul\":7524:7533   */\n  dup5\n    /* \"#utility.yul\":7519:7522   */\n  dup10\n    /* \"#utility.yul\":7515:7534   */\n  add\n    /* \"#utility.yul\":7509:7535   */\n  mload\n    /* \"#utility.yul\":7501:7507   */\n  dup3\n    /* \"#utility.yul\":7494:7536   */\n  sstore\n    /* \"#utility.yul\":7575:7576   */\n  0x01\n    /* \"#utility.yul\":7567:7573   */\n  dup3\n    /* \"#utility.yul\":7563:7577   */\n  add\n    /* \"#utility.yul\":7553:7577   */\n  swap2\n  pop\n    /* \"#utility.yul\":7622:7624   */\n  0x20\n    /* \"#utility.yul\":7611:7620   */\n  dup6\n    /* \"#utility.yul\":7607:7625   */\n  add\n    /* \"#utility.yul\":7594:7625   */\n  swap5\n  pop\n    /* \"#utility.yul\":7468:7472   */\n  0x20\n    /* \"#utility.yul\":7465:7466   */\n  dup2\n    /* \"#utility.yul\":7461:7473   */\n  add\n    /* \"#utility.yul\":7456:7473   */\n  swap1\n  pop\n    /* \"#utility.yul\":7431:7639   */\n  jump(tag_132)\ntag_134:\n    /* \"#utility.yul\":7667:7673   */\n  dup7\n    /* \"#utility.yul\":7658:7665   */\n  dup4\n    /* \"#utility.yul\":7655:7674   */\n  lt\n    /* \"#utility.yul\":7652:7831   */\n  iszero\n  tag_135\n  jumpi\n    /* \"#utility.yul\":7725:7734   */\n  dup5\n    /* \"#utility.yul\":7720:7723   */\n  dup10\n    /* \"#utility.yul\":7716:7735   */\n  add\n    /* \"#utility.yul\":7710:7736   */\n  mload\n    /* \"#utility.yul\":7768:7816   */\n  tag_136\n    /* \"#utility.yul\":7810:7814   */\n  0x1f\n    /* \"#utility.yul\":7802:7808   */\n  dup10\n    /* \"#utility.yul\":7798:7815   */\n  and\n    /* \"#utility.yul\":7787:7796   */\n  dup3\n    /* \"#utility.yul\":7768:7816   */\n  tag_39\n  jump\t// in\ntag_136:\n    /* \"#utility.yul\":7760:7766   */\n  dup4\n    /* \"#utility.yul\":7753:7817   */\n  sstore\n    /* \"#utility.yul\":7675:7831   */\n  pop\n    /* \"#utility.yul\":7652:7831   */\ntag_135:\n    /* \"#utility.yul\":7877:7878   */\n  0x01\n    /* \"#utility.yul\":7873:7874   */\n  0x02\n    /* \"#utility.yul\":7865:7871   */\n  dup9\n    /* \"#utility.yul\":7861:7875   */\n  mul\n    /* \"#utility.yul\":7857:7879   */\n  add\n    /* \"#utility.yul\":7851:7855   */\n  dup9\n    /* \"#utility.yul\":7844:7880   */\n  sstore\n    /* \"#utility.yul\":7279:7890   */\n  pop\n  pop\n  pop\n    /* \"#utility.yul\":7242:8129   */\ntag_127:\n  pop\n    /* \"#utility.yul\":6832:8135   */\n  pop\n  pop\n  pop\n    /* \"#utility.yul\":6740:8135   */\n  pop\n  pop\n  jump\t// out\n    /* \"contracts/DecentralizedVoting.sol\":61:3582  contract DecentralizedVoting {... */\ntag_8:\n  dataSize(sub_0)\n  dup1\n  dataOffset(sub_0)\n  0x00\n  codecopy\n  0x00\n  return\nstop\n\nsub_0: assembly {\n        /* \"contracts/DecentralizedVoting.sol\":61:3582  contract DecentralizedVoting {... */\n      mstore(0x40, 0x80)\n      callvalue\n      dup1\n      iszero\n      tag_1\n      jumpi\n      revert(0x00, 0x00)\n    tag_1:\n      pop\n      jumpi(tag_2, lt(calldatasize, 0x04))\n      shr(0xe0, calldataload(0x00))\n      dup1\n      0x85e8e7a7\n      gt\n      tag_17\n      jumpi\n      dup1\n      0xa3ec138d\n      gt\n      tag_18\n      jumpi\n      dup1\n      0xa3ec138d\n      eq\n      tag_13\n      jumpi\n      dup1\n      0xa95824b4\n      eq\n      tag_14\n      jumpi\n      dup1\n      0xaffc0670\n      eq\n      tag_15\n      jumpi\n      dup1\n      0xc631b292\n      eq\n      tag_16\n      jumpi\n      jump(tag_2)\n    tag_18:\n      dup1\n      0x85e8e7a7\n      eq\n      tag_10\n      jumpi\n      dup1\n      0x8da5cb5b\n      eq\n      tag_11\n      jumpi\n      dup1\n      0x8e7ea5b2\n      eq\n      tag_12\n      jumpi\n      jump(tag_2)\n    tag_17:\n      dup1\n      0x3477ee2e\n      gt\n      tag_19\n      jumpi\n      dup1\n      0x3477ee2e\n      eq\n      tag_6\n      jumpi\n      dup1\n      0x38db6dd3\n      eq\n      tag_7\n      jumpi\n      dup1\n      0x462e91ec\n      eq\n      tag_8\n      jumpi\n      dup1\n      0x4717f97c\n      eq\n      tag_9\n      jumpi\n      jump(tag_2)\n    tag_19:\n      dup1\n      0x0121b93f\n      eq\n      tag_3\n      jumpi\n      dup1\n      0x0d15fd77\n      eq\n      tag_4\n      jumpi\n      dup1\n      0x2d35a8a2\n      eq\n      tag_5\n      jumpi\n    tag_2:\n      revert(0x00, 0x00)\n        /* \"contracts/DecentralizedVoting.sol\":2135:2647  function vote(uint _candidateId) public onlyWhenVotingOpen onlyRegisteredVoter {... */\n    tag_3:\n      tag_20\n      0x04\n      dup1\n      calldatasize\n      sub\n      dup2\n      add\n      swap1\n      tag_21\n      swap2\n      swap1\n      tag_22\n      jump\t// in\n    tag_21:\n      tag_23\n      jump\t// in\n    tag_20:\n      stop\n        /* \"contracts/DecentralizedVoting.sol\":548:570  uint public totalVotes */\n    tag_4:\n      tag_24\n      tag_25\n      jump\t// in\n    tag_24:\n      mload(0x40)\n      tag_26\n      swap2\n      swap1\n      tag_27\n      jump\t// in\n    tag_26:\n      mload(0x40)\n      dup1\n      swap2\n      sub\n      swap1\n      return\n        /* \"contracts/DecentralizedVoting.sol\":514:541  uint public candidatesCount */\n    tag_5:\n      tag_28\n      tag_29\n      jump\t// in\n    tag_28:\n      mload(0x40)\n      tag_30\n      swap2\n      swap1\n      tag_27\n      jump\t// in\n    tag_30:\n      mload(0x40)\n      dup1\n      swap2\n      sub\n      swap1\n      return\n        /* \"contracts/DecentralizedVoting.sol\":411:455  mapping(uint => Candidate) public candidates */\n    tag_6:\n      tag_31\n      0x04\n      dup1\n      calldatasize\n      sub\n      dup2\n      add\n      swap1\n      tag_32\n      swap2\n      swap1\n      tag_22\n      jump\t// in\n    tag_32:\n      tag_33\n      jump\t// in\n    tag_31:\n      mload(0x40)\n      tag_34\n      swap4\n      swap3\n      swap2\n      swap1\n      tag_35\n      jump\t// in\n    tag_34:\n      mload(0x40)\n      dup1\n      swap2\n      sub\n      swap1\n      return\n        /* \"contracts/DecentralizedVoting.sol\":1570:1798  function registerVoter(address _voter) public onlyOwner {... */\n    tag_7:\n      tag_36\n      0x04\n      dup1\n      calldatasize\n      sub\n      dup2\n      add\n      swap1\n      tag_37\n      swap2\n      swap1\n      tag_38\n      jump\t// in\n    tag_37:\n      tag_39\n      jump\t// in\n    tag_36:\n      stop\n        /* \"contracts/DecentralizedVoting.sol\":1331:1558  function addCandidate(string memory _name) public onlyOwner {... */\n    tag_8:\n      tag_40\n      0x04\n      dup1\n      calldatasize\n      sub\n      dup2\n      add\n      swap1\n      tag_41\n      swap2\n      swap1\n      tag_42\n      jump\t// in\n    tag_41:\n      tag_43\n      jump\t// in\n    tag_40:\n      stop\n        /* \"contracts/DecentralizedVoting.sol\":2659:3001  function getResults() public view returns (Candidate[] memory) {... */\n    tag_9:\n      tag_44\n      tag_45\n      jump\t// in\n    tag_44:\n      mload(0x40)\n      tag_46\n      swap2\n      swap1\n      tag_47\n      jump\t// in\n    tag_46:\n      mload(0x40)\n      dup1\n      swap2\n      sub\n      swap1\n      return\n        /* \"contracts/DecentralizedVoting.sol\":343:369  string public electionName */\n    tag_10:\n      tag_48\n      tag_49\n      jump\t// in\n    tag_48:\n      mload(0x40)\n      tag_50\n      swap2\n      swap1\n      tag_51\n      jump\t// in\n    tag_50:\n      mload(0x40)\n      dup1\n      swap2\n      sub\n      swap1\n      return\n        /* \"contracts/DecentralizedVoting.sol\":316:336  address public owner */\n    tag_11:\n      tag_52\n      tag_53\n      jump\t// in\n    tag_52:\n      mload(0x40)\n      tag_54\n      swap2\n      swap1\n      tag_55\n      jump\t// in\n    tag_54:\n      mload(0x40)\n      dup1\n      swap2\n      sub\n      swap1\n      return\n        /* \"contracts/DecentralizedVoting.sol\":3013:3579  function getWinner() public view returns (string memory winnerName, uint winnerVotes) {... */\n    tag_12:\n      tag_56\n      tag_57\n      jump\t// in\n    tag_56:\n      mload(0x40)\n      tag_58\n      swap3\n      swap2\n      swap1\n      tag_59\n      jump\t// in\n    tag_58:\n      mload(0x40)\n      dup1\n      swap2\n      sub\n      swap1\n      return\n        /* \"contracts/DecentralizedVoting.sol\":462:501  mapping(address => Voter) public voters */\n    tag_13:\n      tag_60\n      0x04\n      dup1\n      calldatasize\n      sub\n      dup2\n      add\n      swap1\n      tag_61\n      swap2\n      swap1\n      tag_38\n      jump\t// in\n    tag_61:\n      tag_62\n      jump\t// in\n    tag_60:\n      mload(0x40)\n      tag_63\n      swap4\n      swap3\n      swap2\n      swap1\n      tag_64\n      jump\t// in\n    tag_63:\n      mload(0x40)\n      dup1\n      swap2\n      sub\n      swap1\n      return\n        /* \"contracts/DecentralizedVoting.sol\":376:398  bool public votingOpen */\n    tag_14:\n      tag_65\n      tag_66\n      jump\t// in\n    tag_65:\n      mload(0x40)\n      tag_67\n      swap2\n      swap1\n      tag_68\n      jump\t// in\n    tag_67:\n      mload(0x40)\n      dup1\n      swap2\n      sub\n      swap1\n      return\n        /* \"contracts/DecentralizedVoting.sol\":1810:1992  function openVoting() public onlyOwner {... */\n    tag_15:\n      tag_69\n      tag_70\n      jump\t// in\n    tag_69:\n      stop\n        /* \"contracts/DecentralizedVoting.sol\":2004:2123  function closeVoting() public onlyOwner {... */\n    tag_16:\n      tag_71\n      tag_72\n      jump\t// in\n    tag_71:\n      stop\n        /* \"contracts/DecentralizedVoting.sol\":2135:2647  function vote(uint _candidateId) public onlyWhenVotingOpen onlyRegisteredVoter {... */\n    tag_23:\n        /* \"contracts/DecentralizedVoting.sol\":967:977  votingOpen */\n      0x02\n      0x00\n      swap1\n      sload\n      swap1\n      0x0100\n      exp\n      swap1\n      div\n      0xff\n      and\n        /* \"contracts/DecentralizedVoting.sol\":959:1000  require(votingOpen, \"Voting is not open\") */\n      tag_74\n      jumpi\n      mload(0x40)\n      0x08c379a000000000000000000000000000000000000000000000000000000000\n      dup2\n      mstore\n      0x04\n      add\n      tag_75\n      swap1\n      tag_76\n      jump\t// in\n    tag_75:\n      mload(0x40)\n      dup1\n      swap2\n      sub\n      swap1\n      revert\n    tag_74:\n        /* \"contracts/DecentralizedVoting.sol\":1082:1088  voters */\n      0x04\n        /* \"contracts/DecentralizedVoting.sol\":1082:1100  voters[msg.sender] */\n      0x00\n        /* \"contracts/DecentralizedVoting.sol\":1089:1099  msg.sender */\n      caller\n        /* \"contracts/DecentralizedVoting.sol\":1082:1100  voters[msg.sender] */\n      0xffffffffffffffffffffffffffffffffffffffff\n      and\n      0xffffffffffffffffffffffffffffffffffffffff\n      and\n      dup2\n      mstore\n      0x20\n      add\n      swap1\n      dup2\n      mstore\n      0x20\n      add\n      0x00\n      keccak256\n        /* \"contracts/DecentralizedVoting.sol\":1082:1113  voters[msg.sender].isRegistered */\n      0x02\n      add\n      0x00\n      swap1\n      sload\n      swap1\n      0x0100\n      exp\n      swap1\n      div\n      0xff\n      and\n        /* \"contracts/DecentralizedVoting.sol\":1074:1141  require(voters[msg.sender].isRegistered, \"Voter is not registered\") */\n      tag_78\n      jumpi\n      mload(0x40)\n      0x08c379a000000000000000000000000000000000000000000000000000000000\n      dup2\n      mstore\n      0x04\n      add\n      tag_79\n      swap1\n      tag_80\n      jump\t// in\n    tag_79:\n      mload(0x40)\n      dup1\n      swap2\n      sub\n      swap1\n      revert\n    tag_78:\n        /* \"contracts/DecentralizedVoting.sol\":2234:2240  voters */\n      0x04\n        /* \"contracts/DecentralizedVoting.sol\":2234:2252  voters[msg.sender] */\n      0x00\n        /* \"contracts/DecentralizedVoting.sol\":2241:2251  msg.sender */\n      caller\n        /* \"contracts/DecentralizedVoting.sol\":2234:2252  voters[msg.sender] */\n      0xffffffffffffffffffffffffffffffffffffffff\n      and\n      0xffffffffffffffffffffffffffffffffffffffff\n      and\n      dup2\n      mstore\n      0x20\n      add\n      swap1\n      dup2\n      mstore\n      0x20\n      add\n      0x00\n      keccak256\n        /* \"contracts/DecentralizedVoting.sol\":2234:2261  voters[msg.sender].hasVoted */\n      0x00\n      add\n      0x00\n      swap1\n      sload\n      swap1\n      0x0100\n      exp\n      swap1\n      div\n      0xff\n      and\n        /* \"contracts/DecentralizedVoting.sol\":2233:2261  !voters[msg.sender].hasVoted */\n      iszero\n        /* \"contracts/DecentralizedVoting.sol\":2225:2288  require(!voters[msg.sender].hasVoted, \"You have already voted\") */\n      tag_82\n      jumpi\n      mload(0x40)\n      0x08c379a000000000000000000000000000000000000000000000000000000000\n      dup2\n      mstore\n      0x04\n      add\n      tag_83\n      swap1\n      tag_84\n      jump\t// in\n    tag_83:\n      mload(0x40)\n      dup1\n      swap2\n      sub\n      swap1\n      revert\n    tag_82:\n        /* \"contracts/DecentralizedVoting.sol\":2322:2323  0 */\n      0x00\n        /* \"contracts/DecentralizedVoting.sol\":2307:2319  _candidateId */\n      dup2\n        /* \"contracts/DecentralizedVoting.sol\":2307:2323  _candidateId > 0 */\n      gt\n        /* \"contracts/DecentralizedVoting.sol\":2307:2358  _candidateId > 0 && _candidateId <= candidatesCount */\n      dup1\n      iszero\n      tag_85\n      jumpi\n      pop\n        /* \"contracts/DecentralizedVoting.sol\":2343:2358  candidatesCount */\n      sload(0x05)\n        /* \"contracts/DecentralizedVoting.sol\":2327:2339  _candidateId */\n      dup2\n        /* \"contracts/DecentralizedVoting.sol\":2327:2358  _candidateId <= candidatesCount */\n      gt\n      iszero\n        /* \"contracts/DecentralizedVoting.sol\":2307:2358  _candidateId > 0 && _candidateId <= candidatesCount */\n    tag_85:\n        /* \"contracts/DecentralizedVoting.sol\":2299:2383  require(_candidateId > 0 && _candidateId <= candidatesCount, \"Invalid candidate ID\") */\n      tag_86\n      jumpi\n      mload(0x40)\n      0x08c379a000000000000000000000000000000000000000000000000000000000\n      dup2\n      mstore\n      0x04\n      add\n      tag_87\n      swap1\n      tag_88\n      jump\t// in\n    tag_87:\n      mload(0x40)\n      dup1\n      swap2\n      sub\n      swap1\n      revert\n    tag_86:\n        /* \"contracts/DecentralizedVoting.sol\":2434:2438  true */\n      0x01\n        /* \"contracts/DecentralizedVoting.sol\":2404:2410  voters */\n      0x04\n        /* \"contracts/DecentralizedVoting.sol\":2404:2422  voters[msg.sender] */\n      0x00\n        /* \"contracts/DecentralizedVoting.sol\":2411:2421  msg.sender */\n      caller\n        /* \"contracts/DecentralizedVoting.sol\":2404:2422  voters[msg.sender] */\n      0xffffffffffffffffffffffffffffffffffffffff\n      and\n      0xffffffffffffffffffffffffffffffffffffffff\n      and\n      dup2\n      mstore\n      0x20\n      add\n      swap1\n      dup2\n      mstore\n      0x20\n      add\n      0x00\n      keccak256\n        /* \"contracts/DecentralizedVoting.sol\":2404:2431  voters[msg.sender].hasVoted */\n      0x00\n      add\n      0x00\n        /* \"contracts/DecentralizedVoting.sol\":2404:2438  voters[msg.sender].hasVoted = true */\n      0x0100\n      exp\n      dup2\n      sload\n      dup2\n      0xff\n      mul\n      not\n      and\n      swap1\n      dup4\n      iszero\n      iszero\n      mul\n      or\n      swap1\n      sstore\n      pop\n        /* \"contracts/DecentralizedVoting.sol\":2487:2499  _candidateId */\n      dup1\n        /* \"contracts/DecentralizedVoting.sol\":2449:2455  voters */\n      0x04\n        /* \"contracts/DecentralizedVoting.sol\":2449:2467  voters[msg.sender] */\n      0x00\n        /* \"contracts/DecentralizedVoting.sol\":2456:2466  msg.sender */\n      caller\n        /* \"contracts/DecentralizedVoting.sol\":2449:2467  voters[msg.sender] */\n      0xffffffffffffffffffffffffffffffffffffffff\n      and\n      0xffffffffffffffffffffffffffffffffffffffff\n      and\n      dup2\n      mstore\n      0x20\n      add\n      swap1\n      dup2\n      mstore\n      0x20\n      add\n      0x00\n      keccak256\n        /* \"contracts/DecentralizedVoting.sol\":2449:2484  voters[msg.sender].votedCandidateId */\n      0x01\n      add\n        /* \"contracts/DecentralizedVoting.sol\":2449:2499  voters[msg.sender].votedCandidateId = _candidateId */\n      dup2\n      swap1\n      sstore\n      pop\n        /* \"contracts/DecentralizedVoting.sol\":2520:2530  candidates */\n      0x03\n        /* \"contracts/DecentralizedVoting.sol\":2520:2544  candidates[_candidateId] */\n      0x00\n        /* \"contracts/DecentralizedVoting.sol\":2531:2543  _candidateId */\n      dup3\n        /* \"contracts/DecentralizedVoting.sol\":2520:2544  candidates[_candidateId] */\n      dup2\n      mstore\n      0x20\n      add\n      swap1\n      dup2\n      mstore\n      0x20\n      add\n      0x00\n      keccak256\n        /* \"contracts/DecentralizedVoting.sol\":2520:2554  candidates[_candidateId].voteCount */\n      0x02\n      add\n      0x00\n        /* \"contracts/DecentralizedVoting.sol\":2520:2556  candidates[_candidateId].voteCount++ */\n      dup2\n      sload\n      dup1\n      swap3\n      swap2\n      swap1\n      tag_89\n      swap1\n      tag_90\n      jump\t// in\n    tag_89:\n      swap2\n      swap1\n      pop\n      sstore\n      pop\n        /* \"contracts/DecentralizedVoting.sol\":2567:2577  totalVotes */\n      0x06\n      0x00\n        /* \"contracts/DecentralizedVoting.sol\":2567:2579  totalVotes++ */\n      dup2\n      sload\n      dup1\n      swap3\n      swap2\n      swap1\n      tag_91\n      swap1\n      tag_90\n      jump\t// in\n    tag_91:\n      swap2\n      swap1\n      pop\n      sstore\n      pop\n        /* \"contracts/DecentralizedVoting.sol\":2605:2639  VoteCast(msg.sender, _candidateId) */\n      0xa36cc2bebb74db33e9f88110a07ef56e1b31b24b4c4f51b54b1664266e29f45b\n        /* \"contracts/DecentralizedVoting.sol\":2614:2624  msg.sender */\n      caller\n        /* \"contracts/DecentralizedVoting.sol\":2626:2638  _candidateId */\n      dup3\n        /* \"contracts/DecentralizedVoting.sol\":2605:2639  VoteCast(msg.sender, _candidateId) */\n      mload(0x40)\n      tag_92\n      swap3\n      swap2\n      swap1\n      tag_93\n      jump\t// in\n    tag_92:\n      mload(0x40)\n      dup1\n      swap2\n      sub\n      swap1\n      log1\n        /* \"contracts/DecentralizedVoting.sol\":2135:2647  function vote(uint _candidateId) public onlyWhenVotingOpen onlyRegisteredVoter {... */\n      pop\n      jump\t// out\n        /* \"contracts/DecentralizedVoting.sol\":548:570  uint public totalVotes */\n    tag_25:\n      sload(0x06)\n      dup2\n      jump\t// out\n        /* \"contracts/DecentralizedVoting.sol\":514:541  uint public candidatesCount */\n    tag_29:\n      sload(0x05)\n      dup2\n      jump\t// out\n        /* \"contracts/DecentralizedVoting.sol\":411:455  mapping(uint => Candidate) public candidates */\n    tag_33:\n      mstore(0x20, 0x03)\n      dup1\n      0x00\n      mstore\n      keccak256(0x00, 0x40)\n      0x00\n      swap2\n      pop\n      swap1\n      pop\n      dup1\n      0x00\n      add\n      sload\n      swap1\n      dup1\n      0x01\n      add\n      dup1\n      sload\n      tag_94\n      swap1\n      tag_95\n      jump\t// in\n    tag_94:\n      dup1\n      0x1f\n      add\n      0x20\n      dup1\n      swap2\n      div\n      mul\n      0x20\n      add\n      mload(0x40)\n      swap1\n      dup2\n      add\n      0x40\n      mstore\n      dup1\n      swap3\n      swap2\n      swap1\n      dup2\n      dup2\n      mstore\n      0x20\n      add\n      dup3\n      dup1\n      sload\n      tag_96\n      swap1\n      tag_95\n      jump\t// in\n    tag_96:\n      dup1\n      iszero\n      tag_97\n      jumpi\n      dup1\n      0x1f\n      lt\n      tag_98\n      jumpi\n      0x0100\n      dup1\n      dup4\n      sload\n      div\n      mul\n      dup4\n      mstore\n      swap2\n      0x20\n      add\n      swap2\n      jump(tag_97)\n    tag_98:\n      dup3\n      add\n      swap2\n      swap1\n      0x00\n      mstore\n      keccak256(0x00, 0x20)\n      swap1\n    tag_99:\n      dup2\n      sload\n      dup2\n      mstore\n      swap1\n      0x01\n      add\n      swap1\n      0x20\n      add\n      dup1\n      dup4\n      gt\n      tag_99\n      jumpi\n      dup3\n      swap1\n      sub\n      0x1f\n      and\n      dup3\n      add\n      swap2\n    tag_97:\n      pop\n      pop\n      pop\n      pop\n      pop\n      swap1\n      dup1\n      0x02\n      add\n      sload\n      swap1\n      pop\n      dup4\n      jump\t// out\n        /* \"contracts/DecentralizedVoting.sol\":1570:1798  function registerVoter(address _voter) public onlyOwner {... */\n    tag_39:\n        /* \"contracts/DecentralizedVoting.sol\":843:848  owner */\n      0x00\n      0x00\n      swap1\n      sload\n      swap1\n      0x0100\n      exp\n      swap1\n      div\n      0xffffffffffffffffffffffffffffffffffffffff\n      and\n        /* \"contracts/DecentralizedVoting.sol\":829:848  msg.sender == owner */\n      0xffffffffffffffffffffffffffffffffffffffff\n      and\n        /* \"contracts/DecentralizedVoting.sol\":829:839  msg.sender */\n      caller\n        /* \"contracts/DecentralizedVoting.sol\":829:848  msg.sender == owner */\n      0xffffffffffffffffffffffffffffffffffffffff\n      and\n      eq\n        /* \"contracts/DecentralizedVoting.sol\":821:886  require(msg.sender == owner, \"Only owner can call this function\") */\n      tag_101\n      jumpi\n      mload(0x40)\n      0x08c379a000000000000000000000000000000000000000000000000000000000\n      dup2\n      mstore\n      0x04\n      add\n      tag_102\n      swap1\n      tag_103\n      jump\t// in\n    tag_102:\n      mload(0x40)\n      dup1\n      swap2\n      sub\n      swap1\n      revert\n    tag_101:\n        /* \"contracts/DecentralizedVoting.sol\":1646:1652  voters */\n      0x04\n        /* \"contracts/DecentralizedVoting.sol\":1646:1660  voters[_voter] */\n      0x00\n        /* \"contracts/DecentralizedVoting.sol\":1653:1659  _voter */\n      dup3\n        /* \"contracts/DecentralizedVoting.sol\":1646:1660  voters[_voter] */\n      0xffffffffffffffffffffffffffffffffffffffff\n      and\n      0xffffffffffffffffffffffffffffffffffffffff\n      and\n      dup2\n      mstore\n      0x20\n      add\n      swap1\n      dup2\n      mstore\n      0x20\n      add\n      0x00\n      keccak256\n        /* \"contracts/DecentralizedVoting.sol\":1646:1673  voters[_voter].isRegistered */\n      0x02\n      add\n      0x00\n      swap1\n      sload\n      swap1\n      0x0100\n      exp\n      swap1\n      div\n      0xff\n      and\n        /* \"contracts/DecentralizedVoting.sol\":1645:1673  !voters[_voter].isRegistered */\n      iszero\n        /* \"contracts/DecentralizedVoting.sol\":1637:1702  require(!voters[_voter].isRegistered, \"Voter already registered\") */\n      tag_105\n      jumpi\n      mload(0x40)\n      0x08c379a000000000000000000000000000000000000000000000000000000000\n      dup2\n      mstore\n      0x04\n      add\n      tag_106\n      swap1\n      tag_107\n      jump\t// in\n    tag_106:\n      mload(0x40)\n      dup1\n      swap2\n      sub\n      swap1\n      revert\n    tag_105:\n        /* \"contracts/DecentralizedVoting.sol\":1730:1751  Voter(false, 0, true) */\n      mload(0x40)\n      dup1\n      0x60\n      add\n      0x40\n      mstore\n      dup1\n        /* \"contracts/DecentralizedVoting.sol\":1736:1741  false */\n      0x00\n        /* \"contracts/DecentralizedVoting.sol\":1730:1751  Voter(false, 0, true) */\n      iszero\n      iszero\n      dup2\n      mstore\n      0x20\n      add\n        /* \"contracts/DecentralizedVoting.sol\":1743:1744  0 */\n      0x00\n        /* \"contracts/DecentralizedVoting.sol\":1730:1751  Voter(false, 0, true) */\n      dup2\n      mstore\n      0x20\n      add\n        /* \"contracts/DecentralizedVoting.sol\":1746:1750  true */\n      0x01\n        /* \"contracts/DecentralizedVoting.sol\":1730:1751  Voter(false, 0, true) */\n      iszero\n      iszero\n      dup2\n      mstore\n      pop\n        /* \"contracts/DecentralizedVoting.sol\":1713:1719  voters */\n      0x04\n        /* \"contracts/DecentralizedVoting.sol\":1713:1727  voters[_voter] */\n      0x00\n        /* \"contracts/DecentralizedVoting.sol\":1720:1726  _voter */\n      dup4\n        /* \"contracts/DecentralizedVoting.sol\":1713:1727  voters[_voter] */\n      0xffffffffffffffffffffffffffffffffffffffff\n      and\n      0xffffffffffffffffffffffffffffffffffffffff\n      and\n      dup2\n      mstore\n      0x20\n      add\n      swap1\n      dup2\n      mstore\n      0x20\n      add\n      0x00\n      keccak256\n        /* \"contracts/DecentralizedVoting.sol\":1713:1751  voters[_voter] = Voter(false, 0, true) */\n      0x00\n      dup3\n      add\n      mload\n      dup2\n      0x00\n      add\n      exp(0x0100, 0x00)\n      dup2\n      sload\n      dup2\n      0xff\n      mul\n      not\n      and\n      swap1\n      dup4\n      iszero\n      iszero\n      mul\n      or\n      swap1\n      sstore\n      pop\n      0x20\n      dup3\n      add\n      mload\n      dup2\n      0x01\n      add\n      sstore\n      0x40\n      dup3\n      add\n      mload\n      dup2\n      0x02\n      add\n      exp(0x0100, 0x00)\n      dup2\n      sload\n      dup2\n      0xff\n      mul\n      not\n      and\n      swap1\n      dup4\n      iszero\n      iszero\n      mul\n      or\n      swap1\n      sstore\n      pop\n      swap1\n      pop\n      pop\n        /* \"contracts/DecentralizedVoting.sol\":1767:1790  VoterRegistered(_voter) */\n      0xb6be2187d059cc2a55fe29e0e503b566e1e0f8c8780096e185429350acffd3dd\n        /* \"contracts/DecentralizedVoting.sol\":1783:1789  _voter */\n      dup2\n        /* \"contracts/DecentralizedVoting.sol\":1767:1790  VoterRegistered(_voter) */\n      mload(0x40)\n      tag_108\n      swap2\n      swap1\n      tag_55\n      jump\t// in\n    tag_108:\n      mload(0x40)\n      dup1\n      swap2\n      sub\n      swap1\n      log1\n        /* \"contracts/DecentralizedVoting.sol\":1570:1798  function registerVoter(address _voter) public onlyOwner {... */\n      pop\n      jump\t// out\n        /* \"contracts/DecentralizedVoting.sol\":1331:1558  function addCandidate(string memory _name) public onlyOwner {... */\n    tag_43:\n        /* \"contracts/DecentralizedVoting.sol\":843:848  owner */\n      0x00\n      0x00\n      swap1\n      sload\n      swap1\n      0x0100\n      exp\n      swap1\n      div\n      0xffffffffffffffffffffffffffffffffffffffff\n      and\n        /* \"contracts/DecentralizedVoting.sol\":829:848  msg.sender == owner */\n      0xffffffffffffffffffffffffffffffffffffffff\n      and\n        /* \"contracts/DecentralizedVoting.sol\":829:839  msg.sender */\n      caller\n        /* \"contracts/DecentralizedVoting.sol\":829:848  msg.sender == owner */\n      0xffffffffffffffffffffffffffffffffffffffff\n      and\n      eq\n        /* \"contracts/DecentralizedVoting.sol\":821:886  require(msg.sender == owner, \"Only owner can call this function\") */\n      tag_110\n      jumpi\n      mload(0x40)\n      0x08c379a000000000000000000000000000000000000000000000000000000000\n      dup2\n      mstore\n      0x04\n      add\n      tag_111\n      swap1\n      tag_103\n      jump\t// in\n    tag_111:\n      mload(0x40)\n      dup1\n      swap2\n      sub\n      swap1\n      revert\n    tag_110:\n        /* \"contracts/DecentralizedVoting.sol\":1402:1417  candidatesCount */\n      0x05\n      0x00\n        /* \"contracts/DecentralizedVoting.sol\":1402:1419  candidatesCount++ */\n      dup2\n      sload\n      dup1\n      swap3\n      swap2\n      swap1\n      tag_113\n      swap1\n      tag_90\n      jump\t// in\n    tag_113:\n      swap2\n      swap1\n      pop\n      sstore\n      pop\n        /* \"contracts/DecentralizedVoting.sol\":1460:1496  Candidate(candidatesCount, _name, 0) */\n      mload(0x40)\n      dup1\n      0x60\n      add\n      0x40\n      mstore\n      dup1\n        /* \"contracts/DecentralizedVoting.sol\":1470:1485  candidatesCount */\n      sload(0x05)\n        /* \"contracts/DecentralizedVoting.sol\":1460:1496  Candidate(candidatesCount, _name, 0) */\n      dup2\n      mstore\n      0x20\n      add\n        /* \"contracts/DecentralizedVoting.sol\":1487:1492  _name */\n      dup3\n        /* \"contracts/DecentralizedVoting.sol\":1460:1496  Candidate(candidatesCount, _name, 0) */\n      dup2\n      mstore\n      0x20\n      add\n        /* \"contracts/DecentralizedVoting.sol\":1494:1495  0 */\n      0x00\n        /* \"contracts/DecentralizedVoting.sol\":1460:1496  Candidate(candidatesCount, _name, 0) */\n      dup2\n      mstore\n      pop\n        /* \"contracts/DecentralizedVoting.sol\":1430:1440  candidates */\n      0x03\n        /* \"contracts/DecentralizedVoting.sol\":1430:1457  candidates[candidatesCount] */\n      0x00\n        /* \"contracts/DecentralizedVoting.sol\":1441:1456  candidatesCount */\n      sload(0x05)\n        /* \"contracts/DecentralizedVoting.sol\":1430:1457  candidates[candidatesCount] */\n      dup2\n      mstore\n      0x20\n      add\n      swap1\n      dup2\n      mstore\n      0x20\n      add\n      0x00\n      keccak256\n        /* \"contracts/DecentralizedVoting.sol\":1430:1496  candidates[candidatesCount] = Candidate(candidatesCount, _name, 0) */\n      0x00\n      dup3\n      add\n      mload\n      dup2\n      0x00\n      add\n      sstore\n      0x20\n      dup3\n      add\n      mload\n      dup2\n      0x01\n      add\n      swap1\n      dup2\n      tag_114\n      swap2\n      swap1\n      tag_115\n      jump\t// in\n    tag_114:\n      pop\n      0x40\n      dup3\n      add\n      mload\n      dup2\n      0x02\n      add\n      sstore\n      swap1\n      pop\n      pop\n        /* \"contracts/DecentralizedVoting.sol\":1512:1550  CandidateAdded(candidatesCount, _name) */\n      0xe83b2a43e7e82d975c8a0a6d2f045153c869e111136a34d1889ab7b598e396a3\n        /* \"contracts/DecentralizedVoting.sol\":1527:1542  candidatesCount */\n      sload(0x05)\n        /* \"contracts/DecentralizedVoting.sol\":1544:1549  _name */\n      dup3\n        /* \"contracts/DecentralizedVoting.sol\":1512:1550  CandidateAdded(candidatesCount, _name) */\n      mload(0x40)\n      tag_116\n      swap3\n      swap2\n      swap1\n      tag_117\n      jump\t// in\n    tag_116:\n      mload(0x40)\n      dup1\n      swap2\n      sub\n      swap1\n      log1\n        /* \"contracts/DecentralizedVoting.sol\":1331:1558  function addCandidate(string memory _name) public onlyOwner {... */\n      pop\n      jump\t// out\n        /* \"contracts/DecentralizedVoting.sol\":2659:3001  function getResults() public view returns (Candidate[] memory) {... */\n    tag_45:\n        /* \"contracts/DecentralizedVoting.sol\":2702:2720  Candidate[] memory */\n      0x60\n        /* \"contracts/DecentralizedVoting.sol\":2742:2752  votingOpen */\n      0x02\n      0x00\n      swap1\n      sload\n      swap1\n      0x0100\n      exp\n      swap1\n      div\n      0xff\n      and\n        /* \"contracts/DecentralizedVoting.sol\":2741:2752  !votingOpen */\n      iszero\n        /* \"contracts/DecentralizedVoting.sol\":2733:2777  require(!votingOpen, \"Voting is still open\") */\n      tag_119\n      jumpi\n      mload(0x40)\n      0x08c379a000000000000000000000000000000000000000000000000000000000\n      dup2\n      mstore\n      0x04\n      add\n      tag_120\n      swap1\n      tag_121\n      jump\t// in\n    tag_120:\n      mload(0x40)\n      dup1\n      swap2\n      sub\n      swap1\n      revert\n    tag_119:\n        /* \"contracts/DecentralizedVoting.sol\":2798:2824  Candidate[] memory results */\n      0x00\n        /* \"contracts/DecentralizedVoting.sol\":2843:2858  candidatesCount */\n      sload(0x05)\n        /* \"contracts/DecentralizedVoting.sol\":2827:2859  new Candidate[](candidatesCount) */\n      0xffffffffffffffff\n      dup2\n      gt\n      iszero\n      tag_122\n      jumpi\n      tag_123\n      tag_124\n      jump\t// in\n    tag_123:\n    tag_122:\n      mload(0x40)\n      swap1\n      dup1\n      dup3\n      mstore\n      dup1\n      0x20\n      mul\n      0x20\n      add\n      dup3\n      add\n      0x40\n      mstore\n      dup1\n      iszero\n      tag_125\n      jumpi\n      dup2\n      0x20\n      add\n    tag_126:\n      tag_127\n      tag_128\n      jump\t// in\n    tag_127:\n      dup2\n      mstore\n      0x20\n      add\n      swap1\n      0x01\n      swap1\n      sub\n      swap1\n      dup2\n      tag_126\n      jumpi\n      swap1\n      pop\n    tag_125:\n      pop\n        /* \"contracts/DecentralizedVoting.sol\":2798:2859  Candidate[] memory results = new Candidate[](candidatesCount) */\n      swap1\n      pop\n        /* \"contracts/DecentralizedVoting.sol\":2875:2881  uint i */\n      0x00\n        /* \"contracts/DecentralizedVoting.sol\":2884:2885  1 */\n      0x01\n        /* \"contracts/DecentralizedVoting.sol\":2875:2885  uint i = 1 */\n      swap1\n      pop\n        /* \"contracts/DecentralizedVoting.sol\":2870:2969  for (uint i = 1; i <= candidatesCount; i++) {... */\n    tag_129:\n        /* \"contracts/DecentralizedVoting.sol\":2892:2907  candidatesCount */\n      sload(0x05)\n        /* \"contracts/DecentralizedVoting.sol\":2887:2888  i */\n      dup2\n        /* \"contracts/DecentralizedVoting.sol\":2887:2907  i <= candidatesCount */\n      gt\n        /* \"contracts/DecentralizedVoting.sol\":2870:2969  for (uint i = 1; i <= candidatesCount; i++) {... */\n      tag_130\n      jumpi\n        /* \"contracts/DecentralizedVoting.sol\":2944:2954  candidates */\n      0x03\n        /* \"contracts/DecentralizedVoting.sol\":2944:2957  candidates[i] */\n      0x00\n        /* \"contracts/DecentralizedVoting.sol\":2955:2956  i */\n      dup3\n        /* \"contracts/DecentralizedVoting.sol\":2944:2957  candidates[i] */\n      dup2\n      mstore\n      0x20\n      add\n      swap1\n      dup2\n      mstore\n      0x20\n      add\n      0x00\n      keccak256\n        /* \"contracts/DecentralizedVoting.sol\":2929:2957  results[i-1] = candidates[i] */\n      mload(0x40)\n      dup1\n      0x60\n      add\n      0x40\n      mstore\n      swap1\n      dup2\n      0x00\n      dup3\n      add\n      sload\n      dup2\n      mstore\n      0x20\n      add\n      0x01\n      dup3\n      add\n      dup1\n      sload\n      tag_132\n      swap1\n      tag_95\n      jump\t// in\n    tag_132:\n      dup1\n      0x1f\n      add\n      0x20\n      dup1\n      swap2\n      div\n      mul\n      0x20\n      add\n      mload(0x40)\n      swap1\n      dup2\n      add\n      0x40\n      mstore\n      dup1\n      swap3\n      swap2\n      swap1\n      dup2\n      dup2\n      mstore\n      0x20\n      add\n      dup3\n      dup1\n      sload\n      tag_133\n      swap1\n      tag_95\n      jump\t// in\n    tag_133:\n      dup1\n      iszero\n      tag_134\n      jumpi\n      dup1\n      0x1f\n      lt\n      tag_135\n      jumpi\n      0x0100\n      dup1\n      dup4\n      sload\n      div\n      mul\n      dup4\n      mstore\n      swap2\n      0x20\n      add\n      swap2\n      jump(tag_134)\n    tag_135:\n      dup3\n      add\n      swap2\n      swap1\n      0x00\n      mstore\n      keccak256(0x00, 0x20)\n      swap1\n    tag_136:\n      dup2\n      sload\n      dup2\n      mstore\n      swap1\n      0x01\n      add\n      swap1\n      0x20\n      add\n      dup1\n      dup4\n      gt\n      tag_136\n      jumpi\n      dup3\n      swap1\n      sub\n      0x1f\n      and\n      dup3\n      add\n      swap2\n    tag_134:\n      pop\n      pop\n      pop\n      pop\n      pop\n      dup2\n      mstore\n      0x20\n      add\n      0x02\n      dup3\n      add\n      sload\n      dup2\n      mstore\n      pop\n      pop\n        /* \"contracts/DecentralizedVoting.sol\":2929:2936  results */\n      dup3\n        /* \"contracts/DecentralizedVoting.sol\":2939:2940  1 */\n      0x01\n        /* \"contracts/DecentralizedVoting.sol\":2937:2938  i */\n      dup4\n        /* \"contracts/DecentralizedVoting.sol\":2937:2940  i-1 */\n      tag_137\n      swap2\n      swap1\n      tag_138\n      jump\t// in\n    tag_137:\n        /* \"contracts/DecentralizedVoting.sol\":2929:2941  results[i-1] */\n      dup2\n      mload\n      dup2\n      lt\n      tag_139\n      jumpi\n      tag_140\n      tag_141\n      jump\t// in\n    tag_140:\n    tag_139:\n      0x20\n      mul\n      0x20\n      add\n      add\n        /* \"contracts/DecentralizedVoting.sol\":2929:2957  results[i-1] = candidates[i] */\n      dup2\n      swap1\n      mstore\n      pop\n        /* \"contracts/DecentralizedVoting.sol\":2909:2912  i++ */\n      dup1\n      dup1\n      tag_142\n      swap1\n      tag_90\n      jump\t// in\n    tag_142:\n      swap2\n      pop\n      pop\n        /* \"contracts/DecentralizedVoting.sol\":2870:2969  for (uint i = 1; i <= candidatesCount; i++) {... */\n      jump(tag_129)\n    tag_130:\n      pop\n        /* \"contracts/DecentralizedVoting.sol\":2986:2993  results */\n      dup1\n        /* \"contracts/DecentralizedVoting.sol\":2979:2993  return results */\n      swap2\n      pop\n      pop\n        /* \"contracts/DecentralizedVoting.sol\":2659:3001  function getResults() public view returns (Candidate[] memory) {... */\n      swap1\n      jump\t// out\n        /* \"contracts/DecentralizedVoting.sol\":343:369  string public electionName */\n    tag_49:\n      0x01\n      dup1\n      sload\n      tag_143\n      swap1\n      tag_95\n      jump\t// in\n    tag_143:\n      dup1\n      0x1f\n      add\n      0x20\n      dup1\n      swap2\n      div\n      mul\n      0x20\n      add\n      mload(0x40)\n      swap1\n      dup2\n      add\n      0x40\n      mstore\n      dup1\n      swap3\n      swap2\n      swap1\n      dup2\n      dup2\n      mstore\n      0x20\n      add\n      dup3\n      dup1\n      sload\n      tag_144\n      swap1\n      tag_95\n      jump\t// in\n    tag_144:\n      dup1\n      iszero\n      tag_145\n      jumpi\n      dup1\n      0x1f\n      lt\n      tag_146\n      jumpi\n      0x0100\n      dup1\n      dup4\n      sload\n      div\n      mul\n      dup4\n      mstore\n      swap2\n      0x20\n      add\n      swap2\n      jump(tag_145)\n    tag_146:\n      dup3\n      add\n      swap2\n      swap1\n      0x00\n      mstore\n      keccak256(0x00, 0x20)\n      swap1\n    tag_147:\n      dup2\n      sload\n      dup2\n      mstore\n      swap1\n      0x01\n      add\n      swap1\n      0x20\n      add\n      dup1\n      dup4\n      gt\n      tag_147\n      jumpi\n      dup3\n      swap1\n      sub\n      0x1f\n      and\n      dup3\n      add\n      swap2\n    tag_145:\n      pop\n      pop\n      pop\n      pop\n      pop\n      dup2\n      jump\t// out\n        /* \"contracts/DecentralizedVoting.sol\":316:336  address public owner */\n    tag_53:\n      0x00\n      0x00\n      swap1\n      sload\n      swap1\n      0x0100\n      exp\n      swap1\n      div\n      0xffffffffffffffffffffffffffffffffffffffff\n      and\n      dup2\n      jump\t// out\n        /* \"contracts/DecentralizedVoting.sol\":3013:3579  function getWinner() public view returns (string memory winnerName, uint winnerVotes) {... */\n    tag_57:\n        /* \"contracts/DecentralizedVoting.sol\":3055:3079  string memory winnerName */\n      0x60\n        /* \"contracts/DecentralizedVoting.sol\":3081:3097  uint winnerVotes */\n      0x00\n        /* \"contracts/DecentralizedVoting.sol\":3119:3129  votingOpen */\n      0x02\n      0x00\n      swap1\n      sload\n      swap1\n      0x0100\n      exp\n      swap1\n      div\n      0xff\n      and\n        /* \"contracts/DecentralizedVoting.sol\":3118:3129  !votingOpen */\n      iszero\n        /* \"contracts/DecentralizedVoting.sol\":3110:3154  require(!votingOpen, \"Voting is still open\") */\n      tag_149\n      jumpi\n      mload(0x40)\n      0x08c379a000000000000000000000000000000000000000000000000000000000\n      dup2\n      mstore\n      0x04\n      add\n      tag_150\n      swap1\n      tag_121\n      jump\t// in\n    tag_150:\n      mload(0x40)\n      dup1\n      swap2\n      sub\n      swap1\n      revert\n    tag_149:\n        /* \"contracts/DecentralizedVoting.sol\":3191:3192  0 */\n      0x00\n        /* \"contracts/DecentralizedVoting.sol\":3173:3188  candidatesCount */\n      sload(0x05)\n        /* \"contracts/DecentralizedVoting.sol\":3173:3192  candidatesCount > 0 */\n      gt\n        /* \"contracts/DecentralizedVoting.sol\":3165:3210  require(candidatesCount > 0, \"No candidates\") */\n      tag_151\n      jumpi\n      mload(0x40)\n      0x08c379a000000000000000000000000000000000000000000000000000000000\n      dup2\n      mstore\n      0x04\n      add\n      tag_152\n      swap1\n      tag_153\n      jump\t// in\n    tag_152:\n      mload(0x40)\n      dup1\n      swap2\n      sub\n      swap1\n      revert\n    tag_151:\n        /* \"contracts/DecentralizedVoting.sol\":3231:3244  uint maxVotes */\n      0x00\n        /* \"contracts/DecentralizedVoting.sol\":3247:3248  0 */\n      0x00\n        /* \"contracts/DecentralizedVoting.sol\":3231:3248  uint maxVotes = 0 */\n      swap1\n      pop\n        /* \"contracts/DecentralizedVoting.sol\":3259:3272  uint winnerId */\n      0x00\n        /* \"contracts/DecentralizedVoting.sol\":3275:3276  0 */\n      0x00\n        /* \"contracts/DecentralizedVoting.sol\":3259:3276  uint winnerId = 0 */\n      swap1\n      pop\n        /* \"contracts/DecentralizedVoting.sol\":3302:3308  uint i */\n      0x00\n        /* \"contracts/DecentralizedVoting.sol\":3311:3312  1 */\n      0x01\n        /* \"contracts/DecentralizedVoting.sol\":3302:3312  uint i = 1 */\n      swap1\n      pop\n        /* \"contracts/DecentralizedVoting.sol\":3297:3507  for (uint i = 1; i <= candidatesCount; i++) {... */\n    tag_154:\n        /* \"contracts/DecentralizedVoting.sol\":3319:3334  candidatesCount */\n      sload(0x05)\n        /* \"contracts/DecentralizedVoting.sol\":3314:3315  i */\n      dup2\n        /* \"contracts/DecentralizedVoting.sol\":3314:3334  i <= candidatesCount */\n      gt\n        /* \"contracts/DecentralizedVoting.sol\":3297:3507  for (uint i = 1; i <= candidatesCount; i++) {... */\n      tag_155\n      jumpi\n        /* \"contracts/DecentralizedVoting.sol\":3386:3394  maxVotes */\n      dup3\n        /* \"contracts/DecentralizedVoting.sol\":3360:3370  candidates */\n      0x03\n        /* \"contracts/DecentralizedVoting.sol\":3360:3373  candidates[i] */\n      0x00\n        /* \"contracts/DecentralizedVoting.sol\":3371:3372  i */\n      dup4\n        /* \"contracts/DecentralizedVoting.sol\":3360:3373  candidates[i] */\n      dup2\n      mstore\n      0x20\n      add\n      swap1\n      dup2\n      mstore\n      0x20\n      add\n      0x00\n      keccak256\n        /* \"contracts/DecentralizedVoting.sol\":3360:3383  candidates[i].voteCount */\n      0x02\n      add\n      sload\n        /* \"contracts/DecentralizedVoting.sol\":3360:3394  candidates[i].voteCount > maxVotes */\n      gt\n        /* \"contracts/DecentralizedVoting.sol\":3356:3496  if (candidates[i].voteCount > maxVotes) {... */\n      iszero\n      tag_157\n      jumpi\n        /* \"contracts/DecentralizedVoting.sol\":3426:3436  candidates */\n      0x03\n        /* \"contracts/DecentralizedVoting.sol\":3426:3439  candidates[i] */\n      0x00\n        /* \"contracts/DecentralizedVoting.sol\":3437:3438  i */\n      dup3\n        /* \"contracts/DecentralizedVoting.sol\":3426:3439  candidates[i] */\n      dup2\n      mstore\n      0x20\n      add\n      swap1\n      dup2\n      mstore\n      0x20\n      add\n      0x00\n      keccak256\n        /* \"contracts/DecentralizedVoting.sol\":3426:3449  candidates[i].voteCount */\n      0x02\n      add\n      sload\n        /* \"contracts/DecentralizedVoting.sol\":3415:3449  maxVotes = candidates[i].voteCount */\n      swap3\n      pop\n        /* \"contracts/DecentralizedVoting.sol\":3479:3480  i */\n      dup1\n        /* \"contracts/DecentralizedVoting.sol\":3468:3480  winnerId = i */\n      swap2\n      pop\n        /* \"contracts/DecentralizedVoting.sol\":3356:3496  if (candidates[i].voteCount > maxVotes) {... */\n    tag_157:\n        /* \"contracts/DecentralizedVoting.sol\":3336:3339  i++ */\n      dup1\n      dup1\n      tag_158\n      swap1\n      tag_90\n      jump\t// in\n    tag_158:\n      swap2\n      pop\n      pop\n        /* \"contracts/DecentralizedVoting.sol\":3297:3507  for (uint i = 1; i <= candidatesCount; i++) {... */\n      jump(tag_154)\n    tag_155:\n      pop\n        /* \"contracts/DecentralizedVoting.sol\":3535:3545  candidates */\n      0x03\n        /* \"contracts/DecentralizedVoting.sol\":3535:3555  candidates[winnerId] */\n      0x00\n        /* \"contracts/DecentralizedVoting.sol\":3546:3554  winnerId */\n      dup3\n        /* \"contracts/DecentralizedVoting.sol\":3535:3555  candidates[winnerId] */\n      dup2\n      mstore\n      0x20\n      add\n      swap1\n      dup2\n      mstore\n      0x20\n      add\n      0x00\n      keccak256\n        /* \"contracts/DecentralizedVoting.sol\":3535:3560  candidates[winnerId].name */\n      0x01\n      add\n        /* \"contracts/DecentralizedVoting.sol\":3562:3570  maxVotes */\n      dup3\n        /* \"contracts/DecentralizedVoting.sol\":3527:3571  return (candidates[winnerId].name, maxVotes) */\n      dup2\n      dup1\n      sload\n      tag_159\n      swap1\n      tag_95\n      jump\t// in\n    tag_159:\n      dup1\n      0x1f\n      add\n      0x20\n      dup1\n      swap2\n      div\n      mul\n      0x20\n      add\n      mload(0x40)\n      swap1\n      dup2\n      add\n      0x40\n      mstore\n      dup1\n      swap3\n      swap2\n      swap1\n      dup2\n      dup2\n      mstore\n      0x20\n      add\n      dup3\n      dup1\n      sload\n      tag_160\n      swap1\n      tag_95\n      jump\t// in\n    tag_160:\n      dup1\n      iszero\n      tag_161\n      jumpi\n      dup1\n      0x1f\n      lt\n      tag_162\n      jumpi\n      0x0100\n      dup1\n      dup4\n      sload\n      div\n      mul\n      dup4\n      mstore\n      swap2\n      0x20\n      add\n      swap2\n      jump(tag_161)\n    tag_162:\n      dup3\n      add\n      swap2\n      swap1\n      0x00\n      mstore\n      keccak256(0x00, 0x20)\n      swap1\n    tag_163:\n      dup2\n      sload\n      dup2\n      mstore\n      swap1\n      0x01\n      add\n      swap1\n      0x20\n      add\n      dup1\n      dup4\n      gt\n      tag_163\n      jumpi\n      dup3\n      swap1\n      sub\n      0x1f\n      and\n      dup3\n      add\n      swap2\n    tag_161:\n      pop\n      pop\n      pop\n      pop\n      pop\n      swap2\n      pop\n      swap4\n      pop\n      swap4\n      pop\n      pop\n      pop\n        /* \"contracts/DecentralizedVoting.sol\":3013:3579  function getWinner() public view returns (string memory winnerName, uint winnerVotes) {... */\n      swap1\n      swap2\n      jump\t// out\n        /* \"contracts/DecentralizedVoting.sol\":462:501  mapping(address => Voter) public voters */\n    tag_62:\n      mstore(0x20, 0x04)\n      dup1\n      0x00\n      mstore\n      keccak256(0x00, 0x40)\n      0x00\n      swap2\n      pop\n      swap1\n      pop\n      dup1\n      0x00\n      add\n      0x00\n      swap1\n      sload\n      swap1\n      0x0100\n      exp\n      swap1\n      div\n      0xff\n      and\n      swap1\n      dup1\n      0x01\n      add\n      sload\n      swap1\n      dup1\n      0x02\n      add\n      0x00\n      swap1\n      sload\n      swap1\n      0x0100\n      exp\n      swap1\n      div\n      0xff\n      and\n      swap1\n      pop\n      dup4\n      jump\t// out\n        /* \"contracts/DecentralizedVoting.sol\":376:398  bool public votingOpen */\n    tag_66:\n      0x02\n      0x00\n      swap1\n      sload\n      swap1\n      0x0100\n      exp\n      swap1\n      div\n      0xff\n      and\n      dup2\n      jump\t// out\n        /* \"contracts/DecentralizedVoting.sol\":1810:1992  function openVoting() public onlyOwner {... */\n    tag_70:\n        /* \"contracts/DecentralizedVoting.sol\":843:848  owner */\n      0x00\n      0x00\n      swap1\n      sload\n      swap1\n      0x0100\n      exp\n      swap1\n      div\n      0xffffffffffffffffffffffffffffffffffffffff\n      and\n        /* \"contracts/DecentralizedVoting.sol\":829:848  msg.sender == owner */\n      0xffffffffffffffffffffffffffffffffffffffff\n      and\n        /* \"contracts/DecentralizedVoting.sol\":829:839  msg.sender */\n      caller\n        /* \"contracts/DecentralizedVoting.sol\":829:848  msg.sender == owner */\n      0xffffffffffffffffffffffffffffffffffffffff\n      and\n      eq\n        /* \"contracts/DecentralizedVoting.sol\":821:886  require(msg.sender == owner, \"Only owner can call this function\") */\n      tag_165\n      jumpi\n      mload(0x40)\n      0x08c379a000000000000000000000000000000000000000000000000000000000\n      dup2\n      mstore\n      0x04\n      add\n      tag_166\n      swap1\n      tag_103\n      jump\t// in\n    tag_166:\n      mload(0x40)\n      dup1\n      swap2\n      sub\n      swap1\n      revert\n    tag_165:\n        /* \"contracts/DecentralizedVoting.sol\":1886:1887  0 */\n      0x00\n        /* \"contracts/DecentralizedVoting.sol\":1868:1883  candidatesCount */\n      sload(0x05)\n        /* \"contracts/DecentralizedVoting.sol\":1868:1887  candidatesCount > 0 */\n      gt\n        /* \"contracts/DecentralizedVoting.sol\":1860:1915  require(candidatesCount > 0, \"No candidates available\") */\n      tag_168\n      jumpi\n      mload(0x40)\n      0x08c379a000000000000000000000000000000000000000000000000000000000\n      dup2\n      mstore\n      0x04\n      add\n      tag_169\n      swap1\n      tag_170\n      jump\t// in\n    tag_169:\n      mload(0x40)\n      dup1\n      swap2\n      sub\n      swap1\n      revert\n    tag_168:\n        /* \"contracts/DecentralizedVoting.sol\":1939:1943  true */\n      0x01\n        /* \"contracts/DecentralizedVoting.sol\":1926:1936  votingOpen */\n      0x02\n      0x00\n        /* \"contracts/DecentralizedVoting.sol\":1926:1943  votingOpen = true */\n      0x0100\n      exp\n      dup2\n      sload\n      dup2\n      0xff\n      mul\n      not\n      and\n      swap1\n      dup4\n      iszero\n      iszero\n      mul\n      or\n      swap1\n      sstore\n      pop\n        /* \"contracts/DecentralizedVoting.sol\":1959:1984  VotingStatusChanged(true) */\n      0x9069a1a16ace751e8690f383e12f87b01e8488ba387e626810bd113fef0417f9\n        /* \"contracts/DecentralizedVoting.sol\":1979:1983  true */\n      0x01\n        /* \"contracts/DecentralizedVoting.sol\":1959:1984  VotingStatusChanged(true) */\n      mload(0x40)\n      tag_171\n      swap2\n      swap1\n      tag_68\n      jump\t// in\n    tag_171:\n      mload(0x40)\n      dup1\n      swap2\n      sub\n      swap1\n      log1\n        /* \"contracts/DecentralizedVoting.sol\":1810:1992  function openVoting() public onlyOwner {... */\n      jump\t// out\n        /* \"contracts/DecentralizedVoting.sol\":2004:2123  function closeVoting() public onlyOwner {... */\n    tag_72:\n        /* \"contracts/DecentralizedVoting.sol\":843:848  owner */\n      0x00\n      0x00\n      swap1\n      sload\n      swap1\n      0x0100\n      exp\n      swap1\n      div\n      0xffffffffffffffffffffffffffffffffffffffff\n      and\n        /* \"contracts/DecentralizedVoting.sol\":829:848  msg.sender == owner */\n      0xffffffffffffffffffffffffffffffffffffffff\n      and\n        /* \"contracts/DecentralizedVoting.sol\":829:839  msg.sender */\n      caller\n        /* \"contracts/DecentralizedVoting.sol\":829:848  msg.sender == owner */\n      0xffffffffffffffffffffffffffffffffffffffff\n      and\n      eq\n        /* \"contracts/DecentralizedVoting.sol\":821:886  require(msg.sender == owner, \"Only owner can call this function\") */\n      tag_173\n      jumpi\n      mload(0x40)\n      0x08c379a000000000000000000000000000000000000000000000000000000000\n      dup2\n      mstore\n      0x04\n      add\n      tag_174\n      swap1\n      tag_103\n      jump\t// in\n    tag_174:\n      mload(0x40)\n      dup1\n      swap2\n      sub\n      swap1\n      revert\n    tag_173:\n        /* \"contracts/DecentralizedVoting.sol\":2068:2073  false */\n      0x00\n        /* \"contracts/DecentralizedVoting.sol\":2055:2065  votingOpen */\n      0x02\n      0x00\n        /* \"contracts/DecentralizedVoting.sol\":2055:2073  votingOpen = false */\n      0x0100\n      exp\n      dup2\n      sload\n      dup2\n      0xff\n      mul\n      not\n      and\n      swap1\n      dup4\n      iszero\n      iszero\n      mul\n      or\n      swap1\n      sstore\n      pop\n        /* \"contracts/DecentralizedVoting.sol\":2089:2115  VotingStatusChanged(false) */\n      0x9069a1a16ace751e8690f383e12f87b01e8488ba387e626810bd113fef0417f9\n        /* \"contracts/DecentralizedVoting.sol\":2109:2114  false */\n      0x00\n        /* \"contracts/DecentralizedVoting.sol\":2089:2115  VotingStatusChanged(false) */\n      mload(0x40)\n      tag_176\n      swap2\n      swap1\n      tag_68\n      jump\t// in\n    tag_176:\n      mload(0x40)\n      dup1\n      swap2\n      sub\n      swap1\n      log1\n        /* \"contracts/DecentralizedVoting.sol\":2004:2123  function closeVoting() public onlyOwner {... */\n      jump\t// out\n    tag_128:\n      mload(0x40)\n      dup1\n      0x60\n      add\n      0x40\n      mstore\n      dup1\n      0x00\n      dup2\n      mstore\n      0x20\n      add\n      0x60\n      dup2\n      mstore\n      0x20\n      add\n      0x00\n      dup2\n      mstore\n      pop\n      swap1\n      jump\t// out\n        /* \"#utility.yul\":7:82   */\n    tag_177:\n        /* \"#utility.yul\":40:46   */\n      0x00\n        /* \"#utility.yul\":73:75   */\n      0x40\n        /* \"#utility.yul\":67:76   */\n      mload\n        /* \"#utility.yul\":57:76   */\n      swap1\n      pop\n        /* \"#utility.yul\":7:82   */\n      swap1\n      jump\t// out\n        /* \"#utility.yul\":88:205   */\n    tag_178:\n        /* \"#utility.yul\":197:198   */\n      0x00\n        /* \"#utility.yul\":194:195   */\n      0x00\n        /* \"#utility.yul\":187:199   */\n      revert\n        /* \"#utility.yul\":211:328   */\n    tag_179:\n        /* \"#utility.yul\":320:321   */\n      0x00\n        /* \"#utility.yul\":317:318   */\n      0x00\n        /* \"#utility.yul\":310:322   */\n      revert\n        /* \"#utility.yul\":334:411   */\n    tag_180:\n        /* \"#utility.yul\":371:378   */\n      0x00\n        /* \"#utility.yul\":400:405   */\n      dup2\n        /* \"#utility.yul\":389:405   */\n      swap1\n      pop\n        /* \"#utility.yul\":334:411   */\n      swap2\n      swap1\n      pop\n      jump\t// out\n        /* \"#utility.yul\":417:539   */\n    tag_181:\n        /* \"#utility.yul\":490:514   */\n      tag_255\n        /* \"#utility.yul\":508:513   */\n      dup2\n        /* \"#utility.yul\":490:514   */\n      tag_180\n      jump\t// in\n    tag_255:\n        /* \"#utility.yul\":483:488   */\n      dup2\n        /* \"#utility.yul\":480:515   */\n      eq\n        /* \"#utility.yul\":470:533   */\n      tag_256\n      jumpi\n        /* \"#utility.yul\":529:530   */\n      0x00\n        /* \"#utility.yul\":526:527   */\n      0x00\n        /* \"#utility.yul\":519:531   */\n      revert\n        /* \"#utility.yul\":470:533   */\n    tag_256:\n        /* \"#utility.yul\":417:539   */\n      pop\n      jump\t// out\n        /* \"#utility.yul\":545:684   */\n    tag_182:\n        /* \"#utility.yul\":591:596   */\n      0x00\n        /* \"#utility.yul\":629:635   */\n      dup2\n        /* \"#utility.yul\":616:636   */\n      calldataload\n        /* \"#utility.yul\":607:636   */\n      swap1\n      pop\n        /* \"#utility.yul\":645:678   */\n      tag_258\n        /* \"#utility.yul\":672:677   */\n      dup2\n        /* \"#utility.yul\":645:678   */\n      tag_181\n      jump\t// in\n    tag_258:\n        /* \"#utility.yul\":545:684   */\n      swap3\n      swap2\n      pop\n      pop\n      jump\t// out\n        /* \"#utility.yul\":690:1019   */\n    tag_22:\n        /* \"#utility.yul\":749:755   */\n      0x00\n        /* \"#utility.yul\":798:800   */\n      0x20\n        /* \"#utility.yul\":786:795   */\n      dup3\n        /* \"#utility.yul\":777:784   */\n      dup5\n        /* \"#utility.yul\":773:796   */\n      sub\n        /* \"#utility.yul\":769:801   */\n      slt\n        /* \"#utility.yul\":766:885   */\n      iszero\n      tag_260\n      jumpi\n        /* \"#utility.yul\":804:883   */\n      tag_261\n      tag_178\n      jump\t// in\n    tag_261:\n        /* \"#utility.yul\":766:885   */\n    tag_260:\n        /* \"#utility.yul\":924:925   */\n      0x00\n        /* \"#utility.yul\":949:1002   */\n      tag_262\n        /* \"#utility.yul\":994:1001   */\n      dup5\n        /* \"#utility.yul\":985:991   */\n      dup3\n        /* \"#utility.yul\":974:983   */\n      dup6\n        /* \"#utility.yul\":970:992   */\n      add\n        /* \"#utility.yul\":949:1002   */\n      tag_182\n      jump\t// in\n    tag_262:\n        /* \"#utility.yul\":939:1002   */\n      swap2\n      pop\n        /* \"#utility.yul\":895:1012   */\n      pop\n        /* \"#utility.yul\":690:1019   */\n      swap3\n      swap2\n      pop\n      pop\n      jump\t// out\n        /* \"#utility.yul\":1025:1143   */\n    tag_183:\n        /* \"#utility.yul\":1112:1136   */\n      tag_264\n        /* \"#utility.yul\":1130:1135   */\n      dup2\n        /* \"#utility.yul\":1112:1136   */\n      tag_180\n      jump\t// in\n    tag_264:\n        /* \"#utility.yul\":1107:1110   */\n      dup3\n        /* \"#utility.yul\":1100:1137   */\n      mstore\n        /* \"#utility.yul\":1025:1143   */\n      pop\n      pop\n      jump\t// out\n        /* \"#utility.yul\":1149:1371   */\n    tag_27:\n        /* \"#utility.yul\":1242:1246   */\n      0x00\n        /* \"#utility.yul\":1280:1282   */\n      0x20\n        /* \"#utility.yul\":1269:1278   */\n      dup3\n        /* \"#utility.yul\":1265:1283   */\n      add\n        /* \"#utility.yul\":1257:1283   */\n      swap1\n      pop\n        /* \"#utility.yul\":1293:1364   */\n      tag_266\n        /* \"#utility.yul\":1361:1362   */\n      0x00\n        /* \"#utility.yul\":1350:1359   */\n      dup4\n        /* \"#utility.yul\":1346:1363   */\n      add\n        /* \"#utility.yul\":1337:1343   */\n      dup5\n        /* \"#utility.yul\":1293:1364   */\n      tag_183\n      jump\t// in\n    tag_266:\n        /* \"#utility.yul\":1149:1371   */\n      swap3\n      swap2\n      pop\n      pop\n      jump\t// out\n        /* \"#utility.yul\":1377:1476   */\n    tag_184:\n        /* \"#utility.yul\":1429:1435   */\n      0x00\n        /* \"#utility.yul\":1463:1468   */\n      dup2\n        /* \"#utility.yul\":1457:1469   */\n      mload\n        /* \"#utility.yul\":1447:1469   */\n      swap1\n      pop\n        /* \"#utility.yul\":1377:1476   */\n      swap2\n      swap1\n      pop\n      jump\t// out\n        /* \"#utility.yul\":1482:1651   */\n    tag_185:\n        /* \"#utility.yul\":1566:1577   */\n      0x00\n        /* \"#utility.yul\":1600:1606   */\n      dup3\n        /* \"#utility.yul\":1595:1598   */\n      dup3\n        /* \"#utility.yul\":1588:1607   */\n      mstore\n        /* \"#utility.yul\":1640:1644   */\n      0x20\n        /* \"#utility.yul\":1635:1638   */\n      dup3\n        /* \"#utility.yul\":1631:1645   */\n      add\n        /* \"#utility.yul\":1616:1645   */\n      swap1\n      pop\n        /* \"#utility.yul\":1482:1651   */\n      swap3\n      swap2\n      pop\n      pop\n      jump\t// out\n        /* \"#utility.yul\":1657:1796   */\n    tag_186:\n        /* \"#utility.yul\":1746:1752   */\n      dup3\n        /* \"#utility.yul\":1741:1744   */\n      dup2\n        /* \"#utility.yul\":1736:1739   */\n      dup4\n        /* \"#utility.yul\":1730:1753   */\n      mcopy\n        /* \"#utility.yul\":1787:1788   */\n      0x00\n        /* \"#utility.yul\":1778:1784   */\n      dup4\n        /* \"#utility.yul\":1773:1776   */\n      dup4\n        /* \"#utility.yul\":1769:1785   */\n      add\n        /* \"#utility.yul\":1762:1789   */\n      mstore\n        /* \"#utility.yul\":1657:1796   */\n      pop\n      pop\n      pop\n      jump\t// out\n        /* \"#utility.yul\":1802:1904   */\n    tag_187:\n        /* \"#utility.yul\":1843:1849   */\n      0x00\n        /* \"#utility.yul\":1894:1896   */\n      0x1f\n        /* \"#utility.yul\":1890:1897   */\n      not\n        /* \"#utility.yul\":1885:1887   */\n      0x1f\n        /* \"#utility.yul\":1878:1883   */\n      dup4\n        /* \"#utility.yul\":1874:1888   */\n      add\n        /* \"#utility.yul\":1870:1898   */\n      and\n        /* \"#utility.yul\":1860:1898   */\n      swap1\n      pop\n        /* \"#utility.yul\":1802:1904   */\n      swap2\n      swap1\n      pop\n      jump\t// out\n        /* \"#utility.yul\":1910:2287   */\n    tag_188:\n        /* \"#utility.yul\":1998:2001   */\n      0x00\n        /* \"#utility.yul\":2026:2065   */\n      tag_272\n        /* \"#utility.yul\":2059:2064   */\n      dup3\n        /* \"#utility.yul\":2026:2065   */\n      tag_184\n      jump\t// in\n    tag_272:\n        /* \"#utility.yul\":2081:2152   */\n      tag_273\n        /* \"#utility.yul\":2145:2151   */\n      dup2\n        /* \"#utility.yul\":2140:2143   */\n      dup6\n        /* \"#utility.yul\":2081:2152   */\n      tag_185\n      jump\t// in\n    tag_273:\n        /* \"#utility.yul\":2074:2152   */\n      swap4\n      pop\n        /* \"#utility.yul\":2161:2226   */\n      tag_274\n        /* \"#utility.yul\":2219:2225   */\n      dup2\n        /* \"#utility.yul\":2214:2217   */\n      dup6\n        /* \"#utility.yul\":2207:2211   */\n      0x20\n        /* \"#utility.yul\":2200:2205   */\n      dup7\n        /* \"#utility.yul\":2196:2212   */\n      add\n        /* \"#utility.yul\":2161:2226   */\n      tag_186\n      jump\t// in\n    tag_274:\n        /* \"#utility.yul\":2251:2280   */\n      tag_275\n        /* \"#utility.yul\":2273:2279   */\n      dup2\n        /* \"#utility.yul\":2251:2280   */\n      tag_187\n      jump\t// in\n    tag_275:\n        /* \"#utility.yul\":2246:2249   */\n      dup5\n        /* \"#utility.yul\":2242:2281   */\n      add\n        /* \"#utility.yul\":2235:2281   */\n      swap2\n      pop\n        /* \"#utility.yul\":2002:2287   */\n      pop\n        /* \"#utility.yul\":1910:2287   */\n      swap3\n      swap2\n      pop\n      pop\n      jump\t// out\n        /* \"#utility.yul\":2293:2826   */\n    tag_35:\n        /* \"#utility.yul\":2462:2466   */\n      0x00\n        /* \"#utility.yul\":2500:2502   */\n      0x60\n        /* \"#utility.yul\":2489:2498   */\n      dup3\n        /* \"#utility.yul\":2485:2503   */\n      add\n        /* \"#utility.yul\":2477:2503   */\n      swap1\n      pop\n        /* \"#utility.yul\":2513:2584   */\n      tag_277\n        /* \"#utility.yul\":2581:2582   */\n      0x00\n        /* \"#utility.yul\":2570:2579   */\n      dup4\n        /* \"#utility.yul\":2566:2583   */\n      add\n        /* \"#utility.yul\":2557:2563   */\n      dup7\n        /* \"#utility.yul\":2513:2584   */\n      tag_183\n      jump\t// in\n    tag_277:\n        /* \"#utility.yul\":2631:2640   */\n      dup2\n        /* \"#utility.yul\":2625:2629   */\n      dup2\n        /* \"#utility.yul\":2621:2641   */\n      sub\n        /* \"#utility.yul\":2616:2618   */\n      0x20\n        /* \"#utility.yul\":2605:2614   */\n      dup4\n        /* \"#utility.yul\":2601:2619   */\n      add\n        /* \"#utility.yul\":2594:2642   */\n      mstore\n        /* \"#utility.yul\":2659:2737   */\n      tag_278\n        /* \"#utility.yul\":2732:2736   */\n      dup2\n        /* \"#utility.yul\":2723:2729   */\n      dup6\n        /* \"#utility.yul\":2659:2737   */\n      tag_188\n      jump\t// in\n    tag_278:\n        /* \"#utility.yul\":2651:2737   */\n      swap1\n      pop\n        /* \"#utility.yul\":2747:2819   */\n      tag_279\n        /* \"#utility.yul\":2815:2817   */\n      0x40\n        /* \"#utility.yul\":2804:2813   */\n      dup4\n        /* \"#utility.yul\":2800:2818   */\n      add\n        /* \"#utility.yul\":2791:2797   */\n      dup5\n        /* \"#utility.yul\":2747:2819   */\n      tag_183\n      jump\t// in\n    tag_279:\n        /* \"#utility.yul\":2293:2826   */\n      swap5\n      swap4\n      pop\n      pop\n      pop\n      pop\n      jump\t// out\n        /* \"#utility.yul\":2832:2958   */\n    tag_189:\n        /* \"#utility.yul\":2869:2876   */\n      0x00\n        /* \"#utility.yul\":2909:2951   */\n      0xffffffffffffffffffffffffffffffffffffffff\n        /* \"#utility.yul\":2902:2907   */\n      dup3\n        /* \"#utility.yul\":2898:2952   */\n      and\n        /* \"#utility.yul\":2887:2952   */\n      swap1\n      pop\n        /* \"#utility.yul\":2832:2958   */\n      swap2\n      swap1\n      pop\n      jump\t// out\n        /* \"#utility.yul\":2964:3060   */\n    tag_190:\n        /* \"#utility.yul\":3001:3008   */\n      0x00\n        /* \"#utility.yul\":3030:3054   */\n      tag_282\n        /* \"#utility.yul\":3048:3053   */\n      dup3\n        /* \"#utility.yul\":3030:3054   */\n      tag_189\n      jump\t// in\n    tag_282:\n        /* \"#utility.yul\":3019:3054   */\n      swap1\n      pop\n        /* \"#utility.yul\":2964:3060   */\n      swap2\n      swap1\n      pop\n      jump\t// out\n        /* \"#utility.yul\":3066:3188   */\n    tag_191:\n        /* \"#utility.yul\":3139:3163   */\n      tag_284\n        /* \"#utility.yul\":3157:3162   */\n      dup2\n        /* \"#utility.yul\":3139:3163   */\n      tag_190\n      jump\t// in\n    tag_284:\n        /* \"#utility.yul\":3132:3137   */\n      dup2\n        /* \"#utility.yul\":3129:3164   */\n      eq\n        /* \"#utility.yul\":3119:3182   */\n      tag_285\n      jumpi\n        /* \"#utility.yul\":3178:3179   */\n      0x00\n        /* \"#utility.yul\":3175:3176   */\n      0x00\n        /* \"#utility.yul\":3168:3180   */\n      revert\n        /* \"#utility.yul\":3119:3182   */\n    tag_285:\n        /* \"#utility.yul\":3066:3188   */\n      pop\n      jump\t// out\n        /* \"#utility.yul\":3194:3333   */\n    tag_192:\n        /* \"#utility.yul\":3240:3245   */\n      0x00\n        /* \"#utility.yul\":3278:3284   */\n      dup2\n        /* \"#utility.yul\":3265:3285   */\n      calldataload\n        /* \"#utility.yul\":3256:3285   */\n      swap1\n      pop\n        /* \"#utility.yul\":3294:3327   */\n      tag_287\n        /* \"#utility.yul\":3321:3326   */\n      dup2\n        /* \"#utility.yul\":3294:3327   */\n      tag_191\n      jump\t// in\n    tag_287:\n        /* \"#utility.yul\":3194:3333   */\n      swap3\n      swap2\n      pop\n      pop\n      jump\t// out\n        /* \"#utility.yul\":3339:3668   */\n    tag_38:\n        /* \"#utility.yul\":3398:3404   */\n      0x00\n        /* \"#utility.yul\":3447:3449   */\n      0x20\n        /* \"#utility.yul\":3435:3444   */\n      dup3\n        /* \"#utility.yul\":3426:3433   */\n      dup5\n        /* \"#utility.yul\":3422:3445   */\n      sub\n        /* \"#utility.yul\":3418:3450   */\n      slt\n        /* \"#utility.yul\":3415:3534   */\n      iszero\n      tag_289\n      jumpi\n        /* \"#utility.yul\":3453:3532   */\n      tag_290\n      tag_178\n      jump\t// in\n    tag_290:\n        /* \"#utility.yul\":3415:3534   */\n    tag_289:\n        /* \"#utility.yul\":3573:3574   */\n      0x00\n        /* \"#utility.yul\":3598:3651   */\n      tag_291\n        /* \"#utility.yul\":3643:3650   */\n      dup5\n        /* \"#utility.yul\":3634:3640   */\n      dup3\n        /* \"#utility.yul\":3623:3632   */\n      dup6\n        /* \"#utility.yul\":3619:3641   */\n      add\n        /* \"#utility.yul\":3598:3651   */\n      tag_192\n      jump\t// in\n    tag_291:\n        /* \"#utility.yul\":3588:3651   */\n      swap2\n      pop\n        /* \"#utility.yul\":3544:3661   */\n      pop\n        /* \"#utility.yul\":3339:3668   */\n      swap3\n      swap2\n      pop\n      pop\n      jump\t// out\n        /* \"#utility.yul\":3674:3791   */\n    tag_193:\n        /* \"#utility.yul\":3783:3784   */\n      0x00\n        /* \"#utility.yul\":3780:3781   */\n      0x00\n        /* \"#utility.yul\":3773:3785   */\n      revert\n        /* \"#utility.yul\":3797:3914   */\n    tag_194:\n        /* \"#utility.yul\":3906:3907   */\n      0x00\n        /* \"#utility.yul\":3903:3904   */\n      0x00\n        /* \"#utility.yul\":3896:3908   */\n      revert\n        /* \"#utility.yul\":3920:4100   */\n    tag_124:\n        /* \"#utility.yul\":3968:4045   */\n      0x4e487b7100000000000000000000000000000000000000000000000000000000\n        /* \"#utility.yul\":3965:3966   */\n      0x00\n        /* \"#utility.yul\":3958:4046   */\n      mstore\n        /* \"#utility.yul\":4065:4069   */\n      0x41\n        /* \"#utility.yul\":4062:4063   */\n      0x04\n        /* \"#utility.yul\":4055:4070   */\n      mstore\n        /* \"#utility.yul\":4089:4093   */\n      0x24\n        /* \"#utility.yul\":4086:4087   */\n      0x00\n        /* \"#utility.yul\":4079:4094   */\n      revert\n        /* \"#utility.yul\":4106:4387   */\n    tag_195:\n        /* \"#utility.yul\":4189:4216   */\n      tag_296\n        /* \"#utility.yul\":4211:4215   */\n      dup3\n        /* \"#utility.yul\":4189:4216   */\n      tag_187\n      jump\t// in\n    tag_296:\n        /* \"#utility.yul\":4181:4187   */\n      dup2\n        /* \"#utility.yul\":4177:4217   */\n      add\n        /* \"#utility.yul\":4319:4325   */\n      dup2\n        /* \"#utility.yul\":4307:4317   */\n      dup2\n        /* \"#utility.yul\":4304:4326   */\n      lt\n        /* \"#utility.yul\":4283:4301   */\n      0xffffffffffffffff\n        /* \"#utility.yul\":4271:4281   */\n      dup3\n        /* \"#utility.yul\":4268:4302   */\n      gt\n        /* \"#utility.yul\":4265:4327   */\n      or\n        /* \"#utility.yul\":4262:4350   */\n      iszero\n      tag_297\n      jumpi\n        /* \"#utility.yul\":4330:4348   */\n      tag_298\n      tag_124\n      jump\t// in\n    tag_298:\n        /* \"#utility.yul\":4262:4350   */\n    tag_297:\n        /* \"#utility.yul\":4370:4380   */\n      dup1\n        /* \"#utility.yul\":4366:4368   */\n      0x40\n        /* \"#utility.yul\":4359:4381   */\n      mstore\n        /* \"#utility.yul\":4149:4387   */\n      pop\n        /* \"#utility.yul\":4106:4387   */\n      pop\n      pop\n      jump\t// out\n        /* \"#utility.yul\":4393:4522   */\n    tag_196:\n        /* \"#utility.yul\":4427:4433   */\n      0x00\n        /* \"#utility.yul\":4454:4474   */\n      tag_300\n      tag_177\n      jump\t// in\n    tag_300:\n        /* \"#utility.yul\":4444:4474   */\n      swap1\n      pop\n        /* \"#utility.yul\":4483:4516   */\n      tag_301\n        /* \"#utility.yul\":4511:4515   */\n      dup3\n        /* \"#utility.yul\":4503:4509   */\n      dup3\n        /* \"#utility.yul\":4483:4516   */\n      tag_195\n      jump\t// in\n    tag_301:\n        /* \"#utility.yul\":4393:4522   */\n      swap2\n      swap1\n      pop\n      jump\t// out\n        /* \"#utility.yul\":4528:4836   */\n    tag_197:\n        /* \"#utility.yul\":4590:4594   */\n      0x00\n        /* \"#utility.yul\":4680:4698   */\n      0xffffffffffffffff\n        /* \"#utility.yul\":4672:4678   */\n      dup3\n        /* \"#utility.yul\":4669:4699   */\n      gt\n        /* \"#utility.yul\":4666:4722   */\n      iszero\n      tag_303\n      jumpi\n        /* \"#utility.yul\":4702:4720   */\n      tag_304\n      tag_124\n      jump\t// in\n    tag_304:\n        /* \"#utility.yul\":4666:4722   */\n    tag_303:\n        /* \"#utility.yul\":4740:4769   */\n      tag_305\n        /* \"#utility.yul\":4762:4768   */\n      dup3\n        /* \"#utility.yul\":4740:4769   */\n      tag_187\n      jump\t// in\n    tag_305:\n        /* \"#utility.yul\":4732:4769   */\n      swap1\n      pop\n        /* \"#utility.yul\":4824:4828   */\n      0x20\n        /* \"#utility.yul\":4818:4822   */\n      dup2\n        /* \"#utility.yul\":4814:4829   */\n      add\n        /* \"#utility.yul\":4806:4829   */\n      swap1\n      pop\n        /* \"#utility.yul\":4528:4836   */\n      swap2\n      swap1\n      pop\n      jump\t// out\n        /* \"#utility.yul\":4842:4990   */\n    tag_198:\n        /* \"#utility.yul\":4940:4946   */\n      dup3\n        /* \"#utility.yul\":4935:4938   */\n      dup2\n        /* \"#utility.yul\":4930:4933   */\n      dup4\n        /* \"#utility.yul\":4917:4947   */\n      calldatacopy\n        /* \"#utility.yul\":4981:4982   */\n      0x00\n        /* \"#utility.yul\":4972:4978   */\n      dup4\n        /* \"#utility.yul\":4967:4970   */\n      dup4\n        /* \"#utility.yul\":4963:4979   */\n      add\n        /* \"#utility.yul\":4956:4983   */\n      mstore\n        /* \"#utility.yul\":4842:4990   */\n      pop\n      pop\n      pop\n      jump\t// out\n        /* \"#utility.yul\":4996:5421   */\n    tag_199:\n        /* \"#utility.yul\":5074:5079   */\n      0x00\n        /* \"#utility.yul\":5099:5165   */\n      tag_308\n        /* \"#utility.yul\":5115:5164   */\n      tag_309\n        /* \"#utility.yul\":5157:5163   */\n      dup5\n        /* \"#utility.yul\":5115:5164   */\n      tag_197\n      jump\t// in\n    tag_309:\n        /* \"#utility.yul\":5099:5165   */\n      tag_196\n      jump\t// in\n    tag_308:\n        /* \"#utility.yul\":5090:5165   */\n      swap1\n      pop\n        /* \"#utility.yul\":5188:5194   */\n      dup3\n        /* \"#utility.yul\":5181:5186   */\n      dup2\n        /* \"#utility.yul\":5174:5195   */\n      mstore\n        /* \"#utility.yul\":5226:5230   */\n      0x20\n        /* \"#utility.yul\":5219:5224   */\n      dup2\n        /* \"#utility.yul\":5215:5231   */\n      add\n        /* \"#utility.yul\":5264:5267   */\n      dup5\n        /* \"#utility.yul\":5255:5261   */\n      dup5\n        /* \"#utility.yul\":5250:5253   */\n      dup5\n        /* \"#utility.yul\":5246:5262   */\n      add\n        /* \"#utility.yul\":5243:5268   */\n      gt\n        /* \"#utility.yul\":5240:5352   */\n      iszero\n      tag_310\n      jumpi\n        /* \"#utility.yul\":5271:5350   */\n      tag_311\n      tag_194\n      jump\t// in\n    tag_311:\n        /* \"#utility.yul\":5240:5352   */\n    tag_310:\n        /* \"#utility.yul\":5361:5415   */\n      tag_312\n        /* \"#utility.yul\":5408:5414   */\n      dup5\n        /* \"#utility.yul\":5403:5406   */\n      dup3\n        /* \"#utility.yul\":5398:5401   */\n      dup6\n        /* \"#utility.yul\":5361:5415   */\n      tag_198\n      jump\t// in\n    tag_312:\n        /* \"#utility.yul\":5080:5421   */\n      pop\n        /* \"#utility.yul\":4996:5421   */\n      swap4\n      swap3\n      pop\n      pop\n      pop\n      jump\t// out\n        /* \"#utility.yul\":5441:5781   */\n    tag_200:\n        /* \"#utility.yul\":5497:5502   */\n      0x00\n        /* \"#utility.yul\":5546:5549   */\n      dup3\n        /* \"#utility.yul\":5539:5543   */\n      0x1f\n        /* \"#utility.yul\":5531:5537   */\n      dup4\n        /* \"#utility.yul\":5527:5544   */\n      add\n        /* \"#utility.yul\":5523:5550   */\n      slt\n        /* \"#utility.yul\":5513:5635   */\n      tag_314\n      jumpi\n        /* \"#utility.yul\":5554:5633   */\n      tag_315\n      tag_193\n      jump\t// in\n    tag_315:\n        /* \"#utility.yul\":5513:5635   */\n    tag_314:\n        /* \"#utility.yul\":5671:5677   */\n      dup2\n        /* \"#utility.yul\":5658:5678   */\n      calldataload\n        /* \"#utility.yul\":5696:5775   */\n      tag_316\n        /* \"#utility.yul\":5771:5774   */\n      dup5\n        /* \"#utility.yul\":5763:5769   */\n      dup3\n        /* \"#utility.yul\":5756:5760   */\n      0x20\n        /* \"#utility.yul\":5748:5754   */\n      dup7\n        /* \"#utility.yul\":5744:5761   */\n      add\n        /* \"#utility.yul\":5696:5775   */\n      tag_199\n      jump\t// in\n    tag_316:\n        /* \"#utility.yul\":5687:5775   */\n      swap2\n      pop\n        /* \"#utility.yul\":5503:5781   */\n      pop\n        /* \"#utility.yul\":5441:5781   */\n      swap3\n      swap2\n      pop\n      pop\n      jump\t// out\n        /* \"#utility.yul\":5787:6296   */\n    tag_42:\n        /* \"#utility.yul\":5856:5862   */\n      0x00\n        /* \"#utility.yul\":5905:5907   */\n      0x20\n        /* \"#utility.yul\":5893:5902   */\n      dup3\n        /* \"#utility.yul\":5884:5891   */\n      dup5\n        /* \"#utility.yul\":5880:5903   */\n      sub\n        /* \"#utility.yul\":5876:5908   */\n      slt\n        /* \"#utility.yul\":5873:5992   */\n      iszero\n      tag_318\n      jumpi\n        /* \"#utility.yul\":5911:5990   */\n      tag_319\n      tag_178\n      jump\t// in\n    tag_319:\n        /* \"#utility.yul\":5873:5992   */\n    tag_318:\n        /* \"#utility.yul\":6059:6060   */\n      0x00\n        /* \"#utility.yul\":6048:6057   */\n      dup3\n        /* \"#utility.yul\":6044:6061   */\n      add\n        /* \"#utility.yul\":6031:6062   */\n      calldataload\n        /* \"#utility.yul\":6089:6107   */\n      0xffffffffffffffff\n        /* \"#utility.yul\":6081:6087   */\n      dup2\n        /* \"#utility.yul\":6078:6108   */\n      gt\n        /* \"#utility.yul\":6075:6192   */\n      iszero\n      tag_320\n      jumpi\n        /* \"#utility.yul\":6111:6190   */\n      tag_321\n      tag_179\n      jump\t// in\n    tag_321:\n        /* \"#utility.yul\":6075:6192   */\n    tag_320:\n        /* \"#utility.yul\":6216:6279   */\n      tag_322\n        /* \"#utility.yul\":6271:6278   */\n      dup5\n        /* \"#utility.yul\":6262:6268   */\n      dup3\n        /* \"#utility.yul\":6251:6260   */\n      dup6\n        /* \"#utility.yul\":6247:6269   */\n      add\n        /* \"#utility.yul\":6216:6279   */\n      tag_200\n      jump\t// in\n    tag_322:\n        /* \"#utility.yul\":6206:6279   */\n      swap2\n      pop\n        /* \"#utility.yul\":6002:6289   */\n      pop\n        /* \"#utility.yul\":5787:6296   */\n      swap3\n      swap2\n      pop\n      pop\n      jump\t// out\n        /* \"#utility.yul\":6302:6440   */\n    tag_201:\n        /* \"#utility.yul\":6393:6399   */\n      0x00\n        /* \"#utility.yul\":6427:6432   */\n      dup2\n        /* \"#utility.yul\":6421:6433   */\n      mload\n        /* \"#utility.yul\":6411:6433   */\n      swap1\n      pop\n        /* \"#utility.yul\":6302:6440   */\n      swap2\n      swap1\n      pop\n      jump\t// out\n        /* \"#utility.yul\":6446:6654   */\n    tag_202:\n        /* \"#utility.yul\":6569:6580   */\n      0x00\n        /* \"#utility.yul\":6603:6609   */\n      dup3\n        /* \"#utility.yul\":6598:6601   */\n      dup3\n        /* \"#utility.yul\":6591:6610   */\n      mstore\n        /* \"#utility.yul\":6643:6647   */\n      0x20\n        /* \"#utility.yul\":6638:6641   */\n      dup3\n        /* \"#utility.yul\":6634:6648   */\n      add\n        /* \"#utility.yul\":6619:6648   */\n      swap1\n      pop\n        /* \"#utility.yul\":6446:6654   */\n      swap3\n      swap2\n      pop\n      pop\n      jump\t// out\n        /* \"#utility.yul\":6660:6816   */\n    tag_203:\n        /* \"#utility.yul\":6751:6755   */\n      0x00\n        /* \"#utility.yul\":6774:6777   */\n      dup2\n        /* \"#utility.yul\":6766:6777   */\n      swap1\n      pop\n        /* \"#utility.yul\":6804:6808   */\n      0x20\n        /* \"#utility.yul\":6799:6802   */\n      dup3\n        /* \"#utility.yul\":6795:6809   */\n      add\n        /* \"#utility.yul\":6787:6809   */\n      swap1\n      pop\n        /* \"#utility.yul\":6660:6816   */\n      swap2\n      swap1\n      pop\n      jump\t// out\n        /* \"#utility.yul\":6822:6930   */\n    tag_204:\n        /* \"#utility.yul\":6899:6923   */\n      tag_327\n        /* \"#utility.yul\":6917:6922   */\n      dup2\n        /* \"#utility.yul\":6899:6923   */\n      tag_180\n      jump\t// in\n    tag_327:\n        /* \"#utility.yul\":6894:6897   */\n      dup3\n        /* \"#utility.yul\":6887:6924   */\n      mstore\n        /* \"#utility.yul\":6822:6930   */\n      pop\n      pop\n      jump\t// out\n        /* \"#utility.yul\":6936:7095   */\n    tag_205:\n        /* \"#utility.yul\":7010:7021   */\n      0x00\n        /* \"#utility.yul\":7044:7050   */\n      dup3\n        /* \"#utility.yul\":7039:7042   */\n      dup3\n        /* \"#utility.yul\":7032:7051   */\n      mstore\n        /* \"#utility.yul\":7084:7088   */\n      0x20\n        /* \"#utility.yul\":7079:7082   */\n      dup3\n        /* \"#utility.yul\":7075:7089   */\n      add\n        /* \"#utility.yul\":7060:7089   */\n      swap1\n      pop\n        /* \"#utility.yul\":6936:7095   */\n      swap3\n      swap2\n      pop\n      pop\n      jump\t// out\n        /* \"#utility.yul\":7101:7458   */\n    tag_206:\n        /* \"#utility.yul\":7179:7182   */\n      0x00\n        /* \"#utility.yul\":7207:7246   */\n      tag_330\n        /* \"#utility.yul\":7240:7245   */\n      dup3\n        /* \"#utility.yul\":7207:7246   */\n      tag_184\n      jump\t// in\n    tag_330:\n        /* \"#utility.yul\":7262:7323   */\n      tag_331\n        /* \"#utility.yul\":7316:7322   */\n      dup2\n        /* \"#utility.yul\":7311:7314   */\n      dup6\n        /* \"#utility.yul\":7262:7323   */\n      tag_205\n      jump\t// in\n    tag_331:\n        /* \"#utility.yul\":7255:7323   */\n      swap4\n      pop\n        /* \"#utility.yul\":7332:7397   */\n      tag_332\n        /* \"#utility.yul\":7390:7396   */\n      dup2\n        /* \"#utility.yul\":7385:7388   */\n      dup6\n        /* \"#utility.yul\":7378:7382   */\n      0x20\n        /* \"#utility.yul\":7371:7376   */\n      dup7\n        /* \"#utility.yul\":7367:7383   */\n      add\n        /* \"#utility.yul\":7332:7397   */\n      tag_186\n      jump\t// in\n    tag_332:\n        /* \"#utility.yul\":7422:7451   */\n      tag_333\n        /* \"#utility.yul\":7444:7450   */\n      dup2\n        /* \"#utility.yul\":7422:7451   */\n      tag_187\n      jump\t// in\n    tag_333:\n        /* \"#utility.yul\":7417:7420   */\n      dup5\n        /* \"#utility.yul\":7413:7452   */\n      add\n        /* \"#utility.yul\":7406:7452   */\n      swap2\n      pop\n        /* \"#utility.yul\":7183:7458   */\n      pop\n        /* \"#utility.yul\":7101:7458   */\n      swap3\n      swap2\n      pop\n      pop\n      jump\t// out\n        /* \"#utility.yul\":7548:8319   */\n    tag_207:\n        /* \"#utility.yul\":7655:7658   */\n      0x00\n        /* \"#utility.yul\":7691:7695   */\n      0x60\n        /* \"#utility.yul\":7686:7689   */\n      dup4\n        /* \"#utility.yul\":7682:7696   */\n      add\n        /* \"#utility.yul\":7776:7780   */\n      0x00\n        /* \"#utility.yul\":7769:7774   */\n      dup4\n        /* \"#utility.yul\":7765:7781   */\n      add\n        /* \"#utility.yul\":7759:7782   */\n      mload\n        /* \"#utility.yul\":7795:7858   */\n      tag_335\n        /* \"#utility.yul\":7852:7856   */\n      0x00\n        /* \"#utility.yul\":7847:7850   */\n      dup7\n        /* \"#utility.yul\":7843:7857   */\n      add\n        /* \"#utility.yul\":7829:7841   */\n      dup3\n        /* \"#utility.yul\":7795:7858   */\n      tag_204\n      jump\t// in\n    tag_335:\n        /* \"#utility.yul\":7706:7868   */\n      pop\n        /* \"#utility.yul\":7950:7954   */\n      0x20\n        /* \"#utility.yul\":7943:7948   */\n      dup4\n        /* \"#utility.yul\":7939:7955   */\n      add\n        /* \"#utility.yul\":7933:7956   */\n      mload\n        /* \"#utility.yul\":8003:8006   */\n      dup5\n        /* \"#utility.yul\":7997:8001   */\n      dup3\n        /* \"#utility.yul\":7993:8007   */\n      sub\n        /* \"#utility.yul\":7986:7990   */\n      0x20\n        /* \"#utility.yul\":7981:7984   */\n      dup7\n        /* \"#utility.yul\":7977:7991   */\n      add\n        /* \"#utility.yul\":7970:8008   */\n      mstore\n        /* \"#utility.yul\":8029:8102   */\n      tag_336\n        /* \"#utility.yul\":8097:8101   */\n      dup3\n        /* \"#utility.yul\":8083:8095   */\n      dup3\n        /* \"#utility.yul\":8029:8102   */\n      tag_206\n      jump\t// in\n    tag_336:\n        /* \"#utility.yul\":8021:8102   */\n      swap2\n      pop\n        /* \"#utility.yul\":7878:8113   */\n      pop\n        /* \"#utility.yul\":8200:8204   */\n      0x40\n        /* \"#utility.yul\":8193:8198   */\n      dup4\n        /* \"#utility.yul\":8189:8205   */\n      add\n        /* \"#utility.yul\":8183:8206   */\n      mload\n        /* \"#utility.yul\":8219:8282   */\n      tag_337\n        /* \"#utility.yul\":8276:8280   */\n      0x40\n        /* \"#utility.yul\":8271:8274   */\n      dup7\n        /* \"#utility.yul\":8267:8281   */\n      add\n        /* \"#utility.yul\":8253:8265   */\n      dup3\n        /* \"#utility.yul\":8219:8282   */\n      tag_204\n      jump\t// in\n    tag_337:\n        /* \"#utility.yul\":8123:8292   */\n      pop\n        /* \"#utility.yul\":8309:8313   */\n      dup1\n        /* \"#utility.yul\":8302:8313   */\n      swap2\n      pop\n        /* \"#utility.yul\":7660:8319   */\n      pop\n        /* \"#utility.yul\":7548:8319   */\n      swap3\n      swap2\n      pop\n      pop\n      jump\t// out\n        /* \"#utility.yul\":8325:8577   */\n    tag_208:\n        /* \"#utility.yul\":8442:8452   */\n      0x00\n        /* \"#utility.yul\":8477:8571   */\n      tag_339\n        /* \"#utility.yul\":8567:8570   */\n      dup4\n        /* \"#utility.yul\":8559:8565   */\n      dup4\n        /* \"#utility.yul\":8477:8571   */\n      tag_207\n      jump\t// in\n    tag_339:\n        /* \"#utility.yul\":8463:8571   */\n      swap1\n      pop\n        /* \"#utility.yul\":8325:8577   */\n      swap3\n      swap2\n      pop\n      pop\n      jump\t// out\n        /* \"#utility.yul\":8583:8720   */\n    tag_209:\n        /* \"#utility.yul\":8677:8681   */\n      0x00\n        /* \"#utility.yul\":8709:8713   */\n      0x20\n        /* \"#utility.yul\":8704:8707   */\n      dup3\n        /* \"#utility.yul\":8700:8714   */\n      add\n        /* \"#utility.yul\":8692:8714   */\n      swap1\n      pop\n        /* \"#utility.yul\":8583:8720   */\n      swap2\n      swap1\n      pop\n      jump\t// out\n        /* \"#utility.yul\":8814:9917   */\n    tag_210:\n        /* \"#utility.yul\":8981:8984   */\n      0x00\n        /* \"#utility.yul\":9010:9088   */\n      tag_342\n        /* \"#utility.yul\":9082:9087   */\n      dup3\n        /* \"#utility.yul\":9010:9088   */\n      tag_201\n      jump\t// in\n    tag_342:\n        /* \"#utility.yul\":9104:9214   */\n      tag_343\n        /* \"#utility.yul\":9207:9213   */\n      dup2\n        /* \"#utility.yul\":9202:9205   */\n      dup6\n        /* \"#utility.yul\":9104:9214   */\n      tag_202\n      jump\t// in\n    tag_343:\n        /* \"#utility.yul\":9097:9214   */\n      swap4\n      pop\n        /* \"#utility.yul\":9240:9243   */\n      dup4\n        /* \"#utility.yul\":9285:9289   */\n      0x20\n        /* \"#utility.yul\":9277:9283   */\n      dup3\n        /* \"#utility.yul\":9273:9290   */\n      mul\n        /* \"#utility.yul\":9268:9271   */\n      dup6\n        /* \"#utility.yul\":9264:9291   */\n      add\n        /* \"#utility.yul\":9315:9395   */\n      tag_344\n        /* \"#utility.yul\":9389:9394   */\n      dup6\n        /* \"#utility.yul\":9315:9395   */\n      tag_203\n      jump\t// in\n    tag_344:\n        /* \"#utility.yul\":9418:9425   */\n      dup1\n        /* \"#utility.yul\":9449:9450   */\n      0x00\n        /* \"#utility.yul\":9434:9872   */\n    tag_345:\n        /* \"#utility.yul\":9459:9465   */\n      dup6\n        /* \"#utility.yul\":9456:9457   */\n      dup2\n        /* \"#utility.yul\":9453:9466   */\n      lt\n        /* \"#utility.yul\":9434:9872   */\n      iszero\n      tag_347\n      jumpi\n        /* \"#utility.yul\":9530:9539   */\n      dup5\n        /* \"#utility.yul\":9524:9528   */\n      dup5\n        /* \"#utility.yul\":9520:9540   */\n      sub\n        /* \"#utility.yul\":9515:9518   */\n      dup10\n        /* \"#utility.yul\":9508:9541   */\n      mstore\n        /* \"#utility.yul\":9581:9587   */\n      dup2\n        /* \"#utility.yul\":9575:9588   */\n      mload\n        /* \"#utility.yul\":9609:9721   */\n      tag_348\n        /* \"#utility.yul\":9716:9720   */\n      dup6\n        /* \"#utility.yul\":9701:9714   */\n      dup3\n        /* \"#utility.yul\":9609:9721   */\n      tag_208\n      jump\t// in\n    tag_348:\n        /* \"#utility.yul\":9601:9721   */\n      swap5\n      pop\n        /* \"#utility.yul\":9744:9828   */\n      tag_349\n        /* \"#utility.yul\":9821:9827   */\n      dup4\n        /* \"#utility.yul\":9744:9828   */\n      tag_209\n      jump\t// in\n    tag_349:\n        /* \"#utility.yul\":9734:9828   */\n      swap3\n      pop\n        /* \"#utility.yul\":9857:9861   */\n      0x20\n        /* \"#utility.yul\":9852:9855   */\n      dup11\n        /* \"#utility.yul\":9848:9862   */\n      add\n        /* \"#utility.yul\":9841:9862   */\n      swap10\n      pop\n        /* \"#utility.yul\":9494:9872   */\n      pop\n        /* \"#utility.yul\":9481:9482   */\n      0x01\n        /* \"#utility.yul\":9478:9479   */\n      dup2\n        /* \"#utility.yul\":9474:9483   */\n      add\n        /* \"#utility.yul\":9469:9483   */\n      swap1\n      pop\n        /* \"#utility.yul\":9434:9872   */\n      jump(tag_345)\n    tag_347:\n        /* \"#utility.yul\":9438:9452   */\n      pop\n        /* \"#utility.yul\":9888:9892   */\n      dup3\n        /* \"#utility.yul\":9881:9892   */\n      swap8\n      pop\n        /* \"#utility.yul\":9908:9911   */\n      dup8\n        /* \"#utility.yul\":9901:9911   */\n      swap6\n      pop\n        /* \"#utility.yul\":8986:9917   */\n      pop\n      pop\n      pop\n      pop\n      pop\n        /* \"#utility.yul\":8814:9917   */\n      swap3\n      swap2\n      pop\n      pop\n      jump\t// out\n        /* \"#utility.yul\":9923:10392   */\n    tag_47:\n        /* \"#utility.yul\":10114:10118   */\n      0x00\n        /* \"#utility.yul\":10152:10154   */\n      0x20\n        /* \"#utility.yul\":10141:10150   */\n      dup3\n        /* \"#utility.yul\":10137:10155   */\n      add\n        /* \"#utility.yul\":10129:10155   */\n      swap1\n      pop\n        /* \"#utility.yul\":10201:10210   */\n      dup2\n        /* \"#utility.yul\":10195:10199   */\n      dup2\n        /* \"#utility.yul\":10191:10211   */\n      sub\n        /* \"#utility.yul\":10187:10188   */\n      0x00\n        /* \"#utility.yul\":10176:10185   */\n      dup4\n        /* \"#utility.yul\":10172:10189   */\n      add\n        /* \"#utility.yul\":10165:10212   */\n      mstore\n        /* \"#utility.yul\":10229:10385   */\n      tag_351\n        /* \"#utility.yul\":10380:10384   */\n      dup2\n        /* \"#utility.yul\":10371:10377   */\n      dup5\n        /* \"#utility.yul\":10229:10385   */\n      tag_210\n      jump\t// in\n    tag_351:\n        /* \"#utility.yul\":10221:10385   */\n      swap1\n      pop\n        /* \"#utility.yul\":9923:10392   */\n      swap3\n      swap2\n      pop\n      pop\n      jump\t// out\n        /* \"#utility.yul\":10398:10711   */\n    tag_51:\n        /* \"#utility.yul\":10511:10515   */\n      0x00\n        /* \"#utility.yul\":10549:10551   */\n      0x20\n        /* \"#utility.yul\":10538:10547   */\n      dup3\n        /* \"#utility.yul\":10534:10552   */\n      add\n        /* \"#utility.yul\":10526:10552   */\n      swap1\n      pop\n        /* \"#utility.yul\":10598:10607   */\n      dup2\n        /* \"#utility.yul\":10592:10596   */\n      dup2\n        /* \"#utility.yul\":10588:10608   */\n      sub\n        /* \"#utility.yul\":10584:10585   */\n      0x00\n        /* \"#utility.yul\":10573:10582   */\n      dup4\n        /* \"#utility.yul\":10569:10586   */\n      add\n        /* \"#utility.yul\":10562:10609   */\n      mstore\n        /* \"#utility.yul\":10626:10704   */\n      tag_353\n        /* \"#utility.yul\":10699:10703   */\n      dup2\n        /* \"#utility.yul\":10690:10696   */\n      dup5\n        /* \"#utility.yul\":10626:10704   */\n      tag_188\n      jump\t// in\n    tag_353:\n        /* \"#utility.yul\":10618:10704   */\n      swap1\n      pop\n        /* \"#utility.yul\":10398:10711   */\n      swap3\n      swap2\n      pop\n      pop\n      jump\t// out\n        /* \"#utility.yul\":10717:10835   */\n    tag_211:\n        /* \"#utility.yul\":10804:10828   */\n      tag_355\n        /* \"#utility.yul\":10822:10827   */\n      dup2\n        /* \"#utility.yul\":10804:10828   */\n      tag_190\n      jump\t// in\n    tag_355:\n        /* \"#utility.yul\":10799:10802   */\n      dup3\n        /* \"#utility.yul\":10792:10829   */\n      mstore\n        /* \"#utility.yul\":10717:10835   */\n      pop\n      pop\n      jump\t// out\n        /* \"#utility.yul\":10841:11063   */\n    tag_55:\n        /* \"#utility.yul\":10934:10938   */\n      0x00\n        /* \"#utility.yul\":10972:10974   */\n      0x20\n        /* \"#utility.yul\":10961:10970   */\n      dup3\n        /* \"#utility.yul\":10957:10975   */\n      add\n        /* \"#utility.yul\":10949:10975   */\n      swap1\n      pop\n        /* \"#utility.yul\":10985:11056   */\n      tag_357\n        /* \"#utility.yul\":11053:11054   */\n      0x00\n        /* \"#utility.yul\":11042:11051   */\n      dup4\n        /* \"#utility.yul\":11038:11055   */\n      add\n        /* \"#utility.yul\":11029:11035   */\n      dup5\n        /* \"#utility.yul\":10985:11056   */\n      tag_211\n      jump\t// in\n    tag_357:\n        /* \"#utility.yul\":10841:11063   */\n      swap3\n      swap2\n      pop\n      pop\n      jump\t// out\n        /* \"#utility.yul\":11069:11492   */\n    tag_59:\n        /* \"#utility.yul\":11210:11214   */\n      0x00\n        /* \"#utility.yul\":11248:11250   */\n      0x40\n        /* \"#utility.yul\":11237:11246   */\n      dup3\n        /* \"#utility.yul\":11233:11251   */\n      add\n        /* \"#utility.yul\":11225:11251   */\n      swap1\n      pop\n        /* \"#utility.yul\":11297:11306   */\n      dup2\n        /* \"#utility.yul\":11291:11295   */\n      dup2\n        /* \"#utility.yul\":11287:11307   */\n      sub\n        /* \"#utility.yul\":11283:11284   */\n      0x00\n        /* \"#utility.yul\":11272:11281   */\n      dup4\n        /* \"#utility.yul\":11268:11285   */\n      add\n        /* \"#utility.yul\":11261:11308   */\n      mstore\n        /* \"#utility.yul\":11325:11403   */\n      tag_359\n        /* \"#utility.yul\":11398:11402   */\n      dup2\n        /* \"#utility.yul\":11389:11395   */\n      dup6\n        /* \"#utility.yul\":11325:11403   */\n      tag_188\n      jump\t// in\n    tag_359:\n        /* \"#utility.yul\":11317:11403   */\n      swap1\n      pop\n        /* \"#utility.yul\":11413:11485   */\n      tag_360\n        /* \"#utility.yul\":11481:11483   */\n      0x20\n        /* \"#utility.yul\":11470:11479   */\n      dup4\n        /* \"#utility.yul\":11466:11484   */\n      add\n        /* \"#utility.yul\":11457:11463   */\n      dup5\n        /* \"#utility.yul\":11413:11485   */\n      tag_183\n      jump\t// in\n    tag_360:\n        /* \"#utility.yul\":11069:11492   */\n      swap4\n      swap3\n      pop\n      pop\n      pop\n      jump\t// out\n        /* \"#utility.yul\":11498:11588   */\n    tag_212:\n        /* \"#utility.yul\":11532:11539   */\n      0x00\n        /* \"#utility.yul\":11575:11580   */\n      dup2\n        /* \"#utility.yul\":11568:11581   */\n      iszero\n        /* \"#utility.yul\":11561:11582   */\n      iszero\n        /* \"#utility.yul\":11550:11582   */\n      swap1\n      pop\n        /* \"#utility.yul\":11498:11588   */\n      swap2\n      swap1\n      pop\n      jump\t// out\n        /* \"#utility.yul\":11594:11703   */\n    tag_213:\n        /* \"#utility.yul\":11675:11696   */\n      tag_363\n        /* \"#utility.yul\":11690:11695   */\n      dup2\n        /* \"#utility.yul\":11675:11696   */\n      tag_212\n      jump\t// in\n    tag_363:\n        /* \"#utility.yul\":11670:11673   */\n      dup3\n        /* \"#utility.yul\":11663:11697   */\n      mstore\n        /* \"#utility.yul\":11594:11703   */\n      pop\n      pop\n      jump\t// out\n        /* \"#utility.yul\":11709:12127   */\n    tag_64:\n        /* \"#utility.yul\":11846:11850   */\n      0x00\n        /* \"#utility.yul\":11884:11886   */\n      0x60\n        /* \"#utility.yul\":11873:11882   */\n      dup3\n        /* \"#utility.yul\":11869:11887   */\n      add\n        /* \"#utility.yul\":11861:11887   */\n      swap1\n      pop\n        /* \"#utility.yul\":11897:11962   */\n      tag_365\n        /* \"#utility.yul\":11959:11960   */\n      0x00\n        /* \"#utility.yul\":11948:11957   */\n      dup4\n        /* \"#utility.yul\":11944:11961   */\n      add\n        /* \"#utility.yul\":11935:11941   */\n      dup7\n        /* \"#utility.yul\":11897:11962   */\n      tag_213\n      jump\t// in\n    tag_365:\n        /* \"#utility.yul\":11972:12044   */\n      tag_366\n        /* \"#utility.yul\":12040:12042   */\n      0x20\n        /* \"#utility.yul\":12029:12038   */\n      dup4\n        /* \"#utility.yul\":12025:12043   */\n      add\n        /* \"#utility.yul\":12016:12022   */\n      dup6\n        /* \"#utility.yul\":11972:12044   */\n      tag_183\n      jump\t// in\n    tag_366:\n        /* \"#utility.yul\":12054:12120   */\n      tag_367\n        /* \"#utility.yul\":12116:12118   */\n      0x40\n        /* \"#utility.yul\":12105:12114   */\n      dup4\n        /* \"#utility.yul\":12101:12119   */\n      add\n        /* \"#utility.yul\":12092:12098   */\n      dup5\n        /* \"#utility.yul\":12054:12120   */\n      tag_213\n      jump\t// in\n    tag_367:\n        /* \"#utility.yul\":11709:12127   */\n      swap5\n      swap4\n      pop\n      pop\n      pop\n      pop\n      jump\t// out\n        /* \"#utility.yul\":12133:12343   */\n    tag_68:\n        /* \"#utility.yul\":12220:12224   */\n      0x00\n        /* \"#utility.yul\":12258:12260   */\n      0x20\n        /* \"#utility.yul\":12247:12256   */\n      dup3\n        /* \"#utility.yul\":12243:12261   */\n      add\n        /* \"#utility.yul\":12235:12261   */\n      swap1\n      pop\n        /* \"#utility.yul\":12271:12336   */\n      tag_369\n        /* \"#utility.yul\":12333:12334   */\n      0x00\n        /* \"#utility.yul\":12322:12331   */\n      dup4\n        /* \"#utility.yul\":12318:12335   */\n      add\n        /* \"#utility.yul\":12309:12315   */\n      dup5\n        /* \"#utility.yul\":12271:12336   */\n      tag_213\n      jump\t// in\n    tag_369:\n        /* \"#utility.yul\":12133:12343   */\n      swap3\n      swap2\n      pop\n      pop\n      jump\t// out\n        /* \"#utility.yul\":12349:12517   */\n    tag_214:\n        /* \"#utility.yul\":12489:12509   */\n      0x566f74696e67206973206e6f74206f70656e0000000000000000000000000000\n        /* \"#utility.yul\":12485:12486   */\n      0x00\n        /* \"#utility.yul\":12477:12483   */\n      dup3\n        /* \"#utility.yul\":12473:12487   */\n      add\n        /* \"#utility.yul\":12466:12510   */\n      mstore\n        /* \"#utility.yul\":12349:12517   */\n      pop\n      jump\t// out\n        /* \"#utility.yul\":12523:12889   */\n    tag_215:\n        /* \"#utility.yul\":12665:12668   */\n      0x00\n        /* \"#utility.yul\":12686:12753   */\n      tag_372\n        /* \"#utility.yul\":12750:12752   */\n      0x12\n        /* \"#utility.yul\":12745:12748   */\n      dup4\n        /* \"#utility.yul\":12686:12753   */\n      tag_185\n      jump\t// in\n    tag_372:\n        /* \"#utility.yul\":12679:12753   */\n      swap2\n      pop\n        /* \"#utility.yul\":12762:12855   */\n      tag_373\n        /* \"#utility.yul\":12851:12854   */\n      dup3\n        /* \"#utility.yul\":12762:12855   */\n      tag_214\n      jump\t// in\n    tag_373:\n        /* \"#utility.yul\":12880:12882   */\n      0x20\n        /* \"#utility.yul\":12875:12878   */\n      dup3\n        /* \"#utility.yul\":12871:12883   */\n      add\n        /* \"#utility.yul\":12864:12883   */\n      swap1\n      pop\n        /* \"#utility.yul\":12523:12889   */\n      swap2\n      swap1\n      pop\n      jump\t// out\n        /* \"#utility.yul\":12895:13314   */\n    tag_76:\n        /* \"#utility.yul\":13061:13065   */\n      0x00\n        /* \"#utility.yul\":13099:13101   */\n      0x20\n        /* \"#utility.yul\":13088:13097   */\n      dup3\n        /* \"#utility.yul\":13084:13102   */\n      add\n        /* \"#utility.yul\":13076:13102   */\n      swap1\n      pop\n        /* \"#utility.yul\":13148:13157   */\n      dup2\n        /* \"#utility.yul\":13142:13146   */\n      dup2\n        /* \"#utility.yul\":13138:13158   */\n      sub\n        /* \"#utility.yul\":13134:13135   */\n      0x00\n        /* \"#utility.yul\":13123:13132   */\n      dup4\n        /* \"#utility.yul\":13119:13136   */\n      add\n        /* \"#utility.yul\":13112:13159   */\n      mstore\n        /* \"#utility.yul\":13176:13307   */\n      tag_375\n        /* \"#utility.yul\":13302:13306   */\n      dup2\n        /* \"#utility.yul\":13176:13307   */\n      tag_215\n      jump\t// in\n    tag_375:\n        /* \"#utility.yul\":13168:13307   */\n      swap1\n      pop\n        /* \"#utility.yul\":12895:13314   */\n      swap2\n      swap1\n      pop\n      jump\t// out\n        /* \"#utility.yul\":13320:13493   */\n    tag_216:\n        /* \"#utility.yul\":13460:13485   */\n      0x566f746572206973206e6f742072656769737465726564000000000000000000\n        /* \"#utility.yul\":13456:13457   */\n      0x00\n        /* \"#utility.yul\":13448:13454   */\n      dup3\n        /* \"#utility.yul\":13444:13458   */\n      add\n        /* \"#utility.yul\":13437:13486   */\n      mstore\n        /* \"#utility.yul\":13320:13493   */\n      pop\n      jump\t// out\n        /* \"#utility.yul\":13499:13865   */\n    tag_217:\n        /* \"#utility.yul\":13641:13644   */\n      0x00\n        /* \"#utility.yul\":13662:13729   */\n      tag_378\n        /* \"#utility.yul\":13726:13728   */\n      0x17\n        /* \"#utility.yul\":13721:13724   */\n      dup4\n        /* \"#utility.yul\":13662:13729   */\n      tag_185\n      jump\t// in\n    tag_378:\n        /* \"#utility.yul\":13655:13729   */\n      swap2\n      pop\n        /* \"#utility.yul\":13738:13831   */\n      tag_379\n        /* \"#utility.yul\":13827:13830   */\n      dup3\n        /* \"#utility.yul\":13738:13831   */\n      tag_216\n      jump\t// in\n    tag_379:\n        /* \"#utility.yul\":13856:13858   */\n      0x20\n        /* \"#utility.yul\":13851:13854   */\n      dup3\n        /* \"#utility.yul\":13847:13859   */\n      add\n        /* \"#utility.yul\":13840:13859   */\n      swap1\n      pop\n        /* \"#utility.yul\":13499:13865   */\n      swap2\n      swap1\n      pop\n      jump\t// out\n        /* \"#utility.yul\":13871:14290   */\n    tag_80:\n        /* \"#utility.yul\":14037:14041   */\n      0x00\n        /* \"#utility.yul\":14075:14077   */\n      0x20\n        /* \"#utility.yul\":14064:14073   */\n      dup3\n        /* \"#utility.yul\":14060:14078   */\n      add\n        /* \"#utility.yul\":14052:14078   */\n      swap1\n      pop\n        /* \"#utility.yul\":14124:14133   */\n      dup2\n        /* \"#utility.yul\":14118:14122   */\n      dup2\n        /* \"#utility.yul\":14114:14134   */\n      sub\n        /* \"#utility.yul\":14110:14111   */\n      0x00\n        /* \"#utility.yul\":14099:14108   */\n      dup4\n        /* \"#utility.yul\":14095:14112   */\n      add\n        /* \"#utility.yul\":14088:14135   */\n      mstore\n        /* \"#utility.yul\":14152:14283   */\n      tag_381\n        /* \"#utility.yul\":14278:14282   */\n      dup2\n        /* \"#utility.yul\":14152:14283   */\n      tag_217\n      jump\t// in\n    tag_381:\n        /* \"#utility.yul\":14144:14283   */\n      swap1\n      pop\n        /* \"#utility.yul\":13871:14290   */\n      swap2\n      swap1\n      pop\n      jump\t// out\n        /* \"#utility.yul\":14296:14468   */\n    tag_218:\n        /* \"#utility.yul\":14436:14460   */\n      0x596f75206861766520616c726561647920766f74656400000000000000000000\n        /* \"#utility.yul\":14432:14433   */\n      0x00\n        /* \"#utility.yul\":14424:14430   */\n      dup3\n        /* \"#utility.yul\":14420:14434   */\n      add\n        /* \"#utility.yul\":14413:14461   */\n      mstore\n        /* \"#utility.yul\":14296:14468   */\n      pop\n      jump\t// out\n        /* \"#utility.yul\":14474:14840   */\n    tag_219:\n        /* \"#utility.yul\":14616:14619   */\n      0x00\n        /* \"#utility.yul\":14637:14704   */\n      tag_384\n        /* \"#utility.yul\":14701:14703   */\n      0x16\n        /* \"#utility.yul\":14696:14699   */\n      dup4\n        /* \"#utility.yul\":14637:14704   */\n      tag_185\n      jump\t// in\n    tag_384:\n        /* \"#utility.yul\":14630:14704   */\n      swap2\n      pop\n        /* \"#utility.yul\":14713:14806   */\n      tag_385\n        /* \"#utility.yul\":14802:14805   */\n      dup3\n        /* \"#utility.yul\":14713:14806   */\n      tag_218\n      jump\t// in\n    tag_385:\n        /* \"#utility.yul\":14831:14833   */\n      0x20\n        /* \"#utility.yul\":14826:14829   */\n      dup3\n        /* \"#utility.yul\":14822:14834   */\n      add\n        /* \"#utility.yul\":14815:14834   */\n      swap1\n      pop\n        /* \"#utility.yul\":14474:14840   */\n      swap2\n      swap1\n      pop\n      jump\t// out\n        /* \"#utility.yul\":14846:15265   */\n    tag_84:\n        /* \"#utility.yul\":15012:15016   */\n      0x00\n        /* \"#utility.yul\":15050:15052   */\n      0x20\n        /* \"#utility.yul\":15039:15048   */\n      dup3\n        /* \"#utility.yul\":15035:15053   */\n      add\n        /* \"#utility.yul\":15027:15053   */\n      swap1\n      pop\n        /* \"#utility.yul\":15099:15108   */\n      dup2\n        /* \"#utility.yul\":15093:15097   */\n      dup2\n        /* \"#utility.yul\":15089:15109   */\n      sub\n        /* \"#utility.yul\":15085:15086   */\n      0x00\n        /* \"#utility.yul\":15074:15083   */\n      dup4\n        /* \"#utility.yul\":15070:15087   */\n      add\n        /* \"#utility.yul\":15063:15110   */\n      mstore\n        /* \"#utility.yul\":15127:15258   */\n      tag_387\n        /* \"#utility.yul\":15253:15257   */\n      dup2\n        /* \"#utility.yul\":15127:15258   */\n      tag_219\n      jump\t// in\n    tag_387:\n        /* \"#utility.yul\":15119:15258   */\n      swap1\n      pop\n        /* \"#utility.yul\":14846:15265   */\n      swap2\n      swap1\n      pop\n      jump\t// out\n        /* \"#utility.yul\":15271:15441   */\n    tag_220:\n        /* \"#utility.yul\":15411:15433   */\n      0x496e76616c69642063616e646964617465204944000000000000000000000000\n        /* \"#utility.yul\":15407:15408   */\n      0x00\n        /* \"#utility.yul\":15399:15405   */\n      dup3\n        /* \"#utility.yul\":15395:15409   */\n      add\n        /* \"#utility.yul\":15388:15434   */\n      mstore\n        /* \"#utility.yul\":15271:15441   */\n      pop\n      jump\t// out\n        /* \"#utility.yul\":15447:15813   */\n    tag_221:\n        /* \"#utility.yul\":15589:15592   */\n      0x00\n        /* \"#utility.yul\":15610:15677   */\n      tag_390\n        /* \"#utility.yul\":15674:15676   */\n      0x14\n        /* \"#utility.yul\":15669:15672   */\n      dup4\n        /* \"#utility.yul\":15610:15677   */\n      tag_185\n      jump\t// in\n    tag_390:\n        /* \"#utility.yul\":15603:15677   */\n      swap2\n      pop\n        /* \"#utility.yul\":15686:15779   */\n      tag_391\n        /* \"#utility.yul\":15775:15778   */\n      dup3\n        /* \"#utility.yul\":15686:15779   */\n      tag_220\n      jump\t// in\n    tag_391:\n        /* \"#utility.yul\":15804:15806   */\n      0x20\n        /* \"#utility.yul\":15799:15802   */\n      dup3\n        /* \"#utility.yul\":15795:15807   */\n      add\n        /* \"#utility.yul\":15788:15807   */\n      swap1\n      pop\n        /* \"#utility.yul\":15447:15813   */\n      swap2\n      swap1\n      pop\n      jump\t// out\n        /* \"#utility.yul\":15819:16238   */\n    tag_88:\n        /* \"#utility.yul\":15985:15989   */\n      0x00\n        /* \"#utility.yul\":16023:16025   */\n      0x20\n        /* \"#utility.yul\":16012:16021   */\n      dup3\n        /* \"#utility.yul\":16008:16026   */\n      add\n        /* \"#utility.yul\":16000:16026   */\n      swap1\n      pop\n        /* \"#utility.yul\":16072:16081   */\n      dup2\n        /* \"#utility.yul\":16066:16070   */\n      dup2\n        /* \"#utility.yul\":16062:16082   */\n      sub\n        /* \"#utility.yul\":16058:16059   */\n      0x00\n        /* \"#utility.yul\":16047:16056   */\n      dup4\n        /* \"#utility.yul\":16043:16060   */\n      add\n        /* \"#utility.yul\":16036:16083   */\n      mstore\n        /* \"#utility.yul\":16100:16231   */\n      tag_393\n        /* \"#utility.yul\":16226:16230   */\n      dup2\n        /* \"#utility.yul\":16100:16231   */\n      tag_221\n      jump\t// in\n    tag_393:\n        /* \"#utility.yul\":16092:16231   */\n      swap1\n      pop\n        /* \"#utility.yul\":15819:16238   */\n      swap2\n      swap1\n      pop\n      jump\t// out\n        /* \"#utility.yul\":16244:16424   */\n    tag_222:\n        /* \"#utility.yul\":16292:16369   */\n      0x4e487b7100000000000000000000000000000000000000000000000000000000\n        /* \"#utility.yul\":16289:16290   */\n      0x00\n        /* \"#utility.yul\":16282:16370   */\n      mstore\n        /* \"#utility.yul\":16389:16393   */\n      0x11\n        /* \"#utility.yul\":16386:16387   */\n      0x04\n        /* \"#utility.yul\":16379:16394   */\n      mstore\n        /* \"#utility.yul\":16413:16417   */\n      0x24\n        /* \"#utility.yul\":16410:16411   */\n      0x00\n        /* \"#utility.yul\":16403:16418   */\n      revert\n        /* \"#utility.yul\":16430:16663   */\n    tag_90:\n        /* \"#utility.yul\":16469:16472   */\n      0x00\n        /* \"#utility.yul\":16492:16516   */\n      tag_396\n        /* \"#utility.yul\":16510:16515   */\n      dup3\n        /* \"#utility.yul\":16492:16516   */\n      tag_180\n      jump\t// in\n    tag_396:\n        /* \"#utility.yul\":16483:16516   */\n      swap2\n      pop\n        /* \"#utility.yul\":16538:16604   */\n      0xffffffffffffffffffffffffffffffffffffffffffffffffffffffffffffffff\n        /* \"#utility.yul\":16531:16536   */\n      dup3\n        /* \"#utility.yul\":16528:16605   */\n      sub\n        /* \"#utility.yul\":16525:16628   */\n      tag_397\n      jumpi\n        /* \"#utility.yul\":16608:16626   */\n      tag_398\n      tag_222\n      jump\t// in\n    tag_398:\n        /* \"#utility.yul\":16525:16628   */\n    tag_397:\n        /* \"#utility.yul\":16655:16656   */\n      0x01\n        /* \"#utility.yul\":16648:16653   */\n      dup3\n        /* \"#utility.yul\":16644:16657   */\n      add\n        /* \"#utility.yul\":16637:16657   */\n      swap1\n      pop\n        /* \"#utility.yul\":16430:16663   */\n      swap2\n      swap1\n      pop\n      jump\t// out\n        /* \"#utility.yul\":16669:17001   */\n    tag_93:\n        /* \"#utility.yul\":16790:16794   */\n      0x00\n        /* \"#utility.yul\":16828:16830   */\n      0x40\n        /* \"#utility.yul\":16817:16826   */\n      dup3\n        /* \"#utility.yul\":16813:16831   */\n      add\n        /* \"#utility.yul\":16805:16831   */\n      swap1\n      pop\n        /* \"#utility.yul\":16841:16912   */\n      tag_400\n        /* \"#utility.yul\":16909:16910   */\n      0x00\n        /* \"#utility.yul\":16898:16907   */\n      dup4\n        /* \"#utility.yul\":16894:16911   */\n      add\n        /* \"#utility.yul\":16885:16891   */\n      dup6\n        /* \"#utility.yul\":16841:16912   */\n      tag_211\n      jump\t// in\n    tag_400:\n        /* \"#utility.yul\":16922:16994   */\n      tag_401\n        /* \"#utility.yul\":16990:16992   */\n      0x20\n        /* \"#utility.yul\":16979:16988   */\n      dup4\n        /* \"#utility.yul\":16975:16993   */\n      add\n        /* \"#utility.yul\":16966:16972   */\n      dup5\n        /* \"#utility.yul\":16922:16994   */\n      tag_183\n      jump\t// in\n    tag_401:\n        /* \"#utility.yul\":16669:17001   */\n      swap4\n      swap3\n      pop\n      pop\n      pop\n      jump\t// out\n        /* \"#utility.yul\":17007:17187   */\n    tag_223:\n        /* \"#utility.yul\":17055:17132   */\n      0x4e487b7100000000000000000000000000000000000000000000000000000000\n        /* \"#utility.yul\":17052:17053   */\n      0x00\n        /* \"#utility.yul\":17045:17133   */\n      mstore\n        /* \"#utility.yul\":17152:17156   */\n      0x22\n        /* \"#utility.yul\":17149:17150   */\n      0x04\n        /* \"#utility.yul\":17142:17157   */\n      mstore\n        /* \"#utility.yul\":17176:17180   */\n      0x24\n        /* \"#utility.yul\":17173:17174   */\n      0x00\n        /* \"#utility.yul\":17166:17181   */\n      revert\n        /* \"#utility.yul\":17193:17513   */\n    tag_95:\n        /* \"#utility.yul\":17237:17243   */\n      0x00\n        /* \"#utility.yul\":17274:17275   */\n      0x02\n        /* \"#utility.yul\":17268:17272   */\n      dup3\n        /* \"#utility.yul\":17264:17276   */\n      div\n        /* \"#utility.yul\":17254:17276   */\n      swap1\n      pop\n        /* \"#utility.yul\":17321:17322   */\n      0x01\n        /* \"#utility.yul\":17315:17319   */\n      dup3\n        /* \"#utility.yul\":17311:17323   */\n      and\n        /* \"#utility.yul\":17342:17360   */\n      dup1\n        /* \"#utility.yul\":17332:17413   */\n      tag_404\n      jumpi\n        /* \"#utility.yul\":17398:17402   */\n      0x7f\n        /* \"#utility.yul\":17390:17396   */\n      dup3\n        /* \"#utility.yul\":17386:17403   */\n      and\n        /* \"#utility.yul\":17376:17403   */\n      swap2\n      pop\n        /* \"#utility.yul\":17332:17413   */\n    tag_404:\n        /* \"#utility.yul\":17460:17462   */\n      0x20\n        /* \"#utility.yul\":17452:17458   */\n      dup3\n        /* \"#utility.yul\":17449:17463   */\n      lt\n        /* \"#utility.yul\":17429:17447   */\n      dup2\n        /* \"#utility.yul\":17426:17464   */\n      sub\n        /* \"#utility.yul\":17423:17507   */\n      tag_405\n      jumpi\n        /* \"#utility.yul\":17479:17497   */\n      tag_406\n      tag_223\n      jump\t// in\n    tag_406:\n        /* \"#utility.yul\":17423:17507   */\n    tag_405:\n        /* \"#utility.yul\":17244:17513   */\n      pop\n        /* \"#utility.yul\":17193:17513   */\n      swap2\n      swap1\n      pop\n      jump\t// out\n        /* \"#utility.yul\":17519:17739   */\n    tag_224:\n        /* \"#utility.yul\":17659:17693   */\n      0x4f6e6c79206f776e65722063616e2063616c6c20746869732066756e6374696f\n        /* \"#utility.yul\":17655:17656   */\n      0x00\n        /* \"#utility.yul\":17647:17653   */\n      dup3\n        /* \"#utility.yul\":17643:17657   */\n      add\n        /* \"#utility.yul\":17636:17694   */\n      mstore\n        /* \"#utility.yul\":17728:17731   */\n      0x6e00000000000000000000000000000000000000000000000000000000000000\n        /* \"#utility.yul\":17723:17725   */\n      0x20\n        /* \"#utility.yul\":17715:17721   */\n      dup3\n        /* \"#utility.yul\":17711:17726   */\n      add\n        /* \"#utility.yul\":17704:17732   */\n      mstore\n        /* \"#utility.yul\":17519:17739   */\n      pop\n      jump\t// out\n        /* \"#utility.yul\":17745:18111   */\n    tag_225:\n        /* \"#utility.yul\":17887:17890   */\n      0x00\n        /* \"#utility.yul\":17908:17975   */\n      tag_409\n        /* \"#utility.yul\":17972:17974   */\n      0x21\n        /* \"#utility.yul\":17967:17970   */\n      dup4\n        /* \"#utility.yul\":17908:17975   */\n      tag_185\n      jump\t// in\n    tag_409:\n        /* \"#utility.yul\":17901:17975   */\n      swap2\n      pop\n        /* \"#utility.yul\":17984:18077   */\n      tag_410\n        /* \"#utility.yul\":18073:18076   */\n      dup3\n        /* \"#utility.yul\":17984:18077   */\n      tag_224\n      jump\t// in\n    tag_410:\n        /* \"#utility.yul\":18102:18104   */\n      0x40\n        /* \"#utility.yul\":18097:18100   */\n      dup3\n        /* \"#utility.yul\":18093:18105   */\n      add\n        /* \"#utility.yul\":18086:18105   */\n      swap1\n      pop\n        /* \"#utility.yul\":17745:18111   */\n      swap2\n      swap1\n      pop\n      jump\t// out\n        /* \"#utility.yul\":18117:18536   */\n    tag_103:\n        /* \"#utility.yul\":18283:18287   */\n      0x00\n        /* \"#utility.yul\":18321:18323   */\n      0x20\n        /* \"#utility.yul\":18310:18319   */\n      dup3\n        /* \"#utility.yul\":18306:18324   */\n      add\n        /* \"#utility.yul\":18298:18324   */\n      swap1\n      pop\n        /* \"#utility.yul\":18370:18379   */\n      dup2\n        /* \"#utility.yul\":18364:18368   */\n      dup2\n        /* \"#utility.yul\":18360:18380   */\n      sub\n        /* \"#utility.yul\":18356:18357   */\n      0x00\n        /* \"#utility.yul\":18345:18354   */\n      dup4\n        /* \"#utility.yul\":18341:18358   */\n      add\n        /* \"#utility.yul\":18334:18381   */\n      mstore\n        /* \"#utility.yul\":18398:18529   */\n      tag_412\n        /* \"#utility.yul\":18524:18528   */\n      dup2\n        /* \"#utility.yul\":18398:18529   */\n      tag_225\n      jump\t// in\n    tag_412:\n        /* \"#utility.yul\":18390:18529   */\n      swap1\n      pop\n        /* \"#utility.yul\":18117:18536   */\n      swap2\n      swap1\n      pop\n      jump\t// out\n        /* \"#utility.yul\":18542:18716   */\n    tag_226:\n        /* \"#utility.yul\":18682:18708   */\n      0x566f74657220616c726561647920726567697374657265640000000000000000\n        /* \"#utility.yul\":18678:18679   */\n      0x00\n        /* \"#utility.yul\":18670:18676   */\n      dup3\n        /* \"#utility.yul\":18666:18680   */\n      add\n        /* \"#utility.yul\":18659:18709   */\n      mstore\n        /* \"#utility.yul\":18542:18716   */\n      pop\n      jump\t// out\n        /* \"#utility.yul\":18722:19088   */\n    tag_227:\n        /* \"#utility.yul\":18864:18867   */\n      0x00\n        /* \"#utility.yul\":18885:18952   */\n      tag_415\n        /* \"#utility.yul\":18949:18951   */\n      0x18\n        /* \"#utility.yul\":18944:18947   */\n      dup4\n        /* \"#utility.yul\":18885:18952   */\n      tag_185\n      jump\t// in\n    tag_415:\n        /* \"#utility.yul\":18878:18952   */\n      swap2\n      pop\n        /* \"#utility.yul\":18961:19054   */\n      tag_416\n        /* \"#utility.yul\":19050:19053   */\n      dup3\n        /* \"#utility.yul\":18961:19054   */\n      tag_226\n      jump\t// in\n    tag_416:\n        /* \"#utility.yul\":19079:19081   */\n      0x20\n        /* \"#utility.yul\":19074:19077   */\n      dup3\n        /* \"#utility.yul\":19070:19082   */\n      add\n        /* \"#utility.yul\":19063:19082   */\n      swap1\n      pop\n        /* \"#utility.yul\":18722:19088   */\n      swap2\n      swap1\n      pop\n      jump\t// out\n        /* \"#utility.yul\":19094:19513   */\n    tag_107:\n        /* \"#utility.yul\":19260:19264   */\n      0x00\n        /* \"#utility.yul\":19298:19300   */\n      0x20\n        /* \"#utility.yul\":19287:19296   */\n      dup3\n        /* \"#utility.yul\":19283:19301   */\n      add\n        /* \"#utility.yul\":19275:19301   */\n      swap1\n      pop\n        /* \"#utility.yul\":19347:19356   */\n      dup2\n        /* \"#utility.yul\":19341:19345   */\n      dup2\n        /* \"#utility.yul\":19337:19357   */\n      sub\n        /* \"#utility.yul\":19333:19334   */\n      0x00\n        /* \"#utility.yul\":19322:19331   */\n      dup4\n        /* \"#utility.yul\":19318:19335   */\n      add\n        /* \"#utility.yul\":19311:19358   */\n      mstore\n        /* \"#utility.yul\":19375:19506   */\n      tag_418\n        /* \"#utility.yul\":19501:19505   */\n      dup2\n        /* \"#utility.yul\":19375:19506   */\n      tag_227\n      jump\t// in\n    tag_418:\n        /* \"#utility.yul\":19367:19506   */\n      swap1\n      pop\n        /* \"#utility.yul\":19094:19513   */\n      swap2\n      swap1\n      pop\n      jump\t// out\n        /* \"#utility.yul\":19519:19660   */\n    tag_228:\n        /* \"#utility.yul\":19568:19572   */\n      0x00\n        /* \"#utility.yul\":19591:19594   */\n      dup2\n        /* \"#utility.yul\":19583:19594   */\n      swap1\n      pop\n        /* \"#utility.yul\":19614:19617   */\n      dup2\n        /* \"#utility.yul\":19611:19612   */\n      0x00\n        /* \"#utility.yul\":19604:19618   */\n      mstore\n        /* \"#utility.yul\":19648:19652   */\n      0x20\n        /* \"#utility.yul\":19645:19646   */\n      0x00\n        /* \"#utility.yul\":19635:19653   */\n      keccak256\n        /* \"#utility.yul\":19627:19653   */\n      swap1\n      pop\n        /* \"#utility.yul\":19519:19660   */\n      swap2\n      swap1\n      pop\n      jump\t// out\n        /* \"#utility.yul\":19666:19759   */\n    tag_229:\n        /* \"#utility.yul\":19703:19709   */\n      0x00\n        /* \"#utility.yul\":19750:19752   */\n      0x20\n        /* \"#utility.yul\":19745:19747   */\n      0x1f\n        /* \"#utility.yul\":19738:19743   */\n      dup4\n        /* \"#utility.yul\":19734:19748   */\n      add\n        /* \"#utility.yul\":19730:19753   */\n      div\n        /* \"#utility.yul\":19720:19753   */\n      swap1\n      pop\n        /* \"#utility.yul\":19666:19759   */\n      swap2\n      swap1\n      pop\n      jump\t// out\n        /* \"#utility.yul\":19765:19872   */\n    tag_230:\n        /* \"#utility.yul\":19809:19817   */\n      0x00\n        /* \"#utility.yul\":19859:19864   */\n      dup3\n        /* \"#utility.yul\":19853:19857   */\n      dup3\n        /* \"#utility.yul\":19849:19865   */\n      shl\n        /* \"#utility.yul\":19828:19865   */\n      swap1\n      pop\n        /* \"#utility.yul\":19765:19872   */\n      swap3\n      swap2\n      pop\n      pop\n      jump\t// out\n        /* \"#utility.yul\":19878:20271   */\n    tag_231:\n        /* \"#utility.yul\":19947:19953   */\n      0x00\n        /* \"#utility.yul\":19997:19998   */\n      0x08\n        /* \"#utility.yul\":19985:19995   */\n      dup4\n        /* \"#utility.yul\":19981:19999   */\n      mul\n        /* \"#utility.yul\":20020:20117   */\n      tag_423\n        /* \"#utility.yul\":20050:20116   */\n      0xffffffffffffffffffffffffffffffffffffffffffffffffffffffffffffffff\n        /* \"#utility.yul\":20039:20048   */\n      dup3\n        /* \"#utility.yul\":20020:20117   */\n      tag_230\n      jump\t// in\n    tag_423:\n        /* \"#utility.yul\":20138:20177   */\n      tag_424\n        /* \"#utility.yul\":20168:20176   */\n      dup7\n        /* \"#utility.yul\":20157:20166   */\n      dup4\n        /* \"#utility.yul\":20138:20177   */\n      tag_230\n      jump\t// in\n    tag_424:\n        /* \"#utility.yul\":20126:20177   */\n      swap6\n      pop\n        /* \"#utility.yul\":20210:20214   */\n      dup1\n        /* \"#utility.yul\":20206:20215   */\n      not\n        /* \"#utility.yul\":20199:20204   */\n      dup5\n        /* \"#utility.yul\":20195:20216   */\n      and\n        /* \"#utility.yul\":20186:20216   */\n      swap4\n      pop\n        /* \"#utility.yul\":20259:20263   */\n      dup1\n        /* \"#utility.yul\":20249:20257   */\n      dup7\n        /* \"#utility.yul\":20245:20264   */\n      and\n        /* \"#utility.yul\":20238:20243   */\n      dup5\n        /* \"#utility.yul\":20235:20265   */\n      or\n        /* \"#utility.yul\":20225:20265   */\n      swap3\n      pop\n        /* \"#utility.yul\":19954:20271   */\n      pop\n      pop\n        /* \"#utility.yul\":19878:20271   */\n      swap4\n      swap3\n      pop\n      pop\n      pop\n      jump\t// out\n        /* \"#utility.yul\":20277:20337   */\n    tag_232:\n        /* \"#utility.yul\":20305:20308   */\n      0x00\n        /* \"#utility.yul\":20326:20331   */\n      dup2\n        /* \"#utility.yul\":20319:20331   */\n      swap1\n      pop\n        /* \"#utility.yul\":20277:20337   */\n      swap2\n      swap1\n      pop\n      jump\t// out\n        /* \"#utility.yul\":20343:20485   */\n    tag_233:\n        /* \"#utility.yul\":20393:20402   */\n      0x00\n        /* \"#utility.yul\":20426:20479   */\n      tag_427\n        /* \"#utility.yul\":20444:20478   */\n      tag_428\n        /* \"#utility.yul\":20453:20477   */\n      tag_429\n        /* \"#utility.yul\":20471:20476   */\n      dup5\n        /* \"#utility.yul\":20453:20477   */\n      tag_180\n      jump\t// in\n    tag_429:\n        /* \"#utility.yul\":20444:20478   */\n      tag_232\n      jump\t// in\n    tag_428:\n        /* \"#utility.yul\":20426:20479   */\n      tag_180\n      jump\t// in\n    tag_427:\n        /* \"#utility.yul\":20413:20479   */\n      swap1\n      pop\n        /* \"#utility.yul\":20343:20485   */\n      swap2\n      swap1\n      pop\n      jump\t// out\n        /* \"#utility.yul\":20491:20566   */\n    tag_234:\n        /* \"#utility.yul\":20534:20537   */\n      0x00\n        /* \"#utility.yul\":20555:20560   */\n      dup2\n        /* \"#utility.yul\":20548:20560   */\n      swap1\n      pop\n        /* \"#utility.yul\":20491:20566   */\n      swap2\n      swap1\n      pop\n      jump\t// out\n        /* \"#utility.yul\":20572:20841   */\n    tag_235:\n        /* \"#utility.yul\":20682:20721   */\n      tag_432\n        /* \"#utility.yul\":20713:20720   */\n      dup4\n        /* \"#utility.yul\":20682:20721   */\n      tag_233\n      jump\t// in\n    tag_432:\n        /* \"#utility.yul\":20743:20834   */\n      tag_433\n        /* \"#utility.yul\":20792:20833   */\n      tag_434\n        /* \"#utility.yul\":20816:20832   */\n      dup3\n        /* \"#utility.yul\":20792:20833   */\n      tag_234\n      jump\t// in\n    tag_434:\n        /* \"#utility.yul\":20784:20790   */\n      dup5\n        /* \"#utility.yul\":20777:20781   */\n      dup5\n        /* \"#utility.yul\":20771:20782   */\n      sload\n        /* \"#utility.yul\":20743:20834   */\n      tag_231\n      jump\t// in\n    tag_433:\n        /* \"#utility.yul\":20737:20741   */\n      dup3\n        /* \"#utility.yul\":20730:20835   */\n      sstore\n        /* \"#utility.yul\":20648:20841   */\n      pop\n        /* \"#utility.yul\":20572:20841   */\n      pop\n      pop\n      pop\n      jump\t// out\n        /* \"#utility.yul\":20847:20920   */\n    tag_236:\n        /* \"#utility.yul\":20892:20895   */\n      0x00\n        /* \"#utility.yul\":20913:20914   */\n      0x00\n        /* \"#utility.yul\":20906:20914   */\n      swap1\n      pop\n        /* \"#utility.yul\":20847:20920   */\n      swap1\n      jump\t// out\n        /* \"#utility.yul\":20926:21115   */\n    tag_237:\n        /* \"#utility.yul\":21003:21035   */\n      tag_437\n      tag_236\n      jump\t// in\n    tag_437:\n        /* \"#utility.yul\":21044:21109   */\n      tag_438\n        /* \"#utility.yul\":21102:21108   */\n      dup2\n        /* \"#utility.yul\":21094:21100   */\n      dup5\n        /* \"#utility.yul\":21088:21092   */\n      dup5\n        /* \"#utility.yul\":21044:21109   */\n      tag_235\n      jump\t// in\n    tag_438:\n        /* \"#utility.yul\":20979:21115   */\n      pop\n        /* \"#utility.yul\":20926:21115   */\n      pop\n      pop\n      jump\t// out\n        /* \"#utility.yul\":21121:21307   */\n    tag_238:\n        /* \"#utility.yul\":21181:21301   */\n    tag_440:\n        /* \"#utility.yul\":21198:21201   */\n      dup2\n        /* \"#utility.yul\":21191:21196   */\n      dup2\n        /* \"#utility.yul\":21188:21202   */\n      lt\n        /* \"#utility.yul\":21181:21301   */\n      iszero\n      tag_442\n      jumpi\n        /* \"#utility.yul\":21252:21291   */\n      tag_443\n        /* \"#utility.yul\":21289:21290   */\n      0x00\n        /* \"#utility.yul\":21282:21287   */\n      dup3\n        /* \"#utility.yul\":21252:21291   */\n      tag_237\n      jump\t// in\n    tag_443:\n        /* \"#utility.yul\":21225:21226   */\n      0x01\n        /* \"#utility.yul\":21218:21223   */\n      dup2\n        /* \"#utility.yul\":21214:21227   */\n      add\n        /* \"#utility.yul\":21205:21227   */\n      swap1\n      pop\n        /* \"#utility.yul\":21181:21301   */\n      jump(tag_440)\n    tag_442:\n        /* \"#utility.yul\":21121:21307   */\n      pop\n      pop\n      jump\t// out\n        /* \"#utility.yul\":21313:21856   */\n    tag_239:\n        /* \"#utility.yul\":21414:21416   */\n      0x1f\n        /* \"#utility.yul\":21409:21412   */\n      dup3\n        /* \"#utility.yul\":21406:21417   */\n      gt\n        /* \"#utility.yul\":21403:21849   */\n      iszero\n      tag_445\n      jumpi\n        /* \"#utility.yul\":21448:21486   */\n      tag_446\n        /* \"#utility.yul\":21480:21485   */\n      dup2\n        /* \"#utility.yul\":21448:21486   */\n      tag_228\n      jump\t// in\n    tag_446:\n        /* \"#utility.yul\":21532:21561   */\n      tag_447\n        /* \"#utility.yul\":21550:21560   */\n      dup5\n        /* \"#utility.yul\":21532:21561   */\n      tag_229\n      jump\t// in\n    tag_447:\n        /* \"#utility.yul\":21522:21530   */\n      dup2\n        /* \"#utility.yul\":21518:21562   */\n      add\n        /* \"#utility.yul\":21715:21717   */\n      0x20\n        /* \"#utility.yul\":21703:21713   */\n      dup6\n        /* \"#utility.yul\":21700:21718   */\n      lt\n        /* \"#utility.yul\":21697:21746   */\n      iszero\n      tag_448\n      jumpi\n        /* \"#utility.yul\":21736:21744   */\n      dup2\n        /* \"#utility.yul\":21721:21744   */\n      swap1\n      pop\n        /* \"#utility.yul\":21697:21746   */\n    tag_448:\n        /* \"#utility.yul\":21759:21839   */\n      tag_449\n        /* \"#utility.yul\":21815:21837   */\n      tag_450\n        /* \"#utility.yul\":21833:21836   */\n      dup6\n        /* \"#utility.yul\":21815:21837   */\n      tag_229\n      jump\t// in\n    tag_450:\n        /* \"#utility.yul\":21805:21813   */\n      dup4\n        /* \"#utility.yul\":21801:21838   */\n      add\n        /* \"#utility.yul\":21788:21799   */\n      dup3\n        /* \"#utility.yul\":21759:21839   */\n      tag_238\n      jump\t// in\n    tag_449:\n        /* \"#utility.yul\":21418:21849   */\n      pop\n      pop\n        /* \"#utility.yul\":21403:21849   */\n    tag_445:\n        /* \"#utility.yul\":21313:21856   */\n      pop\n      pop\n      pop\n      jump\t// out\n        /* \"#utility.yul\":21862:21979   */\n    tag_240:\n        /* \"#utility.yul\":21916:21924   */\n      0x00\n        /* \"#utility.yul\":21966:21971   */\n      dup3\n        /* \"#utility.yul\":21960:21964   */\n      dup3\n        /* \"#utility.yul\":21956:21972   */\n      shr\n        /* \"#utility.yul\":21935:21972   */\n      swap1\n      pop\n        /* \"#utility.yul\":21862:21979   */\n      swap3\n      swap2\n      pop\n      pop\n      jump\t// out\n        /* \"#utility.yul\":21985:22154   */\n    tag_241:\n        /* \"#utility.yul\":22029:22035   */\n      0x00\n        /* \"#utility.yul\":22062:22113   */\n      tag_453\n        /* \"#utility.yul\":22110:22111   */\n      0x00\n        /* \"#utility.yul\":22106:22112   */\n      not\n        /* \"#utility.yul\":22098:22103   */\n      dup5\n        /* \"#utility.yul\":22095:22096   */\n      0x08\n        /* \"#utility.yul\":22091:22104   */\n      mul\n        /* \"#utility.yul\":22062:22113   */\n      tag_240\n      jump\t// in\n    tag_453:\n        /* \"#utility.yul\":22058:22114   */\n      not\n        /* \"#utility.yul\":22143:22147   */\n      dup1\n        /* \"#utility.yul\":22137:22141   */\n      dup4\n        /* \"#utility.yul\":22133:22148   */\n      and\n        /* \"#utility.yul\":22123:22148   */\n      swap2\n      pop\n        /* \"#utility.yul\":22036:22154   */\n      pop\n        /* \"#utility.yul\":21985:22154   */\n      swap3\n      swap2\n      pop\n      pop\n      jump\t// out\n        /* \"#utility.yul\":22159:22454   */\n    tag_242:\n        /* \"#utility.yul\":22235:22239   */\n      0x00\n        /* \"#utility.yul\":22381:22410   */\n      tag_455\n        /* \"#utility.yul\":22406:22409   */\n      dup4\n        /* \"#utility.yul\":22400:22404   */\n      dup4\n        /* \"#utility.yul\":22381:22410   */\n      tag_241\n      jump\t// in\n    tag_455:\n        /* \"#utility.yul\":22373:22410   */\n      swap2\n      pop\n        /* \"#utility.yul\":22443:22446   */\n      dup3\n        /* \"#utility.yul\":22440:22441   */\n      0x02\n        /* \"#utility.yul\":22436:22447   */\n      mul\n        /* \"#utility.yul\":22430:22434   */\n      dup3\n        /* \"#utility.yul\":22427:22448   */\n      or\n        /* \"#utility.yul\":22419:22448   */\n      swap1\n      pop\n        /* \"#utility.yul\":22159:22454   */\n      swap3\n      swap2\n      pop\n      pop\n      jump\t// out\n        /* \"#utility.yul\":22459:23854   */\n    tag_115:\n        /* \"#utility.yul\":22576:22613   */\n      tag_457\n        /* \"#utility.yul\":22609:22612   */\n      dup3\n        /* \"#utility.yul\":22576:22613   */\n      tag_184\n      jump\t// in\n    tag_457:\n        /* \"#utility.yul\":22678:22696   */\n      0xffffffffffffffff\n        /* \"#utility.yul\":22670:22676   */\n      dup2\n        /* \"#utility.yul\":22667:22697   */\n      gt\n        /* \"#utility.yul\":22664:22720   */\n      iszero\n      tag_458\n      jumpi\n        /* \"#utility.yul\":22700:22718   */\n      tag_459\n      tag_124\n      jump\t// in\n    tag_459:\n        /* \"#utility.yul\":22664:22720   */\n    tag_458:\n        /* \"#utility.yul\":22744:22782   */\n      tag_460\n        /* \"#utility.yul\":22776:22780   */\n      dup3\n        /* \"#utility.yul\":22770:22781   */\n      sload\n        /* \"#utility.yul\":22744:22782   */\n      tag_95\n      jump\t// in\n    tag_460:\n        /* \"#utility.yul\":22829:22896   */\n      tag_461\n        /* \"#utility.yul\":22889:22895   */\n      dup3\n        /* \"#utility.yul\":22881:22887   */\n      dup3\n        /* \"#utility.yul\":22875:22879   */\n      dup6\n        /* \"#utility.yul\":22829:22896   */\n      tag_239\n      jump\t// in\n    tag_461:\n        /* \"#utility.yul\":22923:22924   */\n      0x00\n        /* \"#utility.yul\":22947:22951   */\n      0x20\n        /* \"#utility.yul\":22934:22951   */\n      swap1\n      pop\n        /* \"#utility.yul\":22979:22981   */\n      0x1f\n        /* \"#utility.yul\":22971:22977   */\n      dup4\n        /* \"#utility.yul\":22968:22982   */\n      gt\n        /* \"#utility.yul\":22996:22997   */\n      0x01\n        /* \"#utility.yul\":22991:23609   */\n      dup2\n      eq\n      tag_463\n      jumpi\n        /* \"#utility.yul\":23653:23654   */\n      0x00\n        /* \"#utility.yul\":23670:23676   */\n      dup5\n        /* \"#utility.yul\":23667:23744   */\n      iszero\n      tag_464\n      jumpi\n        /* \"#utility.yul\":23719:23728   */\n      dup3\n        /* \"#utility.yul\":23714:23717   */\n      dup8\n        /* \"#utility.yul\":23710:23729   */\n      add\n        /* \"#utility.yul\":23704:23730   */\n      mload\n        /* \"#utility.yul\":23695:23730   */\n      swap1\n      pop\n        /* \"#utility.yul\":23667:23744   */\n    tag_464:\n        /* \"#utility.yul\":23770:23837   */\n      tag_465\n        /* \"#utility.yul\":23830:23836   */\n      dup6\n        /* \"#utility.yul\":23823:23828   */\n      dup3\n        /* \"#utility.yul\":23770:23837   */\n      tag_242\n      jump\t// in\n    tag_465:\n        /* \"#utility.yul\":23764:23768   */\n      dup7\n        /* \"#utility.yul\":23757:23838   */\n      sstore\n        /* \"#utility.yul\":23626:23848   */\n      pop\n        /* \"#utility.yul\":22961:23848   */\n      jump(tag_462)\n        /* \"#utility.yul\":22991:23609   */\n    tag_463:\n        /* \"#utility.yul\":23043:23047   */\n      0x1f\n        /* \"#utility.yul\":23039:23048   */\n      not\n        /* \"#utility.yul\":23031:23037   */\n      dup5\n        /* \"#utility.yul\":23027:23049   */\n      and\n        /* \"#utility.yul\":23077:23114   */\n      tag_466\n        /* \"#utility.yul\":23109:23113   */\n      dup7\n        /* \"#utility.yul\":23077:23114   */\n      tag_228\n      jump\t// in\n    tag_466:\n        /* \"#utility.yul\":23136:23137   */\n      0x00\n        /* \"#utility.yul\":23150:23358   */\n    tag_467:\n        /* \"#utility.yul\":23164:23171   */\n      dup3\n        /* \"#utility.yul\":23161:23162   */\n      dup2\n        /* \"#utility.yul\":23158:23172   */\n      lt\n        /* \"#utility.yul\":23150:23358   */\n      iszero\n      tag_469\n      jumpi\n        /* \"#utility.yul\":23243:23252   */\n      dup5\n        /* \"#utility.yul\":23238:23241   */\n      dup10\n        /* \"#utility.yul\":23234:23253   */\n      add\n        /* \"#utility.yul\":23228:23254   */\n      mload\n        /* \"#utility.yul\":23220:23226   */\n      dup3\n        /* \"#utility.yul\":23213:23255   */\n      sstore\n        /* \"#utility.yul\":23294:23295   */\n      0x01\n        /* \"#utility.yul\":23286:23292   */\n      dup3\n        /* \"#utility.yul\":23282:23296   */\n      add\n        /* \"#utility.yul\":23272:23296   */\n      swap2\n      pop\n        /* \"#utility.yul\":23341:23343   */\n      0x20\n        /* \"#utility.yul\":23330:23339   */\n      dup6\n        /* \"#utility.yul\":23326:23344   */\n      add\n        /* \"#utility.yul\":23313:23344   */\n      swap5\n      pop\n        /* \"#utility.yul\":23187:23191   */\n      0x20\n        /* \"#utility.yul\":23184:23185   */\n      dup2\n        /* \"#utility.yul\":23180:23192   */\n      add\n        /* \"#utility.yul\":23175:23192   */\n      swap1\n      pop\n        /* \"#utility.yul\":23150:23358   */\n      jump(tag_467)\n    tag_469:\n        /* \"#utility.yul\":23386:23392   */\n      dup7\n        /* \"#utility.yul\":23377:23384   */\n      dup4\n        /* \"#utility.yul\":23374:23393   */\n      lt\n        /* \"#utility.yul\":23371:23550   */\n      iszero\n      tag_470\n      jumpi\n        /* \"#utility.yul\":23444:23453   */\n      dup5\n        /* \"#utility.yul\":23439:23442   */\n      dup10\n        /* \"#utility.yul\":23435:23454   */\n      add\n        /* \"#utility.yul\":23429:23455   */\n      mload\n        /* \"#utility.yul\":23487:23535   */\n      tag_471\n        /* \"#utility.yul\":23529:23533   */\n      0x1f\n        /* \"#utility.yul\":23521:23527   */\n      dup10\n        /* \"#utility.yul\":23517:23534   */\n      and\n        /* \"#utility.yul\":23506:23515   */\n      dup3\n        /* \"#utility.yul\":23487:23535   */\n      tag_241\n      jump\t// in\n    tag_471:\n        /* \"#utility.yul\":23479:23485   */\n      dup4\n        /* \"#utility.yul\":23472:23536   */\n      sstore\n        /* \"#utility.yul\":23394:23550   */\n      pop\n        /* \"#utility.yul\":23371:23550   */\n    tag_470:\n        /* \"#utility.yul\":23596:23597   */\n      0x01\n        /* \"#utility.yul\":23592:23593   */\n      0x02\n        /* \"#utility.yul\":23584:23590   */\n      dup9\n        /* \"#utility.yul\":23580:23594   */\n      mul\n        /* \"#utility.yul\":23576:23598   */\n      add\n        /* \"#utility.yul\":23570:23574   */\n      dup9\n        /* \"#utility.yul\":23563:23599   */\n      sstore\n        /* \"#utility.yul\":22998:23609   */\n      pop\n      pop\n      pop\n        /* \"#utility.yul\":22961:23848   */\n    tag_462:\n      pop\n        /* \"#utility.yul\":22551:23854   */\n      pop\n      pop\n      pop\n        /* \"#utility.yul\":22459:23854   */\n      pop\n      pop\n      jump\t// out\n        /* \"#utility.yul\":23860:24283   */\n    tag_117:\n        /* \"#utility.yul\":24001:24005   */\n      0x00\n        /* \"#utility.yul\":24039:24041   */\n      0x40\n        /* \"#utility.yul\":24028:24037   */\n      dup3\n        /* \"#utility.yul\":24024:24042   */\n      add\n        /* \"#utility.yul\":24016:24042   */\n      swap1\n      pop\n        /* \"#utility.yul\":24052:24123   */\n      tag_473\n        /* \"#utility.yul\":24120:24121   */\n      0x00\n        /* \"#utility.yul\":24109:24118   */\n      dup4\n        /* \"#utility.yul\":24105:24122   */\n      add\n        /* \"#utility.yul\":24096:24102   */\n      dup6\n        /* \"#utility.yul\":24052:24123   */\n      tag_183\n      jump\t// in\n    tag_473:\n        /* \"#utility.yul\":24170:24179   */\n      dup2\n        /* \"#utility.yul\":24164:24168   */\n      dup2\n        /* \"#utility.yul\":24160:24180   */\n      sub\n        /* \"#utility.yul\":24155:24157   */\n      0x20\n        /* \"#utility.yul\":24144:24153   */\n      dup4\n        /* \"#utility.yul\":24140:24158   */\n      add\n        /* \"#utility.yul\":24133:24181   */\n      mstore\n        /* \"#utility.yul\":24198:24276   */\n      tag_474\n        /* \"#utility.yul\":24271:24275   */\n      dup2\n        /* \"#utility.yul\":24262:24268   */\n      dup5\n        /* \"#utility.yul\":24198:24276   */\n      tag_188\n      jump\t// in\n    tag_474:\n        /* \"#utility.yul\":24190:24276   */\n      swap1\n      pop\n        /* \"#utility.yul\":23860:24283   */\n      swap4\n      swap3\n      pop\n      pop\n      pop\n      jump\t// out\n        /* \"#utility.yul\":24289:24459   */\n    tag_243:\n        /* \"#utility.yul\":24429:24451   */\n      0x566f74696e67206973207374696c6c206f70656e000000000000000000000000\n        /* \"#utility.yul\":24425:24426   */\n      0x00\n        /* \"#utility.yul\":24417:24423   */\n      dup3\n        /* \"#utility.yul\":24413:24427   */\n      add\n        /* \"#utility.yul\":24406:24452   */\n      mstore\n        /* \"#utility.yul\":24289:24459   */\n      pop\n      jump\t// out\n        /* \"#utility.yul\":24465:24831   */\n    tag_244:\n        /* \"#utility.yul\":24607:24610   */\n      0x00\n        /* \"#utility.yul\":24628:24695   */\n      tag_477\n        /* \"#utility.yul\":24692:24694   */\n      0x14\n        /* \"#utility.yul\":24687:24690   */\n      dup4\n        /* \"#utility.yul\":24628:24695   */\n      tag_185\n      jump\t// in\n    tag_477:\n        /* \"#utility.yul\":24621:24695   */\n      swap2\n      pop\n        /* \"#utility.yul\":24704:24797   */\n      tag_478\n        /* \"#utility.yul\":24793:24796   */\n      dup3\n        /* \"#utility.yul\":24704:24797   */\n      tag_243\n      jump\t// in\n    tag_478:\n        /* \"#utility.yul\":24822:24824   */\n      0x20\n        /* \"#utility.yul\":24817:24820   */\n      dup3\n        /* \"#utility.yul\":24813:24825   */\n      add\n        /* \"#utility.yul\":24806:24825   */\n      swap1\n      pop\n        /* \"#utility.yul\":24465:24831   */\n      swap2\n      swap1\n      pop\n      jump\t// out\n        /* \"#utility.yul\":24837:25256   */\n    tag_121:\n        /* \"#utility.yul\":25003:25007   */\n      0x00\n        /* \"#utility.yul\":25041:25043   */\n      0x20\n        /* \"#utility.yul\":25030:25039   */\n      dup3\n        /* \"#utility.yul\":25026:25044   */\n      add\n        /* \"#utility.yul\":25018:25044   */\n      swap1\n      pop\n        /* \"#utility.yul\":25090:25099   */\n      dup2\n        /* \"#utility.yul\":25084:25088   */\n      dup2\n        /* \"#utility.yul\":25080:25100   */\n      sub\n        /* \"#utility.yul\":25076:25077   */\n      0x00\n        /* \"#utility.yul\":25065:25074   */\n      dup4\n        /* \"#utility.yul\":25061:25078   */\n      add\n        /* \"#utility.yul\":25054:25101   */\n      mstore\n        /* \"#utility.yul\":25118:25249   */\n      tag_480\n        /* \"#utility.yul\":25244:25248   */\n      dup2\n        /* \"#utility.yul\":25118:25249   */\n      tag_244\n      jump\t// in\n    tag_480:\n        /* \"#utility.yul\":25110:25249   */\n      swap1\n      pop\n        /* \"#utility.yul\":24837:25256   */\n      swap2\n      swap1\n      pop\n      jump\t// out\n        /* \"#utility.yul\":25262:25456   */\n    tag_138:\n        /* \"#utility.yul\":25302:25306   */\n      0x00\n        /* \"#utility.yul\":25322:25342   */\n      tag_482\n        /* \"#utility.yul\":25340:25341   */\n      dup3\n        /* \"#utility.yul\":25322:25342   */\n      tag_180\n      jump\t// in\n    tag_482:\n        /* \"#utility.yul\":25317:25342   */\n      swap2\n      pop\n        /* \"#utility.yul\":25356:25376   */\n      tag_483\n        /* \"#utility.yul\":25374:25375   */\n      dup4\n        /* \"#utility.yul\":25356:25376   */\n      tag_180\n      jump\t// in\n    tag_483:\n        /* \"#utility.yul\":25351:25376   */\n      swap3\n      pop\n        /* \"#utility.yul\":25400:25401   */\n      dup3\n        /* \"#utility.yul\":25397:25398   */\n      dup3\n        /* \"#utility.yul\":25393:25402   */\n      sub\n        /* \"#utility.yul\":25385:25402   */\n      swap1\n      pop\n        /* \"#utility.yul\":25424:25425   */\n      dup2\n        /* \"#utility.yul\":25418:25422   */\n      dup2\n        /* \"#utility.yul\":25415:25426   */\n      gt\n        /* \"#utility.yul\":25412:25449   */\n      iszero\n      tag_484\n      jumpi\n        /* \"#utility.yul\":25429:25447   */\n      tag_485\n      tag_222\n      jump\t// in\n    tag_485:\n        /* \"#utility.yul\":25412:25449   */\n    tag_484:\n        /* \"#utility.yul\":25262:25456   */\n      swap3\n      swap2\n      pop\n      pop\n      jump\t// out\n        /* \"#utility.yul\":25462:25642   */\n    tag_141:\n        /* \"#utility.yul\":25510:25587   */\n      0x4e487b7100000000000000000000000000000000000000000000000000000000\n        /* \"#utility.yul\":25507:25508   */\n      0x00\n        /* \"#utility.yul\":25500:25588   */\n      mstore\n        /* \"#utility.yul\":25607:25611   */\n      0x32\n        /* \"#utility.yul\":25604:25605   */\n      0x04\n        /* \"#utility.yul\":25597:25612   */\n      mstore\n        /* \"#utility.yul\":25631:25635   */\n      0x24\n        /* \"#utility.yul\":25628:25629   */\n      0x00\n        /* \"#utility.yul\":25621:25636   */\n      revert\n        /* \"#utility.yul\":25648:25811   */\n    tag_245:\n        /* \"#utility.yul\":25788:25803   */\n      0x4e6f2063616e6469646174657300000000000000000000000000000000000000\n        /* \"#utility.yul\":25784:25785   */\n      0x00\n        /* \"#utility.yul\":25776:25782   */\n      dup3\n        /* \"#utility.yul\":25772:25786   */\n      add\n        /* \"#utility.yul\":25765:25804   */\n      mstore\n        /* \"#utility.yul\":25648:25811   */\n      pop\n      jump\t// out\n        /* \"#utility.yul\":25817:26183   */\n    tag_246:\n        /* \"#utility.yul\":25959:25962   */\n      0x00\n        /* \"#utility.yul\":25980:26047   */\n      tag_489\n        /* \"#utility.yul\":26044:26046   */\n      0x0d\n        /* \"#utility.yul\":26039:26042   */\n      dup4\n        /* \"#utility.yul\":25980:26047   */\n      tag_185\n      jump\t// in\n    tag_489:\n        /* \"#utility.yul\":25973:26047   */\n      swap2\n      pop\n        /* \"#utility.yul\":26056:26149   */\n      tag_490\n        /* \"#utility.yul\":26145:26148   */\n      dup3\n        /* \"#utility.yul\":26056:26149   */\n      tag_245\n      jump\t// in\n    tag_490:\n        /* \"#utility.yul\":26174:26176   */\n      0x20\n        /* \"#utility.yul\":26169:26172   */\n      dup3\n        /* \"#utility.yul\":26165:26177   */\n      add\n        /* \"#utility.yul\":26158:26177   */\n      swap1\n      pop\n        /* \"#utility.yul\":25817:26183   */\n      swap2\n      swap1\n      pop\n      jump\t// out\n        /* \"#utility.yul\":26189:26608   */\n    tag_153:\n        /* \"#utility.yul\":26355:26359   */\n      0x00\n        /* \"#utility.yul\":26393:26395   */\n      0x20\n        /* \"#utility.yul\":26382:26391   */\n      dup3\n        /* \"#utility.yul\":26378:26396   */\n      add\n        /* \"#utility.yul\":26370:26396   */\n      swap1\n      pop\n        /* \"#utility.yul\":26442:26451   */\n      dup2\n        /* \"#utility.yul\":26436:26440   */\n      dup2\n        /* \"#utility.yul\":26432:26452   */\n      sub\n        /* \"#utility.yul\":26428:26429   */\n      0x00\n        /* \"#utility.yul\":26417:26426   */\n      dup4\n        /* \"#utility.yul\":26413:26430   */\n      add\n        /* \"#utility.yul\":26406:26453   */\n      mstore\n        /* \"#utility.yul\":26470:26601   */\n      tag_492\n        /* \"#utility.yul\":26596:26600   */\n      dup2\n        /* \"#utility.yul\":26470:26601   */\n      tag_246\n      jump\t// in\n    tag_492:\n        /* \"#utility.yul\":26462:26601   */\n      swap1\n      pop\n        /* \"#utility.yul\":26189:26608   */\n      swap2\n      swap1\n      pop\n      jump\t// out\n        /* \"#utility.yul\":26614:26787   */\n    tag_247:\n        /* \"#utility.yul\":26754:26779   */\n      0x4e6f2063616e6469646174657320617661696c61626c65000000000000000000\n        /* \"#utility.yul\":26750:26751   */\n      0x00\n        /* \"#utility.yul\":26742:26748   */\n      dup3\n        /* \"#utility.yul\":26738:26752   */\n      add\n        /* \"#utility.yul\":26731:26780   */\n      mstore\n        /* \"#utility.yul\":26614:26787   */\n      pop\n      jump\t// out\n        /* \"#utility.yul\":26793:27159   */\n    tag_248:\n        /* \"#utility.yul\":26935:26938   */\n      0x00\n        /* \"#utility.yul\":26956:27023   */\n      tag_495\n        /* \"#utility.yul\":27020:27022   */\n      0x17\n        /* \"#utility.yul\":27015:27018   */\n      dup4\n        /* \"#utility.yul\":26956:27023   */\n      tag_185\n      jump\t// in\n    tag_495:\n        /* \"#utility.yul\":26949:27023   */\n      swap2\n      pop\n        /* \"#utility.yul\":27032:27125   */\n      tag_496\n        /* \"#utility.yul\":27121:27124   */\n      dup3\n        /* \"#utility.yul\":27032:27125   */\n      tag_247\n      jump\t// in\n    tag_496:\n        /* \"#utility.yul\":27150:27152   */\n      0x20\n        /* \"#utility.yul\":27145:27148   */\n      dup3\n        /* \"#utility.yul\":27141:27153   */\n      add\n        /* \"#utility.yul\":27134:27153   */\n      swap1\n      pop\n        /* \"#utility.yul\":26793:27159   */\n      swap2\n      swap1\n      pop\n      jump\t// out\n        /* \"#utility.yul\":27165:27584   */\n    tag_170:\n        /* \"#utility.yul\":27331:27335   */\n      0x00\n        /* \"#utility.yul\":27369:27371   */\n      0x20\n        /* \"#utility.yul\":27358:27367   */\n      dup3\n        /* \"#utility.yul\":27354:27372   */\n      add\n        /* \"#utility.yul\":27346:27372   */\n      swap1\n      pop\n        /* \"#utility.yul\":27418:27427   */\n      dup2\n        /* \"#utility.yul\":27412:27416   */\n      dup2\n        /* \"#utility.yul\":27408:27428   */\n      sub\n        /* \"#utility.yul\":27404:27405   */\n      0x00\n        /* \"#utility.yul\":27393:27402   */\n      dup4\n        /* \"#utility.yul\":27389:27406   */\n      add\n        /* \"#utility.yul\":27382:27429   */\n      mstore\n        /* \"#utility.yul\":27446:27577   */\n      tag_498\n        /* \"#utility.yul\":27572:27576   */\n      dup2\n        /* \"#utility.yul\":27446:27577   */\n      tag_248\n      jump\t// in\n    tag_498:\n        /* \"#utility.yul\":27438:27577   */\n      swap1\n      pop\n        /* \"#utility.yul\":27165:27584   */\n      swap2\n      swap1\n      pop\n      jump\t// out\n\n    auxdata: 0xa2646970667358221220641d233a79d18234ede8b601277a84919622de782f817d96d4ca78678775f90a64736f6c634300081e0033\n}\n",
				"bytecode": {
					"linkReferences": {},
					"object": "608060405234801561000f575f5ffd5b5060405161227d38038061227d833981810160405281019061003191906101ec565b335f5f6101000a81548173ffffffffffffffffffffffffffffffffffffffff021916908373ffffffffffffffffffffffffffffffffffffffff160217905550806001908161007f9190610443565b505f60025f6101000a81548160ff02191690831515021790555050610512565b5f604051905090565b5f5ffd5b5f5ffd5b5f5ffd5b5f5ffd5b5f601f19601f8301169050919050565b7f4e487b71000000000000000000000000000000000000000000000000000000005f52604160045260245ffd5b6100fe826100b8565b810181811067ffffffffffffffff8211171561011d5761011c6100c8565b5b80604052505050565b5f61012f61009f565b905061013b82826100f5565b919050565b5f67ffffffffffffffff82111561015a576101596100c8565b5b610163826100b8565b9050602081019050919050565b8281835e5f83830152505050565b5f61019061018b84610140565b610126565b9050828152602081018484840111156101ac576101ab6100b4565b5b6101b7848285610170565b509392505050565b5f82601f8301126101d3576101d26100b0565b5b81516101e384826020860161017e565b91505092915050565b5f60208284031215610201576102006100a8565b5b5f82015167ffffffffffffffff81111561021e5761021d6100ac565b5b61022a848285016101bf565b91505092915050565b5f81519050919050565b7f4e487b71000000000000000000000000000000000000000000000000000000005f52602260045260245ffd5b5f600282049050600182168061028157607f821691505b6020821081036102945761029361023d565b5b50919050565b5f819050815f5260205f209050919050565b5f6020601f8301049050919050565b5f82821b905092915050565b5f600883026102f67fffffffffffffffffffffffffffffffffffffffffffffffffffffffffffffffff826102bb565b61030086836102bb565b95508019841693508086168417925050509392505050565b5f819050919050565b5f819050919050565b5f61034461033f61033a84610318565b610321565b610318565b9050919050565b5f819050919050565b61035d8361032a565b6103716103698261034b565b8484546102c7565b825550505050565b5f5f905090565b610388610379565b610393818484610354565b505050565b5b818110156103b6576103ab5f82610380565b600181019050610399565b5050565b601f8211156103fb576103cc8161029a565b6103d5846102ac565b810160208510156103e4578190505b6103f86103f0856102ac565b830182610398565b50505b505050565b5f82821c905092915050565b5f61041b5f1984600802610400565b1980831691505092915050565b5f610433838361040c565b9150826002028217905092915050565b61044c82610233565b67ffffffffffffffff811115610465576104646100c8565b5b61046f825461026a565b61047a8282856103ba565b5f60209050601f8311600181146104ab575f8415610499578287015190505b6104a38582610428565b86555061050a565b601f1984166104b98661029a565b5f5b828110156104e0578489015182556001820191506020850194506020810190506104bb565b868310156104fd57848901516104f9601f89168261040c565b8355505b6001600288020188555050505b505050505050565b611d5e8061051f5f395ff3fe608060405234801561000f575f5ffd5b50600436106100e8575f3560e01c806385e8e7a71161008a578063a3ec138d11610064578063a3ec138d14610227578063a95824b414610259578063affc067014610277578063c631b29214610281576100e8565b806385e8e7a7146101cc5780638da5cb5b146101ea5780638e7ea5b214610208576100e8565b80633477ee2e116100c65780633477ee2e1461014457806338db6dd314610176578063462e91ec146101925780634717f97c146101ae576100e8565b80630121b93f146100ec5780630d15fd77146101085780632d35a8a214610126575b5f5ffd5b61010660048036038101906101019190611011565b61028b565b005b610110610559565b60405161011d919061104b565b60405180910390f35b61012e61055f565b60405161013b919061104b565b60405180910390f35b61015e60048036038101906101599190611011565b610565565b60405161016d939291906110d4565b60405180910390f35b610190600480360381019061018b919061116a565b610611565b005b6101ac60048036038101906101a791906112c1565b61080c565b005b6101b661094a565b6040516101c39190611467565b60405180910390f35b6101d4610b07565b6040516101e19190611487565b60405180910390f35b6101f2610b93565b6040516101ff91906114b6565b60405180910390f35b610210610bb7565b60405161021e9291906114cf565b60405180910390f35b610241600480360381019061023c919061116a565b610d58565b60405161025093929190611517565b60405180910390f35b610261610d96565b60405161026e919061154c565b60405180910390f35b61027f610da8565b005b610289610ece565b005b60025f9054906101000a900460ff166102d9576040517f08c379a00000000000000000000000000000000000000000000000000000000081526004016102d0906115af565b60405180910390fd5b60045f3373ffffffffffffffffffffffffffffffffffffffff1673ffffffffffffffffffffffffffffffffffffffff1681526020019081526020015f206002015f9054906101000a900460ff16610365576040517f08c379a000000000000000000000000000000000000000000000000000000000815260040161035c90611617565b60405180910390fd5b60045f3373ffffffffffffffffffffffffffffffffffffffff1673ffffffffffffffffffffffffffffffffffffffff1681526020019081526020015f205f015f9054906101000a900460ff16156103f1576040517f08c379a00000000000000000000000000000000000000000000000000000000081526004016103e89061167f565b60405180910390fd5b5f8111801561040257506005548111155b610441576040517f08c379a0000000000000000000000000000000000000000000000000000000008152600401610438906116e7565b60405180910390fd5b600160045f3373ffffffffffffffffffffffffffffffffffffffff1673ffffffffffffffffffffffffffffffffffffffff1681526020019081526020015f205f015f6101000a81548160ff0219169083151502179055508060045f3373ffffffffffffffffffffffffffffffffffffffff1673ffffffffffffffffffffffffffffffffffffffff1681526020019081526020015f206001018190555060035f8281526020019081526020015f206002015f81548092919061050190611732565b919050555060065f81548092919061051890611732565b91905055507fa36cc2bebb74db33e9f88110a07ef56e1b31b24b4c4f51b54b1664266e29f45b338260405161054e929190611779565b60405180910390a150565b60065481565b60055481565b6003602052805f5260405f205f91509050805f01549080600101805461058a906117cd565b80601f01602080910402602001604051908101604052809291908181526020018280546105b6906117cd565b80156106015780601f106105d857610100808354040283529160200191610601565b820191905f5260205f20905b8154815290600101906020018083116105e457829003601f168201915b5050505050908060020154905083565b5f5f9054906101000a900473ffffffffffffffffffffffffffffffffffffffff1673ffffffffffffffffffffffffffffffffffffffff163373ffffffffffffffffffffffffffffffffffffffff161461069f576040517f08c379a00000000000000000000000000000000000000000000000000000000081526004016106969061186d565b60405180910390fd5b60045f8273ffffffffffffffffffffffffffffffffffffffff1673ffffffffffffffffffffffffffffffffffffffff1681526020019081526020015f206002015f9054906101000a900460ff161561072c576040517f08c379a0000000000000000000000000000000000000000000000000000000008152600401610723906118d5565b60405180910390fd5b60405180606001604052805f151581526020015f81526020016001151581525060045f8373ffffffffffffffffffffffffffffffffffffffff1673ffffffffffffffffffffffffffffffffffffffff1681526020019081526020015f205f820151815f015f6101000a81548160ff021916908315150217905550602082015181600101556040820151816002015f6101000a81548160ff0219169083151502179055509050507fb6be2187d059cc2a55fe29e0e503b566e1e0f8c8780096e185429350acffd3dd8160405161080191906114b6565b60405180910390a150565b5f5f9054906101000a900473ffffffffffffffffffffffffffffffffffffffff1673ffffffffffffffffffffffffffffffffffffffff163373ffffffffffffffffffffffffffffffffffffffff161461089a576040517f08c379a00000000000000000000000000000000000000000000000000000000081526004016108919061186d565b60405180910390fd5b60055f8154809291906108ac90611732565b9190505550604051806060016040528060055481526020018281526020015f81525060035f60055481526020019081526020015f205f820151815f015560208201518160010190816108fe9190611a93565b50604082015181600201559050507fe83b2a43e7e82d975c8a0a6d2f045153c869e111136a34d1889ab7b598e396a36005548260405161093f929190611b62565b60405180910390a150565b606060025f9054906101000a900460ff161561099b576040517f08c379a000000000000000000000000000000000000000000000000000000000815260040161099290611bda565b60405180910390fd5b5f60055467ffffffffffffffff8111156109b8576109b761119d565b5b6040519080825280602002602001820160405280156109f157816020015b6109de610fae565b8152602001906001900390816109d65790505b5090505f600190505b6005548111610aff5760035f8281526020019081526020015f206040518060600160405290815f8201548152602001600182018054610a38906117cd565b80601f0160208091040260200160405190810160405280929190818152602001828054610a64906117cd565b8015610aaf5780601f10610a8657610100808354040283529160200191610aaf565b820191905f5260205f20905b815481529060010190602001808311610a9257829003601f168201915b5050505050815260200160028201548152505082600183610ad09190611bf8565b81518110610ae157610ae0611c2b565b5b60200260200101819052508080610af790611732565b9150506109fa565b508091505090565b60018054610b14906117cd565b80601f0160208091040260200160405190810160405280929190818152602001828054610b40906117cd565b8015610b8b5780601f10610b6257610100808354040283529160200191610b8b565b820191905f5260205f20905b815481529060010190602001808311610b6e57829003601f168201915b505050505081565b5f5f9054906101000a900473ffffffffffffffffffffffffffffffffffffffff1681565b60605f60025f9054906101000a900460ff1615610c09576040517f08c379a0000000000000000000000000000000000000000000000000000000008152600401610c0090611bda565b60405180910390fd5b5f60055411610c4d576040517f08c379a0000000000000000000000000000000000000000000000000000000008152600401610c4490611ca2565b60405180910390fd5b5f5f90505f5f90505f600190505b6005548111610cae578260035f8381526020019081526020015f20600201541115610c9b5760035f8281526020019081526020015f206002015492508091505b8080610ca690611732565b915050610c5b565b5060035f8281526020019081526020015f2060010182818054610cd0906117cd565b80601f0160208091040260200160405190810160405280929190818152602001828054610cfc906117cd565b8015610d475780601f10610d1e57610100808354040283529160200191610d47565b820191905f5260205f20905b815481529060010190602001808311610d2a57829003601f168201915b505050505091509350935050509091565b6004602052805f5260405f205f91509050805f015f9054906101000a900460ff1690806001015490806002015f9054906101000a900460ff16905083565b60025f9054906101000a900460ff1681565b5f5f9054906101000a900473ffffffffffffffffffffffffffffffffffffffff1673ffffffffffffffffffffffffffffffffffffffff163373ffffffffffffffffffffffffffffffffffffffff1614610e36576040517f08c379a0000000000000000000000000000000000000000000000000000000008152600401610e2d9061186d565b60405180910390fd5b5f60055411610e7a576040517f08c379a0000000000000000000000000000000000000000000000000000000008152600401610e7190611d0a565b60405180910390fd5b600160025f6101000a81548160ff0219169083151502179055507f9069a1a16ace751e8690f383e12f87b01e8488ba387e626810bd113fef0417f96001604051610ec4919061154c565b60405180910390a1565b5f5f9054906101000a900473ffffffffffffffffffffffffffffffffffffffff1673ffffffffffffffffffffffffffffffffffffffff163373ffffffffffffffffffffffffffffffffffffffff1614610f5c576040517f08c379a0000000000000000000000000000000000000000000000000000000008152600401610f539061186d565b60405180910390fd5b5f60025f6101000a81548160ff0219169083151502179055507f9069a1a16ace751e8690f383e12f87b01e8488ba387e626810bd113fef0417f95f604051610fa4919061154c565b60405180910390a1565b60405180606001604052805f8152602001606081526020015f81525090565b5f604051905090565b5f5ffd5b5f5ffd5b5f819050919050565b610ff081610fde565b8114610ffa575f5ffd5b50565b5f8135905061100b81610fe7565b92915050565b5f6020828403121561102657611025610fd6565b5b5f61103384828501610ffd565b91505092915050565b61104581610fde565b82525050565b5f60208201905061105e5f83018461103c565b92915050565b5f81519050919050565b5f82825260208201905092915050565b8281835e5f83830152505050565b5f601f19601f8301169050919050565b5f6110a682611064565b6110b0818561106e565b93506110c081856020860161107e565b6110c98161108c565b840191505092915050565b5f6060820190506110e75f83018661103c565b81810360208301526110f9818561109c565b9050611108604083018461103c565b949350505050565b5f73ffffffffffffffffffffffffffffffffffffffff82169050919050565b5f61113982611110565b9050919050565b6111498161112f565b8114611153575f5ffd5b50565b5f8135905061116481611140565b92915050565b5f6020828403121561117f5761117e610fd6565b5b5f61118c84828501611156565b91505092915050565b5f5ffd5b5f5ffd5b7f4e487b71000000000000000000000000000000000000000000000000000000005f52604160045260245ffd5b6111d38261108c565b810181811067ffffffffffffffff821117156111f2576111f161119d565b5b80604052505050565b5f611204610fcd565b905061121082826111ca565b919050565b5f67ffffffffffffffff82111561122f5761122e61119d565b5b6112388261108c565b9050602081019050919050565b828183375f83830152505050565b5f61126561126084611215565b6111fb565b90508281526020810184848401111561128157611280611199565b5b61128c848285611245565b509392505050565b5f82601f8301126112a8576112a7611195565b5b81356112b8848260208601611253565b91505092915050565b5f602082840312156112d6576112d5610fd6565b5b5f82013567ffffffffffffffff8111156112f3576112f2610fda565b5b6112ff84828501611294565b91505092915050565b5f81519050919050565b5f82825260208201905092915050565b5f819050602082019050919050565b61133a81610fde565b82525050565b5f82825260208201905092915050565b5f61135a82611064565b6113648185611340565b935061137481856020860161107e565b61137d8161108c565b840191505092915050565b5f606083015f83015161139d5f860182611331565b50602083015184820360208601526113b58282611350565b91505060408301516113ca6040860182611331565b508091505092915050565b5f6113e08383611388565b905092915050565b5f602082019050919050565b5f6113fe82611308565b6114088185611312565b93508360208202850161141a85611322565b805f5b85811015611455578484038952815161143685826113d5565b9450611441836113e8565b925060208a0199505060018101905061141d565b50829750879550505050505092915050565b5f6020820190508181035f83015261147f81846113f4565b905092915050565b5f6020820190508181035f83015261149f818461109c565b905092915050565b6114b08161112f565b82525050565b5f6020820190506114c95f8301846114a7565b92915050565b5f6040820190508181035f8301526114e7818561109c565b90506114f6602083018461103c565b9392505050565b5f8115159050919050565b611511816114fd565b82525050565b5f60608201905061152a5f830186611508565b611537602083018561103c565b6115446040830184611508565b949350505050565b5f60208201905061155f5f830184611508565b92915050565b7f566f74696e67206973206e6f74206f70656e00000000000000000000000000005f82015250565b5f61159960128361106e565b91506115a482611565565b602082019050919050565b5f6020820190508181035f8301526115c68161158d565b9050919050565b7f566f746572206973206e6f7420726567697374657265640000000000000000005f82015250565b5f61160160178361106e565b915061160c826115cd565b602082019050919050565b5f6020820190508181035f83015261162e816115f5565b9050919050565b7f596f75206861766520616c726561647920766f746564000000000000000000005f82015250565b5f61166960168361106e565b915061167482611635565b602082019050919050565b5f6020820190508181035f8301526116968161165d565b9050919050565b7f496e76616c69642063616e6469646174652049440000000000000000000000005f82015250565b5f6116d160148361106e565b91506116dc8261169d565b602082019050919050565b5f6020820190508181035f8301526116fe816116c5565b9050919050565b7f4e487b71000000000000000000000000000000000000000000000000000000005f52601160045260245ffd5b5f61173c82610fde565b91507fffffffffffffffffffffffffffffffffffffffffffffffffffffffffffffffff820361176e5761176d611705565b5b600182019050919050565b5f60408201905061178c5f8301856114a7565b611799602083018461103c565b9392505050565b7f4e487b71000000000000000000000000000000000000000000000000000000005f52602260045260245ffd5b5f60028204905060018216806117e457607f821691505b6020821081036117f7576117f66117a0565b5b50919050565b7f4f6e6c79206f776e65722063616e2063616c6c20746869732066756e6374696f5f8201527f6e00000000000000000000000000000000000000000000000000000000000000602082015250565b5f61185760218361106e565b9150611862826117fd565b604082019050919050565b5f6020820190508181035f8301526118848161184b565b9050919050565b7f566f74657220616c7265616479207265676973746572656400000000000000005f82015250565b5f6118bf60188361106e565b91506118ca8261188b565b602082019050919050565b5f6020820190508181035f8301526118ec816118b3565b9050919050565b5f819050815f5260205f209050919050565b5f6020601f8301049050919050565b5f82821b905092915050565b5f6008830261194f7fffffffffffffffffffffffffffffffffffffffffffffffffffffffffffffffff82611914565b6119598683611914565b95508019841693508086168417925050509392505050565b5f819050919050565b5f61199461198f61198a84610fde565b611971565b610fde565b9050919050565b5f819050919050565b6119ad8361197a565b6119c16119b98261199b565b848454611920565b825550505050565b5f5f905090565b6119d86119c9565b6119e38184846119a4565b505050565b5b81811015611a06576119fb5f826119d0565b6001810190506119e9565b5050565b601f821115611a4b57611a1c816118f3565b611a2584611905565b81016020851015611a34578190505b611a48611a4085611905565b8301826119e8565b50505b505050565b5f82821c905092915050565b5f611a6b5f1984600802611a50565b1980831691505092915050565b5f611a838383611a5c565b9150826002028217905092915050565b611a9c82611064565b67ffffffffffffffff811115611ab557611ab461119d565b5b611abf82546117cd565b611aca828285611a0a565b5f60209050601f831160018114611afb575f8415611ae9578287015190505b611af38582611a78565b865550611b5a565b601f198416611b09866118f3565b5f5b82811015611b3057848901518255600182019150602085019450602081019050611b0b565b86831015611b4d5784890151611b49601f891682611a5c565b8355505b6001600288020188555050505b505050505050565b5f604082019050611b755f83018561103c565b8181036020830152611b87818461109c565b90509392505050565b7f566f74696e67206973207374696c6c206f70656e0000000000000000000000005f82015250565b5f611bc460148361106e565b9150611bcf82611b90565b602082019050919050565b5f6020820190508181035f830152611bf181611bb8565b9050919050565b5f611c0282610fde565b9150611c0d83610fde565b9250828203905081811115611c2557611c24611705565b5b92915050565b7f4e487b71000000000000000000000000000000000000000000000000000000005f52603260045260245ffd5b7f4e6f2063616e64696461746573000000000000000000000000000000000000005f82015250565b5f611c8c600d8361106e565b9150611c9782611c58565b602082019050919050565b5f6020820190508181035f830152611cb981611c80565b9050919050565b7f4e6f2063616e6469646174657320617661696c61626c650000000000000000005f82015250565b5f611cf460178361106e565b9150611cff82611cc0565b602082019050919050565b5f6020820190508181035f830152611d2181611ce8565b905091905056fea2646970667358221220641d233a79d18234ede8b601277a84919622de782f817d96d4ca78678775f90a64736f6c634300081e0033",
					"opcodes": "PUSH1 0x80 PUSH1 0x40 MSTORE CALLVALUE DUP1 ISZERO PUSH2 0xF JUMPI PUSH0 PUSH0 REVERT JUMPDEST POP PUSH1 0x40 MLOAD PUSH2 0x227D CODESIZE SUB DUP1 PUSH2 0x227D DUP4 CODECOPY DUP2 DUP2 ADD PUSH1 0x40 MSTORE DUP2 ADD SWAP1 PUSH2 0x31 SWAP2 SWAP1 PUSH2 0x1EC JUMP JUMPDEST CALLER PUSH0 PUSH0 PUSH2 0x100 EXP DUP2 SLOAD DUP2 PUSH20 0xFFFFFFFFFFFFFFFFFFFFFFFFFFFFFFFFFFFFFFFF MUL NOT AND SWAP1 DUP4 PUSH20 0xFFFFFFFFFFFFFFFFFFFFFFFFFFFFFFFFFFFFFFFF AND MUL OR SWAP1 SSTORE POP DUP1 PUSH1 0x1 SWAP1 DUP2 PUSH2 0x7F SWAP2 SWAP1 PUSH2 0x443 JUMP JUMPDEST POP PUSH0 PUSH1 0x2 PUSH0 PUSH2 0x100 EXP DUP2 SLOAD DUP2 PUSH1 0xFF MUL NOT AND SWAP1 DUP4 ISZERO ISZERO MUL OR SWAP1 SSTORE POP POP PUSH2 0x512 JUMP JUMPDEST PUSH0 PUSH1 0x40 MLOAD SWAP1 POP SWAP1 JUMP JUMPDEST PUSH0 PUSH0 REVERT JUMPDEST PUSH0 PUSH0 REVERT JUMPDEST PUSH0 PUSH0 REVERT JUMPDEST PUSH0 PUSH0 REVERT JUMPDEST PUSH0 PUSH1 0x1F NOT PUSH1 0x1F DUP4 ADD AND SWAP1 POP SWAP2 SWAP1 POP JUMP JUMPDEST PUSH32 0x4E487B7100000000000000000000000000000000000000000000000000000000 PUSH0 MSTORE PUSH1 0x41 PUSH1 0x4 MSTORE PUSH1 0x24 PUSH0 REVERT JUMPDEST PUSH2 0xFE DUP3 PUSH2 0xB8 JUMP JUMPDEST DUP2 ADD DUP2 DUP2 LT PUSH8 0xFFFFFFFFFFFFFFFF DUP3 GT OR ISZERO PUSH2 0x11D JUMPI PUSH2 0x11C PUSH2 0xC8 JUMP JUMPDEST JUMPDEST DUP1 PUSH1 0x40 MSTORE POP POP POP JUMP JUMPDEST PUSH0 PUSH2 0x12F PUSH2 0x9F JUMP JUMPDEST SWAP1 POP PUSH2 0x13B DUP3 DUP3 PUSH2 0xF5 JUMP JUMPDEST SWAP2 SWAP1 POP JUMP JUMPDEST PUSH0 PUSH8 0xFFFFFFFFFFFFFFFF DUP3 GT ISZERO PUSH2 0x15A JUMPI PUSH2 0x159 PUSH2 0xC8 JUMP JUMPDEST JUMPDEST PUSH2 0x163 DUP3 PUSH2 0xB8 JUMP JUMPDEST SWAP1 POP PUSH1 0x20 DUP2 ADD SWAP1 POP SWAP2 SWAP1 POP JUMP JUMPDEST DUP3 DUP2 DUP4 MCOPY PUSH0 DUP4 DUP4 ADD MSTORE POP POP POP JUMP JUMPDEST PUSH0 PUSH2 0x190 PUSH2 0x18B DUP5 PUSH2 0x140 JUMP JUMPDEST PUSH2 0x126 JUMP JUMPDEST SWAP1 POP DUP3 DUP2 MSTORE PUSH1 0x20 DUP2 ADD DUP5 DUP5 DUP5 ADD GT ISZERO PUSH2 0x1AC JUMPI PUSH2 0x1AB PUSH2 0xB4 JUMP JUMPDEST JUMPDEST PUSH2 0x1B7 DUP5 DUP3 DUP6 PUSH2 0x170 JUMP JUMPDEST POP SWAP4 SWAP3 POP POP POP JUMP JUMPDEST PUSH0 DUP3 PUSH1 0x1F DUP4 ADD SLT PUSH2 0x1D3 JUMPI PUSH2 0x1D2 PUSH2 0xB0 JUMP JUMPDEST JUMPDEST DUP2 MLOAD PUSH2 0x1E3 DUP5 DUP3 PUSH1 0x20 DUP7 ADD PUSH2 0x17E JUMP JUMPDEST SWAP2 POP POP SWAP3 SWAP2 POP POP JUMP JUMPDEST PUSH0 PUSH1 0x20 DUP3 DUP5 SUB SLT ISZERO PUSH2 0x201 JUMPI PUSH2 0x200 PUSH2 0xA8 JUMP JUMPDEST JUMPDEST PUSH0 DUP3 ADD MLOAD PUSH8 0xFFFFFFFFFFFFFFFF DUP2 GT ISZERO PUSH2 0x21E JUMPI PUSH2 0x21D PUSH2 0xAC JUMP JUMPDEST JUMPDEST PUSH2 0x22A DUP5 DUP3 DUP6 ADD PUSH2 0x1BF JUMP JUMPDEST SWAP2 POP POP SWAP3 SWAP2 POP POP JUMP JUMPDEST PUSH0 DUP2 MLOAD SWAP1 POP SWAP2 SWAP1 POP JUMP JUMPDEST PUSH32 0x4E487B7100000000000000000000000000000000000000000000000000000000 PUSH0 MSTORE PUSH1 0x22 PUSH1 0x4 MSTORE PUSH1 0x24 PUSH0 REVERT JUMPDEST PUSH0 PUSH1 0x2 DUP3 DIV SWAP1 POP PUSH1 0x1 DUP3 AND DUP1 PUSH2 0x281 JUMPI PUSH1 0x7F DUP3 AND SWAP2 POP JUMPDEST PUSH1 0x20 DUP3 LT DUP2 SUB PUSH2 0x294 JUMPI PUSH2 0x293 PUSH2 0x23D JUMP JUMPDEST JUMPDEST POP SWAP2 SWAP1 POP JUMP JUMPDEST PUSH0 DUP2 SWAP1 POP DUP2 PUSH0 MSTORE PUSH1 0x20 PUSH0 KECCAK256 SWAP1 POP SWAP2 SWAP1 POP JUMP JUMPDEST PUSH0 PUSH1 0x20 PUSH1 0x1F DUP4 ADD DIV SWAP1 POP SWAP2 SWAP1 POP JUMP JUMPDEST PUSH0 DUP3 DUP3 SHL SWAP1 POP SWAP3 SWAP2 POP POP JUMP JUMPDEST PUSH0 PUSH1 0x8 DUP4 MUL PUSH2 0x2F6 PUSH32 0xFFFFFFFFFFFFFFFFFFFFFFFFFFFFFFFFFFFFFFFFFFFFFFFFFFFFFFFFFFFFFFFF DUP3 PUSH2 0x2BB JUMP JUMPDEST PUSH2 0x300 DUP7 DUP4 PUSH2 0x2BB JUMP JUMPDEST SWAP6 POP DUP1 NOT DUP5 AND SWAP4 POP DUP1 DUP7 AND DUP5 OR SWAP3 POP POP POP SWAP4 SWAP3 POP POP POP JUMP JUMPDEST PUSH0 DUP2 SWAP1 POP SWAP2 SWAP1 POP JUMP JUMPDEST PUSH0 DUP2 SWAP1 POP SWAP2 SWAP1 POP JUMP JUMPDEST PUSH0 PUSH2 0x344 PUSH2 0x33F PUSH2 0x33A DUP5 PUSH2 0x318 JUMP JUMPDEST PUSH2 0x321 JUMP JUMPDEST PUSH2 0x318 JUMP JUMPDEST SWAP1 POP SWAP2 SWAP1 POP JUMP JUMPDEST PUSH0 DUP2 SWAP1 POP SWAP2 SWAP1 POP JUMP JUMPDEST PUSH2 0x35D DUP4 PUSH2 0x32A JUMP JUMPDEST PUSH2 0x371 PUSH2 0x369 DUP3 PUSH2 0x34B JUMP JUMPDEST DUP5 DUP5 SLOAD PUSH2 0x2C7 JUMP JUMPDEST DUP3 SSTORE POP POP POP POP JUMP JUMPDEST PUSH0 PUSH0 SWAP1 POP SWAP1 JUMP JUMPDEST PUSH2 0x388 PUSH2 0x379 JUMP JUMPDEST PUSH2 0x393 DUP2 DUP5 DUP5 PUSH2 0x354 JUMP JUMPDEST POP POP POP JUMP JUMPDEST JUMPDEST DUP2 DUP2 LT ISZERO PUSH2 0x3B6 JUMPI PUSH2 0x3AB PUSH0 DUP3 PUSH2 0x380 JUMP JUMPDEST PUSH1 0x1 DUP2 ADD SWAP1 POP PUSH2 0x399 JUMP JUMPDEST POP POP JUMP JUMPDEST PUSH1 0x1F DUP3 GT ISZERO PUSH2 0x3FB JUMPI PUSH2 0x3CC DUP2 PUSH2 0x29A JUMP JUMPDEST PUSH2 0x3D5 DUP5 PUSH2 0x2AC JUMP JUMPDEST DUP2 ADD PUSH1 0x20 DUP6 LT ISZERO PUSH2 0x3E4 JUMPI DUP2 SWAP1 POP JUMPDEST PUSH2 0x3F8 PUSH2 0x3F0 DUP6 PUSH2 0x2AC JUMP JUMPDEST DUP4 ADD DUP3 PUSH2 0x398 JUMP JUMPDEST POP POP JUMPDEST POP POP POP JUMP JUMPDEST PUSH0 DUP3 DUP3 SHR SWAP1 POP SWAP3 SWAP2 POP POP JUMP JUMPDEST PUSH0 PUSH2 0x41B PUSH0 NOT DUP5 PUSH1 0x8 MUL PUSH2 0x400 JUMP JUMPDEST NOT DUP1 DUP4 AND SWAP2 POP POP SWAP3 SWAP2 POP POP JUMP JUMPDEST PUSH0 PUSH2 0x433 DUP4 DUP4 PUSH2 0x40C JUMP JUMPDEST SWAP2 POP DUP3 PUSH1 0x2 MUL DUP3 OR SWAP1 POP SWAP3 SWAP2 POP POP JUMP JUMPDEST PUSH2 0x44C DUP3 PUSH2 0x233 JUMP JUMPDEST PUSH8 0xFFFFFFFFFFFFFFFF DUP2 GT ISZERO PUSH2 0x465 JUMPI PUSH2 0x464 PUSH2 0xC8 JUMP JUMPDEST JUMPDEST PUSH2 0x46F DUP3 SLOAD PUSH2 0x26A JUMP JUMPDEST PUSH2 0x47A DUP3 DUP3 DUP6 PUSH2 0x3BA JUMP JUMPDEST PUSH0 PUSH1 0x20 SWAP1 POP PUSH1 0x1F DUP4 GT PUSH1 0x1 DUP2 EQ PUSH2 0x4AB JUMPI PUSH0 DUP5 ISZERO PUSH2 0x499 JUMPI DUP3 DUP8 ADD MLOAD SWAP1 POP JUMPDEST PUSH2 0x4A3 DUP6 DUP3 PUSH2 0x428 JUMP JUMPDEST DUP7 SSTORE POP PUSH2 0x50A JUMP JUMPDEST PUSH1 0x1F NOT DUP5 AND PUSH2 0x4B9 DUP7 PUSH2 0x29A JUMP JUMPDEST PUSH0 JUMPDEST DUP3 DUP2 LT ISZERO PUSH2 0x4E0 JUMPI DUP5 DUP10 ADD MLOAD DUP3 SSTORE PUSH1 0x1 DUP3 ADD SWAP2 POP PUSH1 0x20 DUP6 ADD SWAP5 POP PUSH1 0x20 DUP2 ADD SWAP1 POP PUSH2 0x4BB JUMP JUMPDEST DUP7 DUP4 LT ISZERO PUSH2 0x4FD JUMPI DUP5 DUP10 ADD MLOAD PUSH2 0x4F9 PUSH1 0x1F DUP10 AND DUP3 PUSH2 0x40C JUMP JUMPDEST DUP4 SSTORE POP JUMPDEST PUSH1 0x1 PUSH1 0x2 DUP9 MUL ADD DUP9 SSTORE POP POP POP JUMPDEST POP POP POP POP POP POP JUMP JUMPDEST PUSH2 0x1D5E DUP1 PUSH2 0x51F PUSH0 CODECOPY PUSH0 RETURN INVALID PUSH1 0x80 PUSH1 0x40 MSTORE CALLVALUE DUP1 ISZERO PUSH2 0xF JUMPI PUSH0 PUSH0 REVERT JUMPDEST POP PUSH1 0x4 CALLDATASIZE LT PUSH2 0xE8 JUMPI PUSH0 CALLDATALOAD PUSH1 0xE0 SHR DUP1 PUSH4 0x85E8E7A7 GT PUSH2 0x8A JUMPI DUP1 PUSH4 0xA3EC138D GT PUSH2 0x64 JUMPI DUP1 PUSH4 0xA3EC138D EQ PUSH2 0x227 JUMPI DUP1 PUSH4 0xA95824B4 EQ PUSH2 0x259 JUMPI DUP1 PUSH4 0xAFFC0670 EQ PUSH2 0x277 JUMPI DUP1 PUSH4 0xC631B292 EQ PUSH2 0x281 JUMPI PUSH2 0xE8 JUMP JUMPDEST DUP1 PUSH4 0x85E8E7A7 EQ PUSH2 0x1CC JUMPI DUP1 PUSH4 0x8DA5CB5B EQ PUSH2 0x1EA JUMPI DUP1 PUSH4 0x8E7EA5B2 EQ PUSH2 0x208 JUMPI PUSH2 0xE8 JUMP JUMPDEST DUP1 PUSH4 0x3477EE2E GT PUSH2 0xC6 JUMPI DUP1 PUSH4 0x3477EE2E EQ PUSH2 0x144 JUMPI DUP1 PUSH4 0x38DB6DD3 EQ PUSH2 0x176 JUMPI DUP1 PUSH4 0x462E91EC EQ PUSH2 0x192 JUMPI DUP1 PUSH4 0x4717F97C EQ PUSH2 0x1AE JUMPI PUSH2 0xE8 JUMP JUMPDEST DUP1 PUSH4 0x121B93F EQ PUSH2 0xEC JUMPI DUP1 PUSH4 0xD15FD77 EQ PUSH2 0x108 JUMPI DUP1 PUSH4 0x2D35A8A2 EQ PUSH2 0x126 JUMPI JUMPDEST PUSH0 PUSH0 REVERT JUMPDEST PUSH2 0x106 PUSH1 0x4 DUP1 CALLDATASIZE SUB DUP2 ADD SWAP1 PUSH2 0x101 SWAP2 SWAP1 PUSH2 0x1011 JUMP JUMPDEST PUSH2 0x28B JUMP JUMPDEST STOP JUMPDEST PUSH2 0x110 PUSH2 0x559 JUMP JUMPDEST PUSH1 0x40 MLOAD PUSH2 0x11D SWAP2 SWAP1 PUSH2 0x104B JUMP JUMPDEST PUSH1 0x40 MLOAD DUP1 SWAP2 SUB SWAP1 RETURN JUMPDEST PUSH2 0x12E PUSH2 0x55F JUMP JUMPDEST PUSH1 0x40 MLOAD PUSH2 0x13B SWAP2 SWAP1 PUSH2 0x104B JUMP JUMPDEST PUSH1 0x40 MLOAD DUP1 SWAP2 SUB SWAP1 RETURN JUMPDEST PUSH2 0x15E PUSH1 0x4 DUP1 CALLDATASIZE SUB DUP2 ADD SWAP1 PUSH2 0x159 SWAP2 SWAP1 PUSH2 0x1011 JUMP JUMPDEST PUSH2 0x565 JUMP JUMPDEST PUSH1 0x40 MLOAD PUSH2 0x16D SWAP4 SWAP3 SWAP2 SWAP1 PUSH2 0x10D4 JUMP JUMPDEST PUSH1 0x40 MLOAD DUP1 SWAP2 SUB SWAP1 RETURN JUMPDEST PUSH2 0x190 PUSH1 0x4 DUP1 CALLDATASIZE SUB DUP2 ADD SWAP1 PUSH2 0x18B SWAP2 SWAP1 PUSH2 0x116A JUMP JUMPDEST PUSH2 0x611 JUMP JUMPDEST STOP JUMPDEST PUSH2 0x1AC PUSH1 0x4 DUP1 CALLDATASIZE SUB DUP2 ADD SWAP1 PUSH2 0x1A7 SWAP2 SWAP1 PUSH2 0x12C1 JUMP JUMPDEST PUSH2 0x80C JUMP JUMPDEST STOP JUMPDEST PUSH2 0x1B6 PUSH2 0x94A JUMP JUMPDEST PUSH1 0x40 MLOAD PUSH2 0x1C3 SWAP2 SWAP1 PUSH2 0x1467 JUMP JUMPDEST PUSH1 0x40 MLOAD DUP1 SWAP2 SUB SWAP1 RETURN JUMPDEST PUSH2 0x1D4 PUSH2 0xB07 JUMP JUMPDEST PUSH1 0x40 MLOAD PUSH2 0x1E1 SWAP2 SWAP1 PUSH2 0x1487 JUMP JUMPDEST PUSH1 0x40 MLOAD DUP1 SWAP2 SUB SWAP1 RETURN JUMPDEST PUSH2 0x1F2 PUSH2 0xB93 JUMP JUMPDEST PUSH1 0x40 MLOAD PUSH2 0x1FF SWAP2 SWAP1 PUSH2 0x14B6 JUMP JUMPDEST PUSH1 0x40 MLOAD DUP1 SWAP2 SUB SWAP1 RETURN JUMPDEST PUSH2 0x210 PUSH2 0xBB7 JUMP JUMPDEST PUSH1 0x40 MLOAD PUSH2 0x21E SWAP3 SWAP2 SWAP1 PUSH2 0x14CF JUMP JUMPDEST PUSH1 0x40 MLOAD DUP1 SWAP2 SUB SWAP1 RETURN JUMPDEST PUSH2 0x241 PUSH1 0x4 DUP1 CALLDATASIZE SUB DUP2 ADD SWAP1 PUSH2 0x23C SWAP2 SWAP1 PUSH2 0x116A JUMP JUMPDEST PUSH2 0xD58 JUMP JUMPDEST PUSH1 0x40 MLOAD PUSH2 0x250 SWAP4 SWAP3 SWAP2 SWAP1 PUSH2 0x1517 JUMP JUMPDEST PUSH1 0x40 MLOAD DUP1 SWAP2 SUB SWAP1 RETURN JUMPDEST PUSH2 0x261 PUSH2 0xD96 JUMP JUMPDEST PUSH1 0x40 MLOAD PUSH2 0x26E SWAP2 SWAP1 PUSH2 0x154C JUMP JUMPDEST PUSH1 0x40 MLOAD DUP1 SWAP2 SUB SWAP1 RETURN JUMPDEST PUSH2 0x27F PUSH2 0xDA8 JUMP JUMPDEST STOP JUMPDEST PUSH2 0x289 PUSH2 0xECE JUMP JUMPDEST STOP JUMPDEST PUSH1 0x2 PUSH0 SWAP1 SLOAD SWAP1 PUSH2 0x100 EXP SWAP1 DIV PUSH1 0xFF AND PUSH2 0x2D9 JUMPI PUSH1 0x40 MLOAD PUSH32 0x8C379A000000000000000000000000000000000000000000000000000000000 DUP2 MSTORE PUSH1 0x4 ADD PUSH2 0x2D0 SWAP1 PUSH2 0x15AF JUMP JUMPDEST PUSH1 0x40 MLOAD DUP1 SWAP2 SUB SWAP1 REVERT JUMPDEST PUSH1 0x4 PUSH0 CALLER PUSH20 0xFFFFFFFFFFFFFFFFFFFFFFFFFFFFFFFFFFFFFFFF AND PUSH20 0xFFFFFFFFFFFFFFFFFFFFFFFFFFFFFFFFFFFFFFFF AND DUP2 MSTORE PUSH1 0x20 ADD SWAP1 DUP2 MSTORE PUSH1 0x20 ADD PUSH0 KECCAK256 PUSH1 0x2 ADD PUSH0 SWAP1 SLOAD SWAP1 PUSH2 0x100 EXP SWAP1 DIV PUSH1 0xFF AND PUSH2 0x365 JUMPI PUSH1 0x40 MLOAD PUSH32 0x8C379A000000000000000000000000000000000000000000000000000000000 DUP2 MSTORE PUSH1 0x4 ADD PUSH2 0x35C SWAP1 PUSH2 0x1617 JUMP JUMPDEST PUSH1 0x40 MLOAD DUP1 SWAP2 SUB SWAP1 REVERT JUMPDEST PUSH1 0x4 PUSH0 CALLER PUSH20 0xFFFFFFFFFFFFFFFFFFFFFFFFFFFFFFFFFFFFFFFF AND PUSH20 0xFFFFFFFFFFFFFFFFFFFFFFFFFFFFFFFFFFFFFFFF AND DUP2 MSTORE PUSH1 0x20 ADD SWAP1 DUP2 MSTORE PUSH1 0x20 ADD PUSH0 KECCAK256 PUSH0 ADD PUSH0 SWAP1 SLOAD SWAP1 PUSH2 0x100 EXP SWAP1 DIV PUSH1 0xFF AND ISZERO PUSH2 0x3F1 JUMPI PUSH1 0x40 MLOAD PUSH32 0x8C379A000000000000000000000000000000000000000000000000000000000 DUP2 MSTORE PUSH1 0x4 ADD PUSH2 0x3E8 SWAP1 PUSH2 0x167F JUMP JUMPDEST PUSH1 0x40 MLOAD DUP1 SWAP2 SUB SWAP1 REVERT JUMPDEST PUSH0 DUP2 GT DUP1 ISZERO PUSH2 0x402 JUMPI POP PUSH1 0x5 SLOAD DUP2 GT ISZERO JUMPDEST PUSH2 0x441 JUMPI PUSH1 0x40 MLOAD PUSH32 0x8C379A000000000000000000000000000000000000000000000000000000000 DUP2 MSTORE PUSH1 0x4 ADD PUSH2 0x438 SWAP1 PUSH2 0x16E7 JUMP JUMPDEST PUSH1 0x40 MLOAD DUP1 SWAP2 SUB SWAP1 REVERT JUMPDEST PUSH1 0x1 PUSH1 0x4 PUSH0 CALLER PUSH20 0xFFFFFFFFFFFFFFFFFFFFFFFFFFFFFFFFFFFFFFFF AND PUSH20 0xFFFFFFFFFFFFFFFFFFFFFFFFFFFFFFFFFFFFFFFF AND DUP2 MSTORE PUSH1 0x20 ADD SWAP1 DUP2 MSTORE PUSH1 0x20 ADD PUSH0 KECCAK256 PUSH0 ADD PUSH0 PUSH2 0x100 EXP DUP2 SLOAD DUP2 PUSH1 0xFF MUL NOT AND SWAP1 DUP4 ISZERO ISZERO MUL OR SWAP1 SSTORE POP DUP1 PUSH1 0x4 PUSH0 CALLER PUSH20 0xFFFFFFFFFFFFFFFFFFFFFFFFFFFFFFFFFFFFFFFF AND PUSH20 0xFFFFFFFFFFFFFFFFFFFFFFFFFFFFFFFFFFFFFFFF AND DUP2 MSTORE PUSH1 0x20 ADD SWAP1 DUP2 MSTORE PUSH1 0x20 ADD PUSH0 KECCAK256 PUSH1 0x1 ADD DUP2 SWAP1 SSTORE POP PUSH1 0x3 PUSH0 DUP3 DUP2 MSTORE PUSH1 0x20 ADD SWAP1 DUP2 MSTORE PUSH1 0x20 ADD PUSH0 KECCAK256 PUSH1 0x2 ADD PUSH0 DUP2 SLOAD DUP1 SWAP3 SWAP2 SWAP1 PUSH2 0x501 SWAP1 PUSH2 0x1732 JUMP JUMPDEST SWAP2 SWAP1 POP SSTORE POP PUSH1 0x6 PUSH0 DUP2 SLOAD DUP1 SWAP3 SWAP2 SWAP1 PUSH2 0x518 SWAP1 PUSH2 0x1732 JUMP JUMPDEST SWAP2 SWAP1 POP SSTORE POP PUSH32 0xA36CC2BEBB74DB33E9F88110A07EF56E1B31B24B4C4F51B54B1664266E29F45B CALLER DUP3 PUSH1 0x40 MLOAD PUSH2 0x54E SWAP3 SWAP2 SWAP1 PUSH2 0x1779 JUMP JUMPDEST PUSH1 0x40 MLOAD DUP1 SWAP2 SUB SWAP1 LOG1 POP JUMP JUMPDEST PUSH1 0x6 SLOAD DUP2 JUMP JUMPDEST PUSH1 0x5 SLOAD DUP2 JUMP JUMPDEST PUSH1 0x3 PUSH1 0x20 MSTORE DUP1 PUSH0 MSTORE PUSH1 0x40 PUSH0 KECCAK256 PUSH0 SWAP2 POP SWAP1 POP DUP1 PUSH0 ADD SLOAD SWAP1 DUP1 PUSH1 0x1 ADD DUP1 SLOAD PUSH2 0x58A SWAP1 PUSH2 0x17CD JUMP JUMPDEST DUP1 PUSH1 0x1F ADD PUSH1 0x20 DUP1 SWAP2 DIV MUL PUSH1 0x20 ADD PUSH1 0x40 MLOAD SWAP1 DUP2 ADD PUSH1 0x40 MSTORE DUP1 SWAP3 SWAP2 SWAP1 DUP2 DUP2 MSTORE PUSH1 0x20 ADD DUP3 DUP1 SLOAD PUSH2 0x5B6 SWAP1 PUSH2 0x17CD JUMP JUMPDEST DUP1 ISZERO PUSH2 0x601 JUMPI DUP1 PUSH1 0x1F LT PUSH2 0x5D8 JUMPI PUSH2 0x100 DUP1 DUP4 SLOAD DIV MUL DUP4 MSTORE SWAP2 PUSH1 0x20 ADD SWAP2 PUSH2 0x601 JUMP JUMPDEST DUP3 ADD SWAP2 SWAP1 PUSH0 MSTORE PUSH1 0x20 PUSH0 KECCAK256 SWAP1 JUMPDEST DUP2 SLOAD DUP2 MSTORE SWAP1 PUSH1 0x1 ADD SWAP1 PUSH1 0x20 ADD DUP1 DUP4 GT PUSH2 0x5E4 JUMPI DUP3 SWAP1 SUB PUSH1 0x1F AND DUP3 ADD SWAP2 JUMPDEST POP POP POP POP POP SWAP1 DUP1 PUSH1 0x2 ADD SLOAD SWAP1 POP DUP4 JUMP JUMPDEST PUSH0 PUSH0 SWAP1 SLOAD SWAP1 PUSH2 0x100 EXP SWAP1 DIV PUSH20 0xFFFFFFFFFFFFFFFFFFFFFFFFFFFFFFFFFFFFFFFF AND PUSH20 0xFFFFFFFFFFFFFFFFFFFFFFFFFFFFFFFFFFFFFFFF AND CALLER PUSH20 0xFFFFFFFFFFFFFFFFFFFFFFFFFFFFFFFFFFFFFFFF AND EQ PUSH2 0x69F JUMPI PUSH1 0x40 MLOAD PUSH32 0x8C379A000000000000000000000000000000000000000000000000000000000 DUP2 MSTORE PUSH1 0x4 ADD PUSH2 0x696 SWAP1 PUSH2 0x186D JUMP JUMPDEST PUSH1 0x40 MLOAD DUP1 SWAP2 SUB SWAP1 REVERT JUMPDEST PUSH1 0x4 PUSH0 DUP3 PUSH20 0xFFFFFFFFFFFFFFFFFFFFFFFFFFFFFFFFFFFFFFFF AND PUSH20 0xFFFFFFFFFFFFFFFFFFFFFFFFFFFFFFFFFFFFFFFF AND DUP2 MSTORE PUSH1 0x20 ADD SWAP1 DUP2 MSTORE PUSH1 0x20 ADD PUSH0 KECCAK256 PUSH1 0x2 ADD PUSH0 SWAP1 SLOAD SWAP1 PUSH2 0x100 EXP SWAP1 DIV PUSH1 0xFF AND ISZERO PUSH2 0x72C JUMPI PUSH1 0x40 MLOAD PUSH32 0x8C379A000000000000000000000000000000000000000000000000000000000 DUP2 MSTORE PUSH1 0x4 ADD PUSH2 0x723 SWAP1 PUSH2 0x18D5 JUMP JUMPDEST PUSH1 0x40 MLOAD DUP1 SWAP2 SUB SWAP1 REVERT JUMPDEST PUSH1 0x40 MLOAD DUP1 PUSH1 0x60 ADD PUSH1 0x40 MSTORE DUP1 PUSH0 ISZERO ISZERO DUP2 MSTORE PUSH1 0x20 ADD PUSH0 DUP2 MSTORE PUSH1 0x20 ADD PUSH1 0x1 ISZERO ISZERO DUP2 MSTORE POP PUSH1 0x4 PUSH0 DUP4 PUSH20 0xFFFFFFFFFFFFFFFFFFFFFFFFFFFFFFFFFFFFFFFF AND PUSH20 0xFFFFFFFFFFFFFFFFFFFFFFFFFFFFFFFFFFFFFFFF AND DUP2 MSTORE PUSH1 0x20 ADD SWAP1 DUP2 MSTORE PUSH1 0x20 ADD PUSH0 KECCAK256 PUSH0 DUP3 ADD MLOAD DUP2 PUSH0 ADD PUSH0 PUSH2 0x100 EXP DUP2 SLOAD DUP2 PUSH1 0xFF MUL NOT AND SWAP1 DUP4 ISZERO ISZERO MUL OR SWAP1 SSTORE POP PUSH1 0x20 DUP3 ADD MLOAD DUP2 PUSH1 0x1 ADD SSTORE PUSH1 0x40 DUP3 ADD MLOAD DUP2 PUSH1 0x2 ADD PUSH0 PUSH2 0x100 EXP DUP2 SLOAD DUP2 PUSH1 0xFF MUL NOT AND SWAP1 DUP4 ISZERO ISZERO MUL OR SWAP1 SSTORE POP SWAP1 POP POP PUSH32 0xB6BE2187D059CC2A55FE29E0E503B566E1E0F8C8780096E185429350ACFFD3DD DUP2 PUSH1 0x40 MLOAD PUSH2 0x801 SWAP2 SWAP1 PUSH2 0x14B6 JUMP JUMPDEST PUSH1 0x40 MLOAD DUP1 SWAP2 SUB SWAP1 LOG1 POP JUMP JUMPDEST PUSH0 PUSH0 SWAP1 SLOAD SWAP1 PUSH2 0x100 EXP SWAP1 DIV PUSH20 0xFFFFFFFFFFFFFFFFFFFFFFFFFFFFFFFFFFFFFFFF AND PUSH20 0xFFFFFFFFFFFFFFFFFFFFFFFFFFFFFFFFFFFFFFFF AND CALLER PUSH20 0xFFFFFFFFFFFFFFFFFFFFFFFFFFFFFFFFFFFFFFFF AND EQ PUSH2 0x89A JUMPI PUSH1 0x40 MLOAD PUSH32 0x8C379A000000000000000000000000000000000000000000000000000000000 DUP2 MSTORE PUSH1 0x4 ADD PUSH2 0x891 SWAP1 PUSH2 0x186D JUMP JUMPDEST PUSH1 0x40 MLOAD DUP1 SWAP2 SUB SWAP1 REVERT JUMPDEST PUSH1 0x5 PUSH0 DUP2 SLOAD DUP1 SWAP3 SWAP2 SWAP1 PUSH2 0x8AC SWAP1 PUSH2 0x1732 JUMP JUMPDEST SWAP2 SWAP1 POP SSTORE POP PUSH1 0x40 MLOAD DUP1 PUSH1 0x60 ADD PUSH1 0x40 MSTORE DUP1 PUSH1 0x5 SLOAD DUP2 MSTORE PUSH1 0x20 ADD DUP3 DUP2 MSTORE PUSH1 0x20 ADD PUSH0 DUP2 MSTORE POP PUSH1 0x3 PUSH0 PUSH1 0x5 SLOAD DUP2 MSTORE PUSH1 0x20 ADD SWAP1 DUP2 MSTORE PUSH1 0x20 ADD PUSH0 KECCAK256 PUSH0 DUP3 ADD MLOAD DUP2 PUSH0 ADD SSTORE PUSH1 0x20 DUP3 ADD MLOAD DUP2 PUSH1 0x1 ADD SWAP1 DUP2 PUSH2 0x8FE SWAP2 SWAP1 PUSH2 0x1A93 JUMP JUMPDEST POP PUSH1 0x40 DUP3 ADD MLOAD DUP2 PUSH1 0x2 ADD SSTORE SWAP1 POP POP PUSH32 0xE83B2A43E7E82D975C8A0A6D2F045153C869E111136A34D1889AB7B598E396A3 PUSH1 0x5 SLOAD DUP3 PUSH1 0x40 MLOAD PUSH2 0x93F SWAP3 SWAP2 SWAP1 PUSH2 0x1B62 JUMP JUMPDEST PUSH1 0x40 MLOAD DUP1 SWAP2 SUB SWAP1 LOG1 POP JUMP JUMPDEST PUSH1 0x60 PUSH1 0x2 PUSH0 SWAP1 SLOAD SWAP1 PUSH2 0x100 EXP SWAP1 DIV PUSH1 0xFF AND ISZERO PUSH2 0x99B JUMPI PUSH1 0x40 MLOAD PUSH32 0x8C379A000000000000000000000000000000000000000000000000000000000 DUP2 MSTORE PUSH1 0x4 ADD PUSH2 0x992 SWAP1 PUSH2 0x1BDA JUMP JUMPDEST PUSH1 0x40 MLOAD DUP1 SWAP2 SUB SWAP1 REVERT JUMPDEST PUSH0 PUSH1 0x5 SLOAD PUSH8 0xFFFFFFFFFFFFFFFF DUP2 GT ISZERO PUSH2 0x9B8 JUMPI PUSH2 0x9B7 PUSH2 0x119D JUMP JUMPDEST JUMPDEST PUSH1 0x40 MLOAD SWAP1 DUP1 DUP3 MSTORE DUP1 PUSH1 0x20 MUL PUSH1 0x20 ADD DUP3 ADD PUSH1 0x40 MSTORE DUP1 ISZERO PUSH2 0x9F1 JUMPI DUP2 PUSH1 0x20 ADD JUMPDEST PUSH2 0x9DE PUSH2 0xFAE JUMP JUMPDEST DUP2 MSTORE PUSH1 0x20 ADD SWAP1 PUSH1 0x1 SWAP1 SUB SWAP1 DUP2 PUSH2 0x9D6 JUMPI SWAP1 POP JUMPDEST POP SWAP1 POP PUSH0 PUSH1 0x1 SWAP1 POP JUMPDEST PUSH1 0x5 SLOAD DUP2 GT PUSH2 0xAFF JUMPI PUSH1 0x3 PUSH0 DUP3 DUP2 MSTORE PUSH1 0x20 ADD SWAP1 DUP2 MSTORE PUSH1 0x20 ADD PUSH0 KECCAK256 PUSH1 0x40 MLOAD DUP1 PUSH1 0x60 ADD PUSH1 0x40 MSTORE SWAP1 DUP2 PUSH0 DUP3 ADD SLOAD DUP2 MSTORE PUSH1 0x20 ADD PUSH1 0x1 DUP3 ADD DUP1 SLOAD PUSH2 0xA38 SWAP1 PUSH2 0x17CD JUMP JUMPDEST DUP1 PUSH1 0x1F ADD PUSH1 0x20 DUP1 SWAP2 DIV MUL PUSH1 0x20 ADD PUSH1 0x40 MLOAD SWAP1 DUP2 ADD PUSH1 0x40 MSTORE DUP1 SWAP3 SWAP2 SWAP1 DUP2 DUP2 MSTORE PUSH1 0x20 ADD DUP3 DUP1 SLOAD PUSH2 0xA64 SWAP1 PUSH2 0x17CD JUMP JUMPDEST DUP1 ISZERO PUSH2 0xAAF JUMPI DUP1 PUSH1 0x1F LT PUSH2 0xA86 JUMPI PUSH2 0x100 DUP1 DUP4 SLOAD DIV MUL DUP4 MSTORE SWAP2 PUSH1 0x20 ADD SWAP2 PUSH2 0xAAF JUMP JUMPDEST DUP3 ADD SWAP2 SWAP1 PUSH0 MSTORE PUSH1 0x20 PUSH0 KECCAK256 SWAP1 JUMPDEST DUP2 SLOAD DUP2 MSTORE SWAP1 PUSH1 0x1 ADD SWAP1 PUSH1 0x20 ADD DUP1 DUP4 GT PUSH2 0xA92 JUMPI DUP3 SWAP1 SUB PUSH1 0x1F AND DUP3 ADD SWAP2 JUMPDEST POP POP POP POP POP DUP2 MSTORE PUSH1 0x20 ADD PUSH1 0x2 DUP3 ADD SLOAD DUP2 MSTORE POP POP DUP3 PUSH1 0x1 DUP4 PUSH2 0xAD0 SWAP2 SWAP1 PUSH2 0x1BF8 JUMP JUMPDEST DUP2 MLOAD DUP2 LT PUSH2 0xAE1 JUMPI PUSH2 0xAE0 PUSH2 0x1C2B JUMP JUMPDEST JUMPDEST PUSH1 0x20 MUL PUSH1 0x20 ADD ADD DUP2 SWAP1 MSTORE POP DUP1 DUP1 PUSH2 0xAF7 SWAP1 PUSH2 0x1732 JUMP JUMPDEST SWAP2 POP POP PUSH2 0x9FA JUMP JUMPDEST POP DUP1 SWAP2 POP POP SWAP1 JUMP JUMPDEST PUSH1 0x1 DUP1 SLOAD PUSH2 0xB14 SWAP1 PUSH2 0x17CD JUMP JUMPDEST DUP1 PUSH1 0x1F ADD PUSH1 0x20 DUP1 SWAP2 DIV MUL PUSH1 0x20 ADD PUSH1 0x40 MLOAD SWAP1 DUP2 ADD PUSH1 0x40 MSTORE DUP1 SWAP3 SWAP2 SWAP1 DUP2 DUP2 MSTORE PUSH1 0x20 ADD DUP3 DUP1 SLOAD PUSH2 0xB40 SWAP1 PUSH2 0x17CD JUMP JUMPDEST DUP1 ISZERO PUSH2 0xB8B JUMPI DUP1 PUSH1 0x1F LT PUSH2 0xB62 JUMPI PUSH2 0x100 DUP1 DUP4 SLOAD DIV MUL DUP4 MSTORE SWAP2 PUSH1 0x20 ADD SWAP2 PUSH2 0xB8B JUMP JUMPDEST DUP3 ADD SWAP2 SWAP1 PUSH0 MSTORE PUSH1 0x20 PUSH0 KECCAK256 SWAP1 JUMPDEST DUP2 SLOAD DUP2 MSTORE SWAP1 PUSH1 0x1 ADD SWAP1 PUSH1 0x20 ADD DUP1 DUP4 GT PUSH2 0xB6E JUMPI DUP3 SWAP1 SUB PUSH1 0x1F AND DUP3 ADD SWAP2 JUMPDEST POP POP POP POP POP DUP2 JUMP JUMPDEST PUSH0 PUSH0 SWAP1 SLOAD SWAP1 PUSH2 0x100 EXP SWAP1 DIV PUSH20 0xFFFFFFFFFFFFFFFFFFFFFFFFFFFFFFFFFFFFFFFF AND DUP2 JUMP JUMPDEST PUSH1 0x60 PUSH0 PUSH1 0x2 PUSH0 SWAP1 SLOAD SWAP1 PUSH2 0x100 EXP SWAP1 DIV PUSH1 0xFF AND ISZERO PUSH2 0xC09 JUMPI PUSH1 0x40 MLOAD PUSH32 0x8C379A000000000000000000000000000000000000000000000000000000000 DUP2 MSTORE PUSH1 0x4 ADD PUSH2 0xC00 SWAP1 PUSH2 0x1BDA JUMP JUMPDEST PUSH1 0x40 MLOAD DUP1 SWAP2 SUB SWAP1 REVERT JUMPDEST PUSH0 PUSH1 0x5 SLOAD GT PUSH2 0xC4D JUMPI PUSH1 0x40 MLOAD PUSH32 0x8C379A000000000000000000000000000000000000000000000000000000000 DUP2 MSTORE PUSH1 0x4 ADD PUSH2 0xC44 SWAP1 PUSH2 0x1CA2 JUMP JUMPDEST PUSH1 0x40 MLOAD DUP1 SWAP2 SUB SWAP1 REVERT JUMPDEST PUSH0 PUSH0 SWAP1 POP PUSH0 PUSH0 SWAP1 POP PUSH0 PUSH1 0x1 SWAP1 POP JUMPDEST PUSH1 0x5 SLOAD DUP2 GT PUSH2 0xCAE JUMPI DUP3 PUSH1 0x3 PUSH0 DUP4 DUP2 MSTORE PUSH1 0x20 ADD SWAP1 DUP2 MSTORE PUSH1 0x20 ADD PUSH0 KECCAK256 PUSH1 0x2 ADD SLOAD GT ISZERO PUSH2 0xC9B JUMPI PUSH1 0x3 PUSH0 DUP3 DUP2 MSTORE PUSH1 0x20 ADD SWAP1 DUP2 MSTORE PUSH1 0x20 ADD PUSH0 KECCAK256 PUSH1 0x2 ADD SLOAD SWAP3 POP DUP1 SWAP2 POP JUMPDEST DUP1 DUP1 PUSH2 0xCA6 SWAP1 PUSH2 0x1732 JUMP JUMPDEST SWAP2 POP POP PUSH2 0xC5B JUMP JUMPDEST POP PUSH1 0x3 PUSH0 DUP3 DUP2 MSTORE PUSH1 0x20 ADD SWAP1 DUP2 MSTORE PUSH1 0x20 ADD PUSH0 KECCAK256 PUSH1 0x1 ADD DUP3 DUP2 DUP1 SLOAD PUSH2 0xCD0 SWAP1 PUSH2 0x17CD JUMP JUMPDEST DUP1 PUSH1 0x1F ADD PUSH1 0x20 DUP1 SWAP2 DIV MUL PUSH1 0x20 ADD PUSH1 0x40 MLOAD SWAP1 DUP2 ADD PUSH1 0x40 MSTORE DUP1 SWAP3 SWAP2 SWAP1 DUP2 DUP2 MSTORE PUSH1 0x20 ADD DUP3 DUP1 SLOAD PUSH2 0xCFC SWAP1 PUSH2 0x17CD JUMP JUMPDEST DUP1 ISZERO PUSH2 0xD47 JUMPI DUP1 PUSH1 0x1F LT PUSH2 0xD1E JUMPI PUSH2 0x100 DUP1 DUP4 SLOAD DIV MUL DUP4 MSTORE SWAP2 PUSH1 0x20 ADD SWAP2 PUSH2 0xD47 JUMP JUMPDEST DUP3 ADD SWAP2 SWAP1 PUSH0 MSTORE PUSH1 0x20 PUSH0 KECCAK256 SWAP1 JUMPDEST DUP2 SLOAD DUP2 MSTORE SWAP1 PUSH1 0x1 ADD SWAP1 PUSH1 0x20 ADD DUP1 DUP4 GT PUSH2 0xD2A JUMPI DUP3 SWAP1 SUB PUSH1 0x1F AND DUP3 ADD SWAP2 JUMPDEST POP POP POP POP POP SWAP2 POP SWAP4 POP SWAP4 POP POP POP SWAP1 SWAP2 JUMP JUMPDEST PUSH1 0x4 PUSH1 0x20 MSTORE DUP1 PUSH0 MSTORE PUSH1 0x40 PUSH0 KECCAK256 PUSH0 SWAP2 POP SWAP1 POP DUP1 PUSH0 ADD PUSH0 SWAP1 SLOAD SWAP1 PUSH2 0x100 EXP SWAP1 DIV PUSH1 0xFF AND SWAP1 DUP1 PUSH1 0x1 ADD SLOAD SWAP1 DUP1 PUSH1 0x2 ADD PUSH0 SWAP1 SLOAD SWAP1 PUSH2 0x100 EXP SWAP1 DIV PUSH1 0xFF AND SWAP1 POP DUP4 JUMP JUMPDEST PUSH1 0x2 PUSH0 SWAP1 SLOAD SWAP1 PUSH2 0x100 EXP SWAP1 DIV PUSH1 0xFF AND DUP2 JUMP JUMPDEST PUSH0 PUSH0 SWAP1 SLOAD SWAP1 PUSH2 0x100 EXP SWAP1 DIV PUSH20 0xFFFFFFFFFFFFFFFFFFFFFFFFFFFFFFFFFFFFFFFF AND PUSH20 0xFFFFFFFFFFFFFFFFFFFFFFFFFFFFFFFFFFFFFFFF AND CALLER PUSH20 0xFFFFFFFFFFFFFFFFFFFFFFFFFFFFFFFFFFFFFFFF AND EQ PUSH2 0xE36 JUMPI PUSH1 0x40 MLOAD PUSH32 0x8C379A000000000000000000000000000000000000000000000000000000000 DUP2 MSTORE PUSH1 0x4 ADD PUSH2 0xE2D SWAP1 PUSH2 0x186D JUMP JUMPDEST PUSH1 0x40 MLOAD DUP1 SWAP2 SUB SWAP1 REVERT JUMPDEST PUSH0 PUSH1 0x5 SLOAD GT PUSH2 0xE7A JUMPI PUSH1 0x40 MLOAD PUSH32 0x8C379A000000000000000000000000000000000000000000000000000000000 DUP2 MSTORE PUSH1 0x4 ADD PUSH2 0xE71 SWAP1 PUSH2 0x1D0A JUMP JUMPDEST PUSH1 0x40 MLOAD DUP1 SWAP2 SUB SWAP1 REVERT JUMPDEST PUSH1 0x1 PUSH1 0x2 PUSH0 PUSH2 0x100 EXP DUP2 SLOAD DUP2 PUSH1 0xFF MUL NOT AND SWAP1 DUP4 ISZERO ISZERO MUL OR SWAP1 SSTORE POP PUSH32 0x9069A1A16ACE751E8690F383E12F87B01E8488BA387E626810BD113FEF0417F9 PUSH1 0x1 PUSH1 0x40 MLOAD PUSH2 0xEC4 SWAP2 SWAP1 PUSH2 0x154C JUMP JUMPDEST PUSH1 0x40 MLOAD DUP1 SWAP2 SUB SWAP1 LOG1 JUMP JUMPDEST PUSH0 PUSH0 SWAP1 SLOAD SWAP1 PUSH2 0x100 EXP SWAP1 DIV PUSH20 0xFFFFFFFFFFFFFFFFFFFFFFFFFFFFFFFFFFFFFFFF AND PUSH20 0xFFFFFFFFFFFFFFFFFFFFFFFFFFFFFFFFFFFFFFFF AND CALLER PUSH20 0xFFFFFFFFFFFFFFFFFFFFFFFFFFFFFFFFFFFFFFFF AND EQ PUSH2 0xF5C JUMPI PUSH1 0x40 MLOAD PUSH32 0x8C379A000000000000000000000000000000000000000000000000000000000 DUP2 MSTORE PUSH1 0x4 ADD PUSH2 0xF53 SWAP1 PUSH2 0x186D JUMP JUMPDEST PUSH1 0x40 MLOAD DUP1 SWAP2 SUB SWAP1 REVERT JUMPDEST PUSH0 PUSH1 0x2 PUSH0 PUSH2 0x100 EXP DUP2 SLOAD DUP2 PUSH1 0xFF MUL NOT AND SWAP1 DUP4 ISZERO ISZERO MUL OR SWAP1 SSTORE POP PUSH32 0x9069A1A16ACE751E8690F383E12F87B01E8488BA387E626810BD113FEF0417F9 PUSH0 PUSH1 0x40 MLOAD PUSH2 0xFA4 SWAP2 SWAP1 PUSH2 0x154C JUMP JUMPDEST PUSH1 0x40 MLOAD DUP1 SWAP2 SUB SWAP1 LOG1 JUMP JUMPDEST PUSH1 0x40 MLOAD DUP1 PUSH1 0x60 ADD PUSH1 0x40 MSTORE DUP1 PUSH0 DUP2 MSTORE PUSH1 0x20 ADD PUSH1 0x60 DUP2 MSTORE PUSH1 0x20 ADD PUSH0 DUP2 MSTORE POP SWAP1 JUMP JUMPDEST PUSH0 PUSH1 0x40 MLOAD SWAP1 POP SWAP1 JUMP JUMPDEST PUSH0 PUSH0 REVERT JUMPDEST PUSH0 PUSH0 REVERT JUMPDEST PUSH0 DUP2 SWAP1 POP SWAP2 SWAP1 POP JUMP JUMPDEST PUSH2 0xFF0 DUP2 PUSH2 0xFDE JUMP JUMPDEST DUP2 EQ PUSH2 0xFFA JUMPI PUSH0 PUSH0 REVERT JUMPDEST POP JUMP JUMPDEST PUSH0 DUP2 CALLDATALOAD SWAP1 POP PUSH2 0x100B DUP2 PUSH2 0xFE7 JUMP JUMPDEST SWAP3 SWAP2 POP POP JUMP JUMPDEST PUSH0 PUSH1 0x20 DUP3 DUP5 SUB SLT ISZERO PUSH2 0x1026 JUMPI PUSH2 0x1025 PUSH2 0xFD6 JUMP JUMPDEST JUMPDEST PUSH0 PUSH2 0x1033 DUP5 DUP3 DUP6 ADD PUSH2 0xFFD JUMP JUMPDEST SWAP2 POP POP SWAP3 SWAP2 POP POP JUMP JUMPDEST PUSH2 0x1045 DUP2 PUSH2 0xFDE JUMP JUMPDEST DUP3 MSTORE POP POP JUMP JUMPDEST PUSH0 PUSH1 0x20 DUP3 ADD SWAP1 POP PUSH2 0x105E PUSH0 DUP4 ADD DUP5 PUSH2 0x103C JUMP JUMPDEST SWAP3 SWAP2 POP POP JUMP JUMPDEST PUSH0 DUP2 MLOAD SWAP1 POP SWAP2 SWAP1 POP JUMP JUMPDEST PUSH0 DUP3 DUP3 MSTORE PUSH1 0x20 DUP3 ADD SWAP1 POP SWAP3 SWAP2 POP POP JUMP JUMPDEST DUP3 DUP2 DUP4 MCOPY PUSH0 DUP4 DUP4 ADD MSTORE POP POP POP JUMP JUMPDEST PUSH0 PUSH1 0x1F NOT PUSH1 0x1F DUP4 ADD AND SWAP1 POP SWAP2 SWAP1 POP JUMP JUMPDEST PUSH0 PUSH2 0x10A6 DUP3 PUSH2 0x1064 JUMP JUMPDEST PUSH2 0x10B0 DUP2 DUP6 PUSH2 0x106E JUMP JUMPDEST SWAP4 POP PUSH2 0x10C0 DUP2 DUP6 PUSH1 0x20 DUP7 ADD PUSH2 0x107E JUMP JUMPDEST PUSH2 0x10C9 DUP2 PUSH2 0x108C JUMP JUMPDEST DUP5 ADD SWAP2 POP POP SWAP3 SWAP2 POP POP JUMP JUMPDEST PUSH0 PUSH1 0x60 DUP3 ADD SWAP1 POP PUSH2 0x10E7 PUSH0 DUP4 ADD DUP7 PUSH2 0x103C JUMP JUMPDEST DUP2 DUP2 SUB PUSH1 0x20 DUP4 ADD MSTORE PUSH2 0x10F9 DUP2 DUP6 PUSH2 0x109C JUMP JUMPDEST SWAP1 POP PUSH2 0x1108 PUSH1 0x40 DUP4 ADD DUP5 PUSH2 0x103C JUMP JUMPDEST SWAP5 SWAP4 POP POP POP POP JUMP JUMPDEST PUSH0 PUSH20 0xFFFFFFFFFFFFFFFFFFFFFFFFFFFFFFFFFFFFFFFF DUP3 AND SWAP1 POP SWAP2 SWAP1 POP JUMP JUMPDEST PUSH0 PUSH2 0x1139 DUP3 PUSH2 0x1110 JUMP JUMPDEST SWAP1 POP SWAP2 SWAP1 POP JUMP JUMPDEST PUSH2 0x1149 DUP2 PUSH2 0x112F JUMP JUMPDEST DUP2 EQ PUSH2 0x1153 JUMPI PUSH0 PUSH0 REVERT JUMPDEST POP JUMP JUMPDEST PUSH0 DUP2 CALLDATALOAD SWAP1 POP PUSH2 0x1164 DUP2 PUSH2 0x1140 JUMP JUMPDEST SWAP3 SWAP2 POP POP JUMP JUMPDEST PUSH0 PUSH1 0x20 DUP3 DUP5 SUB SLT ISZERO PUSH2 0x117F JUMPI PUSH2 0x117E PUSH2 0xFD6 JUMP JUMPDEST JUMPDEST PUSH0 PUSH2 0x118C DUP5 DUP3 DUP6 ADD PUSH2 0x1156 JUMP JUMPDEST SWAP2 POP POP SWAP3 SWAP2 POP POP JUMP JUMPDEST PUSH0 PUSH0 REVERT JUMPDEST PUSH0 PUSH0 REVERT JUMPDEST PUSH32 0x4E487B7100000000000000000000000000000000000000000000000000000000 PUSH0 MSTORE PUSH1 0x41 PUSH1 0x4 MSTORE PUSH1 0x24 PUSH0 REVERT JUMPDEST PUSH2 0x11D3 DUP3 PUSH2 0x108C JUMP JUMPDEST DUP2 ADD DUP2 DUP2 LT PUSH8 0xFFFFFFFFFFFFFFFF DUP3 GT OR ISZERO PUSH2 0x11F2 JUMPI PUSH2 0x11F1 PUSH2 0x119D JUMP JUMPDEST JUMPDEST DUP1 PUSH1 0x40 MSTORE POP POP POP JUMP JUMPDEST PUSH0 PUSH2 0x1204 PUSH2 0xFCD JUMP JUMPDEST SWAP1 POP PUSH2 0x1210 DUP3 DUP3 PUSH2 0x11CA JUMP JUMPDEST SWAP2 SWAP1 POP JUMP JUMPDEST PUSH0 PUSH8 0xFFFFFFFFFFFFFFFF DUP3 GT ISZERO PUSH2 0x122F JUMPI PUSH2 0x122E PUSH2 0x119D JUMP JUMPDEST JUMPDEST PUSH2 0x1238 DUP3 PUSH2 0x108C JUMP JUMPDEST SWAP1 POP PUSH1 0x20 DUP2 ADD SWAP1 POP SWAP2 SWAP1 POP JUMP JUMPDEST DUP3 DUP2 DUP4 CALLDATACOPY PUSH0 DUP4 DUP4 ADD MSTORE POP POP POP JUMP JUMPDEST PUSH0 PUSH2 0x1265 PUSH2 0x1260 DUP5 PUSH2 0x1215 JUMP JUMPDEST PUSH2 0x11FB JUMP JUMPDEST SWAP1 POP DUP3 DUP2 MSTORE PUSH1 0x20 DUP2 ADD DUP5 DUP5 DUP5 ADD GT ISZERO PUSH2 0x1281 JUMPI PUSH2 0x1280 PUSH2 0x1199 JUMP JUMPDEST JUMPDEST PUSH2 0x128C DUP5 DUP3 DUP6 PUSH2 0x1245 JUMP JUMPDEST POP SWAP4 SWAP3 POP POP POP JUMP JUMPDEST PUSH0 DUP3 PUSH1 0x1F DUP4 ADD SLT PUSH2 0x12A8 JUMPI PUSH2 0x12A7 PUSH2 0x1195 JUMP JUMPDEST JUMPDEST DUP2 CALLDATALOAD PUSH2 0x12B8 DUP5 DUP3 PUSH1 0x20 DUP7 ADD PUSH2 0x1253 JUMP JUMPDEST SWAP2 POP POP SWAP3 SWAP2 POP POP JUMP JUMPDEST PUSH0 PUSH1 0x20 DUP3 DUP5 SUB SLT ISZERO PUSH2 0x12D6 JUMPI PUSH2 0x12D5 PUSH2 0xFD6 JUMP JUMPDEST JUMPDEST PUSH0 DUP3 ADD CALLDATALOAD PUSH8 0xFFFFFFFFFFFFFFFF DUP2 GT ISZERO PUSH2 0x12F3 JUMPI PUSH2 0x12F2 PUSH2 0xFDA JUMP JUMPDEST JUMPDEST PUSH2 0x12FF DUP5 DUP3 DUP6 ADD PUSH2 0x1294 JUMP JUMPDEST SWAP2 POP POP SWAP3 SWAP2 POP POP JUMP JUMPDEST PUSH0 DUP2 MLOAD SWAP1 POP SWAP2 SWAP1 POP JUMP JUMPDEST PUSH0 DUP3 DUP3 MSTORE PUSH1 0x20 DUP3 ADD SWAP1 POP SWAP3 SWAP2 POP POP JUMP JUMPDEST PUSH0 DUP2 SWAP1 POP PUSH1 0x20 DUP3 ADD SWAP1 POP SWAP2 SWAP1 POP JUMP JUMPDEST PUSH2 0x133A DUP2 PUSH2 0xFDE JUMP JUMPDEST DUP3 MSTORE POP POP JUMP JUMPDEST PUSH0 DUP3 DUP3 MSTORE PUSH1 0x20 DUP3 ADD SWAP1 POP SWAP3 SWAP2 POP POP JUMP JUMPDEST PUSH0 PUSH2 0x135A DUP3 PUSH2 0x1064 JUMP JUMPDEST PUSH2 0x1364 DUP2 DUP6 PUSH2 0x1340 JUMP JUMPDEST SWAP4 POP PUSH2 0x1374 DUP2 DUP6 PUSH1 0x20 DUP7 ADD PUSH2 0x107E JUMP JUMPDEST PUSH2 0x137D DUP2 PUSH2 0x108C JUMP JUMPDEST DUP5 ADD SWAP2 POP POP SWAP3 SWAP2 POP POP JUMP JUMPDEST PUSH0 PUSH1 0x60 DUP4 ADD PUSH0 DUP4 ADD MLOAD PUSH2 0x139D PUSH0 DUP7 ADD DUP3 PUSH2 0x1331 JUMP JUMPDEST POP PUSH1 0x20 DUP4 ADD MLOAD DUP5 DUP3 SUB PUSH1 0x20 DUP7 ADD MSTORE PUSH2 0x13B5 DUP3 DUP3 PUSH2 0x1350 JUMP JUMPDEST SWAP2 POP POP PUSH1 0x40 DUP4 ADD MLOAD PUSH2 0x13CA PUSH1 0x40 DUP7 ADD DUP3 PUSH2 0x1331 JUMP JUMPDEST POP DUP1 SWAP2 POP POP SWAP3 SWAP2 POP POP JUMP JUMPDEST PUSH0 PUSH2 0x13E0 DUP4 DUP4 PUSH2 0x1388 JUMP JUMPDEST SWAP1 POP SWAP3 SWAP2 POP POP JUMP JUMPDEST PUSH0 PUSH1 0x20 DUP3 ADD SWAP1 POP SWAP2 SWAP1 POP JUMP JUMPDEST PUSH0 PUSH2 0x13FE DUP3 PUSH2 0x1308 JUMP JUMPDEST PUSH2 0x1408 DUP2 DUP6 PUSH2 0x1312 JUMP JUMPDEST SWAP4 POP DUP4 PUSH1 0x20 DUP3 MUL DUP6 ADD PUSH2 0x141A DUP6 PUSH2 0x1322 JUMP JUMPDEST DUP1 PUSH0 JUMPDEST DUP6 DUP2 LT ISZERO PUSH2 0x1455 JUMPI DUP5 DUP5 SUB DUP10 MSTORE DUP2 MLOAD PUSH2 0x1436 DUP6 DUP3 PUSH2 0x13D5 JUMP JUMPDEST SWAP5 POP PUSH2 0x1441 DUP4 PUSH2 0x13E8 JUMP JUMPDEST SWAP3 POP PUSH1 0x20 DUP11 ADD SWAP10 POP POP PUSH1 0x1 DUP2 ADD SWAP1 POP PUSH2 0x141D JUMP JUMPDEST POP DUP3 SWAP8 POP DUP8 SWAP6 POP POP POP POP POP POP SWAP3 SWAP2 POP POP JUMP JUMPDEST PUSH0 PUSH1 0x20 DUP3 ADD SWAP1 POP DUP2 DUP2 SUB PUSH0 DUP4 ADD MSTORE PUSH2 0x147F DUP2 DUP5 PUSH2 0x13F4 JUMP JUMPDEST SWAP1 POP SWAP3 SWAP2 POP POP JUMP JUMPDEST PUSH0 PUSH1 0x20 DUP3 ADD SWAP1 POP DUP2 DUP2 SUB PUSH0 DUP4 ADD MSTORE PUSH2 0x149F DUP2 DUP5 PUSH2 0x109C JUMP JUMPDEST SWAP1 POP SWAP3 SWAP2 POP POP JUMP JUMPDEST PUSH2 0x14B0 DUP2 PUSH2 0x112F JUMP JUMPDEST DUP3 MSTORE POP POP JUMP JUMPDEST PUSH0 PUSH1 0x20 DUP3 ADD SWAP1 POP PUSH2 0x14C9 PUSH0 DUP4 ADD DUP5 PUSH2 0x14A7 JUMP JUMPDEST SWAP3 SWAP2 POP POP JUMP JUMPDEST PUSH0 PUSH1 0x40 DUP3 ADD SWAP1 POP DUP2 DUP2 SUB PUSH0 DUP4 ADD MSTORE PUSH2 0x14E7 DUP2 DUP6 PUSH2 0x109C JUMP JUMPDEST SWAP1 POP PUSH2 0x14F6 PUSH1 0x20 DUP4 ADD DUP5 PUSH2 0x103C JUMP JUMPDEST SWAP4 SWAP3 POP POP POP JUMP JUMPDEST PUSH0 DUP2 ISZERO ISZERO SWAP1 POP SWAP2 SWAP1 POP JUMP JUMPDEST PUSH2 0x1511 DUP2 PUSH2 0x14FD JUMP JUMPDEST DUP3 MSTORE POP POP JUMP JUMPDEST PUSH0 PUSH1 0x60 DUP3 ADD SWAP1 POP PUSH2 0x152A PUSH0 DUP4 ADD DUP7 PUSH2 0x1508 JUMP JUMPDEST PUSH2 0x1537 PUSH1 0x20 DUP4 ADD DUP6 PUSH2 0x103C JUMP JUMPDEST PUSH2 0x1544 PUSH1 0x40 DUP4 ADD DUP5 PUSH2 0x1508 JUMP JUMPDEST SWAP5 SWAP4 POP POP POP POP JUMP JUMPDEST PUSH0 PUSH1 0x20 DUP3 ADD SWAP1 POP PUSH2 0x155F PUSH0 DUP4 ADD DUP5 PUSH2 0x1508 JUMP JUMPDEST SWAP3 SWAP2 POP POP JUMP JUMPDEST PUSH32 0x566F74696E67206973206E6F74206F70656E0000000000000000000000000000 PUSH0 DUP3 ADD MSTORE POP JUMP JUMPDEST PUSH0 PUSH2 0x1599 PUSH1 0x12 DUP4 PUSH2 0x106E JUMP JUMPDEST SWAP2 POP PUSH2 0x15A4 DUP3 PUSH2 0x1565 JUMP JUMPDEST PUSH1 0x20 DUP3 ADD SWAP1 POP SWAP2 SWAP1 POP JUMP JUMPDEST PUSH0 PUSH1 0x20 DUP3 ADD SWAP1 POP DUP2 DUP2 SUB PUSH0 DUP4 ADD MSTORE PUSH2 0x15C6 DUP2 PUSH2 0x158D JUMP JUMPDEST SWAP1 POP SWAP2 SWAP1 POP JUMP JUMPDEST PUSH32 0x566F746572206973206E6F742072656769737465726564000000000000000000 PUSH0 DUP3 ADD MSTORE POP JUMP JUMPDEST PUSH0 PUSH2 0x1601 PUSH1 0x17 DUP4 PUSH2 0x106E JUMP JUMPDEST SWAP2 POP PUSH2 0x160C DUP3 PUSH2 0x15CD JUMP JUMPDEST PUSH1 0x20 DUP3 ADD SWAP1 POP SWAP2 SWAP1 POP JUMP JUMPDEST PUSH0 PUSH1 0x20 DUP3 ADD SWAP1 POP DUP2 DUP2 SUB PUSH0 DUP4 ADD MSTORE PUSH2 0x162E DUP2 PUSH2 0x15F5 JUMP JUMPDEST SWAP1 POP SWAP2 SWAP1 POP JUMP JUMPDEST PUSH32 0x596F75206861766520616C726561647920766F74656400000000000000000000 PUSH0 DUP3 ADD MSTORE POP JUMP JUMPDEST PUSH0 PUSH2 0x1669 PUSH1 0x16 DUP4 PUSH2 0x106E JUMP JUMPDEST SWAP2 POP PUSH2 0x1674 DUP3 PUSH2 0x1635 JUMP JUMPDEST PUSH1 0x20 DUP3 ADD SWAP1 POP SWAP2 SWAP1 POP JUMP JUMPDEST PUSH0 PUSH1 0x20 DUP3 ADD SWAP1 POP DUP2 DUP2 SUB PUSH0 DUP4 ADD MSTORE PUSH2 0x1696 DUP2 PUSH2 0x165D JUMP JUMPDEST SWAP1 POP SWAP2 SWAP1 POP JUMP JUMPDEST PUSH32 0x496E76616C69642063616E646964617465204944000000000000000000000000 PUSH0 DUP3 ADD MSTORE POP JUMP JUMPDEST PUSH0 PUSH2 0x16D1 PUSH1 0x14 DUP4 PUSH2 0x106E JUMP JUMPDEST SWAP2 POP PUSH2 0x16DC DUP3 PUSH2 0x169D JUMP JUMPDEST PUSH1 0x20 DUP3 ADD SWAP1 POP SWAP2 SWAP1 POP JUMP JUMPDEST PUSH0 PUSH1 0x20 DUP3 ADD SWAP1 POP DUP2 DUP2 SUB PUSH0 DUP4 ADD MSTORE PUSH2 0x16FE DUP2 PUSH2 0x16C5 JUMP JUMPDEST SWAP1 POP SWAP2 SWAP1 POP JUMP JUMPDEST PUSH32 0x4E487B7100000000000000000000000000000000000000000000000000000000 PUSH0 MSTORE PUSH1 0x11 PUSH1 0x4 MSTORE PUSH1 0x24 PUSH0 REVERT JUMPDEST PUSH0 PUSH2 0x173C DUP3 PUSH2 0xFDE JUMP JUMPDEST SWAP2 POP PUSH32 0xFFFFFFFFFFFFFFFFFFFFFFFFFFFFFFFFFFFFFFFFFFFFFFFFFFFFFFFFFFFFFFFF DUP3 SUB PUSH2 0x176E JUMPI PUSH2 0x176D PUSH2 0x1705 JUMP JUMPDEST JUMPDEST PUSH1 0x1 DUP3 ADD SWAP1 POP SWAP2 SWAP1 POP JUMP JUMPDEST PUSH0 PUSH1 0x40 DUP3 ADD SWAP1 POP PUSH2 0x178C PUSH0 DUP4 ADD DUP6 PUSH2 0x14A7 JUMP JUMPDEST PUSH2 0x1799 PUSH1 0x20 DUP4 ADD DUP5 PUSH2 0x103C JUMP JUMPDEST SWAP4 SWAP3 POP POP POP JUMP JUMPDEST PUSH32 0x4E487B7100000000000000000000000000000000000000000000000000000000 PUSH0 MSTORE PUSH1 0x22 PUSH1 0x4 MSTORE PUSH1 0x24 PUSH0 REVERT JUMPDEST PUSH0 PUSH1 0x2 DUP3 DIV SWAP1 POP PUSH1 0x1 DUP3 AND DUP1 PUSH2 0x17E4 JUMPI PUSH1 0x7F DUP3 AND SWAP2 POP JUMPDEST PUSH1 0x20 DUP3 LT DUP2 SUB PUSH2 0x17F7 JUMPI PUSH2 0x17F6 PUSH2 0x17A0 JUMP JUMPDEST JUMPDEST POP SWAP2 SWAP1 POP JUMP JUMPDEST PUSH32 0x4F6E6C79206F776E65722063616E2063616C6C20746869732066756E6374696F PUSH0 DUP3 ADD MSTORE PUSH32 0x6E00000000000000000000000000000000000000000000000000000000000000 PUSH1 0x20 DUP3 ADD MSTORE POP JUMP JUMPDEST PUSH0 PUSH2 0x1857 PUSH1 0x21 DUP4 PUSH2 0x106E JUMP JUMPDEST SWAP2 POP PUSH2 0x1862 DUP3 PUSH2 0x17FD JUMP JUMPDEST PUSH1 0x40 DUP3 ADD SWAP1 POP SWAP2 SWAP1 POP JUMP JUMPDEST PUSH0 PUSH1 0x20 DUP3 ADD SWAP1 POP DUP2 DUP2 SUB PUSH0 DUP4 ADD MSTORE PUSH2 0x1884 DUP2 PUSH2 0x184B JUMP JUMPDEST SWAP1 POP SWAP2 SWAP1 POP JUMP JUMPDEST PUSH32 0x566F74657220616C726561647920726567697374657265640000000000000000 PUSH0 DUP3 ADD MSTORE POP JUMP JUMPDEST PUSH0 PUSH2 0x18BF PUSH1 0x18 DUP4 PUSH2 0x106E JUMP JUMPDEST SWAP2 POP PUSH2 0x18CA DUP3 PUSH2 0x188B JUMP JUMPDEST PUSH1 0x20 DUP3 ADD SWAP1 POP SWAP2 SWAP1 POP JUMP JUMPDEST PUSH0 PUSH1 0x20 DUP3 ADD SWAP1 POP DUP2 DUP2 SUB PUSH0 DUP4 ADD MSTORE PUSH2 0x18EC DUP2 PUSH2 0x18B3 JUMP JUMPDEST SWAP1 POP SWAP2 SWAP1 POP JUMP JUMPDEST PUSH0 DUP2 SWAP1 POP DUP2 PUSH0 MSTORE PUSH1 0x20 PUSH0 KECCAK256 SWAP1 POP SWAP2 SWAP1 POP JUMP JUMPDEST PUSH0 PUSH1 0x20 PUSH1 0x1F DUP4 ADD DIV SWAP1 POP SWAP2 SWAP1 POP JUMP JUMPDEST PUSH0 DUP3 DUP3 SHL SWAP1 POP SWAP3 SWAP2 POP POP JUMP JUMPDEST PUSH0 PUSH1 0x8 DUP4 MUL PUSH2 0x194F PUSH32 0xFFFFFFFFFFFFFFFFFFFFFFFFFFFFFFFFFFFFFFFFFFFFFFFFFFFFFFFFFFFFFFFF DUP3 PUSH2 0x1914 JUMP JUMPDEST PUSH2 0x1959 DUP7 DUP4 PUSH2 0x1914 JUMP JUMPDEST SWAP6 POP DUP1 NOT DUP5 AND SWAP4 POP DUP1 DUP7 AND DUP5 OR SWAP3 POP POP POP SWAP4 SWAP3 POP POP POP JUMP JUMPDEST PUSH0 DUP2 SWAP1 POP SWAP2 SWAP1 POP JUMP JUMPDEST PUSH0 PUSH2 0x1994 PUSH2 0x198F PUSH2 0x198A DUP5 PUSH2 0xFDE JUMP JUMPDEST PUSH2 0x1971 JUMP JUMPDEST PUSH2 0xFDE JUMP JUMPDEST SWAP1 POP SWAP2 SWAP1 POP JUMP JUMPDEST PUSH0 DUP2 SWAP1 POP SWAP2 SWAP1 POP JUMP JUMPDEST PUSH2 0x19AD DUP4 PUSH2 0x197A JUMP JUMPDEST PUSH2 0x19C1 PUSH2 0x19B9 DUP3 PUSH2 0x199B JUMP JUMPDEST DUP5 DUP5 SLOAD PUSH2 0x1920 JUMP JUMPDEST DUP3 SSTORE POP POP POP POP JUMP JUMPDEST PUSH0 PUSH0 SWAP1 POP SWAP1 JUMP JUMPDEST PUSH2 0x19D8 PUSH2 0x19C9 JUMP JUMPDEST PUSH2 0x19E3 DUP2 DUP5 DUP5 PUSH2 0x19A4 JUMP JUMPDEST POP POP POP JUMP JUMPDEST JUMPDEST DUP2 DUP2 LT ISZERO PUSH2 0x1A06 JUMPI PUSH2 0x19FB PUSH0 DUP3 PUSH2 0x19D0 JUMP JUMPDEST PUSH1 0x1 DUP2 ADD SWAP1 POP PUSH2 0x19E9 JUMP JUMPDEST POP POP JUMP JUMPDEST PUSH1 0x1F DUP3 GT ISZERO PUSH2 0x1A4B JUMPI PUSH2 0x1A1C DUP2 PUSH2 0x18F3 JUMP JUMPDEST PUSH2 0x1A25 DUP5 PUSH2 0x1905 JUMP JUMPDEST DUP2 ADD PUSH1 0x20 DUP6 LT ISZERO PUSH2 0x1A34 JUMPI DUP2 SWAP1 POP JUMPDEST PUSH2 0x1A48 PUSH2 0x1A40 DUP6 PUSH2 0x1905 JUMP JUMPDEST DUP4 ADD DUP3 PUSH2 0x19E8 JUMP JUMPDEST POP POP JUMPDEST POP POP POP JUMP JUMPDEST PUSH0 DUP3 DUP3 SHR SWAP1 POP SWAP3 SWAP2 POP POP JUMP JUMPDEST PUSH0 PUSH2 0x1A6B PUSH0 NOT DUP5 PUSH1 0x8 MUL PUSH2 0x1A50 JUMP JUMPDEST NOT DUP1 DUP4 AND SWAP2 POP POP SWAP3 SWAP2 POP POP JUMP JUMPDEST PUSH0 PUSH2 0x1A83 DUP4 DUP4 PUSH2 0x1A5C JUMP JUMPDEST SWAP2 POP DUP3 PUSH1 0x2 MUL DUP3 OR SWAP1 POP SWAP3 SWAP2 POP POP JUMP JUMPDEST PUSH2 0x1A9C DUP3 PUSH2 0x1064 JUMP JUMPDEST PUSH8 0xFFFFFFFFFFFFFFFF DUP2 GT ISZERO PUSH2 0x1AB5 JUMPI PUSH2 0x1AB4 PUSH2 0x119D JUMP JUMPDEST JUMPDEST PUSH2 0x1ABF DUP3 SLOAD PUSH2 0x17CD JUMP JUMPDEST PUSH2 0x1ACA DUP3 DUP3 DUP6 PUSH2 0x1A0A JUMP JUMPDEST PUSH0 PUSH1 0x20 SWAP1 POP PUSH1 0x1F DUP4 GT PUSH1 0x1 DUP2 EQ PUSH2 0x1AFB JUMPI PUSH0 DUP5 ISZERO PUSH2 0x1AE9 JUMPI DUP3 DUP8 ADD MLOAD SWAP1 POP JUMPDEST PUSH2 0x1AF3 DUP6 DUP3 PUSH2 0x1A78 JUMP JUMPDEST DUP7 SSTORE POP PUSH2 0x1B5A JUMP JUMPDEST PUSH1 0x1F NOT DUP5 AND PUSH2 0x1B09 DUP7 PUSH2 0x18F3 JUMP JUMPDEST PUSH0 JUMPDEST DUP3 DUP2 LT ISZERO PUSH2 0x1B30 JUMPI DUP5 DUP10 ADD MLOAD DUP3 SSTORE PUSH1 0x1 DUP3 ADD SWAP2 POP PUSH1 0x20 DUP6 ADD SWAP5 POP PUSH1 0x20 DUP2 ADD SWAP1 POP PUSH2 0x1B0B JUMP JUMPDEST DUP7 DUP4 LT ISZERO PUSH2 0x1B4D JUMPI DUP5 DUP10 ADD MLOAD PUSH2 0x1B49 PUSH1 0x1F DUP10 AND DUP3 PUSH2 0x1A5C JUMP JUMPDEST DUP4 SSTORE POP JUMPDEST PUSH1 0x1 PUSH1 0x2 DUP9 MUL ADD DUP9 SSTORE POP POP POP JUMPDEST POP POP POP POP POP POP JUMP JUMPDEST PUSH0 PUSH1 0x40 DUP3 ADD SWAP1 POP PUSH2 0x1B75 PUSH0 DUP4 ADD DUP6 PUSH2 0x103C JUMP JUMPDEST DUP2 DUP2 SUB PUSH1 0x20 DUP4 ADD MSTORE PUSH2 0x1B87 DUP2 DUP5 PUSH2 0x109C JUMP JUMPDEST SWAP1 POP SWAP4 SWAP3 POP POP POP JUMP JUMPDEST PUSH32 0x566F74696E67206973207374696C6C206F70656E000000000000000000000000 PUSH0 DUP3 ADD MSTORE POP JUMP JUMPDEST PUSH0 PUSH2 0x1BC4 PUSH1 0x14 DUP4 PUSH2 0x106E JUMP JUMPDEST SWAP2 POP PUSH2 0x1BCF DUP3 PUSH2 0x1B90 JUMP JUMPDEST PUSH1 0x20 DUP3 ADD SWAP1 POP SWAP2 SWAP1 POP JUMP JUMPDEST PUSH0 PUSH1 0x20 DUP3 ADD SWAP1 POP DUP2 DUP2 SUB PUSH0 DUP4 ADD MSTORE PUSH2 0x1BF1 DUP2 PUSH2 0x1BB8 JUMP JUMPDEST SWAP1 POP SWAP2 SWAP1 POP JUMP JUMPDEST PUSH0 PUSH2 0x1C02 DUP3 PUSH2 0xFDE JUMP JUMPDEST SWAP2 POP PUSH2 0x1C0D DUP4 PUSH2 0xFDE JUMP JUMPDEST SWAP3 POP DUP3 DUP3 SUB SWAP1 POP DUP2 DUP2 GT ISZERO PUSH2 0x1C25 JUMPI PUSH2 0x1C24 PUSH2 0x1705 JUMP JUMPDEST JUMPDEST SWAP3 SWAP2 POP POP JUMP JUMPDEST PUSH32 0x4E487B7100000000000000000000000000000000000000000000000000000000 PUSH0 MSTORE PUSH1 0x32 PUSH1 0x4 MSTORE PUSH1 0x24 PUSH0 REVERT JUMPDEST PUSH32 0x4E6F2063616E6469646174657300000000000000000000000000000000000000 PUSH0 DUP3 ADD MSTORE POP JUMP JUMPDEST PUSH0 PUSH2 0x1C8C PUSH1 0xD DUP4 PUSH2 0x106E JUMP JUMPDEST SWAP2 POP PUSH2 0x1C97 DUP3 PUSH2 0x1C58 JUMP JUMPDEST PUSH1 0x20 DUP3 ADD SWAP1 POP SWAP2 SWAP1 POP JUMP JUMPDEST PUSH0 PUSH1 0x20 DUP3 ADD SWAP1 POP DUP2 DUP2 SUB PUSH0 DUP4 ADD MSTORE PUSH2 0x1CB9 DUP2 PUSH2 0x1C80 JUMP JUMPDEST SWAP1 POP SWAP2 SWAP1 POP JUMP JUMPDEST PUSH32 0x4E6F2063616E6469646174657320617661696C61626C65000000000000000000 PUSH0 DUP3 ADD MSTORE POP JUMP JUMPDEST PUSH0 PUSH2 0x1CF4 PUSH1 0x17 DUP4 PUSH2 0x106E JUMP JUMPDEST SWAP2 POP PUSH2 0x1CFF DUP3 PUSH2 0x1CC0 JUMP JUMPDEST PUSH1 0x20 DUP3 ADD SWAP1 POP SWAP2 SWAP1 POP JUMP JUMPDEST PUSH0 PUSH1 0x20 DUP3 ADD SWAP1 POP DUP2 DUP2 SUB PUSH0 DUP4 ADD MSTORE PUSH2 0x1D21 DUP2 PUSH2 0x1CE8 JUMP JUMPDEST SWAP1 POP SWAP2 SWAP1 POP JUMP INVALID LOG2 PUSH5 0x6970667358 0x22 SLT KECCAK256 PUSH5 0x1D233A79D1 DUP3 CALLVALUE 0xED 0xE8 0xB6 ADD 0x27 PUSH27 0x84919622DE782F817D96D4CA78678775F90A64736F6C634300081E STOP CALLER "
				},
				"gasEstimates": {
					"creation": {
						"codeDepositCost": "1503600",
						"executionCost": "infinite",
						"totalCost": "infinite"
					},
					"external": {
						"addCandidate(string)": "infinite",
						"candidates(uint256)": "infinite",
						"candidatesCount()": "2493",
						"closeVoting()": "27857",
						"electionName()": "infinite",
						"getResults()": "infinite",
						"getWinner()": "infinite",
						"openVoting()": "29959",
						"owner()": "2552",
						"registerVoter(address)": "infinite",
						"totalVotes()": "2471",
						"vote(uint256)": "infinite",
						"voters(address)": "infinite",
						"votingOpen()": "2510"
					}
				},
				"methodIdentifiers": {
					"addCandidate(string)": "462e91ec",
					"candidates(uint256)": "3477ee2e",
					"candidatesCount()": "2d35a8a2",
					"closeVoting()": "c631b292",
					"electionName()": "85e8e7a7",
					"getResults()": "4717f97c",
					"getWinner()": "8e7ea5b2",
					"openVoting()": "affc0670",
					"owner()": "8da5cb5b",
					"registerVoter(address)": "38db6dd3",
					"totalVotes()": "0d15fd77",
					"vote(uint256)": "0121b93f",
					"voters(address)": "a3ec138d",
					"votingOpen()": "a95824b4"
				}
			},
			"storageLayout": {
				"storage": [
					{
						"astId": 17,
						"contract": "contracts/DecentralizedVoting.sol:DecentralizedVoting",
						"label": "owner",
						"offset": 0,
						"slot": "0",
						"type": "t_address"
					},
					{
						"astId": 19,
						"contract": "contracts/DecentralizedVoting.sol:DecentralizedVoting",
						"label": "electionName",
						"offset": 0,
						"slot": "1",
						"type": "t_string_storage"
					},
					{
						"astId": 21,
						"contract": "contracts/DecentralizedVoting.sol:DecentralizedVoting",
						"label": "votingOpen",
						"offset": 0,
						"slot": "2",
						"type": "t_bool"
					},
					{
						"astId": 26,
						"contract": "contracts/DecentralizedVoting.sol:DecentralizedVoting",
						"label": "candidates",
						"offset": 0,
						"slot": "3",
						"type": "t_mapping(t_uint256,t_struct(Candidate)8_storage)"
					},
					{
						"astId": 31,
						"contract": "contracts/DecentralizedVoting.sol:DecentralizedVoting",
						"label": "voters",
						"offset": 0,
						"slot": "4",
						"type": "t_mapping(t_address,t_struct(Voter)15_storage)"
					},
					{
						"astId": 33,
						"contract": "contracts/DecentralizedVoting.sol:DecentralizedVoting",
						"label": "candidatesCount",
						"offset": 0,
						"slot": "5",
						"type": "t_uint256"
					},
					{
						"astId": 35,
						"contract": "contracts/DecentralizedVoting.sol:DecentralizedVoting",
						"label": "totalVotes",
						"offset": 0,
						"slot": "6",
						"type": "t_uint256"
					}
				],
				"types": {
					"t_address": {
						"encoding": "inplace",
						"label": "address",
						"numberOfBytes": "20"
					},
					"t_bool": {
						"encoding": "inplace",
						"label": "bool",
						"numberOfBytes": "1"
					},
					"t_mapping(t_address,t_struct(Voter)15_storage)": {
						"encoding": "mapping",
						"key": "t_address",
						"label": "mapping(address => struct DecentralizedVoting.Voter)",
						"numberOfBytes": "32",
						"value": "t_struct(Voter)15_storage"
					},
					"t_mapping(t_uint256,t_struct(Candidate)8_storage)": {
						"encoding": "mapping",
						"key": "t_uint256",
						"label": "mapping(uint256 => struct DecentralizedVoting.Candidate)",
						"numberOfBytes": "32",
						"value": "t_struct(Candidate)8_storage"
					},
					"t_string_storage": {
						"encoding": "bytes",
						"label": "string",
						"numberOfBytes": "32"
					},
					"t_struct(Candidate)8_storage": {
						"encoding": "inplace",
						"label": "struct DecentralizedVoting.Candidate",
						"members": [
							{
								"astId": 3,
								"contract": "contracts/DecentralizedVoting.sol:DecentralizedVoting",
								"label": "id",
								"offset": 0,
								"slot": "0",
								"type": "t_uint256"
							},
							{
								"astId": 5,
								"contract": "contracts/DecentralizedVoting.sol:DecentralizedVoting",
								"label": "name",
								"offset": 0,
								"slot": "1",
								"type": "t_string_storage"
							},
							{
								"astId": 7,
								"contract": "contracts/DecentralizedVoting.sol:DecentralizedVoting",
								"label": "voteCount",
								"offset": 0,
								"slot": "2",
								"type": "t_uint256"
							}
						],
						"numberOfBytes": "96"
					},
					"t_struct(Voter)15_storage": {
						"encoding": "inplace",
						"label": "struct DecentralizedVoting.Voter",
						"members": [
							{
								"astId": 10,
								"contract": "contracts/DecentralizedVoting.sol:DecentralizedVoting",
								"label": "hasVoted",
								"offset": 0,
								"slot": "0",
								"type": "t_bool"
							},
							{
								"astId": 12,
								"contract": "contracts/DecentralizedVoting.sol:DecentralizedVoting",
								"label": "votedCandidateId",
								"offset": 0,
								"slot": "1",
								"type": "t_uint256"
							},
							{
								"astId": 14,
								"contract": "contracts/DecentralizedVoting.sol:DecentralizedVoting",
								"label": "isRegistered",
								"offset": 0,
								"slot": "2",
								"type": "t_bool"
							}
						],
						"numberOfBytes": "96"
					},
					"t_uint256": {
						"encoding": "inplace",
						"label": "uint256",
						"numberOfBytes": "32"
					}
				}
			},
			"userdoc": {
				"kind": "user",
				"methods": {},
				"version": 1
			}
		}
	}
}